{
	"contracts/XORA.sol": {
		"XORA": {
			"abi": [
				{
					"inputs": [
						{
							"internalType": "address",
							"name": "_pairLiquidityPool",
							"type": "address"
						}
					],
					"stateMutability": "nonpayable",
					"type": "constructor"
				},
				{
					"inputs": [
						{
							"internalType": "address",
							"name": "spender",
							"type": "address"
						},
						{
							"internalType": "uint256",
							"name": "allowance",
							"type": "uint256"
						},
						{
							"internalType": "uint256",
							"name": "needed",
							"type": "uint256"
						}
					],
					"name": "ERC20InsufficientAllowance",
					"type": "error"
				},
				{
					"inputs": [
						{
							"internalType": "address",
							"name": "sender",
							"type": "address"
						},
						{
							"internalType": "uint256",
							"name": "balance",
							"type": "uint256"
						},
						{
							"internalType": "uint256",
							"name": "needed",
							"type": "uint256"
						}
					],
					"name": "ERC20InsufficientBalance",
					"type": "error"
				},
				{
					"inputs": [
						{
							"internalType": "address",
							"name": "approver",
							"type": "address"
						}
					],
					"name": "ERC20InvalidApprover",
					"type": "error"
				},
				{
					"inputs": [
						{
							"internalType": "address",
							"name": "receiver",
							"type": "address"
						}
					],
					"name": "ERC20InvalidReceiver",
					"type": "error"
				},
				{
					"inputs": [
						{
							"internalType": "address",
							"name": "sender",
							"type": "address"
						}
					],
					"name": "ERC20InvalidSender",
					"type": "error"
				},
				{
					"inputs": [
						{
							"internalType": "address",
							"name": "spender",
							"type": "address"
						}
					],
					"name": "ERC20InvalidSpender",
					"type": "error"
				},
				{
					"inputs": [
						{
							"internalType": "address",
							"name": "owner",
							"type": "address"
						}
					],
					"name": "OwnableInvalidOwner",
					"type": "error"
				},
				{
					"inputs": [
						{
							"internalType": "address",
							"name": "account",
							"type": "address"
						}
					],
					"name": "OwnableUnauthorizedAccount",
					"type": "error"
				},
				{
					"anonymous": false,
					"inputs": [
						{
							"indexed": true,
							"internalType": "address",
							"name": "owner",
							"type": "address"
						},
						{
							"indexed": true,
							"internalType": "address",
							"name": "spender",
							"type": "address"
						},
						{
							"indexed": false,
							"internalType": "uint256",
							"name": "value",
							"type": "uint256"
						}
					],
					"name": "Approval",
					"type": "event"
				},
				{
					"anonymous": false,
					"inputs": [
						{
							"indexed": false,
							"internalType": "uint256",
							"name": "amount",
							"type": "uint256"
						}
					],
					"name": "BuyBackAndBurn",
					"type": "event"
				},
				{
					"anonymous": false,
					"inputs": [
						{
							"indexed": true,
							"internalType": "address",
							"name": "previousOwner",
							"type": "address"
						},
						{
							"indexed": true,
							"internalType": "address",
							"name": "newOwner",
							"type": "address"
						}
					],
					"name": "OwnershipTransferred",
					"type": "event"
				},
				{
					"anonymous": false,
					"inputs": [
						{
							"indexed": false,
							"internalType": "uint256",
							"name": "newRewardRate",
							"type": "uint256"
						}
					],
					"name": "RewardHalved",
					"type": "event"
				},
				{
					"anonymous": false,
					"inputs": [
						{
							"indexed": false,
							"internalType": "uint256",
							"name": "initialRewardRate",
							"type": "uint256"
						},
						{
							"indexed": false,
							"internalType": "address",
							"name": "stablecoin",
							"type": "address"
						}
					],
					"name": "RewardParametersInitialized",
					"type": "event"
				},
				{
					"anonymous": false,
					"inputs": [
						{
							"indexed": false,
							"internalType": "uint256",
							"name": "amount",
							"type": "uint256"
						}
					],
					"name": "TokensBurned",
					"type": "event"
				},
				{
					"anonymous": false,
					"inputs": [
						{
							"indexed": true,
							"internalType": "address",
							"name": "from",
							"type": "address"
						},
						{
							"indexed": true,
							"internalType": "address",
							"name": "to",
							"type": "address"
						},
						{
							"indexed": false,
							"internalType": "uint256",
							"name": "value",
							"type": "uint256"
						}
					],
					"name": "Transfer",
					"type": "event"
				},
				{
					"inputs": [],
					"name": "COMMUNITY_GROWTH_AND_MARKETING",
					"outputs": [
						{
							"internalType": "address",
							"name": "",
							"type": "address"
						}
					],
					"stateMutability": "view",
					"type": "function"
				},
				{
					"inputs": [],
					"name": "HALVING_PERIOD",
					"outputs": [
						{
							"internalType": "uint256",
							"name": "",
							"type": "uint256"
						}
					],
					"stateMutability": "view",
					"type": "function"
				},
				{
					"inputs": [],
					"name": "ICO_ALLOCATION",
					"outputs": [
						{
							"internalType": "address",
							"name": "",
							"type": "address"
						}
					],
					"stateMutability": "view",
					"type": "function"
				},
				{
					"inputs": [],
					"name": "INITIAL_SUPPLY",
					"outputs": [
						{
							"internalType": "uint256",
							"name": "",
							"type": "uint256"
						}
					],
					"stateMutability": "view",
					"type": "function"
				},
				{
					"inputs": [],
					"name": "LIQUIDITY_POOL",
					"outputs": [
						{
							"internalType": "address",
							"name": "",
							"type": "address"
						}
					],
					"stateMutability": "view",
					"type": "function"
				},
				{
					"inputs": [],
					"name": "MARKETING_INITIAL_UNLOCK",
					"outputs": [
						{
							"internalType": "uint256",
							"name": "",
							"type": "uint256"
						}
					],
					"stateMutability": "view",
					"type": "function"
				},
				{
					"inputs": [],
					"name": "PLAY_TO_EARN",
					"outputs": [
						{
							"internalType": "address",
							"name": "",
							"type": "address"
						}
					],
					"stateMutability": "view",
					"type": "function"
				},
				{
					"inputs": [],
					"name": "STRADEGIC_RESERVE",
					"outputs": [
						{
							"internalType": "address",
							"name": "",
							"type": "address"
						}
					],
					"stateMutability": "view",
					"type": "function"
				},
				{
					"inputs": [],
					"name": "TEAM_AND_DEVELOPMENT",
					"outputs": [
						{
							"internalType": "address",
							"name": "",
							"type": "address"
						}
					],
					"stateMutability": "view",
					"type": "function"
				},
				{
					"inputs": [
						{
							"internalType": "address",
							"name": "owner",
							"type": "address"
						},
						{
							"internalType": "address",
							"name": "spender",
							"type": "address"
						}
					],
					"name": "allowance",
					"outputs": [
						{
							"internalType": "uint256",
							"name": "",
							"type": "uint256"
						}
					],
					"stateMutability": "view",
					"type": "function"
				},
				{
					"inputs": [
						{
							"internalType": "address",
							"name": "spender",
							"type": "address"
						},
						{
							"internalType": "uint256",
							"name": "value",
							"type": "uint256"
						}
					],
					"name": "approve",
					"outputs": [
						{
							"internalType": "bool",
							"name": "",
							"type": "bool"
						}
					],
					"stateMutability": "nonpayable",
					"type": "function"
				},
				{
					"inputs": [
						{
							"internalType": "address",
							"name": "account",
							"type": "address"
						}
					],
					"name": "balanceOf",
					"outputs": [
						{
							"internalType": "uint256",
							"name": "",
							"type": "uint256"
						}
					],
					"stateMutability": "view",
					"type": "function"
				},
				{
					"inputs": [],
					"name": "buyTax",
					"outputs": [
						{
							"internalType": "uint256",
							"name": "",
							"type": "uint256"
						}
					],
					"stateMutability": "view",
					"type": "function"
				},
				{
					"inputs": [],
					"name": "decimals",
					"outputs": [
						{
							"internalType": "uint8",
							"name": "",
							"type": "uint8"
						}
					],
					"stateMutability": "view",
					"type": "function"
				},
				{
					"inputs": [],
					"name": "halveRewards",
					"outputs": [],
					"stateMutability": "nonpayable",
					"type": "function"
				},
				{
					"inputs": [
						{
							"internalType": "uint256",
							"name": "_initialRewardRate",
							"type": "uint256"
						},
						{
							"internalType": "address",
							"name": "_stablecoin",
							"type": "address"
						}
					],
					"name": "initializeRewardParameters",
					"outputs": [],
					"stateMutability": "nonpayable",
					"type": "function"
				},
				{
					"inputs": [],
					"name": "lastHalvingTime",
					"outputs": [
						{
							"internalType": "uint256",
							"name": "",
							"type": "uint256"
						}
					],
					"stateMutability": "view",
					"type": "function"
				},
				{
					"inputs": [],
					"name": "marketingAllocated",
					"outputs": [
						{
							"internalType": "uint256",
							"name": "",
							"type": "uint256"
						}
					],
					"stateMutability": "view",
					"type": "function"
				},
				{
					"inputs": [],
					"name": "name",
					"outputs": [
						{
							"internalType": "string",
							"name": "",
							"type": "string"
						}
					],
					"stateMutability": "view",
					"type": "function"
				},
				{
					"inputs": [],
					"name": "owner",
					"outputs": [
						{
							"internalType": "address",
							"name": "",
							"type": "address"
						}
					],
					"stateMutability": "view",
					"type": "function"
				},
				{
					"inputs": [],
					"name": "releaseMarketingTokens",
					"outputs": [],
					"stateMutability": "nonpayable",
					"type": "function"
				},
				{
					"inputs": [],
					"name": "releaseTeamTokens",
					"outputs": [],
					"stateMutability": "nonpayable",
					"type": "function"
				},
				{
					"inputs": [],
					"name": "releasedMarketingAmount",
					"outputs": [
						{
							"internalType": "uint256",
							"name": "",
							"type": "uint256"
						}
					],
					"stateMutability": "view",
					"type": "function"
				},
				{
					"inputs": [],
					"name": "releasedTeamAmount",
					"outputs": [
						{
							"internalType": "uint256",
							"name": "",
							"type": "uint256"
						}
					],
					"stateMutability": "view",
					"type": "function"
				},
				{
					"inputs": [],
					"name": "renounceOwnership",
					"outputs": [],
					"stateMutability": "nonpayable",
					"type": "function"
				},
				{
					"inputs": [],
					"name": "rewardRate",
					"outputs": [
						{
							"internalType": "uint256",
							"name": "",
							"type": "uint256"
						}
					],
					"stateMutability": "view",
					"type": "function"
				},
				{
					"inputs": [],
					"name": "sellTax",
					"outputs": [
						{
							"internalType": "uint256",
							"name": "",
							"type": "uint256"
						}
					],
					"stateMutability": "view",
					"type": "function"
				},
				{
					"inputs": [],
					"name": "stablecoin",
					"outputs": [
						{
							"internalType": "contract IERC20",
							"name": "",
							"type": "address"
						}
					],
					"stateMutability": "view",
					"type": "function"
				},
				{
					"inputs": [],
					"name": "symbol",
					"outputs": [
						{
							"internalType": "string",
							"name": "",
							"type": "string"
						}
					],
					"stateMutability": "view",
					"type": "function"
				},
				{
					"inputs": [],
					"name": "teamAllocated",
					"outputs": [
						{
							"internalType": "uint256",
							"name": "",
							"type": "uint256"
						}
					],
					"stateMutability": "view",
					"type": "function"
				},
				{
					"inputs": [],
					"name": "totalSupply",
					"outputs": [
						{
							"internalType": "uint256",
							"name": "",
							"type": "uint256"
						}
					],
					"stateMutability": "view",
					"type": "function"
				},
				{
					"inputs": [
						{
							"internalType": "address",
							"name": "to",
							"type": "address"
						},
						{
							"internalType": "uint256",
							"name": "value",
							"type": "uint256"
						}
					],
					"name": "transfer",
					"outputs": [
						{
							"internalType": "bool",
							"name": "",
							"type": "bool"
						}
					],
					"stateMutability": "nonpayable",
					"type": "function"
				},
				{
					"inputs": [
						{
							"internalType": "address",
							"name": "from",
							"type": "address"
						},
						{
							"internalType": "address",
							"name": "to",
							"type": "address"
						},
						{
							"internalType": "uint256",
							"name": "value",
							"type": "uint256"
						}
					],
					"name": "transferFrom",
					"outputs": [
						{
							"internalType": "bool",
							"name": "",
							"type": "bool"
						}
					],
					"stateMutability": "nonpayable",
					"type": "function"
				},
				{
					"inputs": [
						{
							"internalType": "address",
							"name": "newOwner",
							"type": "address"
						}
					],
					"name": "transferOwnership",
					"outputs": [],
					"stateMutability": "nonpayable",
					"type": "function"
				}
			],
			"devdoc": {
				"errors": {
					"ERC20InsufficientAllowance(address,uint256,uint256)": [
						{
							"details": "Indicates a failure with the `spender`’s `allowance`. Used in transfers.",
							"params": {
								"allowance": "Amount of tokens a `spender` is allowed to operate with.",
								"needed": "Minimum amount required to perform a transfer.",
								"spender": "Address that may be allowed to operate on tokens without being their owner."
							}
						}
					],
					"ERC20InsufficientBalance(address,uint256,uint256)": [
						{
							"details": "Indicates an error related to the current `balance` of a `sender`. Used in transfers.",
							"params": {
								"balance": "Current balance for the interacting account.",
								"needed": "Minimum amount required to perform a transfer.",
								"sender": "Address whose tokens are being transferred."
							}
						}
					],
					"ERC20InvalidApprover(address)": [
						{
							"details": "Indicates a failure with the `approver` of a token to be approved. Used in approvals.",
							"params": {
								"approver": "Address initiating an approval operation."
							}
						}
					],
					"ERC20InvalidReceiver(address)": [
						{
							"details": "Indicates a failure with the token `receiver`. Used in transfers.",
							"params": {
								"receiver": "Address to which tokens are being transferred."
							}
						}
					],
					"ERC20InvalidSender(address)": [
						{
							"details": "Indicates a failure with the token `sender`. Used in transfers.",
							"params": {
								"sender": "Address whose tokens are being transferred."
							}
						}
					],
					"ERC20InvalidSpender(address)": [
						{
							"details": "Indicates a failure with the `spender` to be approved. Used in approvals.",
							"params": {
								"spender": "Address that may be allowed to operate on tokens without being their owner."
							}
						}
					],
					"OwnableInvalidOwner(address)": [
						{
							"details": "The owner is not a valid owner account. (eg. `address(0)`)"
						}
					],
					"OwnableUnauthorizedAccount(address)": [
						{
							"details": "The caller account is not authorized to perform an operation."
						}
					]
				},
				"events": {
					"Approval(address,address,uint256)": {
						"details": "Emitted when the allowance of a `spender` for an `owner` is set by a call to {approve}. `value` is the new allowance."
					},
					"Transfer(address,address,uint256)": {
						"details": "Emitted when `value` tokens are moved from one account (`from`) to another (`to`). Note that `value` may be zero."
					}
				},
				"kind": "dev",
				"methods": {
					"allowance(address,address)": {
						"details": "See {IERC20-allowance}."
					},
					"approve(address,uint256)": {
						"details": "See {IERC20-approve}. NOTE: If `value` is the maximum `uint256`, the allowance is not updated on `transferFrom`. This is semantically equivalent to an infinite approval. Requirements: - `spender` cannot be the zero address."
					},
					"balanceOf(address)": {
						"details": "See {IERC20-balanceOf}."
					},
					"decimals()": {
						"details": "Returns the number of decimals used to get its user representation. For example, if `decimals` equals `2`, a balance of `505` tokens should be displayed to a user as `5.05` (`505 / 10 ** 2`). Tokens usually opt for a value of 18, imitating the relationship between Ether and Wei. This is the default value returned by this function, unless it's overridden. NOTE: This information is only used for _display_ purposes: it in no way affects any of the arithmetic of the contract, including {IERC20-balanceOf} and {IERC20-transfer}."
					},
					"name()": {
						"details": "Returns the name of the token."
					},
					"owner()": {
						"details": "Returns the address of the current owner."
					},
					"renounceOwnership()": {
						"details": "Leaves the contract without owner. It will not be possible to call `onlyOwner` functions. Can only be called by the current owner. NOTE: Renouncing ownership will leave the contract without an owner, thereby disabling any functionality that is only available to the owner."
					},
					"symbol()": {
						"details": "Returns the symbol of the token, usually a shorter version of the name."
					},
					"totalSupply()": {
						"details": "See {IERC20-totalSupply}."
					},
					"transfer(address,uint256)": {
						"details": "See {IERC20-transfer}. Requirements: - `to` cannot be the zero address. - the caller must have a balance of at least `value`."
					},
					"transferFrom(address,address,uint256)": {
						"details": "See {IERC20-transferFrom}. Skips emitting an {Approval} event indicating an allowance update. This is not required by the ERC. See {xref-ERC20-_approve-address-address-uint256-bool-}[_approve]. NOTE: Does not update the allowance if the current allowance is the maximum `uint256`. Requirements: - `from` and `to` cannot be the zero address. - `from` must have a balance of at least `value`. - the caller must have allowance for ``from``'s tokens of at least `value`."
					},
					"transferOwnership(address)": {
						"details": "Transfers ownership of the contract to a new account (`newOwner`). Can only be called by the current owner."
					}
				},
				"version": 1
			},
			"evm": {
				"assembly": "    /* \"contracts/XORA.sol\":231:5509  contract XORA is ERC20, Ownable, ReentrancyGuard {... */\n  mstore(0x40, 0x80)\n    /* \"contracts/XORA.sol\":412:413  1 */\n  0x01\n    /* \"contracts/XORA.sol\":388:413  uint256 public buyTax = 1 */\n  0x08\n  sstore\n    /* \"contracts/XORA.sol\":444:445  1 */\n  0x01\n    /* \"contracts/XORA.sol\":419:445  uint256 public sellTax = 1 */\n  0x09\n  sstore\n    /* \"contracts/XORA.sol\":741:763  100_000_000 * (10**18) */\n  0x52b7d2dcc80cd2e4000000\n    /* \"contracts/XORA.sol\":714:763  uint256  TEAM_TOTAL_FUND = 100_000_000 * (10**18) */\n  0x0d\n  sstore\n    /* \"contracts/XORA.sol\":898:920  100_000_000 * (10**18) */\n  0x52b7d2dcc80cd2e4000000\n    /* \"contracts/XORA.sol\":867:920  uint256 public teamAllocated = 100_000_000 * (10**18) */\n  0x0f\n  sstore\n    /* \"contracts/XORA.sol\":1001:1013  12 * 30 days */\n  0x01da9c00\n    /* \"contracts/XORA.sol\":965:1013  uint256  MARKETING_VESTING_PERIOD = 12 * 30 days */\n  0x11\n  sstore\n    /* \"contracts/XORA.sol\":1056:1077  75_000_000 * (10**18) */\n  0x3e09de2596099e2b000000\n    /* \"contracts/XORA.sol\":1020:1077  uint256 public marketingAllocated = 75_000_000 * (10**18) */\n  0x12\n  sstore\n    /* \"contracts/XORA.sol\":2059:2682  constructor(address _pairLiquidityPool) Ownable(msg.sender) ERC20(\"XORA Token\", \"XORA\") {... */\n  callvalue\n  dup1\n  iszero\n  tag_1\n  jumpi\n  0x00\n  dup1\n  revert\ntag_1:\n  pop\n  mload(0x40)\n  sub(codesize, bytecodeSize)\n  dup1\n  bytecodeSize\n  dup4\n  codecopy\n  dup2\n  dup2\n  add\n  0x40\n  mstore\n  dup2\n  add\n  swap1\n  tag_2\n  swap2\n  swap1\n  tag_3\n  jump\t// in\ntag_2:\n    /* \"contracts/XORA.sol\":2107:2117  msg.sender */\n  caller\n    /* \"@openzeppelin/contracts/token/ERC20/ERC20.sol\":1601:1714  constructor(string memory name_, string memory symbol_) {... */\n  mload(0x40)\n  dup1\n  0x40\n  add\n  0x40\n  mstore\n  dup1\n  0x0a\n  dup2\n  mstore\n  0x20\n  add\n  0x584f524120546f6b656e00000000000000000000000000000000000000000000\n  dup2\n  mstore\n  pop\n  mload(0x40)\n  dup1\n  0x40\n  add\n  0x40\n  mstore\n  dup1\n  0x04\n  dup2\n  mstore\n  0x20\n  add\n  0x584f524100000000000000000000000000000000000000000000000000000000\n  dup2\n  mstore\n  pop\n    /* \"@openzeppelin/contracts/token/ERC20/ERC20.sol\":1675:1680  name_ */\n  dup2\n    /* \"@openzeppelin/contracts/token/ERC20/ERC20.sol\":1667:1672  _name */\n  0x03\n    /* \"@openzeppelin/contracts/token/ERC20/ERC20.sol\":1667:1680  _name = name_ */\n  swap1\n  dup2\n  tag_9\n  swap2\n  swap1\n  tag_10\n  jump\t// in\ntag_9:\n  pop\n    /* \"@openzeppelin/contracts/token/ERC20/ERC20.sol\":1700:1707  symbol_ */\n  dup1\n    /* \"@openzeppelin/contracts/token/ERC20/ERC20.sol\":1690:1697  _symbol */\n  0x04\n    /* \"@openzeppelin/contracts/token/ERC20/ERC20.sol\":1690:1707  _symbol = symbol_ */\n  swap1\n  dup2\n  tag_11\n  swap2\n  swap1\n  tag_10\n  jump\t// in\ntag_11:\n  pop\n    /* \"@openzeppelin/contracts/token/ERC20/ERC20.sol\":1601:1714  constructor(string memory name_, string memory symbol_) {... */\n  pop\n  pop\n    /* \"@openzeppelin/contracts/access/Ownable.sol\":1297:1298  0 */\n  0x00\n    /* \"@openzeppelin/contracts/access/Ownable.sol\":1273:1299  initialOwner == address(0) */\n  0xffffffffffffffffffffffffffffffffffffffff\n  and\n    /* \"@openzeppelin/contracts/access/Ownable.sol\":1273:1285  initialOwner */\n  dup2\n    /* \"@openzeppelin/contracts/access/Ownable.sol\":1273:1299  initialOwner == address(0) */\n  0xffffffffffffffffffffffffffffffffffffffff\n  and\n  sub\n    /* \"@openzeppelin/contracts/access/Ownable.sol\":1269:1364  if (initialOwner == address(0)) {... */\n  tag_13\n  jumpi\n    /* \"@openzeppelin/contracts/access/Ownable.sol\":1350:1351  0 */\n  0x00\n    /* \"@openzeppelin/contracts/access/Ownable.sol\":1322:1353  OwnableInvalidOwner(address(0)) */\n  mload(0x40)\n  0x1e4fbdf700000000000000000000000000000000000000000000000000000000\n  dup2\n  mstore\n  0x04\n  add\n  tag_14\n  swap2\n  swap1\n  tag_15\n  jump\t// in\ntag_14:\n  mload(0x40)\n  dup1\n  swap2\n  sub\n  swap1\n  revert\n    /* \"@openzeppelin/contracts/access/Ownable.sol\":1269:1364  if (initialOwner == address(0)) {... */\ntag_13:\n    /* \"@openzeppelin/contracts/access/Ownable.sol\":1373:1405  _transferOwnership(initialOwner) */\n  tag_16\n    /* \"@openzeppelin/contracts/access/Ownable.sol\":1392:1404  initialOwner */\n  dup2\n    /* \"@openzeppelin/contracts/access/Ownable.sol\":1373:1391  _transferOwnership */\n  shl(0x20, tag_17)\n    /* \"@openzeppelin/contracts/access/Ownable.sol\":1373:1405  _transferOwnership(initialOwner) */\n  0x20\n  shr\n  jump\t// in\ntag_16:\n    /* \"@openzeppelin/contracts/access/Ownable.sol\":1225:1412  constructor(address initialOwner) {... */\n  pop\n    /* \"@openzeppelin/contracts/security/ReentrancyGuard.sol\":1716:1717  1 */\n  0x01\n    /* \"@openzeppelin/contracts/security/ReentrancyGuard.sol\":1821:1828  _status */\n  0x06\n    /* \"@openzeppelin/contracts/security/ReentrancyGuard.sol\":1821:1843  _status = _NOT_ENTERED */\n  dup2\n  swap1\n  sstore\n  pop\n    /* \"contracts/XORA.sol\":2157:2200  _mint(PLAY_TO_EARN, 450_000_000 * (10**18)) */\n  tag_20\n    /* \"contracts/XORA.sol\":1414:1456  0xdD870fA1b7C4700F2BD7f44238821C26f7392148 */\n  0xdd870fa1b7c4700f2bd7f44238821c26f7392148\n    /* \"contracts/XORA.sol\":2177:2199  450_000_000 * (10**18) */\n  0x01743b34e18439b502000000\n    /* \"contracts/XORA.sol\":2157:2162  _mint */\n  shl(0x20, tag_21)\n    /* \"contracts/XORA.sol\":2157:2200  _mint(PLAY_TO_EARN, 450_000_000 * (10**18)) */\n  0x20\n  shr\n  jump\t// in\ntag_20:\n    /* \"contracts/XORA.sol\":2216:2265  _mint(_pairLiquidityPool, 150_000_000 * (10**18)) */\n  tag_22\n    /* \"contracts/XORA.sol\":2222:2240  _pairLiquidityPool */\n  dup2\n    /* \"contracts/XORA.sol\":2242:2264  150_000_000 * (10**18) */\n  0x7c13bc4b2c133c56000000\n    /* \"contracts/XORA.sol\":2216:2221  _mint */\n  shl(0x20, tag_21)\n    /* \"contracts/XORA.sol\":2216:2265  _mint(_pairLiquidityPool, 150_000_000 * (10**18)) */\n  0x20\n  shr\n  jump\t// in\ntag_22:\n    /* \"contracts/XORA.sol\":2351:2424  _mint(COMMUNITY_GROWTH_AND_MARKETING, (100_000_000 * (10**18) * 25 )/100) */\n  tag_23\n    /* \"contracts/XORA.sol\":1727:1769  0x14723A09ACff6D2A60DcdF7aA4AFf308FDDC160C */\n  0x14723a09acff6d2a60dcdf7aa4aff308fddc160c\n    /* \"contracts/XORA.sol\":2389:2423  (100_000_000 * (10**18) * 25 )/100 */\n  0x14adf4b7320334b9000000\n    /* \"contracts/XORA.sol\":2351:2356  _mint */\n  shl(0x20, tag_21)\n    /* \"contracts/XORA.sol\":2351:2424  _mint(COMMUNITY_GROWTH_AND_MARKETING, (100_000_000 * (10**18) * 25 )/100) */\n  0x20\n  shr\n  jump\t// in\ntag_23:\n    /* \"contracts/XORA.sol\":2462:2510  _mint(STRADEGIC_RESERVE, 100_000_000 * (10**18)) */\n  tag_24\n    /* \"contracts/XORA.sol\":1827:1869  0xCA35b7d915458EF540aDe6068dFe2F44E8fa733c */\n  0xca35b7d915458ef540ade6068dfe2f44e8fa733c\n    /* \"contracts/XORA.sol\":2487:2509  100_000_000 * (10**18) */\n  0x52b7d2dcc80cd2e4000000\n    /* \"contracts/XORA.sol\":2462:2467  _mint */\n  shl(0x20, tag_21)\n    /* \"contracts/XORA.sol\":2462:2510  _mint(STRADEGIC_RESERVE, 100_000_000 * (10**18)) */\n  0x20\n  shr\n  jump\t// in\ntag_24:\n    /* \"contracts/XORA.sol\":2526:2571  _mint(ICO_ALLOCATION, 100_000_000 * (10**18)) */\n  tag_25\n    /* \"contracts/XORA.sol\":1924:1966  0x0A098Eda01Ce92ff4A4CCb7A4fFFb5A43EBC70DC */\n  0x0a098eda01ce92ff4a4ccb7a4fffb5a43ebc70dc\n    /* \"contracts/XORA.sol\":2548:2570  100_000_000 * (10**18) */\n  0x52b7d2dcc80cd2e4000000\n    /* \"contracts/XORA.sol\":2526:2531  _mint */\n  shl(0x20, tag_21)\n    /* \"contracts/XORA.sol\":2526:2571  _mint(ICO_ALLOCATION, 100_000_000 * (10**18)) */\n  0x20\n  shr\n  jump\t// in\ntag_25:\n    /* \"contracts/XORA.sol\":2609:2624  block.timestamp */\n  timestamp\n    /* \"contracts/XORA.sol\":2588:2606  teamStartTimestamp */\n  0x0c\n    /* \"contracts/XORA.sol\":2588:2624  teamStartTimestamp = block.timestamp */\n  dup2\n  swap1\n  sstore\n  pop\n    /* \"contracts/XORA.sol\":2660:2675  block.timestamp */\n  timestamp\n    /* \"contracts/XORA.sol\":2634:2657  marketingStartTimestamp */\n  0x0e\n    /* \"contracts/XORA.sol\":2634:2675  marketingStartTimestamp = block.timestamp */\n  dup2\n  swap1\n  sstore\n  pop\n    /* \"contracts/XORA.sol\":2059:2682  constructor(address _pairLiquidityPool) Ownable(msg.sender) ERC20(\"XORA Token\", \"XORA\") {... */\n  pop\n    /* \"contracts/XORA.sol\":231:5509  contract XORA is ERC20, Ownable, ReentrancyGuard {... */\n  jump(tag_26)\n    /* \"@openzeppelin/contracts/access/Ownable.sol\":2912:3099  function _transferOwnership(address newOwner) internal virtual {... */\ntag_17:\n    /* \"@openzeppelin/contracts/access/Ownable.sol\":2985:3001  address oldOwner */\n  0x00\n    /* \"@openzeppelin/contracts/access/Ownable.sol\":3004:3010  _owner */\n  0x05\n  0x00\n  swap1\n  sload\n  swap1\n  0x0100\n  exp\n  swap1\n  div\n  0xffffffffffffffffffffffffffffffffffffffff\n  and\n    /* \"@openzeppelin/contracts/access/Ownable.sol\":2985:3010  address oldOwner = _owner */\n  swap1\n  pop\n    /* \"@openzeppelin/contracts/access/Ownable.sol\":3029:3037  newOwner */\n  dup2\n    /* \"@openzeppelin/contracts/access/Ownable.sol\":3020:3026  _owner */\n  0x05\n  0x00\n    /* \"@openzeppelin/contracts/access/Ownable.sol\":3020:3037  _owner = newOwner */\n  0x0100\n  exp\n  dup2\n  sload\n  dup2\n  0xffffffffffffffffffffffffffffffffffffffff\n  mul\n  not\n  and\n  swap1\n  dup4\n  0xffffffffffffffffffffffffffffffffffffffff\n  and\n  mul\n  or\n  swap1\n  sstore\n  pop\n    /* \"@openzeppelin/contracts/access/Ownable.sol\":3083:3091  newOwner */\n  dup2\n    /* \"@openzeppelin/contracts/access/Ownable.sol\":3052:3092  OwnershipTransferred(oldOwner, newOwner) */\n  0xffffffffffffffffffffffffffffffffffffffff\n  and\n    /* \"@openzeppelin/contracts/access/Ownable.sol\":3073:3081  oldOwner */\n  dup2\n    /* \"@openzeppelin/contracts/access/Ownable.sol\":3052:3092  OwnershipTransferred(oldOwner, newOwner) */\n  0xffffffffffffffffffffffffffffffffffffffff\n  and\n  0x8be0079c531659141344cd1fd0a4f28419497f9722a3daafe3b4186f6b6457e0\n  mload(0x40)\n  mload(0x40)\n  dup1\n  swap2\n  sub\n  swap1\n  log3\n    /* \"@openzeppelin/contracts/access/Ownable.sol\":2975:3099  {... */\n  pop\n    /* \"@openzeppelin/contracts/access/Ownable.sol\":2912:3099  function _transferOwnership(address newOwner) internal virtual {... */\n  pop\n  jump\t// out\n    /* \"@openzeppelin/contracts/token/ERC20/ERC20.sol\":7466:7674  function _mint(address account, uint256 value) internal {... */\ntag_21:\n    /* \"@openzeppelin/contracts/token/ERC20/ERC20.sol\":7555:7556  0 */\n  0x00\n    /* \"@openzeppelin/contracts/token/ERC20/ERC20.sol\":7536:7557  account == address(0) */\n  0xffffffffffffffffffffffffffffffffffffffff\n  and\n    /* \"@openzeppelin/contracts/token/ERC20/ERC20.sol\":7536:7543  account */\n  dup3\n    /* \"@openzeppelin/contracts/token/ERC20/ERC20.sol\":7536:7557  account == address(0) */\n  0xffffffffffffffffffffffffffffffffffffffff\n  and\n  sub\n    /* \"@openzeppelin/contracts/token/ERC20/ERC20.sol\":7532:7623  if (account == address(0)) {... */\n  tag_29\n  jumpi\n    /* \"@openzeppelin/contracts/token/ERC20/ERC20.sol\":7609:7610  0 */\n  0x00\n    /* \"@openzeppelin/contracts/token/ERC20/ERC20.sol\":7580:7612  ERC20InvalidReceiver(address(0)) */\n  mload(0x40)\n  0xec442f0500000000000000000000000000000000000000000000000000000000\n  dup2\n  mstore\n  0x04\n  add\n  tag_30\n  swap2\n  swap1\n  tag_15\n  jump\t// in\ntag_30:\n  mload(0x40)\n  dup1\n  swap2\n  sub\n  swap1\n  revert\n    /* \"@openzeppelin/contracts/token/ERC20/ERC20.sol\":7532:7623  if (account == address(0)) {... */\ntag_29:\n    /* \"@openzeppelin/contracts/token/ERC20/ERC20.sol\":7632:7667  _update(address(0), account, value) */\n  tag_31\n    /* \"@openzeppelin/contracts/token/ERC20/ERC20.sol\":7648:7649  0 */\n  0x00\n    /* \"@openzeppelin/contracts/token/ERC20/ERC20.sol\":7652:7659  account */\n  dup4\n    /* \"@openzeppelin/contracts/token/ERC20/ERC20.sol\":7661:7666  value */\n  dup4\n    /* \"@openzeppelin/contracts/token/ERC20/ERC20.sol\":7632:7639  _update */\n  shl(0x20, tag_32)\n    /* \"@openzeppelin/contracts/token/ERC20/ERC20.sol\":7632:7667  _update(address(0), account, value) */\n  0x20\n  shr\n  jump\t// in\ntag_31:\n    /* \"@openzeppelin/contracts/token/ERC20/ERC20.sol\":7466:7674  function _mint(address account, uint256 value) internal {... */\n  pop\n  pop\n  jump\t// out\n    /* \"@openzeppelin/contracts/token/ERC20/ERC20.sol\":6016:7123  function _update(address from, address to, uint256 value) internal virtual {... */\ntag_32:\n    /* \"@openzeppelin/contracts/token/ERC20/ERC20.sol\":6121:6122  0 */\n  0x00\n    /* \"@openzeppelin/contracts/token/ERC20/ERC20.sol\":6105:6123  from == address(0) */\n  0xffffffffffffffffffffffffffffffffffffffff\n  and\n    /* \"@openzeppelin/contracts/token/ERC20/ERC20.sol\":6105:6109  from */\n  dup4\n    /* \"@openzeppelin/contracts/token/ERC20/ERC20.sol\":6105:6123  from == address(0) */\n  0xffffffffffffffffffffffffffffffffffffffff\n  and\n  sub\n    /* \"@openzeppelin/contracts/token/ERC20/ERC20.sol\":6101:6641  if (from == address(0)) {... */\n  tag_34\n  jumpi\n    /* \"@openzeppelin/contracts/token/ERC20/ERC20.sol\":6257:6262  value */\n  dup1\n    /* \"@openzeppelin/contracts/token/ERC20/ERC20.sol\":6241:6253  _totalSupply */\n  0x02\n  0x00\n    /* \"@openzeppelin/contracts/token/ERC20/ERC20.sol\":6241:6262  _totalSupply += value */\n  dup3\n  dup3\n  sload\n  tag_35\n  swap2\n  swap1\n  tag_36\n  jump\t// in\ntag_35:\n  swap3\n  pop\n  pop\n  dup2\n  swap1\n  sstore\n  pop\n    /* \"@openzeppelin/contracts/token/ERC20/ERC20.sol\":6101:6641  if (from == address(0)) {... */\n  jump(tag_37)\ntag_34:\n    /* \"@openzeppelin/contracts/token/ERC20/ERC20.sol\":6293:6312  uint256 fromBalance */\n  0x00\n    /* \"@openzeppelin/contracts/token/ERC20/ERC20.sol\":6315:6324  _balances */\n  dup1\n    /* \"@openzeppelin/contracts/token/ERC20/ERC20.sol\":6315:6330  _balances[from] */\n  0x00\n    /* \"@openzeppelin/contracts/token/ERC20/ERC20.sol\":6325:6329  from */\n  dup6\n    /* \"@openzeppelin/contracts/token/ERC20/ERC20.sol\":6315:6330  _balances[from] */\n  0xffffffffffffffffffffffffffffffffffffffff\n  and\n  0xffffffffffffffffffffffffffffffffffffffff\n  and\n  dup2\n  mstore\n  0x20\n  add\n  swap1\n  dup2\n  mstore\n  0x20\n  add\n  0x00\n  keccak256\n  sload\n    /* \"@openzeppelin/contracts/token/ERC20/ERC20.sol\":6293:6330  uint256 fromBalance = _balances[from] */\n  swap1\n  pop\n    /* \"@openzeppelin/contracts/token/ERC20/ERC20.sol\":6362:6367  value */\n  dup2\n    /* \"@openzeppelin/contracts/token/ERC20/ERC20.sol\":6348:6359  fromBalance */\n  dup2\n    /* \"@openzeppelin/contracts/token/ERC20/ERC20.sol\":6348:6367  fromBalance < value */\n  lt\n    /* \"@openzeppelin/contracts/token/ERC20/ERC20.sol\":6344:6459  if (fromBalance < value) {... */\n  iszero\n  tag_38\n  jumpi\n    /* \"@openzeppelin/contracts/token/ERC20/ERC20.sol\":6419:6423  from */\n  dup4\n    /* \"@openzeppelin/contracts/token/ERC20/ERC20.sol\":6425:6436  fromBalance */\n  dup2\n    /* \"@openzeppelin/contracts/token/ERC20/ERC20.sol\":6438:6443  value */\n  dup4\n    /* \"@openzeppelin/contracts/token/ERC20/ERC20.sol\":6394:6444  ERC20InsufficientBalance(from, fromBalance, value) */\n  mload(0x40)\n  0xe450d38c00000000000000000000000000000000000000000000000000000000\n  dup2\n  mstore\n  0x04\n  add\n  tag_39\n  swap4\n  swap3\n  swap2\n  swap1\n  tag_40\n  jump\t// in\ntag_39:\n  mload(0x40)\n  dup1\n  swap2\n  sub\n  swap1\n  revert\n    /* \"@openzeppelin/contracts/token/ERC20/ERC20.sol\":6344:6459  if (fromBalance < value) {... */\ntag_38:\n    /* \"@openzeppelin/contracts/token/ERC20/ERC20.sol\":6611:6616  value */\n  dup2\n    /* \"@openzeppelin/contracts/token/ERC20/ERC20.sol\":6597:6608  fromBalance */\n  dup2\n    /* \"@openzeppelin/contracts/token/ERC20/ERC20.sol\":6597:6616  fromBalance - value */\n  sub\n    /* \"@openzeppelin/contracts/token/ERC20/ERC20.sol\":6579:6588  _balances */\n  0x00\n    /* \"@openzeppelin/contracts/token/ERC20/ERC20.sol\":6579:6594  _balances[from] */\n  dup1\n    /* \"@openzeppelin/contracts/token/ERC20/ERC20.sol\":6589:6593  from */\n  dup7\n    /* \"@openzeppelin/contracts/token/ERC20/ERC20.sol\":6579:6594  _balances[from] */\n  0xffffffffffffffffffffffffffffffffffffffff\n  and\n  0xffffffffffffffffffffffffffffffffffffffff\n  and\n  dup2\n  mstore\n  0x20\n  add\n  swap1\n  dup2\n  mstore\n  0x20\n  add\n  0x00\n  keccak256\n    /* \"@openzeppelin/contracts/token/ERC20/ERC20.sol\":6579:6616  _balances[from] = fromBalance - value */\n  dup2\n  swap1\n  sstore\n  pop\n    /* \"@openzeppelin/contracts/token/ERC20/ERC20.sol\":6279:6641  {... */\n  pop\n    /* \"@openzeppelin/contracts/token/ERC20/ERC20.sol\":6101:6641  if (from == address(0)) {... */\ntag_37:\n    /* \"@openzeppelin/contracts/token/ERC20/ERC20.sol\":6669:6670  0 */\n  0x00\n    /* \"@openzeppelin/contracts/token/ERC20/ERC20.sol\":6655:6671  to == address(0) */\n  0xffffffffffffffffffffffffffffffffffffffff\n  and\n    /* \"@openzeppelin/contracts/token/ERC20/ERC20.sol\":6655:6657  to */\n  dup3\n    /* \"@openzeppelin/contracts/token/ERC20/ERC20.sol\":6655:6671  to == address(0) */\n  0xffffffffffffffffffffffffffffffffffffffff\n  and\n  sub\n    /* \"@openzeppelin/contracts/token/ERC20/ERC20.sol\":6651:7076  if (to == address(0)) {... */\n  tag_41\n  jumpi\n    /* \"@openzeppelin/contracts/token/ERC20/ERC20.sol\":6834:6839  value */\n  dup1\n    /* \"@openzeppelin/contracts/token/ERC20/ERC20.sol\":6818:6830  _totalSupply */\n  0x02\n  0x00\n    /* \"@openzeppelin/contracts/token/ERC20/ERC20.sol\":6818:6839  _totalSupply -= value */\n  dup3\n  dup3\n  sload\n  sub\n  swap3\n  pop\n  pop\n  dup2\n  swap1\n  sstore\n  pop\n    /* \"@openzeppelin/contracts/token/ERC20/ERC20.sol\":6651:7076  if (to == address(0)) {... */\n  jump(tag_42)\ntag_41:\n    /* \"@openzeppelin/contracts/token/ERC20/ERC20.sol\":7046:7051  value */\n  dup1\n    /* \"@openzeppelin/contracts/token/ERC20/ERC20.sol\":7029:7038  _balances */\n  0x00\n    /* \"@openzeppelin/contracts/token/ERC20/ERC20.sol\":7029:7042  _balances[to] */\n  dup1\n    /* \"@openzeppelin/contracts/token/ERC20/ERC20.sol\":7039:7041  to */\n  dup5\n    /* \"@openzeppelin/contracts/token/ERC20/ERC20.sol\":7029:7042  _balances[to] */\n  0xffffffffffffffffffffffffffffffffffffffff\n  and\n  0xffffffffffffffffffffffffffffffffffffffff\n  and\n  dup2\n  mstore\n  0x20\n  add\n  swap1\n  dup2\n  mstore\n  0x20\n  add\n  0x00\n  keccak256\n  0x00\n    /* \"@openzeppelin/contracts/token/ERC20/ERC20.sol\":7029:7051  _balances[to] += value */\n  dup3\n  dup3\n  sload\n  add\n  swap3\n  pop\n  pop\n  dup2\n  swap1\n  sstore\n  pop\n    /* \"@openzeppelin/contracts/token/ERC20/ERC20.sol\":6651:7076  if (to == address(0)) {... */\ntag_42:\n    /* \"@openzeppelin/contracts/token/ERC20/ERC20.sol\":7106:7108  to */\n  dup2\n    /* \"@openzeppelin/contracts/token/ERC20/ERC20.sol\":7091:7116  Transfer(from, to, value) */\n  0xffffffffffffffffffffffffffffffffffffffff\n  and\n    /* \"@openzeppelin/contracts/token/ERC20/ERC20.sol\":7100:7104  from */\n  dup4\n    /* \"@openzeppelin/contracts/token/ERC20/ERC20.sol\":7091:7116  Transfer(from, to, value) */\n  0xffffffffffffffffffffffffffffffffffffffff\n  and\n  0xddf252ad1be2c89b69c2b068fc378daa952ba7f163c4a11628f55a4df523b3ef\n    /* \"@openzeppelin/contracts/token/ERC20/ERC20.sol\":7110:7115  value */\n  dup4\n    /* \"@openzeppelin/contracts/token/ERC20/ERC20.sol\":7091:7116  Transfer(from, to, value) */\n  mload(0x40)\n  tag_43\n  swap2\n  swap1\n  tag_44\n  jump\t// in\ntag_43:\n  mload(0x40)\n  dup1\n  swap2\n  sub\n  swap1\n  log3\n    /* \"@openzeppelin/contracts/token/ERC20/ERC20.sol\":6016:7123  function _update(address from, address to, uint256 value) internal virtual {... */\n  pop\n  pop\n  pop\n  jump\t// out\n    /* \"#utility.yul\":88:205   */\ntag_46:\n    /* \"#utility.yul\":197:198   */\n  0x00\n    /* \"#utility.yul\":194:195   */\n  dup1\n    /* \"#utility.yul\":187:199   */\n  revert\n    /* \"#utility.yul\":334:460   */\ntag_48:\n    /* \"#utility.yul\":371:378   */\n  0x00\n    /* \"#utility.yul\":411:453   */\n  0xffffffffffffffffffffffffffffffffffffffff\n    /* \"#utility.yul\":404:409   */\n  dup3\n    /* \"#utility.yul\":400:454   */\n  and\n    /* \"#utility.yul\":389:454   */\n  swap1\n  pop\n    /* \"#utility.yul\":334:460   */\n  swap2\n  swap1\n  pop\n  jump\t// out\n    /* \"#utility.yul\":466:562   */\ntag_49:\n    /* \"#utility.yul\":503:510   */\n  0x00\n    /* \"#utility.yul\":532:556   */\n  tag_81\n    /* \"#utility.yul\":550:555   */\n  dup3\n    /* \"#utility.yul\":532:556   */\n  tag_48\n  jump\t// in\ntag_81:\n    /* \"#utility.yul\":521:556   */\n  swap1\n  pop\n    /* \"#utility.yul\":466:562   */\n  swap2\n  swap1\n  pop\n  jump\t// out\n    /* \"#utility.yul\":568:690   */\ntag_50:\n    /* \"#utility.yul\":641:665   */\n  tag_83\n    /* \"#utility.yul\":659:664   */\n  dup2\n    /* \"#utility.yul\":641:665   */\n  tag_49\n  jump\t// in\ntag_83:\n    /* \"#utility.yul\":634:639   */\n  dup2\n    /* \"#utility.yul\":631:666   */\n  eq\n    /* \"#utility.yul\":621:684   */\n  tag_84\n  jumpi\n    /* \"#utility.yul\":680:681   */\n  0x00\n    /* \"#utility.yul\":677:678   */\n  dup1\n    /* \"#utility.yul\":670:682   */\n  revert\n    /* \"#utility.yul\":621:684   */\ntag_84:\n    /* \"#utility.yul\":568:690   */\n  pop\n  jump\t// out\n    /* \"#utility.yul\":696:839   */\ntag_51:\n    /* \"#utility.yul\":753:758   */\n  0x00\n    /* \"#utility.yul\":784:790   */\n  dup2\n    /* \"#utility.yul\":778:791   */\n  mload\n    /* \"#utility.yul\":769:791   */\n  swap1\n  pop\n    /* \"#utility.yul\":800:833   */\n  tag_86\n    /* \"#utility.yul\":827:832   */\n  dup2\n    /* \"#utility.yul\":800:833   */\n  tag_50\n  jump\t// in\ntag_86:\n    /* \"#utility.yul\":696:839   */\n  swap3\n  swap2\n  pop\n  pop\n  jump\t// out\n    /* \"#utility.yul\":845:1196   */\ntag_3:\n    /* \"#utility.yul\":915:921   */\n  0x00\n    /* \"#utility.yul\":964:966   */\n  0x20\n    /* \"#utility.yul\":952:961   */\n  dup3\n    /* \"#utility.yul\":943:950   */\n  dup5\n    /* \"#utility.yul\":939:962   */\n  sub\n    /* \"#utility.yul\":935:967   */\n  slt\n    /* \"#utility.yul\":932:1051   */\n  iszero\n  tag_88\n  jumpi\n    /* \"#utility.yul\":970:1049   */\n  tag_89\n  tag_46\n  jump\t// in\ntag_89:\n    /* \"#utility.yul\":932:1051   */\ntag_88:\n    /* \"#utility.yul\":1090:1091   */\n  0x00\n    /* \"#utility.yul\":1115:1179   */\n  tag_90\n    /* \"#utility.yul\":1171:1178   */\n  dup5\n    /* \"#utility.yul\":1162:1168   */\n  dup3\n    /* \"#utility.yul\":1151:1160   */\n  dup6\n    /* \"#utility.yul\":1147:1169   */\n  add\n    /* \"#utility.yul\":1115:1179   */\n  tag_51\n  jump\t// in\ntag_90:\n    /* \"#utility.yul\":1105:1179   */\n  swap2\n  pop\n    /* \"#utility.yul\":1061:1189   */\n  pop\n    /* \"#utility.yul\":845:1196   */\n  swap3\n  swap2\n  pop\n  pop\n  jump\t// out\n    /* \"#utility.yul\":1202:1301   */\ntag_52:\n    /* \"#utility.yul\":1254:1260   */\n  0x00\n    /* \"#utility.yul\":1288:1293   */\n  dup2\n    /* \"#utility.yul\":1282:1294   */\n  mload\n    /* \"#utility.yul\":1272:1294   */\n  swap1\n  pop\n    /* \"#utility.yul\":1202:1301   */\n  swap2\n  swap1\n  pop\n  jump\t// out\n    /* \"#utility.yul\":1307:1487   */\ntag_53:\n    /* \"#utility.yul\":1355:1432   */\n  0x4e487b7100000000000000000000000000000000000000000000000000000000\n    /* \"#utility.yul\":1352:1353   */\n  0x00\n    /* \"#utility.yul\":1345:1433   */\n  mstore\n    /* \"#utility.yul\":1452:1456   */\n  0x41\n    /* \"#utility.yul\":1449:1450   */\n  0x04\n    /* \"#utility.yul\":1442:1457   */\n  mstore\n    /* \"#utility.yul\":1476:1480   */\n  0x24\n    /* \"#utility.yul\":1473:1474   */\n  0x00\n    /* \"#utility.yul\":1466:1481   */\n  revert\n    /* \"#utility.yul\":1493:1673   */\ntag_54:\n    /* \"#utility.yul\":1541:1618   */\n  0x4e487b7100000000000000000000000000000000000000000000000000000000\n    /* \"#utility.yul\":1538:1539   */\n  0x00\n    /* \"#utility.yul\":1531:1619   */\n  mstore\n    /* \"#utility.yul\":1638:1642   */\n  0x22\n    /* \"#utility.yul\":1635:1636   */\n  0x04\n    /* \"#utility.yul\":1628:1643   */\n  mstore\n    /* \"#utility.yul\":1662:1666   */\n  0x24\n    /* \"#utility.yul\":1659:1660   */\n  0x00\n    /* \"#utility.yul\":1652:1667   */\n  revert\n    /* \"#utility.yul\":1679:1999   */\ntag_55:\n    /* \"#utility.yul\":1723:1729   */\n  0x00\n    /* \"#utility.yul\":1760:1761   */\n  0x02\n    /* \"#utility.yul\":1754:1758   */\n  dup3\n    /* \"#utility.yul\":1750:1762   */\n  div\n    /* \"#utility.yul\":1740:1762   */\n  swap1\n  pop\n    /* \"#utility.yul\":1807:1808   */\n  0x01\n    /* \"#utility.yul\":1801:1805   */\n  dup3\n    /* \"#utility.yul\":1797:1809   */\n  and\n    /* \"#utility.yul\":1828:1846   */\n  dup1\n    /* \"#utility.yul\":1818:1899   */\n  tag_95\n  jumpi\n    /* \"#utility.yul\":1884:1888   */\n  0x7f\n    /* \"#utility.yul\":1876:1882   */\n  dup3\n    /* \"#utility.yul\":1872:1889   */\n  and\n    /* \"#utility.yul\":1862:1889   */\n  swap2\n  pop\n    /* \"#utility.yul\":1818:1899   */\ntag_95:\n    /* \"#utility.yul\":1946:1948   */\n  0x20\n    /* \"#utility.yul\":1938:1944   */\n  dup3\n    /* \"#utility.yul\":1935:1949   */\n  lt\n    /* \"#utility.yul\":1915:1933   */\n  dup2\n    /* \"#utility.yul\":1912:1950   */\n  sub\n    /* \"#utility.yul\":1909:1993   */\n  tag_96\n  jumpi\n    /* \"#utility.yul\":1965:1983   */\n  tag_97\n  tag_54\n  jump\t// in\ntag_97:\n    /* \"#utility.yul\":1909:1993   */\ntag_96:\n    /* \"#utility.yul\":1730:1999   */\n  pop\n    /* \"#utility.yul\":1679:1999   */\n  swap2\n  swap1\n  pop\n  jump\t// out\n    /* \"#utility.yul\":2005:2146   */\ntag_56:\n    /* \"#utility.yul\":2054:2058   */\n  0x00\n    /* \"#utility.yul\":2077:2080   */\n  dup2\n    /* \"#utility.yul\":2069:2080   */\n  swap1\n  pop\n    /* \"#utility.yul\":2100:2103   */\n  dup2\n    /* \"#utility.yul\":2097:2098   */\n  0x00\n    /* \"#utility.yul\":2090:2104   */\n  mstore\n    /* \"#utility.yul\":2134:2138   */\n  0x20\n    /* \"#utility.yul\":2131:2132   */\n  0x00\n    /* \"#utility.yul\":2121:2139   */\n  keccak256\n    /* \"#utility.yul\":2113:2139   */\n  swap1\n  pop\n    /* \"#utility.yul\":2005:2146   */\n  swap2\n  swap1\n  pop\n  jump\t// out\n    /* \"#utility.yul\":2152:2245   */\ntag_57:\n    /* \"#utility.yul\":2189:2195   */\n  0x00\n    /* \"#utility.yul\":2236:2238   */\n  0x20\n    /* \"#utility.yul\":2231:2233   */\n  0x1f\n    /* \"#utility.yul\":2224:2229   */\n  dup4\n    /* \"#utility.yul\":2220:2234   */\n  add\n    /* \"#utility.yul\":2216:2239   */\n  div\n    /* \"#utility.yul\":2206:2239   */\n  swap1\n  pop\n    /* \"#utility.yul\":2152:2245   */\n  swap2\n  swap1\n  pop\n  jump\t// out\n    /* \"#utility.yul\":2251:2358   */\ntag_58:\n    /* \"#utility.yul\":2295:2303   */\n  0x00\n    /* \"#utility.yul\":2345:2350   */\n  dup3\n    /* \"#utility.yul\":2339:2343   */\n  dup3\n    /* \"#utility.yul\":2335:2351   */\n  shl\n    /* \"#utility.yul\":2314:2351   */\n  swap1\n  pop\n    /* \"#utility.yul\":2251:2358   */\n  swap3\n  swap2\n  pop\n  pop\n  jump\t// out\n    /* \"#utility.yul\":2364:2757   */\ntag_59:\n    /* \"#utility.yul\":2433:2439   */\n  0x00\n    /* \"#utility.yul\":2483:2484   */\n  0x08\n    /* \"#utility.yul\":2471:2481   */\n  dup4\n    /* \"#utility.yul\":2467:2485   */\n  mul\n    /* \"#utility.yul\":2506:2603   */\n  tag_102\n    /* \"#utility.yul\":2536:2602   */\n  0xffffffffffffffffffffffffffffffffffffffffffffffffffffffffffffffff\n    /* \"#utility.yul\":2525:2534   */\n  dup3\n    /* \"#utility.yul\":2506:2603   */\n  tag_58\n  jump\t// in\ntag_102:\n    /* \"#utility.yul\":2624:2663   */\n  tag_103\n    /* \"#utility.yul\":2654:2662   */\n  dup7\n    /* \"#utility.yul\":2643:2652   */\n  dup4\n    /* \"#utility.yul\":2624:2663   */\n  tag_58\n  jump\t// in\ntag_103:\n    /* \"#utility.yul\":2612:2663   */\n  swap6\n  pop\n    /* \"#utility.yul\":2696:2700   */\n  dup1\n    /* \"#utility.yul\":2692:2701   */\n  not\n    /* \"#utility.yul\":2685:2690   */\n  dup5\n    /* \"#utility.yul\":2681:2702   */\n  and\n    /* \"#utility.yul\":2672:2702   */\n  swap4\n  pop\n    /* \"#utility.yul\":2745:2749   */\n  dup1\n    /* \"#utility.yul\":2735:2743   */\n  dup7\n    /* \"#utility.yul\":2731:2750   */\n  and\n    /* \"#utility.yul\":2724:2729   */\n  dup5\n    /* \"#utility.yul\":2721:2751   */\n  or\n    /* \"#utility.yul\":2711:2751   */\n  swap3\n  pop\n    /* \"#utility.yul\":2440:2757   */\n  pop\n  pop\n    /* \"#utility.yul\":2364:2757   */\n  swap4\n  swap3\n  pop\n  pop\n  pop\n  jump\t// out\n    /* \"#utility.yul\":2763:2840   */\ntag_60:\n    /* \"#utility.yul\":2800:2807   */\n  0x00\n    /* \"#utility.yul\":2829:2834   */\n  dup2\n    /* \"#utility.yul\":2818:2834   */\n  swap1\n  pop\n    /* \"#utility.yul\":2763:2840   */\n  swap2\n  swap1\n  pop\n  jump\t// out\n    /* \"#utility.yul\":2846:2906   */\ntag_61:\n    /* \"#utility.yul\":2874:2877   */\n  0x00\n    /* \"#utility.yul\":2895:2900   */\n  dup2\n    /* \"#utility.yul\":2888:2900   */\n  swap1\n  pop\n    /* \"#utility.yul\":2846:2906   */\n  swap2\n  swap1\n  pop\n  jump\t// out\n    /* \"#utility.yul\":2912:3054   */\ntag_62:\n    /* \"#utility.yul\":2962:2971   */\n  0x00\n    /* \"#utility.yul\":2995:3048   */\n  tag_107\n    /* \"#utility.yul\":3013:3047   */\n  tag_108\n    /* \"#utility.yul\":3022:3046   */\n  tag_109\n    /* \"#utility.yul\":3040:3045   */\n  dup5\n    /* \"#utility.yul\":3022:3046   */\n  tag_60\n  jump\t// in\ntag_109:\n    /* \"#utility.yul\":3013:3047   */\n  tag_61\n  jump\t// in\ntag_108:\n    /* \"#utility.yul\":2995:3048   */\n  tag_60\n  jump\t// in\ntag_107:\n    /* \"#utility.yul\":2982:3048   */\n  swap1\n  pop\n    /* \"#utility.yul\":2912:3054   */\n  swap2\n  swap1\n  pop\n  jump\t// out\n    /* \"#utility.yul\":3060:3135   */\ntag_63:\n    /* \"#utility.yul\":3103:3106   */\n  0x00\n    /* \"#utility.yul\":3124:3129   */\n  dup2\n    /* \"#utility.yul\":3117:3129   */\n  swap1\n  pop\n    /* \"#utility.yul\":3060:3135   */\n  swap2\n  swap1\n  pop\n  jump\t// out\n    /* \"#utility.yul\":3141:3410   */\ntag_64:\n    /* \"#utility.yul\":3251:3290   */\n  tag_112\n    /* \"#utility.yul\":3282:3289   */\n  dup4\n    /* \"#utility.yul\":3251:3290   */\n  tag_62\n  jump\t// in\ntag_112:\n    /* \"#utility.yul\":3312:3403   */\n  tag_113\n    /* \"#utility.yul\":3361:3402   */\n  tag_114\n    /* \"#utility.yul\":3385:3401   */\n  dup3\n    /* \"#utility.yul\":3361:3402   */\n  tag_63\n  jump\t// in\ntag_114:\n    /* \"#utility.yul\":3353:3359   */\n  dup5\n    /* \"#utility.yul\":3346:3350   */\n  dup5\n    /* \"#utility.yul\":3340:3351   */\n  sload\n    /* \"#utility.yul\":3312:3403   */\n  tag_59\n  jump\t// in\ntag_113:\n    /* \"#utility.yul\":3306:3310   */\n  dup3\n    /* \"#utility.yul\":3299:3404   */\n  sstore\n    /* \"#utility.yul\":3217:3410   */\n  pop\n    /* \"#utility.yul\":3141:3410   */\n  pop\n  pop\n  pop\n  jump\t// out\n    /* \"#utility.yul\":3416:3489   */\ntag_65:\n    /* \"#utility.yul\":3461:3464   */\n  0x00\n    /* \"#utility.yul\":3416:3489   */\n  swap1\n  jump\t// out\n    /* \"#utility.yul\":3495:3684   */\ntag_66:\n    /* \"#utility.yul\":3572:3604   */\n  tag_117\n  tag_65\n  jump\t// in\ntag_117:\n    /* \"#utility.yul\":3613:3678   */\n  tag_118\n    /* \"#utility.yul\":3671:3677   */\n  dup2\n    /* \"#utility.yul\":3663:3669   */\n  dup5\n    /* \"#utility.yul\":3657:3661   */\n  dup5\n    /* \"#utility.yul\":3613:3678   */\n  tag_64\n  jump\t// in\ntag_118:\n    /* \"#utility.yul\":3548:3684   */\n  pop\n    /* \"#utility.yul\":3495:3684   */\n  pop\n  pop\n  jump\t// out\n    /* \"#utility.yul\":3690:3876   */\ntag_67:\n    /* \"#utility.yul\":3750:3870   */\ntag_120:\n    /* \"#utility.yul\":3767:3770   */\n  dup2\n    /* \"#utility.yul\":3760:3765   */\n  dup2\n    /* \"#utility.yul\":3757:3771   */\n  lt\n    /* \"#utility.yul\":3750:3870   */\n  iszero\n  tag_122\n  jumpi\n    /* \"#utility.yul\":3821:3860   */\n  tag_123\n    /* \"#utility.yul\":3858:3859   */\n  0x00\n    /* \"#utility.yul\":3851:3856   */\n  dup3\n    /* \"#utility.yul\":3821:3860   */\n  tag_66\n  jump\t// in\ntag_123:\n    /* \"#utility.yul\":3794:3795   */\n  0x01\n    /* \"#utility.yul\":3787:3792   */\n  dup2\n    /* \"#utility.yul\":3783:3796   */\n  add\n    /* \"#utility.yul\":3774:3796   */\n  swap1\n  pop\n    /* \"#utility.yul\":3750:3870   */\n  jump(tag_120)\ntag_122:\n    /* \"#utility.yul\":3690:3876   */\n  pop\n  pop\n  jump\t// out\n    /* \"#utility.yul\":3882:4425   */\ntag_68:\n    /* \"#utility.yul\":3983:3985   */\n  0x1f\n    /* \"#utility.yul\":3978:3981   */\n  dup3\n    /* \"#utility.yul\":3975:3986   */\n  gt\n    /* \"#utility.yul\":3972:4418   */\n  iszero\n  tag_125\n  jumpi\n    /* \"#utility.yul\":4017:4055   */\n  tag_126\n    /* \"#utility.yul\":4049:4054   */\n  dup2\n    /* \"#utility.yul\":4017:4055   */\n  tag_56\n  jump\t// in\ntag_126:\n    /* \"#utility.yul\":4101:4130   */\n  tag_127\n    /* \"#utility.yul\":4119:4129   */\n  dup5\n    /* \"#utility.yul\":4101:4130   */\n  tag_57\n  jump\t// in\ntag_127:\n    /* \"#utility.yul\":4091:4099   */\n  dup2\n    /* \"#utility.yul\":4087:4131   */\n  add\n    /* \"#utility.yul\":4284:4286   */\n  0x20\n    /* \"#utility.yul\":4272:4282   */\n  dup6\n    /* \"#utility.yul\":4269:4287   */\n  lt\n    /* \"#utility.yul\":4266:4315   */\n  iszero\n  tag_128\n  jumpi\n    /* \"#utility.yul\":4305:4313   */\n  dup2\n    /* \"#utility.yul\":4290:4313   */\n  swap1\n  pop\n    /* \"#utility.yul\":4266:4315   */\ntag_128:\n    /* \"#utility.yul\":4328:4408   */\n  tag_129\n    /* \"#utility.yul\":4384:4406   */\n  tag_130\n    /* \"#utility.yul\":4402:4405   */\n  dup6\n    /* \"#utility.yul\":4384:4406   */\n  tag_57\n  jump\t// in\ntag_130:\n    /* \"#utility.yul\":4374:4382   */\n  dup4\n    /* \"#utility.yul\":4370:4407   */\n  add\n    /* \"#utility.yul\":4357:4368   */\n  dup3\n    /* \"#utility.yul\":4328:4408   */\n  tag_67\n  jump\t// in\ntag_129:\n    /* \"#utility.yul\":3987:4418   */\n  pop\n  pop\n    /* \"#utility.yul\":3972:4418   */\ntag_125:\n    /* \"#utility.yul\":3882:4425   */\n  pop\n  pop\n  pop\n  jump\t// out\n    /* \"#utility.yul\":4431:4548   */\ntag_69:\n    /* \"#utility.yul\":4485:4493   */\n  0x00\n    /* \"#utility.yul\":4535:4540   */\n  dup3\n    /* \"#utility.yul\":4529:4533   */\n  dup3\n    /* \"#utility.yul\":4525:4541   */\n  shr\n    /* \"#utility.yul\":4504:4541   */\n  swap1\n  pop\n    /* \"#utility.yul\":4431:4548   */\n  swap3\n  swap2\n  pop\n  pop\n  jump\t// out\n    /* \"#utility.yul\":4554:4723   */\ntag_70:\n    /* \"#utility.yul\":4598:4604   */\n  0x00\n    /* \"#utility.yul\":4631:4682   */\n  tag_133\n    /* \"#utility.yul\":4679:4680   */\n  0x00\n    /* \"#utility.yul\":4675:4681   */\n  not\n    /* \"#utility.yul\":4667:4672   */\n  dup5\n    /* \"#utility.yul\":4664:4665   */\n  0x08\n    /* \"#utility.yul\":4660:4673   */\n  mul\n    /* \"#utility.yul\":4631:4682   */\n  tag_69\n  jump\t// in\ntag_133:\n    /* \"#utility.yul\":4627:4683   */\n  not\n    /* \"#utility.yul\":4712:4716   */\n  dup1\n    /* \"#utility.yul\":4706:4710   */\n  dup4\n    /* \"#utility.yul\":4702:4717   */\n  and\n    /* \"#utility.yul\":4692:4717   */\n  swap2\n  pop\n    /* \"#utility.yul\":4605:4723   */\n  pop\n    /* \"#utility.yul\":4554:4723   */\n  swap3\n  swap2\n  pop\n  pop\n  jump\t// out\n    /* \"#utility.yul\":4728:5023   */\ntag_71:\n    /* \"#utility.yul\":4804:4808   */\n  0x00\n    /* \"#utility.yul\":4950:4979   */\n  tag_135\n    /* \"#utility.yul\":4975:4978   */\n  dup4\n    /* \"#utility.yul\":4969:4973   */\n  dup4\n    /* \"#utility.yul\":4950:4979   */\n  tag_70\n  jump\t// in\ntag_135:\n    /* \"#utility.yul\":4942:4979   */\n  swap2\n  pop\n    /* \"#utility.yul\":5012:5015   */\n  dup3\n    /* \"#utility.yul\":5009:5010   */\n  0x02\n    /* \"#utility.yul\":5005:5016   */\n  mul\n    /* \"#utility.yul\":4999:5003   */\n  dup3\n    /* \"#utility.yul\":4996:5017   */\n  or\n    /* \"#utility.yul\":4988:5017   */\n  swap1\n  pop\n    /* \"#utility.yul\":4728:5023   */\n  swap3\n  swap2\n  pop\n  pop\n  jump\t// out\n    /* \"#utility.yul\":5028:6423   */\ntag_10:\n    /* \"#utility.yul\":5145:5182   */\n  tag_137\n    /* \"#utility.yul\":5178:5181   */\n  dup3\n    /* \"#utility.yul\":5145:5182   */\n  tag_52\n  jump\t// in\ntag_137:\n    /* \"#utility.yul\":5247:5265   */\n  0xffffffffffffffff\n    /* \"#utility.yul\":5239:5245   */\n  dup2\n    /* \"#utility.yul\":5236:5266   */\n  gt\n    /* \"#utility.yul\":5233:5289   */\n  iszero\n  tag_138\n  jumpi\n    /* \"#utility.yul\":5269:5287   */\n  tag_139\n  tag_53\n  jump\t// in\ntag_139:\n    /* \"#utility.yul\":5233:5289   */\ntag_138:\n    /* \"#utility.yul\":5313:5351   */\n  tag_140\n    /* \"#utility.yul\":5345:5349   */\n  dup3\n    /* \"#utility.yul\":5339:5350   */\n  sload\n    /* \"#utility.yul\":5313:5351   */\n  tag_55\n  jump\t// in\ntag_140:\n    /* \"#utility.yul\":5398:5465   */\n  tag_141\n    /* \"#utility.yul\":5458:5464   */\n  dup3\n    /* \"#utility.yul\":5450:5456   */\n  dup3\n    /* \"#utility.yul\":5444:5448   */\n  dup6\n    /* \"#utility.yul\":5398:5465   */\n  tag_68\n  jump\t// in\ntag_141:\n    /* \"#utility.yul\":5492:5493   */\n  0x00\n    /* \"#utility.yul\":5516:5520   */\n  0x20\n    /* \"#utility.yul\":5503:5520   */\n  swap1\n  pop\n    /* \"#utility.yul\":5548:5550   */\n  0x1f\n    /* \"#utility.yul\":5540:5546   */\n  dup4\n    /* \"#utility.yul\":5537:5551   */\n  gt\n    /* \"#utility.yul\":5565:5566   */\n  0x01\n    /* \"#utility.yul\":5560:6178   */\n  dup2\n  eq\n  tag_143\n  jumpi\n    /* \"#utility.yul\":6222:6223   */\n  0x00\n    /* \"#utility.yul\":6239:6245   */\n  dup5\n    /* \"#utility.yul\":6236:6313   */\n  iszero\n  tag_144\n  jumpi\n    /* \"#utility.yul\":6288:6297   */\n  dup3\n    /* \"#utility.yul\":6283:6286   */\n  dup8\n    /* \"#utility.yul\":6279:6298   */\n  add\n    /* \"#utility.yul\":6273:6299   */\n  mload\n    /* \"#utility.yul\":6264:6299   */\n  swap1\n  pop\n    /* \"#utility.yul\":6236:6313   */\ntag_144:\n    /* \"#utility.yul\":6339:6406   */\n  tag_145\n    /* \"#utility.yul\":6399:6405   */\n  dup6\n    /* \"#utility.yul\":6392:6397   */\n  dup3\n    /* \"#utility.yul\":6339:6406   */\n  tag_71\n  jump\t// in\ntag_145:\n    /* \"#utility.yul\":6333:6337   */\n  dup7\n    /* \"#utility.yul\":6326:6407   */\n  sstore\n    /* \"#utility.yul\":6195:6417   */\n  pop\n    /* \"#utility.yul\":5530:6417   */\n  jump(tag_142)\n    /* \"#utility.yul\":5560:6178   */\ntag_143:\n    /* \"#utility.yul\":5612:5616   */\n  0x1f\n    /* \"#utility.yul\":5608:5617   */\n  not\n    /* \"#utility.yul\":5600:5606   */\n  dup5\n    /* \"#utility.yul\":5596:5618   */\n  and\n    /* \"#utility.yul\":5646:5683   */\n  tag_146\n    /* \"#utility.yul\":5678:5682   */\n  dup7\n    /* \"#utility.yul\":5646:5683   */\n  tag_56\n  jump\t// in\ntag_146:\n    /* \"#utility.yul\":5705:5706   */\n  0x00\n    /* \"#utility.yul\":5719:5927   */\ntag_147:\n    /* \"#utility.yul\":5733:5740   */\n  dup3\n    /* \"#utility.yul\":5730:5731   */\n  dup2\n    /* \"#utility.yul\":5727:5741   */\n  lt\n    /* \"#utility.yul\":5719:5927   */\n  iszero\n  tag_149\n  jumpi\n    /* \"#utility.yul\":5812:5821   */\n  dup5\n    /* \"#utility.yul\":5807:5810   */\n  dup10\n    /* \"#utility.yul\":5803:5822   */\n  add\n    /* \"#utility.yul\":5797:5823   */\n  mload\n    /* \"#utility.yul\":5789:5795   */\n  dup3\n    /* \"#utility.yul\":5782:5824   */\n  sstore\n    /* \"#utility.yul\":5863:5864   */\n  0x01\n    /* \"#utility.yul\":5855:5861   */\n  dup3\n    /* \"#utility.yul\":5851:5865   */\n  add\n    /* \"#utility.yul\":5841:5865   */\n  swap2\n  pop\n    /* \"#utility.yul\":5910:5912   */\n  0x20\n    /* \"#utility.yul\":5899:5908   */\n  dup6\n    /* \"#utility.yul\":5895:5913   */\n  add\n    /* \"#utility.yul\":5882:5913   */\n  swap5\n  pop\n    /* \"#utility.yul\":5756:5760   */\n  0x20\n    /* \"#utility.yul\":5753:5754   */\n  dup2\n    /* \"#utility.yul\":5749:5761   */\n  add\n    /* \"#utility.yul\":5744:5761   */\n  swap1\n  pop\n    /* \"#utility.yul\":5719:5927   */\n  jump(tag_147)\ntag_149:\n    /* \"#utility.yul\":5955:5961   */\n  dup7\n    /* \"#utility.yul\":5946:5953   */\n  dup4\n    /* \"#utility.yul\":5943:5962   */\n  lt\n    /* \"#utility.yul\":5940:6119   */\n  iszero\n  tag_150\n  jumpi\n    /* \"#utility.yul\":6013:6022   */\n  dup5\n    /* \"#utility.yul\":6008:6011   */\n  dup10\n    /* \"#utility.yul\":6004:6023   */\n  add\n    /* \"#utility.yul\":5998:6024   */\n  mload\n    /* \"#utility.yul\":6056:6104   */\n  tag_151\n    /* \"#utility.yul\":6098:6102   */\n  0x1f\n    /* \"#utility.yul\":6090:6096   */\n  dup10\n    /* \"#utility.yul\":6086:6103   */\n  and\n    /* \"#utility.yul\":6075:6084   */\n  dup3\n    /* \"#utility.yul\":6056:6104   */\n  tag_70\n  jump\t// in\ntag_151:\n    /* \"#utility.yul\":6048:6054   */\n  dup4\n    /* \"#utility.yul\":6041:6105   */\n  sstore\n    /* \"#utility.yul\":5963:6119   */\n  pop\n    /* \"#utility.yul\":5940:6119   */\ntag_150:\n    /* \"#utility.yul\":6165:6166   */\n  0x01\n    /* \"#utility.yul\":6161:6162   */\n  0x02\n    /* \"#utility.yul\":6153:6159   */\n  dup9\n    /* \"#utility.yul\":6149:6163   */\n  mul\n    /* \"#utility.yul\":6145:6167   */\n  add\n    /* \"#utility.yul\":6139:6143   */\n  dup9\n    /* \"#utility.yul\":6132:6168   */\n  sstore\n    /* \"#utility.yul\":5567:6178   */\n  pop\n  pop\n  pop\n    /* \"#utility.yul\":5530:6417   */\ntag_142:\n  pop\n    /* \"#utility.yul\":5120:6423   */\n  pop\n  pop\n  pop\n    /* \"#utility.yul\":5028:6423   */\n  pop\n  pop\n  jump\t// out\n    /* \"#utility.yul\":6429:6547   */\ntag_72:\n    /* \"#utility.yul\":6516:6540   */\n  tag_153\n    /* \"#utility.yul\":6534:6539   */\n  dup2\n    /* \"#utility.yul\":6516:6540   */\n  tag_49\n  jump\t// in\ntag_153:\n    /* \"#utility.yul\":6511:6514   */\n  dup3\n    /* \"#utility.yul\":6504:6541   */\n  mstore\n    /* \"#utility.yul\":6429:6547   */\n  pop\n  pop\n  jump\t// out\n    /* \"#utility.yul\":6553:6775   */\ntag_15:\n    /* \"#utility.yul\":6646:6650   */\n  0x00\n    /* \"#utility.yul\":6684:6686   */\n  0x20\n    /* \"#utility.yul\":6673:6682   */\n  dup3\n    /* \"#utility.yul\":6669:6687   */\n  add\n    /* \"#utility.yul\":6661:6687   */\n  swap1\n  pop\n    /* \"#utility.yul\":6697:6768   */\n  tag_155\n    /* \"#utility.yul\":6765:6766   */\n  0x00\n    /* \"#utility.yul\":6754:6763   */\n  dup4\n    /* \"#utility.yul\":6750:6767   */\n  add\n    /* \"#utility.yul\":6741:6747   */\n  dup5\n    /* \"#utility.yul\":6697:6768   */\n  tag_72\n  jump\t// in\ntag_155:\n    /* \"#utility.yul\":6553:6775   */\n  swap3\n  swap2\n  pop\n  pop\n  jump\t// out\n    /* \"#utility.yul\":6781:6961   */\ntag_73:\n    /* \"#utility.yul\":6829:6906   */\n  0x4e487b7100000000000000000000000000000000000000000000000000000000\n    /* \"#utility.yul\":6826:6827   */\n  0x00\n    /* \"#utility.yul\":6819:6907   */\n  mstore\n    /* \"#utility.yul\":6926:6930   */\n  0x11\n    /* \"#utility.yul\":6923:6924   */\n  0x04\n    /* \"#utility.yul\":6916:6931   */\n  mstore\n    /* \"#utility.yul\":6950:6954   */\n  0x24\n    /* \"#utility.yul\":6947:6948   */\n  0x00\n    /* \"#utility.yul\":6940:6955   */\n  revert\n    /* \"#utility.yul\":6967:7158   */\ntag_36:\n    /* \"#utility.yul\":7007:7010   */\n  0x00\n    /* \"#utility.yul\":7026:7046   */\n  tag_158\n    /* \"#utility.yul\":7044:7045   */\n  dup3\n    /* \"#utility.yul\":7026:7046   */\n  tag_60\n  jump\t// in\ntag_158:\n    /* \"#utility.yul\":7021:7046   */\n  swap2\n  pop\n    /* \"#utility.yul\":7060:7080   */\n  tag_159\n    /* \"#utility.yul\":7078:7079   */\n  dup4\n    /* \"#utility.yul\":7060:7080   */\n  tag_60\n  jump\t// in\ntag_159:\n    /* \"#utility.yul\":7055:7080   */\n  swap3\n  pop\n    /* \"#utility.yul\":7103:7104   */\n  dup3\n    /* \"#utility.yul\":7100:7101   */\n  dup3\n    /* \"#utility.yul\":7096:7105   */\n  add\n    /* \"#utility.yul\":7089:7105   */\n  swap1\n  pop\n    /* \"#utility.yul\":7124:7127   */\n  dup1\n    /* \"#utility.yul\":7121:7122   */\n  dup3\n    /* \"#utility.yul\":7118:7128   */\n  gt\n    /* \"#utility.yul\":7115:7151   */\n  iszero\n  tag_160\n  jumpi\n    /* \"#utility.yul\":7131:7149   */\n  tag_161\n  tag_73\n  jump\t// in\ntag_161:\n    /* \"#utility.yul\":7115:7151   */\ntag_160:\n    /* \"#utility.yul\":6967:7158   */\n  swap3\n  swap2\n  pop\n  pop\n  jump\t// out\n    /* \"#utility.yul\":7164:7282   */\ntag_74:\n    /* \"#utility.yul\":7251:7275   */\n  tag_163\n    /* \"#utility.yul\":7269:7274   */\n  dup2\n    /* \"#utility.yul\":7251:7275   */\n  tag_60\n  jump\t// in\ntag_163:\n    /* \"#utility.yul\":7246:7249   */\n  dup3\n    /* \"#utility.yul\":7239:7276   */\n  mstore\n    /* \"#utility.yul\":7164:7282   */\n  pop\n  pop\n  jump\t// out\n    /* \"#utility.yul\":7288:7730   */\ntag_40:\n    /* \"#utility.yul\":7437:7441   */\n  0x00\n    /* \"#utility.yul\":7475:7477   */\n  0x60\n    /* \"#utility.yul\":7464:7473   */\n  dup3\n    /* \"#utility.yul\":7460:7478   */\n  add\n    /* \"#utility.yul\":7452:7478   */\n  swap1\n  pop\n    /* \"#utility.yul\":7488:7559   */\n  tag_165\n    /* \"#utility.yul\":7556:7557   */\n  0x00\n    /* \"#utility.yul\":7545:7554   */\n  dup4\n    /* \"#utility.yul\":7541:7558   */\n  add\n    /* \"#utility.yul\":7532:7538   */\n  dup7\n    /* \"#utility.yul\":7488:7559   */\n  tag_72\n  jump\t// in\ntag_165:\n    /* \"#utility.yul\":7569:7641   */\n  tag_166\n    /* \"#utility.yul\":7637:7639   */\n  0x20\n    /* \"#utility.yul\":7626:7635   */\n  dup4\n    /* \"#utility.yul\":7622:7640   */\n  add\n    /* \"#utility.yul\":7613:7619   */\n  dup6\n    /* \"#utility.yul\":7569:7641   */\n  tag_74\n  jump\t// in\ntag_166:\n    /* \"#utility.yul\":7651:7723   */\n  tag_167\n    /* \"#utility.yul\":7719:7721   */\n  0x40\n    /* \"#utility.yul\":7708:7717   */\n  dup4\n    /* \"#utility.yul\":7704:7722   */\n  add\n    /* \"#utility.yul\":7695:7701   */\n  dup5\n    /* \"#utility.yul\":7651:7723   */\n  tag_74\n  jump\t// in\ntag_167:\n    /* \"#utility.yul\":7288:7730   */\n  swap5\n  swap4\n  pop\n  pop\n  pop\n  pop\n  jump\t// out\n    /* \"#utility.yul\":7736:7958   */\ntag_44:\n    /* \"#utility.yul\":7829:7833   */\n  0x00\n    /* \"#utility.yul\":7867:7869   */\n  0x20\n    /* \"#utility.yul\":7856:7865   */\n  dup3\n    /* \"#utility.yul\":7852:7870   */\n  add\n    /* \"#utility.yul\":7844:7870   */\n  swap1\n  pop\n    /* \"#utility.yul\":7880:7951   */\n  tag_169\n    /* \"#utility.yul\":7948:7949   */\n  0x00\n    /* \"#utility.yul\":7937:7946   */\n  dup4\n    /* \"#utility.yul\":7933:7950   */\n  add\n    /* \"#utility.yul\":7924:7930   */\n  dup5\n    /* \"#utility.yul\":7880:7951   */\n  tag_74\n  jump\t// in\ntag_169:\n    /* \"#utility.yul\":7736:7958   */\n  swap3\n  swap2\n  pop\n  pop\n  jump\t// out\n    /* \"contracts/XORA.sol\":231:5509  contract XORA is ERC20, Ownable, ReentrancyGuard {... */\ntag_26:\n  dataSize(sub_0)\n  dup1\n  dataOffset(sub_0)\n  0x00\n  codecopy\n  0x00\n  return\nstop\n\nsub_0: assembly {\n        /* \"contracts/XORA.sol\":231:5509  contract XORA is ERC20, Ownable, ReentrancyGuard {... */\n      mstore(0x40, 0x80)\n      callvalue\n      dup1\n      iszero\n      tag_1\n      jumpi\n      0x00\n      dup1\n      revert\n    tag_1:\n      pop\n      jumpi(tag_2, lt(calldatasize, 0x04))\n      shr(0xe0, calldataload(0x00))\n      dup1\n      0x715018a6\n      gt\n      tag_37\n      jumpi\n      dup1\n      0xa9059cbb\n      gt\n      tag_38\n      jumpi\n      dup1\n      0xdc31adee\n      gt\n      tag_39\n      jumpi\n      dup1\n      0xdc31adee\n      eq\n      tag_32\n      jumpi\n      dup1\n      0xdd62ed3e\n      eq\n      tag_33\n      jumpi\n      dup1\n      0xdf7f989f\n      eq\n      tag_34\n      jumpi\n      dup1\n      0xe9cbd822\n      eq\n      tag_35\n      jumpi\n      dup1\n      0xf2fde38b\n      eq\n      tag_36\n      jumpi\n      jump(tag_2)\n    tag_39:\n      dup1\n      0xa9059cbb\n      eq\n      tag_28\n      jumpi\n      dup1\n      0xb0a65b3e\n      eq\n      tag_29\n      jumpi\n      dup1\n      0xba115cb6\n      eq\n      tag_30\n      jumpi\n      dup1\n      0xcc1776d3\n      eq\n      tag_31\n      jumpi\n      jump(tag_2)\n    tag_38:\n      dup1\n      0x8da5cb5b\n      gt\n      tag_40\n      jumpi\n      dup1\n      0x8da5cb5b\n      eq\n      tag_24\n      jumpi\n      dup1\n      0x926165d7\n      eq\n      tag_25\n      jumpi\n      dup1\n      0x95d89b41\n      eq\n      tag_26\n      jumpi\n      dup1\n      0xa6f59846\n      eq\n      tag_27\n      jumpi\n      jump(tag_2)\n    tag_40:\n      dup1\n      0x715018a6\n      eq\n      tag_20\n      jumpi\n      dup1\n      0x7b0a47ee\n      eq\n      tag_21\n      jumpi\n      dup1\n      0x8b887e7e\n      eq\n      tag_22\n      jumpi\n      dup1\n      0x8cbb6df7\n      eq\n      tag_23\n      jumpi\n      jump(tag_2)\n    tag_37:\n      dup1\n      0x2cca9dfd\n      gt\n      tag_41\n      jumpi\n      dup1\n      0x3adde9c1\n      gt\n      tag_42\n      jumpi\n      dup1\n      0x3adde9c1\n      eq\n      tag_15\n      jumpi\n      dup1\n      0x4f0dbaf2\n      eq\n      tag_16\n      jumpi\n      dup1\n      0x4f7041a5\n      eq\n      tag_17\n      jumpi\n      dup1\n      0x56bf536c\n      eq\n      tag_18\n      jumpi\n      dup1\n      0x70a08231\n      eq\n      tag_19\n      jumpi\n      jump(tag_2)\n    tag_42:\n      dup1\n      0x2cca9dfd\n      eq\n      tag_11\n      jumpi\n      dup1\n      0x2ff2e9dc\n      eq\n      tag_12\n      jumpi\n      dup1\n      0x313ce567\n      eq\n      tag_13\n      jumpi\n      dup1\n      0x329430ca\n      eq\n      tag_14\n      jumpi\n      jump(tag_2)\n    tag_41:\n      dup1\n      0x18160ddd\n      gt\n      tag_43\n      jumpi\n      dup1\n      0x18160ddd\n      eq\n      tag_7\n      jumpi\n      dup1\n      0x1f6722b6\n      eq\n      tag_8\n      jumpi\n      dup1\n      0x23256627\n      eq\n      tag_9\n      jumpi\n      dup1\n      0x23b872dd\n      eq\n      tag_10\n      jumpi\n      jump(tag_2)\n    tag_43:\n      dup1\n      0x06fdde03\n      eq\n      tag_3\n      jumpi\n      dup1\n      0x0733f92b\n      eq\n      tag_4\n      jumpi\n      dup1\n      0x095ea7b3\n      eq\n      tag_5\n      jumpi\n      dup1\n      0x14c411c7\n      eq\n      tag_6\n      jumpi\n    tag_2:\n      0x00\n      dup1\n      revert\n        /* \"@openzeppelin/contracts/token/ERC20/ERC20.sol\":1779:1868  function name() public view virtual returns (string memory) {... */\n    tag_3:\n      tag_44\n      tag_45\n      jump\t// in\n    tag_44:\n      mload(0x40)\n      tag_46\n      swap2\n      swap1\n      tag_47\n      jump\t// in\n    tag_46:\n      mload(0x40)\n      dup1\n      swap2\n      sub\n      swap1\n      return\n        /* \"contracts/XORA.sol\":1083:1121  uint256 public releasedMarketingAmount */\n    tag_4:\n      tag_48\n      tag_49\n      jump\t// in\n    tag_48:\n      mload(0x40)\n      tag_50\n      swap2\n      swap1\n      tag_51\n      jump\t// in\n    tag_50:\n      mload(0x40)\n      dup1\n      swap2\n      sub\n      swap1\n      return\n        /* \"@openzeppelin/contracts/token/ERC20/ERC20.sol\":3998:4184  function approve(address spender, uint256 value) public virtual returns (bool) {... */\n    tag_5:\n      tag_52\n      0x04\n      dup1\n      calldatasize\n      sub\n      dup2\n      add\n      swap1\n      tag_53\n      swap2\n      swap1\n      tag_54\n      jump\t// in\n    tag_53:\n      tag_55\n      jump\t// in\n    tag_52:\n      mload(0x40)\n      tag_56\n      swap2\n      swap1\n      tag_57\n      jump\t// in\n    tag_56:\n      mload(0x40)\n      dup1\n      swap2\n      sub\n      swap1\n      return\n        /* \"contracts/XORA.sol\":2688:3330  function releaseTeamTokens() external onlyOwner nonReentrant {... */\n    tag_6:\n      tag_58\n      tag_59\n      jump\t// in\n    tag_58:\n      stop\n        /* \"@openzeppelin/contracts/token/ERC20/ERC20.sol\":2849:2946  function totalSupply() public view virtual returns (uint256) {... */\n    tag_7:\n      tag_60\n      tag_61\n      jump\t// in\n    tag_60:\n      mload(0x40)\n      tag_62\n      swap2\n      swap1\n      tag_51\n      jump\t// in\n    tag_62:\n      mload(0x40)\n      dup1\n      swap2\n      sub\n      swap1\n      return\n        /* \"contracts/XORA.sol\":1020:1077  uint256 public marketingAllocated = 75_000_000 * (10**18) */\n    tag_8:\n      tag_63\n      tag_64\n      jump\t// in\n    tag_63:\n      mload(0x40)\n      tag_65\n      swap2\n      swap1\n      tag_51\n      jump\t// in\n    tag_65:\n      mload(0x40)\n      dup1\n      swap2\n      sub\n      swap1\n      return\n        /* \"contracts/XORA.sol\":807:860  uint256 public constant MARKETING_INITIAL_UNLOCK = 25 */\n    tag_9:\n      tag_66\n      tag_67\n      jump\t// in\n    tag_66:\n      mload(0x40)\n      tag_68\n      swap2\n      swap1\n      tag_51\n      jump\t// in\n    tag_68:\n      mload(0x40)\n      dup1\n      swap2\n      sub\n      swap1\n      return\n        /* \"@openzeppelin/contracts/token/ERC20/ERC20.sol\":4776:5020  function transferFrom(address from, address to, uint256 value) public virtual returns (bool) {... */\n    tag_10:\n      tag_69\n      0x04\n      dup1\n      calldatasize\n      sub\n      dup2\n      add\n      swap1\n      tag_70\n      swap2\n      swap1\n      tag_71\n      jump\t// in\n    tag_70:\n      tag_72\n      jump\t// in\n    tag_69:\n      mload(0x40)\n      tag_73\n      swap2\n      swap1\n      tag_57\n      jump\t// in\n    tag_73:\n      mload(0x40)\n      dup1\n      swap2\n      sub\n      swap1\n      return\n        /* \"contracts/XORA.sol\":1462:1553  address public constant LIQUIDITY_POOL =... */\n    tag_11:\n      tag_74\n      tag_75\n      jump\t// in\n    tag_74:\n      mload(0x40)\n      tag_76\n      swap2\n      swap1\n      tag_77\n      jump\t// in\n    tag_76:\n      mload(0x40)\n      dup1\n      swap2\n      sub\n      swap1\n      return\n        /* \"contracts/XORA.sol\":286:351  uint256 public constant INITIAL_SUPPLY = 1_000_000_000 * (10**18) */\n    tag_12:\n      tag_78\n      tag_79\n      jump\t// in\n    tag_78:\n      mload(0x40)\n      tag_80\n      swap2\n      swap1\n      tag_51\n      jump\t// in\n    tag_80:\n      mload(0x40)\n      dup1\n      swap2\n      sub\n      swap1\n      return\n        /* \"@openzeppelin/contracts/token/ERC20/ERC20.sol\":2707:2789  function decimals() public view virtual returns (uint8) {... */\n    tag_13:\n      tag_81\n      tag_82\n      jump\t// in\n    tag_81:\n      mload(0x40)\n      tag_83\n      swap2\n      swap1\n      tag_84\n      jump\t// in\n    tag_83:\n      mload(0x40)\n      dup1\n      swap2\n      sub\n      swap1\n      return\n        /* \"contracts/XORA.sol\":867:920  uint256 public teamAllocated = 100_000_000 * (10**18) */\n    tag_14:\n      tag_85\n      tag_86\n      jump\t// in\n    tag_85:\n      mload(0x40)\n      tag_87\n      swap2\n      swap1\n      tag_51\n      jump\t// in\n    tag_87:\n      mload(0x40)\n      dup1\n      swap2\n      sub\n      swap1\n      return\n        /* \"contracts/XORA.sol\":518:567  uint256 public constant HALVING_PERIOD = 365 days */\n    tag_15:\n      tag_88\n      tag_89\n      jump\t// in\n    tag_88:\n      mload(0x40)\n      tag_90\n      swap2\n      swap1\n      tag_51\n      jump\t// in\n    tag_90:\n      mload(0x40)\n      dup1\n      swap2\n      sub\n      swap1\n      return\n        /* \"contracts/XORA.sol\":1367:1456  address public constant PLAY_TO_EARN =... */\n    tag_16:\n      tag_91\n      tag_92\n      jump\t// in\n    tag_91:\n      mload(0x40)\n      tag_93\n      swap2\n      swap1\n      tag_77\n      jump\t// in\n    tag_93:\n      mload(0x40)\n      dup1\n      swap2\n      sub\n      swap1\n      return\n        /* \"contracts/XORA.sol\":388:413  uint256 public buyTax = 1 */\n    tag_17:\n      tag_94\n      tag_95\n      jump\t// in\n    tag_94:\n      mload(0x40)\n      tag_96\n      swap2\n      swap1\n      tag_51\n      jump\t// in\n    tag_96:\n      mload(0x40)\n      dup1\n      swap2\n      sub\n      swap1\n      return\n        /* \"contracts/XORA.sol\":1775:1869  address public constant STRADEGIC_RESERVE =... */\n    tag_18:\n      tag_97\n      tag_98\n      jump\t// in\n    tag_97:\n      mload(0x40)\n      tag_99\n      swap2\n      swap1\n      tag_77\n      jump\t// in\n    tag_99:\n      mload(0x40)\n      dup1\n      swap2\n      sub\n      swap1\n      return\n        /* \"@openzeppelin/contracts/token/ERC20/ERC20.sol\":3004:3120  function balanceOf(address account) public view virtual returns (uint256) {... */\n    tag_19:\n      tag_100\n      0x04\n      dup1\n      calldatasize\n      sub\n      dup2\n      add\n      swap1\n      tag_101\n      swap2\n      swap1\n      tag_102\n      jump\t// in\n    tag_101:\n      tag_103\n      jump\t// in\n    tag_100:\n      mload(0x40)\n      tag_104\n      swap2\n      swap1\n      tag_51\n      jump\t// in\n    tag_104:\n      mload(0x40)\n      dup1\n      swap2\n      sub\n      swap1\n      return\n        /* \"@openzeppelin/contracts/access/Ownable.sol\":2293:2394  function renounceOwnership() public virtual onlyOwner {... */\n    tag_20:\n      tag_105\n      tag_106\n      jump\t// in\n    tag_105:\n      stop\n        /* \"contracts/XORA.sol\":487:512  uint256 public rewardRate */\n    tag_21:\n      tag_107\n      tag_108\n      jump\t// in\n    tag_107:\n      mload(0x40)\n      tag_109\n      swap2\n      swap1\n      tag_51\n      jump\t// in\n    tag_109:\n      mload(0x40)\n      dup1\n      swap2\n      sub\n      swap1\n      return\n        /* \"contracts/XORA.sol\":4300:4588  function halveRewards() external {... */\n    tag_22:\n      tag_110\n      tag_111\n      jump\t// in\n    tag_110:\n      stop\n        /* \"contracts/XORA.sol\":451:481  uint256 public lastHalvingTime */\n    tag_23:\n      tag_112\n      tag_113\n      jump\t// in\n    tag_112:\n      mload(0x40)\n      tag_114\n      swap2\n      swap1\n      tag_51\n      jump\t// in\n    tag_114:\n      mload(0x40)\n      dup1\n      swap2\n      sub\n      swap1\n      return\n        /* \"@openzeppelin/contracts/access/Ownable.sol\":1638:1723  function owner() public view virtual returns (address) {... */\n    tag_24:\n      tag_115\n      tag_116\n      jump\t// in\n    tag_115:\n      mload(0x40)\n      tag_117\n      swap2\n      swap1\n      tag_77\n      jump\t// in\n    tag_117:\n      mload(0x40)\n      dup1\n      swap2\n      sub\n      swap1\n      return\n        /* \"contracts/XORA.sol\":3925:4259  function initializeRewardParameters(... */\n    tag_25:\n      tag_118\n      0x04\n      dup1\n      calldatasize\n      sub\n      dup2\n      add\n      swap1\n      tag_119\n      swap2\n      swap1\n      tag_120\n      jump\t// in\n    tag_119:\n      tag_121\n      jump\t// in\n    tag_118:\n      stop\n        /* \"@openzeppelin/contracts/token/ERC20/ERC20.sol\":1981:2074  function symbol() public view virtual returns (string memory) {... */\n    tag_26:\n      tag_122\n      tag_123\n      jump\t// in\n    tag_122:\n      mload(0x40)\n      tag_124\n      swap2\n      swap1\n      tag_47\n      jump\t// in\n    tag_124:\n      mload(0x40)\n      dup1\n      swap2\n      sub\n      swap1\n      return\n        /* \"contracts/XORA.sol\":926:959  uint256 public releasedTeamAmount */\n    tag_27:\n      tag_125\n      tag_126\n      jump\t// in\n    tag_125:\n      mload(0x40)\n      tag_127\n      swap2\n      swap1\n      tag_51\n      jump\t// in\n    tag_127:\n      mload(0x40)\n      dup1\n      swap2\n      sub\n      swap1\n      return\n        /* \"@openzeppelin/contracts/token/ERC20/ERC20.sol\":3315:3493  function transfer(address to, uint256 value) public virtual returns (bool) {... */\n    tag_28:\n      tag_128\n      0x04\n      dup1\n      calldatasize\n      sub\n      dup2\n      add\n      swap1\n      tag_129\n      swap2\n      swap1\n      tag_54\n      jump\t// in\n    tag_129:\n      tag_130\n      jump\t// in\n    tag_128:\n      mload(0x40)\n      tag_131\n      swap2\n      swap1\n      tag_57\n      jump\t// in\n    tag_131:\n      mload(0x40)\n      dup1\n      swap2\n      sub\n      swap1\n      return\n        /* \"contracts/XORA.sol\":1875:1966  address public constant ICO_ALLOCATION =... */\n    tag_29:\n      tag_132\n      tag_133\n      jump\t// in\n    tag_132:\n      mload(0x40)\n      tag_134\n      swap2\n      swap1\n      tag_77\n      jump\t// in\n    tag_134:\n      mload(0x40)\n      dup1\n      swap2\n      sub\n      swap1\n      return\n        /* \"contracts/XORA.sol\":1662:1769  address public constant COMMUNITY_GROWTH_AND_MARKETING =... */\n    tag_30:\n      tag_135\n      tag_136\n      jump\t// in\n    tag_135:\n      mload(0x40)\n      tag_137\n      swap2\n      swap1\n      tag_77\n      jump\t// in\n    tag_137:\n      mload(0x40)\n      dup1\n      swap2\n      sub\n      swap1\n      return\n        /* \"contracts/XORA.sol\":419:445  uint256 public sellTax = 1 */\n    tag_31:\n      tag_138\n      tag_139\n      jump\t// in\n    tag_138:\n      mload(0x40)\n      tag_140\n      swap2\n      swap1\n      tag_51\n      jump\t// in\n    tag_140:\n      mload(0x40)\n      dup1\n      swap2\n      sub\n      swap1\n      return\n        /* \"contracts/XORA.sol\":3335:3919  function releaseMarketingTokens() external onlyOwner nonReentrant{... */\n    tag_32:\n      tag_141\n      tag_142\n      jump\t// in\n    tag_141:\n      stop\n        /* \"@openzeppelin/contracts/token/ERC20/ERC20.sol\":3551:3691  function allowance(address owner, address spender) public view virtual returns (uint256) {... */\n    tag_33:\n      tag_143\n      0x04\n      dup1\n      calldatasize\n      sub\n      dup2\n      add\n      swap1\n      tag_144\n      swap2\n      swap1\n      tag_145\n      jump\t// in\n    tag_144:\n      tag_146\n      jump\t// in\n    tag_143:\n      mload(0x40)\n      tag_147\n      swap2\n      swap1\n      tag_51\n      jump\t// in\n    tag_147:\n      mload(0x40)\n      dup1\n      swap2\n      sub\n      swap1\n      return\n        /* \"contracts/XORA.sol\":1559:1656  address public constant TEAM_AND_DEVELOPMENT =... */\n    tag_34:\n      tag_148\n      tag_149\n      jump\t// in\n    tag_148:\n      mload(0x40)\n      tag_150\n      swap2\n      swap1\n      tag_77\n      jump\t// in\n    tag_150:\n      mload(0x40)\n      dup1\n      swap2\n      sub\n      swap1\n      return\n        /* \"contracts/XORA.sol\":357:381  IERC20 public stablecoin */\n    tag_35:\n      tag_151\n      tag_152\n      jump\t// in\n    tag_151:\n      mload(0x40)\n      tag_153\n      swap2\n      swap1\n      tag_154\n      jump\t// in\n    tag_153:\n      mload(0x40)\n      dup1\n      swap2\n      sub\n      swap1\n      return\n        /* \"@openzeppelin/contracts/access/Ownable.sol\":2543:2758  function transferOwnership(address newOwner) public virtual onlyOwner {... */\n    tag_36:\n      tag_155\n      0x04\n      dup1\n      calldatasize\n      sub\n      dup2\n      add\n      swap1\n      tag_156\n      swap2\n      swap1\n      tag_102\n      jump\t// in\n    tag_156:\n      tag_157\n      jump\t// in\n    tag_155:\n      stop\n        /* \"@openzeppelin/contracts/token/ERC20/ERC20.sol\":1779:1868  function name() public view virtual returns (string memory) {... */\n    tag_45:\n        /* \"@openzeppelin/contracts/token/ERC20/ERC20.sol\":1824:1837  string memory */\n      0x60\n        /* \"@openzeppelin/contracts/token/ERC20/ERC20.sol\":1856:1861  _name */\n      0x03\n        /* \"@openzeppelin/contracts/token/ERC20/ERC20.sol\":1849:1861  return _name */\n      dup1\n      sload\n      tag_159\n      swap1\n      tag_160\n      jump\t// in\n    tag_159:\n      dup1\n      0x1f\n      add\n      0x20\n      dup1\n      swap2\n      div\n      mul\n      0x20\n      add\n      mload(0x40)\n      swap1\n      dup2\n      add\n      0x40\n      mstore\n      dup1\n      swap3\n      swap2\n      swap1\n      dup2\n      dup2\n      mstore\n      0x20\n      add\n      dup3\n      dup1\n      sload\n      tag_161\n      swap1\n      tag_160\n      jump\t// in\n    tag_161:\n      dup1\n      iszero\n      tag_162\n      jumpi\n      dup1\n      0x1f\n      lt\n      tag_163\n      jumpi\n      0x0100\n      dup1\n      dup4\n      sload\n      div\n      mul\n      dup4\n      mstore\n      swap2\n      0x20\n      add\n      swap2\n      jump(tag_162)\n    tag_163:\n      dup3\n      add\n      swap2\n      swap1\n      0x00\n      mstore\n      keccak256(0x00, 0x20)\n      swap1\n    tag_164:\n      dup2\n      sload\n      dup2\n      mstore\n      swap1\n      0x01\n      add\n      swap1\n      0x20\n      add\n      dup1\n      dup4\n      gt\n      tag_164\n      jumpi\n      dup3\n      swap1\n      sub\n      0x1f\n      and\n      dup3\n      add\n      swap2\n    tag_162:\n      pop\n      pop\n      pop\n      pop\n      pop\n      swap1\n      pop\n        /* \"@openzeppelin/contracts/token/ERC20/ERC20.sol\":1779:1868  function name() public view virtual returns (string memory) {... */\n      swap1\n      jump\t// out\n        /* \"contracts/XORA.sol\":1083:1121  uint256 public releasedMarketingAmount */\n    tag_49:\n      sload(0x13)\n      dup2\n      jump\t// out\n        /* \"@openzeppelin/contracts/token/ERC20/ERC20.sol\":3998:4184  function approve(address spender, uint256 value) public virtual returns (bool) {... */\n    tag_55:\n        /* \"@openzeppelin/contracts/token/ERC20/ERC20.sol\":4071:4075  bool */\n      0x00\n        /* \"@openzeppelin/contracts/token/ERC20/ERC20.sol\":4087:4100  address owner */\n      dup1\n        /* \"@openzeppelin/contracts/token/ERC20/ERC20.sol\":4103:4115  _msgSender() */\n      tag_166\n        /* \"@openzeppelin/contracts/token/ERC20/ERC20.sol\":4103:4113  _msgSender */\n      tag_167\n        /* \"@openzeppelin/contracts/token/ERC20/ERC20.sol\":4103:4115  _msgSender() */\n      jump\t// in\n    tag_166:\n        /* \"@openzeppelin/contracts/token/ERC20/ERC20.sol\":4087:4115  address owner = _msgSender() */\n      swap1\n      pop\n        /* \"@openzeppelin/contracts/token/ERC20/ERC20.sol\":4125:4156  _approve(owner, spender, value) */\n      tag_168\n        /* \"@openzeppelin/contracts/token/ERC20/ERC20.sol\":4134:4139  owner */\n      dup2\n        /* \"@openzeppelin/contracts/token/ERC20/ERC20.sol\":4141:4148  spender */\n      dup6\n        /* \"@openzeppelin/contracts/token/ERC20/ERC20.sol\":4150:4155  value */\n      dup6\n        /* \"@openzeppelin/contracts/token/ERC20/ERC20.sol\":4125:4133  _approve */\n      tag_169\n        /* \"@openzeppelin/contracts/token/ERC20/ERC20.sol\":4125:4156  _approve(owner, spender, value) */\n      jump\t// in\n    tag_168:\n        /* \"@openzeppelin/contracts/token/ERC20/ERC20.sol\":4173:4177  true */\n      0x01\n        /* \"@openzeppelin/contracts/token/ERC20/ERC20.sol\":4166:4177  return true */\n      swap2\n      pop\n      pop\n        /* \"@openzeppelin/contracts/token/ERC20/ERC20.sol\":3998:4184  function approve(address spender, uint256 value) public virtual returns (bool) {... */\n      swap3\n      swap2\n      pop\n      pop\n      jump\t// out\n        /* \"contracts/XORA.sol\":2688:3330  function releaseTeamTokens() external onlyOwner nonReentrant {... */\n    tag_59:\n        /* \"@openzeppelin/contracts/access/Ownable.sol\":1531:1544  _checkOwner() */\n      tag_171\n        /* \"@openzeppelin/contracts/access/Ownable.sol\":1531:1542  _checkOwner */\n      tag_172\n        /* \"@openzeppelin/contracts/access/Ownable.sol\":1531:1544  _checkOwner() */\n      jump\t// in\n    tag_171:\n        /* \"@openzeppelin/contracts/security/ReentrancyGuard.sol\":2261:2282  _nonReentrantBefore() */\n      tag_174\n        /* \"@openzeppelin/contracts/security/ReentrancyGuard.sol\":2261:2280  _nonReentrantBefore */\n      tag_175\n        /* \"@openzeppelin/contracts/security/ReentrancyGuard.sol\":2261:2282  _nonReentrantBefore() */\n      jump\t// in\n    tag_174:\n        /* \"contracts/XORA.sol\":638:650  18 * 30 days */\n      0x02c7ea00\n        /* \"contracts/XORA.sol\":2786:2804  teamStartTimestamp */\n      sload(0x0c)\n        /* \"contracts/XORA.sol\":2786:2817  teamStartTimestamp + TEAM_CLIFF */\n      tag_177\n      swap2\n      swap1\n      tag_178\n      jump\t// in\n    tag_177:\n        /* \"contracts/XORA.sol\":2767:2782  block.timestamp */\n      timestamp\n        /* \"contracts/XORA.sol\":2767:2817  block.timestamp >= teamStartTimestamp + TEAM_CLIFF */\n      lt\n      iszero\n        /* \"contracts/XORA.sol\":2759:2852  require(block.timestamp >= teamStartTimestamp + TEAM_CLIFF, \"Team vesting cliff not reached\") */\n      tag_179\n      jumpi\n      mload(0x40)\n      0x08c379a000000000000000000000000000000000000000000000000000000000\n      dup2\n      mstore\n      0x04\n      add\n      tag_180\n      swap1\n      tag_181\n      jump\t// in\n    tag_180:\n      mload(0x40)\n      dup1\n      swap2\n      sub\n      swap1\n      revert\n    tag_179:\n        /* \"contracts/XORA.sol\":2862:2881  uint256 elapsedTime */\n      0x00\n        /* \"contracts/XORA.sol\":638:650  18 * 30 days */\n      0x02c7ea00\n        /* \"contracts/XORA.sol\":2903:2921  teamStartTimestamp */\n      sload(0x0c)\n        /* \"contracts/XORA.sol\":2903:2934  teamStartTimestamp + TEAM_CLIFF */\n      tag_182\n      swap2\n      swap1\n      tag_178\n      jump\t// in\n    tag_182:\n        /* \"contracts/XORA.sol\":2884:2899  block.timestamp */\n      timestamp\n        /* \"contracts/XORA.sol\":2884:2935  block.timestamp - (teamStartTimestamp + TEAM_CLIFF) */\n      tag_183\n      swap2\n      swap1\n      tag_184\n      jump\t// in\n    tag_183:\n        /* \"contracts/XORA.sol\":2862:2935  uint256 elapsedTime = block.timestamp - (teamStartTimestamp + TEAM_CLIFF) */\n      swap1\n      pop\n        /* \"contracts/XORA.sol\":2945:2965  uint256 vestedAmount */\n      0x00\n        /* \"contracts/XORA.sol\":696:708  4 * 365 days */\n      0x0784ce00\n        /* \"contracts/XORA.sol\":2985:2996  elapsedTime */\n      dup3\n        /* \"contracts/XORA.sol\":2969:2982  teamAllocated */\n      sload(0x0f)\n        /* \"contracts/XORA.sol\":2969:2996  teamAllocated * elapsedTime */\n      tag_185\n      swap2\n      swap1\n      tag_186\n      jump\t// in\n    tag_185:\n        /* \"contracts/XORA.sol\":2968:3019  (teamAllocated * elapsedTime) / TEAM_VESTING_PERIOD */\n      tag_187\n      swap2\n      swap1\n      tag_188\n      jump\t// in\n    tag_187:\n        /* \"contracts/XORA.sol\":2945:3019  uint256 vestedAmount = (teamAllocated * elapsedTime) / TEAM_VESTING_PERIOD */\n      swap1\n      pop\n        /* \"contracts/XORA.sol\":3029:3047  uint256 teamAmount */\n      0x00\n        /* \"contracts/XORA.sol\":3065:3083  releasedTeamAmount */\n      sload(0x10)\n        /* \"contracts/XORA.sol\":3050:3062  vestedAmount */\n      dup3\n        /* \"contracts/XORA.sol\":3050:3083  vestedAmount - releasedTeamAmount */\n      tag_189\n      swap2\n      swap1\n      tag_184\n      jump\t// in\n    tag_189:\n        /* \"contracts/XORA.sol\":3029:3083  uint256 teamAmount = vestedAmount - releasedTeamAmount */\n      swap1\n      pop\n        /* \"contracts/XORA.sol\":3115:3125  teamAmount */\n      dup1\n        /* \"contracts/XORA.sol\":3093:3111  releasedTeamAmount */\n      0x10\n      0x00\n        /* \"contracts/XORA.sol\":3093:3125  releasedTeamAmount += teamAmount */\n      dup3\n      dup3\n      sload\n      tag_190\n      swap2\n      swap1\n      tag_178\n      jump\t// in\n    tag_190:\n      swap3\n      pop\n      pop\n      dup2\n      swap1\n      sstore\n      pop\n        /* \"contracts/XORA.sol\":3158:3159  0 */\n      0x00\n        /* \"contracts/XORA.sol\":3143:3155  vestedAmount */\n      dup3\n        /* \"contracts/XORA.sol\":3143:3159  vestedAmount > 0 */\n      gt\n        /* \"contracts/XORA.sol\":3135:3195  require(vestedAmount > 0, \"No tokens available for release\") */\n      tag_191\n      jumpi\n      mload(0x40)\n      0x08c379a000000000000000000000000000000000000000000000000000000000\n      dup2\n      mstore\n      0x04\n      add\n      tag_192\n      swap1\n      tag_193\n      jump\t// in\n    tag_192:\n      mload(0x40)\n      dup1\n      swap2\n      sub\n      swap1\n      revert\n    tag_191:\n        /* \"contracts/XORA.sol\":3235:3248  teamAllocated */\n      sload(0x0f)\n        /* \"contracts/XORA.sol\":3213:3231  releasedTeamAmount */\n      sload(0x10)\n        /* \"contracts/XORA.sol\":3213:3248  releasedTeamAmount <= teamAllocated */\n      gt\n      iszero\n        /* \"contracts/XORA.sol\":3205:3275  require(releasedTeamAmount <= teamAllocated,\"max token limit reached\") */\n      tag_194\n      jumpi\n      mload(0x40)\n      0x08c379a000000000000000000000000000000000000000000000000000000000\n      dup2\n      mstore\n      0x04\n      add\n      tag_195\n      swap1\n      tag_196\n      jump\t// in\n    tag_195:\n      mload(0x40)\n      dup1\n      swap2\n      sub\n      swap1\n      revert\n    tag_194:\n        /* \"contracts/XORA.sol\":3285:3323  _mint(TEAM_AND_DEVELOPMENT,teamAmount) */\n      tag_197\n        /* \"contracts/XORA.sol\":1614:1656  0x4B0897b0513fdC7C541B6d9D7E929C4e5364D2dB */\n      0x4b0897b0513fdc7c541b6d9d7e929c4e5364d2db\n        /* \"contracts/XORA.sol\":3312:3322  teamAmount */\n      dup3\n        /* \"contracts/XORA.sol\":3285:3290  _mint */\n      tag_198\n        /* \"contracts/XORA.sol\":3285:3323  _mint(TEAM_AND_DEVELOPMENT,teamAmount) */\n      jump\t// in\n    tag_197:\n        /* \"contracts/XORA.sol\":2749:3330  {... */\n      pop\n      pop\n      pop\n        /* \"@openzeppelin/contracts/security/ReentrancyGuard.sol\":2303:2323  _nonReentrantAfter() */\n      tag_199\n        /* \"@openzeppelin/contracts/security/ReentrancyGuard.sol\":2303:2321  _nonReentrantAfter */\n      tag_200\n        /* \"@openzeppelin/contracts/security/ReentrancyGuard.sol\":2303:2323  _nonReentrantAfter() */\n      jump\t// in\n    tag_199:\n        /* \"contracts/XORA.sol\":2688:3330  function releaseTeamTokens() external onlyOwner nonReentrant {... */\n      jump\t// out\n        /* \"@openzeppelin/contracts/token/ERC20/ERC20.sol\":2849:2946  function totalSupply() public view virtual returns (uint256) {... */\n    tag_61:\n        /* \"@openzeppelin/contracts/token/ERC20/ERC20.sol\":2901:2908  uint256 */\n      0x00\n        /* \"@openzeppelin/contracts/token/ERC20/ERC20.sol\":2927:2939  _totalSupply */\n      sload(0x02)\n        /* \"@openzeppelin/contracts/token/ERC20/ERC20.sol\":2920:2939  return _totalSupply */\n      swap1\n      pop\n        /* \"@openzeppelin/contracts/token/ERC20/ERC20.sol\":2849:2946  function totalSupply() public view virtual returns (uint256) {... */\n      swap1\n      jump\t// out\n        /* \"contracts/XORA.sol\":1020:1077  uint256 public marketingAllocated = 75_000_000 * (10**18) */\n    tag_64:\n      sload(0x12)\n      dup2\n      jump\t// out\n        /* \"contracts/XORA.sol\":807:860  uint256 public constant MARKETING_INITIAL_UNLOCK = 25 */\n    tag_67:\n        /* \"contracts/XORA.sol\":858:860  25 */\n      0x19\n        /* \"contracts/XORA.sol\":807:860  uint256 public constant MARKETING_INITIAL_UNLOCK = 25 */\n      dup2\n      jump\t// out\n        /* \"@openzeppelin/contracts/token/ERC20/ERC20.sol\":4776:5020  function transferFrom(address from, address to, uint256 value) public virtual returns (bool) {... */\n    tag_72:\n        /* \"@openzeppelin/contracts/token/ERC20/ERC20.sol\":4863:4867  bool */\n      0x00\n        /* \"@openzeppelin/contracts/token/ERC20/ERC20.sol\":4879:4894  address spender */\n      dup1\n        /* \"@openzeppelin/contracts/token/ERC20/ERC20.sol\":4897:4909  _msgSender() */\n      tag_203\n        /* \"@openzeppelin/contracts/token/ERC20/ERC20.sol\":4897:4907  _msgSender */\n      tag_167\n        /* \"@openzeppelin/contracts/token/ERC20/ERC20.sol\":4897:4909  _msgSender() */\n      jump\t// in\n    tag_203:\n        /* \"@openzeppelin/contracts/token/ERC20/ERC20.sol\":4879:4909  address spender = _msgSender() */\n      swap1\n      pop\n        /* \"@openzeppelin/contracts/token/ERC20/ERC20.sol\":4919:4956  _spendAllowance(from, spender, value) */\n      tag_204\n        /* \"@openzeppelin/contracts/token/ERC20/ERC20.sol\":4935:4939  from */\n      dup6\n        /* \"@openzeppelin/contracts/token/ERC20/ERC20.sol\":4941:4948  spender */\n      dup3\n        /* \"@openzeppelin/contracts/token/ERC20/ERC20.sol\":4950:4955  value */\n      dup6\n        /* \"@openzeppelin/contracts/token/ERC20/ERC20.sol\":4919:4934  _spendAllowance */\n      tag_205\n        /* \"@openzeppelin/contracts/token/ERC20/ERC20.sol\":4919:4956  _spendAllowance(from, spender, value) */\n      jump\t// in\n    tag_204:\n        /* \"@openzeppelin/contracts/token/ERC20/ERC20.sol\":4966:4992  _transfer(from, to, value) */\n      tag_206\n        /* \"@openzeppelin/contracts/token/ERC20/ERC20.sol\":4976:4980  from */\n      dup6\n        /* \"@openzeppelin/contracts/token/ERC20/ERC20.sol\":4982:4984  to */\n      dup6\n        /* \"@openzeppelin/contracts/token/ERC20/ERC20.sol\":4986:4991  value */\n      dup6\n        /* \"@openzeppelin/contracts/token/ERC20/ERC20.sol\":4966:4975  _transfer */\n      tag_207\n        /* \"@openzeppelin/contracts/token/ERC20/ERC20.sol\":4966:4992  _transfer(from, to, value) */\n      jump\t// in\n    tag_206:\n        /* \"@openzeppelin/contracts/token/ERC20/ERC20.sol\":5009:5013  true */\n      0x01\n        /* \"@openzeppelin/contracts/token/ERC20/ERC20.sol\":5002:5013  return true */\n      swap2\n      pop\n      pop\n        /* \"@openzeppelin/contracts/token/ERC20/ERC20.sol\":4776:5020  function transferFrom(address from, address to, uint256 value) public virtual returns (bool) {... */\n      swap4\n      swap3\n      pop\n      pop\n      pop\n      jump\t// out\n        /* \"contracts/XORA.sol\":1462:1553  address public constant LIQUIDITY_POOL =... */\n    tag_75:\n        /* \"contracts/XORA.sol\":1511:1553  0x583031D1113aD414F02576BD6afaBfb302140225 */\n      0x583031d1113ad414f02576bd6afabfb302140225\n        /* \"contracts/XORA.sol\":1462:1553  address public constant LIQUIDITY_POOL =... */\n      dup2\n      jump\t// out\n        /* \"contracts/XORA.sol\":286:351  uint256 public constant INITIAL_SUPPLY = 1_000_000_000 * (10**18) */\n    tag_79:\n        /* \"contracts/XORA.sol\":327:351  1_000_000_000 * (10**18) */\n      0x033b2e3c9fd0803ce8000000\n        /* \"contracts/XORA.sol\":286:351  uint256 public constant INITIAL_SUPPLY = 1_000_000_000 * (10**18) */\n      dup2\n      jump\t// out\n        /* \"@openzeppelin/contracts/token/ERC20/ERC20.sol\":2707:2789  function decimals() public view virtual returns (uint8) {... */\n    tag_82:\n        /* \"@openzeppelin/contracts/token/ERC20/ERC20.sol\":2756:2761  uint8 */\n      0x00\n        /* \"@openzeppelin/contracts/token/ERC20/ERC20.sol\":2780:2782  18 */\n      0x12\n        /* \"@openzeppelin/contracts/token/ERC20/ERC20.sol\":2773:2782  return 18 */\n      swap1\n      pop\n        /* \"@openzeppelin/contracts/token/ERC20/ERC20.sol\":2707:2789  function decimals() public view virtual returns (uint8) {... */\n      swap1\n      jump\t// out\n        /* \"contracts/XORA.sol\":867:920  uint256 public teamAllocated = 100_000_000 * (10**18) */\n    tag_86:\n      sload(0x0f)\n      dup2\n      jump\t// out\n        /* \"contracts/XORA.sol\":518:567  uint256 public constant HALVING_PERIOD = 365 days */\n    tag_89:\n        /* \"contracts/XORA.sol\":559:567  365 days */\n      0x01e13380\n        /* \"contracts/XORA.sol\":518:567  uint256 public constant HALVING_PERIOD = 365 days */\n      dup2\n      jump\t// out\n        /* \"contracts/XORA.sol\":1367:1456  address public constant PLAY_TO_EARN =... */\n    tag_92:\n        /* \"contracts/XORA.sol\":1414:1456  0xdD870fA1b7C4700F2BD7f44238821C26f7392148 */\n      0xdd870fa1b7c4700f2bd7f44238821c26f7392148\n        /* \"contracts/XORA.sol\":1367:1456  address public constant PLAY_TO_EARN =... */\n      dup2\n      jump\t// out\n        /* \"contracts/XORA.sol\":388:413  uint256 public buyTax = 1 */\n    tag_95:\n      sload(0x08)\n      dup2\n      jump\t// out\n        /* \"contracts/XORA.sol\":1775:1869  address public constant STRADEGIC_RESERVE =... */\n    tag_98:\n        /* \"contracts/XORA.sol\":1827:1869  0xCA35b7d915458EF540aDe6068dFe2F44E8fa733c */\n      0xca35b7d915458ef540ade6068dfe2f44e8fa733c\n        /* \"contracts/XORA.sol\":1775:1869  address public constant STRADEGIC_RESERVE =... */\n      dup2\n      jump\t// out\n        /* \"@openzeppelin/contracts/token/ERC20/ERC20.sol\":3004:3120  function balanceOf(address account) public view virtual returns (uint256) {... */\n    tag_103:\n        /* \"@openzeppelin/contracts/token/ERC20/ERC20.sol\":3069:3076  uint256 */\n      0x00\n        /* \"@openzeppelin/contracts/token/ERC20/ERC20.sol\":3095:3104  _balances */\n      dup1\n        /* \"@openzeppelin/contracts/token/ERC20/ERC20.sol\":3095:3113  _balances[account] */\n      0x00\n        /* \"@openzeppelin/contracts/token/ERC20/ERC20.sol\":3105:3112  account */\n      dup4\n        /* \"@openzeppelin/contracts/token/ERC20/ERC20.sol\":3095:3113  _balances[account] */\n      0xffffffffffffffffffffffffffffffffffffffff\n      and\n      0xffffffffffffffffffffffffffffffffffffffff\n      and\n      dup2\n      mstore\n      0x20\n      add\n      swap1\n      dup2\n      mstore\n      0x20\n      add\n      0x00\n      keccak256\n      sload\n        /* \"@openzeppelin/contracts/token/ERC20/ERC20.sol\":3088:3113  return _balances[account] */\n      swap1\n      pop\n        /* \"@openzeppelin/contracts/token/ERC20/ERC20.sol\":3004:3120  function balanceOf(address account) public view virtual returns (uint256) {... */\n      swap2\n      swap1\n      pop\n      jump\t// out\n        /* \"@openzeppelin/contracts/access/Ownable.sol\":2293:2394  function renounceOwnership() public virtual onlyOwner {... */\n    tag_106:\n        /* \"@openzeppelin/contracts/access/Ownable.sol\":1531:1544  _checkOwner() */\n      tag_211\n        /* \"@openzeppelin/contracts/access/Ownable.sol\":1531:1542  _checkOwner */\n      tag_172\n        /* \"@openzeppelin/contracts/access/Ownable.sol\":1531:1544  _checkOwner() */\n      jump\t// in\n    tag_211:\n        /* \"@openzeppelin/contracts/access/Ownable.sol\":2357:2387  _transferOwnership(address(0)) */\n      tag_213\n        /* \"@openzeppelin/contracts/access/Ownable.sol\":2384:2385  0 */\n      0x00\n        /* \"@openzeppelin/contracts/access/Ownable.sol\":2357:2375  _transferOwnership */\n      tag_214\n        /* \"@openzeppelin/contracts/access/Ownable.sol\":2357:2387  _transferOwnership(address(0)) */\n      jump\t// in\n    tag_213:\n        /* \"@openzeppelin/contracts/access/Ownable.sol\":2293:2394  function renounceOwnership() public virtual onlyOwner {... */\n      jump\t// out\n        /* \"contracts/XORA.sol\":487:512  uint256 public rewardRate */\n    tag_108:\n      sload(0x0b)\n      dup2\n      jump\t// out\n        /* \"contracts/XORA.sol\":4300:4588  function halveRewards() external {... */\n    tag_111:\n        /* \"contracts/XORA.sol\":559:567  365 days */\n      0x01e13380\n        /* \"contracts/XORA.sol\":4383:4398  lastHalvingTime */\n      sload(0x0a)\n        /* \"contracts/XORA.sol\":4383:4415  lastHalvingTime + HALVING_PERIOD */\n      tag_216\n      swap2\n      swap1\n      tag_178\n      jump\t// in\n    tag_216:\n        /* \"contracts/XORA.sol\":4364:4379  block.timestamp */\n      timestamp\n        /* \"contracts/XORA.sol\":4364:4415  block.timestamp >= lastHalvingTime + HALVING_PERIOD */\n      lt\n      iszero\n        /* \"contracts/XORA.sol\":4343:4460  require(... */\n      tag_217\n      jumpi\n      mload(0x40)\n      0x08c379a000000000000000000000000000000000000000000000000000000000\n      dup2\n      mstore\n      0x04\n      add\n      tag_218\n      swap1\n      tag_219\n      jump\t// in\n    tag_218:\n      mload(0x40)\n      dup1\n      swap2\n      sub\n      swap1\n      revert\n    tag_217:\n        /* \"contracts/XORA.sol\":4497:4498  2 */\n      0x02\n        /* \"contracts/XORA.sol\":4484:4494  rewardRate */\n      sload(0x0b)\n        /* \"contracts/XORA.sol\":4484:4498  rewardRate / 2 */\n      tag_220\n      swap2\n      swap1\n      tag_188\n      jump\t// in\n    tag_220:\n        /* \"contracts/XORA.sol\":4471:4481  rewardRate */\n      0x0b\n        /* \"contracts/XORA.sol\":4471:4498  rewardRate = rewardRate / 2 */\n      dup2\n      swap1\n      sstore\n      pop\n        /* \"contracts/XORA.sol\":4526:4541  block.timestamp */\n      timestamp\n        /* \"contracts/XORA.sol\":4508:4523  lastHalvingTime */\n      0x0a\n        /* \"contracts/XORA.sol\":4508:4541  lastHalvingTime = block.timestamp */\n      dup2\n      swap1\n      sstore\n      pop\n        /* \"contracts/XORA.sol\":4557:4581  RewardHalved(rewardRate) */\n      0xf92b4d3a8d8ba77170dd5cf6b65260191092093f924263a88c3c60dd8495f091\n        /* \"contracts/XORA.sol\":4570:4580  rewardRate */\n      sload(0x0b)\n        /* \"contracts/XORA.sol\":4557:4581  RewardHalved(rewardRate) */\n      mload(0x40)\n      tag_221\n      swap2\n      swap1\n      tag_51\n      jump\t// in\n    tag_221:\n      mload(0x40)\n      dup1\n      swap2\n      sub\n      swap1\n      log1\n        /* \"contracts/XORA.sol\":4300:4588  function halveRewards() external {... */\n      jump\t// out\n        /* \"contracts/XORA.sol\":451:481  uint256 public lastHalvingTime */\n    tag_113:\n      sload(0x0a)\n      dup2\n      jump\t// out\n        /* \"@openzeppelin/contracts/access/Ownable.sol\":1638:1723  function owner() public view virtual returns (address) {... */\n    tag_116:\n        /* \"@openzeppelin/contracts/access/Ownable.sol\":1684:1691  address */\n      0x00\n        /* \"@openzeppelin/contracts/access/Ownable.sol\":1710:1716  _owner */\n      0x05\n      0x00\n      swap1\n      sload\n      swap1\n      0x0100\n      exp\n      swap1\n      div\n      0xffffffffffffffffffffffffffffffffffffffff\n      and\n        /* \"@openzeppelin/contracts/access/Ownable.sol\":1703:1716  return _owner */\n      swap1\n      pop\n        /* \"@openzeppelin/contracts/access/Ownable.sol\":1638:1723  function owner() public view virtual returns (address) {... */\n      swap1\n      jump\t// out\n        /* \"contracts/XORA.sol\":3925:4259  function initializeRewardParameters(... */\n    tag_121:\n        /* \"@openzeppelin/contracts/access/Ownable.sol\":1531:1544  _checkOwner() */\n      tag_224\n        /* \"@openzeppelin/contracts/access/Ownable.sol\":1531:1542  _checkOwner */\n      tag_172\n        /* \"@openzeppelin/contracts/access/Ownable.sol\":1531:1544  _checkOwner() */\n      jump\t// in\n    tag_224:\n        /* \"contracts/XORA.sol\":4074:4092  _initialRewardRate */\n      dup2\n        /* \"contracts/XORA.sol\":4061:4071  rewardRate */\n      0x0b\n        /* \"contracts/XORA.sol\":4061:4092  rewardRate = _initialRewardRate */\n      dup2\n      swap1\n      sstore\n      pop\n        /* \"contracts/XORA.sol\":4122:4133  _stablecoin */\n      dup1\n        /* \"contracts/XORA.sol\":4102:4112  stablecoin */\n      0x07\n      0x00\n        /* \"contracts/XORA.sol\":4102:4134  stablecoin = IERC20(_stablecoin) */\n      0x0100\n      exp\n      dup2\n      sload\n      dup2\n      0xffffffffffffffffffffffffffffffffffffffff\n      mul\n      not\n      and\n      swap1\n      dup4\n      0xffffffffffffffffffffffffffffffffffffffff\n      and\n      mul\n      or\n      swap1\n      sstore\n      pop\n        /* \"contracts/XORA.sol\":4162:4177  block.timestamp */\n      timestamp\n        /* \"contracts/XORA.sol\":4144:4159  lastHalvingTime */\n      0x0a\n        /* \"contracts/XORA.sol\":4144:4177  lastHalvingTime = block.timestamp */\n      dup2\n      swap1\n      sstore\n      pop\n        /* \"contracts/XORA.sol\":4192:4252  RewardParametersInitialized(_initialRewardRate, _stablecoin) */\n      0xde2d0064b82669942e6a9cff523014473c366efc3cf147b14e0b1f4cbecc4bc8\n        /* \"contracts/XORA.sol\":4220:4238  _initialRewardRate */\n      dup3\n        /* \"contracts/XORA.sol\":4240:4251  _stablecoin */\n      dup3\n        /* \"contracts/XORA.sol\":4192:4252  RewardParametersInitialized(_initialRewardRate, _stablecoin) */\n      mload(0x40)\n      tag_226\n      swap3\n      swap2\n      swap1\n      tag_227\n      jump\t// in\n    tag_226:\n      mload(0x40)\n      dup1\n      swap2\n      sub\n      swap1\n      log1\n        /* \"contracts/XORA.sol\":3925:4259  function initializeRewardParameters(... */\n      pop\n      pop\n      jump\t// out\n        /* \"@openzeppelin/contracts/token/ERC20/ERC20.sol\":1981:2074  function symbol() public view virtual returns (string memory) {... */\n    tag_123:\n        /* \"@openzeppelin/contracts/token/ERC20/ERC20.sol\":2028:2041  string memory */\n      0x60\n        /* \"@openzeppelin/contracts/token/ERC20/ERC20.sol\":2060:2067  _symbol */\n      0x04\n        /* \"@openzeppelin/contracts/token/ERC20/ERC20.sol\":2053:2067  return _symbol */\n      dup1\n      sload\n      tag_229\n      swap1\n      tag_160\n      jump\t// in\n    tag_229:\n      dup1\n      0x1f\n      add\n      0x20\n      dup1\n      swap2\n      div\n      mul\n      0x20\n      add\n      mload(0x40)\n      swap1\n      dup2\n      add\n      0x40\n      mstore\n      dup1\n      swap3\n      swap2\n      swap1\n      dup2\n      dup2\n      mstore\n      0x20\n      add\n      dup3\n      dup1\n      sload\n      tag_230\n      swap1\n      tag_160\n      jump\t// in\n    tag_230:\n      dup1\n      iszero\n      tag_231\n      jumpi\n      dup1\n      0x1f\n      lt\n      tag_232\n      jumpi\n      0x0100\n      dup1\n      dup4\n      sload\n      div\n      mul\n      dup4\n      mstore\n      swap2\n      0x20\n      add\n      swap2\n      jump(tag_231)\n    tag_232:\n      dup3\n      add\n      swap2\n      swap1\n      0x00\n      mstore\n      keccak256(0x00, 0x20)\n      swap1\n    tag_233:\n      dup2\n      sload\n      dup2\n      mstore\n      swap1\n      0x01\n      add\n      swap1\n      0x20\n      add\n      dup1\n      dup4\n      gt\n      tag_233\n      jumpi\n      dup3\n      swap1\n      sub\n      0x1f\n      and\n      dup3\n      add\n      swap2\n    tag_231:\n      pop\n      pop\n      pop\n      pop\n      pop\n      swap1\n      pop\n        /* \"@openzeppelin/contracts/token/ERC20/ERC20.sol\":1981:2074  function symbol() public view virtual returns (string memory) {... */\n      swap1\n      jump\t// out\n        /* \"contracts/XORA.sol\":926:959  uint256 public releasedTeamAmount */\n    tag_126:\n      sload(0x10)\n      dup2\n      jump\t// out\n        /* \"@openzeppelin/contracts/token/ERC20/ERC20.sol\":3315:3493  function transfer(address to, uint256 value) public virtual returns (bool) {... */\n    tag_130:\n        /* \"@openzeppelin/contracts/token/ERC20/ERC20.sol\":3384:3388  bool */\n      0x00\n        /* \"@openzeppelin/contracts/token/ERC20/ERC20.sol\":3400:3413  address owner */\n      dup1\n        /* \"@openzeppelin/contracts/token/ERC20/ERC20.sol\":3416:3428  _msgSender() */\n      tag_235\n        /* \"@openzeppelin/contracts/token/ERC20/ERC20.sol\":3416:3426  _msgSender */\n      tag_167\n        /* \"@openzeppelin/contracts/token/ERC20/ERC20.sol\":3416:3428  _msgSender() */\n      jump\t// in\n    tag_235:\n        /* \"@openzeppelin/contracts/token/ERC20/ERC20.sol\":3400:3428  address owner = _msgSender() */\n      swap1\n      pop\n        /* \"@openzeppelin/contracts/token/ERC20/ERC20.sol\":3438:3465  _transfer(owner, to, value) */\n      tag_236\n        /* \"@openzeppelin/contracts/token/ERC20/ERC20.sol\":3448:3453  owner */\n      dup2\n        /* \"@openzeppelin/contracts/token/ERC20/ERC20.sol\":3455:3457  to */\n      dup6\n        /* \"@openzeppelin/contracts/token/ERC20/ERC20.sol\":3459:3464  value */\n      dup6\n        /* \"@openzeppelin/contracts/token/ERC20/ERC20.sol\":3438:3447  _transfer */\n      tag_207\n        /* \"@openzeppelin/contracts/token/ERC20/ERC20.sol\":3438:3465  _transfer(owner, to, value) */\n      jump\t// in\n    tag_236:\n        /* \"@openzeppelin/contracts/token/ERC20/ERC20.sol\":3482:3486  true */\n      0x01\n        /* \"@openzeppelin/contracts/token/ERC20/ERC20.sol\":3475:3486  return true */\n      swap2\n      pop\n      pop\n        /* \"@openzeppelin/contracts/token/ERC20/ERC20.sol\":3315:3493  function transfer(address to, uint256 value) public virtual returns (bool) {... */\n      swap3\n      swap2\n      pop\n      pop\n      jump\t// out\n        /* \"contracts/XORA.sol\":1875:1966  address public constant ICO_ALLOCATION =... */\n    tag_133:\n        /* \"contracts/XORA.sol\":1924:1966  0x0A098Eda01Ce92ff4A4CCb7A4fFFb5A43EBC70DC */\n      0x0a098eda01ce92ff4a4ccb7a4fffb5a43ebc70dc\n        /* \"contracts/XORA.sol\":1875:1966  address public constant ICO_ALLOCATION =... */\n      dup2\n      jump\t// out\n        /* \"contracts/XORA.sol\":1662:1769  address public constant COMMUNITY_GROWTH_AND_MARKETING =... */\n    tag_136:\n        /* \"contracts/XORA.sol\":1727:1769  0x14723A09ACff6D2A60DcdF7aA4AFf308FDDC160C */\n      0x14723a09acff6d2a60dcdf7aa4aff308fddc160c\n        /* \"contracts/XORA.sol\":1662:1769  address public constant COMMUNITY_GROWTH_AND_MARKETING =... */\n      dup2\n      jump\t// out\n        /* \"contracts/XORA.sol\":419:445  uint256 public sellTax = 1 */\n    tag_139:\n      sload(0x09)\n      dup2\n      jump\t// out\n        /* \"contracts/XORA.sol\":3335:3919  function releaseMarketingTokens() external onlyOwner nonReentrant{... */\n    tag_142:\n        /* \"@openzeppelin/contracts/access/Ownable.sol\":1531:1544  _checkOwner() */\n      tag_238\n        /* \"@openzeppelin/contracts/access/Ownable.sol\":1531:1542  _checkOwner */\n      tag_172\n        /* \"@openzeppelin/contracts/access/Ownable.sol\":1531:1544  _checkOwner() */\n      jump\t// in\n    tag_238:\n        /* \"@openzeppelin/contracts/security/ReentrancyGuard.sol\":2261:2282  _nonReentrantBefore() */\n      tag_240\n        /* \"@openzeppelin/contracts/security/ReentrancyGuard.sol\":2261:2280  _nonReentrantBefore */\n      tag_175\n        /* \"@openzeppelin/contracts/security/ReentrancyGuard.sol\":2261:2282  _nonReentrantBefore() */\n      jump\t// in\n    tag_240:\n        /* \"contracts/XORA.sol\":3410:3429  uint256 elapsedTime */\n      0x00\n        /* \"contracts/XORA.sol\":3450:3473  marketingStartTimestamp */\n      sload(0x0e)\n        /* \"contracts/XORA.sol\":3432:3447  block.timestamp */\n      timestamp\n        /* \"contracts/XORA.sol\":3432:3473  block.timestamp - marketingStartTimestamp */\n      tag_242\n      swap2\n      swap1\n      tag_184\n      jump\t// in\n    tag_242:\n        /* \"contracts/XORA.sol\":3410:3473  uint256 elapsedTime = block.timestamp - marketingStartTimestamp */\n      swap1\n      pop\n        /* \"contracts/XORA.sol\":3483:3503  uint256 vestedAmount */\n      0x00\n        /* \"contracts/XORA.sol\":3541:3565  MARKETING_VESTING_PERIOD */\n      sload(0x11)\n        /* \"contracts/XORA.sol\":3528:3539  elapsedTime */\n      dup3\n        /* \"contracts/XORA.sol\":3507:3525  marketingAllocated */\n      sload(0x12)\n        /* \"contracts/XORA.sol\":3507:3539  marketingAllocated * elapsedTime */\n      tag_243\n      swap2\n      swap1\n      tag_186\n      jump\t// in\n    tag_243:\n        /* \"contracts/XORA.sol\":3506:3565  (marketingAllocated * elapsedTime)/MARKETING_VESTING_PERIOD */\n      tag_244\n      swap2\n      swap1\n      tag_188\n      jump\t// in\n    tag_244:\n        /* \"contracts/XORA.sol\":3483:3565  uint256 vestedAmount = (marketingAllocated * elapsedTime)/MARKETING_VESTING_PERIOD */\n      swap1\n      pop\n        /* \"contracts/XORA.sol\":3575:3598  uint256 marketingAmount */\n      0x00\n        /* \"contracts/XORA.sol\":3616:3639  releasedMarketingAmount */\n      sload(0x13)\n        /* \"contracts/XORA.sol\":3601:3613  vestedAmount */\n      dup3\n        /* \"contracts/XORA.sol\":3601:3639  vestedAmount - releasedMarketingAmount */\n      tag_245\n      swap2\n      swap1\n      tag_184\n      jump\t// in\n    tag_245:\n        /* \"contracts/XORA.sol\":3575:3639  uint256 marketingAmount = vestedAmount - releasedMarketingAmount */\n      swap1\n      pop\n        /* \"contracts/XORA.sol\":3676:3691  marketingAmount */\n      dup1\n        /* \"contracts/XORA.sol\":3649:3672  releasedMarketingAmount */\n      0x13\n      0x00\n        /* \"contracts/XORA.sol\":3649:3691  releasedMarketingAmount += marketingAmount */\n      dup3\n      dup3\n      sload\n      tag_246\n      swap2\n      swap1\n      tag_178\n      jump\t// in\n    tag_246:\n      swap3\n      pop\n      pop\n      dup2\n      swap1\n      sstore\n      pop\n        /* \"contracts/XORA.sol\":3724:3725  0 */\n      0x00\n        /* \"contracts/XORA.sol\":3709:3721  vestedAmount */\n      dup3\n        /* \"contracts/XORA.sol\":3709:3725  vestedAmount > 0 */\n      gt\n        /* \"contracts/XORA.sol\":3701:3759  require(vestedAmount > 0,\"no token available for release\") */\n      tag_247\n      jumpi\n      mload(0x40)\n      0x08c379a000000000000000000000000000000000000000000000000000000000\n      dup2\n      mstore\n      0x04\n      add\n      tag_248\n      swap1\n      tag_249\n      jump\t// in\n    tag_248:\n      mload(0x40)\n      dup1\n      swap2\n      sub\n      swap1\n      revert\n    tag_247:\n        /* \"contracts/XORA.sol\":3804:3822  marketingAllocated */\n      sload(0x12)\n        /* \"contracts/XORA.sol\":3777:3800  releasedMarketingAmount */\n      sload(0x13)\n        /* \"contracts/XORA.sol\":3777:3822  releasedMarketingAmount <= marketingAllocated */\n      gt\n      iszero\n        /* \"contracts/XORA.sol\":3769:3848  require(releasedMarketingAmount <= marketingAllocated,\"max token imit reached\") */\n      tag_250\n      jumpi\n      mload(0x40)\n      0x08c379a000000000000000000000000000000000000000000000000000000000\n      dup2\n      mstore\n      0x04\n      add\n      tag_251\n      swap1\n      tag_252\n      jump\t// in\n    tag_251:\n      mload(0x40)\n      dup1\n      swap2\n      sub\n      swap1\n      revert\n    tag_250:\n        /* \"contracts/XORA.sol\":3858:3911  _mint(COMMUNITY_GROWTH_AND_MARKETING,marketingAmount) */\n      tag_253\n        /* \"contracts/XORA.sol\":1727:1769  0x14723A09ACff6D2A60DcdF7aA4AFf308FDDC160C */\n      0x14723a09acff6d2a60dcdf7aa4aff308fddc160c\n        /* \"contracts/XORA.sol\":3895:3910  marketingAmount */\n      dup3\n        /* \"contracts/XORA.sol\":3858:3863  _mint */\n      tag_198\n        /* \"contracts/XORA.sol\":3858:3911  _mint(COMMUNITY_GROWTH_AND_MARKETING,marketingAmount) */\n      jump\t// in\n    tag_253:\n        /* \"contracts/XORA.sol\":3400:3919  {... */\n      pop\n      pop\n      pop\n        /* \"@openzeppelin/contracts/security/ReentrancyGuard.sol\":2303:2323  _nonReentrantAfter() */\n      tag_254\n        /* \"@openzeppelin/contracts/security/ReentrancyGuard.sol\":2303:2321  _nonReentrantAfter */\n      tag_200\n        /* \"@openzeppelin/contracts/security/ReentrancyGuard.sol\":2303:2323  _nonReentrantAfter() */\n      jump\t// in\n    tag_254:\n        /* \"contracts/XORA.sol\":3335:3919  function releaseMarketingTokens() external onlyOwner nonReentrant{... */\n      jump\t// out\n        /* \"@openzeppelin/contracts/token/ERC20/ERC20.sol\":3551:3691  function allowance(address owner, address spender) public view virtual returns (uint256) {... */\n    tag_146:\n        /* \"@openzeppelin/contracts/token/ERC20/ERC20.sol\":3631:3638  uint256 */\n      0x00\n        /* \"@openzeppelin/contracts/token/ERC20/ERC20.sol\":3657:3668  _allowances */\n      0x01\n        /* \"@openzeppelin/contracts/token/ERC20/ERC20.sol\":3657:3675  _allowances[owner] */\n      0x00\n        /* \"@openzeppelin/contracts/token/ERC20/ERC20.sol\":3669:3674  owner */\n      dup5\n        /* \"@openzeppelin/contracts/token/ERC20/ERC20.sol\":3657:3675  _allowances[owner] */\n      0xffffffffffffffffffffffffffffffffffffffff\n      and\n      0xffffffffffffffffffffffffffffffffffffffff\n      and\n      dup2\n      mstore\n      0x20\n      add\n      swap1\n      dup2\n      mstore\n      0x20\n      add\n      0x00\n      keccak256\n        /* \"@openzeppelin/contracts/token/ERC20/ERC20.sol\":3657:3684  _allowances[owner][spender] */\n      0x00\n        /* \"@openzeppelin/contracts/token/ERC20/ERC20.sol\":3676:3683  spender */\n      dup4\n        /* \"@openzeppelin/contracts/token/ERC20/ERC20.sol\":3657:3684  _allowances[owner][spender] */\n      0xffffffffffffffffffffffffffffffffffffffff\n      and\n      0xffffffffffffffffffffffffffffffffffffffff\n      and\n      dup2\n      mstore\n      0x20\n      add\n      swap1\n      dup2\n      mstore\n      0x20\n      add\n      0x00\n      keccak256\n      sload\n        /* \"@openzeppelin/contracts/token/ERC20/ERC20.sol\":3650:3684  return _allowances[owner][spender] */\n      swap1\n      pop\n        /* \"@openzeppelin/contracts/token/ERC20/ERC20.sol\":3551:3691  function allowance(address owner, address spender) public view virtual returns (uint256) {... */\n      swap3\n      swap2\n      pop\n      pop\n      jump\t// out\n        /* \"contracts/XORA.sol\":1559:1656  address public constant TEAM_AND_DEVELOPMENT =... */\n    tag_149:\n        /* \"contracts/XORA.sol\":1614:1656  0x4B0897b0513fdC7C541B6d9D7E929C4e5364D2dB */\n      0x4b0897b0513fdc7c541b6d9d7e929c4e5364d2db\n        /* \"contracts/XORA.sol\":1559:1656  address public constant TEAM_AND_DEVELOPMENT =... */\n      dup2\n      jump\t// out\n        /* \"contracts/XORA.sol\":357:381  IERC20 public stablecoin */\n    tag_152:\n      0x07\n      0x00\n      swap1\n      sload\n      swap1\n      0x0100\n      exp\n      swap1\n      div\n      0xffffffffffffffffffffffffffffffffffffffff\n      and\n      dup2\n      jump\t// out\n        /* \"@openzeppelin/contracts/access/Ownable.sol\":2543:2758  function transferOwnership(address newOwner) public virtual onlyOwner {... */\n    tag_157:\n        /* \"@openzeppelin/contracts/access/Ownable.sol\":1531:1544  _checkOwner() */\n      tag_257\n        /* \"@openzeppelin/contracts/access/Ownable.sol\":1531:1542  _checkOwner */\n      tag_172\n        /* \"@openzeppelin/contracts/access/Ownable.sol\":1531:1544  _checkOwner() */\n      jump\t// in\n    tag_257:\n        /* \"@openzeppelin/contracts/access/Ownable.sol\":2647:2648  0 */\n      0x00\n        /* \"@openzeppelin/contracts/access/Ownable.sol\":2627:2649  newOwner == address(0) */\n      0xffffffffffffffffffffffffffffffffffffffff\n      and\n        /* \"@openzeppelin/contracts/access/Ownable.sol\":2627:2635  newOwner */\n      dup2\n        /* \"@openzeppelin/contracts/access/Ownable.sol\":2627:2649  newOwner == address(0) */\n      0xffffffffffffffffffffffffffffffffffffffff\n      and\n      sub\n        /* \"@openzeppelin/contracts/access/Ownable.sol\":2623:2714  if (newOwner == address(0)) {... */\n      tag_259\n      jumpi\n        /* \"@openzeppelin/contracts/access/Ownable.sol\":2700:2701  0 */\n      0x00\n        /* \"@openzeppelin/contracts/access/Ownable.sol\":2672:2703  OwnableInvalidOwner(address(0)) */\n      mload(0x40)\n      0x1e4fbdf700000000000000000000000000000000000000000000000000000000\n      dup2\n      mstore\n      0x04\n      add\n      tag_260\n      swap2\n      swap1\n      tag_77\n      jump\t// in\n    tag_260:\n      mload(0x40)\n      dup1\n      swap2\n      sub\n      swap1\n      revert\n        /* \"@openzeppelin/contracts/access/Ownable.sol\":2623:2714  if (newOwner == address(0)) {... */\n    tag_259:\n        /* \"@openzeppelin/contracts/access/Ownable.sol\":2723:2751  _transferOwnership(newOwner) */\n      tag_261\n        /* \"@openzeppelin/contracts/access/Ownable.sol\":2742:2750  newOwner */\n      dup2\n        /* \"@openzeppelin/contracts/access/Ownable.sol\":2723:2741  _transferOwnership */\n      tag_214\n        /* \"@openzeppelin/contracts/access/Ownable.sol\":2723:2751  _transferOwnership(newOwner) */\n      jump\t// in\n    tag_261:\n        /* \"@openzeppelin/contracts/access/Ownable.sol\":2543:2758  function transferOwnership(address newOwner) public virtual onlyOwner {... */\n      pop\n      jump\t// out\n        /* \"@openzeppelin/contracts/utils/Context.sol\":656:752  function _msgSender() internal view virtual returns (address) {... */\n    tag_167:\n        /* \"@openzeppelin/contracts/utils/Context.sol\":709:716  address */\n      0x00\n        /* \"@openzeppelin/contracts/utils/Context.sol\":735:745  msg.sender */\n      caller\n        /* \"@openzeppelin/contracts/utils/Context.sol\":728:745  return msg.sender */\n      swap1\n      pop\n        /* \"@openzeppelin/contracts/utils/Context.sol\":656:752  function _msgSender() internal view virtual returns (address) {... */\n      swap1\n      jump\t// out\n        /* \"@openzeppelin/contracts/token/ERC20/ERC20.sol\":8734:8862  function _approve(address owner, address spender, uint256 value) internal {... */\n    tag_169:\n        /* \"@openzeppelin/contracts/token/ERC20/ERC20.sol\":8818:8855  _approve(owner, spender, value, true) */\n      tag_264\n        /* \"@openzeppelin/contracts/token/ERC20/ERC20.sol\":8827:8832  owner */\n      dup4\n        /* \"@openzeppelin/contracts/token/ERC20/ERC20.sol\":8834:8841  spender */\n      dup4\n        /* \"@openzeppelin/contracts/token/ERC20/ERC20.sol\":8843:8848  value */\n      dup4\n        /* \"@openzeppelin/contracts/token/ERC20/ERC20.sol\":8850:8854  true */\n      0x01\n        /* \"@openzeppelin/contracts/token/ERC20/ERC20.sol\":8818:8826  _approve */\n      tag_265\n        /* \"@openzeppelin/contracts/token/ERC20/ERC20.sol\":8818:8855  _approve(owner, spender, value, true) */\n      jump\t// in\n    tag_264:\n        /* \"@openzeppelin/contracts/token/ERC20/ERC20.sol\":8734:8862  function _approve(address owner, address spender, uint256 value) internal {... */\n      pop\n      pop\n      pop\n      jump\t// out\n        /* \"@openzeppelin/contracts/access/Ownable.sol\":1796:1958  function _checkOwner() internal view virtual {... */\n    tag_172:\n        /* \"@openzeppelin/contracts/access/Ownable.sol\":1866:1878  _msgSender() */\n      tag_267\n        /* \"@openzeppelin/contracts/access/Ownable.sol\":1866:1876  _msgSender */\n      tag_167\n        /* \"@openzeppelin/contracts/access/Ownable.sol\":1866:1878  _msgSender() */\n      jump\t// in\n    tag_267:\n        /* \"@openzeppelin/contracts/access/Ownable.sol\":1855:1878  owner() != _msgSender() */\n      0xffffffffffffffffffffffffffffffffffffffff\n      and\n        /* \"@openzeppelin/contracts/access/Ownable.sol\":1855:1862  owner() */\n      tag_268\n        /* \"@openzeppelin/contracts/access/Ownable.sol\":1855:1860  owner */\n      tag_116\n        /* \"@openzeppelin/contracts/access/Ownable.sol\":1855:1862  owner() */\n      jump\t// in\n    tag_268:\n        /* \"@openzeppelin/contracts/access/Ownable.sol\":1855:1878  owner() != _msgSender() */\n      0xffffffffffffffffffffffffffffffffffffffff\n      and\n      eq\n        /* \"@openzeppelin/contracts/access/Ownable.sol\":1851:1952  if (owner() != _msgSender()) {... */\n      tag_269\n      jumpi\n        /* \"@openzeppelin/contracts/access/Ownable.sol\":1928:1940  _msgSender() */\n      tag_270\n        /* \"@openzeppelin/contracts/access/Ownable.sol\":1928:1938  _msgSender */\n      tag_167\n        /* \"@openzeppelin/contracts/access/Ownable.sol\":1928:1940  _msgSender() */\n      jump\t// in\n    tag_270:\n        /* \"@openzeppelin/contracts/access/Ownable.sol\":1901:1941  OwnableUnauthorizedAccount(_msgSender()) */\n      mload(0x40)\n      0x118cdaa700000000000000000000000000000000000000000000000000000000\n      dup2\n      mstore\n      0x04\n      add\n      tag_271\n      swap2\n      swap1\n      tag_77\n      jump\t// in\n    tag_271:\n      mload(0x40)\n      dup1\n      swap2\n      sub\n      swap1\n      revert\n        /* \"@openzeppelin/contracts/access/Ownable.sol\":1851:1952  if (owner() != _msgSender()) {... */\n    tag_269:\n        /* \"@openzeppelin/contracts/access/Ownable.sol\":1796:1958  function _checkOwner() internal view virtual {... */\n      jump\t// out\n        /* \"@openzeppelin/contracts/security/ReentrancyGuard.sol\":2336:2623  function _nonReentrantBefore() private {... */\n    tag_175:\n        /* \"@openzeppelin/contracts/security/ReentrancyGuard.sol\":1759:1760  2 */\n      0x02\n        /* \"@openzeppelin/contracts/security/ReentrancyGuard.sol\":2468:2475  _status */\n      sload(0x06)\n        /* \"@openzeppelin/contracts/security/ReentrancyGuard.sol\":2468:2487  _status != _ENTERED */\n      sub\n        /* \"@openzeppelin/contracts/security/ReentrancyGuard.sol\":2460:2523  require(_status != _ENTERED, \"ReentrancyGuard: reentrant call\") */\n      tag_273\n      jumpi\n      mload(0x40)\n      0x08c379a000000000000000000000000000000000000000000000000000000000\n      dup2\n      mstore\n      0x04\n      add\n      tag_274\n      swap1\n      tag_275\n      jump\t// in\n    tag_274:\n      mload(0x40)\n      dup1\n      swap2\n      sub\n      swap1\n      revert\n    tag_273:\n        /* \"@openzeppelin/contracts/security/ReentrancyGuard.sol\":1759:1760  2 */\n      0x02\n        /* \"@openzeppelin/contracts/security/ReentrancyGuard.sol\":2598:2605  _status */\n      0x06\n        /* \"@openzeppelin/contracts/security/ReentrancyGuard.sol\":2598:2616  _status = _ENTERED */\n      dup2\n      swap1\n      sstore\n      pop\n        /* \"@openzeppelin/contracts/security/ReentrancyGuard.sol\":2336:2623  function _nonReentrantBefore() private {... */\n      jump\t// out\n        /* \"@openzeppelin/contracts/token/ERC20/ERC20.sol\":7466:7674  function _mint(address account, uint256 value) internal {... */\n    tag_198:\n        /* \"@openzeppelin/contracts/token/ERC20/ERC20.sol\":7555:7556  0 */\n      0x00\n        /* \"@openzeppelin/contracts/token/ERC20/ERC20.sol\":7536:7557  account == address(0) */\n      0xffffffffffffffffffffffffffffffffffffffff\n      and\n        /* \"@openzeppelin/contracts/token/ERC20/ERC20.sol\":7536:7543  account */\n      dup3\n        /* \"@openzeppelin/contracts/token/ERC20/ERC20.sol\":7536:7557  account == address(0) */\n      0xffffffffffffffffffffffffffffffffffffffff\n      and\n      sub\n        /* \"@openzeppelin/contracts/token/ERC20/ERC20.sol\":7532:7623  if (account == address(0)) {... */\n      tag_277\n      jumpi\n        /* \"@openzeppelin/contracts/token/ERC20/ERC20.sol\":7609:7610  0 */\n      0x00\n        /* \"@openzeppelin/contracts/token/ERC20/ERC20.sol\":7580:7612  ERC20InvalidReceiver(address(0)) */\n      mload(0x40)\n      0xec442f0500000000000000000000000000000000000000000000000000000000\n      dup2\n      mstore\n      0x04\n      add\n      tag_278\n      swap2\n      swap1\n      tag_77\n      jump\t// in\n    tag_278:\n      mload(0x40)\n      dup1\n      swap2\n      sub\n      swap1\n      revert\n        /* \"@openzeppelin/contracts/token/ERC20/ERC20.sol\":7532:7623  if (account == address(0)) {... */\n    tag_277:\n        /* \"@openzeppelin/contracts/token/ERC20/ERC20.sol\":7632:7667  _update(address(0), account, value) */\n      tag_279\n        /* \"@openzeppelin/contracts/token/ERC20/ERC20.sol\":7648:7649  0 */\n      0x00\n        /* \"@openzeppelin/contracts/token/ERC20/ERC20.sol\":7652:7659  account */\n      dup4\n        /* \"@openzeppelin/contracts/token/ERC20/ERC20.sol\":7661:7666  value */\n      dup4\n        /* \"@openzeppelin/contracts/token/ERC20/ERC20.sol\":7632:7639  _update */\n      tag_280\n        /* \"@openzeppelin/contracts/token/ERC20/ERC20.sol\":7632:7667  _update(address(0), account, value) */\n      jump\t// in\n    tag_279:\n        /* \"@openzeppelin/contracts/token/ERC20/ERC20.sol\":7466:7674  function _mint(address account, uint256 value) internal {... */\n      pop\n      pop\n      jump\t// out\n        /* \"@openzeppelin/contracts/security/ReentrancyGuard.sol\":2629:2838  function _nonReentrantAfter() private {... */\n    tag_200:\n        /* \"@openzeppelin/contracts/security/ReentrancyGuard.sol\":1716:1717  1 */\n      0x01\n        /* \"@openzeppelin/contracts/security/ReentrancyGuard.sol\":2809:2816  _status */\n      0x06\n        /* \"@openzeppelin/contracts/security/ReentrancyGuard.sol\":2809:2831  _status = _NOT_ENTERED */\n      dup2\n      swap1\n      sstore\n      pop\n        /* \"@openzeppelin/contracts/security/ReentrancyGuard.sol\":2629:2838  function _nonReentrantAfter() private {... */\n      jump\t// out\n        /* \"@openzeppelin/contracts/token/ERC20/ERC20.sol\":10423:10900  function _spendAllowance(address owner, address spender, uint256 value) internal virtual {... */\n    tag_205:\n        /* \"@openzeppelin/contracts/token/ERC20/ERC20.sol\":10522:10546  uint256 currentAllowance */\n      0x00\n        /* \"@openzeppelin/contracts/token/ERC20/ERC20.sol\":10549:10574  allowance(owner, spender) */\n      tag_283\n        /* \"@openzeppelin/contracts/token/ERC20/ERC20.sol\":10559:10564  owner */\n      dup5\n        /* \"@openzeppelin/contracts/token/ERC20/ERC20.sol\":10566:10573  spender */\n      dup5\n        /* \"@openzeppelin/contracts/token/ERC20/ERC20.sol\":10549:10558  allowance */\n      tag_146\n        /* \"@openzeppelin/contracts/token/ERC20/ERC20.sol\":10549:10574  allowance(owner, spender) */\n      jump\t// in\n    tag_283:\n        /* \"@openzeppelin/contracts/token/ERC20/ERC20.sol\":10522:10574  uint256 currentAllowance = allowance(owner, spender) */\n      swap1\n      pop\n        /* \"@openzeppelin/contracts/token/ERC20/ERC20.sol\":10608:10625  type(uint256).max */\n      0xffffffffffffffffffffffffffffffffffffffffffffffffffffffffffffffff\n        /* \"@openzeppelin/contracts/token/ERC20/ERC20.sol\":10588:10604  currentAllowance */\n      dup2\n        /* \"@openzeppelin/contracts/token/ERC20/ERC20.sol\":10588:10625  currentAllowance != type(uint256).max */\n      eq\n        /* \"@openzeppelin/contracts/token/ERC20/ERC20.sol\":10584:10894  if (currentAllowance != type(uint256).max) {... */\n      tag_284\n      jumpi\n        /* \"@openzeppelin/contracts/token/ERC20/ERC20.sol\":10664:10669  value */\n      dup2\n        /* \"@openzeppelin/contracts/token/ERC20/ERC20.sol\":10645:10661  currentAllowance */\n      dup2\n        /* \"@openzeppelin/contracts/token/ERC20/ERC20.sol\":10645:10669  currentAllowance < value */\n      lt\n        /* \"@openzeppelin/contracts/token/ERC20/ERC20.sol\":10641:10771  if (currentAllowance < value) {... */\n      iszero\n      tag_285\n      jumpi\n        /* \"@openzeppelin/contracts/token/ERC20/ERC20.sol\":10723:10730  spender */\n      dup3\n        /* \"@openzeppelin/contracts/token/ERC20/ERC20.sol\":10732:10748  currentAllowance */\n      dup2\n        /* \"@openzeppelin/contracts/token/ERC20/ERC20.sol\":10750:10755  value */\n      dup4\n        /* \"@openzeppelin/contracts/token/ERC20/ERC20.sol\":10696:10756  ERC20InsufficientAllowance(spender, currentAllowance, value) */\n      mload(0x40)\n      0xfb8f41b200000000000000000000000000000000000000000000000000000000\n      dup2\n      mstore\n      0x04\n      add\n      tag_286\n      swap4\n      swap3\n      swap2\n      swap1\n      tag_287\n      jump\t// in\n    tag_286:\n      mload(0x40)\n      dup1\n      swap2\n      sub\n      swap1\n      revert\n        /* \"@openzeppelin/contracts/token/ERC20/ERC20.sol\":10641:10771  if (currentAllowance < value) {... */\n    tag_285:\n        /* \"@openzeppelin/contracts/token/ERC20/ERC20.sol\":10812:10869  _approve(owner, spender, currentAllowance - value, false) */\n      tag_288\n        /* \"@openzeppelin/contracts/token/ERC20/ERC20.sol\":10821:10826  owner */\n      dup5\n        /* \"@openzeppelin/contracts/token/ERC20/ERC20.sol\":10828:10835  spender */\n      dup5\n        /* \"@openzeppelin/contracts/token/ERC20/ERC20.sol\":10856:10861  value */\n      dup5\n        /* \"@openzeppelin/contracts/token/ERC20/ERC20.sol\":10837:10853  currentAllowance */\n      dup5\n        /* \"@openzeppelin/contracts/token/ERC20/ERC20.sol\":10837:10861  currentAllowance - value */\n      sub\n        /* \"@openzeppelin/contracts/token/ERC20/ERC20.sol\":10863:10868  false */\n      0x00\n        /* \"@openzeppelin/contracts/token/ERC20/ERC20.sol\":10812:10820  _approve */\n      tag_265\n        /* \"@openzeppelin/contracts/token/ERC20/ERC20.sol\":10812:10869  _approve(owner, spender, currentAllowance - value, false) */\n      jump\t// in\n    tag_288:\n        /* \"@openzeppelin/contracts/token/ERC20/ERC20.sol\":10584:10894  if (currentAllowance != type(uint256).max) {... */\n    tag_284:\n        /* \"@openzeppelin/contracts/token/ERC20/ERC20.sol\":10512:10900  {... */\n      pop\n        /* \"@openzeppelin/contracts/token/ERC20/ERC20.sol\":10423:10900  function _spendAllowance(address owner, address spender, uint256 value) internal virtual {... */\n      pop\n      pop\n      pop\n      jump\t// out\n        /* \"contracts/XORA.sol\":5135:5507  function _transfer(... */\n    tag_207:\n        /* \"contracts/XORA.sol\":5263:5280  uint256 taxAmount */\n      0x00\n        /* \"contracts/XORA.sol\":5356:5359  100 */\n      0x64\n        /* \"contracts/XORA.sol\":5327:5331  this */\n      address\n        /* \"contracts/XORA.sol\":5306:5332  recipient == address(this) */\n      0xffffffffffffffffffffffffffffffffffffffff\n      and\n        /* \"contracts/XORA.sol\":5306:5315  recipient */\n      dup5\n        /* \"contracts/XORA.sol\":5306:5332  recipient == address(this) */\n      0xffffffffffffffffffffffffffffffffffffffff\n      and\n      eq\n        /* \"contracts/XORA.sol\":5306:5351  recipient == address(this) ? sellTax : buyTax */\n      tag_290\n      jumpi\n        /* \"contracts/XORA.sol\":5345:5351  buyTax */\n      sload(0x08)\n        /* \"contracts/XORA.sol\":5306:5351  recipient == address(this) ? sellTax : buyTax */\n      jump(tag_291)\n    tag_290:\n        /* \"contracts/XORA.sol\":5335:5342  sellTax */\n      sload(0x09)\n        /* \"contracts/XORA.sol\":5306:5351  recipient == address(this) ? sellTax : buyTax */\n    tag_291:\n        /* \"contracts/XORA.sol\":5284:5290  amount */\n      dup4\n        /* \"contracts/XORA.sol\":5284:5352  amount *... */\n      tag_292\n      swap2\n      swap1\n      tag_186\n      jump\t// in\n    tag_292:\n        /* \"contracts/XORA.sol\":5283:5359  (amount *... */\n      tag_293\n      swap2\n      swap1\n      tag_188\n      jump\t// in\n    tag_293:\n        /* \"contracts/XORA.sol\":5263:5359  uint256 taxAmount = (amount *... */\n      swap1\n      pop\n        /* \"contracts/XORA.sol\":5369:5423  super._transfer(sender, recipient, amount - taxAmount) */\n      tag_294\n        /* \"contracts/XORA.sol\":5385:5391  sender */\n      dup5\n        /* \"contracts/XORA.sol\":5393:5402  recipient */\n      dup5\n        /* \"contracts/XORA.sol\":5413:5422  taxAmount */\n      dup4\n        /* \"contracts/XORA.sol\":5404:5410  amount */\n      dup6\n        /* \"contracts/XORA.sol\":5404:5422  amount - taxAmount */\n      tag_295\n      swap2\n      swap1\n      tag_184\n      jump\t// in\n    tag_295:\n        /* \"contracts/XORA.sol\":5369:5384  super._transfer */\n      tag_296\n        /* \"contracts/XORA.sol\":5369:5423  super._transfer(sender, recipient, amount - taxAmount) */\n      jump\t// in\n    tag_294:\n        /* \"contracts/XORA.sol\":5449:5450  0 */\n      0x00\n        /* \"contracts/XORA.sol\":5437:5446  taxAmount */\n      dup2\n        /* \"contracts/XORA.sol\":5437:5450  taxAmount > 0 */\n      gt\n        /* \"contracts/XORA.sol\":5433:5501  if (taxAmount > 0) {... */\n      iszero\n      tag_297\n      jumpi\n        /* \"contracts/XORA.sol\":5466:5490  _burn(sender, taxAmount) */\n      tag_298\n        /* \"contracts/XORA.sol\":5472:5478  sender */\n      dup5\n        /* \"contracts/XORA.sol\":5480:5489  taxAmount */\n      dup3\n        /* \"contracts/XORA.sol\":5466:5471  _burn */\n      tag_299\n        /* \"contracts/XORA.sol\":5466:5490  _burn(sender, taxAmount) */\n      jump\t// in\n    tag_298:\n        /* \"contracts/XORA.sol\":5433:5501  if (taxAmount > 0) {... */\n    tag_297:\n        /* \"contracts/XORA.sol\":5253:5507  {... */\n      pop\n        /* \"contracts/XORA.sol\":5135:5507  function _transfer(... */\n      pop\n      pop\n      pop\n      jump\t// out\n        /* \"@openzeppelin/contracts/access/Ownable.sol\":2912:3099  function _transferOwnership(address newOwner) internal virtual {... */\n    tag_214:\n        /* \"@openzeppelin/contracts/access/Ownable.sol\":2985:3001  address oldOwner */\n      0x00\n        /* \"@openzeppelin/contracts/access/Ownable.sol\":3004:3010  _owner */\n      0x05\n      0x00\n      swap1\n      sload\n      swap1\n      0x0100\n      exp\n      swap1\n      div\n      0xffffffffffffffffffffffffffffffffffffffff\n      and\n        /* \"@openzeppelin/contracts/access/Ownable.sol\":2985:3010  address oldOwner = _owner */\n      swap1\n      pop\n        /* \"@openzeppelin/contracts/access/Ownable.sol\":3029:3037  newOwner */\n      dup2\n        /* \"@openzeppelin/contracts/access/Ownable.sol\":3020:3026  _owner */\n      0x05\n      0x00\n        /* \"@openzeppelin/contracts/access/Ownable.sol\":3020:3037  _owner = newOwner */\n      0x0100\n      exp\n      dup2\n      sload\n      dup2\n      0xffffffffffffffffffffffffffffffffffffffff\n      mul\n      not\n      and\n      swap1\n      dup4\n      0xffffffffffffffffffffffffffffffffffffffff\n      and\n      mul\n      or\n      swap1\n      sstore\n      pop\n        /* \"@openzeppelin/contracts/access/Ownable.sol\":3083:3091  newOwner */\n      dup2\n        /* \"@openzeppelin/contracts/access/Ownable.sol\":3052:3092  OwnershipTransferred(oldOwner, newOwner) */\n      0xffffffffffffffffffffffffffffffffffffffff\n      and\n        /* \"@openzeppelin/contracts/access/Ownable.sol\":3073:3081  oldOwner */\n      dup2\n        /* \"@openzeppelin/contracts/access/Ownable.sol\":3052:3092  OwnershipTransferred(oldOwner, newOwner) */\n      0xffffffffffffffffffffffffffffffffffffffff\n      and\n      0x8be0079c531659141344cd1fd0a4f28419497f9722a3daafe3b4186f6b6457e0\n      mload(0x40)\n      mload(0x40)\n      dup1\n      swap2\n      sub\n      swap1\n      log3\n        /* \"@openzeppelin/contracts/access/Ownable.sol\":2975:3099  {... */\n      pop\n        /* \"@openzeppelin/contracts/access/Ownable.sol\":2912:3099  function _transferOwnership(address newOwner) internal virtual {... */\n      pop\n      jump\t// out\n        /* \"@openzeppelin/contracts/token/ERC20/ERC20.sol\":9709:10141  function _approve(address owner, address spender, uint256 value, bool emitEvent) internal virtual {... */\n    tag_265:\n        /* \"@openzeppelin/contracts/token/ERC20/ERC20.sol\":9838:9839  0 */\n      0x00\n        /* \"@openzeppelin/contracts/token/ERC20/ERC20.sol\":9821:9840  owner == address(0) */\n      0xffffffffffffffffffffffffffffffffffffffff\n      and\n        /* \"@openzeppelin/contracts/token/ERC20/ERC20.sol\":9821:9826  owner */\n      dup5\n        /* \"@openzeppelin/contracts/token/ERC20/ERC20.sol\":9821:9840  owner == address(0) */\n      0xffffffffffffffffffffffffffffffffffffffff\n      and\n      sub\n        /* \"@openzeppelin/contracts/token/ERC20/ERC20.sol\":9817:9906  if (owner == address(0)) {... */\n      tag_302\n      jumpi\n        /* \"@openzeppelin/contracts/token/ERC20/ERC20.sol\":9892:9893  0 */\n      0x00\n        /* \"@openzeppelin/contracts/token/ERC20/ERC20.sol\":9863:9895  ERC20InvalidApprover(address(0)) */\n      mload(0x40)\n      0xe602df0500000000000000000000000000000000000000000000000000000000\n      dup2\n      mstore\n      0x04\n      add\n      tag_303\n      swap2\n      swap1\n      tag_77\n      jump\t// in\n    tag_303:\n      mload(0x40)\n      dup1\n      swap2\n      sub\n      swap1\n      revert\n        /* \"@openzeppelin/contracts/token/ERC20/ERC20.sol\":9817:9906  if (owner == address(0)) {... */\n    tag_302:\n        /* \"@openzeppelin/contracts/token/ERC20/ERC20.sol\":9938:9939  0 */\n      0x00\n        /* \"@openzeppelin/contracts/token/ERC20/ERC20.sol\":9919:9940  spender == address(0) */\n      0xffffffffffffffffffffffffffffffffffffffff\n      and\n        /* \"@openzeppelin/contracts/token/ERC20/ERC20.sol\":9919:9926  spender */\n      dup4\n        /* \"@openzeppelin/contracts/token/ERC20/ERC20.sol\":9919:9940  spender == address(0) */\n      0xffffffffffffffffffffffffffffffffffffffff\n      and\n      sub\n        /* \"@openzeppelin/contracts/token/ERC20/ERC20.sol\":9915:10005  if (spender == address(0)) {... */\n      tag_304\n      jumpi\n        /* \"@openzeppelin/contracts/token/ERC20/ERC20.sol\":9991:9992  0 */\n      0x00\n        /* \"@openzeppelin/contracts/token/ERC20/ERC20.sol\":9963:9994  ERC20InvalidSpender(address(0)) */\n      mload(0x40)\n      0x94280d6200000000000000000000000000000000000000000000000000000000\n      dup2\n      mstore\n      0x04\n      add\n      tag_305\n      swap2\n      swap1\n      tag_77\n      jump\t// in\n    tag_305:\n      mload(0x40)\n      dup1\n      swap2\n      sub\n      swap1\n      revert\n        /* \"@openzeppelin/contracts/token/ERC20/ERC20.sol\":9915:10005  if (spender == address(0)) {... */\n    tag_304:\n        /* \"@openzeppelin/contracts/token/ERC20/ERC20.sol\":10044:10049  value */\n      dup2\n        /* \"@openzeppelin/contracts/token/ERC20/ERC20.sol\":10014:10025  _allowances */\n      0x01\n        /* \"@openzeppelin/contracts/token/ERC20/ERC20.sol\":10014:10032  _allowances[owner] */\n      0x00\n        /* \"@openzeppelin/contracts/token/ERC20/ERC20.sol\":10026:10031  owner */\n      dup7\n        /* \"@openzeppelin/contracts/token/ERC20/ERC20.sol\":10014:10032  _allowances[owner] */\n      0xffffffffffffffffffffffffffffffffffffffff\n      and\n      0xffffffffffffffffffffffffffffffffffffffff\n      and\n      dup2\n      mstore\n      0x20\n      add\n      swap1\n      dup2\n      mstore\n      0x20\n      add\n      0x00\n      keccak256\n        /* \"@openzeppelin/contracts/token/ERC20/ERC20.sol\":10014:10041  _allowances[owner][spender] */\n      0x00\n        /* \"@openzeppelin/contracts/token/ERC20/ERC20.sol\":10033:10040  spender */\n      dup6\n        /* \"@openzeppelin/contracts/token/ERC20/ERC20.sol\":10014:10041  _allowances[owner][spender] */\n      0xffffffffffffffffffffffffffffffffffffffff\n      and\n      0xffffffffffffffffffffffffffffffffffffffff\n      and\n      dup2\n      mstore\n      0x20\n      add\n      swap1\n      dup2\n      mstore\n      0x20\n      add\n      0x00\n      keccak256\n        /* \"@openzeppelin/contracts/token/ERC20/ERC20.sol\":10014:10049  _allowances[owner][spender] = value */\n      dup2\n      swap1\n      sstore\n      pop\n        /* \"@openzeppelin/contracts/token/ERC20/ERC20.sol\":10063:10072  emitEvent */\n      dup1\n        /* \"@openzeppelin/contracts/token/ERC20/ERC20.sol\":10059:10135  if (emitEvent) {... */\n      iszero\n      tag_306\n      jumpi\n        /* \"@openzeppelin/contracts/token/ERC20/ERC20.sol\":10109:10116  spender */\n      dup3\n        /* \"@openzeppelin/contracts/token/ERC20/ERC20.sol\":10093:10124  Approval(owner, spender, value) */\n      0xffffffffffffffffffffffffffffffffffffffff\n      and\n        /* \"@openzeppelin/contracts/token/ERC20/ERC20.sol\":10102:10107  owner */\n      dup5\n        /* \"@openzeppelin/contracts/token/ERC20/ERC20.sol\":10093:10124  Approval(owner, spender, value) */\n      0xffffffffffffffffffffffffffffffffffffffff\n      and\n      0x8c5be1e5ebec7d5bd14f71427d1e84f3dd0314c0f7b2291e5b200ac8c7c3b925\n        /* \"@openzeppelin/contracts/token/ERC20/ERC20.sol\":10118:10123  value */\n      dup5\n        /* \"@openzeppelin/contracts/token/ERC20/ERC20.sol\":10093:10124  Approval(owner, spender, value) */\n      mload(0x40)\n      tag_307\n      swap2\n      swap1\n      tag_51\n      jump\t// in\n    tag_307:\n      mload(0x40)\n      dup1\n      swap2\n      sub\n      swap1\n      log3\n        /* \"@openzeppelin/contracts/token/ERC20/ERC20.sol\":10059:10135  if (emitEvent) {... */\n    tag_306:\n        /* \"@openzeppelin/contracts/token/ERC20/ERC20.sol\":9709:10141  function _approve(address owner, address spender, uint256 value, bool emitEvent) internal virtual {... */\n      pop\n      pop\n      pop\n      pop\n      jump\t// out\n        /* \"@openzeppelin/contracts/token/ERC20/ERC20.sol\":6016:7123  function _update(address from, address to, uint256 value) internal virtual {... */\n    tag_280:\n        /* \"@openzeppelin/contracts/token/ERC20/ERC20.sol\":6121:6122  0 */\n      0x00\n        /* \"@openzeppelin/contracts/token/ERC20/ERC20.sol\":6105:6123  from == address(0) */\n      0xffffffffffffffffffffffffffffffffffffffff\n      and\n        /* \"@openzeppelin/contracts/token/ERC20/ERC20.sol\":6105:6109  from */\n      dup4\n        /* \"@openzeppelin/contracts/token/ERC20/ERC20.sol\":6105:6123  from == address(0) */\n      0xffffffffffffffffffffffffffffffffffffffff\n      and\n      sub\n        /* \"@openzeppelin/contracts/token/ERC20/ERC20.sol\":6101:6641  if (from == address(0)) {... */\n      tag_309\n      jumpi\n        /* \"@openzeppelin/contracts/token/ERC20/ERC20.sol\":6257:6262  value */\n      dup1\n        /* \"@openzeppelin/contracts/token/ERC20/ERC20.sol\":6241:6253  _totalSupply */\n      0x02\n      0x00\n        /* \"@openzeppelin/contracts/token/ERC20/ERC20.sol\":6241:6262  _totalSupply += value */\n      dup3\n      dup3\n      sload\n      tag_310\n      swap2\n      swap1\n      tag_178\n      jump\t// in\n    tag_310:\n      swap3\n      pop\n      pop\n      dup2\n      swap1\n      sstore\n      pop\n        /* \"@openzeppelin/contracts/token/ERC20/ERC20.sol\":6101:6641  if (from == address(0)) {... */\n      jump(tag_311)\n    tag_309:\n        /* \"@openzeppelin/contracts/token/ERC20/ERC20.sol\":6293:6312  uint256 fromBalance */\n      0x00\n        /* \"@openzeppelin/contracts/token/ERC20/ERC20.sol\":6315:6324  _balances */\n      dup1\n        /* \"@openzeppelin/contracts/token/ERC20/ERC20.sol\":6315:6330  _balances[from] */\n      0x00\n        /* \"@openzeppelin/contracts/token/ERC20/ERC20.sol\":6325:6329  from */\n      dup6\n        /* \"@openzeppelin/contracts/token/ERC20/ERC20.sol\":6315:6330  _balances[from] */\n      0xffffffffffffffffffffffffffffffffffffffff\n      and\n      0xffffffffffffffffffffffffffffffffffffffff\n      and\n      dup2\n      mstore\n      0x20\n      add\n      swap1\n      dup2\n      mstore\n      0x20\n      add\n      0x00\n      keccak256\n      sload\n        /* \"@openzeppelin/contracts/token/ERC20/ERC20.sol\":6293:6330  uint256 fromBalance = _balances[from] */\n      swap1\n      pop\n        /* \"@openzeppelin/contracts/token/ERC20/ERC20.sol\":6362:6367  value */\n      dup2\n        /* \"@openzeppelin/contracts/token/ERC20/ERC20.sol\":6348:6359  fromBalance */\n      dup2\n        /* \"@openzeppelin/contracts/token/ERC20/ERC20.sol\":6348:6367  fromBalance < value */\n      lt\n        /* \"@openzeppelin/contracts/token/ERC20/ERC20.sol\":6344:6459  if (fromBalance < value) {... */\n      iszero\n      tag_312\n      jumpi\n        /* \"@openzeppelin/contracts/token/ERC20/ERC20.sol\":6419:6423  from */\n      dup4\n        /* \"@openzeppelin/contracts/token/ERC20/ERC20.sol\":6425:6436  fromBalance */\n      dup2\n        /* \"@openzeppelin/contracts/token/ERC20/ERC20.sol\":6438:6443  value */\n      dup4\n        /* \"@openzeppelin/contracts/token/ERC20/ERC20.sol\":6394:6444  ERC20InsufficientBalance(from, fromBalance, value) */\n      mload(0x40)\n      0xe450d38c00000000000000000000000000000000000000000000000000000000\n      dup2\n      mstore\n      0x04\n      add\n      tag_313\n      swap4\n      swap3\n      swap2\n      swap1\n      tag_287\n      jump\t// in\n    tag_313:\n      mload(0x40)\n      dup1\n      swap2\n      sub\n      swap1\n      revert\n        /* \"@openzeppelin/contracts/token/ERC20/ERC20.sol\":6344:6459  if (fromBalance < value) {... */\n    tag_312:\n        /* \"@openzeppelin/contracts/token/ERC20/ERC20.sol\":6611:6616  value */\n      dup2\n        /* \"@openzeppelin/contracts/token/ERC20/ERC20.sol\":6597:6608  fromBalance */\n      dup2\n        /* \"@openzeppelin/contracts/token/ERC20/ERC20.sol\":6597:6616  fromBalance - value */\n      sub\n        /* \"@openzeppelin/contracts/token/ERC20/ERC20.sol\":6579:6588  _balances */\n      0x00\n        /* \"@openzeppelin/contracts/token/ERC20/ERC20.sol\":6579:6594  _balances[from] */\n      dup1\n        /* \"@openzeppelin/contracts/token/ERC20/ERC20.sol\":6589:6593  from */\n      dup7\n        /* \"@openzeppelin/contracts/token/ERC20/ERC20.sol\":6579:6594  _balances[from] */\n      0xffffffffffffffffffffffffffffffffffffffff\n      and\n      0xffffffffffffffffffffffffffffffffffffffff\n      and\n      dup2\n      mstore\n      0x20\n      add\n      swap1\n      dup2\n      mstore\n      0x20\n      add\n      0x00\n      keccak256\n        /* \"@openzeppelin/contracts/token/ERC20/ERC20.sol\":6579:6616  _balances[from] = fromBalance - value */\n      dup2\n      swap1\n      sstore\n      pop\n        /* \"@openzeppelin/contracts/token/ERC20/ERC20.sol\":6279:6641  {... */\n      pop\n        /* \"@openzeppelin/contracts/token/ERC20/ERC20.sol\":6101:6641  if (from == address(0)) {... */\n    tag_311:\n        /* \"@openzeppelin/contracts/token/ERC20/ERC20.sol\":6669:6670  0 */\n      0x00\n        /* \"@openzeppelin/contracts/token/ERC20/ERC20.sol\":6655:6671  to == address(0) */\n      0xffffffffffffffffffffffffffffffffffffffff\n      and\n        /* \"@openzeppelin/contracts/token/ERC20/ERC20.sol\":6655:6657  to */\n      dup3\n        /* \"@openzeppelin/contracts/token/ERC20/ERC20.sol\":6655:6671  to == address(0) */\n      0xffffffffffffffffffffffffffffffffffffffff\n      and\n      sub\n        /* \"@openzeppelin/contracts/token/ERC20/ERC20.sol\":6651:7076  if (to == address(0)) {... */\n      tag_314\n      jumpi\n        /* \"@openzeppelin/contracts/token/ERC20/ERC20.sol\":6834:6839  value */\n      dup1\n        /* \"@openzeppelin/contracts/token/ERC20/ERC20.sol\":6818:6830  _totalSupply */\n      0x02\n      0x00\n        /* \"@openzeppelin/contracts/token/ERC20/ERC20.sol\":6818:6839  _totalSupply -= value */\n      dup3\n      dup3\n      sload\n      sub\n      swap3\n      pop\n      pop\n      dup2\n      swap1\n      sstore\n      pop\n        /* \"@openzeppelin/contracts/token/ERC20/ERC20.sol\":6651:7076  if (to == address(0)) {... */\n      jump(tag_315)\n    tag_314:\n        /* \"@openzeppelin/contracts/token/ERC20/ERC20.sol\":7046:7051  value */\n      dup1\n        /* \"@openzeppelin/contracts/token/ERC20/ERC20.sol\":7029:7038  _balances */\n      0x00\n        /* \"@openzeppelin/contracts/token/ERC20/ERC20.sol\":7029:7042  _balances[to] */\n      dup1\n        /* \"@openzeppelin/contracts/token/ERC20/ERC20.sol\":7039:7041  to */\n      dup5\n        /* \"@openzeppelin/contracts/token/ERC20/ERC20.sol\":7029:7042  _balances[to] */\n      0xffffffffffffffffffffffffffffffffffffffff\n      and\n      0xffffffffffffffffffffffffffffffffffffffff\n      and\n      dup2\n      mstore\n      0x20\n      add\n      swap1\n      dup2\n      mstore\n      0x20\n      add\n      0x00\n      keccak256\n      0x00\n        /* \"@openzeppelin/contracts/token/ERC20/ERC20.sol\":7029:7051  _balances[to] += value */\n      dup3\n      dup3\n      sload\n      add\n      swap3\n      pop\n      pop\n      dup2\n      swap1\n      sstore\n      pop\n        /* \"@openzeppelin/contracts/token/ERC20/ERC20.sol\":6651:7076  if (to == address(0)) {... */\n    tag_315:\n        /* \"@openzeppelin/contracts/token/ERC20/ERC20.sol\":7106:7108  to */\n      dup2\n        /* \"@openzeppelin/contracts/token/ERC20/ERC20.sol\":7091:7116  Transfer(from, to, value) */\n      0xffffffffffffffffffffffffffffffffffffffff\n      and\n        /* \"@openzeppelin/contracts/token/ERC20/ERC20.sol\":7100:7104  from */\n      dup4\n        /* \"@openzeppelin/contracts/token/ERC20/ERC20.sol\":7091:7116  Transfer(from, to, value) */\n      0xffffffffffffffffffffffffffffffffffffffff\n      and\n      0xddf252ad1be2c89b69c2b068fc378daa952ba7f163c4a11628f55a4df523b3ef\n        /* \"@openzeppelin/contracts/token/ERC20/ERC20.sol\":7110:7115  value */\n      dup4\n        /* \"@openzeppelin/contracts/token/ERC20/ERC20.sol\":7091:7116  Transfer(from, to, value) */\n      mload(0x40)\n      tag_316\n      swap2\n      swap1\n      tag_51\n      jump\t// in\n    tag_316:\n      mload(0x40)\n      dup1\n      swap2\n      sub\n      swap1\n      log3\n        /* \"@openzeppelin/contracts/token/ERC20/ERC20.sol\":6016:7123  function _update(address from, address to, uint256 value) internal virtual {... */\n      pop\n      pop\n      pop\n      jump\t// out\n        /* \"@openzeppelin/contracts/token/ERC20/ERC20.sol\":5393:5701  function _transfer(address from, address to, uint256 value) internal virtual {... */\n    tag_296:\n        /* \"@openzeppelin/contracts/token/ERC20/ERC20.sol\":5500:5501  0 */\n      0x00\n        /* \"@openzeppelin/contracts/token/ERC20/ERC20.sol\":5484:5502  from == address(0) */\n      0xffffffffffffffffffffffffffffffffffffffff\n      and\n        /* \"@openzeppelin/contracts/token/ERC20/ERC20.sol\":5484:5488  from */\n      dup4\n        /* \"@openzeppelin/contracts/token/ERC20/ERC20.sol\":5484:5502  from == address(0) */\n      0xffffffffffffffffffffffffffffffffffffffff\n      and\n      sub\n        /* \"@openzeppelin/contracts/token/ERC20/ERC20.sol\":5480:5566  if (from == address(0)) {... */\n      tag_318\n      jumpi\n        /* \"@openzeppelin/contracts/token/ERC20/ERC20.sol\":5552:5553  0 */\n      0x00\n        /* \"@openzeppelin/contracts/token/ERC20/ERC20.sol\":5525:5555  ERC20InvalidSender(address(0)) */\n      mload(0x40)\n      0x96c6fd1e00000000000000000000000000000000000000000000000000000000\n      dup2\n      mstore\n      0x04\n      add\n      tag_319\n      swap2\n      swap1\n      tag_77\n      jump\t// in\n    tag_319:\n      mload(0x40)\n      dup1\n      swap2\n      sub\n      swap1\n      revert\n        /* \"@openzeppelin/contracts/token/ERC20/ERC20.sol\":5480:5566  if (from == address(0)) {... */\n    tag_318:\n        /* \"@openzeppelin/contracts/token/ERC20/ERC20.sol\":5593:5594  0 */\n      0x00\n        /* \"@openzeppelin/contracts/token/ERC20/ERC20.sol\":5579:5595  to == address(0) */\n      0xffffffffffffffffffffffffffffffffffffffff\n      and\n        /* \"@openzeppelin/contracts/token/ERC20/ERC20.sol\":5579:5581  to */\n      dup3\n        /* \"@openzeppelin/contracts/token/ERC20/ERC20.sol\":5579:5595  to == address(0) */\n      0xffffffffffffffffffffffffffffffffffffffff\n      and\n      sub\n        /* \"@openzeppelin/contracts/token/ERC20/ERC20.sol\":5575:5661  if (to == address(0)) {... */\n      tag_320\n      jumpi\n        /* \"@openzeppelin/contracts/token/ERC20/ERC20.sol\":5647:5648  0 */\n      0x00\n        /* \"@openzeppelin/contracts/token/ERC20/ERC20.sol\":5618:5650  ERC20InvalidReceiver(address(0)) */\n      mload(0x40)\n      0xec442f0500000000000000000000000000000000000000000000000000000000\n      dup2\n      mstore\n      0x04\n      add\n      tag_321\n      swap2\n      swap1\n      tag_77\n      jump\t// in\n    tag_321:\n      mload(0x40)\n      dup1\n      swap2\n      sub\n      swap1\n      revert\n        /* \"@openzeppelin/contracts/token/ERC20/ERC20.sol\":5575:5661  if (to == address(0)) {... */\n    tag_320:\n        /* \"@openzeppelin/contracts/token/ERC20/ERC20.sol\":5670:5694  _update(from, to, value) */\n      tag_322\n        /* \"@openzeppelin/contracts/token/ERC20/ERC20.sol\":5678:5682  from */\n      dup4\n        /* \"@openzeppelin/contracts/token/ERC20/ERC20.sol\":5684:5686  to */\n      dup4\n        /* \"@openzeppelin/contracts/token/ERC20/ERC20.sol\":5688:5693  value */\n      dup4\n        /* \"@openzeppelin/contracts/token/ERC20/ERC20.sol\":5670:5677  _update */\n      tag_280\n        /* \"@openzeppelin/contracts/token/ERC20/ERC20.sol\":5670:5694  _update(from, to, value) */\n      jump\t// in\n    tag_322:\n        /* \"@openzeppelin/contracts/token/ERC20/ERC20.sol\":5393:5701  function _transfer(address from, address to, uint256 value) internal virtual {... */\n      pop\n      pop\n      pop\n      jump\t// out\n        /* \"@openzeppelin/contracts/token/ERC20/ERC20.sol\":7992:8198  function _burn(address account, uint256 value) internal {... */\n    tag_299:\n        /* \"@openzeppelin/contracts/token/ERC20/ERC20.sol\":8081:8082  0 */\n      0x00\n        /* \"@openzeppelin/contracts/token/ERC20/ERC20.sol\":8062:8083  account == address(0) */\n      0xffffffffffffffffffffffffffffffffffffffff\n      and\n        /* \"@openzeppelin/contracts/token/ERC20/ERC20.sol\":8062:8069  account */\n      dup3\n        /* \"@openzeppelin/contracts/token/ERC20/ERC20.sol\":8062:8083  account == address(0) */\n      0xffffffffffffffffffffffffffffffffffffffff\n      and\n      sub\n        /* \"@openzeppelin/contracts/token/ERC20/ERC20.sol\":8058:8147  if (account == address(0)) {... */\n      tag_324\n      jumpi\n        /* \"@openzeppelin/contracts/token/ERC20/ERC20.sol\":8133:8134  0 */\n      0x00\n        /* \"@openzeppelin/contracts/token/ERC20/ERC20.sol\":8106:8136  ERC20InvalidSender(address(0)) */\n      mload(0x40)\n      0x96c6fd1e00000000000000000000000000000000000000000000000000000000\n      dup2\n      mstore\n      0x04\n      add\n      tag_325\n      swap2\n      swap1\n      tag_77\n      jump\t// in\n    tag_325:\n      mload(0x40)\n      dup1\n      swap2\n      sub\n      swap1\n      revert\n        /* \"@openzeppelin/contracts/token/ERC20/ERC20.sol\":8058:8147  if (account == address(0)) {... */\n    tag_324:\n        /* \"@openzeppelin/contracts/token/ERC20/ERC20.sol\":8156:8191  _update(account, address(0), value) */\n      tag_326\n        /* \"@openzeppelin/contracts/token/ERC20/ERC20.sol\":8164:8171  account */\n      dup3\n        /* \"@openzeppelin/contracts/token/ERC20/ERC20.sol\":8181:8182  0 */\n      0x00\n        /* \"@openzeppelin/contracts/token/ERC20/ERC20.sol\":8185:8190  value */\n      dup4\n        /* \"@openzeppelin/contracts/token/ERC20/ERC20.sol\":8156:8163  _update */\n      tag_280\n        /* \"@openzeppelin/contracts/token/ERC20/ERC20.sol\":8156:8191  _update(account, address(0), value) */\n      jump\t// in\n    tag_326:\n        /* \"@openzeppelin/contracts/token/ERC20/ERC20.sol\":7992:8198  function _burn(address account, uint256 value) internal {... */\n      pop\n      pop\n      jump\t// out\n        /* \"#utility.yul\":7:106   */\n    tag_327:\n        /* \"#utility.yul\":59:65   */\n      0x00\n        /* \"#utility.yul\":93:98   */\n      dup2\n        /* \"#utility.yul\":87:99   */\n      mload\n        /* \"#utility.yul\":77:99   */\n      swap1\n      pop\n        /* \"#utility.yul\":7:106   */\n      swap2\n      swap1\n      pop\n      jump\t// out\n        /* \"#utility.yul\":112:281   */\n    tag_328:\n        /* \"#utility.yul\":196:207   */\n      0x00\n        /* \"#utility.yul\":230:236   */\n      dup3\n        /* \"#utility.yul\":225:228   */\n      dup3\n        /* \"#utility.yul\":218:237   */\n      mstore\n        /* \"#utility.yul\":270:274   */\n      0x20\n        /* \"#utility.yul\":265:268   */\n      dup3\n        /* \"#utility.yul\":261:275   */\n      add\n        /* \"#utility.yul\":246:275   */\n      swap1\n      pop\n        /* \"#utility.yul\":112:281   */\n      swap3\n      swap2\n      pop\n      pop\n      jump\t// out\n        /* \"#utility.yul\":287:426   */\n    tag_329:\n        /* \"#utility.yul\":376:382   */\n      dup3\n        /* \"#utility.yul\":371:374   */\n      dup2\n        /* \"#utility.yul\":366:369   */\n      dup4\n        /* \"#utility.yul\":360:383   */\n      mcopy\n        /* \"#utility.yul\":417:418   */\n      0x00\n        /* \"#utility.yul\":408:414   */\n      dup4\n        /* \"#utility.yul\":403:406   */\n      dup4\n        /* \"#utility.yul\":399:415   */\n      add\n        /* \"#utility.yul\":392:419   */\n      mstore\n        /* \"#utility.yul\":287:426   */\n      pop\n      pop\n      pop\n      jump\t// out\n        /* \"#utility.yul\":432:534   */\n    tag_330:\n        /* \"#utility.yul\":473:479   */\n      0x00\n        /* \"#utility.yul\":524:526   */\n      0x1f\n        /* \"#utility.yul\":520:527   */\n      not\n        /* \"#utility.yul\":515:517   */\n      0x1f\n        /* \"#utility.yul\":508:513   */\n      dup4\n        /* \"#utility.yul\":504:518   */\n      add\n        /* \"#utility.yul\":500:528   */\n      and\n        /* \"#utility.yul\":490:528   */\n      swap1\n      pop\n        /* \"#utility.yul\":432:534   */\n      swap2\n      swap1\n      pop\n      jump\t// out\n        /* \"#utility.yul\":540:917   */\n    tag_331:\n        /* \"#utility.yul\":628:631   */\n      0x00\n        /* \"#utility.yul\":656:695   */\n      tag_376\n        /* \"#utility.yul\":689:694   */\n      dup3\n        /* \"#utility.yul\":656:695   */\n      tag_327\n      jump\t// in\n    tag_376:\n        /* \"#utility.yul\":711:782   */\n      tag_377\n        /* \"#utility.yul\":775:781   */\n      dup2\n        /* \"#utility.yul\":770:773   */\n      dup6\n        /* \"#utility.yul\":711:782   */\n      tag_328\n      jump\t// in\n    tag_377:\n        /* \"#utility.yul\":704:782   */\n      swap4\n      pop\n        /* \"#utility.yul\":791:856   */\n      tag_378\n        /* \"#utility.yul\":849:855   */\n      dup2\n        /* \"#utility.yul\":844:847   */\n      dup6\n        /* \"#utility.yul\":837:841   */\n      0x20\n        /* \"#utility.yul\":830:835   */\n      dup7\n        /* \"#utility.yul\":826:842   */\n      add\n        /* \"#utility.yul\":791:856   */\n      tag_329\n      jump\t// in\n    tag_378:\n        /* \"#utility.yul\":881:910   */\n      tag_379\n        /* \"#utility.yul\":903:909   */\n      dup2\n        /* \"#utility.yul\":881:910   */\n      tag_330\n      jump\t// in\n    tag_379:\n        /* \"#utility.yul\":876:879   */\n      dup5\n        /* \"#utility.yul\":872:911   */\n      add\n        /* \"#utility.yul\":865:911   */\n      swap2\n      pop\n        /* \"#utility.yul\":632:917   */\n      pop\n        /* \"#utility.yul\":540:917   */\n      swap3\n      swap2\n      pop\n      pop\n      jump\t// out\n        /* \"#utility.yul\":923:1236   */\n    tag_47:\n        /* \"#utility.yul\":1036:1040   */\n      0x00\n        /* \"#utility.yul\":1074:1076   */\n      0x20\n        /* \"#utility.yul\":1063:1072   */\n      dup3\n        /* \"#utility.yul\":1059:1077   */\n      add\n        /* \"#utility.yul\":1051:1077   */\n      swap1\n      pop\n        /* \"#utility.yul\":1123:1132   */\n      dup2\n        /* \"#utility.yul\":1117:1121   */\n      dup2\n        /* \"#utility.yul\":1113:1133   */\n      sub\n        /* \"#utility.yul\":1109:1110   */\n      0x00\n        /* \"#utility.yul\":1098:1107   */\n      dup4\n        /* \"#utility.yul\":1094:1111   */\n      add\n        /* \"#utility.yul\":1087:1134   */\n      mstore\n        /* \"#utility.yul\":1151:1229   */\n      tag_381\n        /* \"#utility.yul\":1224:1228   */\n      dup2\n        /* \"#utility.yul\":1215:1221   */\n      dup5\n        /* \"#utility.yul\":1151:1229   */\n      tag_331\n      jump\t// in\n    tag_381:\n        /* \"#utility.yul\":1143:1229   */\n      swap1\n      pop\n        /* \"#utility.yul\":923:1236   */\n      swap3\n      swap2\n      pop\n      pop\n      jump\t// out\n        /* \"#utility.yul\":1242:1319   */\n    tag_332:\n        /* \"#utility.yul\":1279:1286   */\n      0x00\n        /* \"#utility.yul\":1308:1313   */\n      dup2\n        /* \"#utility.yul\":1297:1313   */\n      swap1\n      pop\n        /* \"#utility.yul\":1242:1319   */\n      swap2\n      swap1\n      pop\n      jump\t// out\n        /* \"#utility.yul\":1325:1443   */\n    tag_333:\n        /* \"#utility.yul\":1412:1436   */\n      tag_384\n        /* \"#utility.yul\":1430:1435   */\n      dup2\n        /* \"#utility.yul\":1412:1436   */\n      tag_332\n      jump\t// in\n    tag_384:\n        /* \"#utility.yul\":1407:1410   */\n      dup3\n        /* \"#utility.yul\":1400:1437   */\n      mstore\n        /* \"#utility.yul\":1325:1443   */\n      pop\n      pop\n      jump\t// out\n        /* \"#utility.yul\":1449:1671   */\n    tag_51:\n        /* \"#utility.yul\":1542:1546   */\n      0x00\n        /* \"#utility.yul\":1580:1582   */\n      0x20\n        /* \"#utility.yul\":1569:1578   */\n      dup3\n        /* \"#utility.yul\":1565:1583   */\n      add\n        /* \"#utility.yul\":1557:1583   */\n      swap1\n      pop\n        /* \"#utility.yul\":1593:1664   */\n      tag_386\n        /* \"#utility.yul\":1661:1662   */\n      0x00\n        /* \"#utility.yul\":1650:1659   */\n      dup4\n        /* \"#utility.yul\":1646:1663   */\n      add\n        /* \"#utility.yul\":1637:1643   */\n      dup5\n        /* \"#utility.yul\":1593:1664   */\n      tag_333\n      jump\t// in\n    tag_386:\n        /* \"#utility.yul\":1449:1671   */\n      swap3\n      swap2\n      pop\n      pop\n      jump\t// out\n        /* \"#utility.yul\":1758:1875   */\n    tag_335:\n        /* \"#utility.yul\":1867:1868   */\n      0x00\n        /* \"#utility.yul\":1864:1865   */\n      dup1\n        /* \"#utility.yul\":1857:1869   */\n      revert\n        /* \"#utility.yul\":2004:2130   */\n    tag_337:\n        /* \"#utility.yul\":2041:2048   */\n      0x00\n        /* \"#utility.yul\":2081:2123   */\n      0xffffffffffffffffffffffffffffffffffffffff\n        /* \"#utility.yul\":2074:2079   */\n      dup3\n        /* \"#utility.yul\":2070:2124   */\n      and\n        /* \"#utility.yul\":2059:2124   */\n      swap1\n      pop\n        /* \"#utility.yul\":2004:2130   */\n      swap2\n      swap1\n      pop\n      jump\t// out\n        /* \"#utility.yul\":2136:2232   */\n    tag_338:\n        /* \"#utility.yul\":2173:2180   */\n      0x00\n        /* \"#utility.yul\":2202:2226   */\n      tag_392\n        /* \"#utility.yul\":2220:2225   */\n      dup3\n        /* \"#utility.yul\":2202:2226   */\n      tag_337\n      jump\t// in\n    tag_392:\n        /* \"#utility.yul\":2191:2226   */\n      swap1\n      pop\n        /* \"#utility.yul\":2136:2232   */\n      swap2\n      swap1\n      pop\n      jump\t// out\n        /* \"#utility.yul\":2238:2360   */\n    tag_339:\n        /* \"#utility.yul\":2311:2335   */\n      tag_394\n        /* \"#utility.yul\":2329:2334   */\n      dup2\n        /* \"#utility.yul\":2311:2335   */\n      tag_338\n      jump\t// in\n    tag_394:\n        /* \"#utility.yul\":2304:2309   */\n      dup2\n        /* \"#utility.yul\":2301:2336   */\n      eq\n        /* \"#utility.yul\":2291:2354   */\n      tag_395\n      jumpi\n        /* \"#utility.yul\":2350:2351   */\n      0x00\n        /* \"#utility.yul\":2347:2348   */\n      dup1\n        /* \"#utility.yul\":2340:2352   */\n      revert\n        /* \"#utility.yul\":2291:2354   */\n    tag_395:\n        /* \"#utility.yul\":2238:2360   */\n      pop\n      jump\t// out\n        /* \"#utility.yul\":2366:2505   */\n    tag_340:\n        /* \"#utility.yul\":2412:2417   */\n      0x00\n        /* \"#utility.yul\":2450:2456   */\n      dup2\n        /* \"#utility.yul\":2437:2457   */\n      calldataload\n        /* \"#utility.yul\":2428:2457   */\n      swap1\n      pop\n        /* \"#utility.yul\":2466:2499   */\n      tag_397\n        /* \"#utility.yul\":2493:2498   */\n      dup2\n        /* \"#utility.yul\":2466:2499   */\n      tag_339\n      jump\t// in\n    tag_397:\n        /* \"#utility.yul\":2366:2505   */\n      swap3\n      swap2\n      pop\n      pop\n      jump\t// out\n        /* \"#utility.yul\":2511:2633   */\n    tag_341:\n        /* \"#utility.yul\":2584:2608   */\n      tag_399\n        /* \"#utility.yul\":2602:2607   */\n      dup2\n        /* \"#utility.yul\":2584:2608   */\n      tag_332\n      jump\t// in\n    tag_399:\n        /* \"#utility.yul\":2577:2582   */\n      dup2\n        /* \"#utility.yul\":2574:2609   */\n      eq\n        /* \"#utility.yul\":2564:2627   */\n      tag_400\n      jumpi\n        /* \"#utility.yul\":2623:2624   */\n      0x00\n        /* \"#utility.yul\":2620:2621   */\n      dup1\n        /* \"#utility.yul\":2613:2625   */\n      revert\n        /* \"#utility.yul\":2564:2627   */\n    tag_400:\n        /* \"#utility.yul\":2511:2633   */\n      pop\n      jump\t// out\n        /* \"#utility.yul\":2639:2778   */\n    tag_342:\n        /* \"#utility.yul\":2685:2690   */\n      0x00\n        /* \"#utility.yul\":2723:2729   */\n      dup2\n        /* \"#utility.yul\":2710:2730   */\n      calldataload\n        /* \"#utility.yul\":2701:2730   */\n      swap1\n      pop\n        /* \"#utility.yul\":2739:2772   */\n      tag_402\n        /* \"#utility.yul\":2766:2771   */\n      dup2\n        /* \"#utility.yul\":2739:2772   */\n      tag_341\n      jump\t// in\n    tag_402:\n        /* \"#utility.yul\":2639:2778   */\n      swap3\n      swap2\n      pop\n      pop\n      jump\t// out\n        /* \"#utility.yul\":2784:3258   */\n    tag_54:\n        /* \"#utility.yul\":2852:2858   */\n      0x00\n        /* \"#utility.yul\":2860:2866   */\n      dup1\n        /* \"#utility.yul\":2909:2911   */\n      0x40\n        /* \"#utility.yul\":2897:2906   */\n      dup4\n        /* \"#utility.yul\":2888:2895   */\n      dup6\n        /* \"#utility.yul\":2884:2907   */\n      sub\n        /* \"#utility.yul\":2880:2912   */\n      slt\n        /* \"#utility.yul\":2877:2996   */\n      iszero\n      tag_404\n      jumpi\n        /* \"#utility.yul\":2915:2994   */\n      tag_405\n      tag_335\n      jump\t// in\n    tag_405:\n        /* \"#utility.yul\":2877:2996   */\n    tag_404:\n        /* \"#utility.yul\":3035:3036   */\n      0x00\n        /* \"#utility.yul\":3060:3113   */\n      tag_406\n        /* \"#utility.yul\":3105:3112   */\n      dup6\n        /* \"#utility.yul\":3096:3102   */\n      dup3\n        /* \"#utility.yul\":3085:3094   */\n      dup7\n        /* \"#utility.yul\":3081:3103   */\n      add\n        /* \"#utility.yul\":3060:3113   */\n      tag_340\n      jump\t// in\n    tag_406:\n        /* \"#utility.yul\":3050:3113   */\n      swap3\n      pop\n        /* \"#utility.yul\":3006:3123   */\n      pop\n        /* \"#utility.yul\":3162:3164   */\n      0x20\n        /* \"#utility.yul\":3188:3241   */\n      tag_407\n        /* \"#utility.yul\":3233:3240   */\n      dup6\n        /* \"#utility.yul\":3224:3230   */\n      dup3\n        /* \"#utility.yul\":3213:3222   */\n      dup7\n        /* \"#utility.yul\":3209:3231   */\n      add\n        /* \"#utility.yul\":3188:3241   */\n      tag_342\n      jump\t// in\n    tag_407:\n        /* \"#utility.yul\":3178:3241   */\n      swap2\n      pop\n        /* \"#utility.yul\":3133:3251   */\n      pop\n        /* \"#utility.yul\":2784:3258   */\n      swap3\n      pop\n      swap3\n      swap1\n      pop\n      jump\t// out\n        /* \"#utility.yul\":3264:3354   */\n    tag_343:\n        /* \"#utility.yul\":3298:3305   */\n      0x00\n        /* \"#utility.yul\":3341:3346   */\n      dup2\n        /* \"#utility.yul\":3334:3347   */\n      iszero\n        /* \"#utility.yul\":3327:3348   */\n      iszero\n        /* \"#utility.yul\":3316:3348   */\n      swap1\n      pop\n        /* \"#utility.yul\":3264:3354   */\n      swap2\n      swap1\n      pop\n      jump\t// out\n        /* \"#utility.yul\":3360:3469   */\n    tag_344:\n        /* \"#utility.yul\":3441:3462   */\n      tag_410\n        /* \"#utility.yul\":3456:3461   */\n      dup2\n        /* \"#utility.yul\":3441:3462   */\n      tag_343\n      jump\t// in\n    tag_410:\n        /* \"#utility.yul\":3436:3439   */\n      dup3\n        /* \"#utility.yul\":3429:3463   */\n      mstore\n        /* \"#utility.yul\":3360:3469   */\n      pop\n      pop\n      jump\t// out\n        /* \"#utility.yul\":3475:3685   */\n    tag_57:\n        /* \"#utility.yul\":3562:3566   */\n      0x00\n        /* \"#utility.yul\":3600:3602   */\n      0x20\n        /* \"#utility.yul\":3589:3598   */\n      dup3\n        /* \"#utility.yul\":3585:3603   */\n      add\n        /* \"#utility.yul\":3577:3603   */\n      swap1\n      pop\n        /* \"#utility.yul\":3613:3678   */\n      tag_412\n        /* \"#utility.yul\":3675:3676   */\n      0x00\n        /* \"#utility.yul\":3664:3673   */\n      dup4\n        /* \"#utility.yul\":3660:3677   */\n      add\n        /* \"#utility.yul\":3651:3657   */\n      dup5\n        /* \"#utility.yul\":3613:3678   */\n      tag_344\n      jump\t// in\n    tag_412:\n        /* \"#utility.yul\":3475:3685   */\n      swap3\n      swap2\n      pop\n      pop\n      jump\t// out\n        /* \"#utility.yul\":3691:4310   */\n    tag_71:\n        /* \"#utility.yul\":3768:3774   */\n      0x00\n        /* \"#utility.yul\":3776:3782   */\n      dup1\n        /* \"#utility.yul\":3784:3790   */\n      0x00\n        /* \"#utility.yul\":3833:3835   */\n      0x60\n        /* \"#utility.yul\":3821:3830   */\n      dup5\n        /* \"#utility.yul\":3812:3819   */\n      dup7\n        /* \"#utility.yul\":3808:3831   */\n      sub\n        /* \"#utility.yul\":3804:3836   */\n      slt\n        /* \"#utility.yul\":3801:3920   */\n      iszero\n      tag_414\n      jumpi\n        /* \"#utility.yul\":3839:3918   */\n      tag_415\n      tag_335\n      jump\t// in\n    tag_415:\n        /* \"#utility.yul\":3801:3920   */\n    tag_414:\n        /* \"#utility.yul\":3959:3960   */\n      0x00\n        /* \"#utility.yul\":3984:4037   */\n      tag_416\n        /* \"#utility.yul\":4029:4036   */\n      dup7\n        /* \"#utility.yul\":4020:4026   */\n      dup3\n        /* \"#utility.yul\":4009:4018   */\n      dup8\n        /* \"#utility.yul\":4005:4027   */\n      add\n        /* \"#utility.yul\":3984:4037   */\n      tag_340\n      jump\t// in\n    tag_416:\n        /* \"#utility.yul\":3974:4037   */\n      swap4\n      pop\n        /* \"#utility.yul\":3930:4047   */\n      pop\n        /* \"#utility.yul\":4086:4088   */\n      0x20\n        /* \"#utility.yul\":4112:4165   */\n      tag_417\n        /* \"#utility.yul\":4157:4164   */\n      dup7\n        /* \"#utility.yul\":4148:4154   */\n      dup3\n        /* \"#utility.yul\":4137:4146   */\n      dup8\n        /* \"#utility.yul\":4133:4155   */\n      add\n        /* \"#utility.yul\":4112:4165   */\n      tag_340\n      jump\t// in\n    tag_417:\n        /* \"#utility.yul\":4102:4165   */\n      swap3\n      pop\n        /* \"#utility.yul\":4057:4175   */\n      pop\n        /* \"#utility.yul\":4214:4216   */\n      0x40\n        /* \"#utility.yul\":4240:4293   */\n      tag_418\n        /* \"#utility.yul\":4285:4292   */\n      dup7\n        /* \"#utility.yul\":4276:4282   */\n      dup3\n        /* \"#utility.yul\":4265:4274   */\n      dup8\n        /* \"#utility.yul\":4261:4283   */\n      add\n        /* \"#utility.yul\":4240:4293   */\n      tag_342\n      jump\t// in\n    tag_418:\n        /* \"#utility.yul\":4230:4293   */\n      swap2\n      pop\n        /* \"#utility.yul\":4185:4303   */\n      pop\n        /* \"#utility.yul\":3691:4310   */\n      swap3\n      pop\n      swap3\n      pop\n      swap3\n      jump\t// out\n        /* \"#utility.yul\":4316:4434   */\n    tag_345:\n        /* \"#utility.yul\":4403:4427   */\n      tag_420\n        /* \"#utility.yul\":4421:4426   */\n      dup2\n        /* \"#utility.yul\":4403:4427   */\n      tag_338\n      jump\t// in\n    tag_420:\n        /* \"#utility.yul\":4398:4401   */\n      dup3\n        /* \"#utility.yul\":4391:4428   */\n      mstore\n        /* \"#utility.yul\":4316:4434   */\n      pop\n      pop\n      jump\t// out\n        /* \"#utility.yul\":4440:4662   */\n    tag_77:\n        /* \"#utility.yul\":4533:4537   */\n      0x00\n        /* \"#utility.yul\":4571:4573   */\n      0x20\n        /* \"#utility.yul\":4560:4569   */\n      dup3\n        /* \"#utility.yul\":4556:4574   */\n      add\n        /* \"#utility.yul\":4548:4574   */\n      swap1\n      pop\n        /* \"#utility.yul\":4584:4655   */\n      tag_422\n        /* \"#utility.yul\":4652:4653   */\n      0x00\n        /* \"#utility.yul\":4641:4650   */\n      dup4\n        /* \"#utility.yul\":4637:4654   */\n      add\n        /* \"#utility.yul\":4628:4634   */\n      dup5\n        /* \"#utility.yul\":4584:4655   */\n      tag_345\n      jump\t// in\n    tag_422:\n        /* \"#utility.yul\":4440:4662   */\n      swap3\n      swap2\n      pop\n      pop\n      jump\t// out\n        /* \"#utility.yul\":4668:4754   */\n    tag_346:\n        /* \"#utility.yul\":4703:4710   */\n      0x00\n        /* \"#utility.yul\":4743:4747   */\n      0xff\n        /* \"#utility.yul\":4736:4741   */\n      dup3\n        /* \"#utility.yul\":4732:4748   */\n      and\n        /* \"#utility.yul\":4721:4748   */\n      swap1\n      pop\n        /* \"#utility.yul\":4668:4754   */\n      swap2\n      swap1\n      pop\n      jump\t// out\n        /* \"#utility.yul\":4760:4872   */\n    tag_347:\n        /* \"#utility.yul\":4843:4865   */\n      tag_425\n        /* \"#utility.yul\":4859:4864   */\n      dup2\n        /* \"#utility.yul\":4843:4865   */\n      tag_346\n      jump\t// in\n    tag_425:\n        /* \"#utility.yul\":4838:4841   */\n      dup3\n        /* \"#utility.yul\":4831:4866   */\n      mstore\n        /* \"#utility.yul\":4760:4872   */\n      pop\n      pop\n      jump\t// out\n        /* \"#utility.yul\":4878:5092   */\n    tag_84:\n        /* \"#utility.yul\":4967:4971   */\n      0x00\n        /* \"#utility.yul\":5005:5007   */\n      0x20\n        /* \"#utility.yul\":4994:5003   */\n      dup3\n        /* \"#utility.yul\":4990:5008   */\n      add\n        /* \"#utility.yul\":4982:5008   */\n      swap1\n      pop\n        /* \"#utility.yul\":5018:5085   */\n      tag_427\n        /* \"#utility.yul\":5082:5083   */\n      0x00\n        /* \"#utility.yul\":5071:5080   */\n      dup4\n        /* \"#utility.yul\":5067:5084   */\n      add\n        /* \"#utility.yul\":5058:5064   */\n      dup5\n        /* \"#utility.yul\":5018:5085   */\n      tag_347\n      jump\t// in\n    tag_427:\n        /* \"#utility.yul\":4878:5092   */\n      swap3\n      swap2\n      pop\n      pop\n      jump\t// out\n        /* \"#utility.yul\":5098:5427   */\n    tag_102:\n        /* \"#utility.yul\":5157:5163   */\n      0x00\n        /* \"#utility.yul\":5206:5208   */\n      0x20\n        /* \"#utility.yul\":5194:5203   */\n      dup3\n        /* \"#utility.yul\":5185:5192   */\n      dup5\n        /* \"#utility.yul\":5181:5204   */\n      sub\n        /* \"#utility.yul\":5177:5209   */\n      slt\n        /* \"#utility.yul\":5174:5293   */\n      iszero\n      tag_429\n      jumpi\n        /* \"#utility.yul\":5212:5291   */\n      tag_430\n      tag_335\n      jump\t// in\n    tag_430:\n        /* \"#utility.yul\":5174:5293   */\n    tag_429:\n        /* \"#utility.yul\":5332:5333   */\n      0x00\n        /* \"#utility.yul\":5357:5410   */\n      tag_431\n        /* \"#utility.yul\":5402:5409   */\n      dup5\n        /* \"#utility.yul\":5393:5399   */\n      dup3\n        /* \"#utility.yul\":5382:5391   */\n      dup6\n        /* \"#utility.yul\":5378:5400   */\n      add\n        /* \"#utility.yul\":5357:5410   */\n      tag_340\n      jump\t// in\n    tag_431:\n        /* \"#utility.yul\":5347:5410   */\n      swap2\n      pop\n        /* \"#utility.yul\":5303:5420   */\n      pop\n        /* \"#utility.yul\":5098:5427   */\n      swap3\n      swap2\n      pop\n      pop\n      jump\t// out\n        /* \"#utility.yul\":5433:5907   */\n    tag_120:\n        /* \"#utility.yul\":5501:5507   */\n      0x00\n        /* \"#utility.yul\":5509:5515   */\n      dup1\n        /* \"#utility.yul\":5558:5560   */\n      0x40\n        /* \"#utility.yul\":5546:5555   */\n      dup4\n        /* \"#utility.yul\":5537:5544   */\n      dup6\n        /* \"#utility.yul\":5533:5556   */\n      sub\n        /* \"#utility.yul\":5529:5561   */\n      slt\n        /* \"#utility.yul\":5526:5645   */\n      iszero\n      tag_433\n      jumpi\n        /* \"#utility.yul\":5564:5643   */\n      tag_434\n      tag_335\n      jump\t// in\n    tag_434:\n        /* \"#utility.yul\":5526:5645   */\n    tag_433:\n        /* \"#utility.yul\":5684:5685   */\n      0x00\n        /* \"#utility.yul\":5709:5762   */\n      tag_435\n        /* \"#utility.yul\":5754:5761   */\n      dup6\n        /* \"#utility.yul\":5745:5751   */\n      dup3\n        /* \"#utility.yul\":5734:5743   */\n      dup7\n        /* \"#utility.yul\":5730:5752   */\n      add\n        /* \"#utility.yul\":5709:5762   */\n      tag_342\n      jump\t// in\n    tag_435:\n        /* \"#utility.yul\":5699:5762   */\n      swap3\n      pop\n        /* \"#utility.yul\":5655:5772   */\n      pop\n        /* \"#utility.yul\":5811:5813   */\n      0x20\n        /* \"#utility.yul\":5837:5890   */\n      tag_436\n        /* \"#utility.yul\":5882:5889   */\n      dup6\n        /* \"#utility.yul\":5873:5879   */\n      dup3\n        /* \"#utility.yul\":5862:5871   */\n      dup7\n        /* \"#utility.yul\":5858:5880   */\n      add\n        /* \"#utility.yul\":5837:5890   */\n      tag_340\n      jump\t// in\n    tag_436:\n        /* \"#utility.yul\":5827:5890   */\n      swap2\n      pop\n        /* \"#utility.yul\":5782:5900   */\n      pop\n        /* \"#utility.yul\":5433:5907   */\n      swap3\n      pop\n      swap3\n      swap1\n      pop\n      jump\t// out\n        /* \"#utility.yul\":5913:6387   */\n    tag_145:\n        /* \"#utility.yul\":5981:5987   */\n      0x00\n        /* \"#utility.yul\":5989:5995   */\n      dup1\n        /* \"#utility.yul\":6038:6040   */\n      0x40\n        /* \"#utility.yul\":6026:6035   */\n      dup4\n        /* \"#utility.yul\":6017:6024   */\n      dup6\n        /* \"#utility.yul\":6013:6036   */\n      sub\n        /* \"#utility.yul\":6009:6041   */\n      slt\n        /* \"#utility.yul\":6006:6125   */\n      iszero\n      tag_438\n      jumpi\n        /* \"#utility.yul\":6044:6123   */\n      tag_439\n      tag_335\n      jump\t// in\n    tag_439:\n        /* \"#utility.yul\":6006:6125   */\n    tag_438:\n        /* \"#utility.yul\":6164:6165   */\n      0x00\n        /* \"#utility.yul\":6189:6242   */\n      tag_440\n        /* \"#utility.yul\":6234:6241   */\n      dup6\n        /* \"#utility.yul\":6225:6231   */\n      dup3\n        /* \"#utility.yul\":6214:6223   */\n      dup7\n        /* \"#utility.yul\":6210:6232   */\n      add\n        /* \"#utility.yul\":6189:6242   */\n      tag_340\n      jump\t// in\n    tag_440:\n        /* \"#utility.yul\":6179:6242   */\n      swap3\n      pop\n        /* \"#utility.yul\":6135:6252   */\n      pop\n        /* \"#utility.yul\":6291:6293   */\n      0x20\n        /* \"#utility.yul\":6317:6370   */\n      tag_441\n        /* \"#utility.yul\":6362:6369   */\n      dup6\n        /* \"#utility.yul\":6353:6359   */\n      dup3\n        /* \"#utility.yul\":6342:6351   */\n      dup7\n        /* \"#utility.yul\":6338:6360   */\n      add\n        /* \"#utility.yul\":6317:6370   */\n      tag_340\n      jump\t// in\n    tag_441:\n        /* \"#utility.yul\":6307:6370   */\n      swap2\n      pop\n        /* \"#utility.yul\":6262:6380   */\n      pop\n        /* \"#utility.yul\":5913:6387   */\n      swap3\n      pop\n      swap3\n      swap1\n      pop\n      jump\t// out\n        /* \"#utility.yul\":6393:6453   */\n    tag_348:\n        /* \"#utility.yul\":6421:6424   */\n      0x00\n        /* \"#utility.yul\":6442:6447   */\n      dup2\n        /* \"#utility.yul\":6435:6447   */\n      swap1\n      pop\n        /* \"#utility.yul\":6393:6453   */\n      swap2\n      swap1\n      pop\n      jump\t// out\n        /* \"#utility.yul\":6459:6601   */\n    tag_349:\n        /* \"#utility.yul\":6509:6518   */\n      0x00\n        /* \"#utility.yul\":6542:6595   */\n      tag_444\n        /* \"#utility.yul\":6560:6594   */\n      tag_445\n        /* \"#utility.yul\":6569:6593   */\n      tag_446\n        /* \"#utility.yul\":6587:6592   */\n      dup5\n        /* \"#utility.yul\":6569:6593   */\n      tag_337\n      jump\t// in\n    tag_446:\n        /* \"#utility.yul\":6560:6594   */\n      tag_348\n      jump\t// in\n    tag_445:\n        /* \"#utility.yul\":6542:6595   */\n      tag_337\n      jump\t// in\n    tag_444:\n        /* \"#utility.yul\":6529:6595   */\n      swap1\n      pop\n        /* \"#utility.yul\":6459:6601   */\n      swap2\n      swap1\n      pop\n      jump\t// out\n        /* \"#utility.yul\":6607:6733   */\n    tag_350:\n        /* \"#utility.yul\":6657:6666   */\n      0x00\n        /* \"#utility.yul\":6690:6727   */\n      tag_448\n        /* \"#utility.yul\":6721:6726   */\n      dup3\n        /* \"#utility.yul\":6690:6727   */\n      tag_349\n      jump\t// in\n    tag_448:\n        /* \"#utility.yul\":6677:6727   */\n      swap1\n      pop\n        /* \"#utility.yul\":6607:6733   */\n      swap2\n      swap1\n      pop\n      jump\t// out\n        /* \"#utility.yul\":6739:6879   */\n    tag_351:\n        /* \"#utility.yul\":6803:6812   */\n      0x00\n        /* \"#utility.yul\":6836:6873   */\n      tag_450\n        /* \"#utility.yul\":6867:6872   */\n      dup3\n        /* \"#utility.yul\":6836:6873   */\n      tag_350\n      jump\t// in\n    tag_450:\n        /* \"#utility.yul\":6823:6873   */\n      swap1\n      pop\n        /* \"#utility.yul\":6739:6879   */\n      swap2\n      swap1\n      pop\n      jump\t// out\n        /* \"#utility.yul\":6885:7044   */\n    tag_352:\n        /* \"#utility.yul\":6986:7037   */\n      tag_452\n        /* \"#utility.yul\":7031:7036   */\n      dup2\n        /* \"#utility.yul\":6986:7037   */\n      tag_351\n      jump\t// in\n    tag_452:\n        /* \"#utility.yul\":6981:6984   */\n      dup3\n        /* \"#utility.yul\":6974:7038   */\n      mstore\n        /* \"#utility.yul\":6885:7044   */\n      pop\n      pop\n      jump\t// out\n        /* \"#utility.yul\":7050:7300   */\n    tag_154:\n        /* \"#utility.yul\":7157:7161   */\n      0x00\n        /* \"#utility.yul\":7195:7197   */\n      0x20\n        /* \"#utility.yul\":7184:7193   */\n      dup3\n        /* \"#utility.yul\":7180:7198   */\n      add\n        /* \"#utility.yul\":7172:7198   */\n      swap1\n      pop\n        /* \"#utility.yul\":7208:7293   */\n      tag_454\n        /* \"#utility.yul\":7290:7291   */\n      0x00\n        /* \"#utility.yul\":7279:7288   */\n      dup4\n        /* \"#utility.yul\":7275:7292   */\n      add\n        /* \"#utility.yul\":7266:7272   */\n      dup5\n        /* \"#utility.yul\":7208:7293   */\n      tag_352\n      jump\t// in\n    tag_454:\n        /* \"#utility.yul\":7050:7300   */\n      swap3\n      swap2\n      pop\n      pop\n      jump\t// out\n        /* \"#utility.yul\":7306:7486   */\n    tag_353:\n        /* \"#utility.yul\":7354:7431   */\n      0x4e487b7100000000000000000000000000000000000000000000000000000000\n        /* \"#utility.yul\":7351:7352   */\n      0x00\n        /* \"#utility.yul\":7344:7432   */\n      mstore\n        /* \"#utility.yul\":7451:7455   */\n      0x22\n        /* \"#utility.yul\":7448:7449   */\n      0x04\n        /* \"#utility.yul\":7441:7456   */\n      mstore\n        /* \"#utility.yul\":7475:7479   */\n      0x24\n        /* \"#utility.yul\":7472:7473   */\n      0x00\n        /* \"#utility.yul\":7465:7480   */\n      revert\n        /* \"#utility.yul\":7492:7812   */\n    tag_160:\n        /* \"#utility.yul\":7536:7542   */\n      0x00\n        /* \"#utility.yul\":7573:7574   */\n      0x02\n        /* \"#utility.yul\":7567:7571   */\n      dup3\n        /* \"#utility.yul\":7563:7575   */\n      div\n        /* \"#utility.yul\":7553:7575   */\n      swap1\n      pop\n        /* \"#utility.yul\":7620:7621   */\n      0x01\n        /* \"#utility.yul\":7614:7618   */\n      dup3\n        /* \"#utility.yul\":7610:7622   */\n      and\n        /* \"#utility.yul\":7641:7659   */\n      dup1\n        /* \"#utility.yul\":7631:7712   */\n      tag_457\n      jumpi\n        /* \"#utility.yul\":7697:7701   */\n      0x7f\n        /* \"#utility.yul\":7689:7695   */\n      dup3\n        /* \"#utility.yul\":7685:7702   */\n      and\n        /* \"#utility.yul\":7675:7702   */\n      swap2\n      pop\n        /* \"#utility.yul\":7631:7712   */\n    tag_457:\n        /* \"#utility.yul\":7759:7761   */\n      0x20\n        /* \"#utility.yul\":7751:7757   */\n      dup3\n        /* \"#utility.yul\":7748:7762   */\n      lt\n        /* \"#utility.yul\":7728:7746   */\n      dup2\n        /* \"#utility.yul\":7725:7763   */\n      sub\n        /* \"#utility.yul\":7722:7806   */\n      tag_458\n      jumpi\n        /* \"#utility.yul\":7778:7796   */\n      tag_459\n      tag_353\n      jump\t// in\n    tag_459:\n        /* \"#utility.yul\":7722:7806   */\n    tag_458:\n        /* \"#utility.yul\":7543:7812   */\n      pop\n        /* \"#utility.yul\":7492:7812   */\n      swap2\n      swap1\n      pop\n      jump\t// out\n        /* \"#utility.yul\":7818:7998   */\n    tag_354:\n        /* \"#utility.yul\":7866:7943   */\n      0x4e487b7100000000000000000000000000000000000000000000000000000000\n        /* \"#utility.yul\":7863:7864   */\n      0x00\n        /* \"#utility.yul\":7856:7944   */\n      mstore\n        /* \"#utility.yul\":7963:7967   */\n      0x11\n        /* \"#utility.yul\":7960:7961   */\n      0x04\n        /* \"#utility.yul\":7953:7968   */\n      mstore\n        /* \"#utility.yul\":7987:7991   */\n      0x24\n        /* \"#utility.yul\":7984:7985   */\n      0x00\n        /* \"#utility.yul\":7977:7992   */\n      revert\n        /* \"#utility.yul\":8004:8195   */\n    tag_178:\n        /* \"#utility.yul\":8044:8047   */\n      0x00\n        /* \"#utility.yul\":8063:8083   */\n      tag_462\n        /* \"#utility.yul\":8081:8082   */\n      dup3\n        /* \"#utility.yul\":8063:8083   */\n      tag_332\n      jump\t// in\n    tag_462:\n        /* \"#utility.yul\":8058:8083   */\n      swap2\n      pop\n        /* \"#utility.yul\":8097:8117   */\n      tag_463\n        /* \"#utility.yul\":8115:8116   */\n      dup4\n        /* \"#utility.yul\":8097:8117   */\n      tag_332\n      jump\t// in\n    tag_463:\n        /* \"#utility.yul\":8092:8117   */\n      swap3\n      pop\n        /* \"#utility.yul\":8140:8141   */\n      dup3\n        /* \"#utility.yul\":8137:8138   */\n      dup3\n        /* \"#utility.yul\":8133:8142   */\n      add\n        /* \"#utility.yul\":8126:8142   */\n      swap1\n      pop\n        /* \"#utility.yul\":8161:8164   */\n      dup1\n        /* \"#utility.yul\":8158:8159   */\n      dup3\n        /* \"#utility.yul\":8155:8165   */\n      gt\n        /* \"#utility.yul\":8152:8188   */\n      iszero\n      tag_464\n      jumpi\n        /* \"#utility.yul\":8168:8186   */\n      tag_465\n      tag_354\n      jump\t// in\n    tag_465:\n        /* \"#utility.yul\":8152:8188   */\n    tag_464:\n        /* \"#utility.yul\":8004:8195   */\n      swap3\n      swap2\n      pop\n      pop\n      jump\t// out\n        /* \"#utility.yul\":8201:8381   */\n    tag_355:\n        /* \"#utility.yul\":8341:8373   */\n      0x5465616d2076657374696e6720636c696666206e6f7420726561636865640000\n        /* \"#utility.yul\":8337:8338   */\n      0x00\n        /* \"#utility.yul\":8329:8335   */\n      dup3\n        /* \"#utility.yul\":8325:8339   */\n      add\n        /* \"#utility.yul\":8318:8374   */\n      mstore\n        /* \"#utility.yul\":8201:8381   */\n      pop\n      jump\t// out\n        /* \"#utility.yul\":8387:8753   */\n    tag_356:\n        /* \"#utility.yul\":8529:8532   */\n      0x00\n        /* \"#utility.yul\":8550:8617   */\n      tag_468\n        /* \"#utility.yul\":8614:8616   */\n      0x1e\n        /* \"#utility.yul\":8609:8612   */\n      dup4\n        /* \"#utility.yul\":8550:8617   */\n      tag_328\n      jump\t// in\n    tag_468:\n        /* \"#utility.yul\":8543:8617   */\n      swap2\n      pop\n        /* \"#utility.yul\":8626:8719   */\n      tag_469\n        /* \"#utility.yul\":8715:8718   */\n      dup3\n        /* \"#utility.yul\":8626:8719   */\n      tag_355\n      jump\t// in\n    tag_469:\n        /* \"#utility.yul\":8744:8746   */\n      0x20\n        /* \"#utility.yul\":8739:8742   */\n      dup3\n        /* \"#utility.yul\":8735:8747   */\n      add\n        /* \"#utility.yul\":8728:8747   */\n      swap1\n      pop\n        /* \"#utility.yul\":8387:8753   */\n      swap2\n      swap1\n      pop\n      jump\t// out\n        /* \"#utility.yul\":8759:9178   */\n    tag_181:\n        /* \"#utility.yul\":8925:8929   */\n      0x00\n        /* \"#utility.yul\":8963:8965   */\n      0x20\n        /* \"#utility.yul\":8952:8961   */\n      dup3\n        /* \"#utility.yul\":8948:8966   */\n      add\n        /* \"#utility.yul\":8940:8966   */\n      swap1\n      pop\n        /* \"#utility.yul\":9012:9021   */\n      dup2\n        /* \"#utility.yul\":9006:9010   */\n      dup2\n        /* \"#utility.yul\":9002:9022   */\n      sub\n        /* \"#utility.yul\":8998:8999   */\n      0x00\n        /* \"#utility.yul\":8987:8996   */\n      dup4\n        /* \"#utility.yul\":8983:9000   */\n      add\n        /* \"#utility.yul\":8976:9023   */\n      mstore\n        /* \"#utility.yul\":9040:9171   */\n      tag_471\n        /* \"#utility.yul\":9166:9170   */\n      dup2\n        /* \"#utility.yul\":9040:9171   */\n      tag_356\n      jump\t// in\n    tag_471:\n        /* \"#utility.yul\":9032:9171   */\n      swap1\n      pop\n        /* \"#utility.yul\":8759:9178   */\n      swap2\n      swap1\n      pop\n      jump\t// out\n        /* \"#utility.yul\":9184:9378   */\n    tag_184:\n        /* \"#utility.yul\":9224:9228   */\n      0x00\n        /* \"#utility.yul\":9244:9264   */\n      tag_473\n        /* \"#utility.yul\":9262:9263   */\n      dup3\n        /* \"#utility.yul\":9244:9264   */\n      tag_332\n      jump\t// in\n    tag_473:\n        /* \"#utility.yul\":9239:9264   */\n      swap2\n      pop\n        /* \"#utility.yul\":9278:9298   */\n      tag_474\n        /* \"#utility.yul\":9296:9297   */\n      dup4\n        /* \"#utility.yul\":9278:9298   */\n      tag_332\n      jump\t// in\n    tag_474:\n        /* \"#utility.yul\":9273:9298   */\n      swap3\n      pop\n        /* \"#utility.yul\":9322:9323   */\n      dup3\n        /* \"#utility.yul\":9319:9320   */\n      dup3\n        /* \"#utility.yul\":9315:9324   */\n      sub\n        /* \"#utility.yul\":9307:9324   */\n      swap1\n      pop\n        /* \"#utility.yul\":9346:9347   */\n      dup2\n        /* \"#utility.yul\":9340:9344   */\n      dup2\n        /* \"#utility.yul\":9337:9348   */\n      gt\n        /* \"#utility.yul\":9334:9371   */\n      iszero\n      tag_475\n      jumpi\n        /* \"#utility.yul\":9351:9369   */\n      tag_476\n      tag_354\n      jump\t// in\n    tag_476:\n        /* \"#utility.yul\":9334:9371   */\n    tag_475:\n        /* \"#utility.yul\":9184:9378   */\n      swap3\n      swap2\n      pop\n      pop\n      jump\t// out\n        /* \"#utility.yul\":9384:9794   */\n    tag_186:\n        /* \"#utility.yul\":9424:9431   */\n      0x00\n        /* \"#utility.yul\":9447:9467   */\n      tag_478\n        /* \"#utility.yul\":9465:9466   */\n      dup3\n        /* \"#utility.yul\":9447:9467   */\n      tag_332\n      jump\t// in\n    tag_478:\n        /* \"#utility.yul\":9442:9467   */\n      swap2\n      pop\n        /* \"#utility.yul\":9481:9501   */\n      tag_479\n        /* \"#utility.yul\":9499:9500   */\n      dup4\n        /* \"#utility.yul\":9481:9501   */\n      tag_332\n      jump\t// in\n    tag_479:\n        /* \"#utility.yul\":9476:9501   */\n      swap3\n      pop\n        /* \"#utility.yul\":9536:9537   */\n      dup3\n        /* \"#utility.yul\":9533:9534   */\n      dup3\n        /* \"#utility.yul\":9529:9538   */\n      mul\n        /* \"#utility.yul\":9558:9588   */\n      tag_480\n        /* \"#utility.yul\":9576:9587   */\n      dup2\n        /* \"#utility.yul\":9558:9588   */\n      tag_332\n      jump\t// in\n    tag_480:\n        /* \"#utility.yul\":9547:9588   */\n      swap2\n      pop\n        /* \"#utility.yul\":9737:9738   */\n      dup3\n        /* \"#utility.yul\":9728:9735   */\n      dup3\n        /* \"#utility.yul\":9724:9739   */\n      div\n        /* \"#utility.yul\":9721:9722   */\n      dup5\n        /* \"#utility.yul\":9718:9740   */\n      eq\n        /* \"#utility.yul\":9698:9699   */\n      dup4\n        /* \"#utility.yul\":9691:9700   */\n      iszero\n        /* \"#utility.yul\":9671:9754   */\n      or\n        /* \"#utility.yul\":9648:9787   */\n      tag_481\n      jumpi\n        /* \"#utility.yul\":9767:9785   */\n      tag_482\n      tag_354\n      jump\t// in\n    tag_482:\n        /* \"#utility.yul\":9648:9787   */\n    tag_481:\n        /* \"#utility.yul\":9432:9794   */\n      pop\n        /* \"#utility.yul\":9384:9794   */\n      swap3\n      swap2\n      pop\n      pop\n      jump\t// out\n        /* \"#utility.yul\":9800:9980   */\n    tag_357:\n        /* \"#utility.yul\":9848:9925   */\n      0x4e487b7100000000000000000000000000000000000000000000000000000000\n        /* \"#utility.yul\":9845:9846   */\n      0x00\n        /* \"#utility.yul\":9838:9926   */\n      mstore\n        /* \"#utility.yul\":9945:9949   */\n      0x12\n        /* \"#utility.yul\":9942:9943   */\n      0x04\n        /* \"#utility.yul\":9935:9950   */\n      mstore\n        /* \"#utility.yul\":9969:9973   */\n      0x24\n        /* \"#utility.yul\":9966:9967   */\n      0x00\n        /* \"#utility.yul\":9959:9974   */\n      revert\n        /* \"#utility.yul\":9986:10171   */\n    tag_188:\n        /* \"#utility.yul\":10026:10027   */\n      0x00\n        /* \"#utility.yul\":10043:10063   */\n      tag_485\n        /* \"#utility.yul\":10061:10062   */\n      dup3\n        /* \"#utility.yul\":10043:10063   */\n      tag_332\n      jump\t// in\n    tag_485:\n        /* \"#utility.yul\":10038:10063   */\n      swap2\n      pop\n        /* \"#utility.yul\":10077:10097   */\n      tag_486\n        /* \"#utility.yul\":10095:10096   */\n      dup4\n        /* \"#utility.yul\":10077:10097   */\n      tag_332\n      jump\t// in\n    tag_486:\n        /* \"#utility.yul\":10072:10097   */\n      swap3\n      pop\n        /* \"#utility.yul\":10116:10117   */\n      dup3\n        /* \"#utility.yul\":10106:10141   */\n      tag_487\n      jumpi\n        /* \"#utility.yul\":10121:10139   */\n      tag_488\n      tag_357\n      jump\t// in\n    tag_488:\n        /* \"#utility.yul\":10106:10141   */\n    tag_487:\n        /* \"#utility.yul\":10163:10164   */\n      dup3\n        /* \"#utility.yul\":10160:10161   */\n      dup3\n        /* \"#utility.yul\":10156:10165   */\n      div\n        /* \"#utility.yul\":10151:10165   */\n      swap1\n      pop\n        /* \"#utility.yul\":9986:10171   */\n      swap3\n      swap2\n      pop\n      pop\n      jump\t// out\n        /* \"#utility.yul\":10177:10358   */\n    tag_358:\n        /* \"#utility.yul\":10317:10350   */\n      0x4e6f20746f6b656e7320617661696c61626c6520666f722072656c6561736500\n        /* \"#utility.yul\":10313:10314   */\n      0x00\n        /* \"#utility.yul\":10305:10311   */\n      dup3\n        /* \"#utility.yul\":10301:10315   */\n      add\n        /* \"#utility.yul\":10294:10351   */\n      mstore\n        /* \"#utility.yul\":10177:10358   */\n      pop\n      jump\t// out\n        /* \"#utility.yul\":10364:10730   */\n    tag_359:\n        /* \"#utility.yul\":10506:10509   */\n      0x00\n        /* \"#utility.yul\":10527:10594   */\n      tag_491\n        /* \"#utility.yul\":10591:10593   */\n      0x1f\n        /* \"#utility.yul\":10586:10589   */\n      dup4\n        /* \"#utility.yul\":10527:10594   */\n      tag_328\n      jump\t// in\n    tag_491:\n        /* \"#utility.yul\":10520:10594   */\n      swap2\n      pop\n        /* \"#utility.yul\":10603:10696   */\n      tag_492\n        /* \"#utility.yul\":10692:10695   */\n      dup3\n        /* \"#utility.yul\":10603:10696   */\n      tag_358\n      jump\t// in\n    tag_492:\n        /* \"#utility.yul\":10721:10723   */\n      0x20\n        /* \"#utility.yul\":10716:10719   */\n      dup3\n        /* \"#utility.yul\":10712:10724   */\n      add\n        /* \"#utility.yul\":10705:10724   */\n      swap1\n      pop\n        /* \"#utility.yul\":10364:10730   */\n      swap2\n      swap1\n      pop\n      jump\t// out\n        /* \"#utility.yul\":10736:11155   */\n    tag_193:\n        /* \"#utility.yul\":10902:10906   */\n      0x00\n        /* \"#utility.yul\":10940:10942   */\n      0x20\n        /* \"#utility.yul\":10929:10938   */\n      dup3\n        /* \"#utility.yul\":10925:10943   */\n      add\n        /* \"#utility.yul\":10917:10943   */\n      swap1\n      pop\n        /* \"#utility.yul\":10989:10998   */\n      dup2\n        /* \"#utility.yul\":10983:10987   */\n      dup2\n        /* \"#utility.yul\":10979:10999   */\n      sub\n        /* \"#utility.yul\":10975:10976   */\n      0x00\n        /* \"#utility.yul\":10964:10973   */\n      dup4\n        /* \"#utility.yul\":10960:10977   */\n      add\n        /* \"#utility.yul\":10953:11000   */\n      mstore\n        /* \"#utility.yul\":11017:11148   */\n      tag_494\n        /* \"#utility.yul\":11143:11147   */\n      dup2\n        /* \"#utility.yul\":11017:11148   */\n      tag_359\n      jump\t// in\n    tag_494:\n        /* \"#utility.yul\":11009:11148   */\n      swap1\n      pop\n        /* \"#utility.yul\":10736:11155   */\n      swap2\n      swap1\n      pop\n      jump\t// out\n        /* \"#utility.yul\":11161:11334   */\n    tag_360:\n        /* \"#utility.yul\":11301:11326   */\n      0x6d617820746f6b656e206c696d69742072656163686564000000000000000000\n        /* \"#utility.yul\":11297:11298   */\n      0x00\n        /* \"#utility.yul\":11289:11295   */\n      dup3\n        /* \"#utility.yul\":11285:11299   */\n      add\n        /* \"#utility.yul\":11278:11327   */\n      mstore\n        /* \"#utility.yul\":11161:11334   */\n      pop\n      jump\t// out\n        /* \"#utility.yul\":11340:11706   */\n    tag_361:\n        /* \"#utility.yul\":11482:11485   */\n      0x00\n        /* \"#utility.yul\":11503:11570   */\n      tag_497\n        /* \"#utility.yul\":11567:11569   */\n      0x17\n        /* \"#utility.yul\":11562:11565   */\n      dup4\n        /* \"#utility.yul\":11503:11570   */\n      tag_328\n      jump\t// in\n    tag_497:\n        /* \"#utility.yul\":11496:11570   */\n      swap2\n      pop\n        /* \"#utility.yul\":11579:11672   */\n      tag_498\n        /* \"#utility.yul\":11668:11671   */\n      dup3\n        /* \"#utility.yul\":11579:11672   */\n      tag_360\n      jump\t// in\n    tag_498:\n        /* \"#utility.yul\":11697:11699   */\n      0x20\n        /* \"#utility.yul\":11692:11695   */\n      dup3\n        /* \"#utility.yul\":11688:11700   */\n      add\n        /* \"#utility.yul\":11681:11700   */\n      swap1\n      pop\n        /* \"#utility.yul\":11340:11706   */\n      swap2\n      swap1\n      pop\n      jump\t// out\n        /* \"#utility.yul\":11712:12131   */\n    tag_196:\n        /* \"#utility.yul\":11878:11882   */\n      0x00\n        /* \"#utility.yul\":11916:11918   */\n      0x20\n        /* \"#utility.yul\":11905:11914   */\n      dup3\n        /* \"#utility.yul\":11901:11919   */\n      add\n        /* \"#utility.yul\":11893:11919   */\n      swap1\n      pop\n        /* \"#utility.yul\":11965:11974   */\n      dup2\n        /* \"#utility.yul\":11959:11963   */\n      dup2\n        /* \"#utility.yul\":11955:11975   */\n      sub\n        /* \"#utility.yul\":11951:11952   */\n      0x00\n        /* \"#utility.yul\":11940:11949   */\n      dup4\n        /* \"#utility.yul\":11936:11953   */\n      add\n        /* \"#utility.yul\":11929:11976   */\n      mstore\n        /* \"#utility.yul\":11993:12124   */\n      tag_500\n        /* \"#utility.yul\":12119:12123   */\n      dup2\n        /* \"#utility.yul\":11993:12124   */\n      tag_361\n      jump\t// in\n    tag_500:\n        /* \"#utility.yul\":11985:12124   */\n      swap1\n      pop\n        /* \"#utility.yul\":11712:12131   */\n      swap2\n      swap1\n      pop\n      jump\t// out\n        /* \"#utility.yul\":12137:12306   */\n    tag_362:\n        /* \"#utility.yul\":12277:12298   */\n      0x48616c76696e67206e6f74206475652079657400000000000000000000000000\n        /* \"#utility.yul\":12273:12274   */\n      0x00\n        /* \"#utility.yul\":12265:12271   */\n      dup3\n        /* \"#utility.yul\":12261:12275   */\n      add\n        /* \"#utility.yul\":12254:12299   */\n      mstore\n        /* \"#utility.yul\":12137:12306   */\n      pop\n      jump\t// out\n        /* \"#utility.yul\":12312:12678   */\n    tag_363:\n        /* \"#utility.yul\":12454:12457   */\n      0x00\n        /* \"#utility.yul\":12475:12542   */\n      tag_503\n        /* \"#utility.yul\":12539:12541   */\n      0x13\n        /* \"#utility.yul\":12534:12537   */\n      dup4\n        /* \"#utility.yul\":12475:12542   */\n      tag_328\n      jump\t// in\n    tag_503:\n        /* \"#utility.yul\":12468:12542   */\n      swap2\n      pop\n        /* \"#utility.yul\":12551:12644   */\n      tag_504\n        /* \"#utility.yul\":12640:12643   */\n      dup3\n        /* \"#utility.yul\":12551:12644   */\n      tag_362\n      jump\t// in\n    tag_504:\n        /* \"#utility.yul\":12669:12671   */\n      0x20\n        /* \"#utility.yul\":12664:12667   */\n      dup3\n        /* \"#utility.yul\":12660:12672   */\n      add\n        /* \"#utility.yul\":12653:12672   */\n      swap1\n      pop\n        /* \"#utility.yul\":12312:12678   */\n      swap2\n      swap1\n      pop\n      jump\t// out\n        /* \"#utility.yul\":12684:13103   */\n    tag_219:\n        /* \"#utility.yul\":12850:12854   */\n      0x00\n        /* \"#utility.yul\":12888:12890   */\n      0x20\n        /* \"#utility.yul\":12877:12886   */\n      dup3\n        /* \"#utility.yul\":12873:12891   */\n      add\n        /* \"#utility.yul\":12865:12891   */\n      swap1\n      pop\n        /* \"#utility.yul\":12937:12946   */\n      dup2\n        /* \"#utility.yul\":12931:12935   */\n      dup2\n        /* \"#utility.yul\":12927:12947   */\n      sub\n        /* \"#utility.yul\":12923:12924   */\n      0x00\n        /* \"#utility.yul\":12912:12921   */\n      dup4\n        /* \"#utility.yul\":12908:12925   */\n      add\n        /* \"#utility.yul\":12901:12948   */\n      mstore\n        /* \"#utility.yul\":12965:13096   */\n      tag_506\n        /* \"#utility.yul\":13091:13095   */\n      dup2\n        /* \"#utility.yul\":12965:13096   */\n      tag_363\n      jump\t// in\n    tag_506:\n        /* \"#utility.yul\":12957:13096   */\n      swap1\n      pop\n        /* \"#utility.yul\":12684:13103   */\n      swap2\n      swap1\n      pop\n      jump\t// out\n        /* \"#utility.yul\":13109:13441   */\n    tag_227:\n        /* \"#utility.yul\":13230:13234   */\n      0x00\n        /* \"#utility.yul\":13268:13270   */\n      0x40\n        /* \"#utility.yul\":13257:13266   */\n      dup3\n        /* \"#utility.yul\":13253:13271   */\n      add\n        /* \"#utility.yul\":13245:13271   */\n      swap1\n      pop\n        /* \"#utility.yul\":13281:13352   */\n      tag_508\n        /* \"#utility.yul\":13349:13350   */\n      0x00\n        /* \"#utility.yul\":13338:13347   */\n      dup4\n        /* \"#utility.yul\":13334:13351   */\n      add\n        /* \"#utility.yul\":13325:13331   */\n      dup6\n        /* \"#utility.yul\":13281:13352   */\n      tag_333\n      jump\t// in\n    tag_508:\n        /* \"#utility.yul\":13362:13434   */\n      tag_509\n        /* \"#utility.yul\":13430:13432   */\n      0x20\n        /* \"#utility.yul\":13419:13428   */\n      dup4\n        /* \"#utility.yul\":13415:13433   */\n      add\n        /* \"#utility.yul\":13406:13412   */\n      dup5\n        /* \"#utility.yul\":13362:13434   */\n      tag_345\n      jump\t// in\n    tag_509:\n        /* \"#utility.yul\":13109:13441   */\n      swap4\n      swap3\n      pop\n      pop\n      pop\n      jump\t// out\n        /* \"#utility.yul\":13447:13627   */\n    tag_364:\n        /* \"#utility.yul\":13587:13619   */\n      0x6e6f20746f6b656e20617661696c61626c6520666f722072656c656173650000\n        /* \"#utility.yul\":13583:13584   */\n      0x00\n        /* \"#utility.yul\":13575:13581   */\n      dup3\n        /* \"#utility.yul\":13571:13585   */\n      add\n        /* \"#utility.yul\":13564:13620   */\n      mstore\n        /* \"#utility.yul\":13447:13627   */\n      pop\n      jump\t// out\n        /* \"#utility.yul\":13633:13999   */\n    tag_365:\n        /* \"#utility.yul\":13775:13778   */\n      0x00\n        /* \"#utility.yul\":13796:13863   */\n      tag_512\n        /* \"#utility.yul\":13860:13862   */\n      0x1e\n        /* \"#utility.yul\":13855:13858   */\n      dup4\n        /* \"#utility.yul\":13796:13863   */\n      tag_328\n      jump\t// in\n    tag_512:\n        /* \"#utility.yul\":13789:13863   */\n      swap2\n      pop\n        /* \"#utility.yul\":13872:13965   */\n      tag_513\n        /* \"#utility.yul\":13961:13964   */\n      dup3\n        /* \"#utility.yul\":13872:13965   */\n      tag_364\n      jump\t// in\n    tag_513:\n        /* \"#utility.yul\":13990:13992   */\n      0x20\n        /* \"#utility.yul\":13985:13988   */\n      dup3\n        /* \"#utility.yul\":13981:13993   */\n      add\n        /* \"#utility.yul\":13974:13993   */\n      swap1\n      pop\n        /* \"#utility.yul\":13633:13999   */\n      swap2\n      swap1\n      pop\n      jump\t// out\n        /* \"#utility.yul\":14005:14424   */\n    tag_249:\n        /* \"#utility.yul\":14171:14175   */\n      0x00\n        /* \"#utility.yul\":14209:14211   */\n      0x20\n        /* \"#utility.yul\":14198:14207   */\n      dup3\n        /* \"#utility.yul\":14194:14212   */\n      add\n        /* \"#utility.yul\":14186:14212   */\n      swap1\n      pop\n        /* \"#utility.yul\":14258:14267   */\n      dup2\n        /* \"#utility.yul\":14252:14256   */\n      dup2\n        /* \"#utility.yul\":14248:14268   */\n      sub\n        /* \"#utility.yul\":14244:14245   */\n      0x00\n        /* \"#utility.yul\":14233:14242   */\n      dup4\n        /* \"#utility.yul\":14229:14246   */\n      add\n        /* \"#utility.yul\":14222:14269   */\n      mstore\n        /* \"#utility.yul\":14286:14417   */\n      tag_515\n        /* \"#utility.yul\":14412:14416   */\n      dup2\n        /* \"#utility.yul\":14286:14417   */\n      tag_365\n      jump\t// in\n    tag_515:\n        /* \"#utility.yul\":14278:14417   */\n      swap1\n      pop\n        /* \"#utility.yul\":14005:14424   */\n      swap2\n      swap1\n      pop\n      jump\t// out\n        /* \"#utility.yul\":14430:14602   */\n    tag_366:\n        /* \"#utility.yul\":14570:14594   */\n      0x6d617820746f6b656e20696d6974207265616368656400000000000000000000\n        /* \"#utility.yul\":14566:14567   */\n      0x00\n        /* \"#utility.yul\":14558:14564   */\n      dup3\n        /* \"#utility.yul\":14554:14568   */\n      add\n        /* \"#utility.yul\":14547:14595   */\n      mstore\n        /* \"#utility.yul\":14430:14602   */\n      pop\n      jump\t// out\n        /* \"#utility.yul\":14608:14974   */\n    tag_367:\n        /* \"#utility.yul\":14750:14753   */\n      0x00\n        /* \"#utility.yul\":14771:14838   */\n      tag_518\n        /* \"#utility.yul\":14835:14837   */\n      0x16\n        /* \"#utility.yul\":14830:14833   */\n      dup4\n        /* \"#utility.yul\":14771:14838   */\n      tag_328\n      jump\t// in\n    tag_518:\n        /* \"#utility.yul\":14764:14838   */\n      swap2\n      pop\n        /* \"#utility.yul\":14847:14940   */\n      tag_519\n        /* \"#utility.yul\":14936:14939   */\n      dup3\n        /* \"#utility.yul\":14847:14940   */\n      tag_366\n      jump\t// in\n    tag_519:\n        /* \"#utility.yul\":14965:14967   */\n      0x20\n        /* \"#utility.yul\":14960:14963   */\n      dup3\n        /* \"#utility.yul\":14956:14968   */\n      add\n        /* \"#utility.yul\":14949:14968   */\n      swap1\n      pop\n        /* \"#utility.yul\":14608:14974   */\n      swap2\n      swap1\n      pop\n      jump\t// out\n        /* \"#utility.yul\":14980:15399   */\n    tag_252:\n        /* \"#utility.yul\":15146:15150   */\n      0x00\n        /* \"#utility.yul\":15184:15186   */\n      0x20\n        /* \"#utility.yul\":15173:15182   */\n      dup3\n        /* \"#utility.yul\":15169:15187   */\n      add\n        /* \"#utility.yul\":15161:15187   */\n      swap1\n      pop\n        /* \"#utility.yul\":15233:15242   */\n      dup2\n        /* \"#utility.yul\":15227:15231   */\n      dup2\n        /* \"#utility.yul\":15223:15243   */\n      sub\n        /* \"#utility.yul\":15219:15220   */\n      0x00\n        /* \"#utility.yul\":15208:15217   */\n      dup4\n        /* \"#utility.yul\":15204:15221   */\n      add\n        /* \"#utility.yul\":15197:15244   */\n      mstore\n        /* \"#utility.yul\":15261:15392   */\n      tag_521\n        /* \"#utility.yul\":15387:15391   */\n      dup2\n        /* \"#utility.yul\":15261:15392   */\n      tag_367\n      jump\t// in\n    tag_521:\n        /* \"#utility.yul\":15253:15392   */\n      swap1\n      pop\n        /* \"#utility.yul\":14980:15399   */\n      swap2\n      swap1\n      pop\n      jump\t// out\n        /* \"#utility.yul\":15405:15586   */\n    tag_368:\n        /* \"#utility.yul\":15545:15578   */\n      0x5265656e7472616e637947756172643a207265656e7472616e742063616c6c00\n        /* \"#utility.yul\":15541:15542   */\n      0x00\n        /* \"#utility.yul\":15533:15539   */\n      dup3\n        /* \"#utility.yul\":15529:15543   */\n      add\n        /* \"#utility.yul\":15522:15579   */\n      mstore\n        /* \"#utility.yul\":15405:15586   */\n      pop\n      jump\t// out\n        /* \"#utility.yul\":15592:15958   */\n    tag_369:\n        /* \"#utility.yul\":15734:15737   */\n      0x00\n        /* \"#utility.yul\":15755:15822   */\n      tag_524\n        /* \"#utility.yul\":15819:15821   */\n      0x1f\n        /* \"#utility.yul\":15814:15817   */\n      dup4\n        /* \"#utility.yul\":15755:15822   */\n      tag_328\n      jump\t// in\n    tag_524:\n        /* \"#utility.yul\":15748:15822   */\n      swap2\n      pop\n        /* \"#utility.yul\":15831:15924   */\n      tag_525\n        /* \"#utility.yul\":15920:15923   */\n      dup3\n        /* \"#utility.yul\":15831:15924   */\n      tag_368\n      jump\t// in\n    tag_525:\n        /* \"#utility.yul\":15949:15951   */\n      0x20\n        /* \"#utility.yul\":15944:15947   */\n      dup3\n        /* \"#utility.yul\":15940:15952   */\n      add\n        /* \"#utility.yul\":15933:15952   */\n      swap1\n      pop\n        /* \"#utility.yul\":15592:15958   */\n      swap2\n      swap1\n      pop\n      jump\t// out\n        /* \"#utility.yul\":15964:16383   */\n    tag_275:\n        /* \"#utility.yul\":16130:16134   */\n      0x00\n        /* \"#utility.yul\":16168:16170   */\n      0x20\n        /* \"#utility.yul\":16157:16166   */\n      dup3\n        /* \"#utility.yul\":16153:16171   */\n      add\n        /* \"#utility.yul\":16145:16171   */\n      swap1\n      pop\n        /* \"#utility.yul\":16217:16226   */\n      dup2\n        /* \"#utility.yul\":16211:16215   */\n      dup2\n        /* \"#utility.yul\":16207:16227   */\n      sub\n        /* \"#utility.yul\":16203:16204   */\n      0x00\n        /* \"#utility.yul\":16192:16201   */\n      dup4\n        /* \"#utility.yul\":16188:16205   */\n      add\n        /* \"#utility.yul\":16181:16228   */\n      mstore\n        /* \"#utility.yul\":16245:16376   */\n      tag_527\n        /* \"#utility.yul\":16371:16375   */\n      dup2\n        /* \"#utility.yul\":16245:16376   */\n      tag_369\n      jump\t// in\n    tag_527:\n        /* \"#utility.yul\":16237:16376   */\n      swap1\n      pop\n        /* \"#utility.yul\":15964:16383   */\n      swap2\n      swap1\n      pop\n      jump\t// out\n        /* \"#utility.yul\":16389:16831   */\n    tag_287:\n        /* \"#utility.yul\":16538:16542   */\n      0x00\n        /* \"#utility.yul\":16576:16578   */\n      0x60\n        /* \"#utility.yul\":16565:16574   */\n      dup3\n        /* \"#utility.yul\":16561:16579   */\n      add\n        /* \"#utility.yul\":16553:16579   */\n      swap1\n      pop\n        /* \"#utility.yul\":16589:16660   */\n      tag_529\n        /* \"#utility.yul\":16657:16658   */\n      0x00\n        /* \"#utility.yul\":16646:16655   */\n      dup4\n        /* \"#utility.yul\":16642:16659   */\n      add\n        /* \"#utility.yul\":16633:16639   */\n      dup7\n        /* \"#utility.yul\":16589:16660   */\n      tag_345\n      jump\t// in\n    tag_529:\n        /* \"#utility.yul\":16670:16742   */\n      tag_530\n        /* \"#utility.yul\":16738:16740   */\n      0x20\n        /* \"#utility.yul\":16727:16736   */\n      dup4\n        /* \"#utility.yul\":16723:16741   */\n      add\n        /* \"#utility.yul\":16714:16720   */\n      dup6\n        /* \"#utility.yul\":16670:16742   */\n      tag_333\n      jump\t// in\n    tag_530:\n        /* \"#utility.yul\":16752:16824   */\n      tag_531\n        /* \"#utility.yul\":16820:16822   */\n      0x40\n        /* \"#utility.yul\":16809:16818   */\n      dup4\n        /* \"#utility.yul\":16805:16823   */\n      add\n        /* \"#utility.yul\":16796:16802   */\n      dup5\n        /* \"#utility.yul\":16752:16824   */\n      tag_333\n      jump\t// in\n    tag_531:\n        /* \"#utility.yul\":16389:16831   */\n      swap5\n      swap4\n      pop\n      pop\n      pop\n      pop\n      jump\t// out\n\n    auxdata: 0xa26469706673582212201e68689faab59f77a2bb4f3b877489ec46d2bf5de7f1c820060292283356da6264736f6c634300081a0033\n}\n",
				"bytecode": {
					"linkReferences": {},
					"object": "6080604052600160085560016009556a52b7d2dcc80cd2e4000000600d556a52b7d2dcc80cd2e4000000600f556301da9c006011556a3e09de2596099e2b00000060125534801561004e575f80fd5b5060405161298d38038061298d83398181016040528101906100709190610632565b336040518060400160405280600a81526020017f584f524120546f6b656e000000000000000000000000000000000000000000008152506040518060400160405280600481526020017f584f52410000000000000000000000000000000000000000000000000000000081525081600390816100ec9190610897565b5080600490816100fc9190610897565b5050505f73ffffffffffffffffffffffffffffffffffffffff168173ffffffffffffffffffffffffffffffffffffffff160361016f575f6040517f1e4fbdf70000000000000000000000000000000000000000000000000000000081526004016101669190610975565b60405180910390fd5b61017e8161027360201b60201c565b5060016006819055506101b773dd870fa1b7c4700f2bd7f44238821c26f73921486b01743b34e18439b50200000061033660201b60201c565b6101d2816a7c13bc4b2c133c5600000061033660201b60201c565b6102017314723a09acff6d2a60dcdf7aa4aff308fddc160c6a14adf4b7320334b900000061033660201b60201c565b61023073ca35b7d915458ef540ade6068dfe2f44e8fa733c6a52b7d2dcc80cd2e400000061033660201b60201c565b61025f730a098eda01ce92ff4a4ccb7a4fffb5a43ebc70dc6a52b7d2dcc80cd2e400000061033660201b60201c565b42600c8190555042600e8190555050610a4b565b5f60055f9054906101000a900473ffffffffffffffffffffffffffffffffffffffff1690508160055f6101000a81548173ffffffffffffffffffffffffffffffffffffffff021916908373ffffffffffffffffffffffffffffffffffffffff1602179055508173ffffffffffffffffffffffffffffffffffffffff168173ffffffffffffffffffffffffffffffffffffffff167f8be0079c531659141344cd1fd0a4f28419497f9722a3daafe3b4186f6b6457e060405160405180910390a35050565b5f73ffffffffffffffffffffffffffffffffffffffff168273ffffffffffffffffffffffffffffffffffffffff16036103a6575f6040517fec442f0500000000000000000000000000000000000000000000000000000000815260040161039d9190610975565b60405180910390fd5b6103b75f83836103bb60201b60201c565b5050565b5f73ffffffffffffffffffffffffffffffffffffffff168373ffffffffffffffffffffffffffffffffffffffff160361040b578060025f8282546103ff91906109bb565b925050819055506104d9565b5f805f8573ffffffffffffffffffffffffffffffffffffffff1673ffffffffffffffffffffffffffffffffffffffff1681526020019081526020015f2054905081811015610494578381836040517fe450d38c00000000000000000000000000000000000000000000000000000000815260040161048b939291906109fd565b60405180910390fd5b8181035f808673ffffffffffffffffffffffffffffffffffffffff1673ffffffffffffffffffffffffffffffffffffffff1681526020019081526020015f2081905550505b5f73ffffffffffffffffffffffffffffffffffffffff168273ffffffffffffffffffffffffffffffffffffffff1603610520578060025f828254039250508190555061056a565b805f808473ffffffffffffffffffffffffffffffffffffffff1673ffffffffffffffffffffffffffffffffffffffff1681526020019081526020015f205f82825401925050819055505b8173ffffffffffffffffffffffffffffffffffffffff168373ffffffffffffffffffffffffffffffffffffffff167fddf252ad1be2c89b69c2b068fc378daa952ba7f163c4a11628f55a4df523b3ef836040516105c79190610a32565b60405180910390a3505050565b5f80fd5b5f73ffffffffffffffffffffffffffffffffffffffff82169050919050565b5f610601826105d8565b9050919050565b610611816105f7565b811461061b575f80fd5b50565b5f8151905061062c81610608565b92915050565b5f60208284031215610647576106466105d4565b5b5f6106548482850161061e565b91505092915050565b5f81519050919050565b7f4e487b71000000000000000000000000000000000000000000000000000000005f52604160045260245ffd5b7f4e487b71000000000000000000000000000000000000000000000000000000005f52602260045260245ffd5b5f60028204905060018216806106d857607f821691505b6020821081036106eb576106ea610694565b5b50919050565b5f819050815f5260205f209050919050565b5f6020601f8301049050919050565b5f82821b905092915050565b5f6008830261074d7fffffffffffffffffffffffffffffffffffffffffffffffffffffffffffffffff82610712565b6107578683610712565b95508019841693508086168417925050509392505050565b5f819050919050565b5f819050919050565b5f61079b6107966107918461076f565b610778565b61076f565b9050919050565b5f819050919050565b6107b483610781565b6107c86107c0826107a2565b84845461071e565b825550505050565b5f90565b6107dc6107d0565b6107e78184846107ab565b505050565b5b8181101561080a576107ff5f826107d4565b6001810190506107ed565b5050565b601f82111561084f57610820816106f1565b61082984610703565b81016020851015610838578190505b61084c61084485610703565b8301826107ec565b50505b505050565b5f82821c905092915050565b5f61086f5f1984600802610854565b1980831691505092915050565b5f6108878383610860565b9150826002028217905092915050565b6108a08261065d565b67ffffffffffffffff8111156108b9576108b8610667565b5b6108c382546106c1565b6108ce82828561080e565b5f60209050601f8311600181146108ff575f84156108ed578287015190505b6108f7858261087c565b86555061095e565b601f19841661090d866106f1565b5f5b828110156109345784890151825560018201915060208501945060208101905061090f565b86831015610951578489015161094d601f891682610860565b8355505b6001600288020188555050505b505050505050565b61096f816105f7565b82525050565b5f6020820190506109885f830184610966565b92915050565b7f4e487b71000000000000000000000000000000000000000000000000000000005f52601160045260245ffd5b5f6109c58261076f565b91506109d08361076f565b92508282019050808211156109e8576109e761098e565b5b92915050565b6109f78161076f565b82525050565b5f606082019050610a105f830186610966565b610a1d60208301856109ee565b610a2a60408301846109ee565b949350505050565b5f602082019050610a455f8301846109ee565b92915050565b611f3580610a585f395ff3fe608060405234801561000f575f80fd5b5060043610610204575f3560e01c8063715018a611610118578063a9059cbb116100ab578063dc31adee1161007a578063dc31adee14610578578063dd62ed3e14610582578063df7f989f146105b2578063e9cbd822146105d0578063f2fde38b146105ee57610204565b8063a9059cbb146104ee578063b0a65b3e1461051e578063ba115cb61461053c578063cc1776d31461055a57610204565b80638da5cb5b116100e75780638da5cb5b14610478578063926165d71461049657806395d89b41146104b2578063a6f59846146104d057610204565b8063715018a6146104285780637b0a47ee146104325780638b887e7e146104505780638cbb6df71461045a57610204565b80632cca9dfd1161019b5780633adde9c11161016a5780633adde9c1146103805780634f0dbaf21461039e5780634f7041a5146103bc57806356bf536c146103da57806370a08231146103f857610204565b80632cca9dfd146103085780632ff2e9dc14610326578063313ce56714610344578063329430ca1461036257610204565b806318160ddd116101d757806318160ddd1461027e5780631f6722b61461029c57806323256627146102ba57806323b872dd146102d857610204565b806306fdde03146102085780630733f92b14610226578063095ea7b31461024457806314c411c714610274575b5f80fd5b61021061060a565b60405161021d919061172c565b60405180910390f35b61022e61069a565b60405161023b9190611764565b60405180910390f35b61025e60048036038101906102599190611805565b6106a0565b60405161026b919061185d565b60405180910390f35b61027c6106c2565b005b610286610843565b6040516102939190611764565b60405180910390f35b6102a461084c565b6040516102b19190611764565b60405180910390f35b6102c2610852565b6040516102cf9190611764565b60405180910390f35b6102f260048036038101906102ed9190611876565b610857565b6040516102ff919061185d565b60405180910390f35b610310610885565b60405161031d91906118d5565b60405180910390f35b61032e61089d565b60405161033b9190611764565b60405180910390f35b61034c6108ad565b6040516103599190611909565b60405180910390f35b61036a6108b5565b6040516103779190611764565b60405180910390f35b6103886108bb565b6040516103959190611764565b60405180910390f35b6103a66108c3565b6040516103b391906118d5565b60405180910390f35b6103c46108db565b6040516103d19190611764565b60405180910390f35b6103e26108e1565b6040516103ef91906118d5565b60405180910390f35b610412600480360381019061040d9190611922565b6108f9565b60405161041f9190611764565b60405180910390f35b61043061093e565b005b61043a610951565b6040516104479190611764565b60405180910390f35b610458610957565b005b610462610a02565b60405161046f9190611764565b60405180910390f35b610480610a08565b60405161048d91906118d5565b60405180910390f35b6104b060048036038101906104ab919061194d565b610a30565b005b6104ba610ac3565b6040516104c7919061172c565b60405180910390f35b6104d8610b53565b6040516104e59190611764565b60405180910390f35b61050860048036038101906105039190611805565b610b59565b604051610515919061185d565b60405180910390f35b610526610b7b565b60405161053391906118d5565b60405180910390f35b610544610b93565b60405161055191906118d5565b60405180910390f35b610562610bab565b60405161056f9190611764565b60405180910390f35b610580610bb1565b005b61059c6004803603810190610597919061198b565b610ccd565b6040516105a99190611764565b60405180910390f35b6105ba610d4f565b6040516105c791906118d5565b60405180910390f35b6105d8610d67565b6040516105e59190611a24565b60405180910390f35b61060860048036038101906106039190611922565b610d8c565b005b60606003805461061990611a6a565b80601f016020809104026020016040519081016040528092919081815260200182805461064590611a6a565b80156106905780601f1061066757610100808354040283529160200191610690565b820191905f5260205f20905b81548152906001019060200180831161067357829003601f168201915b5050505050905090565b60135481565b5f806106aa610e10565b90506106b7818585610e17565b600191505092915050565b6106ca610e29565b6106d2610eb0565b6302c7ea00600c546106e49190611ac7565b421015610726576040517f08c379a000000000000000000000000000000000000000000000000000000000815260040161071d90611b44565b60405180910390fd5b5f6302c7ea00600c546107399190611ac7565b426107449190611b62565b90505f630784ce0082600f5461075a9190611b95565b6107649190611c03565b90505f601054826107759190611b62565b90508060105f8282546107889190611ac7565b925050819055505f82116107d1576040517f08c379a00000000000000000000000000000000000000000000000000000000081526004016107c890611c7d565b60405180910390fd5b600f546010541115610818576040517f08c379a000000000000000000000000000000000000000000000000000000000815260040161080f90611ce5565b60405180910390fd5b610836734b0897b0513fdc7c541b6d9d7e929c4e5364d2db82610eff565b505050610841610f7e565b565b5f600254905090565b60125481565b601981565b5f80610861610e10565b905061086e858285610f88565b61087985858561101a565b60019150509392505050565b73583031d1113ad414f02576bd6afabfb30214022581565b6b033b2e3c9fd0803ce800000081565b5f6012905090565b600f5481565b6301e1338081565b73dd870fa1b7c4700f2bd7f44238821c26f739214881565b60085481565b73ca35b7d915458ef540ade6068dfe2f44e8fa733c81565b5f805f8373ffffffffffffffffffffffffffffffffffffffff1673ffffffffffffffffffffffffffffffffffffffff1681526020019081526020015f20549050919050565b610946610e29565b61094f5f6110a2565b565b600b5481565b6301e13380600a546109699190611ac7565b4210156109ab576040517f08c379a00000000000000000000000000000000000000000000000000000000081526004016109a290611d4d565b60405180910390fd5b6002600b546109ba9190611c03565b600b8190555042600a819055507ff92b4d3a8d8ba77170dd5cf6b65260191092093f924263a88c3c60dd8495f091600b546040516109f89190611764565b60405180910390a1565b600a5481565b5f60055f9054906101000a900473ffffffffffffffffffffffffffffffffffffffff16905090565b610a38610e29565b81600b819055508060075f6101000a81548173ffffffffffffffffffffffffffffffffffffffff021916908373ffffffffffffffffffffffffffffffffffffffff16021790555042600a819055507fde2d0064b82669942e6a9cff523014473c366efc3cf147b14e0b1f4cbecc4bc88282604051610ab7929190611d6b565b60405180910390a15050565b606060048054610ad290611a6a565b80601f0160208091040260200160405190810160405280929190818152602001828054610afe90611a6a565b8015610b495780601f10610b2057610100808354040283529160200191610b49565b820191905f5260205f20905b815481529060010190602001808311610b2c57829003601f168201915b5050505050905090565b60105481565b5f80610b63610e10565b9050610b7081858561101a565b600191505092915050565b730a098eda01ce92ff4a4ccb7a4fffb5a43ebc70dc81565b7314723a09acff6d2a60dcdf7aa4aff308fddc160c81565b60095481565b610bb9610e29565b610bc1610eb0565b5f600e5442610bd09190611b62565b90505f60115482601254610be49190611b95565b610bee9190611c03565b90505f60135482610bff9190611b62565b90508060135f828254610c129190611ac7565b925050819055505f8211610c5b576040517f08c379a0000000000000000000000000000000000000000000000000000000008152600401610c5290611ddc565b60405180910390fd5b6012546013541115610ca2576040517f08c379a0000000000000000000000000000000000000000000000000000000008152600401610c9990611e44565b60405180910390fd5b610cc07314723a09acff6d2a60dcdf7aa4aff308fddc160c82610eff565b505050610ccb610f7e565b565b5f60015f8473ffffffffffffffffffffffffffffffffffffffff1673ffffffffffffffffffffffffffffffffffffffff1681526020019081526020015f205f8373ffffffffffffffffffffffffffffffffffffffff1673ffffffffffffffffffffffffffffffffffffffff1681526020019081526020015f2054905092915050565b734b0897b0513fdc7c541b6d9d7e929c4e5364d2db81565b60075f9054906101000a900473ffffffffffffffffffffffffffffffffffffffff1681565b610d94610e29565b5f73ffffffffffffffffffffffffffffffffffffffff168173ffffffffffffffffffffffffffffffffffffffff1603610e04575f6040517f1e4fbdf7000000000000000000000000000000000000000000000000000000008152600401610dfb91906118d5565b60405180910390fd5b610e0d816110a2565b50565b5f33905090565b610e248383836001611165565b505050565b610e31610e10565b73ffffffffffffffffffffffffffffffffffffffff16610e4f610a08565b73ffffffffffffffffffffffffffffffffffffffff1614610eae57610e72610e10565b6040517f118cdaa7000000000000000000000000000000000000000000000000000000008152600401610ea591906118d5565b60405180910390fd5b565b600260065403610ef5576040517f08c379a0000000000000000000000000000000000000000000000000000000008152600401610eec90611eac565b60405180910390fd5b6002600681905550565b5f73ffffffffffffffffffffffffffffffffffffffff168273ffffffffffffffffffffffffffffffffffffffff1603610f6f575f6040517fec442f05000000000000000000000000000000000000000000000000000000008152600401610f6691906118d5565b60405180910390fd5b610f7a5f8383611334565b5050565b6001600681905550565b5f610f938484610ccd565b90507fffffffffffffffffffffffffffffffffffffffffffffffffffffffffffffffff81146110145781811015611005578281836040517ffb8f41b2000000000000000000000000000000000000000000000000000000008152600401610ffc93929190611eca565b60405180910390fd5b61101384848484035f611165565b5b50505050565b5f60643073ffffffffffffffffffffffffffffffffffffffff168473ffffffffffffffffffffffffffffffffffffffff16146110585760085461105c565b6009545b836110679190611b95565b6110719190611c03565b9050611089848483856110849190611b62565b61154d565b5f81111561109c5761109b848261163d565b5b50505050565b5f60055f9054906101000a900473ffffffffffffffffffffffffffffffffffffffff1690508160055f6101000a81548173ffffffffffffffffffffffffffffffffffffffff021916908373ffffffffffffffffffffffffffffffffffffffff1602179055508173ffffffffffffffffffffffffffffffffffffffff168173ffffffffffffffffffffffffffffffffffffffff167f8be0079c531659141344cd1fd0a4f28419497f9722a3daafe3b4186f6b6457e060405160405180910390a35050565b5f73ffffffffffffffffffffffffffffffffffffffff168473ffffffffffffffffffffffffffffffffffffffff16036111d5575f6040517fe602df050000000000000000000000000000000000000000000000000000000081526004016111cc91906118d5565b60405180910390fd5b5f73ffffffffffffffffffffffffffffffffffffffff168373ffffffffffffffffffffffffffffffffffffffff1603611245575f6040517f94280d6200000000000000000000000000000000000000000000000000000000815260040161123c91906118d5565b60405180910390fd5b8160015f8673ffffffffffffffffffffffffffffffffffffffff1673ffffffffffffffffffffffffffffffffffffffff1681526020019081526020015f205f8573ffffffffffffffffffffffffffffffffffffffff1673ffffffffffffffffffffffffffffffffffffffff1681526020019081526020015f2081905550801561132e578273ffffffffffffffffffffffffffffffffffffffff168473ffffffffffffffffffffffffffffffffffffffff167f8c5be1e5ebec7d5bd14f71427d1e84f3dd0314c0f7b2291e5b200ac8c7c3b925846040516113259190611764565b60405180910390a35b50505050565b5f73ffffffffffffffffffffffffffffffffffffffff168373ffffffffffffffffffffffffffffffffffffffff1603611384578060025f8282546113789190611ac7565b92505081905550611452565b5f805f8573ffffffffffffffffffffffffffffffffffffffff1673ffffffffffffffffffffffffffffffffffffffff1681526020019081526020015f205490508181101561140d578381836040517fe450d38c00000000000000000000000000000000000000000000000000000000815260040161140493929190611eca565b60405180910390fd5b8181035f808673ffffffffffffffffffffffffffffffffffffffff1673ffffffffffffffffffffffffffffffffffffffff1681526020019081526020015f2081905550505b5f73ffffffffffffffffffffffffffffffffffffffff168273ffffffffffffffffffffffffffffffffffffffff1603611499578060025f82825403925050819055506114e3565b805f808473ffffffffffffffffffffffffffffffffffffffff1673ffffffffffffffffffffffffffffffffffffffff1681526020019081526020015f205f82825401925050819055505b8173ffffffffffffffffffffffffffffffffffffffff168373ffffffffffffffffffffffffffffffffffffffff167fddf252ad1be2c89b69c2b068fc378daa952ba7f163c4a11628f55a4df523b3ef836040516115409190611764565b60405180910390a3505050565b5f73ffffffffffffffffffffffffffffffffffffffff168373ffffffffffffffffffffffffffffffffffffffff16036115bd575f6040517f96c6fd1e0000000000000000000000000000000000000000000000000000000081526004016115b491906118d5565b60405180910390fd5b5f73ffffffffffffffffffffffffffffffffffffffff168273ffffffffffffffffffffffffffffffffffffffff160361162d575f6040517fec442f0500000000000000000000000000000000000000000000000000000000815260040161162491906118d5565b60405180910390fd5b611638838383611334565b505050565b5f73ffffffffffffffffffffffffffffffffffffffff168273ffffffffffffffffffffffffffffffffffffffff16036116ad575f6040517f96c6fd1e0000000000000000000000000000000000000000000000000000000081526004016116a491906118d5565b60405180910390fd5b6116b8825f83611334565b5050565b5f81519050919050565b5f82825260208201905092915050565b8281835e5f83830152505050565b5f601f19601f8301169050919050565b5f6116fe826116bc565b61170881856116c6565b93506117188185602086016116d6565b611721816116e4565b840191505092915050565b5f6020820190508181035f83015261174481846116f4565b905092915050565b5f819050919050565b61175e8161174c565b82525050565b5f6020820190506117775f830184611755565b92915050565b5f80fd5b5f73ffffffffffffffffffffffffffffffffffffffff82169050919050565b5f6117aa82611781565b9050919050565b6117ba816117a0565b81146117c4575f80fd5b50565b5f813590506117d5816117b1565b92915050565b6117e48161174c565b81146117ee575f80fd5b50565b5f813590506117ff816117db565b92915050565b5f806040838503121561181b5761181a61177d565b5b5f611828858286016117c7565b9250506020611839858286016117f1565b9150509250929050565b5f8115159050919050565b61185781611843565b82525050565b5f6020820190506118705f83018461184e565b92915050565b5f805f6060848603121561188d5761188c61177d565b5b5f61189a868287016117c7565b93505060206118ab868287016117c7565b92505060406118bc868287016117f1565b9150509250925092565b6118cf816117a0565b82525050565b5f6020820190506118e85f8301846118c6565b92915050565b5f60ff82169050919050565b611903816118ee565b82525050565b5f60208201905061191c5f8301846118fa565b92915050565b5f602082840312156119375761193661177d565b5b5f611944848285016117c7565b91505092915050565b5f80604083850312156119635761196261177d565b5b5f611970858286016117f1565b9250506020611981858286016117c7565b9150509250929050565b5f80604083850312156119a1576119a061177d565b5b5f6119ae858286016117c7565b92505060206119bf858286016117c7565b9150509250929050565b5f819050919050565b5f6119ec6119e76119e284611781565b6119c9565b611781565b9050919050565b5f6119fd826119d2565b9050919050565b5f611a0e826119f3565b9050919050565b611a1e81611a04565b82525050565b5f602082019050611a375f830184611a15565b92915050565b7f4e487b71000000000000000000000000000000000000000000000000000000005f52602260045260245ffd5b5f6002820490506001821680611a8157607f821691505b602082108103611a9457611a93611a3d565b5b50919050565b7f4e487b71000000000000000000000000000000000000000000000000000000005f52601160045260245ffd5b5f611ad18261174c565b9150611adc8361174c565b9250828201905080821115611af457611af3611a9a565b5b92915050565b7f5465616d2076657374696e6720636c696666206e6f74207265616368656400005f82015250565b5f611b2e601e836116c6565b9150611b3982611afa565b602082019050919050565b5f6020820190508181035f830152611b5b81611b22565b9050919050565b5f611b6c8261174c565b9150611b778361174c565b9250828203905081811115611b8f57611b8e611a9a565b5b92915050565b5f611b9f8261174c565b9150611baa8361174c565b9250828202611bb88161174c565b91508282048414831517611bcf57611bce611a9a565b5b5092915050565b7f4e487b71000000000000000000000000000000000000000000000000000000005f52601260045260245ffd5b5f611c0d8261174c565b9150611c188361174c565b925082611c2857611c27611bd6565b5b828204905092915050565b7f4e6f20746f6b656e7320617661696c61626c6520666f722072656c65617365005f82015250565b5f611c67601f836116c6565b9150611c7282611c33565b602082019050919050565b5f6020820190508181035f830152611c9481611c5b565b9050919050565b7f6d617820746f6b656e206c696d697420726561636865640000000000000000005f82015250565b5f611ccf6017836116c6565b9150611cda82611c9b565b602082019050919050565b5f6020820190508181035f830152611cfc81611cc3565b9050919050565b7f48616c76696e67206e6f742064756520796574000000000000000000000000005f82015250565b5f611d376013836116c6565b9150611d4282611d03565b602082019050919050565b5f6020820190508181035f830152611d6481611d2b565b9050919050565b5f604082019050611d7e5f830185611755565b611d8b60208301846118c6565b9392505050565b7f6e6f20746f6b656e20617661696c61626c6520666f722072656c6561736500005f82015250565b5f611dc6601e836116c6565b9150611dd182611d92565b602082019050919050565b5f6020820190508181035f830152611df381611dba565b9050919050565b7f6d617820746f6b656e20696d69742072656163686564000000000000000000005f82015250565b5f611e2e6016836116c6565b9150611e3982611dfa565b602082019050919050565b5f6020820190508181035f830152611e5b81611e22565b9050919050565b7f5265656e7472616e637947756172643a207265656e7472616e742063616c6c005f82015250565b5f611e96601f836116c6565b9150611ea182611e62565b602082019050919050565b5f6020820190508181035f830152611ec381611e8a565b9050919050565b5f606082019050611edd5f8301866118c6565b611eea6020830185611755565b611ef76040830184611755565b94935050505056fea26469706673582212201e68689faab59f77a2bb4f3b877489ec46d2bf5de7f1c820060292283356da6264736f6c634300081a0033",
					"opcodes": "PUSH1 0x80 PUSH1 0x40 MSTORE PUSH1 0x1 PUSH1 0x8 SSTORE PUSH1 0x1 PUSH1 0x9 SSTORE PUSH11 0x52B7D2DCC80CD2E4000000 PUSH1 0xD SSTORE PUSH11 0x52B7D2DCC80CD2E4000000 PUSH1 0xF SSTORE PUSH4 0x1DA9C00 PUSH1 0x11 SSTORE PUSH11 0x3E09DE2596099E2B000000 PUSH1 0x12 SSTORE CALLVALUE DUP1 ISZERO PUSH2 0x4E JUMPI PUSH0 DUP1 REVERT JUMPDEST POP PUSH1 0x40 MLOAD PUSH2 0x298D CODESIZE SUB DUP1 PUSH2 0x298D DUP4 CODECOPY DUP2 DUP2 ADD PUSH1 0x40 MSTORE DUP2 ADD SWAP1 PUSH2 0x70 SWAP2 SWAP1 PUSH2 0x632 JUMP JUMPDEST CALLER PUSH1 0x40 MLOAD DUP1 PUSH1 0x40 ADD PUSH1 0x40 MSTORE DUP1 PUSH1 0xA DUP2 MSTORE PUSH1 0x20 ADD PUSH32 0x584F524120546F6B656E00000000000000000000000000000000000000000000 DUP2 MSTORE POP PUSH1 0x40 MLOAD DUP1 PUSH1 0x40 ADD PUSH1 0x40 MSTORE DUP1 PUSH1 0x4 DUP2 MSTORE PUSH1 0x20 ADD PUSH32 0x584F524100000000000000000000000000000000000000000000000000000000 DUP2 MSTORE POP DUP2 PUSH1 0x3 SWAP1 DUP2 PUSH2 0xEC SWAP2 SWAP1 PUSH2 0x897 JUMP JUMPDEST POP DUP1 PUSH1 0x4 SWAP1 DUP2 PUSH2 0xFC SWAP2 SWAP1 PUSH2 0x897 JUMP JUMPDEST POP POP POP PUSH0 PUSH20 0xFFFFFFFFFFFFFFFFFFFFFFFFFFFFFFFFFFFFFFFF AND DUP2 PUSH20 0xFFFFFFFFFFFFFFFFFFFFFFFFFFFFFFFFFFFFFFFF AND SUB PUSH2 0x16F JUMPI PUSH0 PUSH1 0x40 MLOAD PUSH32 0x1E4FBDF700000000000000000000000000000000000000000000000000000000 DUP2 MSTORE PUSH1 0x4 ADD PUSH2 0x166 SWAP2 SWAP1 PUSH2 0x975 JUMP JUMPDEST PUSH1 0x40 MLOAD DUP1 SWAP2 SUB SWAP1 REVERT JUMPDEST PUSH2 0x17E DUP2 PUSH2 0x273 PUSH1 0x20 SHL PUSH1 0x20 SHR JUMP JUMPDEST POP PUSH1 0x1 PUSH1 0x6 DUP2 SWAP1 SSTORE POP PUSH2 0x1B7 PUSH20 0xDD870FA1B7C4700F2BD7F44238821C26F7392148 PUSH12 0x1743B34E18439B502000000 PUSH2 0x336 PUSH1 0x20 SHL PUSH1 0x20 SHR JUMP JUMPDEST PUSH2 0x1D2 DUP2 PUSH11 0x7C13BC4B2C133C56000000 PUSH2 0x336 PUSH1 0x20 SHL PUSH1 0x20 SHR JUMP JUMPDEST PUSH2 0x201 PUSH20 0x14723A09ACFF6D2A60DCDF7AA4AFF308FDDC160C PUSH11 0x14ADF4B7320334B9000000 PUSH2 0x336 PUSH1 0x20 SHL PUSH1 0x20 SHR JUMP JUMPDEST PUSH2 0x230 PUSH20 0xCA35B7D915458EF540ADE6068DFE2F44E8FA733C PUSH11 0x52B7D2DCC80CD2E4000000 PUSH2 0x336 PUSH1 0x20 SHL PUSH1 0x20 SHR JUMP JUMPDEST PUSH2 0x25F PUSH20 0xA098EDA01CE92FF4A4CCB7A4FFFB5A43EBC70DC PUSH11 0x52B7D2DCC80CD2E4000000 PUSH2 0x336 PUSH1 0x20 SHL PUSH1 0x20 SHR JUMP JUMPDEST TIMESTAMP PUSH1 0xC DUP2 SWAP1 SSTORE POP TIMESTAMP PUSH1 0xE DUP2 SWAP1 SSTORE POP POP PUSH2 0xA4B JUMP JUMPDEST PUSH0 PUSH1 0x5 PUSH0 SWAP1 SLOAD SWAP1 PUSH2 0x100 EXP SWAP1 DIV PUSH20 0xFFFFFFFFFFFFFFFFFFFFFFFFFFFFFFFFFFFFFFFF AND SWAP1 POP DUP2 PUSH1 0x5 PUSH0 PUSH2 0x100 EXP DUP2 SLOAD DUP2 PUSH20 0xFFFFFFFFFFFFFFFFFFFFFFFFFFFFFFFFFFFFFFFF MUL NOT AND SWAP1 DUP4 PUSH20 0xFFFFFFFFFFFFFFFFFFFFFFFFFFFFFFFFFFFFFFFF AND MUL OR SWAP1 SSTORE POP DUP2 PUSH20 0xFFFFFFFFFFFFFFFFFFFFFFFFFFFFFFFFFFFFFFFF AND DUP2 PUSH20 0xFFFFFFFFFFFFFFFFFFFFFFFFFFFFFFFFFFFFFFFF AND PUSH32 0x8BE0079C531659141344CD1FD0A4F28419497F9722A3DAAFE3B4186F6B6457E0 PUSH1 0x40 MLOAD PUSH1 0x40 MLOAD DUP1 SWAP2 SUB SWAP1 LOG3 POP POP JUMP JUMPDEST PUSH0 PUSH20 0xFFFFFFFFFFFFFFFFFFFFFFFFFFFFFFFFFFFFFFFF AND DUP3 PUSH20 0xFFFFFFFFFFFFFFFFFFFFFFFFFFFFFFFFFFFFFFFF AND SUB PUSH2 0x3A6 JUMPI PUSH0 PUSH1 0x40 MLOAD PUSH32 0xEC442F0500000000000000000000000000000000000000000000000000000000 DUP2 MSTORE PUSH1 0x4 ADD PUSH2 0x39D SWAP2 SWAP1 PUSH2 0x975 JUMP JUMPDEST PUSH1 0x40 MLOAD DUP1 SWAP2 SUB SWAP1 REVERT JUMPDEST PUSH2 0x3B7 PUSH0 DUP4 DUP4 PUSH2 0x3BB PUSH1 0x20 SHL PUSH1 0x20 SHR JUMP JUMPDEST POP POP JUMP JUMPDEST PUSH0 PUSH20 0xFFFFFFFFFFFFFFFFFFFFFFFFFFFFFFFFFFFFFFFF AND DUP4 PUSH20 0xFFFFFFFFFFFFFFFFFFFFFFFFFFFFFFFFFFFFFFFF AND SUB PUSH2 0x40B JUMPI DUP1 PUSH1 0x2 PUSH0 DUP3 DUP3 SLOAD PUSH2 0x3FF SWAP2 SWAP1 PUSH2 0x9BB JUMP JUMPDEST SWAP3 POP POP DUP2 SWAP1 SSTORE POP PUSH2 0x4D9 JUMP JUMPDEST PUSH0 DUP1 PUSH0 DUP6 PUSH20 0xFFFFFFFFFFFFFFFFFFFFFFFFFFFFFFFFFFFFFFFF AND PUSH20 0xFFFFFFFFFFFFFFFFFFFFFFFFFFFFFFFFFFFFFFFF AND DUP2 MSTORE PUSH1 0x20 ADD SWAP1 DUP2 MSTORE PUSH1 0x20 ADD PUSH0 KECCAK256 SLOAD SWAP1 POP DUP2 DUP2 LT ISZERO PUSH2 0x494 JUMPI DUP4 DUP2 DUP4 PUSH1 0x40 MLOAD PUSH32 0xE450D38C00000000000000000000000000000000000000000000000000000000 DUP2 MSTORE PUSH1 0x4 ADD PUSH2 0x48B SWAP4 SWAP3 SWAP2 SWAP1 PUSH2 0x9FD JUMP JUMPDEST PUSH1 0x40 MLOAD DUP1 SWAP2 SUB SWAP1 REVERT JUMPDEST DUP2 DUP2 SUB PUSH0 DUP1 DUP7 PUSH20 0xFFFFFFFFFFFFFFFFFFFFFFFFFFFFFFFFFFFFFFFF AND PUSH20 0xFFFFFFFFFFFFFFFFFFFFFFFFFFFFFFFFFFFFFFFF AND DUP2 MSTORE PUSH1 0x20 ADD SWAP1 DUP2 MSTORE PUSH1 0x20 ADD PUSH0 KECCAK256 DUP2 SWAP1 SSTORE POP POP JUMPDEST PUSH0 PUSH20 0xFFFFFFFFFFFFFFFFFFFFFFFFFFFFFFFFFFFFFFFF AND DUP3 PUSH20 0xFFFFFFFFFFFFFFFFFFFFFFFFFFFFFFFFFFFFFFFF AND SUB PUSH2 0x520 JUMPI DUP1 PUSH1 0x2 PUSH0 DUP3 DUP3 SLOAD SUB SWAP3 POP POP DUP2 SWAP1 SSTORE POP PUSH2 0x56A JUMP JUMPDEST DUP1 PUSH0 DUP1 DUP5 PUSH20 0xFFFFFFFFFFFFFFFFFFFFFFFFFFFFFFFFFFFFFFFF AND PUSH20 0xFFFFFFFFFFFFFFFFFFFFFFFFFFFFFFFFFFFFFFFF AND DUP2 MSTORE PUSH1 0x20 ADD SWAP1 DUP2 MSTORE PUSH1 0x20 ADD PUSH0 KECCAK256 PUSH0 DUP3 DUP3 SLOAD ADD SWAP3 POP POP DUP2 SWAP1 SSTORE POP JUMPDEST DUP2 PUSH20 0xFFFFFFFFFFFFFFFFFFFFFFFFFFFFFFFFFFFFFFFF AND DUP4 PUSH20 0xFFFFFFFFFFFFFFFFFFFFFFFFFFFFFFFFFFFFFFFF AND PUSH32 0xDDF252AD1BE2C89B69C2B068FC378DAA952BA7F163C4A11628F55A4DF523B3EF DUP4 PUSH1 0x40 MLOAD PUSH2 0x5C7 SWAP2 SWAP1 PUSH2 0xA32 JUMP JUMPDEST PUSH1 0x40 MLOAD DUP1 SWAP2 SUB SWAP1 LOG3 POP POP POP JUMP JUMPDEST PUSH0 DUP1 REVERT JUMPDEST PUSH0 PUSH20 0xFFFFFFFFFFFFFFFFFFFFFFFFFFFFFFFFFFFFFFFF DUP3 AND SWAP1 POP SWAP2 SWAP1 POP JUMP JUMPDEST PUSH0 PUSH2 0x601 DUP3 PUSH2 0x5D8 JUMP JUMPDEST SWAP1 POP SWAP2 SWAP1 POP JUMP JUMPDEST PUSH2 0x611 DUP2 PUSH2 0x5F7 JUMP JUMPDEST DUP2 EQ PUSH2 0x61B JUMPI PUSH0 DUP1 REVERT JUMPDEST POP JUMP JUMPDEST PUSH0 DUP2 MLOAD SWAP1 POP PUSH2 0x62C DUP2 PUSH2 0x608 JUMP JUMPDEST SWAP3 SWAP2 POP POP JUMP JUMPDEST PUSH0 PUSH1 0x20 DUP3 DUP5 SUB SLT ISZERO PUSH2 0x647 JUMPI PUSH2 0x646 PUSH2 0x5D4 JUMP JUMPDEST JUMPDEST PUSH0 PUSH2 0x654 DUP5 DUP3 DUP6 ADD PUSH2 0x61E JUMP JUMPDEST SWAP2 POP POP SWAP3 SWAP2 POP POP JUMP JUMPDEST PUSH0 DUP2 MLOAD SWAP1 POP SWAP2 SWAP1 POP JUMP JUMPDEST PUSH32 0x4E487B7100000000000000000000000000000000000000000000000000000000 PUSH0 MSTORE PUSH1 0x41 PUSH1 0x4 MSTORE PUSH1 0x24 PUSH0 REVERT JUMPDEST PUSH32 0x4E487B7100000000000000000000000000000000000000000000000000000000 PUSH0 MSTORE PUSH1 0x22 PUSH1 0x4 MSTORE PUSH1 0x24 PUSH0 REVERT JUMPDEST PUSH0 PUSH1 0x2 DUP3 DIV SWAP1 POP PUSH1 0x1 DUP3 AND DUP1 PUSH2 0x6D8 JUMPI PUSH1 0x7F DUP3 AND SWAP2 POP JUMPDEST PUSH1 0x20 DUP3 LT DUP2 SUB PUSH2 0x6EB JUMPI PUSH2 0x6EA PUSH2 0x694 JUMP JUMPDEST JUMPDEST POP SWAP2 SWAP1 POP JUMP JUMPDEST PUSH0 DUP2 SWAP1 POP DUP2 PUSH0 MSTORE PUSH1 0x20 PUSH0 KECCAK256 SWAP1 POP SWAP2 SWAP1 POP JUMP JUMPDEST PUSH0 PUSH1 0x20 PUSH1 0x1F DUP4 ADD DIV SWAP1 POP SWAP2 SWAP1 POP JUMP JUMPDEST PUSH0 DUP3 DUP3 SHL SWAP1 POP SWAP3 SWAP2 POP POP JUMP JUMPDEST PUSH0 PUSH1 0x8 DUP4 MUL PUSH2 0x74D PUSH32 0xFFFFFFFFFFFFFFFFFFFFFFFFFFFFFFFFFFFFFFFFFFFFFFFFFFFFFFFFFFFFFFFF DUP3 PUSH2 0x712 JUMP JUMPDEST PUSH2 0x757 DUP7 DUP4 PUSH2 0x712 JUMP JUMPDEST SWAP6 POP DUP1 NOT DUP5 AND SWAP4 POP DUP1 DUP7 AND DUP5 OR SWAP3 POP POP POP SWAP4 SWAP3 POP POP POP JUMP JUMPDEST PUSH0 DUP2 SWAP1 POP SWAP2 SWAP1 POP JUMP JUMPDEST PUSH0 DUP2 SWAP1 POP SWAP2 SWAP1 POP JUMP JUMPDEST PUSH0 PUSH2 0x79B PUSH2 0x796 PUSH2 0x791 DUP5 PUSH2 0x76F JUMP JUMPDEST PUSH2 0x778 JUMP JUMPDEST PUSH2 0x76F JUMP JUMPDEST SWAP1 POP SWAP2 SWAP1 POP JUMP JUMPDEST PUSH0 DUP2 SWAP1 POP SWAP2 SWAP1 POP JUMP JUMPDEST PUSH2 0x7B4 DUP4 PUSH2 0x781 JUMP JUMPDEST PUSH2 0x7C8 PUSH2 0x7C0 DUP3 PUSH2 0x7A2 JUMP JUMPDEST DUP5 DUP5 SLOAD PUSH2 0x71E JUMP JUMPDEST DUP3 SSTORE POP POP POP POP JUMP JUMPDEST PUSH0 SWAP1 JUMP JUMPDEST PUSH2 0x7DC PUSH2 0x7D0 JUMP JUMPDEST PUSH2 0x7E7 DUP2 DUP5 DUP5 PUSH2 0x7AB JUMP JUMPDEST POP POP POP JUMP JUMPDEST JUMPDEST DUP2 DUP2 LT ISZERO PUSH2 0x80A JUMPI PUSH2 0x7FF PUSH0 DUP3 PUSH2 0x7D4 JUMP JUMPDEST PUSH1 0x1 DUP2 ADD SWAP1 POP PUSH2 0x7ED JUMP JUMPDEST POP POP JUMP JUMPDEST PUSH1 0x1F DUP3 GT ISZERO PUSH2 0x84F JUMPI PUSH2 0x820 DUP2 PUSH2 0x6F1 JUMP JUMPDEST PUSH2 0x829 DUP5 PUSH2 0x703 JUMP JUMPDEST DUP2 ADD PUSH1 0x20 DUP6 LT ISZERO PUSH2 0x838 JUMPI DUP2 SWAP1 POP JUMPDEST PUSH2 0x84C PUSH2 0x844 DUP6 PUSH2 0x703 JUMP JUMPDEST DUP4 ADD DUP3 PUSH2 0x7EC JUMP JUMPDEST POP POP JUMPDEST POP POP POP JUMP JUMPDEST PUSH0 DUP3 DUP3 SHR SWAP1 POP SWAP3 SWAP2 POP POP JUMP JUMPDEST PUSH0 PUSH2 0x86F PUSH0 NOT DUP5 PUSH1 0x8 MUL PUSH2 0x854 JUMP JUMPDEST NOT DUP1 DUP4 AND SWAP2 POP POP SWAP3 SWAP2 POP POP JUMP JUMPDEST PUSH0 PUSH2 0x887 DUP4 DUP4 PUSH2 0x860 JUMP JUMPDEST SWAP2 POP DUP3 PUSH1 0x2 MUL DUP3 OR SWAP1 POP SWAP3 SWAP2 POP POP JUMP JUMPDEST PUSH2 0x8A0 DUP3 PUSH2 0x65D JUMP JUMPDEST PUSH8 0xFFFFFFFFFFFFFFFF DUP2 GT ISZERO PUSH2 0x8B9 JUMPI PUSH2 0x8B8 PUSH2 0x667 JUMP JUMPDEST JUMPDEST PUSH2 0x8C3 DUP3 SLOAD PUSH2 0x6C1 JUMP JUMPDEST PUSH2 0x8CE DUP3 DUP3 DUP6 PUSH2 0x80E JUMP JUMPDEST PUSH0 PUSH1 0x20 SWAP1 POP PUSH1 0x1F DUP4 GT PUSH1 0x1 DUP2 EQ PUSH2 0x8FF JUMPI PUSH0 DUP5 ISZERO PUSH2 0x8ED JUMPI DUP3 DUP8 ADD MLOAD SWAP1 POP JUMPDEST PUSH2 0x8F7 DUP6 DUP3 PUSH2 0x87C JUMP JUMPDEST DUP7 SSTORE POP PUSH2 0x95E JUMP JUMPDEST PUSH1 0x1F NOT DUP5 AND PUSH2 0x90D DUP7 PUSH2 0x6F1 JUMP JUMPDEST PUSH0 JUMPDEST DUP3 DUP2 LT ISZERO PUSH2 0x934 JUMPI DUP5 DUP10 ADD MLOAD DUP3 SSTORE PUSH1 0x1 DUP3 ADD SWAP2 POP PUSH1 0x20 DUP6 ADD SWAP5 POP PUSH1 0x20 DUP2 ADD SWAP1 POP PUSH2 0x90F JUMP JUMPDEST DUP7 DUP4 LT ISZERO PUSH2 0x951 JUMPI DUP5 DUP10 ADD MLOAD PUSH2 0x94D PUSH1 0x1F DUP10 AND DUP3 PUSH2 0x860 JUMP JUMPDEST DUP4 SSTORE POP JUMPDEST PUSH1 0x1 PUSH1 0x2 DUP9 MUL ADD DUP9 SSTORE POP POP POP JUMPDEST POP POP POP POP POP POP JUMP JUMPDEST PUSH2 0x96F DUP2 PUSH2 0x5F7 JUMP JUMPDEST DUP3 MSTORE POP POP JUMP JUMPDEST PUSH0 PUSH1 0x20 DUP3 ADD SWAP1 POP PUSH2 0x988 PUSH0 DUP4 ADD DUP5 PUSH2 0x966 JUMP JUMPDEST SWAP3 SWAP2 POP POP JUMP JUMPDEST PUSH32 0x4E487B7100000000000000000000000000000000000000000000000000000000 PUSH0 MSTORE PUSH1 0x11 PUSH1 0x4 MSTORE PUSH1 0x24 PUSH0 REVERT JUMPDEST PUSH0 PUSH2 0x9C5 DUP3 PUSH2 0x76F JUMP JUMPDEST SWAP2 POP PUSH2 0x9D0 DUP4 PUSH2 0x76F JUMP JUMPDEST SWAP3 POP DUP3 DUP3 ADD SWAP1 POP DUP1 DUP3 GT ISZERO PUSH2 0x9E8 JUMPI PUSH2 0x9E7 PUSH2 0x98E JUMP JUMPDEST JUMPDEST SWAP3 SWAP2 POP POP JUMP JUMPDEST PUSH2 0x9F7 DUP2 PUSH2 0x76F JUMP JUMPDEST DUP3 MSTORE POP POP JUMP JUMPDEST PUSH0 PUSH1 0x60 DUP3 ADD SWAP1 POP PUSH2 0xA10 PUSH0 DUP4 ADD DUP7 PUSH2 0x966 JUMP JUMPDEST PUSH2 0xA1D PUSH1 0x20 DUP4 ADD DUP6 PUSH2 0x9EE JUMP JUMPDEST PUSH2 0xA2A PUSH1 0x40 DUP4 ADD DUP5 PUSH2 0x9EE JUMP JUMPDEST SWAP5 SWAP4 POP POP POP POP JUMP JUMPDEST PUSH0 PUSH1 0x20 DUP3 ADD SWAP1 POP PUSH2 0xA45 PUSH0 DUP4 ADD DUP5 PUSH2 0x9EE JUMP JUMPDEST SWAP3 SWAP2 POP POP JUMP JUMPDEST PUSH2 0x1F35 DUP1 PUSH2 0xA58 PUSH0 CODECOPY PUSH0 RETURN INVALID PUSH1 0x80 PUSH1 0x40 MSTORE CALLVALUE DUP1 ISZERO PUSH2 0xF JUMPI PUSH0 DUP1 REVERT JUMPDEST POP PUSH1 0x4 CALLDATASIZE LT PUSH2 0x204 JUMPI PUSH0 CALLDATALOAD PUSH1 0xE0 SHR DUP1 PUSH4 0x715018A6 GT PUSH2 0x118 JUMPI DUP1 PUSH4 0xA9059CBB GT PUSH2 0xAB JUMPI DUP1 PUSH4 0xDC31ADEE GT PUSH2 0x7A JUMPI DUP1 PUSH4 0xDC31ADEE EQ PUSH2 0x578 JUMPI DUP1 PUSH4 0xDD62ED3E EQ PUSH2 0x582 JUMPI DUP1 PUSH4 0xDF7F989F EQ PUSH2 0x5B2 JUMPI DUP1 PUSH4 0xE9CBD822 EQ PUSH2 0x5D0 JUMPI DUP1 PUSH4 0xF2FDE38B EQ PUSH2 0x5EE JUMPI PUSH2 0x204 JUMP JUMPDEST DUP1 PUSH4 0xA9059CBB EQ PUSH2 0x4EE JUMPI DUP1 PUSH4 0xB0A65B3E EQ PUSH2 0x51E JUMPI DUP1 PUSH4 0xBA115CB6 EQ PUSH2 0x53C JUMPI DUP1 PUSH4 0xCC1776D3 EQ PUSH2 0x55A JUMPI PUSH2 0x204 JUMP JUMPDEST DUP1 PUSH4 0x8DA5CB5B GT PUSH2 0xE7 JUMPI DUP1 PUSH4 0x8DA5CB5B EQ PUSH2 0x478 JUMPI DUP1 PUSH4 0x926165D7 EQ PUSH2 0x496 JUMPI DUP1 PUSH4 0x95D89B41 EQ PUSH2 0x4B2 JUMPI DUP1 PUSH4 0xA6F59846 EQ PUSH2 0x4D0 JUMPI PUSH2 0x204 JUMP JUMPDEST DUP1 PUSH4 0x715018A6 EQ PUSH2 0x428 JUMPI DUP1 PUSH4 0x7B0A47EE EQ PUSH2 0x432 JUMPI DUP1 PUSH4 0x8B887E7E EQ PUSH2 0x450 JUMPI DUP1 PUSH4 0x8CBB6DF7 EQ PUSH2 0x45A JUMPI PUSH2 0x204 JUMP JUMPDEST DUP1 PUSH4 0x2CCA9DFD GT PUSH2 0x19B JUMPI DUP1 PUSH4 0x3ADDE9C1 GT PUSH2 0x16A JUMPI DUP1 PUSH4 0x3ADDE9C1 EQ PUSH2 0x380 JUMPI DUP1 PUSH4 0x4F0DBAF2 EQ PUSH2 0x39E JUMPI DUP1 PUSH4 0x4F7041A5 EQ PUSH2 0x3BC JUMPI DUP1 PUSH4 0x56BF536C EQ PUSH2 0x3DA JUMPI DUP1 PUSH4 0x70A08231 EQ PUSH2 0x3F8 JUMPI PUSH2 0x204 JUMP JUMPDEST DUP1 PUSH4 0x2CCA9DFD EQ PUSH2 0x308 JUMPI DUP1 PUSH4 0x2FF2E9DC EQ PUSH2 0x326 JUMPI DUP1 PUSH4 0x313CE567 EQ PUSH2 0x344 JUMPI DUP1 PUSH4 0x329430CA EQ PUSH2 0x362 JUMPI PUSH2 0x204 JUMP JUMPDEST DUP1 PUSH4 0x18160DDD GT PUSH2 0x1D7 JUMPI DUP1 PUSH4 0x18160DDD EQ PUSH2 0x27E JUMPI DUP1 PUSH4 0x1F6722B6 EQ PUSH2 0x29C JUMPI DUP1 PUSH4 0x23256627 EQ PUSH2 0x2BA JUMPI DUP1 PUSH4 0x23B872DD EQ PUSH2 0x2D8 JUMPI PUSH2 0x204 JUMP JUMPDEST DUP1 PUSH4 0x6FDDE03 EQ PUSH2 0x208 JUMPI DUP1 PUSH4 0x733F92B EQ PUSH2 0x226 JUMPI DUP1 PUSH4 0x95EA7B3 EQ PUSH2 0x244 JUMPI DUP1 PUSH4 0x14C411C7 EQ PUSH2 0x274 JUMPI JUMPDEST PUSH0 DUP1 REVERT JUMPDEST PUSH2 0x210 PUSH2 0x60A JUMP JUMPDEST PUSH1 0x40 MLOAD PUSH2 0x21D SWAP2 SWAP1 PUSH2 0x172C JUMP JUMPDEST PUSH1 0x40 MLOAD DUP1 SWAP2 SUB SWAP1 RETURN JUMPDEST PUSH2 0x22E PUSH2 0x69A JUMP JUMPDEST PUSH1 0x40 MLOAD PUSH2 0x23B SWAP2 SWAP1 PUSH2 0x1764 JUMP JUMPDEST PUSH1 0x40 MLOAD DUP1 SWAP2 SUB SWAP1 RETURN JUMPDEST PUSH2 0x25E PUSH1 0x4 DUP1 CALLDATASIZE SUB DUP2 ADD SWAP1 PUSH2 0x259 SWAP2 SWAP1 PUSH2 0x1805 JUMP JUMPDEST PUSH2 0x6A0 JUMP JUMPDEST PUSH1 0x40 MLOAD PUSH2 0x26B SWAP2 SWAP1 PUSH2 0x185D JUMP JUMPDEST PUSH1 0x40 MLOAD DUP1 SWAP2 SUB SWAP1 RETURN JUMPDEST PUSH2 0x27C PUSH2 0x6C2 JUMP JUMPDEST STOP JUMPDEST PUSH2 0x286 PUSH2 0x843 JUMP JUMPDEST PUSH1 0x40 MLOAD PUSH2 0x293 SWAP2 SWAP1 PUSH2 0x1764 JUMP JUMPDEST PUSH1 0x40 MLOAD DUP1 SWAP2 SUB SWAP1 RETURN JUMPDEST PUSH2 0x2A4 PUSH2 0x84C JUMP JUMPDEST PUSH1 0x40 MLOAD PUSH2 0x2B1 SWAP2 SWAP1 PUSH2 0x1764 JUMP JUMPDEST PUSH1 0x40 MLOAD DUP1 SWAP2 SUB SWAP1 RETURN JUMPDEST PUSH2 0x2C2 PUSH2 0x852 JUMP JUMPDEST PUSH1 0x40 MLOAD PUSH2 0x2CF SWAP2 SWAP1 PUSH2 0x1764 JUMP JUMPDEST PUSH1 0x40 MLOAD DUP1 SWAP2 SUB SWAP1 RETURN JUMPDEST PUSH2 0x2F2 PUSH1 0x4 DUP1 CALLDATASIZE SUB DUP2 ADD SWAP1 PUSH2 0x2ED SWAP2 SWAP1 PUSH2 0x1876 JUMP JUMPDEST PUSH2 0x857 JUMP JUMPDEST PUSH1 0x40 MLOAD PUSH2 0x2FF SWAP2 SWAP1 PUSH2 0x185D JUMP JUMPDEST PUSH1 0x40 MLOAD DUP1 SWAP2 SUB SWAP1 RETURN JUMPDEST PUSH2 0x310 PUSH2 0x885 JUMP JUMPDEST PUSH1 0x40 MLOAD PUSH2 0x31D SWAP2 SWAP1 PUSH2 0x18D5 JUMP JUMPDEST PUSH1 0x40 MLOAD DUP1 SWAP2 SUB SWAP1 RETURN JUMPDEST PUSH2 0x32E PUSH2 0x89D JUMP JUMPDEST PUSH1 0x40 MLOAD PUSH2 0x33B SWAP2 SWAP1 PUSH2 0x1764 JUMP JUMPDEST PUSH1 0x40 MLOAD DUP1 SWAP2 SUB SWAP1 RETURN JUMPDEST PUSH2 0x34C PUSH2 0x8AD JUMP JUMPDEST PUSH1 0x40 MLOAD PUSH2 0x359 SWAP2 SWAP1 PUSH2 0x1909 JUMP JUMPDEST PUSH1 0x40 MLOAD DUP1 SWAP2 SUB SWAP1 RETURN JUMPDEST PUSH2 0x36A PUSH2 0x8B5 JUMP JUMPDEST PUSH1 0x40 MLOAD PUSH2 0x377 SWAP2 SWAP1 PUSH2 0x1764 JUMP JUMPDEST PUSH1 0x40 MLOAD DUP1 SWAP2 SUB SWAP1 RETURN JUMPDEST PUSH2 0x388 PUSH2 0x8BB JUMP JUMPDEST PUSH1 0x40 MLOAD PUSH2 0x395 SWAP2 SWAP1 PUSH2 0x1764 JUMP JUMPDEST PUSH1 0x40 MLOAD DUP1 SWAP2 SUB SWAP1 RETURN JUMPDEST PUSH2 0x3A6 PUSH2 0x8C3 JUMP JUMPDEST PUSH1 0x40 MLOAD PUSH2 0x3B3 SWAP2 SWAP1 PUSH2 0x18D5 JUMP JUMPDEST PUSH1 0x40 MLOAD DUP1 SWAP2 SUB SWAP1 RETURN JUMPDEST PUSH2 0x3C4 PUSH2 0x8DB JUMP JUMPDEST PUSH1 0x40 MLOAD PUSH2 0x3D1 SWAP2 SWAP1 PUSH2 0x1764 JUMP JUMPDEST PUSH1 0x40 MLOAD DUP1 SWAP2 SUB SWAP1 RETURN JUMPDEST PUSH2 0x3E2 PUSH2 0x8E1 JUMP JUMPDEST PUSH1 0x40 MLOAD PUSH2 0x3EF SWAP2 SWAP1 PUSH2 0x18D5 JUMP JUMPDEST PUSH1 0x40 MLOAD DUP1 SWAP2 SUB SWAP1 RETURN JUMPDEST PUSH2 0x412 PUSH1 0x4 DUP1 CALLDATASIZE SUB DUP2 ADD SWAP1 PUSH2 0x40D SWAP2 SWAP1 PUSH2 0x1922 JUMP JUMPDEST PUSH2 0x8F9 JUMP JUMPDEST PUSH1 0x40 MLOAD PUSH2 0x41F SWAP2 SWAP1 PUSH2 0x1764 JUMP JUMPDEST PUSH1 0x40 MLOAD DUP1 SWAP2 SUB SWAP1 RETURN JUMPDEST PUSH2 0x430 PUSH2 0x93E JUMP JUMPDEST STOP JUMPDEST PUSH2 0x43A PUSH2 0x951 JUMP JUMPDEST PUSH1 0x40 MLOAD PUSH2 0x447 SWAP2 SWAP1 PUSH2 0x1764 JUMP JUMPDEST PUSH1 0x40 MLOAD DUP1 SWAP2 SUB SWAP1 RETURN JUMPDEST PUSH2 0x458 PUSH2 0x957 JUMP JUMPDEST STOP JUMPDEST PUSH2 0x462 PUSH2 0xA02 JUMP JUMPDEST PUSH1 0x40 MLOAD PUSH2 0x46F SWAP2 SWAP1 PUSH2 0x1764 JUMP JUMPDEST PUSH1 0x40 MLOAD DUP1 SWAP2 SUB SWAP1 RETURN JUMPDEST PUSH2 0x480 PUSH2 0xA08 JUMP JUMPDEST PUSH1 0x40 MLOAD PUSH2 0x48D SWAP2 SWAP1 PUSH2 0x18D5 JUMP JUMPDEST PUSH1 0x40 MLOAD DUP1 SWAP2 SUB SWAP1 RETURN JUMPDEST PUSH2 0x4B0 PUSH1 0x4 DUP1 CALLDATASIZE SUB DUP2 ADD SWAP1 PUSH2 0x4AB SWAP2 SWAP1 PUSH2 0x194D JUMP JUMPDEST PUSH2 0xA30 JUMP JUMPDEST STOP JUMPDEST PUSH2 0x4BA PUSH2 0xAC3 JUMP JUMPDEST PUSH1 0x40 MLOAD PUSH2 0x4C7 SWAP2 SWAP1 PUSH2 0x172C JUMP JUMPDEST PUSH1 0x40 MLOAD DUP1 SWAP2 SUB SWAP1 RETURN JUMPDEST PUSH2 0x4D8 PUSH2 0xB53 JUMP JUMPDEST PUSH1 0x40 MLOAD PUSH2 0x4E5 SWAP2 SWAP1 PUSH2 0x1764 JUMP JUMPDEST PUSH1 0x40 MLOAD DUP1 SWAP2 SUB SWAP1 RETURN JUMPDEST PUSH2 0x508 PUSH1 0x4 DUP1 CALLDATASIZE SUB DUP2 ADD SWAP1 PUSH2 0x503 SWAP2 SWAP1 PUSH2 0x1805 JUMP JUMPDEST PUSH2 0xB59 JUMP JUMPDEST PUSH1 0x40 MLOAD PUSH2 0x515 SWAP2 SWAP1 PUSH2 0x185D JUMP JUMPDEST PUSH1 0x40 MLOAD DUP1 SWAP2 SUB SWAP1 RETURN JUMPDEST PUSH2 0x526 PUSH2 0xB7B JUMP JUMPDEST PUSH1 0x40 MLOAD PUSH2 0x533 SWAP2 SWAP1 PUSH2 0x18D5 JUMP JUMPDEST PUSH1 0x40 MLOAD DUP1 SWAP2 SUB SWAP1 RETURN JUMPDEST PUSH2 0x544 PUSH2 0xB93 JUMP JUMPDEST PUSH1 0x40 MLOAD PUSH2 0x551 SWAP2 SWAP1 PUSH2 0x18D5 JUMP JUMPDEST PUSH1 0x40 MLOAD DUP1 SWAP2 SUB SWAP1 RETURN JUMPDEST PUSH2 0x562 PUSH2 0xBAB JUMP JUMPDEST PUSH1 0x40 MLOAD PUSH2 0x56F SWAP2 SWAP1 PUSH2 0x1764 JUMP JUMPDEST PUSH1 0x40 MLOAD DUP1 SWAP2 SUB SWAP1 RETURN JUMPDEST PUSH2 0x580 PUSH2 0xBB1 JUMP JUMPDEST STOP JUMPDEST PUSH2 0x59C PUSH1 0x4 DUP1 CALLDATASIZE SUB DUP2 ADD SWAP1 PUSH2 0x597 SWAP2 SWAP1 PUSH2 0x198B JUMP JUMPDEST PUSH2 0xCCD JUMP JUMPDEST PUSH1 0x40 MLOAD PUSH2 0x5A9 SWAP2 SWAP1 PUSH2 0x1764 JUMP JUMPDEST PUSH1 0x40 MLOAD DUP1 SWAP2 SUB SWAP1 RETURN JUMPDEST PUSH2 0x5BA PUSH2 0xD4F JUMP JUMPDEST PUSH1 0x40 MLOAD PUSH2 0x5C7 SWAP2 SWAP1 PUSH2 0x18D5 JUMP JUMPDEST PUSH1 0x40 MLOAD DUP1 SWAP2 SUB SWAP1 RETURN JUMPDEST PUSH2 0x5D8 PUSH2 0xD67 JUMP JUMPDEST PUSH1 0x40 MLOAD PUSH2 0x5E5 SWAP2 SWAP1 PUSH2 0x1A24 JUMP JUMPDEST PUSH1 0x40 MLOAD DUP1 SWAP2 SUB SWAP1 RETURN JUMPDEST PUSH2 0x608 PUSH1 0x4 DUP1 CALLDATASIZE SUB DUP2 ADD SWAP1 PUSH2 0x603 SWAP2 SWAP1 PUSH2 0x1922 JUMP JUMPDEST PUSH2 0xD8C JUMP JUMPDEST STOP JUMPDEST PUSH1 0x60 PUSH1 0x3 DUP1 SLOAD PUSH2 0x619 SWAP1 PUSH2 0x1A6A JUMP JUMPDEST DUP1 PUSH1 0x1F ADD PUSH1 0x20 DUP1 SWAP2 DIV MUL PUSH1 0x20 ADD PUSH1 0x40 MLOAD SWAP1 DUP2 ADD PUSH1 0x40 MSTORE DUP1 SWAP3 SWAP2 SWAP1 DUP2 DUP2 MSTORE PUSH1 0x20 ADD DUP3 DUP1 SLOAD PUSH2 0x645 SWAP1 PUSH2 0x1A6A JUMP JUMPDEST DUP1 ISZERO PUSH2 0x690 JUMPI DUP1 PUSH1 0x1F LT PUSH2 0x667 JUMPI PUSH2 0x100 DUP1 DUP4 SLOAD DIV MUL DUP4 MSTORE SWAP2 PUSH1 0x20 ADD SWAP2 PUSH2 0x690 JUMP JUMPDEST DUP3 ADD SWAP2 SWAP1 PUSH0 MSTORE PUSH1 0x20 PUSH0 KECCAK256 SWAP1 JUMPDEST DUP2 SLOAD DUP2 MSTORE SWAP1 PUSH1 0x1 ADD SWAP1 PUSH1 0x20 ADD DUP1 DUP4 GT PUSH2 0x673 JUMPI DUP3 SWAP1 SUB PUSH1 0x1F AND DUP3 ADD SWAP2 JUMPDEST POP POP POP POP POP SWAP1 POP SWAP1 JUMP JUMPDEST PUSH1 0x13 SLOAD DUP2 JUMP JUMPDEST PUSH0 DUP1 PUSH2 0x6AA PUSH2 0xE10 JUMP JUMPDEST SWAP1 POP PUSH2 0x6B7 DUP2 DUP6 DUP6 PUSH2 0xE17 JUMP JUMPDEST PUSH1 0x1 SWAP2 POP POP SWAP3 SWAP2 POP POP JUMP JUMPDEST PUSH2 0x6CA PUSH2 0xE29 JUMP JUMPDEST PUSH2 0x6D2 PUSH2 0xEB0 JUMP JUMPDEST PUSH4 0x2C7EA00 PUSH1 0xC SLOAD PUSH2 0x6E4 SWAP2 SWAP1 PUSH2 0x1AC7 JUMP JUMPDEST TIMESTAMP LT ISZERO PUSH2 0x726 JUMPI PUSH1 0x40 MLOAD PUSH32 0x8C379A000000000000000000000000000000000000000000000000000000000 DUP2 MSTORE PUSH1 0x4 ADD PUSH2 0x71D SWAP1 PUSH2 0x1B44 JUMP JUMPDEST PUSH1 0x40 MLOAD DUP1 SWAP2 SUB SWAP1 REVERT JUMPDEST PUSH0 PUSH4 0x2C7EA00 PUSH1 0xC SLOAD PUSH2 0x739 SWAP2 SWAP1 PUSH2 0x1AC7 JUMP JUMPDEST TIMESTAMP PUSH2 0x744 SWAP2 SWAP1 PUSH2 0x1B62 JUMP JUMPDEST SWAP1 POP PUSH0 PUSH4 0x784CE00 DUP3 PUSH1 0xF SLOAD PUSH2 0x75A SWAP2 SWAP1 PUSH2 0x1B95 JUMP JUMPDEST PUSH2 0x764 SWAP2 SWAP1 PUSH2 0x1C03 JUMP JUMPDEST SWAP1 POP PUSH0 PUSH1 0x10 SLOAD DUP3 PUSH2 0x775 SWAP2 SWAP1 PUSH2 0x1B62 JUMP JUMPDEST SWAP1 POP DUP1 PUSH1 0x10 PUSH0 DUP3 DUP3 SLOAD PUSH2 0x788 SWAP2 SWAP1 PUSH2 0x1AC7 JUMP JUMPDEST SWAP3 POP POP DUP2 SWAP1 SSTORE POP PUSH0 DUP3 GT PUSH2 0x7D1 JUMPI PUSH1 0x40 MLOAD PUSH32 0x8C379A000000000000000000000000000000000000000000000000000000000 DUP2 MSTORE PUSH1 0x4 ADD PUSH2 0x7C8 SWAP1 PUSH2 0x1C7D JUMP JUMPDEST PUSH1 0x40 MLOAD DUP1 SWAP2 SUB SWAP1 REVERT JUMPDEST PUSH1 0xF SLOAD PUSH1 0x10 SLOAD GT ISZERO PUSH2 0x818 JUMPI PUSH1 0x40 MLOAD PUSH32 0x8C379A000000000000000000000000000000000000000000000000000000000 DUP2 MSTORE PUSH1 0x4 ADD PUSH2 0x80F SWAP1 PUSH2 0x1CE5 JUMP JUMPDEST PUSH1 0x40 MLOAD DUP1 SWAP2 SUB SWAP1 REVERT JUMPDEST PUSH2 0x836 PUSH20 0x4B0897B0513FDC7C541B6D9D7E929C4E5364D2DB DUP3 PUSH2 0xEFF JUMP JUMPDEST POP POP POP PUSH2 0x841 PUSH2 0xF7E JUMP JUMPDEST JUMP JUMPDEST PUSH0 PUSH1 0x2 SLOAD SWAP1 POP SWAP1 JUMP JUMPDEST PUSH1 0x12 SLOAD DUP2 JUMP JUMPDEST PUSH1 0x19 DUP2 JUMP JUMPDEST PUSH0 DUP1 PUSH2 0x861 PUSH2 0xE10 JUMP JUMPDEST SWAP1 POP PUSH2 0x86E DUP6 DUP3 DUP6 PUSH2 0xF88 JUMP JUMPDEST PUSH2 0x879 DUP6 DUP6 DUP6 PUSH2 0x101A JUMP JUMPDEST PUSH1 0x1 SWAP2 POP POP SWAP4 SWAP3 POP POP POP JUMP JUMPDEST PUSH20 0x583031D1113AD414F02576BD6AFABFB302140225 DUP2 JUMP JUMPDEST PUSH12 0x33B2E3C9FD0803CE8000000 DUP2 JUMP JUMPDEST PUSH0 PUSH1 0x12 SWAP1 POP SWAP1 JUMP JUMPDEST PUSH1 0xF SLOAD DUP2 JUMP JUMPDEST PUSH4 0x1E13380 DUP2 JUMP JUMPDEST PUSH20 0xDD870FA1B7C4700F2BD7F44238821C26F7392148 DUP2 JUMP JUMPDEST PUSH1 0x8 SLOAD DUP2 JUMP JUMPDEST PUSH20 0xCA35B7D915458EF540ADE6068DFE2F44E8FA733C DUP2 JUMP JUMPDEST PUSH0 DUP1 PUSH0 DUP4 PUSH20 0xFFFFFFFFFFFFFFFFFFFFFFFFFFFFFFFFFFFFFFFF AND PUSH20 0xFFFFFFFFFFFFFFFFFFFFFFFFFFFFFFFFFFFFFFFF AND DUP2 MSTORE PUSH1 0x20 ADD SWAP1 DUP2 MSTORE PUSH1 0x20 ADD PUSH0 KECCAK256 SLOAD SWAP1 POP SWAP2 SWAP1 POP JUMP JUMPDEST PUSH2 0x946 PUSH2 0xE29 JUMP JUMPDEST PUSH2 0x94F PUSH0 PUSH2 0x10A2 JUMP JUMPDEST JUMP JUMPDEST PUSH1 0xB SLOAD DUP2 JUMP JUMPDEST PUSH4 0x1E13380 PUSH1 0xA SLOAD PUSH2 0x969 SWAP2 SWAP1 PUSH2 0x1AC7 JUMP JUMPDEST TIMESTAMP LT ISZERO PUSH2 0x9AB JUMPI PUSH1 0x40 MLOAD PUSH32 0x8C379A000000000000000000000000000000000000000000000000000000000 DUP2 MSTORE PUSH1 0x4 ADD PUSH2 0x9A2 SWAP1 PUSH2 0x1D4D JUMP JUMPDEST PUSH1 0x40 MLOAD DUP1 SWAP2 SUB SWAP1 REVERT JUMPDEST PUSH1 0x2 PUSH1 0xB SLOAD PUSH2 0x9BA SWAP2 SWAP1 PUSH2 0x1C03 JUMP JUMPDEST PUSH1 0xB DUP2 SWAP1 SSTORE POP TIMESTAMP PUSH1 0xA DUP2 SWAP1 SSTORE POP PUSH32 0xF92B4D3A8D8BA77170DD5CF6B65260191092093F924263A88C3C60DD8495F091 PUSH1 0xB SLOAD PUSH1 0x40 MLOAD PUSH2 0x9F8 SWAP2 SWAP1 PUSH2 0x1764 JUMP JUMPDEST PUSH1 0x40 MLOAD DUP1 SWAP2 SUB SWAP1 LOG1 JUMP JUMPDEST PUSH1 0xA SLOAD DUP2 JUMP JUMPDEST PUSH0 PUSH1 0x5 PUSH0 SWAP1 SLOAD SWAP1 PUSH2 0x100 EXP SWAP1 DIV PUSH20 0xFFFFFFFFFFFFFFFFFFFFFFFFFFFFFFFFFFFFFFFF AND SWAP1 POP SWAP1 JUMP JUMPDEST PUSH2 0xA38 PUSH2 0xE29 JUMP JUMPDEST DUP2 PUSH1 0xB DUP2 SWAP1 SSTORE POP DUP1 PUSH1 0x7 PUSH0 PUSH2 0x100 EXP DUP2 SLOAD DUP2 PUSH20 0xFFFFFFFFFFFFFFFFFFFFFFFFFFFFFFFFFFFFFFFF MUL NOT AND SWAP1 DUP4 PUSH20 0xFFFFFFFFFFFFFFFFFFFFFFFFFFFFFFFFFFFFFFFF AND MUL OR SWAP1 SSTORE POP TIMESTAMP PUSH1 0xA DUP2 SWAP1 SSTORE POP PUSH32 0xDE2D0064B82669942E6A9CFF523014473C366EFC3CF147B14E0B1F4CBECC4BC8 DUP3 DUP3 PUSH1 0x40 MLOAD PUSH2 0xAB7 SWAP3 SWAP2 SWAP1 PUSH2 0x1D6B JUMP JUMPDEST PUSH1 0x40 MLOAD DUP1 SWAP2 SUB SWAP1 LOG1 POP POP JUMP JUMPDEST PUSH1 0x60 PUSH1 0x4 DUP1 SLOAD PUSH2 0xAD2 SWAP1 PUSH2 0x1A6A JUMP JUMPDEST DUP1 PUSH1 0x1F ADD PUSH1 0x20 DUP1 SWAP2 DIV MUL PUSH1 0x20 ADD PUSH1 0x40 MLOAD SWAP1 DUP2 ADD PUSH1 0x40 MSTORE DUP1 SWAP3 SWAP2 SWAP1 DUP2 DUP2 MSTORE PUSH1 0x20 ADD DUP3 DUP1 SLOAD PUSH2 0xAFE SWAP1 PUSH2 0x1A6A JUMP JUMPDEST DUP1 ISZERO PUSH2 0xB49 JUMPI DUP1 PUSH1 0x1F LT PUSH2 0xB20 JUMPI PUSH2 0x100 DUP1 DUP4 SLOAD DIV MUL DUP4 MSTORE SWAP2 PUSH1 0x20 ADD SWAP2 PUSH2 0xB49 JUMP JUMPDEST DUP3 ADD SWAP2 SWAP1 PUSH0 MSTORE PUSH1 0x20 PUSH0 KECCAK256 SWAP1 JUMPDEST DUP2 SLOAD DUP2 MSTORE SWAP1 PUSH1 0x1 ADD SWAP1 PUSH1 0x20 ADD DUP1 DUP4 GT PUSH2 0xB2C JUMPI DUP3 SWAP1 SUB PUSH1 0x1F AND DUP3 ADD SWAP2 JUMPDEST POP POP POP POP POP SWAP1 POP SWAP1 JUMP JUMPDEST PUSH1 0x10 SLOAD DUP2 JUMP JUMPDEST PUSH0 DUP1 PUSH2 0xB63 PUSH2 0xE10 JUMP JUMPDEST SWAP1 POP PUSH2 0xB70 DUP2 DUP6 DUP6 PUSH2 0x101A JUMP JUMPDEST PUSH1 0x1 SWAP2 POP POP SWAP3 SWAP2 POP POP JUMP JUMPDEST PUSH20 0xA098EDA01CE92FF4A4CCB7A4FFFB5A43EBC70DC DUP2 JUMP JUMPDEST PUSH20 0x14723A09ACFF6D2A60DCDF7AA4AFF308FDDC160C DUP2 JUMP JUMPDEST PUSH1 0x9 SLOAD DUP2 JUMP JUMPDEST PUSH2 0xBB9 PUSH2 0xE29 JUMP JUMPDEST PUSH2 0xBC1 PUSH2 0xEB0 JUMP JUMPDEST PUSH0 PUSH1 0xE SLOAD TIMESTAMP PUSH2 0xBD0 SWAP2 SWAP1 PUSH2 0x1B62 JUMP JUMPDEST SWAP1 POP PUSH0 PUSH1 0x11 SLOAD DUP3 PUSH1 0x12 SLOAD PUSH2 0xBE4 SWAP2 SWAP1 PUSH2 0x1B95 JUMP JUMPDEST PUSH2 0xBEE SWAP2 SWAP1 PUSH2 0x1C03 JUMP JUMPDEST SWAP1 POP PUSH0 PUSH1 0x13 SLOAD DUP3 PUSH2 0xBFF SWAP2 SWAP1 PUSH2 0x1B62 JUMP JUMPDEST SWAP1 POP DUP1 PUSH1 0x13 PUSH0 DUP3 DUP3 SLOAD PUSH2 0xC12 SWAP2 SWAP1 PUSH2 0x1AC7 JUMP JUMPDEST SWAP3 POP POP DUP2 SWAP1 SSTORE POP PUSH0 DUP3 GT PUSH2 0xC5B JUMPI PUSH1 0x40 MLOAD PUSH32 0x8C379A000000000000000000000000000000000000000000000000000000000 DUP2 MSTORE PUSH1 0x4 ADD PUSH2 0xC52 SWAP1 PUSH2 0x1DDC JUMP JUMPDEST PUSH1 0x40 MLOAD DUP1 SWAP2 SUB SWAP1 REVERT JUMPDEST PUSH1 0x12 SLOAD PUSH1 0x13 SLOAD GT ISZERO PUSH2 0xCA2 JUMPI PUSH1 0x40 MLOAD PUSH32 0x8C379A000000000000000000000000000000000000000000000000000000000 DUP2 MSTORE PUSH1 0x4 ADD PUSH2 0xC99 SWAP1 PUSH2 0x1E44 JUMP JUMPDEST PUSH1 0x40 MLOAD DUP1 SWAP2 SUB SWAP1 REVERT JUMPDEST PUSH2 0xCC0 PUSH20 0x14723A09ACFF6D2A60DCDF7AA4AFF308FDDC160C DUP3 PUSH2 0xEFF JUMP JUMPDEST POP POP POP PUSH2 0xCCB PUSH2 0xF7E JUMP JUMPDEST JUMP JUMPDEST PUSH0 PUSH1 0x1 PUSH0 DUP5 PUSH20 0xFFFFFFFFFFFFFFFFFFFFFFFFFFFFFFFFFFFFFFFF AND PUSH20 0xFFFFFFFFFFFFFFFFFFFFFFFFFFFFFFFFFFFFFFFF AND DUP2 MSTORE PUSH1 0x20 ADD SWAP1 DUP2 MSTORE PUSH1 0x20 ADD PUSH0 KECCAK256 PUSH0 DUP4 PUSH20 0xFFFFFFFFFFFFFFFFFFFFFFFFFFFFFFFFFFFFFFFF AND PUSH20 0xFFFFFFFFFFFFFFFFFFFFFFFFFFFFFFFFFFFFFFFF AND DUP2 MSTORE PUSH1 0x20 ADD SWAP1 DUP2 MSTORE PUSH1 0x20 ADD PUSH0 KECCAK256 SLOAD SWAP1 POP SWAP3 SWAP2 POP POP JUMP JUMPDEST PUSH20 0x4B0897B0513FDC7C541B6D9D7E929C4E5364D2DB DUP2 JUMP JUMPDEST PUSH1 0x7 PUSH0 SWAP1 SLOAD SWAP1 PUSH2 0x100 EXP SWAP1 DIV PUSH20 0xFFFFFFFFFFFFFFFFFFFFFFFFFFFFFFFFFFFFFFFF AND DUP2 JUMP JUMPDEST PUSH2 0xD94 PUSH2 0xE29 JUMP JUMPDEST PUSH0 PUSH20 0xFFFFFFFFFFFFFFFFFFFFFFFFFFFFFFFFFFFFFFFF AND DUP2 PUSH20 0xFFFFFFFFFFFFFFFFFFFFFFFFFFFFFFFFFFFFFFFF AND SUB PUSH2 0xE04 JUMPI PUSH0 PUSH1 0x40 MLOAD PUSH32 0x1E4FBDF700000000000000000000000000000000000000000000000000000000 DUP2 MSTORE PUSH1 0x4 ADD PUSH2 0xDFB SWAP2 SWAP1 PUSH2 0x18D5 JUMP JUMPDEST PUSH1 0x40 MLOAD DUP1 SWAP2 SUB SWAP1 REVERT JUMPDEST PUSH2 0xE0D DUP2 PUSH2 0x10A2 JUMP JUMPDEST POP JUMP JUMPDEST PUSH0 CALLER SWAP1 POP SWAP1 JUMP JUMPDEST PUSH2 0xE24 DUP4 DUP4 DUP4 PUSH1 0x1 PUSH2 0x1165 JUMP JUMPDEST POP POP POP JUMP JUMPDEST PUSH2 0xE31 PUSH2 0xE10 JUMP JUMPDEST PUSH20 0xFFFFFFFFFFFFFFFFFFFFFFFFFFFFFFFFFFFFFFFF AND PUSH2 0xE4F PUSH2 0xA08 JUMP JUMPDEST PUSH20 0xFFFFFFFFFFFFFFFFFFFFFFFFFFFFFFFFFFFFFFFF AND EQ PUSH2 0xEAE JUMPI PUSH2 0xE72 PUSH2 0xE10 JUMP JUMPDEST PUSH1 0x40 MLOAD PUSH32 0x118CDAA700000000000000000000000000000000000000000000000000000000 DUP2 MSTORE PUSH1 0x4 ADD PUSH2 0xEA5 SWAP2 SWAP1 PUSH2 0x18D5 JUMP JUMPDEST PUSH1 0x40 MLOAD DUP1 SWAP2 SUB SWAP1 REVERT JUMPDEST JUMP JUMPDEST PUSH1 0x2 PUSH1 0x6 SLOAD SUB PUSH2 0xEF5 JUMPI PUSH1 0x40 MLOAD PUSH32 0x8C379A000000000000000000000000000000000000000000000000000000000 DUP2 MSTORE PUSH1 0x4 ADD PUSH2 0xEEC SWAP1 PUSH2 0x1EAC JUMP JUMPDEST PUSH1 0x40 MLOAD DUP1 SWAP2 SUB SWAP1 REVERT JUMPDEST PUSH1 0x2 PUSH1 0x6 DUP2 SWAP1 SSTORE POP JUMP JUMPDEST PUSH0 PUSH20 0xFFFFFFFFFFFFFFFFFFFFFFFFFFFFFFFFFFFFFFFF AND DUP3 PUSH20 0xFFFFFFFFFFFFFFFFFFFFFFFFFFFFFFFFFFFFFFFF AND SUB PUSH2 0xF6F JUMPI PUSH0 PUSH1 0x40 MLOAD PUSH32 0xEC442F0500000000000000000000000000000000000000000000000000000000 DUP2 MSTORE PUSH1 0x4 ADD PUSH2 0xF66 SWAP2 SWAP1 PUSH2 0x18D5 JUMP JUMPDEST PUSH1 0x40 MLOAD DUP1 SWAP2 SUB SWAP1 REVERT JUMPDEST PUSH2 0xF7A PUSH0 DUP4 DUP4 PUSH2 0x1334 JUMP JUMPDEST POP POP JUMP JUMPDEST PUSH1 0x1 PUSH1 0x6 DUP2 SWAP1 SSTORE POP JUMP JUMPDEST PUSH0 PUSH2 0xF93 DUP5 DUP5 PUSH2 0xCCD JUMP JUMPDEST SWAP1 POP PUSH32 0xFFFFFFFFFFFFFFFFFFFFFFFFFFFFFFFFFFFFFFFFFFFFFFFFFFFFFFFFFFFFFFFF DUP2 EQ PUSH2 0x1014 JUMPI DUP2 DUP2 LT ISZERO PUSH2 0x1005 JUMPI DUP3 DUP2 DUP4 PUSH1 0x40 MLOAD PUSH32 0xFB8F41B200000000000000000000000000000000000000000000000000000000 DUP2 MSTORE PUSH1 0x4 ADD PUSH2 0xFFC SWAP4 SWAP3 SWAP2 SWAP1 PUSH2 0x1ECA JUMP JUMPDEST PUSH1 0x40 MLOAD DUP1 SWAP2 SUB SWAP1 REVERT JUMPDEST PUSH2 0x1013 DUP5 DUP5 DUP5 DUP5 SUB PUSH0 PUSH2 0x1165 JUMP JUMPDEST JUMPDEST POP POP POP POP JUMP JUMPDEST PUSH0 PUSH1 0x64 ADDRESS PUSH20 0xFFFFFFFFFFFFFFFFFFFFFFFFFFFFFFFFFFFFFFFF AND DUP5 PUSH20 0xFFFFFFFFFFFFFFFFFFFFFFFFFFFFFFFFFFFFFFFF AND EQ PUSH2 0x1058 JUMPI PUSH1 0x8 SLOAD PUSH2 0x105C JUMP JUMPDEST PUSH1 0x9 SLOAD JUMPDEST DUP4 PUSH2 0x1067 SWAP2 SWAP1 PUSH2 0x1B95 JUMP JUMPDEST PUSH2 0x1071 SWAP2 SWAP1 PUSH2 0x1C03 JUMP JUMPDEST SWAP1 POP PUSH2 0x1089 DUP5 DUP5 DUP4 DUP6 PUSH2 0x1084 SWAP2 SWAP1 PUSH2 0x1B62 JUMP JUMPDEST PUSH2 0x154D JUMP JUMPDEST PUSH0 DUP2 GT ISZERO PUSH2 0x109C JUMPI PUSH2 0x109B DUP5 DUP3 PUSH2 0x163D JUMP JUMPDEST JUMPDEST POP POP POP POP JUMP JUMPDEST PUSH0 PUSH1 0x5 PUSH0 SWAP1 SLOAD SWAP1 PUSH2 0x100 EXP SWAP1 DIV PUSH20 0xFFFFFFFFFFFFFFFFFFFFFFFFFFFFFFFFFFFFFFFF AND SWAP1 POP DUP2 PUSH1 0x5 PUSH0 PUSH2 0x100 EXP DUP2 SLOAD DUP2 PUSH20 0xFFFFFFFFFFFFFFFFFFFFFFFFFFFFFFFFFFFFFFFF MUL NOT AND SWAP1 DUP4 PUSH20 0xFFFFFFFFFFFFFFFFFFFFFFFFFFFFFFFFFFFFFFFF AND MUL OR SWAP1 SSTORE POP DUP2 PUSH20 0xFFFFFFFFFFFFFFFFFFFFFFFFFFFFFFFFFFFFFFFF AND DUP2 PUSH20 0xFFFFFFFFFFFFFFFFFFFFFFFFFFFFFFFFFFFFFFFF AND PUSH32 0x8BE0079C531659141344CD1FD0A4F28419497F9722A3DAAFE3B4186F6B6457E0 PUSH1 0x40 MLOAD PUSH1 0x40 MLOAD DUP1 SWAP2 SUB SWAP1 LOG3 POP POP JUMP JUMPDEST PUSH0 PUSH20 0xFFFFFFFFFFFFFFFFFFFFFFFFFFFFFFFFFFFFFFFF AND DUP5 PUSH20 0xFFFFFFFFFFFFFFFFFFFFFFFFFFFFFFFFFFFFFFFF AND SUB PUSH2 0x11D5 JUMPI PUSH0 PUSH1 0x40 MLOAD PUSH32 0xE602DF0500000000000000000000000000000000000000000000000000000000 DUP2 MSTORE PUSH1 0x4 ADD PUSH2 0x11CC SWAP2 SWAP1 PUSH2 0x18D5 JUMP JUMPDEST PUSH1 0x40 MLOAD DUP1 SWAP2 SUB SWAP1 REVERT JUMPDEST PUSH0 PUSH20 0xFFFFFFFFFFFFFFFFFFFFFFFFFFFFFFFFFFFFFFFF AND DUP4 PUSH20 0xFFFFFFFFFFFFFFFFFFFFFFFFFFFFFFFFFFFFFFFF AND SUB PUSH2 0x1245 JUMPI PUSH0 PUSH1 0x40 MLOAD PUSH32 0x94280D6200000000000000000000000000000000000000000000000000000000 DUP2 MSTORE PUSH1 0x4 ADD PUSH2 0x123C SWAP2 SWAP1 PUSH2 0x18D5 JUMP JUMPDEST PUSH1 0x40 MLOAD DUP1 SWAP2 SUB SWAP1 REVERT JUMPDEST DUP2 PUSH1 0x1 PUSH0 DUP7 PUSH20 0xFFFFFFFFFFFFFFFFFFFFFFFFFFFFFFFFFFFFFFFF AND PUSH20 0xFFFFFFFFFFFFFFFFFFFFFFFFFFFFFFFFFFFFFFFF AND DUP2 MSTORE PUSH1 0x20 ADD SWAP1 DUP2 MSTORE PUSH1 0x20 ADD PUSH0 KECCAK256 PUSH0 DUP6 PUSH20 0xFFFFFFFFFFFFFFFFFFFFFFFFFFFFFFFFFFFFFFFF AND PUSH20 0xFFFFFFFFFFFFFFFFFFFFFFFFFFFFFFFFFFFFFFFF AND DUP2 MSTORE PUSH1 0x20 ADD SWAP1 DUP2 MSTORE PUSH1 0x20 ADD PUSH0 KECCAK256 DUP2 SWAP1 SSTORE POP DUP1 ISZERO PUSH2 0x132E JUMPI DUP3 PUSH20 0xFFFFFFFFFFFFFFFFFFFFFFFFFFFFFFFFFFFFFFFF AND DUP5 PUSH20 0xFFFFFFFFFFFFFFFFFFFFFFFFFFFFFFFFFFFFFFFF AND PUSH32 0x8C5BE1E5EBEC7D5BD14F71427D1E84F3DD0314C0F7B2291E5B200AC8C7C3B925 DUP5 PUSH1 0x40 MLOAD PUSH2 0x1325 SWAP2 SWAP1 PUSH2 0x1764 JUMP JUMPDEST PUSH1 0x40 MLOAD DUP1 SWAP2 SUB SWAP1 LOG3 JUMPDEST POP POP POP POP JUMP JUMPDEST PUSH0 PUSH20 0xFFFFFFFFFFFFFFFFFFFFFFFFFFFFFFFFFFFFFFFF AND DUP4 PUSH20 0xFFFFFFFFFFFFFFFFFFFFFFFFFFFFFFFFFFFFFFFF AND SUB PUSH2 0x1384 JUMPI DUP1 PUSH1 0x2 PUSH0 DUP3 DUP3 SLOAD PUSH2 0x1378 SWAP2 SWAP1 PUSH2 0x1AC7 JUMP JUMPDEST SWAP3 POP POP DUP2 SWAP1 SSTORE POP PUSH2 0x1452 JUMP JUMPDEST PUSH0 DUP1 PUSH0 DUP6 PUSH20 0xFFFFFFFFFFFFFFFFFFFFFFFFFFFFFFFFFFFFFFFF AND PUSH20 0xFFFFFFFFFFFFFFFFFFFFFFFFFFFFFFFFFFFFFFFF AND DUP2 MSTORE PUSH1 0x20 ADD SWAP1 DUP2 MSTORE PUSH1 0x20 ADD PUSH0 KECCAK256 SLOAD SWAP1 POP DUP2 DUP2 LT ISZERO PUSH2 0x140D JUMPI DUP4 DUP2 DUP4 PUSH1 0x40 MLOAD PUSH32 0xE450D38C00000000000000000000000000000000000000000000000000000000 DUP2 MSTORE PUSH1 0x4 ADD PUSH2 0x1404 SWAP4 SWAP3 SWAP2 SWAP1 PUSH2 0x1ECA JUMP JUMPDEST PUSH1 0x40 MLOAD DUP1 SWAP2 SUB SWAP1 REVERT JUMPDEST DUP2 DUP2 SUB PUSH0 DUP1 DUP7 PUSH20 0xFFFFFFFFFFFFFFFFFFFFFFFFFFFFFFFFFFFFFFFF AND PUSH20 0xFFFFFFFFFFFFFFFFFFFFFFFFFFFFFFFFFFFFFFFF AND DUP2 MSTORE PUSH1 0x20 ADD SWAP1 DUP2 MSTORE PUSH1 0x20 ADD PUSH0 KECCAK256 DUP2 SWAP1 SSTORE POP POP JUMPDEST PUSH0 PUSH20 0xFFFFFFFFFFFFFFFFFFFFFFFFFFFFFFFFFFFFFFFF AND DUP3 PUSH20 0xFFFFFFFFFFFFFFFFFFFFFFFFFFFFFFFFFFFFFFFF AND SUB PUSH2 0x1499 JUMPI DUP1 PUSH1 0x2 PUSH0 DUP3 DUP3 SLOAD SUB SWAP3 POP POP DUP2 SWAP1 SSTORE POP PUSH2 0x14E3 JUMP JUMPDEST DUP1 PUSH0 DUP1 DUP5 PUSH20 0xFFFFFFFFFFFFFFFFFFFFFFFFFFFFFFFFFFFFFFFF AND PUSH20 0xFFFFFFFFFFFFFFFFFFFFFFFFFFFFFFFFFFFFFFFF AND DUP2 MSTORE PUSH1 0x20 ADD SWAP1 DUP2 MSTORE PUSH1 0x20 ADD PUSH0 KECCAK256 PUSH0 DUP3 DUP3 SLOAD ADD SWAP3 POP POP DUP2 SWAP1 SSTORE POP JUMPDEST DUP2 PUSH20 0xFFFFFFFFFFFFFFFFFFFFFFFFFFFFFFFFFFFFFFFF AND DUP4 PUSH20 0xFFFFFFFFFFFFFFFFFFFFFFFFFFFFFFFFFFFFFFFF AND PUSH32 0xDDF252AD1BE2C89B69C2B068FC378DAA952BA7F163C4A11628F55A4DF523B3EF DUP4 PUSH1 0x40 MLOAD PUSH2 0x1540 SWAP2 SWAP1 PUSH2 0x1764 JUMP JUMPDEST PUSH1 0x40 MLOAD DUP1 SWAP2 SUB SWAP1 LOG3 POP POP POP JUMP JUMPDEST PUSH0 PUSH20 0xFFFFFFFFFFFFFFFFFFFFFFFFFFFFFFFFFFFFFFFF AND DUP4 PUSH20 0xFFFFFFFFFFFFFFFFFFFFFFFFFFFFFFFFFFFFFFFF AND SUB PUSH2 0x15BD JUMPI PUSH0 PUSH1 0x40 MLOAD PUSH32 0x96C6FD1E00000000000000000000000000000000000000000000000000000000 DUP2 MSTORE PUSH1 0x4 ADD PUSH2 0x15B4 SWAP2 SWAP1 PUSH2 0x18D5 JUMP JUMPDEST PUSH1 0x40 MLOAD DUP1 SWAP2 SUB SWAP1 REVERT JUMPDEST PUSH0 PUSH20 0xFFFFFFFFFFFFFFFFFFFFFFFFFFFFFFFFFFFFFFFF AND DUP3 PUSH20 0xFFFFFFFFFFFFFFFFFFFFFFFFFFFFFFFFFFFFFFFF AND SUB PUSH2 0x162D JUMPI PUSH0 PUSH1 0x40 MLOAD PUSH32 0xEC442F0500000000000000000000000000000000000000000000000000000000 DUP2 MSTORE PUSH1 0x4 ADD PUSH2 0x1624 SWAP2 SWAP1 PUSH2 0x18D5 JUMP JUMPDEST PUSH1 0x40 MLOAD DUP1 SWAP2 SUB SWAP1 REVERT JUMPDEST PUSH2 0x1638 DUP4 DUP4 DUP4 PUSH2 0x1334 JUMP JUMPDEST POP POP POP JUMP JUMPDEST PUSH0 PUSH20 0xFFFFFFFFFFFFFFFFFFFFFFFFFFFFFFFFFFFFFFFF AND DUP3 PUSH20 0xFFFFFFFFFFFFFFFFFFFFFFFFFFFFFFFFFFFFFFFF AND SUB PUSH2 0x16AD JUMPI PUSH0 PUSH1 0x40 MLOAD PUSH32 0x96C6FD1E00000000000000000000000000000000000000000000000000000000 DUP2 MSTORE PUSH1 0x4 ADD PUSH2 0x16A4 SWAP2 SWAP1 PUSH2 0x18D5 JUMP JUMPDEST PUSH1 0x40 MLOAD DUP1 SWAP2 SUB SWAP1 REVERT JUMPDEST PUSH2 0x16B8 DUP3 PUSH0 DUP4 PUSH2 0x1334 JUMP JUMPDEST POP POP JUMP JUMPDEST PUSH0 DUP2 MLOAD SWAP1 POP SWAP2 SWAP1 POP JUMP JUMPDEST PUSH0 DUP3 DUP3 MSTORE PUSH1 0x20 DUP3 ADD SWAP1 POP SWAP3 SWAP2 POP POP JUMP JUMPDEST DUP3 DUP2 DUP4 MCOPY PUSH0 DUP4 DUP4 ADD MSTORE POP POP POP JUMP JUMPDEST PUSH0 PUSH1 0x1F NOT PUSH1 0x1F DUP4 ADD AND SWAP1 POP SWAP2 SWAP1 POP JUMP JUMPDEST PUSH0 PUSH2 0x16FE DUP3 PUSH2 0x16BC JUMP JUMPDEST PUSH2 0x1708 DUP2 DUP6 PUSH2 0x16C6 JUMP JUMPDEST SWAP4 POP PUSH2 0x1718 DUP2 DUP6 PUSH1 0x20 DUP7 ADD PUSH2 0x16D6 JUMP JUMPDEST PUSH2 0x1721 DUP2 PUSH2 0x16E4 JUMP JUMPDEST DUP5 ADD SWAP2 POP POP SWAP3 SWAP2 POP POP JUMP JUMPDEST PUSH0 PUSH1 0x20 DUP3 ADD SWAP1 POP DUP2 DUP2 SUB PUSH0 DUP4 ADD MSTORE PUSH2 0x1744 DUP2 DUP5 PUSH2 0x16F4 JUMP JUMPDEST SWAP1 POP SWAP3 SWAP2 POP POP JUMP JUMPDEST PUSH0 DUP2 SWAP1 POP SWAP2 SWAP1 POP JUMP JUMPDEST PUSH2 0x175E DUP2 PUSH2 0x174C JUMP JUMPDEST DUP3 MSTORE POP POP JUMP JUMPDEST PUSH0 PUSH1 0x20 DUP3 ADD SWAP1 POP PUSH2 0x1777 PUSH0 DUP4 ADD DUP5 PUSH2 0x1755 JUMP JUMPDEST SWAP3 SWAP2 POP POP JUMP JUMPDEST PUSH0 DUP1 REVERT JUMPDEST PUSH0 PUSH20 0xFFFFFFFFFFFFFFFFFFFFFFFFFFFFFFFFFFFFFFFF DUP3 AND SWAP1 POP SWAP2 SWAP1 POP JUMP JUMPDEST PUSH0 PUSH2 0x17AA DUP3 PUSH2 0x1781 JUMP JUMPDEST SWAP1 POP SWAP2 SWAP1 POP JUMP JUMPDEST PUSH2 0x17BA DUP2 PUSH2 0x17A0 JUMP JUMPDEST DUP2 EQ PUSH2 0x17C4 JUMPI PUSH0 DUP1 REVERT JUMPDEST POP JUMP JUMPDEST PUSH0 DUP2 CALLDATALOAD SWAP1 POP PUSH2 0x17D5 DUP2 PUSH2 0x17B1 JUMP JUMPDEST SWAP3 SWAP2 POP POP JUMP JUMPDEST PUSH2 0x17E4 DUP2 PUSH2 0x174C JUMP JUMPDEST DUP2 EQ PUSH2 0x17EE JUMPI PUSH0 DUP1 REVERT JUMPDEST POP JUMP JUMPDEST PUSH0 DUP2 CALLDATALOAD SWAP1 POP PUSH2 0x17FF DUP2 PUSH2 0x17DB JUMP JUMPDEST SWAP3 SWAP2 POP POP JUMP JUMPDEST PUSH0 DUP1 PUSH1 0x40 DUP4 DUP6 SUB SLT ISZERO PUSH2 0x181B JUMPI PUSH2 0x181A PUSH2 0x177D JUMP JUMPDEST JUMPDEST PUSH0 PUSH2 0x1828 DUP6 DUP3 DUP7 ADD PUSH2 0x17C7 JUMP JUMPDEST SWAP3 POP POP PUSH1 0x20 PUSH2 0x1839 DUP6 DUP3 DUP7 ADD PUSH2 0x17F1 JUMP JUMPDEST SWAP2 POP POP SWAP3 POP SWAP3 SWAP1 POP JUMP JUMPDEST PUSH0 DUP2 ISZERO ISZERO SWAP1 POP SWAP2 SWAP1 POP JUMP JUMPDEST PUSH2 0x1857 DUP2 PUSH2 0x1843 JUMP JUMPDEST DUP3 MSTORE POP POP JUMP JUMPDEST PUSH0 PUSH1 0x20 DUP3 ADD SWAP1 POP PUSH2 0x1870 PUSH0 DUP4 ADD DUP5 PUSH2 0x184E JUMP JUMPDEST SWAP3 SWAP2 POP POP JUMP JUMPDEST PUSH0 DUP1 PUSH0 PUSH1 0x60 DUP5 DUP7 SUB SLT ISZERO PUSH2 0x188D JUMPI PUSH2 0x188C PUSH2 0x177D JUMP JUMPDEST JUMPDEST PUSH0 PUSH2 0x189A DUP7 DUP3 DUP8 ADD PUSH2 0x17C7 JUMP JUMPDEST SWAP4 POP POP PUSH1 0x20 PUSH2 0x18AB DUP7 DUP3 DUP8 ADD PUSH2 0x17C7 JUMP JUMPDEST SWAP3 POP POP PUSH1 0x40 PUSH2 0x18BC DUP7 DUP3 DUP8 ADD PUSH2 0x17F1 JUMP JUMPDEST SWAP2 POP POP SWAP3 POP SWAP3 POP SWAP3 JUMP JUMPDEST PUSH2 0x18CF DUP2 PUSH2 0x17A0 JUMP JUMPDEST DUP3 MSTORE POP POP JUMP JUMPDEST PUSH0 PUSH1 0x20 DUP3 ADD SWAP1 POP PUSH2 0x18E8 PUSH0 DUP4 ADD DUP5 PUSH2 0x18C6 JUMP JUMPDEST SWAP3 SWAP2 POP POP JUMP JUMPDEST PUSH0 PUSH1 0xFF DUP3 AND SWAP1 POP SWAP2 SWAP1 POP JUMP JUMPDEST PUSH2 0x1903 DUP2 PUSH2 0x18EE JUMP JUMPDEST DUP3 MSTORE POP POP JUMP JUMPDEST PUSH0 PUSH1 0x20 DUP3 ADD SWAP1 POP PUSH2 0x191C PUSH0 DUP4 ADD DUP5 PUSH2 0x18FA JUMP JUMPDEST SWAP3 SWAP2 POP POP JUMP JUMPDEST PUSH0 PUSH1 0x20 DUP3 DUP5 SUB SLT ISZERO PUSH2 0x1937 JUMPI PUSH2 0x1936 PUSH2 0x177D JUMP JUMPDEST JUMPDEST PUSH0 PUSH2 0x1944 DUP5 DUP3 DUP6 ADD PUSH2 0x17C7 JUMP JUMPDEST SWAP2 POP POP SWAP3 SWAP2 POP POP JUMP JUMPDEST PUSH0 DUP1 PUSH1 0x40 DUP4 DUP6 SUB SLT ISZERO PUSH2 0x1963 JUMPI PUSH2 0x1962 PUSH2 0x177D JUMP JUMPDEST JUMPDEST PUSH0 PUSH2 0x1970 DUP6 DUP3 DUP7 ADD PUSH2 0x17F1 JUMP JUMPDEST SWAP3 POP POP PUSH1 0x20 PUSH2 0x1981 DUP6 DUP3 DUP7 ADD PUSH2 0x17C7 JUMP JUMPDEST SWAP2 POP POP SWAP3 POP SWAP3 SWAP1 POP JUMP JUMPDEST PUSH0 DUP1 PUSH1 0x40 DUP4 DUP6 SUB SLT ISZERO PUSH2 0x19A1 JUMPI PUSH2 0x19A0 PUSH2 0x177D JUMP JUMPDEST JUMPDEST PUSH0 PUSH2 0x19AE DUP6 DUP3 DUP7 ADD PUSH2 0x17C7 JUMP JUMPDEST SWAP3 POP POP PUSH1 0x20 PUSH2 0x19BF DUP6 DUP3 DUP7 ADD PUSH2 0x17C7 JUMP JUMPDEST SWAP2 POP POP SWAP3 POP SWAP3 SWAP1 POP JUMP JUMPDEST PUSH0 DUP2 SWAP1 POP SWAP2 SWAP1 POP JUMP JUMPDEST PUSH0 PUSH2 0x19EC PUSH2 0x19E7 PUSH2 0x19E2 DUP5 PUSH2 0x1781 JUMP JUMPDEST PUSH2 0x19C9 JUMP JUMPDEST PUSH2 0x1781 JUMP JUMPDEST SWAP1 POP SWAP2 SWAP1 POP JUMP JUMPDEST PUSH0 PUSH2 0x19FD DUP3 PUSH2 0x19D2 JUMP JUMPDEST SWAP1 POP SWAP2 SWAP1 POP JUMP JUMPDEST PUSH0 PUSH2 0x1A0E DUP3 PUSH2 0x19F3 JUMP JUMPDEST SWAP1 POP SWAP2 SWAP1 POP JUMP JUMPDEST PUSH2 0x1A1E DUP2 PUSH2 0x1A04 JUMP JUMPDEST DUP3 MSTORE POP POP JUMP JUMPDEST PUSH0 PUSH1 0x20 DUP3 ADD SWAP1 POP PUSH2 0x1A37 PUSH0 DUP4 ADD DUP5 PUSH2 0x1A15 JUMP JUMPDEST SWAP3 SWAP2 POP POP JUMP JUMPDEST PUSH32 0x4E487B7100000000000000000000000000000000000000000000000000000000 PUSH0 MSTORE PUSH1 0x22 PUSH1 0x4 MSTORE PUSH1 0x24 PUSH0 REVERT JUMPDEST PUSH0 PUSH1 0x2 DUP3 DIV SWAP1 POP PUSH1 0x1 DUP3 AND DUP1 PUSH2 0x1A81 JUMPI PUSH1 0x7F DUP3 AND SWAP2 POP JUMPDEST PUSH1 0x20 DUP3 LT DUP2 SUB PUSH2 0x1A94 JUMPI PUSH2 0x1A93 PUSH2 0x1A3D JUMP JUMPDEST JUMPDEST POP SWAP2 SWAP1 POP JUMP JUMPDEST PUSH32 0x4E487B7100000000000000000000000000000000000000000000000000000000 PUSH0 MSTORE PUSH1 0x11 PUSH1 0x4 MSTORE PUSH1 0x24 PUSH0 REVERT JUMPDEST PUSH0 PUSH2 0x1AD1 DUP3 PUSH2 0x174C JUMP JUMPDEST SWAP2 POP PUSH2 0x1ADC DUP4 PUSH2 0x174C JUMP JUMPDEST SWAP3 POP DUP3 DUP3 ADD SWAP1 POP DUP1 DUP3 GT ISZERO PUSH2 0x1AF4 JUMPI PUSH2 0x1AF3 PUSH2 0x1A9A JUMP JUMPDEST JUMPDEST SWAP3 SWAP2 POP POP JUMP JUMPDEST PUSH32 0x5465616D2076657374696E6720636C696666206E6F7420726561636865640000 PUSH0 DUP3 ADD MSTORE POP JUMP JUMPDEST PUSH0 PUSH2 0x1B2E PUSH1 0x1E DUP4 PUSH2 0x16C6 JUMP JUMPDEST SWAP2 POP PUSH2 0x1B39 DUP3 PUSH2 0x1AFA JUMP JUMPDEST PUSH1 0x20 DUP3 ADD SWAP1 POP SWAP2 SWAP1 POP JUMP JUMPDEST PUSH0 PUSH1 0x20 DUP3 ADD SWAP1 POP DUP2 DUP2 SUB PUSH0 DUP4 ADD MSTORE PUSH2 0x1B5B DUP2 PUSH2 0x1B22 JUMP JUMPDEST SWAP1 POP SWAP2 SWAP1 POP JUMP JUMPDEST PUSH0 PUSH2 0x1B6C DUP3 PUSH2 0x174C JUMP JUMPDEST SWAP2 POP PUSH2 0x1B77 DUP4 PUSH2 0x174C JUMP JUMPDEST SWAP3 POP DUP3 DUP3 SUB SWAP1 POP DUP2 DUP2 GT ISZERO PUSH2 0x1B8F JUMPI PUSH2 0x1B8E PUSH2 0x1A9A JUMP JUMPDEST JUMPDEST SWAP3 SWAP2 POP POP JUMP JUMPDEST PUSH0 PUSH2 0x1B9F DUP3 PUSH2 0x174C JUMP JUMPDEST SWAP2 POP PUSH2 0x1BAA DUP4 PUSH2 0x174C JUMP JUMPDEST SWAP3 POP DUP3 DUP3 MUL PUSH2 0x1BB8 DUP2 PUSH2 0x174C JUMP JUMPDEST SWAP2 POP DUP3 DUP3 DIV DUP5 EQ DUP4 ISZERO OR PUSH2 0x1BCF JUMPI PUSH2 0x1BCE PUSH2 0x1A9A JUMP JUMPDEST JUMPDEST POP SWAP3 SWAP2 POP POP JUMP JUMPDEST PUSH32 0x4E487B7100000000000000000000000000000000000000000000000000000000 PUSH0 MSTORE PUSH1 0x12 PUSH1 0x4 MSTORE PUSH1 0x24 PUSH0 REVERT JUMPDEST PUSH0 PUSH2 0x1C0D DUP3 PUSH2 0x174C JUMP JUMPDEST SWAP2 POP PUSH2 0x1C18 DUP4 PUSH2 0x174C JUMP JUMPDEST SWAP3 POP DUP3 PUSH2 0x1C28 JUMPI PUSH2 0x1C27 PUSH2 0x1BD6 JUMP JUMPDEST JUMPDEST DUP3 DUP3 DIV SWAP1 POP SWAP3 SWAP2 POP POP JUMP JUMPDEST PUSH32 0x4E6F20746F6B656E7320617661696C61626C6520666F722072656C6561736500 PUSH0 DUP3 ADD MSTORE POP JUMP JUMPDEST PUSH0 PUSH2 0x1C67 PUSH1 0x1F DUP4 PUSH2 0x16C6 JUMP JUMPDEST SWAP2 POP PUSH2 0x1C72 DUP3 PUSH2 0x1C33 JUMP JUMPDEST PUSH1 0x20 DUP3 ADD SWAP1 POP SWAP2 SWAP1 POP JUMP JUMPDEST PUSH0 PUSH1 0x20 DUP3 ADD SWAP1 POP DUP2 DUP2 SUB PUSH0 DUP4 ADD MSTORE PUSH2 0x1C94 DUP2 PUSH2 0x1C5B JUMP JUMPDEST SWAP1 POP SWAP2 SWAP1 POP JUMP JUMPDEST PUSH32 0x6D617820746F6B656E206C696D69742072656163686564000000000000000000 PUSH0 DUP3 ADD MSTORE POP JUMP JUMPDEST PUSH0 PUSH2 0x1CCF PUSH1 0x17 DUP4 PUSH2 0x16C6 JUMP JUMPDEST SWAP2 POP PUSH2 0x1CDA DUP3 PUSH2 0x1C9B JUMP JUMPDEST PUSH1 0x20 DUP3 ADD SWAP1 POP SWAP2 SWAP1 POP JUMP JUMPDEST PUSH0 PUSH1 0x20 DUP3 ADD SWAP1 POP DUP2 DUP2 SUB PUSH0 DUP4 ADD MSTORE PUSH2 0x1CFC DUP2 PUSH2 0x1CC3 JUMP JUMPDEST SWAP1 POP SWAP2 SWAP1 POP JUMP JUMPDEST PUSH32 0x48616C76696E67206E6F74206475652079657400000000000000000000000000 PUSH0 DUP3 ADD MSTORE POP JUMP JUMPDEST PUSH0 PUSH2 0x1D37 PUSH1 0x13 DUP4 PUSH2 0x16C6 JUMP JUMPDEST SWAP2 POP PUSH2 0x1D42 DUP3 PUSH2 0x1D03 JUMP JUMPDEST PUSH1 0x20 DUP3 ADD SWAP1 POP SWAP2 SWAP1 POP JUMP JUMPDEST PUSH0 PUSH1 0x20 DUP3 ADD SWAP1 POP DUP2 DUP2 SUB PUSH0 DUP4 ADD MSTORE PUSH2 0x1D64 DUP2 PUSH2 0x1D2B JUMP JUMPDEST SWAP1 POP SWAP2 SWAP1 POP JUMP JUMPDEST PUSH0 PUSH1 0x40 DUP3 ADD SWAP1 POP PUSH2 0x1D7E PUSH0 DUP4 ADD DUP6 PUSH2 0x1755 JUMP JUMPDEST PUSH2 0x1D8B PUSH1 0x20 DUP4 ADD DUP5 PUSH2 0x18C6 JUMP JUMPDEST SWAP4 SWAP3 POP POP POP JUMP JUMPDEST PUSH32 0x6E6F20746F6B656E20617661696C61626C6520666F722072656C656173650000 PUSH0 DUP3 ADD MSTORE POP JUMP JUMPDEST PUSH0 PUSH2 0x1DC6 PUSH1 0x1E DUP4 PUSH2 0x16C6 JUMP JUMPDEST SWAP2 POP PUSH2 0x1DD1 DUP3 PUSH2 0x1D92 JUMP JUMPDEST PUSH1 0x20 DUP3 ADD SWAP1 POP SWAP2 SWAP1 POP JUMP JUMPDEST PUSH0 PUSH1 0x20 DUP3 ADD SWAP1 POP DUP2 DUP2 SUB PUSH0 DUP4 ADD MSTORE PUSH2 0x1DF3 DUP2 PUSH2 0x1DBA JUMP JUMPDEST SWAP1 POP SWAP2 SWAP1 POP JUMP JUMPDEST PUSH32 0x6D617820746F6B656E20696D6974207265616368656400000000000000000000 PUSH0 DUP3 ADD MSTORE POP JUMP JUMPDEST PUSH0 PUSH2 0x1E2E PUSH1 0x16 DUP4 PUSH2 0x16C6 JUMP JUMPDEST SWAP2 POP PUSH2 0x1E39 DUP3 PUSH2 0x1DFA JUMP JUMPDEST PUSH1 0x20 DUP3 ADD SWAP1 POP SWAP2 SWAP1 POP JUMP JUMPDEST PUSH0 PUSH1 0x20 DUP3 ADD SWAP1 POP DUP2 DUP2 SUB PUSH0 DUP4 ADD MSTORE PUSH2 0x1E5B DUP2 PUSH2 0x1E22 JUMP JUMPDEST SWAP1 POP SWAP2 SWAP1 POP JUMP JUMPDEST PUSH32 0x5265656E7472616E637947756172643A207265656E7472616E742063616C6C00 PUSH0 DUP3 ADD MSTORE POP JUMP JUMPDEST PUSH0 PUSH2 0x1E96 PUSH1 0x1F DUP4 PUSH2 0x16C6 JUMP JUMPDEST SWAP2 POP PUSH2 0x1EA1 DUP3 PUSH2 0x1E62 JUMP JUMPDEST PUSH1 0x20 DUP3 ADD SWAP1 POP SWAP2 SWAP1 POP JUMP JUMPDEST PUSH0 PUSH1 0x20 DUP3 ADD SWAP1 POP DUP2 DUP2 SUB PUSH0 DUP4 ADD MSTORE PUSH2 0x1EC3 DUP2 PUSH2 0x1E8A JUMP JUMPDEST SWAP1 POP SWAP2 SWAP1 POP JUMP JUMPDEST PUSH0 PUSH1 0x60 DUP3 ADD SWAP1 POP PUSH2 0x1EDD PUSH0 DUP4 ADD DUP7 PUSH2 0x18C6 JUMP JUMPDEST PUSH2 0x1EEA PUSH1 0x20 DUP4 ADD DUP6 PUSH2 0x1755 JUMP JUMPDEST PUSH2 0x1EF7 PUSH1 0x40 DUP4 ADD DUP5 PUSH2 0x1755 JUMP JUMPDEST SWAP5 SWAP4 POP POP POP POP JUMP INVALID LOG2 PUSH5 0x6970667358 0x22 SLT KECCAK256 0x1E PUSH9 0x689FAAB59F77A2BB4F EXTCODESIZE DUP8 PUSH21 0x89EC46D2BF5DE7F1C820060292283356DA6264736F PUSH13 0x634300081A0033000000000000 "
				},
				"gasEstimates": {
					"creation": {
						"codeDepositCost": "1597800",
						"executionCost": "infinite",
						"totalCost": "infinite"
					},
					"external": {
						"COMMUNITY_GROWTH_AND_MARKETING()": "462",
						"HALVING_PERIOD()": "370",
						"ICO_ALLOCATION()": "440",
						"INITIAL_SUPPLY()": "393",
						"LIQUIDITY_POOL()": "419",
						"MARKETING_INITIAL_UNLOCK()": "415",
						"PLAY_TO_EARN()": "440",
						"STRADEGIC_RESERVE()": "484",
						"TEAM_AND_DEVELOPMENT()": "461",
						"allowance(address,address)": "infinite",
						"approve(address,uint256)": "infinite",
						"balanceOf(address)": "2962",
						"buyTax()": "2514",
						"decimals()": "428",
						"halveRewards()": "infinite",
						"initializeRewardParameters(uint256,address)": "infinite",
						"lastHalvingTime()": "2537",
						"marketingAllocated()": "2493",
						"name()": "infinite",
						"owner()": "2560",
						"releaseMarketingTokens()": "infinite",
						"releaseTeamTokens()": "infinite",
						"releasedMarketingAmount()": "2494",
						"releasedTeamAmount()": "2536",
						"renounceOwnership()": "infinite",
						"rewardRate()": "2493",
						"sellTax()": "2536",
						"stablecoin()": "infinite",
						"symbol()": "infinite",
						"teamAllocated()": "2537",
						"totalSupply()": "2478",
						"transfer(address,uint256)": "infinite",
						"transferFrom(address,address,uint256)": "infinite",
						"transferOwnership(address)": "infinite"
					},
					"internal": {
						"_transfer(address,address,uint256)": "infinite"
					}
				},
				"methodIdentifiers": {
					"COMMUNITY_GROWTH_AND_MARKETING()": "ba115cb6",
					"HALVING_PERIOD()": "3adde9c1",
					"ICO_ALLOCATION()": "b0a65b3e",
					"INITIAL_SUPPLY()": "2ff2e9dc",
					"LIQUIDITY_POOL()": "2cca9dfd",
					"MARKETING_INITIAL_UNLOCK()": "23256627",
					"PLAY_TO_EARN()": "4f0dbaf2",
					"STRADEGIC_RESERVE()": "56bf536c",
					"TEAM_AND_DEVELOPMENT()": "df7f989f",
					"allowance(address,address)": "dd62ed3e",
					"approve(address,uint256)": "095ea7b3",
					"balanceOf(address)": "70a08231",
					"buyTax()": "4f7041a5",
					"decimals()": "313ce567",
					"halveRewards()": "8b887e7e",
					"initializeRewardParameters(uint256,address)": "926165d7",
					"lastHalvingTime()": "8cbb6df7",
					"marketingAllocated()": "1f6722b6",
					"name()": "06fdde03",
					"owner()": "8da5cb5b",
					"releaseMarketingTokens()": "dc31adee",
					"releaseTeamTokens()": "14c411c7",
					"releasedMarketingAmount()": "0733f92b",
					"releasedTeamAmount()": "a6f59846",
					"renounceOwnership()": "715018a6",
					"rewardRate()": "7b0a47ee",
					"sellTax()": "cc1776d3",
					"stablecoin()": "e9cbd822",
					"symbol()": "95d89b41",
					"teamAllocated()": "329430ca",
					"totalSupply()": "18160ddd",
					"transfer(address,uint256)": "a9059cbb",
					"transferFrom(address,address,uint256)": "23b872dd",
					"transferOwnership(address)": "f2fde38b"
				}
			},
			"storageLayout": {
				"storage": [
					{
						"astId": 372,
						"contract": "contracts/XORA.sol:XORA",
						"label": "_balances",
						"offset": 0,
						"slot": "0",
						"type": "t_mapping(t_address,t_uint256)"
					},
					{
						"astId": 378,
						"contract": "contracts/XORA.sol:XORA",
						"label": "_allowances",
						"offset": 0,
						"slot": "1",
						"type": "t_mapping(t_address,t_mapping(t_address,t_uint256))"
					},
					{
						"astId": 380,
						"contract": "contracts/XORA.sol:XORA",
						"label": "_totalSupply",
						"offset": 0,
						"slot": "2",
						"type": "t_uint256"
					},
					{
						"astId": 382,
						"contract": "contracts/XORA.sol:XORA",
						"label": "_name",
						"offset": 0,
						"slot": "3",
						"type": "t_string_storage"
					},
					{
						"astId": 384,
						"contract": "contracts/XORA.sol:XORA",
						"label": "_symbol",
						"offset": 0,
						"slot": "4",
						"type": "t_string_storage"
					},
					{
						"astId": 8,
						"contract": "contracts/XORA.sol:XORA",
						"label": "_owner",
						"offset": 0,
						"slot": "5",
						"type": "t_address"
					},
					{
						"astId": 295,
						"contract": "contracts/XORA.sol:XORA",
						"label": "_status",
						"offset": 0,
						"slot": "6",
						"type": "t_uint256"
					},
					{
						"astId": 1020,
						"contract": "contracts/XORA.sol:XORA",
						"label": "stablecoin",
						"offset": 0,
						"slot": "7",
						"type": "t_contract(IERC20)942"
					},
					{
						"astId": 1023,
						"contract": "contracts/XORA.sol:XORA",
						"label": "buyTax",
						"offset": 0,
						"slot": "8",
						"type": "t_uint256"
					},
					{
						"astId": 1026,
						"contract": "contracts/XORA.sol:XORA",
						"label": "sellTax",
						"offset": 0,
						"slot": "9",
						"type": "t_uint256"
					},
					{
						"astId": 1028,
						"contract": "contracts/XORA.sol:XORA",
						"label": "lastHalvingTime",
						"offset": 0,
						"slot": "10",
						"type": "t_uint256"
					},
					{
						"astId": 1030,
						"contract": "contracts/XORA.sol:XORA",
						"label": "rewardRate",
						"offset": 0,
						"slot": "11",
						"type": "t_uint256"
					},
					{
						"astId": 1035,
						"contract": "contracts/XORA.sol:XORA",
						"label": "teamStartTimestamp",
						"offset": 0,
						"slot": "12",
						"type": "t_uint256"
					},
					{
						"astId": 1053,
						"contract": "contracts/XORA.sol:XORA",
						"label": "TEAM_TOTAL_FUND",
						"offset": 0,
						"slot": "13",
						"type": "t_uint256"
					},
					{
						"astId": 1055,
						"contract": "contracts/XORA.sol:XORA",
						"label": "marketingStartTimestamp",
						"offset": 0,
						"slot": "14",
						"type": "t_uint256"
					},
					{
						"astId": 1066,
						"contract": "contracts/XORA.sol:XORA",
						"label": "teamAllocated",
						"offset": 0,
						"slot": "15",
						"type": "t_uint256"
					},
					{
						"astId": 1068,
						"contract": "contracts/XORA.sol:XORA",
						"label": "releasedTeamAmount",
						"offset": 0,
						"slot": "16",
						"type": "t_uint256"
					},
					{
						"astId": 1073,
						"contract": "contracts/XORA.sol:XORA",
						"label": "MARKETING_VESTING_PERIOD",
						"offset": 0,
						"slot": "17",
						"type": "t_uint256"
					},
					{
						"astId": 1081,
						"contract": "contracts/XORA.sol:XORA",
						"label": "marketingAllocated",
						"offset": 0,
						"slot": "18",
						"type": "t_uint256"
					},
					{
						"astId": 1083,
						"contract": "contracts/XORA.sol:XORA",
						"label": "releasedMarketingAmount",
						"offset": 0,
						"slot": "19",
						"type": "t_uint256"
					}
				],
				"types": {
					"t_address": {
						"encoding": "inplace",
						"label": "address",
						"numberOfBytes": "20"
					},
					"t_contract(IERC20)942": {
						"encoding": "inplace",
						"label": "contract IERC20",
						"numberOfBytes": "20"
					},
					"t_mapping(t_address,t_mapping(t_address,t_uint256))": {
						"encoding": "mapping",
						"key": "t_address",
						"label": "mapping(address => mapping(address => uint256))",
						"numberOfBytes": "32",
						"value": "t_mapping(t_address,t_uint256)"
					},
					"t_mapping(t_address,t_uint256)": {
						"encoding": "mapping",
						"key": "t_address",
						"label": "mapping(address => uint256)",
						"numberOfBytes": "32",
						"value": "t_uint256"
					},
					"t_string_storage": {
						"encoding": "bytes",
						"label": "string",
						"numberOfBytes": "32"
					},
					"t_uint256": {
						"encoding": "inplace",
						"label": "uint256",
						"numberOfBytes": "32"
					}
				}
			},
			"userdoc": {
				"kind": "user",
				"methods": {},
				"version": 1
			}
		}
	}
}