{
	"contracts/TokenVasting.sol": {
		"TokenVesting": {
			"abi": [
				{
					"inputs": [
						{
							"internalType": "address",
							"name": "_token",
							"type": "address"
						}
					],
					"stateMutability": "nonpayable",
					"type": "constructor"
				},
				{
					"inputs": [
						{
							"internalType": "address",
							"name": "owner",
							"type": "address"
						}
					],
					"name": "OwnableInvalidOwner",
					"type": "error"
				},
				{
					"inputs": [
						{
							"internalType": "address",
							"name": "account",
							"type": "address"
						}
					],
					"name": "OwnableUnauthorizedAccount",
					"type": "error"
				},
				{
					"anonymous": false,
					"inputs": [
						{
							"indexed": true,
							"internalType": "address",
							"name": "previousOwner",
							"type": "address"
						},
						{
							"indexed": true,
							"internalType": "address",
							"name": "newOwner",
							"type": "address"
						}
					],
					"name": "OwnershipTransferred",
					"type": "event"
				},
				{
					"anonymous": false,
					"inputs": [
						{
							"indexed": true,
							"internalType": "address",
							"name": "beneficiary",
							"type": "address"
						},
						{
							"indexed": false,
							"internalType": "uint256",
							"name": "amount",
							"type": "uint256"
						}
					],
					"name": "TokensClaimed",
					"type": "event"
				},
				{
					"inputs": [
						{
							"internalType": "address",
							"name": "beneficiary",
							"type": "address"
						},
						{
							"internalType": "uint256",
							"name": "amount",
							"type": "uint256"
						}
					],
					"name": "addMarketingVesting",
					"outputs": [],
					"stateMutability": "nonpayable",
					"type": "function"
				},
				{
					"inputs": [
						{
							"internalType": "address",
							"name": "beneficiary",
							"type": "address"
						},
						{
							"internalType": "uint256",
							"name": "amount",
							"type": "uint256"
						}
					],
					"name": "addPrivatePreSaleVesting",
					"outputs": [],
					"stateMutability": "nonpayable",
					"type": "function"
				},
				{
					"inputs": [
						{
							"internalType": "address",
							"name": "beneficiary",
							"type": "address"
						},
						{
							"internalType": "uint256",
							"name": "amount",
							"type": "uint256"
						}
					],
					"name": "addTeamVesting",
					"outputs": [],
					"stateMutability": "nonpayable",
					"type": "function"
				},
				{
					"inputs": [
						{
							"internalType": "address",
							"name": "beneficiary",
							"type": "address"
						},
						{
							"internalType": "uint256",
							"name": "vestingType",
							"type": "uint256"
						}
					],
					"name": "claimTokens",
					"outputs": [],
					"stateMutability": "nonpayable",
					"type": "function"
				},
				{
					"inputs": [
						{
							"internalType": "address",
							"name": "",
							"type": "address"
						}
					],
					"name": "marketingVesting",
					"outputs": [
						{
							"internalType": "uint256",
							"name": "startTime",
							"type": "uint256"
						},
						{
							"internalType": "uint256",
							"name": "cliff",
							"type": "uint256"
						},
						{
							"internalType": "uint256",
							"name": "duration",
							"type": "uint256"
						},
						{
							"internalType": "uint256",
							"name": "amount",
							"type": "uint256"
						},
						{
							"internalType": "uint256",
							"name": "initialRelease",
							"type": "uint256"
						},
						{
							"internalType": "uint256",
							"name": "released",
							"type": "uint256"
						}
					],
					"stateMutability": "view",
					"type": "function"
				},
				{
					"inputs": [],
					"name": "owner",
					"outputs": [
						{
							"internalType": "address",
							"name": "",
							"type": "address"
						}
					],
					"stateMutability": "view",
					"type": "function"
				},
				{
					"inputs": [
						{
							"internalType": "address",
							"name": "",
							"type": "address"
						}
					],
					"name": "privatePreSaleVesting",
					"outputs": [
						{
							"internalType": "uint256",
							"name": "startTime",
							"type": "uint256"
						},
						{
							"internalType": "uint256",
							"name": "cliff",
							"type": "uint256"
						},
						{
							"internalType": "uint256",
							"name": "duration",
							"type": "uint256"
						},
						{
							"internalType": "uint256",
							"name": "amount",
							"type": "uint256"
						},
						{
							"internalType": "uint256",
							"name": "initialRelease",
							"type": "uint256"
						},
						{
							"internalType": "uint256",
							"name": "released",
							"type": "uint256"
						}
					],
					"stateMutability": "view",
					"type": "function"
				},
				{
					"inputs": [],
					"name": "renounceOwnership",
					"outputs": [],
					"stateMutability": "nonpayable",
					"type": "function"
				},
				{
					"inputs": [
						{
							"internalType": "address",
							"name": "",
							"type": "address"
						}
					],
					"name": "teamVesting",
					"outputs": [
						{
							"internalType": "uint256",
							"name": "startTime",
							"type": "uint256"
						},
						{
							"internalType": "uint256",
							"name": "cliff",
							"type": "uint256"
						},
						{
							"internalType": "uint256",
							"name": "duration",
							"type": "uint256"
						},
						{
							"internalType": "uint256",
							"name": "amount",
							"type": "uint256"
						},
						{
							"internalType": "uint256",
							"name": "initialRelease",
							"type": "uint256"
						},
						{
							"internalType": "uint256",
							"name": "released",
							"type": "uint256"
						}
					],
					"stateMutability": "view",
					"type": "function"
				},
				{
					"inputs": [],
					"name": "token",
					"outputs": [
						{
							"internalType": "contract IERC20",
							"name": "",
							"type": "address"
						}
					],
					"stateMutability": "view",
					"type": "function"
				},
				{
					"inputs": [
						{
							"internalType": "address",
							"name": "newOwner",
							"type": "address"
						}
					],
					"name": "transferOwnership",
					"outputs": [],
					"stateMutability": "nonpayable",
					"type": "function"
				}
			],
			"devdoc": {
				"errors": {
					"OwnableInvalidOwner(address)": [
						{
							"details": "The owner is not a valid owner account. (eg. `address(0)`)"
						}
					],
					"OwnableUnauthorizedAccount(address)": [
						{
							"details": "The caller account is not authorized to perform an operation."
						}
					]
				},
				"kind": "dev",
				"methods": {
					"owner()": {
						"details": "Returns the address of the current owner."
					},
					"renounceOwnership()": {
						"details": "Leaves the contract without owner. It will not be possible to call `onlyOwner` functions. Can only be called by the current owner. NOTE: Renouncing ownership will leave the contract without an owner, thereby disabling any functionality that is only available to the owner."
					},
					"transferOwnership(address)": {
						"details": "Transfers ownership of the contract to a new account (`newOwner`). Can only be called by the current owner."
					}
				},
				"version": 1
			},
			"evm": {
				"assembly": "    /* \"contracts/TokenVasting.sol\":232:3842  contract TokenVesting is Ownable(msg.sender), ReentrancyGuard {... */\n  mstore(0x40, 0x80)\n    /* \"contracts/TokenVasting.sol\":913:980  constructor(address _token) {... */\n  callvalue\n  dup1\n  iszero\n  tag_1\n  jumpi\n  0x00\n  dup1\n  revert\ntag_1:\n  pop\n  mload(0x40)\n  sub(codesize, bytecodeSize)\n  dup1\n  bytecodeSize\n  dup4\n  codecopy\n  dup2\n  dup2\n  add\n  0x40\n  mstore\n  dup2\n  add\n  swap1\n  tag_2\n  swap2\n  swap1\n  tag_3\n  jump\t// in\ntag_2:\n    /* \"contracts/TokenVasting.sol\":265:275  msg.sender */\n  caller\n    /* \"@openzeppelin/contracts/access/Ownable.sol\":1297:1298  0 */\n  0x00\n    /* \"@openzeppelin/contracts/access/Ownable.sol\":1273:1299  initialOwner == address(0) */\n  0xffffffffffffffffffffffffffffffffffffffff\n  and\n    /* \"@openzeppelin/contracts/access/Ownable.sol\":1273:1285  initialOwner */\n  dup2\n    /* \"@openzeppelin/contracts/access/Ownable.sol\":1273:1299  initialOwner == address(0) */\n  0xffffffffffffffffffffffffffffffffffffffff\n  and\n  sub\n    /* \"@openzeppelin/contracts/access/Ownable.sol\":1269:1364  if (initialOwner == address(0)) {... */\n  tag_8\n  jumpi\n    /* \"@openzeppelin/contracts/access/Ownable.sol\":1350:1351  0 */\n  0x00\n    /* \"@openzeppelin/contracts/access/Ownable.sol\":1322:1353  OwnableInvalidOwner(address(0)) */\n  mload(0x40)\n  0x1e4fbdf700000000000000000000000000000000000000000000000000000000\n  dup2\n  mstore\n  0x04\n  add\n  tag_9\n  swap2\n  swap1\n  tag_10\n  jump\t// in\ntag_9:\n  mload(0x40)\n  dup1\n  swap2\n  sub\n  swap1\n  revert\n    /* \"@openzeppelin/contracts/access/Ownable.sol\":1269:1364  if (initialOwner == address(0)) {... */\ntag_8:\n    /* \"@openzeppelin/contracts/access/Ownable.sol\":1373:1405  _transferOwnership(initialOwner) */\n  tag_11\n    /* \"@openzeppelin/contracts/access/Ownable.sol\":1392:1404  initialOwner */\n  dup2\n    /* \"@openzeppelin/contracts/access/Ownable.sol\":1373:1391  _transferOwnership */\n  shl(0x20, tag_12)\n    /* \"@openzeppelin/contracts/access/Ownable.sol\":1373:1405  _transferOwnership(initialOwner) */\n  0x20\n  shr\n  jump\t// in\ntag_11:\n    /* \"@openzeppelin/contracts/access/Ownable.sol\":1225:1412  constructor(address initialOwner) {... */\n  pop\n    /* \"@openzeppelin/contracts/security/ReentrancyGuard.sol\":1716:1717  1 */\n  0x01\n    /* \"@openzeppelin/contracts/security/ReentrancyGuard.sol\":1821:1828  _status */\n  dup1\n    /* \"@openzeppelin/contracts/security/ReentrancyGuard.sol\":1821:1843  _status = _NOT_ENTERED */\n  dup2\n  swap1\n  sstore\n  pop\n    /* \"contracts/TokenVasting.sol\":966:972  _token */\n  dup1\n    /* \"contracts/TokenVasting.sol\":951:956  token */\n  0x02\n  0x00\n    /* \"contracts/TokenVasting.sol\":951:973  token = IERC20(_token) */\n  0x0100\n  exp\n  dup2\n  sload\n  dup2\n  0xffffffffffffffffffffffffffffffffffffffff\n  mul\n  not\n  and\n  swap1\n  dup4\n  0xffffffffffffffffffffffffffffffffffffffff\n  and\n  mul\n  or\n  swap1\n  sstore\n  pop\n    /* \"contracts/TokenVasting.sol\":913:980  constructor(address _token) {... */\n  pop\n    /* \"contracts/TokenVasting.sol\":232:3842  contract TokenVesting is Ownable(msg.sender), ReentrancyGuard {... */\n  jump(tag_15)\n    /* \"@openzeppelin/contracts/access/Ownable.sol\":2912:3099  function _transferOwnership(address newOwner) internal virtual {... */\ntag_12:\n    /* \"@openzeppelin/contracts/access/Ownable.sol\":2985:3001  address oldOwner */\n  0x00\n    /* \"@openzeppelin/contracts/access/Ownable.sol\":3004:3010  _owner */\n  dup1\n  0x00\n  swap1\n  sload\n  swap1\n  0x0100\n  exp\n  swap1\n  div\n  0xffffffffffffffffffffffffffffffffffffffff\n  and\n    /* \"@openzeppelin/contracts/access/Ownable.sol\":2985:3010  address oldOwner = _owner */\n  swap1\n  pop\n    /* \"@openzeppelin/contracts/access/Ownable.sol\":3029:3037  newOwner */\n  dup2\n    /* \"@openzeppelin/contracts/access/Ownable.sol\":3020:3026  _owner */\n  0x00\n  dup1\n    /* \"@openzeppelin/contracts/access/Ownable.sol\":3020:3037  _owner = newOwner */\n  0x0100\n  exp\n  dup2\n  sload\n  dup2\n  0xffffffffffffffffffffffffffffffffffffffff\n  mul\n  not\n  and\n  swap1\n  dup4\n  0xffffffffffffffffffffffffffffffffffffffff\n  and\n  mul\n  or\n  swap1\n  sstore\n  pop\n    /* \"@openzeppelin/contracts/access/Ownable.sol\":3083:3091  newOwner */\n  dup2\n    /* \"@openzeppelin/contracts/access/Ownable.sol\":3052:3092  OwnershipTransferred(oldOwner, newOwner) */\n  0xffffffffffffffffffffffffffffffffffffffff\n  and\n    /* \"@openzeppelin/contracts/access/Ownable.sol\":3073:3081  oldOwner */\n  dup2\n    /* \"@openzeppelin/contracts/access/Ownable.sol\":3052:3092  OwnershipTransferred(oldOwner, newOwner) */\n  0xffffffffffffffffffffffffffffffffffffffff\n  and\n  0x8be0079c531659141344cd1fd0a4f28419497f9722a3daafe3b4186f6b6457e0\n  mload(0x40)\n  mload(0x40)\n  dup1\n  swap2\n  sub\n  swap1\n  log3\n    /* \"@openzeppelin/contracts/access/Ownable.sol\":2975:3099  {... */\n  pop\n    /* \"@openzeppelin/contracts/access/Ownable.sol\":2912:3099  function _transferOwnership(address newOwner) internal virtual {... */\n  pop\n  jump\t// out\n    /* \"#utility.yul\":88:205   */\ntag_18:\n    /* \"#utility.yul\":197:198   */\n  0x00\n    /* \"#utility.yul\":194:195   */\n  dup1\n    /* \"#utility.yul\":187:199   */\n  revert\n    /* \"#utility.yul\":334:460   */\ntag_20:\n    /* \"#utility.yul\":371:378   */\n  0x00\n    /* \"#utility.yul\":411:453   */\n  0xffffffffffffffffffffffffffffffffffffffff\n    /* \"#utility.yul\":404:409   */\n  dup3\n    /* \"#utility.yul\":400:454   */\n  and\n    /* \"#utility.yul\":389:454   */\n  swap1\n  pop\n    /* \"#utility.yul\":334:460   */\n  swap2\n  swap1\n  pop\n  jump\t// out\n    /* \"#utility.yul\":466:562   */\ntag_21:\n    /* \"#utility.yul\":503:510   */\n  0x00\n    /* \"#utility.yul\":532:556   */\n  tag_31\n    /* \"#utility.yul\":550:555   */\n  dup3\n    /* \"#utility.yul\":532:556   */\n  tag_20\n  jump\t// in\ntag_31:\n    /* \"#utility.yul\":521:556   */\n  swap1\n  pop\n    /* \"#utility.yul\":466:562   */\n  swap2\n  swap1\n  pop\n  jump\t// out\n    /* \"#utility.yul\":568:690   */\ntag_22:\n    /* \"#utility.yul\":641:665   */\n  tag_33\n    /* \"#utility.yul\":659:664   */\n  dup2\n    /* \"#utility.yul\":641:665   */\n  tag_21\n  jump\t// in\ntag_33:\n    /* \"#utility.yul\":634:639   */\n  dup2\n    /* \"#utility.yul\":631:666   */\n  eq\n    /* \"#utility.yul\":621:684   */\n  tag_34\n  jumpi\n    /* \"#utility.yul\":680:681   */\n  0x00\n    /* \"#utility.yul\":677:678   */\n  dup1\n    /* \"#utility.yul\":670:682   */\n  revert\n    /* \"#utility.yul\":621:684   */\ntag_34:\n    /* \"#utility.yul\":568:690   */\n  pop\n  jump\t// out\n    /* \"#utility.yul\":696:839   */\ntag_23:\n    /* \"#utility.yul\":753:758   */\n  0x00\n    /* \"#utility.yul\":784:790   */\n  dup2\n    /* \"#utility.yul\":778:791   */\n  mload\n    /* \"#utility.yul\":769:791   */\n  swap1\n  pop\n    /* \"#utility.yul\":800:833   */\n  tag_36\n    /* \"#utility.yul\":827:832   */\n  dup2\n    /* \"#utility.yul\":800:833   */\n  tag_22\n  jump\t// in\ntag_36:\n    /* \"#utility.yul\":696:839   */\n  swap3\n  swap2\n  pop\n  pop\n  jump\t// out\n    /* \"#utility.yul\":845:1196   */\ntag_3:\n    /* \"#utility.yul\":915:921   */\n  0x00\n    /* \"#utility.yul\":964:966   */\n  0x20\n    /* \"#utility.yul\":952:961   */\n  dup3\n    /* \"#utility.yul\":943:950   */\n  dup5\n    /* \"#utility.yul\":939:962   */\n  sub\n    /* \"#utility.yul\":935:967   */\n  slt\n    /* \"#utility.yul\":932:1051   */\n  iszero\n  tag_38\n  jumpi\n    /* \"#utility.yul\":970:1049   */\n  tag_39\n  tag_18\n  jump\t// in\ntag_39:\n    /* \"#utility.yul\":932:1051   */\ntag_38:\n    /* \"#utility.yul\":1090:1091   */\n  0x00\n    /* \"#utility.yul\":1115:1179   */\n  tag_40\n    /* \"#utility.yul\":1171:1178   */\n  dup5\n    /* \"#utility.yul\":1162:1168   */\n  dup3\n    /* \"#utility.yul\":1151:1160   */\n  dup6\n    /* \"#utility.yul\":1147:1169   */\n  add\n    /* \"#utility.yul\":1115:1179   */\n  tag_23\n  jump\t// in\ntag_40:\n    /* \"#utility.yul\":1105:1179   */\n  swap2\n  pop\n    /* \"#utility.yul\":1061:1189   */\n  pop\n    /* \"#utility.yul\":845:1196   */\n  swap3\n  swap2\n  pop\n  pop\n  jump\t// out\n    /* \"#utility.yul\":1202:1320   */\ntag_24:\n    /* \"#utility.yul\":1289:1313   */\n  tag_42\n    /* \"#utility.yul\":1307:1312   */\n  dup2\n    /* \"#utility.yul\":1289:1313   */\n  tag_21\n  jump\t// in\ntag_42:\n    /* \"#utility.yul\":1284:1287   */\n  dup3\n    /* \"#utility.yul\":1277:1314   */\n  mstore\n    /* \"#utility.yul\":1202:1320   */\n  pop\n  pop\n  jump\t// out\n    /* \"#utility.yul\":1326:1548   */\ntag_10:\n    /* \"#utility.yul\":1419:1423   */\n  0x00\n    /* \"#utility.yul\":1457:1459   */\n  0x20\n    /* \"#utility.yul\":1446:1455   */\n  dup3\n    /* \"#utility.yul\":1442:1460   */\n  add\n    /* \"#utility.yul\":1434:1460   */\n  swap1\n  pop\n    /* \"#utility.yul\":1470:1541   */\n  tag_44\n    /* \"#utility.yul\":1538:1539   */\n  0x00\n    /* \"#utility.yul\":1527:1536   */\n  dup4\n    /* \"#utility.yul\":1523:1540   */\n  add\n    /* \"#utility.yul\":1514:1520   */\n  dup5\n    /* \"#utility.yul\":1470:1541   */\n  tag_24\n  jump\t// in\ntag_44:\n    /* \"#utility.yul\":1326:1548   */\n  swap3\n  swap2\n  pop\n  pop\n  jump\t// out\n    /* \"contracts/TokenVasting.sol\":232:3842  contract TokenVesting is Ownable(msg.sender), ReentrancyGuard {... */\ntag_15:\n  dataSize(sub_0)\n  dup1\n  dataOffset(sub_0)\n  0x00\n  codecopy\n  0x00\n  return\nstop\n\nsub_0: assembly {\n        /* \"contracts/TokenVasting.sol\":232:3842  contract TokenVesting is Ownable(msg.sender), ReentrancyGuard {... */\n      mstore(0x40, 0x80)\n      callvalue\n      dup1\n      iszero\n      tag_1\n      jumpi\n      0x00\n      dup1\n      revert\n    tag_1:\n      pop\n      jumpi(tag_2, lt(calldatasize, 0x04))\n      shr(0xe0, calldataload(0x00))\n      dup1\n      0xba6a939a\n      gt\n      tag_14\n      jumpi\n      dup1\n      0xba6a939a\n      eq\n      tag_8\n      jumpi\n      dup1\n      0xcb4003aa\n      eq\n      tag_9\n      jumpi\n      dup1\n      0xecab4afd\n      eq\n      tag_10\n      jumpi\n      dup1\n      0xf2fde38b\n      eq\n      tag_11\n      jumpi\n      dup1\n      0xfc0c546a\n      eq\n      tag_12\n      jumpi\n      dup1\n      0xfe417fa5\n      eq\n      tag_13\n      jumpi\n      jump(tag_2)\n    tag_14:\n      dup1\n      0x2b3e8eb3\n      eq\n      tag_3\n      jumpi\n      dup1\n      0x715018a6\n      eq\n      tag_4\n      jumpi\n      dup1\n      0x8da5cb5b\n      eq\n      tag_5\n      jumpi\n      dup1\n      0x9669a004\n      eq\n      tag_6\n      jumpi\n      dup1\n      0x9d30437f\n      eq\n      tag_7\n      jumpi\n    tag_2:\n      0x00\n      dup1\n      revert\n        /* \"contracts/TokenVasting.sol\":646:700  mapping(address => VestingSchedule) public teamVesting */\n    tag_3:\n      tag_15\n      0x04\n      dup1\n      calldatasize\n      sub\n      dup2\n      add\n      swap1\n      tag_16\n      swap2\n      swap1\n      tag_17\n      jump\t// in\n    tag_16:\n      tag_18\n      jump\t// in\n    tag_15:\n      mload(0x40)\n      tag_19\n      swap7\n      swap6\n      swap5\n      swap4\n      swap3\n      swap2\n      swap1\n      tag_20\n      jump\t// in\n    tag_19:\n      mload(0x40)\n      dup1\n      swap2\n      sub\n      swap1\n      return\n        /* \"@openzeppelin/contracts/access/Ownable.sol\":2293:2394  function renounceOwnership() public virtual onlyOwner {... */\n    tag_4:\n      tag_21\n      tag_22\n      jump\t// in\n    tag_21:\n      stop\n        /* \"@openzeppelin/contracts/access/Ownable.sol\":1638:1723  function owner() public view virtual returns (address) {... */\n    tag_5:\n      tag_23\n      tag_24\n      jump\t// in\n    tag_23:\n      mload(0x40)\n      tag_25\n      swap2\n      swap1\n      tag_26\n      jump\t// in\n    tag_25:\n      mload(0x40)\n      dup1\n      swap2\n      sub\n      swap1\n      return\n        /* \"contracts/TokenVasting.sol\":706:770  mapping(address => VestingSchedule) public privatePreSaleVesting */\n    tag_6:\n      tag_27\n      0x04\n      dup1\n      calldatasize\n      sub\n      dup2\n      add\n      swap1\n      tag_28\n      swap2\n      swap1\n      tag_17\n      jump\t// in\n    tag_28:\n      tag_29\n      jump\t// in\n    tag_27:\n      mload(0x40)\n      tag_30\n      swap7\n      swap6\n      swap5\n      swap4\n      swap3\n      swap2\n      swap1\n      tag_20\n      jump\t// in\n    tag_30:\n      mload(0x40)\n      dup1\n      swap2\n      sub\n      swap1\n      return\n        /* \"contracts/TokenVasting.sol\":776:835  mapping(address => VestingSchedule) public marketingVesting */\n    tag_7:\n      tag_31\n      0x04\n      dup1\n      calldatasize\n      sub\n      dup2\n      add\n      swap1\n      tag_32\n      swap2\n      swap1\n      tag_17\n      jump\t// in\n    tag_32:\n      tag_33\n      jump\t// in\n    tag_31:\n      mload(0x40)\n      tag_34\n      swap7\n      swap6\n      swap5\n      swap4\n      swap3\n      swap2\n      swap1\n      tag_20\n      jump\t// in\n    tag_34:\n      mload(0x40)\n      dup1\n      swap2\n      sub\n      swap1\n      return\n        /* \"contracts/TokenVasting.sol\":1790:2364  function addMarketingVesting(address beneficiary, uint256 amount) external onlyOwner {... */\n    tag_8:\n      tag_35\n      0x04\n      dup1\n      calldatasize\n      sub\n      dup2\n      add\n      swap1\n      tag_36\n      swap2\n      swap1\n      tag_37\n      jump\t// in\n    tag_36:\n      tag_38\n      jump\t// in\n    tag_35:\n      stop\n        /* \"contracts/TokenVasting.sol\":1036:1302  function addTeamVesting(address beneficiary, uint256 amount) external onlyOwner {... */\n    tag_9:\n      tag_39\n      0x04\n      dup1\n      calldatasize\n      sub\n      dup2\n      add\n      swap1\n      tag_40\n      swap2\n      swap1\n      tag_37\n      jump\t// in\n    tag_40:\n      tag_41\n      jump\t// in\n    tag_39:\n      stop\n        /* \"contracts/TokenVasting.sol\":1372:1702  function addPrivatePreSaleVesting(address beneficiary, uint256 amount) external onlyOwner {... */\n    tag_10:\n      tag_42\n      0x04\n      dup1\n      calldatasize\n      sub\n      dup2\n      add\n      swap1\n      tag_43\n      swap2\n      swap1\n      tag_37\n      jump\t// in\n    tag_43:\n      tag_44\n      jump\t// in\n    tag_42:\n      stop\n        /* \"@openzeppelin/contracts/access/Ownable.sol\":2543:2758  function transferOwnership(address newOwner) public virtual onlyOwner {... */\n    tag_11:\n      tag_45\n      0x04\n      dup1\n      calldatasize\n      sub\n      dup2\n      add\n      swap1\n      tag_46\n      swap2\n      swap1\n      tag_17\n      jump\t// in\n    tag_46:\n      tag_47\n      jump\t// in\n    tag_45:\n      stop\n        /* \"contracts/TokenVasting.sol\":300:319  IERC20 public token */\n    tag_12:\n      tag_48\n      tag_49\n      jump\t// in\n    tag_48:\n      mload(0x40)\n      tag_50\n      swap2\n      swap1\n      tag_51\n      jump\t// in\n    tag_50:\n      mload(0x40)\n      dup1\n      swap2\n      sub\n      swap1\n      return\n        /* \"contracts/TokenVasting.sol\":2954:3840  function claimTokens(address beneficiary, uint256 vestingType) external nonReentrant {... */\n    tag_13:\n      tag_52\n      0x04\n      dup1\n      calldatasize\n      sub\n      dup2\n      add\n      swap1\n      tag_53\n      swap2\n      swap1\n      tag_37\n      jump\t// in\n    tag_53:\n      tag_54\n      jump\t// in\n    tag_52:\n      stop\n        /* \"contracts/TokenVasting.sol\":646:700  mapping(address => VestingSchedule) public teamVesting */\n    tag_18:\n      mstore(0x20, 0x03)\n      dup1\n      0x00\n      mstore\n      keccak256(0x00, 0x40)\n      0x00\n      swap2\n      pop\n      swap1\n      pop\n      dup1\n      0x00\n      add\n      sload\n      swap1\n      dup1\n      0x01\n      add\n      sload\n      swap1\n      dup1\n      0x02\n      add\n      sload\n      swap1\n      dup1\n      0x03\n      add\n      sload\n      swap1\n      dup1\n      0x04\n      add\n      sload\n      swap1\n      dup1\n      0x05\n      add\n      sload\n      swap1\n      pop\n      dup7\n      jump\t// out\n        /* \"@openzeppelin/contracts/access/Ownable.sol\":2293:2394  function renounceOwnership() public virtual onlyOwner {... */\n    tag_22:\n        /* \"@openzeppelin/contracts/access/Ownable.sol\":1531:1544  _checkOwner() */\n      tag_56\n        /* \"@openzeppelin/contracts/access/Ownable.sol\":1531:1542  _checkOwner */\n      tag_57\n        /* \"@openzeppelin/contracts/access/Ownable.sol\":1531:1544  _checkOwner() */\n      jump\t// in\n    tag_56:\n        /* \"@openzeppelin/contracts/access/Ownable.sol\":2357:2387  _transferOwnership(address(0)) */\n      tag_59\n        /* \"@openzeppelin/contracts/access/Ownable.sol\":2384:2385  0 */\n      0x00\n        /* \"@openzeppelin/contracts/access/Ownable.sol\":2357:2375  _transferOwnership */\n      tag_60\n        /* \"@openzeppelin/contracts/access/Ownable.sol\":2357:2387  _transferOwnership(address(0)) */\n      jump\t// in\n    tag_59:\n        /* \"@openzeppelin/contracts/access/Ownable.sol\":2293:2394  function renounceOwnership() public virtual onlyOwner {... */\n      jump\t// out\n        /* \"@openzeppelin/contracts/access/Ownable.sol\":1638:1723  function owner() public view virtual returns (address) {... */\n    tag_24:\n        /* \"@openzeppelin/contracts/access/Ownable.sol\":1684:1691  address */\n      0x00\n        /* \"@openzeppelin/contracts/access/Ownable.sol\":1710:1716  _owner */\n      dup1\n      0x00\n      swap1\n      sload\n      swap1\n      0x0100\n      exp\n      swap1\n      div\n      0xffffffffffffffffffffffffffffffffffffffff\n      and\n        /* \"@openzeppelin/contracts/access/Ownable.sol\":1703:1716  return _owner */\n      swap1\n      pop\n        /* \"@openzeppelin/contracts/access/Ownable.sol\":1638:1723  function owner() public view virtual returns (address) {... */\n      swap1\n      jump\t// out\n        /* \"contracts/TokenVasting.sol\":706:770  mapping(address => VestingSchedule) public privatePreSaleVesting */\n    tag_29:\n      mstore(0x20, 0x04)\n      dup1\n      0x00\n      mstore\n      keccak256(0x00, 0x40)\n      0x00\n      swap2\n      pop\n      swap1\n      pop\n      dup1\n      0x00\n      add\n      sload\n      swap1\n      dup1\n      0x01\n      add\n      sload\n      swap1\n      dup1\n      0x02\n      add\n      sload\n      swap1\n      dup1\n      0x03\n      add\n      sload\n      swap1\n      dup1\n      0x04\n      add\n      sload\n      swap1\n      dup1\n      0x05\n      add\n      sload\n      swap1\n      pop\n      dup7\n      jump\t// out\n        /* \"contracts/TokenVasting.sol\":776:835  mapping(address => VestingSchedule) public marketingVesting */\n    tag_33:\n      mstore(0x20, 0x05)\n      dup1\n      0x00\n      mstore\n      keccak256(0x00, 0x40)\n      0x00\n      swap2\n      pop\n      swap1\n      pop\n      dup1\n      0x00\n      add\n      sload\n      swap1\n      dup1\n      0x01\n      add\n      sload\n      swap1\n      dup1\n      0x02\n      add\n      sload\n      swap1\n      dup1\n      0x03\n      add\n      sload\n      swap1\n      dup1\n      0x04\n      add\n      sload\n      swap1\n      dup1\n      0x05\n      add\n      sload\n      swap1\n      pop\n      dup7\n      jump\t// out\n        /* \"contracts/TokenVasting.sol\":1790:2364  function addMarketingVesting(address beneficiary, uint256 amount) external onlyOwner {... */\n    tag_38:\n        /* \"@openzeppelin/contracts/access/Ownable.sol\":1531:1544  _checkOwner() */\n      tag_63\n        /* \"@openzeppelin/contracts/access/Ownable.sol\":1531:1542  _checkOwner */\n      tag_57\n        /* \"@openzeppelin/contracts/access/Ownable.sol\":1531:1544  _checkOwner() */\n      jump\t// in\n    tag_63:\n        /* \"contracts/TokenVasting.sol\":1885:1907  uint256 initialRelease */\n      0x00\n        /* \"contracts/TokenVasting.sol\":1926:1929  100 */\n      0x64\n        /* \"contracts/TokenVasting.sol\":1920:1922  25 */\n      0x19\n        /* \"contracts/TokenVasting.sol\":1911:1917  amount */\n      dup4\n        /* \"contracts/TokenVasting.sol\":1911:1922  amount * 25 */\n      tag_65\n      swap2\n      swap1\n      tag_66\n      jump\t// in\n    tag_65:\n        /* \"contracts/TokenVasting.sol\":1910:1929  (amount * 25) / 100 */\n      tag_67\n      swap2\n      swap1\n      tag_68\n      jump\t// in\n    tag_67:\n        /* \"contracts/TokenVasting.sol\":1885:1929  uint256 initialRelease = (amount * 25) / 100 */\n      swap1\n      pop\n        /* \"contracts/TokenVasting.sol\":1939:1962  uint256 remainingAmount */\n      0x00\n        /* \"contracts/TokenVasting.sol\":1974:1988  initialRelease */\n      dup2\n        /* \"contracts/TokenVasting.sol\":1965:1971  amount */\n      dup4\n        /* \"contracts/TokenVasting.sol\":1965:1988  amount - initialRelease */\n      tag_69\n      swap2\n      swap1\n      tag_70\n      jump\t// in\n    tag_69:\n        /* \"contracts/TokenVasting.sol\":1939:1988  uint256 remainingAmount = amount - initialRelease */\n      swap1\n      pop\n        /* \"contracts/TokenVasting.sol\":1998:2011  uint256 cliff */\n      0x00\n        /* \"contracts/TokenVasting.sol\":2025:2041  uint256 duration */\n      dup1\n        /* \"contracts/TokenVasting.sol\":2044:2056  12 * 30 days */\n      0x01da9c00\n        /* \"contracts/TokenVasting.sol\":2025:2056  uint256 duration = 12 * 30 days */\n      swap1\n      pop\n        /* \"contracts/TokenVasting.sol\":2111:2196  VestingSchedule(block.timestamp, cliff, duration, remainingAmount, initialRelease, 0) */\n      mload(0x40)\n      dup1\n      0xc0\n      add\n      0x40\n      mstore\n      dup1\n        /* \"contracts/TokenVasting.sol\":2127:2142  block.timestamp */\n      timestamp\n        /* \"contracts/TokenVasting.sol\":2111:2196  VestingSchedule(block.timestamp, cliff, duration, remainingAmount, initialRelease, 0) */\n      dup2\n      mstore\n      0x20\n      add\n        /* \"contracts/TokenVasting.sol\":2144:2149  cliff */\n      dup4\n        /* \"contracts/TokenVasting.sol\":2111:2196  VestingSchedule(block.timestamp, cliff, duration, remainingAmount, initialRelease, 0) */\n      dup2\n      mstore\n      0x20\n      add\n        /* \"contracts/TokenVasting.sol\":2151:2159  duration */\n      dup3\n        /* \"contracts/TokenVasting.sol\":2111:2196  VestingSchedule(block.timestamp, cliff, duration, remainingAmount, initialRelease, 0) */\n      dup2\n      mstore\n      0x20\n      add\n        /* \"contracts/TokenVasting.sol\":2161:2176  remainingAmount */\n      dup5\n        /* \"contracts/TokenVasting.sol\":2111:2196  VestingSchedule(block.timestamp, cliff, duration, remainingAmount, initialRelease, 0) */\n      dup2\n      mstore\n      0x20\n      add\n        /* \"contracts/TokenVasting.sol\":2178:2192  initialRelease */\n      dup6\n        /* \"contracts/TokenVasting.sol\":2111:2196  VestingSchedule(block.timestamp, cliff, duration, remainingAmount, initialRelease, 0) */\n      dup2\n      mstore\n      0x20\n      add\n        /* \"contracts/TokenVasting.sol\":2194:2195  0 */\n      0x00\n        /* \"contracts/TokenVasting.sol\":2111:2196  VestingSchedule(block.timestamp, cliff, duration, remainingAmount, initialRelease, 0) */\n      dup2\n      mstore\n      pop\n        /* \"contracts/TokenVasting.sol\":2079:2095  marketingVesting */\n      0x05\n        /* \"contracts/TokenVasting.sol\":2079:2108  marketingVesting[beneficiary] */\n      0x00\n        /* \"contracts/TokenVasting.sol\":2096:2107  beneficiary */\n      dup9\n        /* \"contracts/TokenVasting.sol\":2079:2108  marketingVesting[beneficiary] */\n      0xffffffffffffffffffffffffffffffffffffffff\n      and\n      0xffffffffffffffffffffffffffffffffffffffff\n      and\n      dup2\n      mstore\n      0x20\n      add\n      swap1\n      dup2\n      mstore\n      0x20\n      add\n      0x00\n      keccak256\n        /* \"contracts/TokenVasting.sol\":2079:2196  marketingVesting[beneficiary] = VestingSchedule(block.timestamp, cliff, duration, remainingAmount, initialRelease, 0) */\n      0x00\n      dup3\n      add\n      mload\n      dup2\n      0x00\n      add\n      sstore\n      0x20\n      dup3\n      add\n      mload\n      dup2\n      0x01\n      add\n      sstore\n      0x40\n      dup3\n      add\n      mload\n      dup2\n      0x02\n      add\n      sstore\n      0x60\n      dup3\n      add\n      mload\n      dup2\n      0x03\n      add\n      sstore\n      0x80\n      dup3\n      add\n      mload\n      dup2\n      0x04\n      add\n      sstore\n      0xa0\n      dup3\n      add\n      mload\n      dup2\n      0x05\n      add\n      sstore\n      swap1\n      pop\n      pop\n        /* \"contracts/TokenVasting.sol\":2257:2262  token */\n      0x02\n      0x00\n      swap1\n      sload\n      swap1\n      0x0100\n      exp\n      swap1\n      div\n      0xffffffffffffffffffffffffffffffffffffffff\n      and\n        /* \"contracts/TokenVasting.sol\":2257:2271  token.transfer */\n      0xffffffffffffffffffffffffffffffffffffffff\n      and\n      0xa9059cbb\n        /* \"contracts/TokenVasting.sol\":2272:2283  beneficiary */\n      dup8\n        /* \"contracts/TokenVasting.sol\":2285:2299  initialRelease */\n      dup7\n        /* \"contracts/TokenVasting.sol\":2257:2300  token.transfer(beneficiary, initialRelease) */\n      mload(0x40)\n      dup4\n      0xffffffff\n      and\n      0xe0\n      shl\n      dup2\n      mstore\n      0x04\n      add\n      tag_71\n      swap3\n      swap2\n      swap1\n      tag_72\n      jump\t// in\n    tag_71:\n      0x20\n      mload(0x40)\n      dup1\n      dup4\n      sub\n      dup2\n      0x00\n      dup8\n      gas\n      call\n      iszero\n      dup1\n      iszero\n      tag_74\n      jumpi\n      returndatasize\n      0x00\n      dup1\n      returndatacopy\n      revert(0x00, returndatasize)\n    tag_74:\n      pop\n      pop\n      pop\n      pop\n      mload(0x40)\n      returndatasize\n      not(0x1f)\n      0x1f\n      dup3\n      add\n      and\n      dup3\n      add\n      dup1\n      0x40\n      mstore\n      pop\n      dup2\n      add\n      swap1\n      tag_75\n      swap2\n      swap1\n      tag_76\n      jump\t// in\n    tag_75:\n      pop\n        /* \"contracts/TokenVasting.sol\":2329:2340  beneficiary */\n      dup6\n        /* \"contracts/TokenVasting.sol\":2315:2357  TokensClaimed(beneficiary, initialRelease) */\n      0xffffffffffffffffffffffffffffffffffffffff\n      and\n      0x896e034966eaaf1adc54acc0f257056febbd300c9e47182cf761982cf1f5e430\n        /* \"contracts/TokenVasting.sol\":2342:2356  initialRelease */\n      dup6\n        /* \"contracts/TokenVasting.sol\":2315:2357  TokensClaimed(beneficiary, initialRelease) */\n      mload(0x40)\n      tag_77\n      swap2\n      swap1\n      tag_78\n      jump\t// in\n    tag_77:\n      mload(0x40)\n      dup1\n      swap2\n      sub\n      swap1\n      log2\n        /* \"contracts/TokenVasting.sol\":1875:2364  {... */\n      pop\n      pop\n      pop\n      pop\n        /* \"contracts/TokenVasting.sol\":1790:2364  function addMarketingVesting(address beneficiary, uint256 amount) external onlyOwner {... */\n      pop\n      pop\n      jump\t// out\n        /* \"contracts/TokenVasting.sol\":1036:1302  function addTeamVesting(address beneficiary, uint256 amount) external onlyOwner {... */\n    tag_41:\n        /* \"@openzeppelin/contracts/access/Ownable.sol\":1531:1544  _checkOwner() */\n      tag_80\n        /* \"@openzeppelin/contracts/access/Ownable.sol\":1531:1542  _checkOwner */\n      tag_57\n        /* \"@openzeppelin/contracts/access/Ownable.sol\":1531:1544  _checkOwner() */\n      jump\t// in\n    tag_80:\n        /* \"contracts/TokenVasting.sol\":1126:1139  uint256 cliff */\n      0x00\n        /* \"contracts/TokenVasting.sol\":1142:1154  18 * 30 days */\n      0x02c7ea00\n        /* \"contracts/TokenVasting.sol\":1126:1154  uint256 cliff = 18 * 30 days */\n      swap1\n      pop\n        /* \"contracts/TokenVasting.sol\":1164:1180  uint256 duration */\n      0x00\n        /* \"contracts/TokenVasting.sol\":1183:1195  4 * 365 days */\n      0x0784ce00\n        /* \"contracts/TokenVasting.sol\":1164:1195  uint256 duration = 4 * 365 days */\n      swap1\n      pop\n        /* \"contracts/TokenVasting.sol\":1232:1295  VestingSchedule(block.timestamp, cliff, duration, amount, 0, 0) */\n      mload(0x40)\n      dup1\n      0xc0\n      add\n      0x40\n      mstore\n      dup1\n        /* \"contracts/TokenVasting.sol\":1248:1263  block.timestamp */\n      timestamp\n        /* \"contracts/TokenVasting.sol\":1232:1295  VestingSchedule(block.timestamp, cliff, duration, amount, 0, 0) */\n      dup2\n      mstore\n      0x20\n      add\n        /* \"contracts/TokenVasting.sol\":1265:1270  cliff */\n      dup4\n        /* \"contracts/TokenVasting.sol\":1232:1295  VestingSchedule(block.timestamp, cliff, duration, amount, 0, 0) */\n      dup2\n      mstore\n      0x20\n      add\n        /* \"contracts/TokenVasting.sol\":1272:1280  duration */\n      dup3\n        /* \"contracts/TokenVasting.sol\":1232:1295  VestingSchedule(block.timestamp, cliff, duration, amount, 0, 0) */\n      dup2\n      mstore\n      0x20\n      add\n        /* \"contracts/TokenVasting.sol\":1282:1288  amount */\n      dup5\n        /* \"contracts/TokenVasting.sol\":1232:1295  VestingSchedule(block.timestamp, cliff, duration, amount, 0, 0) */\n      dup2\n      mstore\n      0x20\n      add\n        /* \"contracts/TokenVasting.sol\":1290:1291  0 */\n      0x00\n        /* \"contracts/TokenVasting.sol\":1232:1295  VestingSchedule(block.timestamp, cliff, duration, amount, 0, 0) */\n      dup2\n      mstore\n      0x20\n      add\n        /* \"contracts/TokenVasting.sol\":1293:1294  0 */\n      0x00\n        /* \"contracts/TokenVasting.sol\":1232:1295  VestingSchedule(block.timestamp, cliff, duration, amount, 0, 0) */\n      dup2\n      mstore\n      pop\n        /* \"contracts/TokenVasting.sol\":1205:1216  teamVesting */\n      0x03\n        /* \"contracts/TokenVasting.sol\":1205:1229  teamVesting[beneficiary] */\n      0x00\n        /* \"contracts/TokenVasting.sol\":1217:1228  beneficiary */\n      dup7\n        /* \"contracts/TokenVasting.sol\":1205:1229  teamVesting[beneficiary] */\n      0xffffffffffffffffffffffffffffffffffffffff\n      and\n      0xffffffffffffffffffffffffffffffffffffffff\n      and\n      dup2\n      mstore\n      0x20\n      add\n      swap1\n      dup2\n      mstore\n      0x20\n      add\n      0x00\n      keccak256\n        /* \"contracts/TokenVasting.sol\":1205:1295  teamVesting[beneficiary] = VestingSchedule(block.timestamp, cliff, duration, amount, 0, 0) */\n      0x00\n      dup3\n      add\n      mload\n      dup2\n      0x00\n      add\n      sstore\n      0x20\n      dup3\n      add\n      mload\n      dup2\n      0x01\n      add\n      sstore\n      0x40\n      dup3\n      add\n      mload\n      dup2\n      0x02\n      add\n      sstore\n      0x60\n      dup3\n      add\n      mload\n      dup2\n      0x03\n      add\n      sstore\n      0x80\n      dup3\n      add\n      mload\n      dup2\n      0x04\n      add\n      sstore\n      0xa0\n      dup3\n      add\n      mload\n      dup2\n      0x05\n      add\n      sstore\n      swap1\n      pop\n      pop\n        /* \"contracts/TokenVasting.sol\":1116:1302  {... */\n      pop\n      pop\n        /* \"contracts/TokenVasting.sol\":1036:1302  function addTeamVesting(address beneficiary, uint256 amount) external onlyOwner {... */\n      pop\n      pop\n      jump\t// out\n        /* \"contracts/TokenVasting.sol\":1372:1702  function addPrivatePreSaleVesting(address beneficiary, uint256 amount) external onlyOwner {... */\n    tag_44:\n        /* \"@openzeppelin/contracts/access/Ownable.sol\":1531:1544  _checkOwner() */\n      tag_83\n        /* \"@openzeppelin/contracts/access/Ownable.sol\":1531:1542  _checkOwner */\n      tag_57\n        /* \"@openzeppelin/contracts/access/Ownable.sol\":1531:1544  _checkOwner() */\n      jump\t// in\n    tag_83:\n        /* \"contracts/TokenVasting.sol\":1472:1485  uint256 cliff */\n      0x00\n        /* \"contracts/TokenVasting.sol\":1488:1495  30 days */\n      0x278d00\n        /* \"contracts/TokenVasting.sol\":1472:1495  uint256 cliff = 30 days */\n      swap1\n      pop\n        /* \"contracts/TokenVasting.sol\":1535:1551  uint256 duration */\n      0x00\n        /* \"contracts/TokenVasting.sol\":1554:1565  6 * 30 days */\n      0xed4e00\n        /* \"contracts/TokenVasting.sol\":1535:1565  uint256 duration = 6 * 30 days */\n      swap1\n      pop\n        /* \"contracts/TokenVasting.sol\":1632:1695  VestingSchedule(block.timestamp, cliff, duration, amount, 0, 0) */\n      mload(0x40)\n      dup1\n      0xc0\n      add\n      0x40\n      mstore\n      dup1\n        /* \"contracts/TokenVasting.sol\":1648:1663  block.timestamp */\n      timestamp\n        /* \"contracts/TokenVasting.sol\":1632:1695  VestingSchedule(block.timestamp, cliff, duration, amount, 0, 0) */\n      dup2\n      mstore\n      0x20\n      add\n        /* \"contracts/TokenVasting.sol\":1665:1670  cliff */\n      dup4\n        /* \"contracts/TokenVasting.sol\":1632:1695  VestingSchedule(block.timestamp, cliff, duration, amount, 0, 0) */\n      dup2\n      mstore\n      0x20\n      add\n        /* \"contracts/TokenVasting.sol\":1672:1680  duration */\n      dup3\n        /* \"contracts/TokenVasting.sol\":1632:1695  VestingSchedule(block.timestamp, cliff, duration, amount, 0, 0) */\n      dup2\n      mstore\n      0x20\n      add\n        /* \"contracts/TokenVasting.sol\":1682:1688  amount */\n      dup5\n        /* \"contracts/TokenVasting.sol\":1632:1695  VestingSchedule(block.timestamp, cliff, duration, amount, 0, 0) */\n      dup2\n      mstore\n      0x20\n      add\n        /* \"contracts/TokenVasting.sol\":1690:1691  0 */\n      0x00\n        /* \"contracts/TokenVasting.sol\":1632:1695  VestingSchedule(block.timestamp, cliff, duration, amount, 0, 0) */\n      dup2\n      mstore\n      0x20\n      add\n        /* \"contracts/TokenVasting.sol\":1693:1694  0 */\n      0x00\n        /* \"contracts/TokenVasting.sol\":1632:1695  VestingSchedule(block.timestamp, cliff, duration, amount, 0, 0) */\n      dup2\n      mstore\n      pop\n        /* \"contracts/TokenVasting.sol\":1595:1616  privatePreSaleVesting */\n      0x04\n        /* \"contracts/TokenVasting.sol\":1595:1629  privatePreSaleVesting[beneficiary] */\n      0x00\n        /* \"contracts/TokenVasting.sol\":1617:1628  beneficiary */\n      dup7\n        /* \"contracts/TokenVasting.sol\":1595:1629  privatePreSaleVesting[beneficiary] */\n      0xffffffffffffffffffffffffffffffffffffffff\n      and\n      0xffffffffffffffffffffffffffffffffffffffff\n      and\n      dup2\n      mstore\n      0x20\n      add\n      swap1\n      dup2\n      mstore\n      0x20\n      add\n      0x00\n      keccak256\n        /* \"contracts/TokenVasting.sol\":1595:1695  privatePreSaleVesting[beneficiary] = VestingSchedule(block.timestamp, cliff, duration, amount, 0, 0) */\n      0x00\n      dup3\n      add\n      mload\n      dup2\n      0x00\n      add\n      sstore\n      0x20\n      dup3\n      add\n      mload\n      dup2\n      0x01\n      add\n      sstore\n      0x40\n      dup3\n      add\n      mload\n      dup2\n      0x02\n      add\n      sstore\n      0x60\n      dup3\n      add\n      mload\n      dup2\n      0x03\n      add\n      sstore\n      0x80\n      dup3\n      add\n      mload\n      dup2\n      0x04\n      add\n      sstore\n      0xa0\n      dup3\n      add\n      mload\n      dup2\n      0x05\n      add\n      sstore\n      swap1\n      pop\n      pop\n        /* \"contracts/TokenVasting.sol\":1462:1702  {... */\n      pop\n      pop\n        /* \"contracts/TokenVasting.sol\":1372:1702  function addPrivatePreSaleVesting(address beneficiary, uint256 amount) external onlyOwner {... */\n      pop\n      pop\n      jump\t// out\n        /* \"@openzeppelin/contracts/access/Ownable.sol\":2543:2758  function transferOwnership(address newOwner) public virtual onlyOwner {... */\n    tag_47:\n        /* \"@openzeppelin/contracts/access/Ownable.sol\":1531:1544  _checkOwner() */\n      tag_86\n        /* \"@openzeppelin/contracts/access/Ownable.sol\":1531:1542  _checkOwner */\n      tag_57\n        /* \"@openzeppelin/contracts/access/Ownable.sol\":1531:1544  _checkOwner() */\n      jump\t// in\n    tag_86:\n        /* \"@openzeppelin/contracts/access/Ownable.sol\":2647:2648  0 */\n      0x00\n        /* \"@openzeppelin/contracts/access/Ownable.sol\":2627:2649  newOwner == address(0) */\n      0xffffffffffffffffffffffffffffffffffffffff\n      and\n        /* \"@openzeppelin/contracts/access/Ownable.sol\":2627:2635  newOwner */\n      dup2\n        /* \"@openzeppelin/contracts/access/Ownable.sol\":2627:2649  newOwner == address(0) */\n      0xffffffffffffffffffffffffffffffffffffffff\n      and\n      sub\n        /* \"@openzeppelin/contracts/access/Ownable.sol\":2623:2714  if (newOwner == address(0)) {... */\n      tag_88\n      jumpi\n        /* \"@openzeppelin/contracts/access/Ownable.sol\":2700:2701  0 */\n      0x00\n        /* \"@openzeppelin/contracts/access/Ownable.sol\":2672:2703  OwnableInvalidOwner(address(0)) */\n      mload(0x40)\n      0x1e4fbdf700000000000000000000000000000000000000000000000000000000\n      dup2\n      mstore\n      0x04\n      add\n      tag_89\n      swap2\n      swap1\n      tag_26\n      jump\t// in\n    tag_89:\n      mload(0x40)\n      dup1\n      swap2\n      sub\n      swap1\n      revert\n        /* \"@openzeppelin/contracts/access/Ownable.sol\":2623:2714  if (newOwner == address(0)) {... */\n    tag_88:\n        /* \"@openzeppelin/contracts/access/Ownable.sol\":2723:2751  _transferOwnership(newOwner) */\n      tag_90\n        /* \"@openzeppelin/contracts/access/Ownable.sol\":2742:2750  newOwner */\n      dup2\n        /* \"@openzeppelin/contracts/access/Ownable.sol\":2723:2741  _transferOwnership */\n      tag_60\n        /* \"@openzeppelin/contracts/access/Ownable.sol\":2723:2751  _transferOwnership(newOwner) */\n      jump\t// in\n    tag_90:\n        /* \"@openzeppelin/contracts/access/Ownable.sol\":2543:2758  function transferOwnership(address newOwner) public virtual onlyOwner {... */\n      pop\n      jump\t// out\n        /* \"contracts/TokenVasting.sol\":300:319  IERC20 public token */\n    tag_49:\n      0x02\n      0x00\n      swap1\n      sload\n      swap1\n      0x0100\n      exp\n      swap1\n      div\n      0xffffffffffffffffffffffffffffffffffffffff\n      and\n      dup2\n      jump\t// out\n        /* \"contracts/TokenVasting.sol\":2954:3840  function claimTokens(address beneficiary, uint256 vestingType) external nonReentrant {... */\n    tag_54:\n        /* \"@openzeppelin/contracts/security/ReentrancyGuard.sol\":2261:2282  _nonReentrantBefore() */\n      tag_92\n        /* \"@openzeppelin/contracts/security/ReentrancyGuard.sol\":2261:2280  _nonReentrantBefore */\n      tag_93\n        /* \"@openzeppelin/contracts/security/ReentrancyGuard.sol\":2261:2282  _nonReentrantBefore() */\n      jump\t// in\n    tag_92:\n        /* \"contracts/TokenVasting.sol\":3049:3081  VestingSchedule storage schedule */\n      0x00\n        /* \"contracts/TokenVasting.sol\":3111:3112  1 */\n      0x01\n        /* \"contracts/TokenVasting.sol\":3096:3107  vestingType */\n      dup3\n        /* \"contracts/TokenVasting.sol\":3096:3112  vestingType == 1 */\n      sub\n        /* \"contracts/TokenVasting.sol\":3092:3469  if (vestingType == 1) { // Team... */\n      tag_95\n      jumpi\n        /* \"contracts/TokenVasting.sol\":3147:3158  teamVesting */\n      0x03\n        /* \"contracts/TokenVasting.sol\":3147:3171  teamVesting[beneficiary] */\n      0x00\n        /* \"contracts/TokenVasting.sol\":3159:3170  beneficiary */\n      dup5\n        /* \"contracts/TokenVasting.sol\":3147:3171  teamVesting[beneficiary] */\n      0xffffffffffffffffffffffffffffffffffffffff\n      and\n      0xffffffffffffffffffffffffffffffffffffffff\n      and\n      dup2\n      mstore\n      0x20\n      add\n      swap1\n      dup2\n      mstore\n      0x20\n      add\n      0x00\n      keccak256\n        /* \"contracts/TokenVasting.sol\":3136:3171  schedule = teamVesting[beneficiary] */\n      swap1\n      pop\n        /* \"contracts/TokenVasting.sol\":3092:3469  if (vestingType == 1) { // Team... */\n      jump(tag_96)\n    tag_95:\n        /* \"contracts/TokenVasting.sol\":3207:3208  2 */\n      0x02\n        /* \"contracts/TokenVasting.sol\":3192:3203  vestingType */\n      dup3\n        /* \"contracts/TokenVasting.sol\":3192:3208  vestingType == 2 */\n      sub\n        /* \"contracts/TokenVasting.sol\":3188:3469  if (vestingType == 2) { // Private & Pre-Sale... */\n      tag_97\n      jumpi\n        /* \"contracts/TokenVasting.sol\":3257:3278  privatePreSaleVesting */\n      0x04\n        /* \"contracts/TokenVasting.sol\":3257:3291  privatePreSaleVesting[beneficiary] */\n      0x00\n        /* \"contracts/TokenVasting.sol\":3279:3290  beneficiary */\n      dup5\n        /* \"contracts/TokenVasting.sol\":3257:3291  privatePreSaleVesting[beneficiary] */\n      0xffffffffffffffffffffffffffffffffffffffff\n      and\n      0xffffffffffffffffffffffffffffffffffffffff\n      and\n      dup2\n      mstore\n      0x20\n      add\n      swap1\n      dup2\n      mstore\n      0x20\n      add\n      0x00\n      keccak256\n        /* \"contracts/TokenVasting.sol\":3246:3291  schedule = privatePreSaleVesting[beneficiary] */\n      swap1\n      pop\n        /* \"contracts/TokenVasting.sol\":3188:3469  if (vestingType == 2) { // Private & Pre-Sale... */\n      jump(tag_98)\n    tag_97:\n        /* \"contracts/TokenVasting.sol\":3327:3328  3 */\n      0x03\n        /* \"contracts/TokenVasting.sol\":3312:3323  vestingType */\n      dup3\n        /* \"contracts/TokenVasting.sol\":3312:3328  vestingType == 3 */\n      sub\n        /* \"contracts/TokenVasting.sol\":3308:3469  if (vestingType == 3) { // Marketing... */\n      tag_99\n      jumpi\n        /* \"contracts/TokenVasting.sol\":3368:3384  marketingVesting */\n      0x05\n        /* \"contracts/TokenVasting.sol\":3368:3397  marketingVesting[beneficiary] */\n      0x00\n        /* \"contracts/TokenVasting.sol\":3385:3396  beneficiary */\n      dup5\n        /* \"contracts/TokenVasting.sol\":3368:3397  marketingVesting[beneficiary] */\n      0xffffffffffffffffffffffffffffffffffffffff\n      and\n      0xffffffffffffffffffffffffffffffffffffffff\n      and\n      dup2\n      mstore\n      0x20\n      add\n      swap1\n      dup2\n      mstore\n      0x20\n      add\n      0x00\n      keccak256\n        /* \"contracts/TokenVasting.sol\":3357:3397  schedule = marketingVesting[beneficiary] */\n      swap1\n      pop\n        /* \"contracts/TokenVasting.sol\":3308:3469  if (vestingType == 3) { // Marketing... */\n      jump(tag_100)\n    tag_99:\n        /* \"contracts/TokenVasting.sol\":3428:3458  revert(\"Invalid vesting type\") */\n      mload(0x40)\n      0x08c379a000000000000000000000000000000000000000000000000000000000\n      dup2\n      mstore\n      0x04\n      add\n      tag_101\n      swap1\n      tag_102\n      jump\t// in\n    tag_101:\n      mload(0x40)\n      dup1\n      swap2\n      sub\n      swap1\n      revert\n        /* \"contracts/TokenVasting.sol\":3308:3469  if (vestingType == 3) { // Marketing... */\n    tag_100:\n        /* \"contracts/TokenVasting.sol\":3188:3469  if (vestingType == 2) { // Private & Pre-Sale... */\n    tag_98:\n        /* \"contracts/TokenVasting.sol\":3092:3469  if (vestingType == 1) { // Team... */\n    tag_96:\n        /* \"contracts/TokenVasting.sol\":3479:3499  uint256 vestedAmount */\n      0x00\n        /* \"contracts/TokenVasting.sol\":3502:3534  _calculateVestedAmount(schedule) */\n      tag_103\n        /* \"contracts/TokenVasting.sol\":3525:3533  schedule */\n      dup3\n        /* \"contracts/TokenVasting.sol\":3502:3524  _calculateVestedAmount */\n      tag_104\n        /* \"contracts/TokenVasting.sol\":3502:3534  _calculateVestedAmount(schedule) */\n      jump\t// in\n    tag_103:\n        /* \"contracts/TokenVasting.sol\":3479:3534  uint256 vestedAmount = _calculateVestedAmount(schedule) */\n      swap1\n      pop\n        /* \"contracts/TokenVasting.sol\":3544:3567  uint256 claimableAmount */\n      0x00\n        /* \"contracts/TokenVasting.sol\":3585:3593  schedule */\n      dup3\n        /* \"contracts/TokenVasting.sol\":3585:3602  schedule.released */\n      0x05\n      add\n      sload\n        /* \"contracts/TokenVasting.sol\":3570:3582  vestedAmount */\n      dup3\n        /* \"contracts/TokenVasting.sol\":3570:3602  vestedAmount - schedule.released */\n      tag_105\n      swap2\n      swap1\n      tag_70\n      jump\t// in\n    tag_105:\n        /* \"contracts/TokenVasting.sol\":3544:3602  uint256 claimableAmount = vestedAmount - schedule.released */\n      swap1\n      pop\n        /* \"contracts/TokenVasting.sol\":3639:3640  0 */\n      0x00\n        /* \"contracts/TokenVasting.sol\":3621:3636  claimableAmount */\n      dup2\n        /* \"contracts/TokenVasting.sol\":3621:3640  claimableAmount > 0 */\n      gt\n        /* \"contracts/TokenVasting.sol\":3613:3674  require(claimableAmount > 0, \"No tokens available for claim\") */\n      tag_106\n      jumpi\n      mload(0x40)\n      0x08c379a000000000000000000000000000000000000000000000000000000000\n      dup2\n      mstore\n      0x04\n      add\n      tag_107\n      swap1\n      tag_108\n      jump\t// in\n    tag_107:\n      mload(0x40)\n      dup1\n      swap2\n      sub\n      swap1\n      revert\n    tag_106:\n        /* \"contracts/TokenVasting.sol\":3706:3721  claimableAmount */\n      dup1\n        /* \"contracts/TokenVasting.sol\":3685:3693  schedule */\n      dup4\n        /* \"contracts/TokenVasting.sol\":3685:3702  schedule.released */\n      0x05\n      add\n      0x00\n        /* \"contracts/TokenVasting.sol\":3685:3721  schedule.released += claimableAmount */\n      dup3\n      dup3\n      sload\n      tag_109\n      swap2\n      swap1\n      tag_110\n      jump\t// in\n    tag_109:\n      swap3\n      pop\n      pop\n      dup2\n      swap1\n      sstore\n      pop\n        /* \"contracts/TokenVasting.sol\":3731:3736  token */\n      0x02\n      0x00\n      swap1\n      sload\n      swap1\n      0x0100\n      exp\n      swap1\n      div\n      0xffffffffffffffffffffffffffffffffffffffff\n      and\n        /* \"contracts/TokenVasting.sol\":3731:3745  token.transfer */\n      0xffffffffffffffffffffffffffffffffffffffff\n      and\n      0xa9059cbb\n        /* \"contracts/TokenVasting.sol\":3746:3757  beneficiary */\n      dup7\n        /* \"contracts/TokenVasting.sol\":3759:3774  claimableAmount */\n      dup4\n        /* \"contracts/TokenVasting.sol\":3731:3775  token.transfer(beneficiary, claimableAmount) */\n      mload(0x40)\n      dup4\n      0xffffffff\n      and\n      0xe0\n      shl\n      dup2\n      mstore\n      0x04\n      add\n      tag_111\n      swap3\n      swap2\n      swap1\n      tag_72\n      jump\t// in\n    tag_111:\n      0x20\n      mload(0x40)\n      dup1\n      dup4\n      sub\n      dup2\n      0x00\n      dup8\n      gas\n      call\n      iszero\n      dup1\n      iszero\n      tag_113\n      jumpi\n      returndatasize\n      0x00\n      dup1\n      returndatacopy\n      revert(0x00, returndatasize)\n    tag_113:\n      pop\n      pop\n      pop\n      pop\n      mload(0x40)\n      returndatasize\n      not(0x1f)\n      0x1f\n      dup3\n      add\n      and\n      dup3\n      add\n      dup1\n      0x40\n      mstore\n      pop\n      dup2\n      add\n      swap1\n      tag_114\n      swap2\n      swap1\n      tag_76\n      jump\t// in\n    tag_114:\n      pop\n        /* \"contracts/TokenVasting.sol\":3804:3815  beneficiary */\n      dup5\n        /* \"contracts/TokenVasting.sol\":3790:3833  TokensClaimed(beneficiary, claimableAmount) */\n      0xffffffffffffffffffffffffffffffffffffffff\n      and\n      0x896e034966eaaf1adc54acc0f257056febbd300c9e47182cf761982cf1f5e430\n        /* \"contracts/TokenVasting.sol\":3817:3832  claimableAmount */\n      dup3\n        /* \"contracts/TokenVasting.sol\":3790:3833  TokensClaimed(beneficiary, claimableAmount) */\n      mload(0x40)\n      tag_115\n      swap2\n      swap1\n      tag_78\n      jump\t// in\n    tag_115:\n      mload(0x40)\n      dup1\n      swap2\n      sub\n      swap1\n      log2\n        /* \"contracts/TokenVasting.sol\":3039:3840  {... */\n      pop\n      pop\n      pop\n        /* \"@openzeppelin/contracts/security/ReentrancyGuard.sol\":2303:2323  _nonReentrantAfter() */\n      tag_116\n        /* \"@openzeppelin/contracts/security/ReentrancyGuard.sol\":2303:2321  _nonReentrantAfter */\n      tag_117\n        /* \"@openzeppelin/contracts/security/ReentrancyGuard.sol\":2303:2323  _nonReentrantAfter() */\n      jump\t// in\n    tag_116:\n        /* \"contracts/TokenVasting.sol\":2954:3840  function claimTokens(address beneficiary, uint256 vestingType) external nonReentrant {... */\n      pop\n      pop\n      jump\t// out\n        /* \"@openzeppelin/contracts/access/Ownable.sol\":1796:1958  function _checkOwner() internal view virtual {... */\n    tag_57:\n        /* \"@openzeppelin/contracts/access/Ownable.sol\":1866:1878  _msgSender() */\n      tag_119\n        /* \"@openzeppelin/contracts/access/Ownable.sol\":1866:1876  _msgSender */\n      tag_120\n        /* \"@openzeppelin/contracts/access/Ownable.sol\":1866:1878  _msgSender() */\n      jump\t// in\n    tag_119:\n        /* \"@openzeppelin/contracts/access/Ownable.sol\":1855:1878  owner() != _msgSender() */\n      0xffffffffffffffffffffffffffffffffffffffff\n      and\n        /* \"@openzeppelin/contracts/access/Ownable.sol\":1855:1862  owner() */\n      tag_121\n        /* \"@openzeppelin/contracts/access/Ownable.sol\":1855:1860  owner */\n      tag_24\n        /* \"@openzeppelin/contracts/access/Ownable.sol\":1855:1862  owner() */\n      jump\t// in\n    tag_121:\n        /* \"@openzeppelin/contracts/access/Ownable.sol\":1855:1878  owner() != _msgSender() */\n      0xffffffffffffffffffffffffffffffffffffffff\n      and\n      eq\n        /* \"@openzeppelin/contracts/access/Ownable.sol\":1851:1952  if (owner() != _msgSender()) {... */\n      tag_122\n      jumpi\n        /* \"@openzeppelin/contracts/access/Ownable.sol\":1928:1940  _msgSender() */\n      tag_123\n        /* \"@openzeppelin/contracts/access/Ownable.sol\":1928:1938  _msgSender */\n      tag_120\n        /* \"@openzeppelin/contracts/access/Ownable.sol\":1928:1940  _msgSender() */\n      jump\t// in\n    tag_123:\n        /* \"@openzeppelin/contracts/access/Ownable.sol\":1901:1941  OwnableUnauthorizedAccount(_msgSender()) */\n      mload(0x40)\n      0x118cdaa700000000000000000000000000000000000000000000000000000000\n      dup2\n      mstore\n      0x04\n      add\n      tag_124\n      swap2\n      swap1\n      tag_26\n      jump\t// in\n    tag_124:\n      mload(0x40)\n      dup1\n      swap2\n      sub\n      swap1\n      revert\n        /* \"@openzeppelin/contracts/access/Ownable.sol\":1851:1952  if (owner() != _msgSender()) {... */\n    tag_122:\n        /* \"@openzeppelin/contracts/access/Ownable.sol\":1796:1958  function _checkOwner() internal view virtual {... */\n      jump\t// out\n        /* \"@openzeppelin/contracts/access/Ownable.sol\":2912:3099  function _transferOwnership(address newOwner) internal virtual {... */\n    tag_60:\n        /* \"@openzeppelin/contracts/access/Ownable.sol\":2985:3001  address oldOwner */\n      0x00\n        /* \"@openzeppelin/contracts/access/Ownable.sol\":3004:3010  _owner */\n      dup1\n      0x00\n      swap1\n      sload\n      swap1\n      0x0100\n      exp\n      swap1\n      div\n      0xffffffffffffffffffffffffffffffffffffffff\n      and\n        /* \"@openzeppelin/contracts/access/Ownable.sol\":2985:3010  address oldOwner = _owner */\n      swap1\n      pop\n        /* \"@openzeppelin/contracts/access/Ownable.sol\":3029:3037  newOwner */\n      dup2\n        /* \"@openzeppelin/contracts/access/Ownable.sol\":3020:3026  _owner */\n      0x00\n      dup1\n        /* \"@openzeppelin/contracts/access/Ownable.sol\":3020:3037  _owner = newOwner */\n      0x0100\n      exp\n      dup2\n      sload\n      dup2\n      0xffffffffffffffffffffffffffffffffffffffff\n      mul\n      not\n      and\n      swap1\n      dup4\n      0xffffffffffffffffffffffffffffffffffffffff\n      and\n      mul\n      or\n      swap1\n      sstore\n      pop\n        /* \"@openzeppelin/contracts/access/Ownable.sol\":3083:3091  newOwner */\n      dup2\n        /* \"@openzeppelin/contracts/access/Ownable.sol\":3052:3092  OwnershipTransferred(oldOwner, newOwner) */\n      0xffffffffffffffffffffffffffffffffffffffff\n      and\n        /* \"@openzeppelin/contracts/access/Ownable.sol\":3073:3081  oldOwner */\n      dup2\n        /* \"@openzeppelin/contracts/access/Ownable.sol\":3052:3092  OwnershipTransferred(oldOwner, newOwner) */\n      0xffffffffffffffffffffffffffffffffffffffff\n      and\n      0x8be0079c531659141344cd1fd0a4f28419497f9722a3daafe3b4186f6b6457e0\n      mload(0x40)\n      mload(0x40)\n      dup1\n      swap2\n      sub\n      swap1\n      log3\n        /* \"@openzeppelin/contracts/access/Ownable.sol\":2975:3099  {... */\n      pop\n        /* \"@openzeppelin/contracts/access/Ownable.sol\":2912:3099  function _transferOwnership(address newOwner) internal virtual {... */\n      pop\n      jump\t// out\n        /* \"@openzeppelin/contracts/security/ReentrancyGuard.sol\":2336:2623  function _nonReentrantBefore() private {... */\n    tag_93:\n        /* \"@openzeppelin/contracts/security/ReentrancyGuard.sol\":1759:1760  2 */\n      0x02\n        /* \"@openzeppelin/contracts/security/ReentrancyGuard.sol\":2468:2475  _status */\n      sload(0x01)\n        /* \"@openzeppelin/contracts/security/ReentrancyGuard.sol\":2468:2487  _status != _ENTERED */\n      sub\n        /* \"@openzeppelin/contracts/security/ReentrancyGuard.sol\":2460:2523  require(_status != _ENTERED, \"ReentrancyGuard: reentrant call\") */\n      tag_127\n      jumpi\n      mload(0x40)\n      0x08c379a000000000000000000000000000000000000000000000000000000000\n      dup2\n      mstore\n      0x04\n      add\n      tag_128\n      swap1\n      tag_129\n      jump\t// in\n    tag_128:\n      mload(0x40)\n      dup1\n      swap2\n      sub\n      swap1\n      revert\n    tag_127:\n        /* \"@openzeppelin/contracts/security/ReentrancyGuard.sol\":1759:1760  2 */\n      0x02\n        /* \"@openzeppelin/contracts/security/ReentrancyGuard.sol\":2598:2605  _status */\n      0x01\n        /* \"@openzeppelin/contracts/security/ReentrancyGuard.sol\":2598:2616  _status = _ENTERED */\n      dup2\n      swap1\n      sstore\n      pop\n        /* \"@openzeppelin/contracts/security/ReentrancyGuard.sol\":2336:2623  function _nonReentrantBefore() private {... */\n      jump\t// out\n        /* \"contracts/TokenVasting.sol\":2436:2897  function _calculateVestedAmount(VestingSchedule storage schedule) internal view returns (uint256) {... */\n    tag_104:\n        /* \"contracts/TokenVasting.sol\":2525:2532  uint256 */\n      0x00\n        /* \"contracts/TokenVasting.sol\":2587:2595  schedule */\n      dup2\n        /* \"contracts/TokenVasting.sol\":2587:2601  schedule.cliff */\n      0x01\n      add\n      sload\n        /* \"contracts/TokenVasting.sol\":2566:2574  schedule */\n      dup3\n        /* \"contracts/TokenVasting.sol\":2566:2584  schedule.startTime */\n      0x00\n      add\n      sload\n        /* \"contracts/TokenVasting.sol\":2566:2601  schedule.startTime + schedule.cliff */\n      tag_131\n      swap2\n      swap1\n      tag_110\n      jump\t// in\n    tag_131:\n        /* \"contracts/TokenVasting.sol\":2548:2563  block.timestamp */\n      timestamp\n        /* \"contracts/TokenVasting.sol\":2548:2601  block.timestamp < schedule.startTime + schedule.cliff */\n      lt\n        /* \"contracts/TokenVasting.sol\":2544:2636  if (block.timestamp < schedule.startTime + schedule.cliff) {... */\n      iszero\n      tag_132\n      jumpi\n        /* \"contracts/TokenVasting.sol\":2624:2625  0 */\n      0x00\n        /* \"contracts/TokenVasting.sol\":2617:2625  return 0 */\n      swap1\n      pop\n      jump(tag_130)\n        /* \"contracts/TokenVasting.sol\":2544:2636  if (block.timestamp < schedule.startTime + schedule.cliff) {... */\n    tag_132:\n        /* \"contracts/TokenVasting.sol\":2689:2697  schedule */\n      dup2\n        /* \"contracts/TokenVasting.sol\":2689:2706  schedule.duration */\n      0x02\n      add\n      sload\n        /* \"contracts/TokenVasting.sol\":2668:2676  schedule */\n      dup3\n        /* \"contracts/TokenVasting.sol\":2668:2686  schedule.startTime */\n      0x00\n      add\n      sload\n        /* \"contracts/TokenVasting.sol\":2668:2706  schedule.startTime + schedule.duration */\n      tag_133\n      swap2\n      swap1\n      tag_110\n      jump\t// in\n    tag_133:\n        /* \"contracts/TokenVasting.sol\":2649:2664  block.timestamp */\n      timestamp\n        /* \"contracts/TokenVasting.sol\":2649:2706  block.timestamp >= schedule.startTime + schedule.duration */\n      lt\n        /* \"contracts/TokenVasting.sol\":2645:2755  if (block.timestamp >= schedule.startTime + schedule.duration) {... */\n      tag_134\n      jumpi\n        /* \"contracts/TokenVasting.sol\":2729:2737  schedule */\n      dup2\n        /* \"contracts/TokenVasting.sol\":2729:2744  schedule.amount */\n      0x03\n      add\n      sload\n        /* \"contracts/TokenVasting.sol\":2722:2744  return schedule.amount */\n      swap1\n      pop\n      jump(tag_130)\n        /* \"contracts/TokenVasting.sol\":2645:2755  if (block.timestamp >= schedule.startTime + schedule.duration) {... */\n    tag_134:\n        /* \"contracts/TokenVasting.sol\":2764:2783  uint256 timeElapsed */\n      0x00\n        /* \"contracts/TokenVasting.sol\":2804:2812  schedule */\n      dup3\n        /* \"contracts/TokenVasting.sol\":2804:2822  schedule.startTime */\n      0x00\n      add\n      sload\n        /* \"contracts/TokenVasting.sol\":2786:2801  block.timestamp */\n      timestamp\n        /* \"contracts/TokenVasting.sol\":2786:2822  block.timestamp - schedule.startTime */\n      tag_135\n      swap2\n      swap1\n      tag_70\n      jump\t// in\n    tag_135:\n        /* \"contracts/TokenVasting.sol\":2764:2822  uint256 timeElapsed = block.timestamp - schedule.startTime */\n      swap1\n      pop\n        /* \"contracts/TokenVasting.sol\":2873:2881  schedule */\n      dup3\n        /* \"contracts/TokenVasting.sol\":2873:2890  schedule.duration */\n      0x02\n      add\n      sload\n        /* \"contracts/TokenVasting.sol\":2858:2869  timeElapsed */\n      dup2\n        /* \"contracts/TokenVasting.sol\":2840:2848  schedule */\n      dup5\n        /* \"contracts/TokenVasting.sol\":2840:2855  schedule.amount */\n      0x03\n      add\n      sload\n        /* \"contracts/TokenVasting.sol\":2840:2869  schedule.amount * timeElapsed */\n      tag_136\n      swap2\n      swap1\n      tag_66\n      jump\t// in\n    tag_136:\n        /* \"contracts/TokenVasting.sol\":2839:2890  (schedule.amount * timeElapsed) / schedule.duration */\n      tag_137\n      swap2\n      swap1\n      tag_68\n      jump\t// in\n    tag_137:\n        /* \"contracts/TokenVasting.sol\":2832:2890  return (schedule.amount * timeElapsed) / schedule.duration */\n      swap2\n      pop\n      pop\n        /* \"contracts/TokenVasting.sol\":2436:2897  function _calculateVestedAmount(VestingSchedule storage schedule) internal view returns (uint256) {... */\n    tag_130:\n      swap2\n      swap1\n      pop\n      jump\t// out\n        /* \"@openzeppelin/contracts/security/ReentrancyGuard.sol\":2629:2838  function _nonReentrantAfter() private {... */\n    tag_117:\n        /* \"@openzeppelin/contracts/security/ReentrancyGuard.sol\":1716:1717  1 */\n      0x01\n        /* \"@openzeppelin/contracts/security/ReentrancyGuard.sol\":2809:2816  _status */\n      dup1\n        /* \"@openzeppelin/contracts/security/ReentrancyGuard.sol\":2809:2831  _status = _NOT_ENTERED */\n      dup2\n      swap1\n      sstore\n      pop\n        /* \"@openzeppelin/contracts/security/ReentrancyGuard.sol\":2629:2838  function _nonReentrantAfter() private {... */\n      jump\t// out\n        /* \"@openzeppelin/contracts/utils/Context.sol\":656:752  function _msgSender() internal view virtual returns (address) {... */\n    tag_120:\n        /* \"@openzeppelin/contracts/utils/Context.sol\":709:716  address */\n      0x00\n        /* \"@openzeppelin/contracts/utils/Context.sol\":735:745  msg.sender */\n      caller\n        /* \"@openzeppelin/contracts/utils/Context.sol\":728:745  return msg.sender */\n      swap1\n      pop\n        /* \"@openzeppelin/contracts/utils/Context.sol\":656:752  function _msgSender() internal view virtual returns (address) {... */\n      swap1\n      jump\t// out\n        /* \"#utility.yul\":88:205   */\n    tag_141:\n        /* \"#utility.yul\":197:198   */\n      0x00\n        /* \"#utility.yul\":194:195   */\n      dup1\n        /* \"#utility.yul\":187:199   */\n      revert\n        /* \"#utility.yul\":334:460   */\n    tag_143:\n        /* \"#utility.yul\":371:378   */\n      0x00\n        /* \"#utility.yul\":411:453   */\n      0xffffffffffffffffffffffffffffffffffffffff\n        /* \"#utility.yul\":404:409   */\n      dup3\n        /* \"#utility.yul\":400:454   */\n      and\n        /* \"#utility.yul\":389:454   */\n      swap1\n      pop\n        /* \"#utility.yul\":334:460   */\n      swap2\n      swap1\n      pop\n      jump\t// out\n        /* \"#utility.yul\":466:562   */\n    tag_144:\n        /* \"#utility.yul\":503:510   */\n      0x00\n        /* \"#utility.yul\":532:556   */\n      tag_175\n        /* \"#utility.yul\":550:555   */\n      dup3\n        /* \"#utility.yul\":532:556   */\n      tag_143\n      jump\t// in\n    tag_175:\n        /* \"#utility.yul\":521:556   */\n      swap1\n      pop\n        /* \"#utility.yul\":466:562   */\n      swap2\n      swap1\n      pop\n      jump\t// out\n        /* \"#utility.yul\":568:690   */\n    tag_145:\n        /* \"#utility.yul\":641:665   */\n      tag_177\n        /* \"#utility.yul\":659:664   */\n      dup2\n        /* \"#utility.yul\":641:665   */\n      tag_144\n      jump\t// in\n    tag_177:\n        /* \"#utility.yul\":634:639   */\n      dup2\n        /* \"#utility.yul\":631:666   */\n      eq\n        /* \"#utility.yul\":621:684   */\n      tag_178\n      jumpi\n        /* \"#utility.yul\":680:681   */\n      0x00\n        /* \"#utility.yul\":677:678   */\n      dup1\n        /* \"#utility.yul\":670:682   */\n      revert\n        /* \"#utility.yul\":621:684   */\n    tag_178:\n        /* \"#utility.yul\":568:690   */\n      pop\n      jump\t// out\n        /* \"#utility.yul\":696:835   */\n    tag_146:\n        /* \"#utility.yul\":742:747   */\n      0x00\n        /* \"#utility.yul\":780:786   */\n      dup2\n        /* \"#utility.yul\":767:787   */\n      calldataload\n        /* \"#utility.yul\":758:787   */\n      swap1\n      pop\n        /* \"#utility.yul\":796:829   */\n      tag_180\n        /* \"#utility.yul\":823:828   */\n      dup2\n        /* \"#utility.yul\":796:829   */\n      tag_145\n      jump\t// in\n    tag_180:\n        /* \"#utility.yul\":696:835   */\n      swap3\n      swap2\n      pop\n      pop\n      jump\t// out\n        /* \"#utility.yul\":841:1170   */\n    tag_17:\n        /* \"#utility.yul\":900:906   */\n      0x00\n        /* \"#utility.yul\":949:951   */\n      0x20\n        /* \"#utility.yul\":937:946   */\n      dup3\n        /* \"#utility.yul\":928:935   */\n      dup5\n        /* \"#utility.yul\":924:947   */\n      sub\n        /* \"#utility.yul\":920:952   */\n      slt\n        /* \"#utility.yul\":917:1036   */\n      iszero\n      tag_182\n      jumpi\n        /* \"#utility.yul\":955:1034   */\n      tag_183\n      tag_141\n      jump\t// in\n    tag_183:\n        /* \"#utility.yul\":917:1036   */\n    tag_182:\n        /* \"#utility.yul\":1075:1076   */\n      0x00\n        /* \"#utility.yul\":1100:1153   */\n      tag_184\n        /* \"#utility.yul\":1145:1152   */\n      dup5\n        /* \"#utility.yul\":1136:1142   */\n      dup3\n        /* \"#utility.yul\":1125:1134   */\n      dup6\n        /* \"#utility.yul\":1121:1143   */\n      add\n        /* \"#utility.yul\":1100:1153   */\n      tag_146\n      jump\t// in\n    tag_184:\n        /* \"#utility.yul\":1090:1153   */\n      swap2\n      pop\n        /* \"#utility.yul\":1046:1163   */\n      pop\n        /* \"#utility.yul\":841:1170   */\n      swap3\n      swap2\n      pop\n      pop\n      jump\t// out\n        /* \"#utility.yul\":1176:1253   */\n    tag_147:\n        /* \"#utility.yul\":1213:1220   */\n      0x00\n        /* \"#utility.yul\":1242:1247   */\n      dup2\n        /* \"#utility.yul\":1231:1247   */\n      swap1\n      pop\n        /* \"#utility.yul\":1176:1253   */\n      swap2\n      swap1\n      pop\n      jump\t// out\n        /* \"#utility.yul\":1259:1377   */\n    tag_148:\n        /* \"#utility.yul\":1346:1370   */\n      tag_187\n        /* \"#utility.yul\":1364:1369   */\n      dup2\n        /* \"#utility.yul\":1346:1370   */\n      tag_147\n      jump\t// in\n    tag_187:\n        /* \"#utility.yul\":1341:1344   */\n      dup3\n        /* \"#utility.yul\":1334:1371   */\n      mstore\n        /* \"#utility.yul\":1259:1377   */\n      pop\n      pop\n      jump\t// out\n        /* \"#utility.yul\":1383:2158   */\n    tag_20:\n        /* \"#utility.yul\":1616:1620   */\n      0x00\n        /* \"#utility.yul\":1654:1657   */\n      0xc0\n        /* \"#utility.yul\":1643:1652   */\n      dup3\n        /* \"#utility.yul\":1639:1658   */\n      add\n        /* \"#utility.yul\":1631:1658   */\n      swap1\n      pop\n        /* \"#utility.yul\":1668:1739   */\n      tag_189\n        /* \"#utility.yul\":1736:1737   */\n      0x00\n        /* \"#utility.yul\":1725:1734   */\n      dup4\n        /* \"#utility.yul\":1721:1738   */\n      add\n        /* \"#utility.yul\":1712:1718   */\n      dup10\n        /* \"#utility.yul\":1668:1739   */\n      tag_148\n      jump\t// in\n    tag_189:\n        /* \"#utility.yul\":1749:1821   */\n      tag_190\n        /* \"#utility.yul\":1817:1819   */\n      0x20\n        /* \"#utility.yul\":1806:1815   */\n      dup4\n        /* \"#utility.yul\":1802:1820   */\n      add\n        /* \"#utility.yul\":1793:1799   */\n      dup9\n        /* \"#utility.yul\":1749:1821   */\n      tag_148\n      jump\t// in\n    tag_190:\n        /* \"#utility.yul\":1831:1903   */\n      tag_191\n        /* \"#utility.yul\":1899:1901   */\n      0x40\n        /* \"#utility.yul\":1888:1897   */\n      dup4\n        /* \"#utility.yul\":1884:1902   */\n      add\n        /* \"#utility.yul\":1875:1881   */\n      dup8\n        /* \"#utility.yul\":1831:1903   */\n      tag_148\n      jump\t// in\n    tag_191:\n        /* \"#utility.yul\":1913:1985   */\n      tag_192\n        /* \"#utility.yul\":1981:1983   */\n      0x60\n        /* \"#utility.yul\":1970:1979   */\n      dup4\n        /* \"#utility.yul\":1966:1984   */\n      add\n        /* \"#utility.yul\":1957:1963   */\n      dup7\n        /* \"#utility.yul\":1913:1985   */\n      tag_148\n      jump\t// in\n    tag_192:\n        /* \"#utility.yul\":1995:2068   */\n      tag_193\n        /* \"#utility.yul\":2063:2066   */\n      0x80\n        /* \"#utility.yul\":2052:2061   */\n      dup4\n        /* \"#utility.yul\":2048:2067   */\n      add\n        /* \"#utility.yul\":2039:2045   */\n      dup6\n        /* \"#utility.yul\":1995:2068   */\n      tag_148\n      jump\t// in\n    tag_193:\n        /* \"#utility.yul\":2078:2151   */\n      tag_194\n        /* \"#utility.yul\":2146:2149   */\n      0xa0\n        /* \"#utility.yul\":2135:2144   */\n      dup4\n        /* \"#utility.yul\":2131:2150   */\n      add\n        /* \"#utility.yul\":2122:2128   */\n      dup5\n        /* \"#utility.yul\":2078:2151   */\n      tag_148\n      jump\t// in\n    tag_194:\n        /* \"#utility.yul\":1383:2158   */\n      swap8\n      swap7\n      pop\n      pop\n      pop\n      pop\n      pop\n      pop\n      pop\n      jump\t// out\n        /* \"#utility.yul\":2164:2282   */\n    tag_149:\n        /* \"#utility.yul\":2251:2275   */\n      tag_196\n        /* \"#utility.yul\":2269:2274   */\n      dup2\n        /* \"#utility.yul\":2251:2275   */\n      tag_144\n      jump\t// in\n    tag_196:\n        /* \"#utility.yul\":2246:2249   */\n      dup3\n        /* \"#utility.yul\":2239:2276   */\n      mstore\n        /* \"#utility.yul\":2164:2282   */\n      pop\n      pop\n      jump\t// out\n        /* \"#utility.yul\":2288:2510   */\n    tag_26:\n        /* \"#utility.yul\":2381:2385   */\n      0x00\n        /* \"#utility.yul\":2419:2421   */\n      0x20\n        /* \"#utility.yul\":2408:2417   */\n      dup3\n        /* \"#utility.yul\":2404:2422   */\n      add\n        /* \"#utility.yul\":2396:2422   */\n      swap1\n      pop\n        /* \"#utility.yul\":2432:2503   */\n      tag_198\n        /* \"#utility.yul\":2500:2501   */\n      0x00\n        /* \"#utility.yul\":2489:2498   */\n      dup4\n        /* \"#utility.yul\":2485:2502   */\n      add\n        /* \"#utility.yul\":2476:2482   */\n      dup5\n        /* \"#utility.yul\":2432:2503   */\n      tag_149\n      jump\t// in\n    tag_198:\n        /* \"#utility.yul\":2288:2510   */\n      swap3\n      swap2\n      pop\n      pop\n      jump\t// out\n        /* \"#utility.yul\":2516:2638   */\n    tag_150:\n        /* \"#utility.yul\":2589:2613   */\n      tag_200\n        /* \"#utility.yul\":2607:2612   */\n      dup2\n        /* \"#utility.yul\":2589:2613   */\n      tag_147\n      jump\t// in\n    tag_200:\n        /* \"#utility.yul\":2582:2587   */\n      dup2\n        /* \"#utility.yul\":2579:2614   */\n      eq\n        /* \"#utility.yul\":2569:2632   */\n      tag_201\n      jumpi\n        /* \"#utility.yul\":2628:2629   */\n      0x00\n        /* \"#utility.yul\":2625:2626   */\n      dup1\n        /* \"#utility.yul\":2618:2630   */\n      revert\n        /* \"#utility.yul\":2569:2632   */\n    tag_201:\n        /* \"#utility.yul\":2516:2638   */\n      pop\n      jump\t// out\n        /* \"#utility.yul\":2644:2783   */\n    tag_151:\n        /* \"#utility.yul\":2690:2695   */\n      0x00\n        /* \"#utility.yul\":2728:2734   */\n      dup2\n        /* \"#utility.yul\":2715:2735   */\n      calldataload\n        /* \"#utility.yul\":2706:2735   */\n      swap1\n      pop\n        /* \"#utility.yul\":2744:2777   */\n      tag_203\n        /* \"#utility.yul\":2771:2776   */\n      dup2\n        /* \"#utility.yul\":2744:2777   */\n      tag_150\n      jump\t// in\n    tag_203:\n        /* \"#utility.yul\":2644:2783   */\n      swap3\n      swap2\n      pop\n      pop\n      jump\t// out\n        /* \"#utility.yul\":2789:3263   */\n    tag_37:\n        /* \"#utility.yul\":2857:2863   */\n      0x00\n        /* \"#utility.yul\":2865:2871   */\n      dup1\n        /* \"#utility.yul\":2914:2916   */\n      0x40\n        /* \"#utility.yul\":2902:2911   */\n      dup4\n        /* \"#utility.yul\":2893:2900   */\n      dup6\n        /* \"#utility.yul\":2889:2912   */\n      sub\n        /* \"#utility.yul\":2885:2917   */\n      slt\n        /* \"#utility.yul\":2882:3001   */\n      iszero\n      tag_205\n      jumpi\n        /* \"#utility.yul\":2920:2999   */\n      tag_206\n      tag_141\n      jump\t// in\n    tag_206:\n        /* \"#utility.yul\":2882:3001   */\n    tag_205:\n        /* \"#utility.yul\":3040:3041   */\n      0x00\n        /* \"#utility.yul\":3065:3118   */\n      tag_207\n        /* \"#utility.yul\":3110:3117   */\n      dup6\n        /* \"#utility.yul\":3101:3107   */\n      dup3\n        /* \"#utility.yul\":3090:3099   */\n      dup7\n        /* \"#utility.yul\":3086:3108   */\n      add\n        /* \"#utility.yul\":3065:3118   */\n      tag_146\n      jump\t// in\n    tag_207:\n        /* \"#utility.yul\":3055:3118   */\n      swap3\n      pop\n        /* \"#utility.yul\":3011:3128   */\n      pop\n        /* \"#utility.yul\":3167:3169   */\n      0x20\n        /* \"#utility.yul\":3193:3246   */\n      tag_208\n        /* \"#utility.yul\":3238:3245   */\n      dup6\n        /* \"#utility.yul\":3229:3235   */\n      dup3\n        /* \"#utility.yul\":3218:3227   */\n      dup7\n        /* \"#utility.yul\":3214:3236   */\n      add\n        /* \"#utility.yul\":3193:3246   */\n      tag_151\n      jump\t// in\n    tag_208:\n        /* \"#utility.yul\":3183:3246   */\n      swap2\n      pop\n        /* \"#utility.yul\":3138:3256   */\n      pop\n        /* \"#utility.yul\":2789:3263   */\n      swap3\n      pop\n      swap3\n      swap1\n      pop\n      jump\t// out\n        /* \"#utility.yul\":3269:3329   */\n    tag_152:\n        /* \"#utility.yul\":3297:3300   */\n      0x00\n        /* \"#utility.yul\":3318:3323   */\n      dup2\n        /* \"#utility.yul\":3311:3323   */\n      swap1\n      pop\n        /* \"#utility.yul\":3269:3329   */\n      swap2\n      swap1\n      pop\n      jump\t// out\n        /* \"#utility.yul\":3335:3477   */\n    tag_153:\n        /* \"#utility.yul\":3385:3394   */\n      0x00\n        /* \"#utility.yul\":3418:3471   */\n      tag_211\n        /* \"#utility.yul\":3436:3470   */\n      tag_212\n        /* \"#utility.yul\":3445:3469   */\n      tag_213\n        /* \"#utility.yul\":3463:3468   */\n      dup5\n        /* \"#utility.yul\":3445:3469   */\n      tag_143\n      jump\t// in\n    tag_213:\n        /* \"#utility.yul\":3436:3470   */\n      tag_152\n      jump\t// in\n    tag_212:\n        /* \"#utility.yul\":3418:3471   */\n      tag_143\n      jump\t// in\n    tag_211:\n        /* \"#utility.yul\":3405:3471   */\n      swap1\n      pop\n        /* \"#utility.yul\":3335:3477   */\n      swap2\n      swap1\n      pop\n      jump\t// out\n        /* \"#utility.yul\":3483:3609   */\n    tag_154:\n        /* \"#utility.yul\":3533:3542   */\n      0x00\n        /* \"#utility.yul\":3566:3603   */\n      tag_215\n        /* \"#utility.yul\":3597:3602   */\n      dup3\n        /* \"#utility.yul\":3566:3603   */\n      tag_153\n      jump\t// in\n    tag_215:\n        /* \"#utility.yul\":3553:3603   */\n      swap1\n      pop\n        /* \"#utility.yul\":3483:3609   */\n      swap2\n      swap1\n      pop\n      jump\t// out\n        /* \"#utility.yul\":3615:3755   */\n    tag_155:\n        /* \"#utility.yul\":3679:3688   */\n      0x00\n        /* \"#utility.yul\":3712:3749   */\n      tag_217\n        /* \"#utility.yul\":3743:3748   */\n      dup3\n        /* \"#utility.yul\":3712:3749   */\n      tag_154\n      jump\t// in\n    tag_217:\n        /* \"#utility.yul\":3699:3749   */\n      swap1\n      pop\n        /* \"#utility.yul\":3615:3755   */\n      swap2\n      swap1\n      pop\n      jump\t// out\n        /* \"#utility.yul\":3761:3920   */\n    tag_156:\n        /* \"#utility.yul\":3862:3913   */\n      tag_219\n        /* \"#utility.yul\":3907:3912   */\n      dup2\n        /* \"#utility.yul\":3862:3913   */\n      tag_155\n      jump\t// in\n    tag_219:\n        /* \"#utility.yul\":3857:3860   */\n      dup3\n        /* \"#utility.yul\":3850:3914   */\n      mstore\n        /* \"#utility.yul\":3761:3920   */\n      pop\n      pop\n      jump\t// out\n        /* \"#utility.yul\":3926:4176   */\n    tag_51:\n        /* \"#utility.yul\":4033:4037   */\n      0x00\n        /* \"#utility.yul\":4071:4073   */\n      0x20\n        /* \"#utility.yul\":4060:4069   */\n      dup3\n        /* \"#utility.yul\":4056:4074   */\n      add\n        /* \"#utility.yul\":4048:4074   */\n      swap1\n      pop\n        /* \"#utility.yul\":4084:4169   */\n      tag_221\n        /* \"#utility.yul\":4166:4167   */\n      0x00\n        /* \"#utility.yul\":4155:4164   */\n      dup4\n        /* \"#utility.yul\":4151:4168   */\n      add\n        /* \"#utility.yul\":4142:4148   */\n      dup5\n        /* \"#utility.yul\":4084:4169   */\n      tag_156\n      jump\t// in\n    tag_221:\n        /* \"#utility.yul\":3926:4176   */\n      swap3\n      swap2\n      pop\n      pop\n      jump\t// out\n        /* \"#utility.yul\":4182:4362   */\n    tag_157:\n        /* \"#utility.yul\":4230:4307   */\n      0x4e487b7100000000000000000000000000000000000000000000000000000000\n        /* \"#utility.yul\":4227:4228   */\n      0x00\n        /* \"#utility.yul\":4220:4308   */\n      mstore\n        /* \"#utility.yul\":4327:4331   */\n      0x11\n        /* \"#utility.yul\":4324:4325   */\n      0x04\n        /* \"#utility.yul\":4317:4332   */\n      mstore\n        /* \"#utility.yul\":4351:4355   */\n      0x24\n        /* \"#utility.yul\":4348:4349   */\n      0x00\n        /* \"#utility.yul\":4341:4356   */\n      revert\n        /* \"#utility.yul\":4368:4778   */\n    tag_66:\n        /* \"#utility.yul\":4408:4415   */\n      0x00\n        /* \"#utility.yul\":4431:4451   */\n      tag_224\n        /* \"#utility.yul\":4449:4450   */\n      dup3\n        /* \"#utility.yul\":4431:4451   */\n      tag_147\n      jump\t// in\n    tag_224:\n        /* \"#utility.yul\":4426:4451   */\n      swap2\n      pop\n        /* \"#utility.yul\":4465:4485   */\n      tag_225\n        /* \"#utility.yul\":4483:4484   */\n      dup4\n        /* \"#utility.yul\":4465:4485   */\n      tag_147\n      jump\t// in\n    tag_225:\n        /* \"#utility.yul\":4460:4485   */\n      swap3\n      pop\n        /* \"#utility.yul\":4520:4521   */\n      dup3\n        /* \"#utility.yul\":4517:4518   */\n      dup3\n        /* \"#utility.yul\":4513:4522   */\n      mul\n        /* \"#utility.yul\":4542:4572   */\n      tag_226\n        /* \"#utility.yul\":4560:4571   */\n      dup2\n        /* \"#utility.yul\":4542:4572   */\n      tag_147\n      jump\t// in\n    tag_226:\n        /* \"#utility.yul\":4531:4572   */\n      swap2\n      pop\n        /* \"#utility.yul\":4721:4722   */\n      dup3\n        /* \"#utility.yul\":4712:4719   */\n      dup3\n        /* \"#utility.yul\":4708:4723   */\n      div\n        /* \"#utility.yul\":4705:4706   */\n      dup5\n        /* \"#utility.yul\":4702:4724   */\n      eq\n        /* \"#utility.yul\":4682:4683   */\n      dup4\n        /* \"#utility.yul\":4675:4684   */\n      iszero\n        /* \"#utility.yul\":4655:4738   */\n      or\n        /* \"#utility.yul\":4632:4771   */\n      tag_227\n      jumpi\n        /* \"#utility.yul\":4751:4769   */\n      tag_228\n      tag_157\n      jump\t// in\n    tag_228:\n        /* \"#utility.yul\":4632:4771   */\n    tag_227:\n        /* \"#utility.yul\":4416:4778   */\n      pop\n        /* \"#utility.yul\":4368:4778   */\n      swap3\n      swap2\n      pop\n      pop\n      jump\t// out\n        /* \"#utility.yul\":4784:4964   */\n    tag_158:\n        /* \"#utility.yul\":4832:4909   */\n      0x4e487b7100000000000000000000000000000000000000000000000000000000\n        /* \"#utility.yul\":4829:4830   */\n      0x00\n        /* \"#utility.yul\":4822:4910   */\n      mstore\n        /* \"#utility.yul\":4929:4933   */\n      0x12\n        /* \"#utility.yul\":4926:4927   */\n      0x04\n        /* \"#utility.yul\":4919:4934   */\n      mstore\n        /* \"#utility.yul\":4953:4957   */\n      0x24\n        /* \"#utility.yul\":4950:4951   */\n      0x00\n        /* \"#utility.yul\":4943:4958   */\n      revert\n        /* \"#utility.yul\":4970:5155   */\n    tag_68:\n        /* \"#utility.yul\":5010:5011   */\n      0x00\n        /* \"#utility.yul\":5027:5047   */\n      tag_231\n        /* \"#utility.yul\":5045:5046   */\n      dup3\n        /* \"#utility.yul\":5027:5047   */\n      tag_147\n      jump\t// in\n    tag_231:\n        /* \"#utility.yul\":5022:5047   */\n      swap2\n      pop\n        /* \"#utility.yul\":5061:5081   */\n      tag_232\n        /* \"#utility.yul\":5079:5080   */\n      dup4\n        /* \"#utility.yul\":5061:5081   */\n      tag_147\n      jump\t// in\n    tag_232:\n        /* \"#utility.yul\":5056:5081   */\n      swap3\n      pop\n        /* \"#utility.yul\":5100:5101   */\n      dup3\n        /* \"#utility.yul\":5090:5125   */\n      tag_233\n      jumpi\n        /* \"#utility.yul\":5105:5123   */\n      tag_234\n      tag_158\n      jump\t// in\n    tag_234:\n        /* \"#utility.yul\":5090:5125   */\n    tag_233:\n        /* \"#utility.yul\":5147:5148   */\n      dup3\n        /* \"#utility.yul\":5144:5145   */\n      dup3\n        /* \"#utility.yul\":5140:5149   */\n      div\n        /* \"#utility.yul\":5135:5149   */\n      swap1\n      pop\n        /* \"#utility.yul\":4970:5155   */\n      swap3\n      swap2\n      pop\n      pop\n      jump\t// out\n        /* \"#utility.yul\":5161:5355   */\n    tag_70:\n        /* \"#utility.yul\":5201:5205   */\n      0x00\n        /* \"#utility.yul\":5221:5241   */\n      tag_236\n        /* \"#utility.yul\":5239:5240   */\n      dup3\n        /* \"#utility.yul\":5221:5241   */\n      tag_147\n      jump\t// in\n    tag_236:\n        /* \"#utility.yul\":5216:5241   */\n      swap2\n      pop\n        /* \"#utility.yul\":5255:5275   */\n      tag_237\n        /* \"#utility.yul\":5273:5274   */\n      dup4\n        /* \"#utility.yul\":5255:5275   */\n      tag_147\n      jump\t// in\n    tag_237:\n        /* \"#utility.yul\":5250:5275   */\n      swap3\n      pop\n        /* \"#utility.yul\":5299:5300   */\n      dup3\n        /* \"#utility.yul\":5296:5297   */\n      dup3\n        /* \"#utility.yul\":5292:5301   */\n      sub\n        /* \"#utility.yul\":5284:5301   */\n      swap1\n      pop\n        /* \"#utility.yul\":5323:5324   */\n      dup2\n        /* \"#utility.yul\":5317:5321   */\n      dup2\n        /* \"#utility.yul\":5314:5325   */\n      gt\n        /* \"#utility.yul\":5311:5348   */\n      iszero\n      tag_238\n      jumpi\n        /* \"#utility.yul\":5328:5346   */\n      tag_239\n      tag_157\n      jump\t// in\n    tag_239:\n        /* \"#utility.yul\":5311:5348   */\n    tag_238:\n        /* \"#utility.yul\":5161:5355   */\n      swap3\n      swap2\n      pop\n      pop\n      jump\t// out\n        /* \"#utility.yul\":5361:5693   */\n    tag_72:\n        /* \"#utility.yul\":5482:5486   */\n      0x00\n        /* \"#utility.yul\":5520:5522   */\n      0x40\n        /* \"#utility.yul\":5509:5518   */\n      dup3\n        /* \"#utility.yul\":5505:5523   */\n      add\n        /* \"#utility.yul\":5497:5523   */\n      swap1\n      pop\n        /* \"#utility.yul\":5533:5604   */\n      tag_241\n        /* \"#utility.yul\":5601:5602   */\n      0x00\n        /* \"#utility.yul\":5590:5599   */\n      dup4\n        /* \"#utility.yul\":5586:5603   */\n      add\n        /* \"#utility.yul\":5577:5583   */\n      dup6\n        /* \"#utility.yul\":5533:5604   */\n      tag_149\n      jump\t// in\n    tag_241:\n        /* \"#utility.yul\":5614:5686   */\n      tag_242\n        /* \"#utility.yul\":5682:5684   */\n      0x20\n        /* \"#utility.yul\":5671:5680   */\n      dup4\n        /* \"#utility.yul\":5667:5685   */\n      add\n        /* \"#utility.yul\":5658:5664   */\n      dup5\n        /* \"#utility.yul\":5614:5686   */\n      tag_148\n      jump\t// in\n    tag_242:\n        /* \"#utility.yul\":5361:5693   */\n      swap4\n      swap3\n      pop\n      pop\n      pop\n      jump\t// out\n        /* \"#utility.yul\":5699:5789   */\n    tag_159:\n        /* \"#utility.yul\":5733:5740   */\n      0x00\n        /* \"#utility.yul\":5776:5781   */\n      dup2\n        /* \"#utility.yul\":5769:5782   */\n      iszero\n        /* \"#utility.yul\":5762:5783   */\n      iszero\n        /* \"#utility.yul\":5751:5783   */\n      swap1\n      pop\n        /* \"#utility.yul\":5699:5789   */\n      swap2\n      swap1\n      pop\n      jump\t// out\n        /* \"#utility.yul\":5795:5911   */\n    tag_160:\n        /* \"#utility.yul\":5865:5886   */\n      tag_245\n        /* \"#utility.yul\":5880:5885   */\n      dup2\n        /* \"#utility.yul\":5865:5886   */\n      tag_159\n      jump\t// in\n    tag_245:\n        /* \"#utility.yul\":5858:5863   */\n      dup2\n        /* \"#utility.yul\":5855:5887   */\n      eq\n        /* \"#utility.yul\":5845:5905   */\n      tag_246\n      jumpi\n        /* \"#utility.yul\":5901:5902   */\n      0x00\n        /* \"#utility.yul\":5898:5899   */\n      dup1\n        /* \"#utility.yul\":5891:5903   */\n      revert\n        /* \"#utility.yul\":5845:5905   */\n    tag_246:\n        /* \"#utility.yul\":5795:5911   */\n      pop\n      jump\t// out\n        /* \"#utility.yul\":5917:6054   */\n    tag_161:\n        /* \"#utility.yul\":5971:5976   */\n      0x00\n        /* \"#utility.yul\":6002:6008   */\n      dup2\n        /* \"#utility.yul\":5996:6009   */\n      mload\n        /* \"#utility.yul\":5987:6009   */\n      swap1\n      pop\n        /* \"#utility.yul\":6018:6048   */\n      tag_248\n        /* \"#utility.yul\":6042:6047   */\n      dup2\n        /* \"#utility.yul\":6018:6048   */\n      tag_160\n      jump\t// in\n    tag_248:\n        /* \"#utility.yul\":5917:6054   */\n      swap3\n      swap2\n      pop\n      pop\n      jump\t// out\n        /* \"#utility.yul\":6060:6405   */\n    tag_76:\n        /* \"#utility.yul\":6127:6133   */\n      0x00\n        /* \"#utility.yul\":6176:6178   */\n      0x20\n        /* \"#utility.yul\":6164:6173   */\n      dup3\n        /* \"#utility.yul\":6155:6162   */\n      dup5\n        /* \"#utility.yul\":6151:6174   */\n      sub\n        /* \"#utility.yul\":6147:6179   */\n      slt\n        /* \"#utility.yul\":6144:6263   */\n      iszero\n      tag_250\n      jumpi\n        /* \"#utility.yul\":6182:6261   */\n      tag_251\n      tag_141\n      jump\t// in\n    tag_251:\n        /* \"#utility.yul\":6144:6263   */\n    tag_250:\n        /* \"#utility.yul\":6302:6303   */\n      0x00\n        /* \"#utility.yul\":6327:6388   */\n      tag_252\n        /* \"#utility.yul\":6380:6387   */\n      dup5\n        /* \"#utility.yul\":6371:6377   */\n      dup3\n        /* \"#utility.yul\":6360:6369   */\n      dup6\n        /* \"#utility.yul\":6356:6378   */\n      add\n        /* \"#utility.yul\":6327:6388   */\n      tag_161\n      jump\t// in\n    tag_252:\n        /* \"#utility.yul\":6317:6388   */\n      swap2\n      pop\n        /* \"#utility.yul\":6273:6398   */\n      pop\n        /* \"#utility.yul\":6060:6405   */\n      swap3\n      swap2\n      pop\n      pop\n      jump\t// out\n        /* \"#utility.yul\":6411:6633   */\n    tag_78:\n        /* \"#utility.yul\":6504:6508   */\n      0x00\n        /* \"#utility.yul\":6542:6544   */\n      0x20\n        /* \"#utility.yul\":6531:6540   */\n      dup3\n        /* \"#utility.yul\":6527:6545   */\n      add\n        /* \"#utility.yul\":6519:6545   */\n      swap1\n      pop\n        /* \"#utility.yul\":6555:6626   */\n      tag_254\n        /* \"#utility.yul\":6623:6624   */\n      0x00\n        /* \"#utility.yul\":6612:6621   */\n      dup4\n        /* \"#utility.yul\":6608:6625   */\n      add\n        /* \"#utility.yul\":6599:6605   */\n      dup5\n        /* \"#utility.yul\":6555:6626   */\n      tag_148\n      jump\t// in\n    tag_254:\n        /* \"#utility.yul\":6411:6633   */\n      swap3\n      swap2\n      pop\n      pop\n      jump\t// out\n        /* \"#utility.yul\":6639:6808   */\n    tag_162:\n        /* \"#utility.yul\":6723:6734   */\n      0x00\n        /* \"#utility.yul\":6757:6763   */\n      dup3\n        /* \"#utility.yul\":6752:6755   */\n      dup3\n        /* \"#utility.yul\":6745:6764   */\n      mstore\n        /* \"#utility.yul\":6797:6801   */\n      0x20\n        /* \"#utility.yul\":6792:6795   */\n      dup3\n        /* \"#utility.yul\":6788:6802   */\n      add\n        /* \"#utility.yul\":6773:6802   */\n      swap1\n      pop\n        /* \"#utility.yul\":6639:6808   */\n      swap3\n      swap2\n      pop\n      pop\n      jump\t// out\n        /* \"#utility.yul\":6814:6984   */\n    tag_163:\n        /* \"#utility.yul\":6954:6976   */\n      0x496e76616c69642076657374696e672074797065000000000000000000000000\n        /* \"#utility.yul\":6950:6951   */\n      0x00\n        /* \"#utility.yul\":6942:6948   */\n      dup3\n        /* \"#utility.yul\":6938:6952   */\n      add\n        /* \"#utility.yul\":6931:6977   */\n      mstore\n        /* \"#utility.yul\":6814:6984   */\n      pop\n      jump\t// out\n        /* \"#utility.yul\":6990:7356   */\n    tag_164:\n        /* \"#utility.yul\":7132:7135   */\n      0x00\n        /* \"#utility.yul\":7153:7220   */\n      tag_258\n        /* \"#utility.yul\":7217:7219   */\n      0x14\n        /* \"#utility.yul\":7212:7215   */\n      dup4\n        /* \"#utility.yul\":7153:7220   */\n      tag_162\n      jump\t// in\n    tag_258:\n        /* \"#utility.yul\":7146:7220   */\n      swap2\n      pop\n        /* \"#utility.yul\":7229:7322   */\n      tag_259\n        /* \"#utility.yul\":7318:7321   */\n      dup3\n        /* \"#utility.yul\":7229:7322   */\n      tag_163\n      jump\t// in\n    tag_259:\n        /* \"#utility.yul\":7347:7349   */\n      0x20\n        /* \"#utility.yul\":7342:7345   */\n      dup3\n        /* \"#utility.yul\":7338:7350   */\n      add\n        /* \"#utility.yul\":7331:7350   */\n      swap1\n      pop\n        /* \"#utility.yul\":6990:7356   */\n      swap2\n      swap1\n      pop\n      jump\t// out\n        /* \"#utility.yul\":7362:7781   */\n    tag_102:\n        /* \"#utility.yul\":7528:7532   */\n      0x00\n        /* \"#utility.yul\":7566:7568   */\n      0x20\n        /* \"#utility.yul\":7555:7564   */\n      dup3\n        /* \"#utility.yul\":7551:7569   */\n      add\n        /* \"#utility.yul\":7543:7569   */\n      swap1\n      pop\n        /* \"#utility.yul\":7615:7624   */\n      dup2\n        /* \"#utility.yul\":7609:7613   */\n      dup2\n        /* \"#utility.yul\":7605:7625   */\n      sub\n        /* \"#utility.yul\":7601:7602   */\n      0x00\n        /* \"#utility.yul\":7590:7599   */\n      dup4\n        /* \"#utility.yul\":7586:7603   */\n      add\n        /* \"#utility.yul\":7579:7626   */\n      mstore\n        /* \"#utility.yul\":7643:7774   */\n      tag_261\n        /* \"#utility.yul\":7769:7773   */\n      dup2\n        /* \"#utility.yul\":7643:7774   */\n      tag_164\n      jump\t// in\n    tag_261:\n        /* \"#utility.yul\":7635:7774   */\n      swap1\n      pop\n        /* \"#utility.yul\":7362:7781   */\n      swap2\n      swap1\n      pop\n      jump\t// out\n        /* \"#utility.yul\":7787:7966   */\n    tag_165:\n        /* \"#utility.yul\":7927:7958   */\n      0x4e6f20746f6b656e7320617661696c61626c6520666f7220636c61696d000000\n        /* \"#utility.yul\":7923:7924   */\n      0x00\n        /* \"#utility.yul\":7915:7921   */\n      dup3\n        /* \"#utility.yul\":7911:7925   */\n      add\n        /* \"#utility.yul\":7904:7959   */\n      mstore\n        /* \"#utility.yul\":7787:7966   */\n      pop\n      jump\t// out\n        /* \"#utility.yul\":7972:8338   */\n    tag_166:\n        /* \"#utility.yul\":8114:8117   */\n      0x00\n        /* \"#utility.yul\":8135:8202   */\n      tag_264\n        /* \"#utility.yul\":8199:8201   */\n      0x1d\n        /* \"#utility.yul\":8194:8197   */\n      dup4\n        /* \"#utility.yul\":8135:8202   */\n      tag_162\n      jump\t// in\n    tag_264:\n        /* \"#utility.yul\":8128:8202   */\n      swap2\n      pop\n        /* \"#utility.yul\":8211:8304   */\n      tag_265\n        /* \"#utility.yul\":8300:8303   */\n      dup3\n        /* \"#utility.yul\":8211:8304   */\n      tag_165\n      jump\t// in\n    tag_265:\n        /* \"#utility.yul\":8329:8331   */\n      0x20\n        /* \"#utility.yul\":8324:8327   */\n      dup3\n        /* \"#utility.yul\":8320:8332   */\n      add\n        /* \"#utility.yul\":8313:8332   */\n      swap1\n      pop\n        /* \"#utility.yul\":7972:8338   */\n      swap2\n      swap1\n      pop\n      jump\t// out\n        /* \"#utility.yul\":8344:8763   */\n    tag_108:\n        /* \"#utility.yul\":8510:8514   */\n      0x00\n        /* \"#utility.yul\":8548:8550   */\n      0x20\n        /* \"#utility.yul\":8537:8546   */\n      dup3\n        /* \"#utility.yul\":8533:8551   */\n      add\n        /* \"#utility.yul\":8525:8551   */\n      swap1\n      pop\n        /* \"#utility.yul\":8597:8606   */\n      dup2\n        /* \"#utility.yul\":8591:8595   */\n      dup2\n        /* \"#utility.yul\":8587:8607   */\n      sub\n        /* \"#utility.yul\":8583:8584   */\n      0x00\n        /* \"#utility.yul\":8572:8581   */\n      dup4\n        /* \"#utility.yul\":8568:8585   */\n      add\n        /* \"#utility.yul\":8561:8608   */\n      mstore\n        /* \"#utility.yul\":8625:8756   */\n      tag_267\n        /* \"#utility.yul\":8751:8755   */\n      dup2\n        /* \"#utility.yul\":8625:8756   */\n      tag_166\n      jump\t// in\n    tag_267:\n        /* \"#utility.yul\":8617:8756   */\n      swap1\n      pop\n        /* \"#utility.yul\":8344:8763   */\n      swap2\n      swap1\n      pop\n      jump\t// out\n        /* \"#utility.yul\":8769:8960   */\n    tag_110:\n        /* \"#utility.yul\":8809:8812   */\n      0x00\n        /* \"#utility.yul\":8828:8848   */\n      tag_269\n        /* \"#utility.yul\":8846:8847   */\n      dup3\n        /* \"#utility.yul\":8828:8848   */\n      tag_147\n      jump\t// in\n    tag_269:\n        /* \"#utility.yul\":8823:8848   */\n      swap2\n      pop\n        /* \"#utility.yul\":8862:8882   */\n      tag_270\n        /* \"#utility.yul\":8880:8881   */\n      dup4\n        /* \"#utility.yul\":8862:8882   */\n      tag_147\n      jump\t// in\n    tag_270:\n        /* \"#utility.yul\":8857:8882   */\n      swap3\n      pop\n        /* \"#utility.yul\":8905:8906   */\n      dup3\n        /* \"#utility.yul\":8902:8903   */\n      dup3\n        /* \"#utility.yul\":8898:8907   */\n      add\n        /* \"#utility.yul\":8891:8907   */\n      swap1\n      pop\n        /* \"#utility.yul\":8926:8929   */\n      dup1\n        /* \"#utility.yul\":8923:8924   */\n      dup3\n        /* \"#utility.yul\":8920:8930   */\n      gt\n        /* \"#utility.yul\":8917:8953   */\n      iszero\n      tag_271\n      jumpi\n        /* \"#utility.yul\":8933:8951   */\n      tag_272\n      tag_157\n      jump\t// in\n    tag_272:\n        /* \"#utility.yul\":8917:8953   */\n    tag_271:\n        /* \"#utility.yul\":8769:8960   */\n      swap3\n      swap2\n      pop\n      pop\n      jump\t// out\n        /* \"#utility.yul\":8966:9147   */\n    tag_167:\n        /* \"#utility.yul\":9106:9139   */\n      0x5265656e7472616e637947756172643a207265656e7472616e742063616c6c00\n        /* \"#utility.yul\":9102:9103   */\n      0x00\n        /* \"#utility.yul\":9094:9100   */\n      dup3\n        /* \"#utility.yul\":9090:9104   */\n      add\n        /* \"#utility.yul\":9083:9140   */\n      mstore\n        /* \"#utility.yul\":8966:9147   */\n      pop\n      jump\t// out\n        /* \"#utility.yul\":9153:9519   */\n    tag_168:\n        /* \"#utility.yul\":9295:9298   */\n      0x00\n        /* \"#utility.yul\":9316:9383   */\n      tag_275\n        /* \"#utility.yul\":9380:9382   */\n      0x1f\n        /* \"#utility.yul\":9375:9378   */\n      dup4\n        /* \"#utility.yul\":9316:9383   */\n      tag_162\n      jump\t// in\n    tag_275:\n        /* \"#utility.yul\":9309:9383   */\n      swap2\n      pop\n        /* \"#utility.yul\":9392:9485   */\n      tag_276\n        /* \"#utility.yul\":9481:9484   */\n      dup3\n        /* \"#utility.yul\":9392:9485   */\n      tag_167\n      jump\t// in\n    tag_276:\n        /* \"#utility.yul\":9510:9512   */\n      0x20\n        /* \"#utility.yul\":9505:9508   */\n      dup3\n        /* \"#utility.yul\":9501:9513   */\n      add\n        /* \"#utility.yul\":9494:9513   */\n      swap1\n      pop\n        /* \"#utility.yul\":9153:9519   */\n      swap2\n      swap1\n      pop\n      jump\t// out\n        /* \"#utility.yul\":9525:9944   */\n    tag_129:\n        /* \"#utility.yul\":9691:9695   */\n      0x00\n        /* \"#utility.yul\":9729:9731   */\n      0x20\n        /* \"#utility.yul\":9718:9727   */\n      dup3\n        /* \"#utility.yul\":9714:9732   */\n      add\n        /* \"#utility.yul\":9706:9732   */\n      swap1\n      pop\n        /* \"#utility.yul\":9778:9787   */\n      dup2\n        /* \"#utility.yul\":9772:9776   */\n      dup2\n        /* \"#utility.yul\":9768:9788   */\n      sub\n        /* \"#utility.yul\":9764:9765   */\n      0x00\n        /* \"#utility.yul\":9753:9762   */\n      dup4\n        /* \"#utility.yul\":9749:9766   */\n      add\n        /* \"#utility.yul\":9742:9789   */\n      mstore\n        /* \"#utility.yul\":9806:9937   */\n      tag_278\n        /* \"#utility.yul\":9932:9936   */\n      dup2\n        /* \"#utility.yul\":9806:9937   */\n      tag_168\n      jump\t// in\n    tag_278:\n        /* \"#utility.yul\":9798:9937   */\n      swap1\n      pop\n        /* \"#utility.yul\":9525:9944   */\n      swap2\n      swap1\n      pop\n      jump\t// out\n\n    auxdata: 0xa2646970667358221220c6b6d2760d2262c71324d908ba2634c8dba843ba6a819035e23998657bfb107764736f6c634300081a0033\n}\n",
				"bytecode": {
					"linkReferences": {},
					"object": "608060405234801561000f575f80fd5b5060405161139e38038061139e8339818101604052810190610031919061021e565b335f73ffffffffffffffffffffffffffffffffffffffff168173ffffffffffffffffffffffffffffffffffffffff16036100a2575f6040517f1e4fbdf70000000000000000000000000000000000000000000000000000000081526004016100999190610258565b60405180910390fd5b6100b1816100ff60201b60201c565b50600180819055508060025f6101000a81548173ffffffffffffffffffffffffffffffffffffffff021916908373ffffffffffffffffffffffffffffffffffffffff16021790555050610271565b5f805f9054906101000a900473ffffffffffffffffffffffffffffffffffffffff169050815f806101000a81548173ffffffffffffffffffffffffffffffffffffffff021916908373ffffffffffffffffffffffffffffffffffffffff1602179055508173ffffffffffffffffffffffffffffffffffffffff168173ffffffffffffffffffffffffffffffffffffffff167f8be0079c531659141344cd1fd0a4f28419497f9722a3daafe3b4186f6b6457e060405160405180910390a35050565b5f80fd5b5f73ffffffffffffffffffffffffffffffffffffffff82169050919050565b5f6101ed826101c4565b9050919050565b6101fd816101e3565b8114610207575f80fd5b50565b5f81519050610218816101f4565b92915050565b5f60208284031215610233576102326101c0565b5b5f6102408482850161020a565b91505092915050565b610252816101e3565b82525050565b5f60208201905061026b5f830184610249565b92915050565b6111208061027e5f395ff3fe608060405234801561000f575f80fd5b50600436106100a7575f3560e01c8063ba6a939a1161006f578063ba6a939a14610172578063cb4003aa1461018e578063ecab4afd146101aa578063f2fde38b146101c6578063fc0c546a146101e2578063fe417fa514610200576100a7565b80632b3e8eb3146100ab578063715018a6146100e05780638da5cb5b146100ea5780639669a004146101085780639d30437f1461013d575b5f80fd5b6100c560048036038101906100c09190610c2b565b61021c565b6040516100d796959493929190610c6e565b60405180910390f35b6100e8610254565b005b6100f2610267565b6040516100ff9190610cdc565b60405180910390f35b610122600480360381019061011d9190610c2b565b61028e565b60405161013496959493929190610c6e565b60405180910390f35b61015760048036038101906101529190610c2b565b6102c6565b60405161016996959493929190610c6e565b60405180910390f35b61018c60048036038101906101879190610d1f565b6102fe565b005b6101a860048036038101906101a39190610d1f565b6104d4565b005b6101c460048036038101906101bf9190610d1f565b610599565b005b6101e060048036038101906101db9190610c2b565b61065c565b005b6101ea6106e0565b6040516101f79190610db8565b60405180910390f35b61021a60048036038101906102159190610d1f565b610705565b005b6003602052805f5260405f205f91509050805f0154908060010154908060020154908060030154908060040154908060050154905086565b61025c6109a4565b6102655f610a2b565b565b5f805f9054906101000a900473ffffffffffffffffffffffffffffffffffffffff16905090565b6004602052805f5260405f205f91509050805f0154908060010154908060020154908060030154908060040154908060050154905086565b6005602052805f5260405f205f91509050805f0154908060010154908060020154908060030154908060040154908060050154905086565b6103066109a4565b5f60646019836103169190610dfe565b6103209190610e6c565b90505f818361032f9190610e9c565b90505f806301da9c0090506040518060c001604052804281526020018381526020018281526020018481526020018581526020015f81525060055f8873ffffffffffffffffffffffffffffffffffffffff1673ffffffffffffffffffffffffffffffffffffffff1681526020019081526020015f205f820151815f01556020820151816001015560408201518160020155606082015181600301556080820151816004015560a0820151816005015590505060025f9054906101000a900473ffffffffffffffffffffffffffffffffffffffff1673ffffffffffffffffffffffffffffffffffffffff1663a9059cbb87866040518363ffffffff1660e01b815260040161043d929190610ecf565b6020604051808303815f875af1158015610459573d5f803e3d5ffd5b505050506040513d601f19601f8201168201806040525081019061047d9190610f2b565b508573ffffffffffffffffffffffffffffffffffffffff167f896e034966eaaf1adc54acc0f257056febbd300c9e47182cf761982cf1f5e430856040516104c49190610f56565b60405180910390a2505050505050565b6104dc6109a4565b5f6302c7ea0090505f630784ce0090506040518060c001604052804281526020018381526020018281526020018481526020015f81526020015f81525060035f8673ffffffffffffffffffffffffffffffffffffffff1673ffffffffffffffffffffffffffffffffffffffff1681526020019081526020015f205f820151815f01556020820151816001015560408201518160020155606082015181600301556080820151816004015560a0820151816005015590505050505050565b6105a16109a4565b5f62278d0090505f62ed4e0090506040518060c001604052804281526020018381526020018281526020018481526020015f81526020015f81525060045f8673ffffffffffffffffffffffffffffffffffffffff1673ffffffffffffffffffffffffffffffffffffffff1681526020019081526020015f205f820151815f01556020820151816001015560408201518160020155606082015181600301556080820151816004015560a0820151816005015590505050505050565b6106646109a4565b5f73ffffffffffffffffffffffffffffffffffffffff168173ffffffffffffffffffffffffffffffffffffffff16036106d4575f6040517f1e4fbdf70000000000000000000000000000000000000000000000000000000081526004016106cb9190610cdc565b60405180910390fd5b6106dd81610a2b565b50565b60025f9054906101000a900473ffffffffffffffffffffffffffffffffffffffff1681565b61070d610aec565b5f6001820361075a5760035f8473ffffffffffffffffffffffffffffffffffffffff1673ffffffffffffffffffffffffffffffffffffffff1681526020019081526020015f20905061082f565b600282036107a65760045f8473ffffffffffffffffffffffffffffffffffffffff1673ffffffffffffffffffffffffffffffffffffffff1681526020019081526020015f20905061082e565b600382036107f25760055f8473ffffffffffffffffffffffffffffffffffffffff1673ffffffffffffffffffffffffffffffffffffffff1681526020019081526020015f20905061082d565b6040517f08c379a000000000000000000000000000000000000000000000000000000000815260040161082490610fc9565b60405180910390fd5b5b5b5f61083982610b3b565b90505f82600501548261084c9190610e9c565b90505f8111610890576040517f08c379a000000000000000000000000000000000000000000000000000000000815260040161088790611031565b60405180910390fd5b80836005015f8282546108a3919061104f565b9250508190555060025f9054906101000a900473ffffffffffffffffffffffffffffffffffffffff1673ffffffffffffffffffffffffffffffffffffffff1663a9059cbb86836040518363ffffffff1660e01b8152600401610906929190610ecf565b6020604051808303815f875af1158015610922573d5f803e3d5ffd5b505050506040513d601f19601f820116820180604052508101906109469190610f2b565b508473ffffffffffffffffffffffffffffffffffffffff167f896e034966eaaf1adc54acc0f257056febbd300c9e47182cf761982cf1f5e4308260405161098d9190610f56565b60405180910390a25050506109a0610bbd565b5050565b6109ac610bc6565b73ffffffffffffffffffffffffffffffffffffffff166109ca610267565b73ffffffffffffffffffffffffffffffffffffffff1614610a29576109ed610bc6565b6040517f118cdaa7000000000000000000000000000000000000000000000000000000008152600401610a209190610cdc565b60405180910390fd5b565b5f805f9054906101000a900473ffffffffffffffffffffffffffffffffffffffff169050815f806101000a81548173ffffffffffffffffffffffffffffffffffffffff021916908373ffffffffffffffffffffffffffffffffffffffff1602179055508173ffffffffffffffffffffffffffffffffffffffff168173ffffffffffffffffffffffffffffffffffffffff167f8be0079c531659141344cd1fd0a4f28419497f9722a3daafe3b4186f6b6457e060405160405180910390a35050565b600260015403610b31576040517f08c379a0000000000000000000000000000000000000000000000000000000008152600401610b28906110cc565b60405180910390fd5b6002600181905550565b5f8160010154825f0154610b4f919061104f565b421015610b5e575f9050610bb8565b8160020154825f0154610b71919061104f565b4210610b835781600301549050610bb8565b5f825f015442610b939190610e9c565b90508260020154818460030154610baa9190610dfe565b610bb49190610e6c565b9150505b919050565b60018081905550565b5f33905090565b5f80fd5b5f73ffffffffffffffffffffffffffffffffffffffff82169050919050565b5f610bfa82610bd1565b9050919050565b610c0a81610bf0565b8114610c14575f80fd5b50565b5f81359050610c2581610c01565b92915050565b5f60208284031215610c4057610c3f610bcd565b5b5f610c4d84828501610c17565b91505092915050565b5f819050919050565b610c6881610c56565b82525050565b5f60c082019050610c815f830189610c5f565b610c8e6020830188610c5f565b610c9b6040830187610c5f565b610ca86060830186610c5f565b610cb56080830185610c5f565b610cc260a0830184610c5f565b979650505050505050565b610cd681610bf0565b82525050565b5f602082019050610cef5f830184610ccd565b92915050565b610cfe81610c56565b8114610d08575f80fd5b50565b5f81359050610d1981610cf5565b92915050565b5f8060408385031215610d3557610d34610bcd565b5b5f610d4285828601610c17565b9250506020610d5385828601610d0b565b9150509250929050565b5f819050919050565b5f610d80610d7b610d7684610bd1565b610d5d565b610bd1565b9050919050565b5f610d9182610d66565b9050919050565b5f610da282610d87565b9050919050565b610db281610d98565b82525050565b5f602082019050610dcb5f830184610da9565b92915050565b7f4e487b71000000000000000000000000000000000000000000000000000000005f52601160045260245ffd5b5f610e0882610c56565b9150610e1383610c56565b9250828202610e2181610c56565b91508282048414831517610e3857610e37610dd1565b5b5092915050565b7f4e487b71000000000000000000000000000000000000000000000000000000005f52601260045260245ffd5b5f610e7682610c56565b9150610e8183610c56565b925082610e9157610e90610e3f565b5b828204905092915050565b5f610ea682610c56565b9150610eb183610c56565b9250828203905081811115610ec957610ec8610dd1565b5b92915050565b5f604082019050610ee25f830185610ccd565b610eef6020830184610c5f565b9392505050565b5f8115159050919050565b610f0a81610ef6565b8114610f14575f80fd5b50565b5f81519050610f2581610f01565b92915050565b5f60208284031215610f4057610f3f610bcd565b5b5f610f4d84828501610f17565b91505092915050565b5f602082019050610f695f830184610c5f565b92915050565b5f82825260208201905092915050565b7f496e76616c69642076657374696e6720747970650000000000000000000000005f82015250565b5f610fb3601483610f6f565b9150610fbe82610f7f565b602082019050919050565b5f6020820190508181035f830152610fe081610fa7565b9050919050565b7f4e6f20746f6b656e7320617661696c61626c6520666f7220636c61696d0000005f82015250565b5f61101b601d83610f6f565b915061102682610fe7565b602082019050919050565b5f6020820190508181035f8301526110488161100f565b9050919050565b5f61105982610c56565b915061106483610c56565b925082820190508082111561107c5761107b610dd1565b5b92915050565b7f5265656e7472616e637947756172643a207265656e7472616e742063616c6c005f82015250565b5f6110b6601f83610f6f565b91506110c182611082565b602082019050919050565b5f6020820190508181035f8301526110e3816110aa565b905091905056fea2646970667358221220c6b6d2760d2262c71324d908ba2634c8dba843ba6a819035e23998657bfb107764736f6c634300081a0033",
					"opcodes": "PUSH1 0x80 PUSH1 0x40 MSTORE CALLVALUE DUP1 ISZERO PUSH2 0xF JUMPI PUSH0 DUP1 REVERT JUMPDEST POP PUSH1 0x40 MLOAD PUSH2 0x139E CODESIZE SUB DUP1 PUSH2 0x139E DUP4 CODECOPY DUP2 DUP2 ADD PUSH1 0x40 MSTORE DUP2 ADD SWAP1 PUSH2 0x31 SWAP2 SWAP1 PUSH2 0x21E JUMP JUMPDEST CALLER PUSH0 PUSH20 0xFFFFFFFFFFFFFFFFFFFFFFFFFFFFFFFFFFFFFFFF AND DUP2 PUSH20 0xFFFFFFFFFFFFFFFFFFFFFFFFFFFFFFFFFFFFFFFF AND SUB PUSH2 0xA2 JUMPI PUSH0 PUSH1 0x40 MLOAD PUSH32 0x1E4FBDF700000000000000000000000000000000000000000000000000000000 DUP2 MSTORE PUSH1 0x4 ADD PUSH2 0x99 SWAP2 SWAP1 PUSH2 0x258 JUMP JUMPDEST PUSH1 0x40 MLOAD DUP1 SWAP2 SUB SWAP1 REVERT JUMPDEST PUSH2 0xB1 DUP2 PUSH2 0xFF PUSH1 0x20 SHL PUSH1 0x20 SHR JUMP JUMPDEST POP PUSH1 0x1 DUP1 DUP2 SWAP1 SSTORE POP DUP1 PUSH1 0x2 PUSH0 PUSH2 0x100 EXP DUP2 SLOAD DUP2 PUSH20 0xFFFFFFFFFFFFFFFFFFFFFFFFFFFFFFFFFFFFFFFF MUL NOT AND SWAP1 DUP4 PUSH20 0xFFFFFFFFFFFFFFFFFFFFFFFFFFFFFFFFFFFFFFFF AND MUL OR SWAP1 SSTORE POP POP PUSH2 0x271 JUMP JUMPDEST PUSH0 DUP1 PUSH0 SWAP1 SLOAD SWAP1 PUSH2 0x100 EXP SWAP1 DIV PUSH20 0xFFFFFFFFFFFFFFFFFFFFFFFFFFFFFFFFFFFFFFFF AND SWAP1 POP DUP2 PUSH0 DUP1 PUSH2 0x100 EXP DUP2 SLOAD DUP2 PUSH20 0xFFFFFFFFFFFFFFFFFFFFFFFFFFFFFFFFFFFFFFFF MUL NOT AND SWAP1 DUP4 PUSH20 0xFFFFFFFFFFFFFFFFFFFFFFFFFFFFFFFFFFFFFFFF AND MUL OR SWAP1 SSTORE POP DUP2 PUSH20 0xFFFFFFFFFFFFFFFFFFFFFFFFFFFFFFFFFFFFFFFF AND DUP2 PUSH20 0xFFFFFFFFFFFFFFFFFFFFFFFFFFFFFFFFFFFFFFFF AND PUSH32 0x8BE0079C531659141344CD1FD0A4F28419497F9722A3DAAFE3B4186F6B6457E0 PUSH1 0x40 MLOAD PUSH1 0x40 MLOAD DUP1 SWAP2 SUB SWAP1 LOG3 POP POP JUMP JUMPDEST PUSH0 DUP1 REVERT JUMPDEST PUSH0 PUSH20 0xFFFFFFFFFFFFFFFFFFFFFFFFFFFFFFFFFFFFFFFF DUP3 AND SWAP1 POP SWAP2 SWAP1 POP JUMP JUMPDEST PUSH0 PUSH2 0x1ED DUP3 PUSH2 0x1C4 JUMP JUMPDEST SWAP1 POP SWAP2 SWAP1 POP JUMP JUMPDEST PUSH2 0x1FD DUP2 PUSH2 0x1E3 JUMP JUMPDEST DUP2 EQ PUSH2 0x207 JUMPI PUSH0 DUP1 REVERT JUMPDEST POP JUMP JUMPDEST PUSH0 DUP2 MLOAD SWAP1 POP PUSH2 0x218 DUP2 PUSH2 0x1F4 JUMP JUMPDEST SWAP3 SWAP2 POP POP JUMP JUMPDEST PUSH0 PUSH1 0x20 DUP3 DUP5 SUB SLT ISZERO PUSH2 0x233 JUMPI PUSH2 0x232 PUSH2 0x1C0 JUMP JUMPDEST JUMPDEST PUSH0 PUSH2 0x240 DUP5 DUP3 DUP6 ADD PUSH2 0x20A JUMP JUMPDEST SWAP2 POP POP SWAP3 SWAP2 POP POP JUMP JUMPDEST PUSH2 0x252 DUP2 PUSH2 0x1E3 JUMP JUMPDEST DUP3 MSTORE POP POP JUMP JUMPDEST PUSH0 PUSH1 0x20 DUP3 ADD SWAP1 POP PUSH2 0x26B PUSH0 DUP4 ADD DUP5 PUSH2 0x249 JUMP JUMPDEST SWAP3 SWAP2 POP POP JUMP JUMPDEST PUSH2 0x1120 DUP1 PUSH2 0x27E PUSH0 CODECOPY PUSH0 RETURN INVALID PUSH1 0x80 PUSH1 0x40 MSTORE CALLVALUE DUP1 ISZERO PUSH2 0xF JUMPI PUSH0 DUP1 REVERT JUMPDEST POP PUSH1 0x4 CALLDATASIZE LT PUSH2 0xA7 JUMPI PUSH0 CALLDATALOAD PUSH1 0xE0 SHR DUP1 PUSH4 0xBA6A939A GT PUSH2 0x6F JUMPI DUP1 PUSH4 0xBA6A939A EQ PUSH2 0x172 JUMPI DUP1 PUSH4 0xCB4003AA EQ PUSH2 0x18E JUMPI DUP1 PUSH4 0xECAB4AFD EQ PUSH2 0x1AA JUMPI DUP1 PUSH4 0xF2FDE38B EQ PUSH2 0x1C6 JUMPI DUP1 PUSH4 0xFC0C546A EQ PUSH2 0x1E2 JUMPI DUP1 PUSH4 0xFE417FA5 EQ PUSH2 0x200 JUMPI PUSH2 0xA7 JUMP JUMPDEST DUP1 PUSH4 0x2B3E8EB3 EQ PUSH2 0xAB JUMPI DUP1 PUSH4 0x715018A6 EQ PUSH2 0xE0 JUMPI DUP1 PUSH4 0x8DA5CB5B EQ PUSH2 0xEA JUMPI DUP1 PUSH4 0x9669A004 EQ PUSH2 0x108 JUMPI DUP1 PUSH4 0x9D30437F EQ PUSH2 0x13D JUMPI JUMPDEST PUSH0 DUP1 REVERT JUMPDEST PUSH2 0xC5 PUSH1 0x4 DUP1 CALLDATASIZE SUB DUP2 ADD SWAP1 PUSH2 0xC0 SWAP2 SWAP1 PUSH2 0xC2B JUMP JUMPDEST PUSH2 0x21C JUMP JUMPDEST PUSH1 0x40 MLOAD PUSH2 0xD7 SWAP7 SWAP6 SWAP5 SWAP4 SWAP3 SWAP2 SWAP1 PUSH2 0xC6E JUMP JUMPDEST PUSH1 0x40 MLOAD DUP1 SWAP2 SUB SWAP1 RETURN JUMPDEST PUSH2 0xE8 PUSH2 0x254 JUMP JUMPDEST STOP JUMPDEST PUSH2 0xF2 PUSH2 0x267 JUMP JUMPDEST PUSH1 0x40 MLOAD PUSH2 0xFF SWAP2 SWAP1 PUSH2 0xCDC JUMP JUMPDEST PUSH1 0x40 MLOAD DUP1 SWAP2 SUB SWAP1 RETURN JUMPDEST PUSH2 0x122 PUSH1 0x4 DUP1 CALLDATASIZE SUB DUP2 ADD SWAP1 PUSH2 0x11D SWAP2 SWAP1 PUSH2 0xC2B JUMP JUMPDEST PUSH2 0x28E JUMP JUMPDEST PUSH1 0x40 MLOAD PUSH2 0x134 SWAP7 SWAP6 SWAP5 SWAP4 SWAP3 SWAP2 SWAP1 PUSH2 0xC6E JUMP JUMPDEST PUSH1 0x40 MLOAD DUP1 SWAP2 SUB SWAP1 RETURN JUMPDEST PUSH2 0x157 PUSH1 0x4 DUP1 CALLDATASIZE SUB DUP2 ADD SWAP1 PUSH2 0x152 SWAP2 SWAP1 PUSH2 0xC2B JUMP JUMPDEST PUSH2 0x2C6 JUMP JUMPDEST PUSH1 0x40 MLOAD PUSH2 0x169 SWAP7 SWAP6 SWAP5 SWAP4 SWAP3 SWAP2 SWAP1 PUSH2 0xC6E JUMP JUMPDEST PUSH1 0x40 MLOAD DUP1 SWAP2 SUB SWAP1 RETURN JUMPDEST PUSH2 0x18C PUSH1 0x4 DUP1 CALLDATASIZE SUB DUP2 ADD SWAP1 PUSH2 0x187 SWAP2 SWAP1 PUSH2 0xD1F JUMP JUMPDEST PUSH2 0x2FE JUMP JUMPDEST STOP JUMPDEST PUSH2 0x1A8 PUSH1 0x4 DUP1 CALLDATASIZE SUB DUP2 ADD SWAP1 PUSH2 0x1A3 SWAP2 SWAP1 PUSH2 0xD1F JUMP JUMPDEST PUSH2 0x4D4 JUMP JUMPDEST STOP JUMPDEST PUSH2 0x1C4 PUSH1 0x4 DUP1 CALLDATASIZE SUB DUP2 ADD SWAP1 PUSH2 0x1BF SWAP2 SWAP1 PUSH2 0xD1F JUMP JUMPDEST PUSH2 0x599 JUMP JUMPDEST STOP JUMPDEST PUSH2 0x1E0 PUSH1 0x4 DUP1 CALLDATASIZE SUB DUP2 ADD SWAP1 PUSH2 0x1DB SWAP2 SWAP1 PUSH2 0xC2B JUMP JUMPDEST PUSH2 0x65C JUMP JUMPDEST STOP JUMPDEST PUSH2 0x1EA PUSH2 0x6E0 JUMP JUMPDEST PUSH1 0x40 MLOAD PUSH2 0x1F7 SWAP2 SWAP1 PUSH2 0xDB8 JUMP JUMPDEST PUSH1 0x40 MLOAD DUP1 SWAP2 SUB SWAP1 RETURN JUMPDEST PUSH2 0x21A PUSH1 0x4 DUP1 CALLDATASIZE SUB DUP2 ADD SWAP1 PUSH2 0x215 SWAP2 SWAP1 PUSH2 0xD1F JUMP JUMPDEST PUSH2 0x705 JUMP JUMPDEST STOP JUMPDEST PUSH1 0x3 PUSH1 0x20 MSTORE DUP1 PUSH0 MSTORE PUSH1 0x40 PUSH0 KECCAK256 PUSH0 SWAP2 POP SWAP1 POP DUP1 PUSH0 ADD SLOAD SWAP1 DUP1 PUSH1 0x1 ADD SLOAD SWAP1 DUP1 PUSH1 0x2 ADD SLOAD SWAP1 DUP1 PUSH1 0x3 ADD SLOAD SWAP1 DUP1 PUSH1 0x4 ADD SLOAD SWAP1 DUP1 PUSH1 0x5 ADD SLOAD SWAP1 POP DUP7 JUMP JUMPDEST PUSH2 0x25C PUSH2 0x9A4 JUMP JUMPDEST PUSH2 0x265 PUSH0 PUSH2 0xA2B JUMP JUMPDEST JUMP JUMPDEST PUSH0 DUP1 PUSH0 SWAP1 SLOAD SWAP1 PUSH2 0x100 EXP SWAP1 DIV PUSH20 0xFFFFFFFFFFFFFFFFFFFFFFFFFFFFFFFFFFFFFFFF AND SWAP1 POP SWAP1 JUMP JUMPDEST PUSH1 0x4 PUSH1 0x20 MSTORE DUP1 PUSH0 MSTORE PUSH1 0x40 PUSH0 KECCAK256 PUSH0 SWAP2 POP SWAP1 POP DUP1 PUSH0 ADD SLOAD SWAP1 DUP1 PUSH1 0x1 ADD SLOAD SWAP1 DUP1 PUSH1 0x2 ADD SLOAD SWAP1 DUP1 PUSH1 0x3 ADD SLOAD SWAP1 DUP1 PUSH1 0x4 ADD SLOAD SWAP1 DUP1 PUSH1 0x5 ADD SLOAD SWAP1 POP DUP7 JUMP JUMPDEST PUSH1 0x5 PUSH1 0x20 MSTORE DUP1 PUSH0 MSTORE PUSH1 0x40 PUSH0 KECCAK256 PUSH0 SWAP2 POP SWAP1 POP DUP1 PUSH0 ADD SLOAD SWAP1 DUP1 PUSH1 0x1 ADD SLOAD SWAP1 DUP1 PUSH1 0x2 ADD SLOAD SWAP1 DUP1 PUSH1 0x3 ADD SLOAD SWAP1 DUP1 PUSH1 0x4 ADD SLOAD SWAP1 DUP1 PUSH1 0x5 ADD SLOAD SWAP1 POP DUP7 JUMP JUMPDEST PUSH2 0x306 PUSH2 0x9A4 JUMP JUMPDEST PUSH0 PUSH1 0x64 PUSH1 0x19 DUP4 PUSH2 0x316 SWAP2 SWAP1 PUSH2 0xDFE JUMP JUMPDEST PUSH2 0x320 SWAP2 SWAP1 PUSH2 0xE6C JUMP JUMPDEST SWAP1 POP PUSH0 DUP2 DUP4 PUSH2 0x32F SWAP2 SWAP1 PUSH2 0xE9C JUMP JUMPDEST SWAP1 POP PUSH0 DUP1 PUSH4 0x1DA9C00 SWAP1 POP PUSH1 0x40 MLOAD DUP1 PUSH1 0xC0 ADD PUSH1 0x40 MSTORE DUP1 TIMESTAMP DUP2 MSTORE PUSH1 0x20 ADD DUP4 DUP2 MSTORE PUSH1 0x20 ADD DUP3 DUP2 MSTORE PUSH1 0x20 ADD DUP5 DUP2 MSTORE PUSH1 0x20 ADD DUP6 DUP2 MSTORE PUSH1 0x20 ADD PUSH0 DUP2 MSTORE POP PUSH1 0x5 PUSH0 DUP9 PUSH20 0xFFFFFFFFFFFFFFFFFFFFFFFFFFFFFFFFFFFFFFFF AND PUSH20 0xFFFFFFFFFFFFFFFFFFFFFFFFFFFFFFFFFFFFFFFF AND DUP2 MSTORE PUSH1 0x20 ADD SWAP1 DUP2 MSTORE PUSH1 0x20 ADD PUSH0 KECCAK256 PUSH0 DUP3 ADD MLOAD DUP2 PUSH0 ADD SSTORE PUSH1 0x20 DUP3 ADD MLOAD DUP2 PUSH1 0x1 ADD SSTORE PUSH1 0x40 DUP3 ADD MLOAD DUP2 PUSH1 0x2 ADD SSTORE PUSH1 0x60 DUP3 ADD MLOAD DUP2 PUSH1 0x3 ADD SSTORE PUSH1 0x80 DUP3 ADD MLOAD DUP2 PUSH1 0x4 ADD SSTORE PUSH1 0xA0 DUP3 ADD MLOAD DUP2 PUSH1 0x5 ADD SSTORE SWAP1 POP POP PUSH1 0x2 PUSH0 SWAP1 SLOAD SWAP1 PUSH2 0x100 EXP SWAP1 DIV PUSH20 0xFFFFFFFFFFFFFFFFFFFFFFFFFFFFFFFFFFFFFFFF AND PUSH20 0xFFFFFFFFFFFFFFFFFFFFFFFFFFFFFFFFFFFFFFFF AND PUSH4 0xA9059CBB DUP8 DUP7 PUSH1 0x40 MLOAD DUP4 PUSH4 0xFFFFFFFF AND PUSH1 0xE0 SHL DUP2 MSTORE PUSH1 0x4 ADD PUSH2 0x43D SWAP3 SWAP2 SWAP1 PUSH2 0xECF JUMP JUMPDEST PUSH1 0x20 PUSH1 0x40 MLOAD DUP1 DUP4 SUB DUP2 PUSH0 DUP8 GAS CALL ISZERO DUP1 ISZERO PUSH2 0x459 JUMPI RETURNDATASIZE PUSH0 DUP1 RETURNDATACOPY RETURNDATASIZE PUSH0 REVERT JUMPDEST POP POP POP POP PUSH1 0x40 MLOAD RETURNDATASIZE PUSH1 0x1F NOT PUSH1 0x1F DUP3 ADD AND DUP3 ADD DUP1 PUSH1 0x40 MSTORE POP DUP2 ADD SWAP1 PUSH2 0x47D SWAP2 SWAP1 PUSH2 0xF2B JUMP JUMPDEST POP DUP6 PUSH20 0xFFFFFFFFFFFFFFFFFFFFFFFFFFFFFFFFFFFFFFFF AND PUSH32 0x896E034966EAAF1ADC54ACC0F257056FEBBD300C9E47182CF761982CF1F5E430 DUP6 PUSH1 0x40 MLOAD PUSH2 0x4C4 SWAP2 SWAP1 PUSH2 0xF56 JUMP JUMPDEST PUSH1 0x40 MLOAD DUP1 SWAP2 SUB SWAP1 LOG2 POP POP POP POP POP POP JUMP JUMPDEST PUSH2 0x4DC PUSH2 0x9A4 JUMP JUMPDEST PUSH0 PUSH4 0x2C7EA00 SWAP1 POP PUSH0 PUSH4 0x784CE00 SWAP1 POP PUSH1 0x40 MLOAD DUP1 PUSH1 0xC0 ADD PUSH1 0x40 MSTORE DUP1 TIMESTAMP DUP2 MSTORE PUSH1 0x20 ADD DUP4 DUP2 MSTORE PUSH1 0x20 ADD DUP3 DUP2 MSTORE PUSH1 0x20 ADD DUP5 DUP2 MSTORE PUSH1 0x20 ADD PUSH0 DUP2 MSTORE PUSH1 0x20 ADD PUSH0 DUP2 MSTORE POP PUSH1 0x3 PUSH0 DUP7 PUSH20 0xFFFFFFFFFFFFFFFFFFFFFFFFFFFFFFFFFFFFFFFF AND PUSH20 0xFFFFFFFFFFFFFFFFFFFFFFFFFFFFFFFFFFFFFFFF AND DUP2 MSTORE PUSH1 0x20 ADD SWAP1 DUP2 MSTORE PUSH1 0x20 ADD PUSH0 KECCAK256 PUSH0 DUP3 ADD MLOAD DUP2 PUSH0 ADD SSTORE PUSH1 0x20 DUP3 ADD MLOAD DUP2 PUSH1 0x1 ADD SSTORE PUSH1 0x40 DUP3 ADD MLOAD DUP2 PUSH1 0x2 ADD SSTORE PUSH1 0x60 DUP3 ADD MLOAD DUP2 PUSH1 0x3 ADD SSTORE PUSH1 0x80 DUP3 ADD MLOAD DUP2 PUSH1 0x4 ADD SSTORE PUSH1 0xA0 DUP3 ADD MLOAD DUP2 PUSH1 0x5 ADD SSTORE SWAP1 POP POP POP POP POP POP JUMP JUMPDEST PUSH2 0x5A1 PUSH2 0x9A4 JUMP JUMPDEST PUSH0 PUSH3 0x278D00 SWAP1 POP PUSH0 PUSH3 0xED4E00 SWAP1 POP PUSH1 0x40 MLOAD DUP1 PUSH1 0xC0 ADD PUSH1 0x40 MSTORE DUP1 TIMESTAMP DUP2 MSTORE PUSH1 0x20 ADD DUP4 DUP2 MSTORE PUSH1 0x20 ADD DUP3 DUP2 MSTORE PUSH1 0x20 ADD DUP5 DUP2 MSTORE PUSH1 0x20 ADD PUSH0 DUP2 MSTORE PUSH1 0x20 ADD PUSH0 DUP2 MSTORE POP PUSH1 0x4 PUSH0 DUP7 PUSH20 0xFFFFFFFFFFFFFFFFFFFFFFFFFFFFFFFFFFFFFFFF AND PUSH20 0xFFFFFFFFFFFFFFFFFFFFFFFFFFFFFFFFFFFFFFFF AND DUP2 MSTORE PUSH1 0x20 ADD SWAP1 DUP2 MSTORE PUSH1 0x20 ADD PUSH0 KECCAK256 PUSH0 DUP3 ADD MLOAD DUP2 PUSH0 ADD SSTORE PUSH1 0x20 DUP3 ADD MLOAD DUP2 PUSH1 0x1 ADD SSTORE PUSH1 0x40 DUP3 ADD MLOAD DUP2 PUSH1 0x2 ADD SSTORE PUSH1 0x60 DUP3 ADD MLOAD DUP2 PUSH1 0x3 ADD SSTORE PUSH1 0x80 DUP3 ADD MLOAD DUP2 PUSH1 0x4 ADD SSTORE PUSH1 0xA0 DUP3 ADD MLOAD DUP2 PUSH1 0x5 ADD SSTORE SWAP1 POP POP POP POP POP POP JUMP JUMPDEST PUSH2 0x664 PUSH2 0x9A4 JUMP JUMPDEST PUSH0 PUSH20 0xFFFFFFFFFFFFFFFFFFFFFFFFFFFFFFFFFFFFFFFF AND DUP2 PUSH20 0xFFFFFFFFFFFFFFFFFFFFFFFFFFFFFFFFFFFFFFFF AND SUB PUSH2 0x6D4 JUMPI PUSH0 PUSH1 0x40 MLOAD PUSH32 0x1E4FBDF700000000000000000000000000000000000000000000000000000000 DUP2 MSTORE PUSH1 0x4 ADD PUSH2 0x6CB SWAP2 SWAP1 PUSH2 0xCDC JUMP JUMPDEST PUSH1 0x40 MLOAD DUP1 SWAP2 SUB SWAP1 REVERT JUMPDEST PUSH2 0x6DD DUP2 PUSH2 0xA2B JUMP JUMPDEST POP JUMP JUMPDEST PUSH1 0x2 PUSH0 SWAP1 SLOAD SWAP1 PUSH2 0x100 EXP SWAP1 DIV PUSH20 0xFFFFFFFFFFFFFFFFFFFFFFFFFFFFFFFFFFFFFFFF AND DUP2 JUMP JUMPDEST PUSH2 0x70D PUSH2 0xAEC JUMP JUMPDEST PUSH0 PUSH1 0x1 DUP3 SUB PUSH2 0x75A JUMPI PUSH1 0x3 PUSH0 DUP5 PUSH20 0xFFFFFFFFFFFFFFFFFFFFFFFFFFFFFFFFFFFFFFFF AND PUSH20 0xFFFFFFFFFFFFFFFFFFFFFFFFFFFFFFFFFFFFFFFF AND DUP2 MSTORE PUSH1 0x20 ADD SWAP1 DUP2 MSTORE PUSH1 0x20 ADD PUSH0 KECCAK256 SWAP1 POP PUSH2 0x82F JUMP JUMPDEST PUSH1 0x2 DUP3 SUB PUSH2 0x7A6 JUMPI PUSH1 0x4 PUSH0 DUP5 PUSH20 0xFFFFFFFFFFFFFFFFFFFFFFFFFFFFFFFFFFFFFFFF AND PUSH20 0xFFFFFFFFFFFFFFFFFFFFFFFFFFFFFFFFFFFFFFFF AND DUP2 MSTORE PUSH1 0x20 ADD SWAP1 DUP2 MSTORE PUSH1 0x20 ADD PUSH0 KECCAK256 SWAP1 POP PUSH2 0x82E JUMP JUMPDEST PUSH1 0x3 DUP3 SUB PUSH2 0x7F2 JUMPI PUSH1 0x5 PUSH0 DUP5 PUSH20 0xFFFFFFFFFFFFFFFFFFFFFFFFFFFFFFFFFFFFFFFF AND PUSH20 0xFFFFFFFFFFFFFFFFFFFFFFFFFFFFFFFFFFFFFFFF AND DUP2 MSTORE PUSH1 0x20 ADD SWAP1 DUP2 MSTORE PUSH1 0x20 ADD PUSH0 KECCAK256 SWAP1 POP PUSH2 0x82D JUMP JUMPDEST PUSH1 0x40 MLOAD PUSH32 0x8C379A000000000000000000000000000000000000000000000000000000000 DUP2 MSTORE PUSH1 0x4 ADD PUSH2 0x824 SWAP1 PUSH2 0xFC9 JUMP JUMPDEST PUSH1 0x40 MLOAD DUP1 SWAP2 SUB SWAP1 REVERT JUMPDEST JUMPDEST JUMPDEST PUSH0 PUSH2 0x839 DUP3 PUSH2 0xB3B JUMP JUMPDEST SWAP1 POP PUSH0 DUP3 PUSH1 0x5 ADD SLOAD DUP3 PUSH2 0x84C SWAP2 SWAP1 PUSH2 0xE9C JUMP JUMPDEST SWAP1 POP PUSH0 DUP2 GT PUSH2 0x890 JUMPI PUSH1 0x40 MLOAD PUSH32 0x8C379A000000000000000000000000000000000000000000000000000000000 DUP2 MSTORE PUSH1 0x4 ADD PUSH2 0x887 SWAP1 PUSH2 0x1031 JUMP JUMPDEST PUSH1 0x40 MLOAD DUP1 SWAP2 SUB SWAP1 REVERT JUMPDEST DUP1 DUP4 PUSH1 0x5 ADD PUSH0 DUP3 DUP3 SLOAD PUSH2 0x8A3 SWAP2 SWAP1 PUSH2 0x104F JUMP JUMPDEST SWAP3 POP POP DUP2 SWAP1 SSTORE POP PUSH1 0x2 PUSH0 SWAP1 SLOAD SWAP1 PUSH2 0x100 EXP SWAP1 DIV PUSH20 0xFFFFFFFFFFFFFFFFFFFFFFFFFFFFFFFFFFFFFFFF AND PUSH20 0xFFFFFFFFFFFFFFFFFFFFFFFFFFFFFFFFFFFFFFFF AND PUSH4 0xA9059CBB DUP7 DUP4 PUSH1 0x40 MLOAD DUP4 PUSH4 0xFFFFFFFF AND PUSH1 0xE0 SHL DUP2 MSTORE PUSH1 0x4 ADD PUSH2 0x906 SWAP3 SWAP2 SWAP1 PUSH2 0xECF JUMP JUMPDEST PUSH1 0x20 PUSH1 0x40 MLOAD DUP1 DUP4 SUB DUP2 PUSH0 DUP8 GAS CALL ISZERO DUP1 ISZERO PUSH2 0x922 JUMPI RETURNDATASIZE PUSH0 DUP1 RETURNDATACOPY RETURNDATASIZE PUSH0 REVERT JUMPDEST POP POP POP POP PUSH1 0x40 MLOAD RETURNDATASIZE PUSH1 0x1F NOT PUSH1 0x1F DUP3 ADD AND DUP3 ADD DUP1 PUSH1 0x40 MSTORE POP DUP2 ADD SWAP1 PUSH2 0x946 SWAP2 SWAP1 PUSH2 0xF2B JUMP JUMPDEST POP DUP5 PUSH20 0xFFFFFFFFFFFFFFFFFFFFFFFFFFFFFFFFFFFFFFFF AND PUSH32 0x896E034966EAAF1ADC54ACC0F257056FEBBD300C9E47182CF761982CF1F5E430 DUP3 PUSH1 0x40 MLOAD PUSH2 0x98D SWAP2 SWAP1 PUSH2 0xF56 JUMP JUMPDEST PUSH1 0x40 MLOAD DUP1 SWAP2 SUB SWAP1 LOG2 POP POP POP PUSH2 0x9A0 PUSH2 0xBBD JUMP JUMPDEST POP POP JUMP JUMPDEST PUSH2 0x9AC PUSH2 0xBC6 JUMP JUMPDEST PUSH20 0xFFFFFFFFFFFFFFFFFFFFFFFFFFFFFFFFFFFFFFFF AND PUSH2 0x9CA PUSH2 0x267 JUMP JUMPDEST PUSH20 0xFFFFFFFFFFFFFFFFFFFFFFFFFFFFFFFFFFFFFFFF AND EQ PUSH2 0xA29 JUMPI PUSH2 0x9ED PUSH2 0xBC6 JUMP JUMPDEST PUSH1 0x40 MLOAD PUSH32 0x118CDAA700000000000000000000000000000000000000000000000000000000 DUP2 MSTORE PUSH1 0x4 ADD PUSH2 0xA20 SWAP2 SWAP1 PUSH2 0xCDC JUMP JUMPDEST PUSH1 0x40 MLOAD DUP1 SWAP2 SUB SWAP1 REVERT JUMPDEST JUMP JUMPDEST PUSH0 DUP1 PUSH0 SWAP1 SLOAD SWAP1 PUSH2 0x100 EXP SWAP1 DIV PUSH20 0xFFFFFFFFFFFFFFFFFFFFFFFFFFFFFFFFFFFFFFFF AND SWAP1 POP DUP2 PUSH0 DUP1 PUSH2 0x100 EXP DUP2 SLOAD DUP2 PUSH20 0xFFFFFFFFFFFFFFFFFFFFFFFFFFFFFFFFFFFFFFFF MUL NOT AND SWAP1 DUP4 PUSH20 0xFFFFFFFFFFFFFFFFFFFFFFFFFFFFFFFFFFFFFFFF AND MUL OR SWAP1 SSTORE POP DUP2 PUSH20 0xFFFFFFFFFFFFFFFFFFFFFFFFFFFFFFFFFFFFFFFF AND DUP2 PUSH20 0xFFFFFFFFFFFFFFFFFFFFFFFFFFFFFFFFFFFFFFFF AND PUSH32 0x8BE0079C531659141344CD1FD0A4F28419497F9722A3DAAFE3B4186F6B6457E0 PUSH1 0x40 MLOAD PUSH1 0x40 MLOAD DUP1 SWAP2 SUB SWAP1 LOG3 POP POP JUMP JUMPDEST PUSH1 0x2 PUSH1 0x1 SLOAD SUB PUSH2 0xB31 JUMPI PUSH1 0x40 MLOAD PUSH32 0x8C379A000000000000000000000000000000000000000000000000000000000 DUP2 MSTORE PUSH1 0x4 ADD PUSH2 0xB28 SWAP1 PUSH2 0x10CC JUMP JUMPDEST PUSH1 0x40 MLOAD DUP1 SWAP2 SUB SWAP1 REVERT JUMPDEST PUSH1 0x2 PUSH1 0x1 DUP2 SWAP1 SSTORE POP JUMP JUMPDEST PUSH0 DUP2 PUSH1 0x1 ADD SLOAD DUP3 PUSH0 ADD SLOAD PUSH2 0xB4F SWAP2 SWAP1 PUSH2 0x104F JUMP JUMPDEST TIMESTAMP LT ISZERO PUSH2 0xB5E JUMPI PUSH0 SWAP1 POP PUSH2 0xBB8 JUMP JUMPDEST DUP2 PUSH1 0x2 ADD SLOAD DUP3 PUSH0 ADD SLOAD PUSH2 0xB71 SWAP2 SWAP1 PUSH2 0x104F JUMP JUMPDEST TIMESTAMP LT PUSH2 0xB83 JUMPI DUP2 PUSH1 0x3 ADD SLOAD SWAP1 POP PUSH2 0xBB8 JUMP JUMPDEST PUSH0 DUP3 PUSH0 ADD SLOAD TIMESTAMP PUSH2 0xB93 SWAP2 SWAP1 PUSH2 0xE9C JUMP JUMPDEST SWAP1 POP DUP3 PUSH1 0x2 ADD SLOAD DUP2 DUP5 PUSH1 0x3 ADD SLOAD PUSH2 0xBAA SWAP2 SWAP1 PUSH2 0xDFE JUMP JUMPDEST PUSH2 0xBB4 SWAP2 SWAP1 PUSH2 0xE6C JUMP JUMPDEST SWAP2 POP POP JUMPDEST SWAP2 SWAP1 POP JUMP JUMPDEST PUSH1 0x1 DUP1 DUP2 SWAP1 SSTORE POP JUMP JUMPDEST PUSH0 CALLER SWAP1 POP SWAP1 JUMP JUMPDEST PUSH0 DUP1 REVERT JUMPDEST PUSH0 PUSH20 0xFFFFFFFFFFFFFFFFFFFFFFFFFFFFFFFFFFFFFFFF DUP3 AND SWAP1 POP SWAP2 SWAP1 POP JUMP JUMPDEST PUSH0 PUSH2 0xBFA DUP3 PUSH2 0xBD1 JUMP JUMPDEST SWAP1 POP SWAP2 SWAP1 POP JUMP JUMPDEST PUSH2 0xC0A DUP2 PUSH2 0xBF0 JUMP JUMPDEST DUP2 EQ PUSH2 0xC14 JUMPI PUSH0 DUP1 REVERT JUMPDEST POP JUMP JUMPDEST PUSH0 DUP2 CALLDATALOAD SWAP1 POP PUSH2 0xC25 DUP2 PUSH2 0xC01 JUMP JUMPDEST SWAP3 SWAP2 POP POP JUMP JUMPDEST PUSH0 PUSH1 0x20 DUP3 DUP5 SUB SLT ISZERO PUSH2 0xC40 JUMPI PUSH2 0xC3F PUSH2 0xBCD JUMP JUMPDEST JUMPDEST PUSH0 PUSH2 0xC4D DUP5 DUP3 DUP6 ADD PUSH2 0xC17 JUMP JUMPDEST SWAP2 POP POP SWAP3 SWAP2 POP POP JUMP JUMPDEST PUSH0 DUP2 SWAP1 POP SWAP2 SWAP1 POP JUMP JUMPDEST PUSH2 0xC68 DUP2 PUSH2 0xC56 JUMP JUMPDEST DUP3 MSTORE POP POP JUMP JUMPDEST PUSH0 PUSH1 0xC0 DUP3 ADD SWAP1 POP PUSH2 0xC81 PUSH0 DUP4 ADD DUP10 PUSH2 0xC5F JUMP JUMPDEST PUSH2 0xC8E PUSH1 0x20 DUP4 ADD DUP9 PUSH2 0xC5F JUMP JUMPDEST PUSH2 0xC9B PUSH1 0x40 DUP4 ADD DUP8 PUSH2 0xC5F JUMP JUMPDEST PUSH2 0xCA8 PUSH1 0x60 DUP4 ADD DUP7 PUSH2 0xC5F JUMP JUMPDEST PUSH2 0xCB5 PUSH1 0x80 DUP4 ADD DUP6 PUSH2 0xC5F JUMP JUMPDEST PUSH2 0xCC2 PUSH1 0xA0 DUP4 ADD DUP5 PUSH2 0xC5F JUMP JUMPDEST SWAP8 SWAP7 POP POP POP POP POP POP POP JUMP JUMPDEST PUSH2 0xCD6 DUP2 PUSH2 0xBF0 JUMP JUMPDEST DUP3 MSTORE POP POP JUMP JUMPDEST PUSH0 PUSH1 0x20 DUP3 ADD SWAP1 POP PUSH2 0xCEF PUSH0 DUP4 ADD DUP5 PUSH2 0xCCD JUMP JUMPDEST SWAP3 SWAP2 POP POP JUMP JUMPDEST PUSH2 0xCFE DUP2 PUSH2 0xC56 JUMP JUMPDEST DUP2 EQ PUSH2 0xD08 JUMPI PUSH0 DUP1 REVERT JUMPDEST POP JUMP JUMPDEST PUSH0 DUP2 CALLDATALOAD SWAP1 POP PUSH2 0xD19 DUP2 PUSH2 0xCF5 JUMP JUMPDEST SWAP3 SWAP2 POP POP JUMP JUMPDEST PUSH0 DUP1 PUSH1 0x40 DUP4 DUP6 SUB SLT ISZERO PUSH2 0xD35 JUMPI PUSH2 0xD34 PUSH2 0xBCD JUMP JUMPDEST JUMPDEST PUSH0 PUSH2 0xD42 DUP6 DUP3 DUP7 ADD PUSH2 0xC17 JUMP JUMPDEST SWAP3 POP POP PUSH1 0x20 PUSH2 0xD53 DUP6 DUP3 DUP7 ADD PUSH2 0xD0B JUMP JUMPDEST SWAP2 POP POP SWAP3 POP SWAP3 SWAP1 POP JUMP JUMPDEST PUSH0 DUP2 SWAP1 POP SWAP2 SWAP1 POP JUMP JUMPDEST PUSH0 PUSH2 0xD80 PUSH2 0xD7B PUSH2 0xD76 DUP5 PUSH2 0xBD1 JUMP JUMPDEST PUSH2 0xD5D JUMP JUMPDEST PUSH2 0xBD1 JUMP JUMPDEST SWAP1 POP SWAP2 SWAP1 POP JUMP JUMPDEST PUSH0 PUSH2 0xD91 DUP3 PUSH2 0xD66 JUMP JUMPDEST SWAP1 POP SWAP2 SWAP1 POP JUMP JUMPDEST PUSH0 PUSH2 0xDA2 DUP3 PUSH2 0xD87 JUMP JUMPDEST SWAP1 POP SWAP2 SWAP1 POP JUMP JUMPDEST PUSH2 0xDB2 DUP2 PUSH2 0xD98 JUMP JUMPDEST DUP3 MSTORE POP POP JUMP JUMPDEST PUSH0 PUSH1 0x20 DUP3 ADD SWAP1 POP PUSH2 0xDCB PUSH0 DUP4 ADD DUP5 PUSH2 0xDA9 JUMP JUMPDEST SWAP3 SWAP2 POP POP JUMP JUMPDEST PUSH32 0x4E487B7100000000000000000000000000000000000000000000000000000000 PUSH0 MSTORE PUSH1 0x11 PUSH1 0x4 MSTORE PUSH1 0x24 PUSH0 REVERT JUMPDEST PUSH0 PUSH2 0xE08 DUP3 PUSH2 0xC56 JUMP JUMPDEST SWAP2 POP PUSH2 0xE13 DUP4 PUSH2 0xC56 JUMP JUMPDEST SWAP3 POP DUP3 DUP3 MUL PUSH2 0xE21 DUP2 PUSH2 0xC56 JUMP JUMPDEST SWAP2 POP DUP3 DUP3 DIV DUP5 EQ DUP4 ISZERO OR PUSH2 0xE38 JUMPI PUSH2 0xE37 PUSH2 0xDD1 JUMP JUMPDEST JUMPDEST POP SWAP3 SWAP2 POP POP JUMP JUMPDEST PUSH32 0x4E487B7100000000000000000000000000000000000000000000000000000000 PUSH0 MSTORE PUSH1 0x12 PUSH1 0x4 MSTORE PUSH1 0x24 PUSH0 REVERT JUMPDEST PUSH0 PUSH2 0xE76 DUP3 PUSH2 0xC56 JUMP JUMPDEST SWAP2 POP PUSH2 0xE81 DUP4 PUSH2 0xC56 JUMP JUMPDEST SWAP3 POP DUP3 PUSH2 0xE91 JUMPI PUSH2 0xE90 PUSH2 0xE3F JUMP JUMPDEST JUMPDEST DUP3 DUP3 DIV SWAP1 POP SWAP3 SWAP2 POP POP JUMP JUMPDEST PUSH0 PUSH2 0xEA6 DUP3 PUSH2 0xC56 JUMP JUMPDEST SWAP2 POP PUSH2 0xEB1 DUP4 PUSH2 0xC56 JUMP JUMPDEST SWAP3 POP DUP3 DUP3 SUB SWAP1 POP DUP2 DUP2 GT ISZERO PUSH2 0xEC9 JUMPI PUSH2 0xEC8 PUSH2 0xDD1 JUMP JUMPDEST JUMPDEST SWAP3 SWAP2 POP POP JUMP JUMPDEST PUSH0 PUSH1 0x40 DUP3 ADD SWAP1 POP PUSH2 0xEE2 PUSH0 DUP4 ADD DUP6 PUSH2 0xCCD JUMP JUMPDEST PUSH2 0xEEF PUSH1 0x20 DUP4 ADD DUP5 PUSH2 0xC5F JUMP JUMPDEST SWAP4 SWAP3 POP POP POP JUMP JUMPDEST PUSH0 DUP2 ISZERO ISZERO SWAP1 POP SWAP2 SWAP1 POP JUMP JUMPDEST PUSH2 0xF0A DUP2 PUSH2 0xEF6 JUMP JUMPDEST DUP2 EQ PUSH2 0xF14 JUMPI PUSH0 DUP1 REVERT JUMPDEST POP JUMP JUMPDEST PUSH0 DUP2 MLOAD SWAP1 POP PUSH2 0xF25 DUP2 PUSH2 0xF01 JUMP JUMPDEST SWAP3 SWAP2 POP POP JUMP JUMPDEST PUSH0 PUSH1 0x20 DUP3 DUP5 SUB SLT ISZERO PUSH2 0xF40 JUMPI PUSH2 0xF3F PUSH2 0xBCD JUMP JUMPDEST JUMPDEST PUSH0 PUSH2 0xF4D DUP5 DUP3 DUP6 ADD PUSH2 0xF17 JUMP JUMPDEST SWAP2 POP POP SWAP3 SWAP2 POP POP JUMP JUMPDEST PUSH0 PUSH1 0x20 DUP3 ADD SWAP1 POP PUSH2 0xF69 PUSH0 DUP4 ADD DUP5 PUSH2 0xC5F JUMP JUMPDEST SWAP3 SWAP2 POP POP JUMP JUMPDEST PUSH0 DUP3 DUP3 MSTORE PUSH1 0x20 DUP3 ADD SWAP1 POP SWAP3 SWAP2 POP POP JUMP JUMPDEST PUSH32 0x496E76616C69642076657374696E672074797065000000000000000000000000 PUSH0 DUP3 ADD MSTORE POP JUMP JUMPDEST PUSH0 PUSH2 0xFB3 PUSH1 0x14 DUP4 PUSH2 0xF6F JUMP JUMPDEST SWAP2 POP PUSH2 0xFBE DUP3 PUSH2 0xF7F JUMP JUMPDEST PUSH1 0x20 DUP3 ADD SWAP1 POP SWAP2 SWAP1 POP JUMP JUMPDEST PUSH0 PUSH1 0x20 DUP3 ADD SWAP1 POP DUP2 DUP2 SUB PUSH0 DUP4 ADD MSTORE PUSH2 0xFE0 DUP2 PUSH2 0xFA7 JUMP JUMPDEST SWAP1 POP SWAP2 SWAP1 POP JUMP JUMPDEST PUSH32 0x4E6F20746F6B656E7320617661696C61626C6520666F7220636C61696D000000 PUSH0 DUP3 ADD MSTORE POP JUMP JUMPDEST PUSH0 PUSH2 0x101B PUSH1 0x1D DUP4 PUSH2 0xF6F JUMP JUMPDEST SWAP2 POP PUSH2 0x1026 DUP3 PUSH2 0xFE7 JUMP JUMPDEST PUSH1 0x20 DUP3 ADD SWAP1 POP SWAP2 SWAP1 POP JUMP JUMPDEST PUSH0 PUSH1 0x20 DUP3 ADD SWAP1 POP DUP2 DUP2 SUB PUSH0 DUP4 ADD MSTORE PUSH2 0x1048 DUP2 PUSH2 0x100F JUMP JUMPDEST SWAP1 POP SWAP2 SWAP1 POP JUMP JUMPDEST PUSH0 PUSH2 0x1059 DUP3 PUSH2 0xC56 JUMP JUMPDEST SWAP2 POP PUSH2 0x1064 DUP4 PUSH2 0xC56 JUMP JUMPDEST SWAP3 POP DUP3 DUP3 ADD SWAP1 POP DUP1 DUP3 GT ISZERO PUSH2 0x107C JUMPI PUSH2 0x107B PUSH2 0xDD1 JUMP JUMPDEST JUMPDEST SWAP3 SWAP2 POP POP JUMP JUMPDEST PUSH32 0x5265656E7472616E637947756172643A207265656E7472616E742063616C6C00 PUSH0 DUP3 ADD MSTORE POP JUMP JUMPDEST PUSH0 PUSH2 0x10B6 PUSH1 0x1F DUP4 PUSH2 0xF6F JUMP JUMPDEST SWAP2 POP PUSH2 0x10C1 DUP3 PUSH2 0x1082 JUMP JUMPDEST PUSH1 0x20 DUP3 ADD SWAP1 POP SWAP2 SWAP1 POP JUMP JUMPDEST PUSH0 PUSH1 0x20 DUP3 ADD SWAP1 POP DUP2 DUP2 SUB PUSH0 DUP4 ADD MSTORE PUSH2 0x10E3 DUP2 PUSH2 0x10AA JUMP JUMPDEST SWAP1 POP SWAP2 SWAP1 POP JUMP INVALID LOG2 PUSH5 0x6970667358 0x22 SLT KECCAK256 0xC6 0xB6 0xD2 PUSH23 0xD2262C71324D908BA2634C8DBA843BA6A819035E23998 PUSH6 0x7BFB10776473 PUSH16 0x6C634300081A00330000000000000000 "
				},
				"gasEstimates": {
					"creation": {
						"codeDepositCost": "876800",
						"executionCost": "infinite",
						"totalCost": "infinite"
					},
					"external": {
						"addMarketingVesting(address,uint256)": "infinite",
						"addPrivatePreSaleVesting(address,uint256)": "infinite",
						"addTeamVesting(address,uint256)": "infinite",
						"claimTokens(address,uint256)": "infinite",
						"marketingVesting(address)": "infinite",
						"owner()": "2560",
						"privatePreSaleVesting(address)": "infinite",
						"renounceOwnership()": "infinite",
						"teamVesting(address)": "infinite",
						"token()": "infinite",
						"transferOwnership(address)": "infinite"
					},
					"internal": {
						"_calculateVestedAmount(struct TokenVesting.VestingSchedule storage pointer)": "infinite"
					}
				},
				"methodIdentifiers": {
					"addMarketingVesting(address,uint256)": "ba6a939a",
					"addPrivatePreSaleVesting(address,uint256)": "ecab4afd",
					"addTeamVesting(address,uint256)": "cb4003aa",
					"claimTokens(address,uint256)": "fe417fa5",
					"marketingVesting(address)": "9d30437f",
					"owner()": "8da5cb5b",
					"privatePreSaleVesting(address)": "9669a004",
					"renounceOwnership()": "715018a6",
					"teamVesting(address)": "2b3e8eb3",
					"token()": "fc0c546a",
					"transferOwnership(address)": "f2fde38b"
				}
			},
			"storageLayout": {
				"storage": [
					{
						"astId": 8,
						"contract": "contracts/TokenVasting.sol:TokenVesting",
						"label": "_owner",
						"offset": 0,
						"slot": "0",
						"type": "t_address"
					},
					{
						"astId": 158,
						"contract": "contracts/TokenVasting.sol:TokenVesting",
						"label": "_status",
						"offset": 0,
						"slot": "1",
						"type": "t_uint256"
					},
					{
						"astId": 334,
						"contract": "contracts/TokenVasting.sol:TokenVesting",
						"label": "token",
						"offset": 0,
						"slot": "2",
						"type": "t_contract(IERC20)290"
					},
					{
						"astId": 352,
						"contract": "contracts/TokenVasting.sol:TokenVesting",
						"label": "teamVesting",
						"offset": 0,
						"slot": "3",
						"type": "t_mapping(t_address,t_struct(VestingSchedule)347_storage)"
					},
					{
						"astId": 357,
						"contract": "contracts/TokenVasting.sol:TokenVesting",
						"label": "privatePreSaleVesting",
						"offset": 0,
						"slot": "4",
						"type": "t_mapping(t_address,t_struct(VestingSchedule)347_storage)"
					},
					{
						"astId": 362,
						"contract": "contracts/TokenVasting.sol:TokenVesting",
						"label": "marketingVesting",
						"offset": 0,
						"slot": "5",
						"type": "t_mapping(t_address,t_struct(VestingSchedule)347_storage)"
					}
				],
				"types": {
					"t_address": {
						"encoding": "inplace",
						"label": "address",
						"numberOfBytes": "20"
					},
					"t_contract(IERC20)290": {
						"encoding": "inplace",
						"label": "contract IERC20",
						"numberOfBytes": "20"
					},
					"t_mapping(t_address,t_struct(VestingSchedule)347_storage)": {
						"encoding": "mapping",
						"key": "t_address",
						"label": "mapping(address => struct TokenVesting.VestingSchedule)",
						"numberOfBytes": "32",
						"value": "t_struct(VestingSchedule)347_storage"
					},
					"t_struct(VestingSchedule)347_storage": {
						"encoding": "inplace",
						"label": "struct TokenVesting.VestingSchedule",
						"members": [
							{
								"astId": 336,
								"contract": "contracts/TokenVasting.sol:TokenVesting",
								"label": "startTime",
								"offset": 0,
								"slot": "0",
								"type": "t_uint256"
							},
							{
								"astId": 338,
								"contract": "contracts/TokenVasting.sol:TokenVesting",
								"label": "cliff",
								"offset": 0,
								"slot": "1",
								"type": "t_uint256"
							},
							{
								"astId": 340,
								"contract": "contracts/TokenVasting.sol:TokenVesting",
								"label": "duration",
								"offset": 0,
								"slot": "2",
								"type": "t_uint256"
							},
							{
								"astId": 342,
								"contract": "contracts/TokenVasting.sol:TokenVesting",
								"label": "amount",
								"offset": 0,
								"slot": "3",
								"type": "t_uint256"
							},
							{
								"astId": 344,
								"contract": "contracts/TokenVasting.sol:TokenVesting",
								"label": "initialRelease",
								"offset": 0,
								"slot": "4",
								"type": "t_uint256"
							},
							{
								"astId": 346,
								"contract": "contracts/TokenVasting.sol:TokenVesting",
								"label": "released",
								"offset": 0,
								"slot": "5",
								"type": "t_uint256"
							}
						],
						"numberOfBytes": "192"
					},
					"t_uint256": {
						"encoding": "inplace",
						"label": "uint256",
						"numberOfBytes": "32"
					}
				}
			},
			"userdoc": {
				"kind": "user",
				"methods": {},
				"version": 1
			}
		}
	}
}