{
	"contracts/ICO.sol": {
		"ICO": {
			"abi": [
				{
					"inputs": [
						{
							"internalType": "address",
							"name": "_xoraToken",
							"type": "address"
						},
						{
							"internalType": "address",
							"name": "_IcoAllocationAddress",
							"type": "address"
						},
						{
							"internalType": "address[]",
							"name": "_investors",
							"type": "address[]"
						},
						{
							"internalType": "address[]",
							"name": "_whitelistedPartner",
							"type": "address[]"
						}
					],
					"stateMutability": "nonpayable",
					"type": "constructor"
				},
				{
					"inputs": [
						{
							"internalType": "address",
							"name": "owner",
							"type": "address"
						}
					],
					"name": "OwnableInvalidOwner",
					"type": "error"
				},
				{
					"inputs": [
						{
							"internalType": "address",
							"name": "account",
							"type": "address"
						}
					],
					"name": "OwnableUnauthorizedAccount",
					"type": "error"
				},
				{
					"anonymous": false,
					"inputs": [
						{
							"indexed": true,
							"internalType": "address",
							"name": "previousOwner",
							"type": "address"
						},
						{
							"indexed": true,
							"internalType": "address",
							"name": "newOwner",
							"type": "address"
						}
					],
					"name": "OwnershipTransferred",
					"type": "event"
				},
				{
					"anonymous": false,
					"inputs": [
						{
							"indexed": false,
							"internalType": "uint8",
							"name": "newStageIndex",
							"type": "uint8"
						}
					],
					"name": "StageAdvanced",
					"type": "event"
				},
				{
					"anonymous": false,
					"inputs": [
						{
							"indexed": true,
							"internalType": "address",
							"name": "buyer",
							"type": "address"
						},
						{
							"indexed": false,
							"internalType": "uint256",
							"name": "amount",
							"type": "uint256"
						}
					],
					"name": "TokensClaimed",
					"type": "event"
				},
				{
					"anonymous": false,
					"inputs": [
						{
							"indexed": true,
							"internalType": "address",
							"name": "buyer",
							"type": "address"
						},
						{
							"indexed": false,
							"internalType": "uint256",
							"name": "amount",
							"type": "uint256"
						}
					],
					"name": "TokensPurchased",
					"type": "event"
				},
				{
					"inputs": [],
					"name": "IcoAllocationAddress",
					"outputs": [
						{
							"internalType": "address",
							"name": "",
							"type": "address"
						}
					],
					"stateMutability": "view",
					"type": "function"
				},
				{
					"inputs": [
						{
							"internalType": "uint256",
							"name": "amount",
							"type": "uint256"
						},
						{
							"internalType": "address",
							"name": "stablecoin",
							"type": "address"
						}
					],
					"name": "buyTokens",
					"outputs": [],
					"stateMutability": "payable",
					"type": "function"
				},
				{
					"inputs": [],
					"name": "claimTokens",
					"outputs": [],
					"stateMutability": "nonpayable",
					"type": "function"
				},
				{
					"inputs": [
						{
							"internalType": "address",
							"name": "",
							"type": "address"
						}
					],
					"name": "claimedTokens",
					"outputs": [
						{
							"internalType": "uint256",
							"name": "",
							"type": "uint256"
						}
					],
					"stateMutability": "view",
					"type": "function"
				},
				{
					"inputs": [],
					"name": "currentStage",
					"outputs": [
						{
							"internalType": "uint8",
							"name": "",
							"type": "uint8"
						}
					],
					"stateMutability": "view",
					"type": "function"
				},
				{
					"inputs": [
						{
							"internalType": "uint256",
							"name": "",
							"type": "uint256"
						}
					],
					"name": "investors_and_partner",
					"outputs": [
						{
							"internalType": "address",
							"name": "",
							"type": "address"
						}
					],
					"stateMutability": "view",
					"type": "function"
				},
				{
					"inputs": [],
					"name": "owner",
					"outputs": [
						{
							"internalType": "address",
							"name": "",
							"type": "address"
						}
					],
					"stateMutability": "view",
					"type": "function"
				},
				{
					"inputs": [
						{
							"internalType": "address",
							"name": "",
							"type": "address"
						}
					],
					"name": "purchases",
					"outputs": [
						{
							"internalType": "uint256",
							"name": "",
							"type": "uint256"
						}
					],
					"stateMutability": "view",
					"type": "function"
				},
				{
					"inputs": [
						{
							"internalType": "address",
							"name": "",
							"type": "address"
						}
					],
					"name": "purchasesInStableCoin",
					"outputs": [
						{
							"internalType": "uint256",
							"name": "",
							"type": "uint256"
						}
					],
					"stateMutability": "view",
					"type": "function"
				},
				{
					"inputs": [],
					"name": "renounceOwnership",
					"outputs": [],
					"stateMutability": "nonpayable",
					"type": "function"
				},
				{
					"inputs": [
						{
							"internalType": "uint256",
							"name": "",
							"type": "uint256"
						}
					],
					"name": "stages",
					"outputs": [
						{
							"internalType": "enum ICO.StageName",
							"name": "name",
							"type": "uint8"
						},
						{
							"internalType": "uint256",
							"name": "allocation",
							"type": "uint256"
						},
						{
							"internalType": "uint256",
							"name": "price",
							"type": "uint256"
						},
						{
							"internalType": "uint256",
							"name": "targetRaise",
							"type": "uint256"
						},
						{
							"internalType": "uint256",
							"name": "cliff",
							"type": "uint256"
						},
						{
							"internalType": "uint256",
							"name": "vestingDuration",
							"type": "uint256"
						},
						{
							"internalType": "uint256",
							"name": "tokensSold",
							"type": "uint256"
						},
						{
							"internalType": "uint256",
							"name": "bonusPercentage",
							"type": "uint256"
						},
						{
							"internalType": "uint256",
							"name": "startTime",
							"type": "uint256"
						}
					],
					"stateMutability": "view",
					"type": "function"
				},
				{
					"inputs": [],
					"name": "totalTokensSold",
					"outputs": [
						{
							"internalType": "uint256",
							"name": "",
							"type": "uint256"
						}
					],
					"stateMutability": "view",
					"type": "function"
				},
				{
					"inputs": [
						{
							"internalType": "address",
							"name": "newOwner",
							"type": "address"
						}
					],
					"name": "transferOwnership",
					"outputs": [],
					"stateMutability": "nonpayable",
					"type": "function"
				},
				{
					"inputs": [
						{
							"internalType": "address",
							"name": "",
							"type": "address"
						}
					],
					"name": "vestedTokens",
					"outputs": [
						{
							"internalType": "uint256",
							"name": "",
							"type": "uint256"
						}
					],
					"stateMutability": "view",
					"type": "function"
				},
				{
					"inputs": [
						{
							"internalType": "uint256",
							"name": "",
							"type": "uint256"
						}
					],
					"name": "whitelistedPartner",
					"outputs": [
						{
							"internalType": "address",
							"name": "",
							"type": "address"
						}
					],
					"stateMutability": "view",
					"type": "function"
				},
				{
					"inputs": [
						{
							"internalType": "address",
							"name": "stablecoin",
							"type": "address"
						},
						{
							"internalType": "uint256",
							"name": "amount",
							"type": "uint256"
						}
					],
					"name": "widthdrawfunds",
					"outputs": [],
					"stateMutability": "nonpayable",
					"type": "function"
				},
				{
					"inputs": [],
					"name": "xoraToken",
					"outputs": [
						{
							"internalType": "contract IERC20",
							"name": "",
							"type": "address"
						}
					],
					"stateMutability": "view",
					"type": "function"
				}
			],
			"devdoc": {
				"errors": {
					"OwnableInvalidOwner(address)": [
						{
							"details": "The owner is not a valid owner account. (eg. `address(0)`)"
						}
					],
					"OwnableUnauthorizedAccount(address)": [
						{
							"details": "The caller account is not authorized to perform an operation."
						}
					]
				},
				"kind": "dev",
				"methods": {
					"owner()": {
						"details": "Returns the address of the current owner."
					},
					"renounceOwnership()": {
						"details": "Leaves the contract without owner. It will not be possible to call `onlyOwner` functions. Can only be called by the current owner. NOTE: Renouncing ownership will leave the contract without an owner, thereby disabling any functionality that is only available to the owner."
					},
					"transferOwnership(address)": {
						"details": "Transfers ownership of the contract to a new account (`newOwner`). Can only be called by the current owner."
					}
				},
				"version": 1
			},
			"evm": {
				"assembly": "    /* \"contracts/ICO.sol\":232:7625  contract ICO is Ownable(msg.sender), ReentrancyGuard {... */\n  mstore(0x40, 0x80)\n    /* \"contracts/ICO.sol\":1486:3181  constructor(... */\n  callvalue\n  dup1\n  iszero\n  tag_1\n  jumpi\n  0x00\n  dup1\n  revert\ntag_1:\n  pop\n  mload(0x40)\n  sub(codesize, bytecodeSize)\n  dup1\n  bytecodeSize\n  dup4\n  codecopy\n  dup2\n  dup2\n  add\n  0x40\n  mstore\n  dup2\n  add\n  swap1\n  tag_2\n  swap2\n  swap1\n  tag_3\n  jump\t// in\ntag_2:\n    /* \"contracts/ICO.sol\":256:266  msg.sender */\n  caller\n    /* \"@openzeppelin/contracts/access/Ownable.sol\":1297:1298  0 */\n  0x00\n    /* \"@openzeppelin/contracts/access/Ownable.sol\":1273:1299  initialOwner == address(0) */\n  0xffffffffffffffffffffffffffffffffffffffff\n  and\n    /* \"@openzeppelin/contracts/access/Ownable.sol\":1273:1285  initialOwner */\n  dup2\n    /* \"@openzeppelin/contracts/access/Ownable.sol\":1273:1299  initialOwner == address(0) */\n  0xffffffffffffffffffffffffffffffffffffffff\n  and\n  sub\n    /* \"@openzeppelin/contracts/access/Ownable.sol\":1269:1364  if (initialOwner == address(0)) {... */\n  tag_8\n  jumpi\n    /* \"@openzeppelin/contracts/access/Ownable.sol\":1350:1351  0 */\n  0x00\n    /* \"@openzeppelin/contracts/access/Ownable.sol\":1322:1353  OwnableInvalidOwner(address(0)) */\n  mload(0x40)\n  0x1e4fbdf700000000000000000000000000000000000000000000000000000000\n  dup2\n  mstore\n  0x04\n  add\n  tag_9\n  swap2\n  swap1\n  tag_10\n  jump\t// in\ntag_9:\n  mload(0x40)\n  dup1\n  swap2\n  sub\n  swap1\n  revert\n    /* \"@openzeppelin/contracts/access/Ownable.sol\":1269:1364  if (initialOwner == address(0)) {... */\ntag_8:\n    /* \"@openzeppelin/contracts/access/Ownable.sol\":1373:1405  _transferOwnership(initialOwner) */\n  tag_11\n    /* \"@openzeppelin/contracts/access/Ownable.sol\":1392:1404  initialOwner */\n  dup2\n    /* \"@openzeppelin/contracts/access/Ownable.sol\":1373:1391  _transferOwnership */\n  shl(0x20, tag_12)\n    /* \"@openzeppelin/contracts/access/Ownable.sol\":1373:1405  _transferOwnership(initialOwner) */\n  0x20\n  shr\n  jump\t// in\ntag_11:\n    /* \"@openzeppelin/contracts/access/Ownable.sol\":1225:1412  constructor(address initialOwner) {... */\n  pop\n    /* \"@openzeppelin/contracts/security/ReentrancyGuard.sol\":1716:1717  1 */\n  0x01\n    /* \"@openzeppelin/contracts/security/ReentrancyGuard.sol\":1821:1828  _status */\n  dup1\n    /* \"@openzeppelin/contracts/security/ReentrancyGuard.sol\":1821:1843  _status = _NOT_ENTERED */\n  dup2\n  swap1\n  sstore\n  pop\n    /* \"contracts/ICO.sol\":1687:1708  _IcoAllocationAddress */\n  dup3\n    /* \"contracts/ICO.sol\":1664:1684  IcoAllocationAddress */\n  0x03\n  0x00\n    /* \"contracts/ICO.sol\":1664:1708  IcoAllocationAddress = _IcoAllocationAddress */\n  0x0100\n  exp\n  dup2\n  sload\n  dup2\n  0xffffffffffffffffffffffffffffffffffffffff\n  mul\n  not\n  and\n  swap1\n  dup4\n  0xffffffffffffffffffffffffffffffffffffffff\n  and\n  mul\n  or\n  swap1\n  sstore\n  pop\n    /* \"contracts/ICO.sol\":1737:1747  _xoraToken */\n  dup4\n    /* \"contracts/ICO.sol\":1718:1727  xoraToken */\n  0x02\n  0x00\n    /* \"contracts/ICO.sol\":1718:1748  xoraToken = IERC20(_xoraToken) */\n  0x0100\n  exp\n  dup2\n  sload\n  dup2\n  0xffffffffffffffffffffffffffffffffffffffff\n  mul\n  not\n  and\n  swap1\n  dup4\n  0xffffffffffffffffffffffffffffffffffffffff\n  and\n  mul\n  or\n  swap1\n  sstore\n  pop\n    /* \"contracts/ICO.sol\":1773:1774  0 */\n  0x00\n    /* \"contracts/ICO.sol\":1758:1770  currentStage */\n  0x25\n  0x00\n    /* \"contracts/ICO.sol\":1758:1774  currentStage = 0 */\n  0x0100\n  exp\n  dup2\n  sload\n  dup2\n  0xff\n  mul\n  not\n  and\n  swap1\n  dup4\n  0xff\n  and\n  mul\n  or\n  swap1\n  sstore\n  pop\n    /* \"contracts/ICO.sol\":1799:1800  0 */\n  0x00\n    /* \"contracts/ICO.sol\":1784:1796  claimedStage */\n  0x25\n  0x01\n    /* \"contracts/ICO.sol\":1784:1800  claimedStage = 0 */\n  0x0100\n  exp\n  dup2\n  sload\n  dup2\n  0xff\n  mul\n  not\n  and\n  swap1\n  dup4\n  0xff\n  and\n  mul\n  or\n  swap1\n  sstore\n  pop\n    /* \"contracts/ICO.sol\":1862:1871  uint256 i */\n  0x00\n    /* \"contracts/ICO.sol\":1857:1971  for (uint256 i = 0; i < _investors.length; i++) {... */\ntag_15:\n    /* \"contracts/ICO.sol\":1881:1891  _investors */\n  dup3\n    /* \"contracts/ICO.sol\":1881:1898  _investors.length */\n  mload\n    /* \"contracts/ICO.sol\":1877:1878  i */\n  dup2\n    /* \"contracts/ICO.sol\":1877:1898  i < _investors.length */\n  lt\n    /* \"contracts/ICO.sol\":1857:1971  for (uint256 i = 0; i < _investors.length; i++) {... */\n  iszero\n  tag_16\n  jumpi\n    /* \"contracts/ICO.sol\":1919:1940  investors_and_partner */\n  0x26\n    /* \"contracts/ICO.sol\":1946:1956  _investors */\n  dup4\n    /* \"contracts/ICO.sol\":1957:1958  i */\n  dup3\n    /* \"contracts/ICO.sol\":1946:1959  _investors[i] */\n  dup2\n  mload\n  dup2\n  lt\n  tag_18\n  jumpi\n  tag_19\n  tag_20\n  jump\t// in\ntag_19:\ntag_18:\n  0x20\n  mul\n  0x20\n  add\n  add\n  mload\n    /* \"contracts/ICO.sol\":1919:1960  investors_and_partner.push(_investors[i]) */\n  swap1\n  dup1\n  0x01\n  dup2\n  sload\n  add\n  dup1\n  dup3\n  sstore\n  dup1\n  swap2\n  pop\n  pop\n  0x01\n  swap1\n  sub\n  swap1\n  0x00\n  mstore\n  keccak256(0x00, 0x20)\n  add\n  0x00\n  swap1\n  swap2\n  swap1\n  swap2\n  swap1\n  swap2\n  0x0100\n  exp\n  dup2\n  sload\n  dup2\n  0xffffffffffffffffffffffffffffffffffffffff\n  mul\n  not\n  and\n  swap1\n  dup4\n  0xffffffffffffffffffffffffffffffffffffffff\n  and\n  mul\n  or\n  swap1\n  sstore\n  pop\n    /* \"contracts/ICO.sol\":1900:1903  i++ */\n  dup1\n  dup1\n  0x01\n  add\n  swap2\n  pop\n  pop\n    /* \"contracts/ICO.sol\":1857:1971  for (uint256 i = 0; i < _investors.length; i++) {... */\n  jump(tag_15)\ntag_16:\n  pop\n    /* \"contracts/ICO.sol\":1985:1994  uint256 i */\n  0x00\n    /* \"contracts/ICO.sol\":1980:2109  for (uint256 i = 0; i < _whitelistedPartner.length; i++) {... */\ntag_22:\n    /* \"contracts/ICO.sol\":2004:2023  _whitelistedPartner */\n  dup2\n    /* \"contracts/ICO.sol\":2004:2030  _whitelistedPartner.length */\n  mload\n    /* \"contracts/ICO.sol\":2000:2001  i */\n  dup2\n    /* \"contracts/ICO.sol\":2000:2030  i < _whitelistedPartner.length */\n  lt\n    /* \"contracts/ICO.sol\":1980:2109  for (uint256 i = 0; i < _whitelistedPartner.length; i++) {... */\n  iszero\n  tag_23\n  jumpi\n    /* \"contracts/ICO.sol\":2051:2069  whitelistedPartner */\n  0x27\n    /* \"contracts/ICO.sol\":2075:2094  _whitelistedPartner */\n  dup3\n    /* \"contracts/ICO.sol\":2095:2096  i */\n  dup3\n    /* \"contracts/ICO.sol\":2075:2097  _whitelistedPartner[i] */\n  dup2\n  mload\n  dup2\n  lt\n  tag_25\n  jumpi\n  tag_26\n  tag_20\n  jump\t// in\ntag_26:\ntag_25:\n  0x20\n  mul\n  0x20\n  add\n  add\n  mload\n    /* \"contracts/ICO.sol\":2051:2098  whitelistedPartner.push(_whitelistedPartner[i]) */\n  swap1\n  dup1\n  0x01\n  dup2\n  sload\n  add\n  dup1\n  dup3\n  sstore\n  dup1\n  swap2\n  pop\n  pop\n  0x01\n  swap1\n  sub\n  swap1\n  0x00\n  mstore\n  keccak256(0x00, 0x20)\n  add\n  0x00\n  swap1\n  swap2\n  swap1\n  swap2\n  swap1\n  swap2\n  0x0100\n  exp\n  dup2\n  sload\n  dup2\n  0xffffffffffffffffffffffffffffffffffffffff\n  mul\n  not\n  and\n  swap1\n  dup4\n  0xffffffffffffffffffffffffffffffffffffffff\n  and\n  mul\n  or\n  swap1\n  sstore\n  pop\n    /* \"contracts/ICO.sol\":2032:2035  i++ */\n  dup1\n  dup1\n  0x01\n  add\n  swap2\n  pop\n  pop\n    /* \"contracts/ICO.sol\":1980:2109  for (uint256 i = 0; i < _whitelistedPartner.length; i++) {... */\n  jump(tag_22)\ntag_23:\n  pop\n    /* \"contracts/ICO.sol\":2155:2496  Stage({... */\n  mload(0x40)\n  dup1\n  0x0120\n  add\n  0x40\n  mstore\n  dup1\n    /* \"contracts/ICO.sol\":2181:2202  StageName.PrivateSale */\n  0x00\n    /* \"contracts/ICO.sol\":2155:2496  Stage({... */\n  0x02\n  dup2\n  gt\n  iszero\n  tag_28\n  jumpi\n  tag_29\n  tag_30\n  jump\t// in\ntag_29:\ntag_28:\n  dup2\n  mstore\n  0x20\n  add\n    /* \"contracts/ICO.sol\":2228:2247  20_000_000 * 10**18 */\n  0x108b2a2c28029094000000\n    /* \"contracts/ICO.sol\":2155:2496  Stage({... */\n  dup2\n  mstore\n  0x20\n  add\n    /* \"contracts/ICO.sol\":2268:2281  0.04 * 10**18 */\n  0x8e1bc9bf040000\n    /* \"contracts/ICO.sol\":2155:2496  Stage({... */\n  dup2\n  mstore\n  0x20\n  add\n    /* \"contracts/ICO.sol\":2308:2314  800000 */\n  0x0c3500\n    /* \"contracts/ICO.sol\":2155:2496  Stage({... */\n  dup2\n  mstore\n  0x20\n  add\n    /* \"contracts/ICO.sol\":2335:2342  60 days */\n  0x4f1a00\n    /* \"contracts/ICO.sol\":2155:2496  Stage({... */\n  dup2\n  mstore\n  0x20\n  add\n    /* \"contracts/ICO.sol\":2373:2385  10 * 30 days */\n  0x018b8200\n    /* \"contracts/ICO.sol\":2155:2496  Stage({... */\n  dup2\n  mstore\n  0x20\n  add\n    /* \"contracts/ICO.sol\":2411:2412  0 */\n  0x00\n    /* \"contracts/ICO.sol\":2155:2496  Stage({... */\n  dup2\n  mstore\n  0x20\n  add\n    /* \"contracts/ICO.sol\":2443:2445  15 */\n  0x0f\n    /* \"contracts/ICO.sol\":2155:2496  Stage({... */\n  dup2\n  mstore\n  0x20\n  add\n    /* \"contracts/ICO.sol\":2470:2485  block.timestamp */\n  timestamp\n    /* \"contracts/ICO.sol\":2155:2496  Stage({... */\n  dup2\n  mstore\n  pop\n    /* \"contracts/ICO.sol\":2143:2149  stages */\n  0x04\n    /* \"contracts/ICO.sol\":2150:2151  0 */\n  0x00\n    /* \"contracts/ICO.sol\":2143:2152  stages[0] */\n  0x03\n  dup2\n  lt\n  tag_31\n  jumpi\n  tag_32\n  tag_20\n  jump\t// in\ntag_32:\ntag_31:\n  0x09\n  mul\n  add\n    /* \"contracts/ICO.sol\":2143:2496  stages[0] = Stage({... */\n  0x00\n  dup3\n  add\n  mload\n  dup2\n  0x00\n  add\n  exp(0x0100, 0x00)\n  dup2\n  sload\n  dup2\n  0xff\n  mul\n  not\n  and\n  swap1\n  dup4\n  0x02\n  dup2\n  gt\n  iszero\n  tag_34\n  jumpi\n  tag_35\n  tag_30\n  jump\t// in\ntag_35:\ntag_34:\n  mul\n  or\n  swap1\n  sstore\n  pop\n  0x20\n  dup3\n  add\n  mload\n  dup2\n  0x01\n  add\n  sstore\n  0x40\n  dup3\n  add\n  mload\n  dup2\n  0x02\n  add\n  sstore\n  0x60\n  dup3\n  add\n  mload\n  dup2\n  0x03\n  add\n  sstore\n  0x80\n  dup3\n  add\n  mload\n  dup2\n  0x04\n  add\n  sstore\n  0xa0\n  dup3\n  add\n  mload\n  dup2\n  0x05\n  add\n  sstore\n  0xc0\n  dup3\n  add\n  mload\n  dup2\n  0x06\n  add\n  sstore\n  0xe0\n  dup3\n  add\n  mload\n  dup2\n  0x07\n  add\n  sstore\n  0x0100\n  dup3\n  add\n  mload\n  dup2\n  0x08\n  add\n  sstore\n  swap1\n  pop\n  pop\n    /* \"contracts/ICO.sol\":2519:2842  Stage({... */\n  mload(0x40)\n  dup1\n  0x0120\n  add\n  0x40\n  mstore\n  dup1\n    /* \"contracts/ICO.sol\":2545:2562  StageName.PreSale */\n  0x01\n    /* \"contracts/ICO.sol\":2519:2842  Stage({... */\n  0x02\n  dup2\n  gt\n  iszero\n  tag_36\n  jumpi\n  tag_37\n  tag_30\n  jump\t// in\ntag_37:\ntag_36:\n  dup2\n  mstore\n  0x20\n  add\n    /* \"contracts/ICO.sol\":2588:2607  30_000_000 * 10**18 */\n  0x18d0bf423c03d8de000000\n    /* \"contracts/ICO.sol\":2519:2842  Stage({... */\n  dup2\n  mstore\n  0x20\n  add\n    /* \"contracts/ICO.sol\":2628:2641  0.06 * 10**18 */\n  0xd529ae9e860000\n    /* \"contracts/ICO.sol\":2519:2842  Stage({... */\n  dup2\n  mstore\n  0x20\n  add\n    /* \"contracts/ICO.sol\":2668:2675  1800000 */\n  0x1b7740\n    /* \"contracts/ICO.sol\":2519:2842  Stage({... */\n  dup2\n  mstore\n  0x20\n  add\n    /* \"contracts/ICO.sol\":2696:2703  30 days */\n  0x278d00\n    /* \"contracts/ICO.sol\":2519:2842  Stage({... */\n  dup2\n  mstore\n  0x20\n  add\n    /* \"contracts/ICO.sol\":2734:2745  6 * 30 days */\n  0xed4e00\n    /* \"contracts/ICO.sol\":2519:2842  Stage({... */\n  dup2\n  mstore\n  0x20\n  add\n    /* \"contracts/ICO.sol\":2771:2772  0 */\n  0x00\n    /* \"contracts/ICO.sol\":2519:2842  Stage({... */\n  dup2\n  mstore\n  0x20\n  add\n    /* \"contracts/ICO.sol\":2803:2805  10 */\n  0x0a\n    /* \"contracts/ICO.sol\":2519:2842  Stage({... */\n  dup2\n  mstore\n  0x20\n  add\n    /* \"contracts/ICO.sol\":2830:2831  0 */\n  0x00\n    /* \"contracts/ICO.sol\":2519:2842  Stage({... */\n  dup2\n  mstore\n  pop\n    /* \"contracts/ICO.sol\":2507:2513  stages */\n  0x04\n    /* \"contracts/ICO.sol\":2514:2515  1 */\n  0x01\n    /* \"contracts/ICO.sol\":2507:2516  stages[1] */\n  0x03\n  dup2\n  lt\n  tag_38\n  jumpi\n  tag_39\n  tag_20\n  jump\t// in\ntag_39:\ntag_38:\n  0x09\n  mul\n  add\n    /* \"contracts/ICO.sol\":2507:2842  stages[1] = Stage({... */\n  0x00\n  dup3\n  add\n  mload\n  dup2\n  0x00\n  add\n  exp(0x0100, 0x00)\n  dup2\n  sload\n  dup2\n  0xff\n  mul\n  not\n  and\n  swap1\n  dup4\n  0x02\n  dup2\n  gt\n  iszero\n  tag_41\n  jumpi\n  tag_42\n  tag_30\n  jump\t// in\ntag_42:\ntag_41:\n  mul\n  or\n  swap1\n  sstore\n  pop\n  0x20\n  dup3\n  add\n  mload\n  dup2\n  0x01\n  add\n  sstore\n  0x40\n  dup3\n  add\n  mload\n  dup2\n  0x02\n  add\n  sstore\n  0x60\n  dup3\n  add\n  mload\n  dup2\n  0x03\n  add\n  sstore\n  0x80\n  dup3\n  add\n  mload\n  dup2\n  0x04\n  add\n  sstore\n  0xa0\n  dup3\n  add\n  mload\n  dup2\n  0x05\n  add\n  sstore\n  0xc0\n  dup3\n  add\n  mload\n  dup2\n  0x06\n  add\n  sstore\n  0xe0\n  dup3\n  add\n  mload\n  dup2\n  0x07\n  add\n  sstore\n  0x0100\n  dup3\n  add\n  mload\n  dup2\n  0x08\n  add\n  sstore\n  swap1\n  pop\n  pop\n    /* \"contracts/ICO.sol\":2865:3174  Stage({... */\n  mload(0x40)\n  dup1\n  0x0120\n  add\n  0x40\n  mstore\n  dup1\n    /* \"contracts/ICO.sol\":2891:2911  StageName.PublicSale */\n  0x02\n    /* \"contracts/ICO.sol\":2865:3174  Stage({... */\n  dup1\n  dup2\n  gt\n  iszero\n  tag_43\n  jumpi\n  tag_44\n  tag_30\n  jump\t// in\ntag_44:\ntag_43:\n  dup2\n  mstore\n  0x20\n  add\n    /* \"contracts/ICO.sol\":2937:2956  50_000_000 * 10**18 */\n  0x295be96e64066972000000\n    /* \"contracts/ICO.sol\":2865:3174  Stage({... */\n  dup2\n  mstore\n  0x20\n  add\n    /* \"contracts/ICO.sol\":2977:2990  0.08 * 10**18 */\n  0x011c37937e080000\n    /* \"contracts/ICO.sol\":2865:3174  Stage({... */\n  dup2\n  mstore\n  0x20\n  add\n    /* \"contracts/ICO.sol\":3017:3024  4000000 */\n  0x3d0900\n    /* \"contracts/ICO.sol\":2865:3174  Stage({... */\n  dup2\n  mstore\n  0x20\n  add\n    /* \"contracts/ICO.sol\":3045:3046  0 */\n  0x00\n    /* \"contracts/ICO.sol\":2865:3174  Stage({... */\n  dup2\n  mstore\n  0x20\n  add\n    /* \"contracts/ICO.sol\":3077:3078  0 */\n  0x00\n    /* \"contracts/ICO.sol\":2865:3174  Stage({... */\n  dup2\n  mstore\n  0x20\n  add\n    /* \"contracts/ICO.sol\":3104:3105  0 */\n  0x00\n    /* \"contracts/ICO.sol\":2865:3174  Stage({... */\n  dup2\n  mstore\n  0x20\n  add\n    /* \"contracts/ICO.sol\":3136:3137  0 */\n  0x00\n    /* \"contracts/ICO.sol\":2865:3174  Stage({... */\n  dup2\n  mstore\n  0x20\n  add\n    /* \"contracts/ICO.sol\":3162:3163  0 */\n  0x00\n    /* \"contracts/ICO.sol\":2865:3174  Stage({... */\n  dup2\n  mstore\n  pop\n    /* \"contracts/ICO.sol\":2853:2859  stages */\n  0x04\n    /* \"contracts/ICO.sol\":2860:2861  2 */\n  0x02\n    /* \"contracts/ICO.sol\":2853:2862  stages[2] */\n  0x03\n  dup2\n  lt\n  tag_45\n  jumpi\n  tag_46\n  tag_20\n  jump\t// in\ntag_46:\ntag_45:\n  0x09\n  mul\n  add\n    /* \"contracts/ICO.sol\":2853:3174  stages[2] = Stage({... */\n  0x00\n  dup3\n  add\n  mload\n  dup2\n  0x00\n  add\n  exp(0x0100, 0x00)\n  dup2\n  sload\n  dup2\n  0xff\n  mul\n  not\n  and\n  swap1\n  dup4\n  0x02\n  dup2\n  gt\n  iszero\n  tag_48\n  jumpi\n  tag_49\n  tag_30\n  jump\t// in\ntag_49:\ntag_48:\n  mul\n  or\n  swap1\n  sstore\n  pop\n  0x20\n  dup3\n  add\n  mload\n  dup2\n  0x01\n  add\n  sstore\n  0x40\n  dup3\n  add\n  mload\n  dup2\n  0x02\n  add\n  sstore\n  0x60\n  dup3\n  add\n  mload\n  dup2\n  0x03\n  add\n  sstore\n  0x80\n  dup3\n  add\n  mload\n  dup2\n  0x04\n  add\n  sstore\n  0xa0\n  dup3\n  add\n  mload\n  dup2\n  0x05\n  add\n  sstore\n  0xc0\n  dup3\n  add\n  mload\n  dup2\n  0x06\n  add\n  sstore\n  0xe0\n  dup3\n  add\n  mload\n  dup2\n  0x07\n  add\n  sstore\n  0x0100\n  dup3\n  add\n  mload\n  dup2\n  0x08\n  add\n  sstore\n  swap1\n  pop\n  pop\n    /* \"contracts/ICO.sol\":1486:3181  constructor(... */\n  pop\n  pop\n  pop\n  pop\n    /* \"contracts/ICO.sol\":232:7625  contract ICO is Ownable(msg.sender), ReentrancyGuard {... */\n  jump(tag_50)\n    /* \"@openzeppelin/contracts/access/Ownable.sol\":2912:3099  function _transferOwnership(address newOwner) internal virtual {... */\ntag_12:\n    /* \"@openzeppelin/contracts/access/Ownable.sol\":2985:3001  address oldOwner */\n  0x00\n    /* \"@openzeppelin/contracts/access/Ownable.sol\":3004:3010  _owner */\n  dup1\n  0x00\n  swap1\n  sload\n  swap1\n  0x0100\n  exp\n  swap1\n  div\n  0xffffffffffffffffffffffffffffffffffffffff\n  and\n    /* \"@openzeppelin/contracts/access/Ownable.sol\":2985:3010  address oldOwner = _owner */\n  swap1\n  pop\n    /* \"@openzeppelin/contracts/access/Ownable.sol\":3029:3037  newOwner */\n  dup2\n    /* \"@openzeppelin/contracts/access/Ownable.sol\":3020:3026  _owner */\n  0x00\n  dup1\n    /* \"@openzeppelin/contracts/access/Ownable.sol\":3020:3037  _owner = newOwner */\n  0x0100\n  exp\n  dup2\n  sload\n  dup2\n  0xffffffffffffffffffffffffffffffffffffffff\n  mul\n  not\n  and\n  swap1\n  dup4\n  0xffffffffffffffffffffffffffffffffffffffff\n  and\n  mul\n  or\n  swap1\n  sstore\n  pop\n    /* \"@openzeppelin/contracts/access/Ownable.sol\":3083:3091  newOwner */\n  dup2\n    /* \"@openzeppelin/contracts/access/Ownable.sol\":3052:3092  OwnershipTransferred(oldOwner, newOwner) */\n  0xffffffffffffffffffffffffffffffffffffffff\n  and\n    /* \"@openzeppelin/contracts/access/Ownable.sol\":3073:3081  oldOwner */\n  dup2\n    /* \"@openzeppelin/contracts/access/Ownable.sol\":3052:3092  OwnershipTransferred(oldOwner, newOwner) */\n  0xffffffffffffffffffffffffffffffffffffffff\n  and\n  0x8be0079c531659141344cd1fd0a4f28419497f9722a3daafe3b4186f6b6457e0\n  mload(0x40)\n  mload(0x40)\n  dup1\n  swap2\n  sub\n  swap1\n  log3\n    /* \"@openzeppelin/contracts/access/Ownable.sol\":2975:3099  {... */\n  pop\n    /* \"@openzeppelin/contracts/access/Ownable.sol\":2912:3099  function _transferOwnership(address newOwner) internal virtual {... */\n  pop\n  jump\t// out\n    /* \"#utility.yul\":7:82   */\ntag_52:\n    /* \"#utility.yul\":40:46   */\n  0x00\n    /* \"#utility.yul\":73:75   */\n  0x40\n    /* \"#utility.yul\":67:76   */\n  mload\n    /* \"#utility.yul\":57:76   */\n  swap1\n  pop\n    /* \"#utility.yul\":7:82   */\n  swap1\n  jump\t// out\n    /* \"#utility.yul\":88:205   */\ntag_53:\n    /* \"#utility.yul\":197:198   */\n  0x00\n    /* \"#utility.yul\":194:195   */\n  dup1\n    /* \"#utility.yul\":187:199   */\n  revert\n    /* \"#utility.yul\":211:328   */\ntag_54:\n    /* \"#utility.yul\":320:321   */\n  0x00\n    /* \"#utility.yul\":317:318   */\n  dup1\n    /* \"#utility.yul\":310:322   */\n  revert\n    /* \"#utility.yul\":334:460   */\ntag_55:\n    /* \"#utility.yul\":371:378   */\n  0x00\n    /* \"#utility.yul\":411:453   */\n  0xffffffffffffffffffffffffffffffffffffffff\n    /* \"#utility.yul\":404:409   */\n  dup3\n    /* \"#utility.yul\":400:454   */\n  and\n    /* \"#utility.yul\":389:454   */\n  swap1\n  pop\n    /* \"#utility.yul\":334:460   */\n  swap2\n  swap1\n  pop\n  jump\t// out\n    /* \"#utility.yul\":466:562   */\ntag_56:\n    /* \"#utility.yul\":503:510   */\n  0x00\n    /* \"#utility.yul\":532:556   */\n  tag_75\n    /* \"#utility.yul\":550:555   */\n  dup3\n    /* \"#utility.yul\":532:556   */\n  tag_55\n  jump\t// in\ntag_75:\n    /* \"#utility.yul\":521:556   */\n  swap1\n  pop\n    /* \"#utility.yul\":466:562   */\n  swap2\n  swap1\n  pop\n  jump\t// out\n    /* \"#utility.yul\":568:690   */\ntag_57:\n    /* \"#utility.yul\":641:665   */\n  tag_77\n    /* \"#utility.yul\":659:664   */\n  dup2\n    /* \"#utility.yul\":641:665   */\n  tag_56\n  jump\t// in\ntag_77:\n    /* \"#utility.yul\":634:639   */\n  dup2\n    /* \"#utility.yul\":631:666   */\n  eq\n    /* \"#utility.yul\":621:684   */\n  tag_78\n  jumpi\n    /* \"#utility.yul\":680:681   */\n  0x00\n    /* \"#utility.yul\":677:678   */\n  dup1\n    /* \"#utility.yul\":670:682   */\n  revert\n    /* \"#utility.yul\":621:684   */\ntag_78:\n    /* \"#utility.yul\":568:690   */\n  pop\n  jump\t// out\n    /* \"#utility.yul\":696:839   */\ntag_58:\n    /* \"#utility.yul\":753:758   */\n  0x00\n    /* \"#utility.yul\":784:790   */\n  dup2\n    /* \"#utility.yul\":778:791   */\n  mload\n    /* \"#utility.yul\":769:791   */\n  swap1\n  pop\n    /* \"#utility.yul\":800:833   */\n  tag_80\n    /* \"#utility.yul\":827:832   */\n  dup2\n    /* \"#utility.yul\":800:833   */\n  tag_57\n  jump\t// in\ntag_80:\n    /* \"#utility.yul\":696:839   */\n  swap3\n  swap2\n  pop\n  pop\n  jump\t// out\n    /* \"#utility.yul\":845:962   */\ntag_59:\n    /* \"#utility.yul\":954:955   */\n  0x00\n    /* \"#utility.yul\":951:952   */\n  dup1\n    /* \"#utility.yul\":944:956   */\n  revert\n    /* \"#utility.yul\":968:1070   */\ntag_60:\n    /* \"#utility.yul\":1009:1015   */\n  0x00\n    /* \"#utility.yul\":1060:1062   */\n  0x1f\n    /* \"#utility.yul\":1056:1063   */\n  not\n    /* \"#utility.yul\":1051:1053   */\n  0x1f\n    /* \"#utility.yul\":1044:1049   */\n  dup4\n    /* \"#utility.yul\":1040:1054   */\n  add\n    /* \"#utility.yul\":1036:1064   */\n  and\n    /* \"#utility.yul\":1026:1064   */\n  swap1\n  pop\n    /* \"#utility.yul\":968:1070   */\n  swap2\n  swap1\n  pop\n  jump\t// out\n    /* \"#utility.yul\":1076:1256   */\ntag_61:\n    /* \"#utility.yul\":1124:1201   */\n  0x4e487b7100000000000000000000000000000000000000000000000000000000\n    /* \"#utility.yul\":1121:1122   */\n  0x00\n    /* \"#utility.yul\":1114:1202   */\n  mstore\n    /* \"#utility.yul\":1221:1225   */\n  0x41\n    /* \"#utility.yul\":1218:1219   */\n  0x04\n    /* \"#utility.yul\":1211:1226   */\n  mstore\n    /* \"#utility.yul\":1245:1249   */\n  0x24\n    /* \"#utility.yul\":1242:1243   */\n  0x00\n    /* \"#utility.yul\":1235:1250   */\n  revert\n    /* \"#utility.yul\":1262:1543   */\ntag_62:\n    /* \"#utility.yul\":1345:1372   */\n  tag_85\n    /* \"#utility.yul\":1367:1371   */\n  dup3\n    /* \"#utility.yul\":1345:1372   */\n  tag_60\n  jump\t// in\ntag_85:\n    /* \"#utility.yul\":1337:1343   */\n  dup2\n    /* \"#utility.yul\":1333:1373   */\n  add\n    /* \"#utility.yul\":1475:1481   */\n  dup2\n    /* \"#utility.yul\":1463:1473   */\n  dup2\n    /* \"#utility.yul\":1460:1482   */\n  lt\n    /* \"#utility.yul\":1439:1457   */\n  0xffffffffffffffff\n    /* \"#utility.yul\":1427:1437   */\n  dup3\n    /* \"#utility.yul\":1424:1458   */\n  gt\n    /* \"#utility.yul\":1421:1483   */\n  or\n    /* \"#utility.yul\":1418:1506   */\n  iszero\n  tag_86\n  jumpi\n    /* \"#utility.yul\":1486:1504   */\n  tag_87\n  tag_61\n  jump\t// in\ntag_87:\n    /* \"#utility.yul\":1418:1506   */\ntag_86:\n    /* \"#utility.yul\":1526:1536   */\n  dup1\n    /* \"#utility.yul\":1522:1524   */\n  0x40\n    /* \"#utility.yul\":1515:1537   */\n  mstore\n    /* \"#utility.yul\":1305:1543   */\n  pop\n    /* \"#utility.yul\":1262:1543   */\n  pop\n  pop\n  jump\t// out\n    /* \"#utility.yul\":1549:1678   */\ntag_63:\n    /* \"#utility.yul\":1583:1589   */\n  0x00\n    /* \"#utility.yul\":1610:1630   */\n  tag_89\n  tag_52\n  jump\t// in\ntag_89:\n    /* \"#utility.yul\":1600:1630   */\n  swap1\n  pop\n    /* \"#utility.yul\":1639:1672   */\n  tag_90\n    /* \"#utility.yul\":1667:1671   */\n  dup3\n    /* \"#utility.yul\":1659:1665   */\n  dup3\n    /* \"#utility.yul\":1639:1672   */\n  tag_62\n  jump\t// in\ntag_90:\n    /* \"#utility.yul\":1549:1678   */\n  swap2\n  swap1\n  pop\n  jump\t// out\n    /* \"#utility.yul\":1684:1995   */\ntag_64:\n    /* \"#utility.yul\":1761:1765   */\n  0x00\n    /* \"#utility.yul\":1851:1869   */\n  0xffffffffffffffff\n    /* \"#utility.yul\":1843:1849   */\n  dup3\n    /* \"#utility.yul\":1840:1870   */\n  gt\n    /* \"#utility.yul\":1837:1893   */\n  iszero\n  tag_92\n  jumpi\n    /* \"#utility.yul\":1873:1891   */\n  tag_93\n  tag_61\n  jump\t// in\ntag_93:\n    /* \"#utility.yul\":1837:1893   */\ntag_92:\n    /* \"#utility.yul\":1923:1927   */\n  0x20\n    /* \"#utility.yul\":1915:1921   */\n  dup3\n    /* \"#utility.yul\":1911:1928   */\n  mul\n    /* \"#utility.yul\":1903:1928   */\n  swap1\n  pop\n    /* \"#utility.yul\":1983:1987   */\n  0x20\n    /* \"#utility.yul\":1977:1981   */\n  dup2\n    /* \"#utility.yul\":1973:1988   */\n  add\n    /* \"#utility.yul\":1965:1988   */\n  swap1\n  pop\n    /* \"#utility.yul\":1684:1995   */\n  swap2\n  swap1\n  pop\n  jump\t// out\n    /* \"#utility.yul\":2001:2118   */\ntag_65:\n    /* \"#utility.yul\":2110:2111   */\n  0x00\n    /* \"#utility.yul\":2107:2108   */\n  dup1\n    /* \"#utility.yul\":2100:2112   */\n  revert\n    /* \"#utility.yul\":2141:2873   */\ntag_66:\n    /* \"#utility.yul\":2248:2253   */\n  0x00\n    /* \"#utility.yul\":2273:2354   */\n  tag_96\n    /* \"#utility.yul\":2289:2353   */\n  tag_97\n    /* \"#utility.yul\":2346:2352   */\n  dup5\n    /* \"#utility.yul\":2289:2353   */\n  tag_64\n  jump\t// in\ntag_97:\n    /* \"#utility.yul\":2273:2354   */\n  tag_63\n  jump\t// in\ntag_96:\n    /* \"#utility.yul\":2264:2354   */\n  swap1\n  pop\n    /* \"#utility.yul\":2374:2379   */\n  dup1\n    /* \"#utility.yul\":2403:2409   */\n  dup4\n    /* \"#utility.yul\":2396:2401   */\n  dup3\n    /* \"#utility.yul\":2389:2410   */\n  mstore\n    /* \"#utility.yul\":2437:2441   */\n  0x20\n    /* \"#utility.yul\":2430:2435   */\n  dup3\n    /* \"#utility.yul\":2426:2442   */\n  add\n    /* \"#utility.yul\":2419:2442   */\n  swap1\n  pop\n    /* \"#utility.yul\":2490:2494   */\n  0x20\n    /* \"#utility.yul\":2482:2488   */\n  dup5\n    /* \"#utility.yul\":2478:2495   */\n  mul\n    /* \"#utility.yul\":2470:2476   */\n  dup4\n    /* \"#utility.yul\":2466:2496   */\n  add\n    /* \"#utility.yul\":2519:2522   */\n  dup6\n    /* \"#utility.yul\":2511:2517   */\n  dup2\n    /* \"#utility.yul\":2508:2523   */\n  gt\n    /* \"#utility.yul\":2505:2627   */\n  iszero\n  tag_98\n  jumpi\n    /* \"#utility.yul\":2538:2617   */\n  tag_99\n  tag_65\n  jump\t// in\ntag_99:\n    /* \"#utility.yul\":2505:2627   */\ntag_98:\n    /* \"#utility.yul\":2653:2659   */\n  dup4\n    /* \"#utility.yul\":2636:2867   */\ntag_100:\n    /* \"#utility.yul\":2670:2676   */\n  dup2\n    /* \"#utility.yul\":2665:2668   */\n  dup2\n    /* \"#utility.yul\":2662:2677   */\n  lt\n    /* \"#utility.yul\":2636:2867   */\n  iszero\n  tag_102\n  jumpi\n    /* \"#utility.yul\":2745:2748   */\n  dup1\n    /* \"#utility.yul\":2774:2822   */\n  tag_103\n    /* \"#utility.yul\":2818:2821   */\n  dup9\n    /* \"#utility.yul\":2806:2816   */\n  dup3\n    /* \"#utility.yul\":2774:2822   */\n  tag_58\n  jump\t// in\ntag_103:\n    /* \"#utility.yul\":2769:2772   */\n  dup5\n    /* \"#utility.yul\":2762:2823   */\n  mstore\n    /* \"#utility.yul\":2852:2856   */\n  0x20\n    /* \"#utility.yul\":2847:2850   */\n  dup5\n    /* \"#utility.yul\":2843:2857   */\n  add\n    /* \"#utility.yul\":2836:2857   */\n  swap4\n  pop\n    /* \"#utility.yul\":2712:2867   */\n  pop\n    /* \"#utility.yul\":2696:2700   */\n  0x20\n    /* \"#utility.yul\":2691:2694   */\n  dup2\n    /* \"#utility.yul\":2687:2701   */\n  add\n    /* \"#utility.yul\":2680:2701   */\n  swap1\n  pop\n    /* \"#utility.yul\":2636:2867   */\n  jump(tag_100)\ntag_102:\n    /* \"#utility.yul\":2640:2661   */\n  pop\n    /* \"#utility.yul\":2254:2873   */\n  pop\n  pop\n    /* \"#utility.yul\":2141:2873   */\n  swap4\n  swap3\n  pop\n  pop\n  pop\n  jump\t// out\n    /* \"#utility.yul\":2896:3281   */\ntag_67:\n    /* \"#utility.yul\":2978:2983   */\n  0x00\n    /* \"#utility.yul\":3027:3030   */\n  dup3\n    /* \"#utility.yul\":3020:3024   */\n  0x1f\n    /* \"#utility.yul\":3012:3018   */\n  dup4\n    /* \"#utility.yul\":3008:3025   */\n  add\n    /* \"#utility.yul\":3004:3031   */\n  slt\n    /* \"#utility.yul\":2994:3116   */\n  tag_105\n  jumpi\n    /* \"#utility.yul\":3035:3114   */\n  tag_106\n  tag_59\n  jump\t// in\ntag_106:\n    /* \"#utility.yul\":2994:3116   */\ntag_105:\n    /* \"#utility.yul\":3145:3151   */\n  dup2\n    /* \"#utility.yul\":3139:3152   */\n  mload\n    /* \"#utility.yul\":3170:3275   */\n  tag_107\n    /* \"#utility.yul\":3271:3274   */\n  dup5\n    /* \"#utility.yul\":3263:3269   */\n  dup3\n    /* \"#utility.yul\":3256:3260   */\n  0x20\n    /* \"#utility.yul\":3248:3254   */\n  dup7\n    /* \"#utility.yul\":3244:3261   */\n  add\n    /* \"#utility.yul\":3170:3275   */\n  tag_66\n  jump\t// in\ntag_107:\n    /* \"#utility.yul\":3161:3275   */\n  swap2\n  pop\n    /* \"#utility.yul\":2984:3281   */\n  pop\n    /* \"#utility.yul\":2896:3281   */\n  swap3\n  swap2\n  pop\n  pop\n  jump\t// out\n    /* \"#utility.yul\":3287:4513   */\ntag_3:\n    /* \"#utility.yul\":3434:3440   */\n  0x00\n    /* \"#utility.yul\":3442:3448   */\n  dup1\n    /* \"#utility.yul\":3450:3456   */\n  0x00\n    /* \"#utility.yul\":3458:3464   */\n  dup1\n    /* \"#utility.yul\":3507:3510   */\n  0x80\n    /* \"#utility.yul\":3495:3504   */\n  dup6\n    /* \"#utility.yul\":3486:3493   */\n  dup8\n    /* \"#utility.yul\":3482:3505   */\n  sub\n    /* \"#utility.yul\":3478:3511   */\n  slt\n    /* \"#utility.yul\":3475:3595   */\n  iszero\n  tag_109\n  jumpi\n    /* \"#utility.yul\":3514:3593   */\n  tag_110\n  tag_53\n  jump\t// in\ntag_110:\n    /* \"#utility.yul\":3475:3595   */\ntag_109:\n    /* \"#utility.yul\":3634:3635   */\n  0x00\n    /* \"#utility.yul\":3659:3723   */\n  tag_111\n    /* \"#utility.yul\":3715:3722   */\n  dup8\n    /* \"#utility.yul\":3706:3712   */\n  dup3\n    /* \"#utility.yul\":3695:3704   */\n  dup9\n    /* \"#utility.yul\":3691:3713   */\n  add\n    /* \"#utility.yul\":3659:3723   */\n  tag_58\n  jump\t// in\ntag_111:\n    /* \"#utility.yul\":3649:3723   */\n  swap5\n  pop\n    /* \"#utility.yul\":3605:3733   */\n  pop\n    /* \"#utility.yul\":3772:3774   */\n  0x20\n    /* \"#utility.yul\":3798:3862   */\n  tag_112\n    /* \"#utility.yul\":3854:3861   */\n  dup8\n    /* \"#utility.yul\":3845:3851   */\n  dup3\n    /* \"#utility.yul\":3834:3843   */\n  dup9\n    /* \"#utility.yul\":3830:3852   */\n  add\n    /* \"#utility.yul\":3798:3862   */\n  tag_58\n  jump\t// in\ntag_112:\n    /* \"#utility.yul\":3788:3862   */\n  swap4\n  pop\n    /* \"#utility.yul\":3743:3872   */\n  pop\n    /* \"#utility.yul\":3932:3934   */\n  0x40\n    /* \"#utility.yul\":3921:3930   */\n  dup6\n    /* \"#utility.yul\":3917:3935   */\n  add\n    /* \"#utility.yul\":3911:3936   */\n  mload\n    /* \"#utility.yul\":3963:3981   */\n  0xffffffffffffffff\n    /* \"#utility.yul\":3955:3961   */\n  dup2\n    /* \"#utility.yul\":3952:3982   */\n  gt\n    /* \"#utility.yul\":3949:4066   */\n  iszero\n  tag_113\n  jumpi\n    /* \"#utility.yul\":3985:4064   */\n  tag_114\n  tag_54\n  jump\t// in\ntag_114:\n    /* \"#utility.yul\":3949:4066   */\ntag_113:\n    /* \"#utility.yul\":4090:4179   */\n  tag_115\n    /* \"#utility.yul\":4171:4178   */\n  dup8\n    /* \"#utility.yul\":4162:4168   */\n  dup3\n    /* \"#utility.yul\":4151:4160   */\n  dup9\n    /* \"#utility.yul\":4147:4169   */\n  add\n    /* \"#utility.yul\":4090:4179   */\n  tag_67\n  jump\t// in\ntag_115:\n    /* \"#utility.yul\":4080:4179   */\n  swap3\n  pop\n    /* \"#utility.yul\":3882:4189   */\n  pop\n    /* \"#utility.yul\":4249:4251   */\n  0x60\n    /* \"#utility.yul\":4238:4247   */\n  dup6\n    /* \"#utility.yul\":4234:4252   */\n  add\n    /* \"#utility.yul\":4228:4253   */\n  mload\n    /* \"#utility.yul\":4280:4298   */\n  0xffffffffffffffff\n    /* \"#utility.yul\":4272:4278   */\n  dup2\n    /* \"#utility.yul\":4269:4299   */\n  gt\n    /* \"#utility.yul\":4266:4383   */\n  iszero\n  tag_116\n  jumpi\n    /* \"#utility.yul\":4302:4381   */\n  tag_117\n  tag_54\n  jump\t// in\ntag_117:\n    /* \"#utility.yul\":4266:4383   */\ntag_116:\n    /* \"#utility.yul\":4407:4496   */\n  tag_118\n    /* \"#utility.yul\":4488:4495   */\n  dup8\n    /* \"#utility.yul\":4479:4485   */\n  dup3\n    /* \"#utility.yul\":4468:4477   */\n  dup9\n    /* \"#utility.yul\":4464:4486   */\n  add\n    /* \"#utility.yul\":4407:4496   */\n  tag_67\n  jump\t// in\ntag_118:\n    /* \"#utility.yul\":4397:4496   */\n  swap2\n  pop\n    /* \"#utility.yul\":4199:4506   */\n  pop\n    /* \"#utility.yul\":3287:4513   */\n  swap3\n  swap6\n  swap2\n  swap5\n  pop\n  swap3\n  pop\n  jump\t// out\n    /* \"#utility.yul\":4519:4637   */\ntag_68:\n    /* \"#utility.yul\":4606:4630   */\n  tag_120\n    /* \"#utility.yul\":4624:4629   */\n  dup2\n    /* \"#utility.yul\":4606:4630   */\n  tag_56\n  jump\t// in\ntag_120:\n    /* \"#utility.yul\":4601:4604   */\n  dup3\n    /* \"#utility.yul\":4594:4631   */\n  mstore\n    /* \"#utility.yul\":4519:4637   */\n  pop\n  pop\n  jump\t// out\n    /* \"#utility.yul\":4643:4865   */\ntag_10:\n    /* \"#utility.yul\":4736:4740   */\n  0x00\n    /* \"#utility.yul\":4774:4776   */\n  0x20\n    /* \"#utility.yul\":4763:4772   */\n  dup3\n    /* \"#utility.yul\":4759:4777   */\n  add\n    /* \"#utility.yul\":4751:4777   */\n  swap1\n  pop\n    /* \"#utility.yul\":4787:4858   */\n  tag_122\n    /* \"#utility.yul\":4855:4856   */\n  0x00\n    /* \"#utility.yul\":4844:4853   */\n  dup4\n    /* \"#utility.yul\":4840:4857   */\n  add\n    /* \"#utility.yul\":4831:4837   */\n  dup5\n    /* \"#utility.yul\":4787:4858   */\n  tag_68\n  jump\t// in\ntag_122:\n    /* \"#utility.yul\":4643:4865   */\n  swap3\n  swap2\n  pop\n  pop\n  jump\t// out\n    /* \"#utility.yul\":4871:5051   */\ntag_20:\n    /* \"#utility.yul\":4919:4996   */\n  0x4e487b7100000000000000000000000000000000000000000000000000000000\n    /* \"#utility.yul\":4916:4917   */\n  0x00\n    /* \"#utility.yul\":4909:4997   */\n  mstore\n    /* \"#utility.yul\":5016:5020   */\n  0x32\n    /* \"#utility.yul\":5013:5014   */\n  0x04\n    /* \"#utility.yul\":5006:5021   */\n  mstore\n    /* \"#utility.yul\":5040:5044   */\n  0x24\n    /* \"#utility.yul\":5037:5038   */\n  0x00\n    /* \"#utility.yul\":5030:5045   */\n  revert\n    /* \"#utility.yul\":5057:5237   */\ntag_30:\n    /* \"#utility.yul\":5105:5182   */\n  0x4e487b7100000000000000000000000000000000000000000000000000000000\n    /* \"#utility.yul\":5102:5103   */\n  0x00\n    /* \"#utility.yul\":5095:5183   */\n  mstore\n    /* \"#utility.yul\":5202:5206   */\n  0x21\n    /* \"#utility.yul\":5199:5200   */\n  0x04\n    /* \"#utility.yul\":5192:5207   */\n  mstore\n    /* \"#utility.yul\":5226:5230   */\n  0x24\n    /* \"#utility.yul\":5223:5224   */\n  0x00\n    /* \"#utility.yul\":5216:5231   */\n  revert\n    /* \"contracts/ICO.sol\":232:7625  contract ICO is Ownable(msg.sender), ReentrancyGuard {... */\ntag_50:\n  dataSize(sub_0)\n  dup1\n  dataOffset(sub_0)\n  0x00\n  codecopy\n  0x00\n  return\nstop\n\nsub_0: assembly {\n        /* \"contracts/ICO.sol\":232:7625  contract ICO is Ownable(msg.sender), ReentrancyGuard {... */\n      mstore(0x40, 0x80)\n      jumpi(tag_1, lt(calldatasize, 0x04))\n      shr(0xe0, calldataload(0x00))\n      dup1\n      0x845ddcb2\n      gt\n      tag_19\n      jumpi\n      dup1\n      0xb0f2d266\n      gt\n      tag_20\n      jumpi\n      dup1\n      0xb0f2d266\n      eq\n      tag_14\n      jumpi\n      dup1\n      0xc625e9b1\n      eq\n      tag_15\n      jumpi\n      dup1\n      0xf2fde38b\n      eq\n      tag_16\n      jumpi\n      dup1\n      0xf7c899a1\n      eq\n      tag_17\n      jumpi\n      dup1\n      0xfd8ce085\n      eq\n      tag_18\n      jumpi\n      jump(tag_1)\n    tag_20:\n      dup1\n      0x845ddcb2\n      eq\n      tag_10\n      jumpi\n      dup1\n      0x8da5cb5b\n      eq\n      tag_11\n      jumpi\n      dup1\n      0x9f1465e0\n      eq\n      tag_12\n      jumpi\n      dup1\n      0xa960c65f\n      eq\n      tag_13\n      jumpi\n      jump(tag_1)\n    tag_19:\n      dup1\n      0x5bf5d54c\n      gt\n      tag_21\n      jumpi\n      dup1\n      0x5bf5d54c\n      eq\n      tag_6\n      jumpi\n      dup1\n      0x63b20117\n      eq\n      tag_7\n      jumpi\n      dup1\n      0x715018a6\n      eq\n      tag_8\n      jumpi\n      dup1\n      0x842a77d3\n      eq\n      tag_9\n      jumpi\n      jump(tag_1)\n    tag_21:\n      dup1\n      0x151f65e4\n      eq\n      tag_2\n      jumpi\n      dup1\n      0x15a23518\n      eq\n      tag_3\n      jumpi\n      dup1\n      0x3dee0397\n      eq\n      tag_4\n      jumpi\n      dup1\n      0x48c54b9d\n      eq\n      tag_5\n      jumpi\n    tag_1:\n      0x00\n      dup1\n      revert\n        /* \"contracts/ICO.sol\":1068:1124  mapping(address => uint256) public purchasesInStableCoin */\n    tag_2:\n      callvalue\n      dup1\n      iszero\n      tag_22\n      jumpi\n      0x00\n      dup1\n      revert\n    tag_22:\n      pop\n      tag_23\n      0x04\n      dup1\n      calldatasize\n      sub\n      dup2\n      add\n      swap1\n      tag_24\n      swap2\n      swap1\n      tag_25\n      jump\t// in\n    tag_24:\n      tag_26\n      jump\t// in\n    tag_23:\n      mload(0x40)\n      tag_27\n      swap2\n      swap1\n      tag_28\n      jump\t// in\n    tag_27:\n      mload(0x40)\n      dup1\n      swap2\n      sub\n      swap1\n      return\n        /* \"contracts/ICO.sol\":1267:1302  address[] public whitelistedPartner */\n    tag_3:\n      callvalue\n      dup1\n      iszero\n      tag_29\n      jumpi\n      0x00\n      dup1\n      revert\n    tag_29:\n      pop\n      tag_30\n      0x04\n      dup1\n      calldatasize\n      sub\n      dup2\n      add\n      swap1\n      tag_31\n      swap2\n      swap1\n      tag_32\n      jump\t// in\n    tag_31:\n      tag_33\n      jump\t// in\n    tag_30:\n      mload(0x40)\n      tag_34\n      swap2\n      swap1\n      tag_35\n      jump\t// in\n    tag_34:\n      mload(0x40)\n      dup1\n      swap2\n      sub\n      swap1\n      return\n        /* \"contracts/ICO.sol\":861:908  mapping(address => uint256) public vestedTokens */\n    tag_4:\n      callvalue\n      dup1\n      iszero\n      tag_36\n      jumpi\n      0x00\n      dup1\n      revert\n    tag_36:\n      pop\n      tag_37\n      0x04\n      dup1\n      calldatasize\n      sub\n      dup2\n      add\n      swap1\n      tag_38\n      swap2\n      swap1\n      tag_25\n      jump\t// in\n    tag_38:\n      tag_39\n      jump\t// in\n    tag_37:\n      mload(0x40)\n      tag_40\n      swap2\n      swap1\n      tag_28\n      jump\t// in\n    tag_40:\n      mload(0x40)\n      dup1\n      swap2\n      sub\n      swap1\n      return\n        /* \"contracts/ICO.sol\":4985:6699  function claimTokens() external nonReentrant {... */\n    tag_5:\n      callvalue\n      dup1\n      iszero\n      tag_41\n      jumpi\n      0x00\n      dup1\n      revert\n    tag_41:\n      pop\n      tag_42\n      tag_43\n      jump\t// in\n    tag_42:\n      stop\n        /* \"contracts/ICO.sol\":1167:1192  uint8 public currentStage */\n    tag_6:\n      callvalue\n      dup1\n      iszero\n      tag_44\n      jumpi\n      0x00\n      dup1\n      revert\n    tag_44:\n      pop\n      tag_45\n      tag_46\n      jump\t// in\n    tag_45:\n      mload(0x40)\n      tag_47\n      swap2\n      swap1\n      tag_48\n      jump\t// in\n    tag_47:\n      mload(0x40)\n      dup1\n      swap2\n      sub\n      swap1\n      return\n        /* \"contracts/ICO.sol\":1131:1161  uint256 public totalTokensSold */\n    tag_7:\n      callvalue\n      dup1\n      iszero\n      tag_49\n      jumpi\n      0x00\n      dup1\n      revert\n    tag_49:\n      pop\n      tag_50\n      tag_51\n      jump\t// in\n    tag_50:\n      mload(0x40)\n      tag_52\n      swap2\n      swap1\n      tag_28\n      jump\t// in\n    tag_52:\n      mload(0x40)\n      dup1\n      swap2\n      sub\n      swap1\n      return\n        /* \"@openzeppelin/contracts/access/Ownable.sol\":2293:2394  function renounceOwnership() public virtual onlyOwner {... */\n    tag_8:\n      callvalue\n      dup1\n      iszero\n      tag_53\n      jumpi\n      0x00\n      dup1\n      revert\n    tag_53:\n      pop\n      tag_54\n      tag_55\n      jump\t// in\n    tag_54:\n      stop\n        /* \"contracts/ICO.sol\":968:1012  mapping(address => uint256) public purchases */\n    tag_9:\n      callvalue\n      dup1\n      iszero\n      tag_56\n      jumpi\n      0x00\n      dup1\n      revert\n    tag_56:\n      pop\n      tag_57\n      0x04\n      dup1\n      calldatasize\n      sub\n      dup2\n      add\n      swap1\n      tag_58\n      swap2\n      swap1\n      tag_25\n      jump\t// in\n    tag_58:\n      tag_59\n      jump\t// in\n    tag_57:\n      mload(0x40)\n      tag_60\n      swap2\n      swap1\n      tag_28\n      jump\t// in\n    tag_60:\n      mload(0x40)\n      dup1\n      swap2\n      sub\n      swap1\n      return\n        /* \"contracts/ICO.sol\":833:855  Stage[3] public stages */\n    tag_10:\n      callvalue\n      dup1\n      iszero\n      tag_61\n      jumpi\n      0x00\n      dup1\n      revert\n    tag_61:\n      pop\n      tag_62\n      0x04\n      dup1\n      calldatasize\n      sub\n      dup2\n      add\n      swap1\n      tag_63\n      swap2\n      swap1\n      tag_32\n      jump\t// in\n    tag_63:\n      tag_64\n      jump\t// in\n    tag_62:\n      mload(0x40)\n      tag_65\n      swap10\n      swap9\n      swap8\n      swap7\n      swap6\n      swap5\n      swap4\n      swap3\n      swap2\n      swap1\n      tag_66\n      jump\t// in\n    tag_65:\n      mload(0x40)\n      dup1\n      swap2\n      sub\n      swap1\n      return\n        /* \"@openzeppelin/contracts/access/Ownable.sol\":1638:1723  function owner() public view virtual returns (address) {... */\n    tag_11:\n      callvalue\n      dup1\n      iszero\n      tag_67\n      jumpi\n      0x00\n      dup1\n      revert\n    tag_67:\n      pop\n      tag_68\n      tag_69\n      jump\t// in\n    tag_68:\n      mload(0x40)\n      tag_70\n      swap2\n      swap1\n      tag_35\n      jump\t// in\n    tag_70:\n      mload(0x40)\n      dup1\n      swap2\n      sub\n      swap1\n      return\n        /* \"contracts/ICO.sol\":1223:1261  address[] public investors_and_partner */\n    tag_12:\n      callvalue\n      dup1\n      iszero\n      tag_71\n      jumpi\n      0x00\n      dup1\n      revert\n    tag_71:\n      pop\n      tag_72\n      0x04\n      dup1\n      calldatasize\n      sub\n      dup2\n      add\n      swap1\n      tag_73\n      swap2\n      swap1\n      tag_32\n      jump\t// in\n    tag_73:\n      tag_74\n      jump\t// in\n    tag_72:\n      mload(0x40)\n      tag_75\n      swap2\n      swap1\n      tag_35\n      jump\t// in\n    tag_75:\n      mload(0x40)\n      dup1\n      swap2\n      sub\n      swap1\n      return\n        /* \"contracts/ICO.sol\":914:962  mapping(address => uint256) public claimedTokens */\n    tag_13:\n      callvalue\n      dup1\n      iszero\n      tag_76\n      jumpi\n      0x00\n      dup1\n      revert\n    tag_76:\n      pop\n      tag_77\n      0x04\n      dup1\n      calldatasize\n      sub\n      dup2\n      add\n      swap1\n      tag_78\n      swap2\n      swap1\n      tag_25\n      jump\t// in\n    tag_78:\n      tag_79\n      jump\t// in\n    tag_77:\n      mload(0x40)\n      tag_80\n      swap2\n      swap1\n      tag_28\n      jump\t// in\n    tag_80:\n      mload(0x40)\n      dup1\n      swap2\n      sub\n      swap1\n      return\n        /* \"contracts/ICO.sol\":320:355  address public IcoAllocationAddress */\n    tag_14:\n      callvalue\n      dup1\n      iszero\n      tag_81\n      jumpi\n      0x00\n      dup1\n      revert\n    tag_81:\n      pop\n      tag_82\n      tag_83\n      jump\t// in\n    tag_82:\n      mload(0x40)\n      tag_84\n      swap2\n      swap1\n      tag_35\n      jump\t// in\n    tag_84:\n      mload(0x40)\n      dup1\n      swap2\n      sub\n      swap1\n      return\n        /* \"contracts/ICO.sol\":3187:4938  function buyTokens(uint256 amount, address stablecoin)... */\n    tag_15:\n      tag_85\n      0x04\n      dup1\n      calldatasize\n      sub\n      dup2\n      add\n      swap1\n      tag_86\n      swap2\n      swap1\n      tag_87\n      jump\t// in\n    tag_86:\n      tag_88\n      jump\t// in\n    tag_85:\n      stop\n        /* \"@openzeppelin/contracts/access/Ownable.sol\":2543:2758  function transferOwnership(address newOwner) public virtual onlyOwner {... */\n    tag_16:\n      callvalue\n      dup1\n      iszero\n      tag_89\n      jumpi\n      0x00\n      dup1\n      revert\n    tag_89:\n      pop\n      tag_90\n      0x04\n      dup1\n      calldatasize\n      sub\n      dup2\n      add\n      swap1\n      tag_91\n      swap2\n      swap1\n      tag_25\n      jump\t// in\n    tag_91:\n      tag_92\n      jump\t// in\n    tag_90:\n      stop\n        /* \"contracts/ICO.sol\":291:314  IERC20 public xoraToken */\n    tag_17:\n      callvalue\n      dup1\n      iszero\n      tag_93\n      jumpi\n      0x00\n      dup1\n      revert\n    tag_93:\n      pop\n      tag_94\n      tag_95\n      jump\t// in\n    tag_94:\n      mload(0x40)\n      tag_96\n      swap2\n      swap1\n      tag_97\n      jump\t// in\n    tag_96:\n      mload(0x40)\n      dup1\n      swap2\n      sub\n      swap1\n      return\n        /* \"contracts/ICO.sol\":6705:7070  function widthdrawfunds(address stablecoin, uint256 amount)... */\n    tag_18:\n      callvalue\n      dup1\n      iszero\n      tag_98\n      jumpi\n      0x00\n      dup1\n      revert\n    tag_98:\n      pop\n      tag_99\n      0x04\n      dup1\n      calldatasize\n      sub\n      dup2\n      add\n      swap1\n      tag_100\n      swap2\n      swap1\n      tag_101\n      jump\t// in\n    tag_100:\n      tag_102\n      jump\t// in\n    tag_99:\n      stop\n        /* \"contracts/ICO.sol\":1068:1124  mapping(address => uint256) public purchasesInStableCoin */\n    tag_26:\n      mstore(0x20, 0x23)\n      dup1\n      0x00\n      mstore\n      keccak256(0x00, 0x40)\n      0x00\n      swap2\n      pop\n      swap1\n      pop\n      sload\n      dup2\n      jump\t// out\n        /* \"contracts/ICO.sol\":1267:1302  address[] public whitelistedPartner */\n    tag_33:\n      0x27\n      dup2\n      dup2\n      sload\n      dup2\n      lt\n      tag_103\n      jumpi\n      0x00\n      dup1\n      revert\n    tag_103:\n      swap1\n      0x00\n      mstore\n      keccak256(0x00, 0x20)\n      add\n      0x00\n      swap2\n      pop\n      sload\n      swap1\n      0x0100\n      exp\n      swap1\n      div\n      0xffffffffffffffffffffffffffffffffffffffff\n      and\n      dup2\n      jump\t// out\n        /* \"contracts/ICO.sol\":861:908  mapping(address => uint256) public vestedTokens */\n    tag_39:\n      mstore(0x20, 0x1f)\n      dup1\n      0x00\n      mstore\n      keccak256(0x00, 0x40)\n      0x00\n      swap2\n      pop\n      swap1\n      pop\n      sload\n      dup2\n      jump\t// out\n        /* \"contracts/ICO.sol\":4985:6699  function claimTokens() external nonReentrant {... */\n    tag_43:\n        /* \"@openzeppelin/contracts/security/ReentrancyGuard.sol\":2261:2282  _nonReentrantBefore() */\n      tag_106\n        /* \"@openzeppelin/contracts/security/ReentrancyGuard.sol\":2261:2280  _nonReentrantBefore */\n      tag_107\n        /* \"@openzeppelin/contracts/security/ReentrancyGuard.sol\":2261:2282  _nonReentrantBefore() */\n      jump\t// in\n    tag_106:\n        /* \"contracts/ICO.sol\":5040:5062  uint256 totalPurchased */\n      0x00\n        /* \"contracts/ICO.sol\":5065:5081  initialPurchased */\n      0x22\n        /* \"contracts/ICO.sol\":5065:5093  initialPurchased[msg.sender] */\n      0x00\n        /* \"contracts/ICO.sol\":5082:5092  msg.sender */\n      caller\n        /* \"contracts/ICO.sol\":5065:5093  initialPurchased[msg.sender] */\n      0xffffffffffffffffffffffffffffffffffffffff\n      and\n      0xffffffffffffffffffffffffffffffffffffffff\n      and\n      dup2\n      mstore\n      0x20\n      add\n      swap1\n      dup2\n      mstore\n      0x20\n      add\n      0x00\n      keccak256\n      sload\n        /* \"contracts/ICO.sol\":5040:5093  uint256 totalPurchased = initialPurchased[msg.sender] */\n      swap1\n      pop\n        /* \"contracts/ICO.sol\":5128:5129  0 */\n      0x00\n        /* \"contracts/ICO.sol\":5111:5125  totalPurchased */\n      dup2\n        /* \"contracts/ICO.sol\":5111:5129  totalPurchased > 0 */\n      gt\n        /* \"contracts/ICO.sol\":5103:5165  require(totalPurchased > 0, \"No tokens available for release\") */\n      tag_109\n      jumpi\n      mload(0x40)\n      0x08c379a000000000000000000000000000000000000000000000000000000000\n      dup2\n      mstore\n      0x04\n      add\n      tag_110\n      swap1\n      tag_111\n      jump\t// in\n    tag_110:\n      mload(0x40)\n      dup1\n      swap2\n      sub\n      swap1\n      revert\n    tag_109:\n        /* \"contracts/ICO.sol\":5176:5195  Stage storage stage */\n      0x00\n        /* \"contracts/ICO.sol\":5198:5204  stages */\n      0x04\n        /* \"contracts/ICO.sol\":5205:5217  claimedStage */\n      0x25\n      0x01\n      swap1\n      sload\n      swap1\n      0x0100\n      exp\n      swap1\n      div\n      0xff\n      and\n        /* \"contracts/ICO.sol\":5198:5218  stages[claimedStage] */\n      0xff\n      and\n      0x03\n      dup2\n      lt\n      tag_112\n      jumpi\n      tag_113\n      tag_114\n      jump\t// in\n    tag_113:\n    tag_112:\n      0x09\n      mul\n      add\n        /* \"contracts/ICO.sol\":5176:5218  Stage storage stage = stages[claimedStage] */\n      swap1\n      pop\n        /* \"contracts/ICO.sol\":5286:5291  stage */\n      dup1\n        /* \"contracts/ICO.sol\":5286:5297  stage.cliff */\n      0x04\n      add\n      sload\n        /* \"contracts/ICO.sol\":5268:5273  stage */\n      dup2\n        /* \"contracts/ICO.sol\":5268:5283  stage.startTime */\n      0x08\n      add\n      sload\n        /* \"contracts/ICO.sol\":5268:5297  stage.startTime + stage.cliff */\n      tag_116\n      swap2\n      swap1\n      tag_117\n      jump\t// in\n    tag_116:\n        /* \"contracts/ICO.sol\":5249:5264  block.timestamp */\n      timestamp\n        /* \"contracts/ICO.sol\":5249:5297  block.timestamp >= stage.startTime + stage.cliff */\n      lt\n      iszero\n        /* \"contracts/ICO.sol\":5228:5348  require(... */\n      tag_118\n      jumpi\n      mload(0x40)\n      0x08c379a000000000000000000000000000000000000000000000000000000000\n      dup2\n      mstore\n      0x04\n      add\n      tag_119\n      swap1\n      tag_120\n      jump\t// in\n    tag_119:\n      mload(0x40)\n      dup1\n      swap2\n      sub\n      swap1\n      revert\n    tag_118:\n        /* \"contracts/ICO.sol\":5359:5378  uint256 elapsedTime */\n      0x00\n        /* \"contracts/ICO.sol\":5418:5423  stage */\n      dup2\n        /* \"contracts/ICO.sol\":5418:5429  stage.cliff */\n      0x04\n      add\n      sload\n        /* \"contracts/ICO.sol\":5400:5405  stage */\n      dup3\n        /* \"contracts/ICO.sol\":5400:5415  stage.startTime */\n      0x08\n      add\n      sload\n        /* \"contracts/ICO.sol\":5400:5429  stage.startTime + stage.cliff */\n      tag_121\n      swap2\n      swap1\n      tag_117\n      jump\t// in\n    tag_121:\n        /* \"contracts/ICO.sol\":5381:5396  block.timestamp */\n      timestamp\n        /* \"contracts/ICO.sol\":5381:5430  block.timestamp - (stage.startTime + stage.cliff) */\n      tag_122\n      swap2\n      swap1\n      tag_123\n      jump\t// in\n    tag_122:\n        /* \"contracts/ICO.sol\":5359:5430  uint256 elapsedTime = block.timestamp - (stage.startTime + stage.cliff) */\n      swap1\n      pop\n        /* \"contracts/ICO.sol\":5440:5460  uint256 vestedAmount */\n      0x00\n        /* \"contracts/ICO.sol\":5491:5492  0 */\n      dup1\n        /* \"contracts/ICO.sol\":5475:5487  claimedStage */\n      0x25\n      0x01\n      swap1\n      sload\n      swap1\n      0x0100\n      exp\n      swap1\n      div\n      0xff\n      and\n        /* \"contracts/ICO.sol\":5475:5492  claimedStage == 0 */\n      0xff\n      and\n      sub\n        /* \"contracts/ICO.sol\":5471:6226  if (claimedStage == 0) {... */\n      tag_124\n      jumpi\n        /* \"contracts/ICO.sol\":5611:5639  uint256 totalVestingDuration */\n      0x00\n        /* \"contracts/ICO.sol\":5642:5654  10 * 30 days */\n      0x018b8200\n        /* \"contracts/ICO.sol\":5611:5654  uint256 totalVestingDuration = 10 * 30 days */\n      swap1\n      pop\n        /* \"contracts/ICO.sol\":5787:5807  totalVestingDuration */\n      dup1\n        /* \"contracts/ICO.sol\":5756:5767  elapsedTime */\n      dup4\n        /* \"contracts/ICO.sol\":5739:5753  totalPurchased */\n      dup7\n        /* \"contracts/ICO.sol\":5739:5767  totalPurchased * elapsedTime */\n      tag_125\n      swap2\n      swap1\n      tag_126\n      jump\t// in\n    tag_125:\n        /* \"contracts/ICO.sol\":5738:5807  (totalPurchased * elapsedTime) /... */\n      tag_127\n      swap2\n      swap1\n      tag_128\n      jump\t// in\n    tag_127:\n        /* \"contracts/ICO.sol\":5707:5807  vestedAmount =... */\n      swap2\n      pop\n        /* \"contracts/ICO.sol\":5494:5818  {... */\n      pop\n        /* \"contracts/ICO.sol\":5471:6226  if (claimedStage == 0) {... */\n      jump(tag_129)\n    tag_124:\n        /* \"contracts/ICO.sol\":5844:5845  1 */\n      0x01\n        /* \"contracts/ICO.sol\":5828:5840  claimedStage */\n      0x25\n      0x01\n      swap1\n      sload\n      swap1\n      0x0100\n      exp\n      swap1\n      div\n      0xff\n      and\n        /* \"contracts/ICO.sol\":5828:5845  claimedStage == 1 */\n      0xff\n      and\n      sub\n        /* \"contracts/ICO.sol\":5824:6226  if (claimedStage == 1) {... */\n      tag_130\n      jumpi\n        /* \"contracts/ICO.sol\":5861:5889  uint256 totalVestingDuration */\n      0x00\n        /* \"contracts/ICO.sol\":5892:5903  6 * 30 days */\n      0xed4e00\n        /* \"contracts/ICO.sol\":5861:5903  uint256 totalVestingDuration = 6 * 30 days */\n      swap1\n      pop\n        /* \"contracts/ICO.sol\":6035:6055  totalVestingDuration */\n      dup1\n        /* \"contracts/ICO.sol\":6004:6015  elapsedTime */\n      dup4\n        /* \"contracts/ICO.sol\":5987:6001  totalPurchased */\n      dup7\n        /* \"contracts/ICO.sol\":5987:6015  totalPurchased * elapsedTime */\n      tag_131\n      swap2\n      swap1\n      tag_126\n      jump\t// in\n    tag_131:\n        /* \"contracts/ICO.sol\":5986:6055  (totalPurchased * elapsedTime) /... */\n      tag_132\n      swap2\n      swap1\n      tag_128\n      jump\t// in\n    tag_132:\n        /* \"contracts/ICO.sol\":5955:6055  vestedAmount =... */\n      swap2\n      pop\n        /* \"contracts/ICO.sol\":5847:6066  {... */\n      pop\n        /* \"contracts/ICO.sol\":5824:6226  if (claimedStage == 1) {... */\n      jump(tag_133)\n    tag_130:\n        /* \"contracts/ICO.sol\":6092:6093  2 */\n      0x02\n        /* \"contracts/ICO.sol\":6076:6088  claimedStage */\n      0x25\n      0x01\n      swap1\n      sload\n      swap1\n      0x0100\n      exp\n      swap1\n      div\n      0xff\n      and\n        /* \"contracts/ICO.sol\":6076:6093  claimedStage == 2 */\n      0xff\n      and\n      sub\n        /* \"contracts/ICO.sol\":6072:6226  if (claimedStage == 2) {... */\n      tag_134\n      jumpi\n        /* \"contracts/ICO.sol\":6194:6203  purchases */\n      0x21\n        /* \"contracts/ICO.sol\":6194:6215  purchases[msg.sender] */\n      0x00\n        /* \"contracts/ICO.sol\":6204:6214  msg.sender */\n      caller\n        /* \"contracts/ICO.sol\":6194:6215  purchases[msg.sender] */\n      0xffffffffffffffffffffffffffffffffffffffff\n      and\n      0xffffffffffffffffffffffffffffffffffffffff\n      and\n      dup2\n      mstore\n      0x20\n      add\n      swap1\n      dup2\n      mstore\n      0x20\n      add\n      0x00\n      keccak256\n      sload\n        /* \"contracts/ICO.sol\":6179:6215  vestedAmount = purchases[msg.sender] */\n      swap1\n      pop\n        /* \"contracts/ICO.sol\":6072:6226  if (claimedStage == 2) {... */\n    tag_134:\n        /* \"contracts/ICO.sol\":5824:6226  if (claimedStage == 1) {... */\n    tag_133:\n        /* \"contracts/ICO.sol\":5471:6226  if (claimedStage == 0) {... */\n    tag_129:\n        /* \"contracts/ICO.sol\":6236:6259  uint256 claimableAmount */\n      0x00\n        /* \"contracts/ICO.sol\":6277:6290  claimedTokens */\n      0x20\n        /* \"contracts/ICO.sol\":6277:6302  claimedTokens[msg.sender] */\n      0x00\n        /* \"contracts/ICO.sol\":6291:6301  msg.sender */\n      caller\n        /* \"contracts/ICO.sol\":6277:6302  claimedTokens[msg.sender] */\n      0xffffffffffffffffffffffffffffffffffffffff\n      and\n      0xffffffffffffffffffffffffffffffffffffffff\n      and\n      dup2\n      mstore\n      0x20\n      add\n      swap1\n      dup2\n      mstore\n      0x20\n      add\n      0x00\n      keccak256\n      sload\n        /* \"contracts/ICO.sol\":6262:6274  vestedAmount */\n      dup3\n        /* \"contracts/ICO.sol\":6262:6302  vestedAmount - claimedTokens[msg.sender] */\n      tag_135\n      swap2\n      swap1\n      tag_123\n      jump\t// in\n    tag_135:\n        /* \"contracts/ICO.sol\":6236:6302  uint256 claimableAmount = vestedAmount - claimedTokens[msg.sender] */\n      swap1\n      pop\n        /* \"contracts/ICO.sol\":6338:6339  0 */\n      0x00\n        /* \"contracts/ICO.sol\":6320:6335  claimableAmount */\n      dup2\n        /* \"contracts/ICO.sol\":6320:6339  claimableAmount > 0 */\n      gt\n        /* \"contracts/ICO.sol\":6312:6373  require(claimableAmount > 0, \"No tokens available for claim\") */\n      tag_136\n      jumpi\n      mload(0x40)\n      0x08c379a000000000000000000000000000000000000000000000000000000000\n      dup2\n      mstore\n      0x04\n      add\n      tag_137\n      swap1\n      tag_138\n      jump\t// in\n    tag_137:\n      mload(0x40)\n      dup1\n      swap2\n      sub\n      swap1\n      revert\n    tag_136:\n        /* \"contracts/ICO.sol\":6413:6428  claimableAmount */\n      dup1\n        /* \"contracts/ICO.sol\":6384:6397  claimedTokens */\n      0x20\n        /* \"contracts/ICO.sol\":6384:6409  claimedTokens[msg.sender] */\n      0x00\n        /* \"contracts/ICO.sol\":6398:6408  msg.sender */\n      caller\n        /* \"contracts/ICO.sol\":6384:6409  claimedTokens[msg.sender] */\n      0xffffffffffffffffffffffffffffffffffffffff\n      and\n      0xffffffffffffffffffffffffffffffffffffffff\n      and\n      dup2\n      mstore\n      0x20\n      add\n      swap1\n      dup2\n      mstore\n      0x20\n      add\n      0x00\n      keccak256\n      0x00\n        /* \"contracts/ICO.sol\":6384:6428  claimedTokens[msg.sender] += claimableAmount */\n      dup3\n      dup3\n      sload\n      tag_139\n      swap2\n      swap1\n      tag_117\n      jump\t// in\n    tag_139:\n      swap3\n      pop\n      pop\n      dup2\n      swap1\n      sstore\n      pop\n        /* \"contracts/ICO.sol\":6465:6474  xoraToken */\n      0x02\n      0x00\n      swap1\n      sload\n      swap1\n      0x0100\n      exp\n      swap1\n      div\n      0xffffffffffffffffffffffffffffffffffffffff\n      and\n        /* \"contracts/ICO.sol\":6465:6487  xoraToken.transferFrom */\n      0xffffffffffffffffffffffffffffffffffffffff\n      and\n      0x23b872dd\n        /* \"contracts/ICO.sol\":6501:6521  IcoAllocationAddress */\n      0x03\n      0x00\n      swap1\n      sload\n      swap1\n      0x0100\n      exp\n      swap1\n      div\n      0xffffffffffffffffffffffffffffffffffffffff\n      and\n        /* \"contracts/ICO.sol\":6535:6545  msg.sender */\n      caller\n        /* \"contracts/ICO.sol\":6559:6574  claimableAmount */\n      dup5\n        /* \"contracts/ICO.sol\":6465:6584  xoraToken.transferFrom(... */\n      mload(0x40)\n      dup5\n      0xffffffff\n      and\n      0xe0\n      shl\n      dup2\n      mstore\n      0x04\n      add\n      tag_140\n      swap4\n      swap3\n      swap2\n      swap1\n      tag_141\n      jump\t// in\n    tag_140:\n      0x20\n      mload(0x40)\n      dup1\n      dup4\n      sub\n      dup2\n      0x00\n      dup8\n      gas\n      call\n      iszero\n      dup1\n      iszero\n      tag_143\n      jumpi\n      returndatasize\n      0x00\n      dup1\n      returndatacopy\n      revert(0x00, returndatasize)\n    tag_143:\n      pop\n      pop\n      pop\n      pop\n      mload(0x40)\n      returndatasize\n      not(0x1f)\n      0x1f\n      dup3\n      add\n      and\n      dup3\n      add\n      dup1\n      0x40\n      mstore\n      pop\n      dup2\n      add\n      swap1\n      tag_144\n      swap2\n      swap1\n      tag_145\n      jump\t// in\n    tag_144:\n      pop\n        /* \"contracts/ICO.sol\":6619:6634  claimableAmount */\n      dup1\n        /* \"contracts/ICO.sol\":6594:6603  purchases */\n      0x21\n        /* \"contracts/ICO.sol\":6594:6615  purchases[msg.sender] */\n      0x00\n        /* \"contracts/ICO.sol\":6604:6614  msg.sender */\n      caller\n        /* \"contracts/ICO.sol\":6594:6615  purchases[msg.sender] */\n      0xffffffffffffffffffffffffffffffffffffffff\n      and\n      0xffffffffffffffffffffffffffffffffffffffff\n      and\n      dup2\n      mstore\n      0x20\n      add\n      swap1\n      dup2\n      mstore\n      0x20\n      add\n      0x00\n      keccak256\n      0x00\n        /* \"contracts/ICO.sol\":6594:6634  purchases[msg.sender] -= claimableAmount */\n      dup3\n      dup3\n      sload\n      tag_146\n      swap2\n      swap1\n      tag_123\n      jump\t// in\n    tag_146:\n      swap3\n      pop\n      pop\n      dup2\n      swap1\n      sstore\n      pop\n        /* \"contracts/ICO.sol\":6664:6674  msg.sender */\n      caller\n        /* \"contracts/ICO.sol\":6650:6692  TokensClaimed(msg.sender, claimableAmount) */\n      0xffffffffffffffffffffffffffffffffffffffff\n      and\n      0x896e034966eaaf1adc54acc0f257056febbd300c9e47182cf761982cf1f5e430\n        /* \"contracts/ICO.sol\":6676:6691  claimableAmount */\n      dup3\n        /* \"contracts/ICO.sol\":6650:6692  TokensClaimed(msg.sender, claimableAmount) */\n      mload(0x40)\n      tag_147\n      swap2\n      swap1\n      tag_28\n      jump\t// in\n    tag_147:\n      mload(0x40)\n      dup1\n      swap2\n      sub\n      swap1\n      log2\n        /* \"contracts/ICO.sol\":5030:6699  {... */\n      pop\n      pop\n      pop\n      pop\n      pop\n        /* \"@openzeppelin/contracts/security/ReentrancyGuard.sol\":2303:2323  _nonReentrantAfter() */\n      tag_148\n        /* \"@openzeppelin/contracts/security/ReentrancyGuard.sol\":2303:2321  _nonReentrantAfter */\n      tag_149\n        /* \"@openzeppelin/contracts/security/ReentrancyGuard.sol\":2303:2323  _nonReentrantAfter() */\n      jump\t// in\n    tag_148:\n        /* \"contracts/ICO.sol\":4985:6699  function claimTokens() external nonReentrant {... */\n      jump\t// out\n        /* \"contracts/ICO.sol\":1167:1192  uint8 public currentStage */\n    tag_46:\n      0x25\n      0x00\n      swap1\n      sload\n      swap1\n      0x0100\n      exp\n      swap1\n      div\n      0xff\n      and\n      dup2\n      jump\t// out\n        /* \"contracts/ICO.sol\":1131:1161  uint256 public totalTokensSold */\n    tag_51:\n      sload(0x24)\n      dup2\n      jump\t// out\n        /* \"@openzeppelin/contracts/access/Ownable.sol\":2293:2394  function renounceOwnership() public virtual onlyOwner {... */\n    tag_55:\n        /* \"@openzeppelin/contracts/access/Ownable.sol\":1531:1544  _checkOwner() */\n      tag_151\n        /* \"@openzeppelin/contracts/access/Ownable.sol\":1531:1542  _checkOwner */\n      tag_152\n        /* \"@openzeppelin/contracts/access/Ownable.sol\":1531:1544  _checkOwner() */\n      jump\t// in\n    tag_151:\n        /* \"@openzeppelin/contracts/access/Ownable.sol\":2357:2387  _transferOwnership(address(0)) */\n      tag_154\n        /* \"@openzeppelin/contracts/access/Ownable.sol\":2384:2385  0 */\n      0x00\n        /* \"@openzeppelin/contracts/access/Ownable.sol\":2357:2375  _transferOwnership */\n      tag_155\n        /* \"@openzeppelin/contracts/access/Ownable.sol\":2357:2387  _transferOwnership(address(0)) */\n      jump\t// in\n    tag_154:\n        /* \"@openzeppelin/contracts/access/Ownable.sol\":2293:2394  function renounceOwnership() public virtual onlyOwner {... */\n      jump\t// out\n        /* \"contracts/ICO.sol\":968:1012  mapping(address => uint256) public purchases */\n    tag_59:\n      mstore(0x20, 0x21)\n      dup1\n      0x00\n      mstore\n      keccak256(0x00, 0x40)\n      0x00\n      swap2\n      pop\n      swap1\n      pop\n      sload\n      dup2\n      jump\t// out\n        /* \"contracts/ICO.sol\":833:855  Stage[3] public stages */\n    tag_64:\n      0x04\n      dup2\n      0x03\n      dup2\n      lt\n      tag_156\n      jumpi\n      0x00\n      dup1\n      revert\n    tag_156:\n      0x09\n      mul\n      add\n      0x00\n      swap2\n      pop\n      swap1\n      pop\n      dup1\n      0x00\n      add\n      0x00\n      swap1\n      sload\n      swap1\n      0x0100\n      exp\n      swap1\n      div\n      0xff\n      and\n      swap1\n      dup1\n      0x01\n      add\n      sload\n      swap1\n      dup1\n      0x02\n      add\n      sload\n      swap1\n      dup1\n      0x03\n      add\n      sload\n      swap1\n      dup1\n      0x04\n      add\n      sload\n      swap1\n      dup1\n      0x05\n      add\n      sload\n      swap1\n      dup1\n      0x06\n      add\n      sload\n      swap1\n      dup1\n      0x07\n      add\n      sload\n      swap1\n      dup1\n      0x08\n      add\n      sload\n      swap1\n      pop\n      dup10\n      jump\t// out\n        /* \"@openzeppelin/contracts/access/Ownable.sol\":1638:1723  function owner() public view virtual returns (address) {... */\n    tag_69:\n        /* \"@openzeppelin/contracts/access/Ownable.sol\":1684:1691  address */\n      0x00\n        /* \"@openzeppelin/contracts/access/Ownable.sol\":1710:1716  _owner */\n      dup1\n      0x00\n      swap1\n      sload\n      swap1\n      0x0100\n      exp\n      swap1\n      div\n      0xffffffffffffffffffffffffffffffffffffffff\n      and\n        /* \"@openzeppelin/contracts/access/Ownable.sol\":1703:1716  return _owner */\n      swap1\n      pop\n        /* \"@openzeppelin/contracts/access/Ownable.sol\":1638:1723  function owner() public view virtual returns (address) {... */\n      swap1\n      jump\t// out\n        /* \"contracts/ICO.sol\":1223:1261  address[] public investors_and_partner */\n    tag_74:\n      0x26\n      dup2\n      dup2\n      sload\n      dup2\n      lt\n      tag_159\n      jumpi\n      0x00\n      dup1\n      revert\n    tag_159:\n      swap1\n      0x00\n      mstore\n      keccak256(0x00, 0x20)\n      add\n      0x00\n      swap2\n      pop\n      sload\n      swap1\n      0x0100\n      exp\n      swap1\n      div\n      0xffffffffffffffffffffffffffffffffffffffff\n      and\n      dup2\n      jump\t// out\n        /* \"contracts/ICO.sol\":914:962  mapping(address => uint256) public claimedTokens */\n    tag_79:\n      0x20\n      dup1\n      mstore\n      dup1\n      0x00\n      mstore\n      keccak256(0x00, 0x40)\n      0x00\n      swap2\n      pop\n      swap1\n      pop\n      sload\n      dup2\n      jump\t// out\n        /* \"contracts/ICO.sol\":320:355  address public IcoAllocationAddress */\n    tag_83:\n      0x03\n      0x00\n      swap1\n      sload\n      swap1\n      0x0100\n      exp\n      swap1\n      div\n      0xffffffffffffffffffffffffffffffffffffffff\n      and\n      dup2\n      jump\t// out\n        /* \"contracts/ICO.sol\":3187:4938  function buyTokens(uint256 amount, address stablecoin)... */\n    tag_88:\n        /* \"@openzeppelin/contracts/security/ReentrancyGuard.sol\":2261:2282  _nonReentrantBefore() */\n      tag_162\n        /* \"@openzeppelin/contracts/security/ReentrancyGuard.sol\":2261:2280  _nonReentrantBefore */\n      tag_107\n        /* \"@openzeppelin/contracts/security/ReentrancyGuard.sol\":2261:2282  _nonReentrantBefore() */\n      jump\t// in\n    tag_162:\n        /* \"contracts/ICO.sol\":3310:3329  uint256 bonusAmount */\n      0x00\n        /* \"contracts/ICO.sol\":3366:3379  stages.length */\n      0x03\n        /* \"contracts/ICO.sol\":3351:3363  currentStage */\n      0x25\n      0x00\n      swap1\n      sload\n      swap1\n      0x0100\n      exp\n      swap1\n      div\n      0xff\n      and\n        /* \"contracts/ICO.sol\":3351:3379  currentStage < stages.length */\n      0xff\n      and\n      lt\n        /* \"contracts/ICO.sol\":3343:3404  require(currentStage < stages.length, \"ICO stages completed\") */\n      tag_164\n      jumpi\n      mload(0x40)\n      0x08c379a000000000000000000000000000000000000000000000000000000000\n      dup2\n      mstore\n      0x04\n      add\n      tag_165\n      swap1\n      tag_166\n      jump\t// in\n    tag_165:\n      mload(0x40)\n      dup1\n      swap2\n      sub\n      swap1\n      revert\n    tag_164:\n        /* \"contracts/ICO.sol\":3431:3432  0 */\n      0x00\n        /* \"contracts/ICO.sol\":3422:3428  amount */\n      dup4\n        /* \"contracts/ICO.sol\":3422:3432  amount > 0 */\n      gt\n        /* \"contracts/ICO.sol\":3414:3460  require(amount > 0, \"Invalid purchase amount\") */\n      tag_167\n      jumpi\n      mload(0x40)\n      0x08c379a000000000000000000000000000000000000000000000000000000000\n      dup2\n      mstore\n      0x04\n      add\n      tag_168\n      swap1\n      tag_169\n      jump\t// in\n    tag_168:\n      mload(0x40)\n      dup1\n      swap2\n      sub\n      swap1\n      revert\n    tag_167:\n        /* \"contracts/ICO.sol\":3470:3489  Stage storage stage */\n      0x00\n        /* \"contracts/ICO.sol\":3492:3498  stages */\n      0x04\n        /* \"contracts/ICO.sol\":3499:3511  currentStage */\n      0x25\n      0x00\n      swap1\n      sload\n      swap1\n      0x0100\n      exp\n      swap1\n      div\n      0xff\n      and\n        /* \"contracts/ICO.sol\":3492:3512  stages[currentStage] */\n      0xff\n      and\n      0x03\n      dup2\n      lt\n      tag_170\n      jumpi\n      tag_171\n      tag_114\n      jump\t// in\n    tag_171:\n    tag_170:\n      0x09\n      mul\n      add\n        /* \"contracts/ICO.sol\":3470:3512  Stage storage stage = stages[currentStage] */\n      swap1\n      pop\n        /* \"contracts/ICO.sol\":3559:3564  stage */\n      dup1\n        /* \"contracts/ICO.sol\":3559:3575  stage.allocation */\n      0x01\n      add\n      sload\n        /* \"contracts/ICO.sol\":3539:3544  stage */\n      dup2\n        /* \"contracts/ICO.sol\":3539:3555  stage.tokensSold */\n      0x06\n      add\n      sload\n        /* \"contracts/ICO.sol\":3539:3575  stage.tokensSold >= stage.allocation */\n      lt\n      iszero\n        /* \"contracts/ICO.sol\":3539:3647  stage.tokensSold >= stage.allocation ||... */\n      dup1\n      tag_173\n      jumpi\n      pop\n        /* \"contracts/ICO.sol\":3625:3630  stage */\n      dup1\n        /* \"contracts/ICO.sol\":3625:3646  stage.vestingDuration */\n      0x05\n      add\n      sload\n        /* \"contracts/ICO.sol\":3611:3616  stage */\n      dup2\n        /* \"contracts/ICO.sol\":3611:3622  stage.cliff */\n      0x04\n      add\n      sload\n        /* \"contracts/ICO.sol\":3611:3646  stage.cliff + stage.vestingDuration */\n      tag_174\n      swap2\n      swap1\n      tag_117\n      jump\t// in\n    tag_174:\n        /* \"contracts/ICO.sol\":3592:3607  block.timestamp */\n      timestamp\n        /* \"contracts/ICO.sol\":3592:3646  block.timestamp >= stage.cliff + stage.vestingDuration */\n      lt\n      iszero\n        /* \"contracts/ICO.sol\":3539:3647  stage.tokensSold >= stage.allocation ||... */\n    tag_173:\n        /* \"contracts/ICO.sol\":3522:3907  if (... */\n      iszero\n      tag_175\n      jumpi\n        /* \"contracts/ICO.sol\":3672:3684  currentStage */\n      0x25\n      0x00\n        /* \"contracts/ICO.sol\":3672:3686  currentStage++ */\n      dup2\n      dup2\n      swap1\n      sload\n      swap1\n      0x0100\n      exp\n      swap1\n      div\n      0xff\n      and\n      dup1\n      swap3\n      swap2\n      swap1\n      tag_176\n      swap1\n      tag_177\n      jump\t// in\n    tag_176:\n      swap2\n      swap1\n      0x0100\n      exp\n      dup2\n      sload\n      dup2\n      0xff\n      mul\n      not\n      and\n      swap1\n      dup4\n      0xff\n      and\n      mul\n      or\n      swap1\n      sstore\n      pop\n      pop\n        /* \"contracts/ICO.sol\":3723:3736  stages.length */\n      0x03\n        /* \"contracts/ICO.sol\":3708:3720  currentStage */\n      0x25\n      0x00\n      swap1\n      sload\n      swap1\n      0x0100\n      exp\n      swap1\n      div\n      0xff\n      and\n        /* \"contracts/ICO.sol\":3708:3736  currentStage < stages.length */\n      0xff\n      and\n      lt\n        /* \"contracts/ICO.sol\":3700:3761  require(currentStage < stages.length, \"ICO stages completed\") */\n      tag_178\n      jumpi\n      mload(0x40)\n      0x08c379a000000000000000000000000000000000000000000000000000000000\n      dup2\n      mstore\n      0x04\n      add\n      tag_179\n      swap1\n      tag_166\n      jump\t// in\n    tag_179:\n      mload(0x40)\n      dup1\n      swap2\n      sub\n      swap1\n      revert\n    tag_178:\n        /* \"contracts/ICO.sol\":3783:3789  stages */\n      0x04\n        /* \"contracts/ICO.sol\":3790:3802  currentStage */\n      0x25\n      0x00\n      swap1\n      sload\n      swap1\n      0x0100\n      exp\n      swap1\n      div\n      0xff\n      and\n        /* \"contracts/ICO.sol\":3783:3803  stages[currentStage] */\n      0xff\n      and\n      0x03\n      dup2\n      lt\n      tag_180\n      jumpi\n      tag_181\n      tag_114\n      jump\t// in\n    tag_181:\n    tag_180:\n      0x09\n      mul\n      add\n        /* \"contracts/ICO.sol\":3775:3803  stage = stages[currentStage] */\n      swap1\n      pop\n        /* \"contracts/ICO.sol\":3835:3850  block.timestamp */\n      timestamp\n        /* \"contracts/ICO.sol\":3817:3822  stage */\n      dup2\n        /* \"contracts/ICO.sol\":3817:3832  stage.startTime */\n      0x08\n      add\n        /* \"contracts/ICO.sol\":3817:3850  stage.startTime = block.timestamp */\n      dup2\n      swap1\n      sstore\n      pop\n        /* \"contracts/ICO.sol\":3869:3896  StageAdvanced(currentStage) */\n      0x087b6fa18a1c8e172c612787dcbe8b401b2e3e144cfd5be67730dfa0a3c18f79\n        /* \"contracts/ICO.sol\":3883:3895  currentStage */\n      0x25\n      0x00\n      swap1\n      sload\n      swap1\n      0x0100\n      exp\n      swap1\n      div\n      0xff\n      and\n        /* \"contracts/ICO.sol\":3869:3896  StageAdvanced(currentStage) */\n      mload(0x40)\n      tag_183\n      swap2\n      swap1\n      tag_48\n      jump\t// in\n    tag_183:\n      mload(0x40)\n      dup1\n      swap2\n      sub\n      swap1\n      log1\n        /* \"contracts/ICO.sol\":3522:3907  if (... */\n    tag_175:\n        /* \"contracts/ICO.sol\":3917:3935  uint256 crntAmount */\n      0x00\n        /* \"contracts/ICO.sol\":3958:3963  stage */\n      dup2\n        /* \"contracts/ICO.sol\":3958:3969  stage.price */\n      0x02\n      add\n      sload\n        /* \"contracts/ICO.sol\":3948:3954  10**18 */\n      0x0de0b6b3a7640000\n        /* \"contracts/ICO.sol\":3939:3945  amount */\n      dup7\n        /* \"contracts/ICO.sol\":3939:3954  amount * 10**18 */\n      tag_184\n      swap2\n      swap1\n      tag_126\n      jump\t// in\n    tag_184:\n        /* \"contracts/ICO.sol\":3938:3969  (amount * 10**18) / stage.price */\n      tag_185\n      swap2\n      swap1\n      tag_128\n      jump\t// in\n    tag_185:\n        /* \"contracts/ICO.sol\":3917:3969  uint256 crntAmount = (amount * 10**18) / stage.price */\n      swap1\n      pop\n        /* \"contracts/ICO.sol\":4033:4038  stage */\n      dup2\n        /* \"contracts/ICO.sol\":4033:4049  stage.tokensSold */\n      0x06\n      add\n      sload\n        /* \"contracts/ICO.sol\":4014:4019  stage */\n      dup3\n        /* \"contracts/ICO.sol\":4014:4030  stage.allocation */\n      0x01\n      add\n      sload\n        /* \"contracts/ICO.sol\":4014:4049  stage.allocation - stage.tokensSold */\n      tag_186\n      swap2\n      swap1\n      tag_123\n      jump\t// in\n    tag_186:\n        /* \"contracts/ICO.sol\":4000:4010  crntAmount */\n      dup2\n        /* \"contracts/ICO.sol\":4000:4049  crntAmount <= stage.allocation - stage.tokensSold */\n      gt\n      iszero\n        /* \"contracts/ICO.sol\":3979:4100  require(... */\n      tag_187\n      jumpi\n      mload(0x40)\n      0x08c379a000000000000000000000000000000000000000000000000000000000\n      dup2\n      mstore\n      0x04\n      add\n      tag_188\n      swap1\n      tag_189\n      jump\t// in\n    tag_188:\n      mload(0x40)\n      dup1\n      swap2\n      sub\n      swap1\n      revert\n    tag_187:\n        /* \"contracts/ICO.sol\":4128:4149  StageName.PrivateSale */\n      0x00\n        /* \"contracts/ICO.sol\":4114:4149  stage.name == StageName.PrivateSale */\n      0x02\n      dup2\n      gt\n      iszero\n      tag_190\n      jumpi\n      tag_191\n      tag_192\n      jump\t// in\n    tag_191:\n    tag_190:\n        /* \"contracts/ICO.sol\":4114:4119  stage */\n      dup3\n        /* \"contracts/ICO.sol\":4114:4124  stage.name */\n      0x00\n      add\n      0x00\n      swap1\n      sload\n      swap1\n      0x0100\n      exp\n      swap1\n      div\n      0xff\n      and\n        /* \"contracts/ICO.sol\":4114:4149  stage.name == StageName.PrivateSale */\n      0x02\n      dup2\n      gt\n      iszero\n      tag_193\n      jumpi\n      tag_194\n      tag_192\n      jump\t// in\n    tag_194:\n    tag_193:\n      sub\n        /* \"contracts/ICO.sol\":4110:4389  if (stage.name == StageName.PrivateSale) {... */\n      tag_195\n      jumpi\n        /* \"contracts/ICO.sol\":4173:4195  isInvestor(msg.sender) */\n      tag_196\n        /* \"contracts/ICO.sol\":4184:4194  msg.sender */\n      caller\n        /* \"contracts/ICO.sol\":4173:4183  isInvestor */\n      tag_197\n        /* \"contracts/ICO.sol\":4173:4195  isInvestor(msg.sender) */\n      jump\t// in\n    tag_196:\n        /* \"contracts/ICO.sol\":4165:4224  require(isInvestor(msg.sender), \"Not investor nor partner\") */\n      tag_198\n      jumpi\n      mload(0x40)\n      0x08c379a000000000000000000000000000000000000000000000000000000000\n      dup2\n      mstore\n      0x04\n      add\n      tag_199\n      swap1\n      tag_200\n      jump\t// in\n    tag_199:\n      mload(0x40)\n      dup1\n      swap2\n      sub\n      swap1\n      revert\n    tag_198:\n        /* \"contracts/ICO.sol\":4272:4277  stage */\n      dup2\n        /* \"contracts/ICO.sol\":4272:4287  stage.startTime */\n      0x08\n      add\n      sload\n        /* \"contracts/ICO.sol\":4261:4269  180 days */\n      0xed4e00\n        /* \"contracts/ICO.sol\":4261:4287  180 days + stage.startTime */\n      tag_201\n      swap2\n      swap1\n      tag_117\n      jump\t// in\n    tag_201:\n        /* \"contracts/ICO.sol\":4242:4257  block.timestamp */\n      timestamp\n        /* \"contracts/ICO.sol\":4242:4288  block.timestamp < (180 days + stage.startTime) */\n      lt\n        /* \"contracts/ICO.sol\":4238:4379  if (block.timestamp < (180 days + stage.startTime)) {... */\n      iszero\n      tag_202\n      jumpi\n        /* \"contracts/ICO.sol\":4361:4364  100 */\n      0x64\n        /* \"contracts/ICO.sol\":4336:4341  stage */\n      dup3\n        /* \"contracts/ICO.sol\":4336:4357  stage.bonusPercentage */\n      0x07\n      add\n      sload\n        /* \"contracts/ICO.sol\":4323:4333  crntAmount */\n      dup3\n        /* \"contracts/ICO.sol\":4323:4357  crntAmount * stage.bonusPercentage */\n      tag_203\n      swap2\n      swap1\n      tag_126\n      jump\t// in\n    tag_203:\n        /* \"contracts/ICO.sol\":4322:4364  (crntAmount * stage.bonusPercentage) / 100 */\n      tag_204\n      swap2\n      swap1\n      tag_128\n      jump\t// in\n    tag_204:\n        /* \"contracts/ICO.sol\":4308:4364  bonusAmount = (crntAmount * stage.bonusPercentage) / 100 */\n      swap3\n      pop\n        /* \"contracts/ICO.sol\":4238:4379  if (block.timestamp < (180 days + stage.startTime)) {... */\n    tag_202:\n        /* \"contracts/ICO.sol\":4110:4389  if (stage.name == StageName.PrivateSale) {... */\n    tag_195:\n        /* \"contracts/ICO.sol\":4416:4433  StageName.PreSale */\n      0x01\n        /* \"contracts/ICO.sol\":4402:4433  stage.name == StageName.PreSale */\n      0x02\n      dup2\n      gt\n      iszero\n      tag_205\n      jumpi\n      tag_206\n      tag_192\n      jump\t// in\n    tag_206:\n    tag_205:\n        /* \"contracts/ICO.sol\":4402:4407  stage */\n      dup3\n        /* \"contracts/ICO.sol\":4402:4412  stage.name */\n      0x00\n      add\n      0x00\n      swap1\n      sload\n      swap1\n      0x0100\n      exp\n      swap1\n      div\n      0xff\n      and\n        /* \"contracts/ICO.sol\":4402:4433  stage.name == StageName.PreSale */\n      0x02\n      dup2\n      gt\n      iszero\n      tag_207\n      jumpi\n      tag_208\n      tag_192\n      jump\t// in\n    tag_208:\n    tag_207:\n      sub\n        /* \"contracts/ICO.sol\":4398:4594  if (stage.name == StageName.PreSale) {... */\n      tag_209\n      jumpi\n        /* \"contracts/ICO.sol\":4457:4482  isWhitelisted(msg.sender) */\n      tag_210\n        /* \"contracts/ICO.sol\":4471:4481  msg.sender */\n      caller\n        /* \"contracts/ICO.sol\":4457:4470  isWhitelisted */\n      tag_211\n        /* \"contracts/ICO.sol\":4457:4482  isWhitelisted(msg.sender) */\n      jump\t// in\n    tag_210:\n        /* \"contracts/ICO.sol\":4449:4513  require(isWhitelisted(msg.sender), \"Not in whitelisted partner\") */\n      tag_212\n      jumpi\n      mload(0x40)\n      0x08c379a000000000000000000000000000000000000000000000000000000000\n      dup2\n      mstore\n      0x04\n      add\n      tag_213\n      swap1\n      tag_214\n      jump\t// in\n    tag_213:\n      mload(0x40)\n      dup1\n      swap2\n      sub\n      swap1\n      revert\n    tag_212:\n        /* \"contracts/ICO.sol\":4580:4583  100 */\n      0x64\n        /* \"contracts/ICO.sol\":4555:4560  stage */\n      dup3\n        /* \"contracts/ICO.sol\":4555:4576  stage.bonusPercentage */\n      0x07\n      add\n      sload\n        /* \"contracts/ICO.sol\":4542:4552  crntAmount */\n      dup3\n        /* \"contracts/ICO.sol\":4542:4576  crntAmount * stage.bonusPercentage */\n      tag_215\n      swap2\n      swap1\n      tag_126\n      jump\t// in\n    tag_215:\n        /* \"contracts/ICO.sol\":4541:4583  (crntAmount * stage.bonusPercentage) / 100 */\n      tag_216\n      swap2\n      swap1\n      tag_128\n      jump\t// in\n    tag_216:\n        /* \"contracts/ICO.sol\":4527:4583  bonusAmount = (crntAmount * stage.bonusPercentage) / 100 */\n      swap3\n      pop\n        /* \"contracts/ICO.sol\":4398:4594  if (stage.name == StageName.PreSale) {... */\n    tag_209:\n        /* \"contracts/ICO.sol\":4617:4628  bonusAmount */\n      dup3\n        /* \"contracts/ICO.sol\":4603:4628  crntAmount += bonusAmount */\n      dup2\n      tag_217\n      swap2\n      swap1\n      tag_117\n      jump\t// in\n    tag_217:\n      swap1\n      pop\n        /* \"contracts/ICO.sol\":4658:4668  crntAmount */\n      dup1\n        /* \"contracts/ICO.sol\":4638:4643  stage */\n      dup3\n        /* \"contracts/ICO.sol\":4638:4654  stage.tokensSold */\n      0x06\n      add\n      0x00\n        /* \"contracts/ICO.sol\":4638:4668  stage.tokensSold += crntAmount */\n      dup3\n      dup3\n      sload\n      tag_218\n      swap2\n      swap1\n      tag_117\n      jump\t// in\n    tag_218:\n      swap3\n      pop\n      pop\n      dup2\n      swap1\n      sstore\n      pop\n        /* \"contracts/ICO.sol\":4703:4713  crntAmount */\n      dup1\n        /* \"contracts/ICO.sol\":4678:4687  purchases */\n      0x21\n        /* \"contracts/ICO.sol\":4678:4699  purchases[msg.sender] */\n      0x00\n        /* \"contracts/ICO.sol\":4688:4698  msg.sender */\n      caller\n        /* \"contracts/ICO.sol\":4678:4699  purchases[msg.sender] */\n      0xffffffffffffffffffffffffffffffffffffffff\n      and\n      0xffffffffffffffffffffffffffffffffffffffff\n      and\n      dup2\n      mstore\n      0x20\n      add\n      swap1\n      dup2\n      mstore\n      0x20\n      add\n      0x00\n      keccak256\n      0x00\n        /* \"contracts/ICO.sol\":4678:4713  purchases[msg.sender] += crntAmount */\n      dup3\n      dup3\n      sload\n      tag_219\n      swap2\n      swap1\n      tag_117\n      jump\t// in\n    tag_219:\n      swap3\n      pop\n      pop\n      dup2\n      swap1\n      sstore\n      pop\n        /* \"contracts/ICO.sol\":4755:4765  crntAmount */\n      dup1\n        /* \"contracts/ICO.sol\":4723:4739  initialPurchased */\n      0x22\n        /* \"contracts/ICO.sol\":4723:4751  initialPurchased[msg.sender] */\n      0x00\n        /* \"contracts/ICO.sol\":4740:4750  msg.sender */\n      caller\n        /* \"contracts/ICO.sol\":4723:4751  initialPurchased[msg.sender] */\n      0xffffffffffffffffffffffffffffffffffffffff\n      and\n      0xffffffffffffffffffffffffffffffffffffffff\n      and\n      dup2\n      mstore\n      0x20\n      add\n      swap1\n      dup2\n      mstore\n      0x20\n      add\n      0x00\n      keccak256\n      0x00\n        /* \"contracts/ICO.sol\":4723:4765  initialPurchased[msg.sender] += crntAmount */\n      dup3\n      dup3\n      sload\n      tag_220\n      swap2\n      swap1\n      tag_117\n      jump\t// in\n    tag_220:\n      swap3\n      pop\n      pop\n      dup2\n      swap1\n      sstore\n      pop\n        /* \"contracts/ICO.sol\":4812:4818  amount */\n      dup5\n        /* \"contracts/ICO.sol\":4775:4796  purchasesInStableCoin */\n      0x23\n        /* \"contracts/ICO.sol\":4775:4808  purchasesInStableCoin[msg.sender] */\n      0x00\n        /* \"contracts/ICO.sol\":4797:4807  msg.sender */\n      caller\n        /* \"contracts/ICO.sol\":4775:4808  purchasesInStableCoin[msg.sender] */\n      0xffffffffffffffffffffffffffffffffffffffff\n      and\n      0xffffffffffffffffffffffffffffffffffffffff\n      and\n      dup2\n      mstore\n      0x20\n      add\n      swap1\n      dup2\n      mstore\n      0x20\n      add\n      0x00\n      keccak256\n      0x00\n        /* \"contracts/ICO.sol\":4775:4818  purchasesInStableCoin[msg.sender] += amount */\n      dup3\n      dup3\n      sload\n      tag_221\n      swap2\n      swap1\n      tag_117\n      jump\t// in\n    tag_221:\n      swap3\n      pop\n      pop\n      dup2\n      swap1\n      sstore\n      pop\n        /* \"contracts/ICO.sol\":4835:4845  stablecoin */\n      dup4\n        /* \"contracts/ICO.sol\":4828:4859  IERC20(stablecoin).transferFrom */\n      0xffffffffffffffffffffffffffffffffffffffff\n      and\n      0x23b872dd\n        /* \"contracts/ICO.sol\":4860:4870  msg.sender */\n      caller\n        /* \"contracts/ICO.sol\":4880:4884  this */\n      address\n        /* \"contracts/ICO.sol\":4887:4893  amount */\n      dup9\n        /* \"contracts/ICO.sol\":4828:4894  IERC20(stablecoin).transferFrom(msg.sender, address(this), amount) */\n      mload(0x40)\n      dup5\n      0xffffffff\n      and\n      0xe0\n      shl\n      dup2\n      mstore\n      0x04\n      add\n      tag_222\n      swap4\n      swap3\n      swap2\n      swap1\n      tag_141\n      jump\t// in\n    tag_222:\n      0x20\n      mload(0x40)\n      dup1\n      dup4\n      sub\n      dup2\n      0x00\n      dup8\n      gas\n      call\n      iszero\n      dup1\n      iszero\n      tag_224\n      jumpi\n      returndatasize\n      0x00\n      dup1\n      returndatacopy\n      revert(0x00, returndatasize)\n    tag_224:\n      pop\n      pop\n      pop\n      pop\n      mload(0x40)\n      returndatasize\n      not(0x1f)\n      0x1f\n      dup3\n      add\n      and\n      dup3\n      add\n      dup1\n      0x40\n      mstore\n      pop\n      dup2\n      add\n      swap1\n      tag_225\n      swap2\n      swap1\n      tag_145\n      jump\t// in\n    tag_225:\n      pop\n        /* \"contracts/ICO.sol\":4919:4931  currentStage */\n      0x25\n      0x00\n      swap1\n      sload\n      swap1\n      0x0100\n      exp\n      swap1\n      div\n      0xff\n      and\n        /* \"contracts/ICO.sol\":4904:4916  claimedStage */\n      0x25\n      0x01\n        /* \"contracts/ICO.sol\":4904:4931  claimedStage = currentStage */\n      0x0100\n      exp\n      dup2\n      sload\n      dup2\n      0xff\n      mul\n      not\n      and\n      swap1\n      dup4\n      0xff\n      and\n      mul\n      or\n      swap1\n      sstore\n      pop\n        /* \"contracts/ICO.sol\":3300:4938  {... */\n      pop\n      pop\n      pop\n        /* \"@openzeppelin/contracts/security/ReentrancyGuard.sol\":2303:2323  _nonReentrantAfter() */\n      tag_226\n        /* \"@openzeppelin/contracts/security/ReentrancyGuard.sol\":2303:2321  _nonReentrantAfter */\n      tag_149\n        /* \"@openzeppelin/contracts/security/ReentrancyGuard.sol\":2303:2323  _nonReentrantAfter() */\n      jump\t// in\n    tag_226:\n        /* \"contracts/ICO.sol\":3187:4938  function buyTokens(uint256 amount, address stablecoin)... */\n      pop\n      pop\n      jump\t// out\n        /* \"@openzeppelin/contracts/access/Ownable.sol\":2543:2758  function transferOwnership(address newOwner) public virtual onlyOwner {... */\n    tag_92:\n        /* \"@openzeppelin/contracts/access/Ownable.sol\":1531:1544  _checkOwner() */\n      tag_228\n        /* \"@openzeppelin/contracts/access/Ownable.sol\":1531:1542  _checkOwner */\n      tag_152\n        /* \"@openzeppelin/contracts/access/Ownable.sol\":1531:1544  _checkOwner() */\n      jump\t// in\n    tag_228:\n        /* \"@openzeppelin/contracts/access/Ownable.sol\":2647:2648  0 */\n      0x00\n        /* \"@openzeppelin/contracts/access/Ownable.sol\":2627:2649  newOwner == address(0) */\n      0xffffffffffffffffffffffffffffffffffffffff\n      and\n        /* \"@openzeppelin/contracts/access/Ownable.sol\":2627:2635  newOwner */\n      dup2\n        /* \"@openzeppelin/contracts/access/Ownable.sol\":2627:2649  newOwner == address(0) */\n      0xffffffffffffffffffffffffffffffffffffffff\n      and\n      sub\n        /* \"@openzeppelin/contracts/access/Ownable.sol\":2623:2714  if (newOwner == address(0)) {... */\n      tag_230\n      jumpi\n        /* \"@openzeppelin/contracts/access/Ownable.sol\":2700:2701  0 */\n      0x00\n        /* \"@openzeppelin/contracts/access/Ownable.sol\":2672:2703  OwnableInvalidOwner(address(0)) */\n      mload(0x40)\n      0x1e4fbdf700000000000000000000000000000000000000000000000000000000\n      dup2\n      mstore\n      0x04\n      add\n      tag_231\n      swap2\n      swap1\n      tag_35\n      jump\t// in\n    tag_231:\n      mload(0x40)\n      dup1\n      swap2\n      sub\n      swap1\n      revert\n        /* \"@openzeppelin/contracts/access/Ownable.sol\":2623:2714  if (newOwner == address(0)) {... */\n    tag_230:\n        /* \"@openzeppelin/contracts/access/Ownable.sol\":2723:2751  _transferOwnership(newOwner) */\n      tag_232\n        /* \"@openzeppelin/contracts/access/Ownable.sol\":2742:2750  newOwner */\n      dup2\n        /* \"@openzeppelin/contracts/access/Ownable.sol\":2723:2741  _transferOwnership */\n      tag_155\n        /* \"@openzeppelin/contracts/access/Ownable.sol\":2723:2751  _transferOwnership(newOwner) */\n      jump\t// in\n    tag_232:\n        /* \"@openzeppelin/contracts/access/Ownable.sol\":2543:2758  function transferOwnership(address newOwner) public virtual onlyOwner {... */\n      pop\n      jump\t// out\n        /* \"contracts/ICO.sol\":291:314  IERC20 public xoraToken */\n    tag_95:\n      0x02\n      0x00\n      swap1\n      sload\n      swap1\n      0x0100\n      exp\n      swap1\n      div\n      0xffffffffffffffffffffffffffffffffffffffff\n      and\n      dup2\n      jump\t// out\n        /* \"contracts/ICO.sol\":6705:7070  function widthdrawfunds(address stablecoin, uint256 amount)... */\n    tag_102:\n        /* \"@openzeppelin/contracts/security/ReentrancyGuard.sol\":2261:2282  _nonReentrantBefore() */\n      tag_234\n        /* \"@openzeppelin/contracts/security/ReentrancyGuard.sol\":2261:2280  _nonReentrantBefore */\n      tag_107\n        /* \"@openzeppelin/contracts/security/ReentrancyGuard.sol\":2261:2282  _nonReentrantBefore() */\n      jump\t// in\n    tag_234:\n        /* \"contracts/ICO.sol\":6817:6841  uint256 stableCoinAmount */\n      0x00\n        /* \"contracts/ICO.sol\":6844:6865  purchasesInStableCoin */\n      0x23\n        /* \"contracts/ICO.sol\":6844:6877  purchasesInStableCoin[msg.sender] */\n      0x00\n        /* \"contracts/ICO.sol\":6866:6876  msg.sender */\n      caller\n        /* \"contracts/ICO.sol\":6844:6877  purchasesInStableCoin[msg.sender] */\n      0xffffffffffffffffffffffffffffffffffffffff\n      and\n      0xffffffffffffffffffffffffffffffffffffffff\n      and\n      dup2\n      mstore\n      0x20\n      add\n      swap1\n      dup2\n      mstore\n      0x20\n      add\n      0x00\n      keccak256\n      sload\n        /* \"contracts/ICO.sol\":6817:6877  uint256 stableCoinAmount = purchasesInStableCoin[msg.sender] */\n      swap1\n      pop\n        /* \"contracts/ICO.sol\":6915:6921  amount */\n      dup2\n        /* \"contracts/ICO.sol\":6895:6911  stableCoinAmount */\n      dup2\n        /* \"contracts/ICO.sol\":6895:6921  stableCoinAmount >= amount */\n      lt\n      iszero\n        /* \"contracts/ICO.sol\":6887:6953  require(stableCoinAmount >= amount, \"Not enough deposited amount\") */\n      tag_236\n      jumpi\n      mload(0x40)\n      0x08c379a000000000000000000000000000000000000000000000000000000000\n      dup2\n      mstore\n      0x04\n      add\n      tag_237\n      swap1\n      tag_238\n      jump\t// in\n    tag_237:\n      mload(0x40)\n      dup1\n      swap2\n      sub\n      swap1\n      revert\n    tag_236:\n        /* \"contracts/ICO.sol\":6970:6980  stablecoin */\n      dup3\n        /* \"contracts/ICO.sol\":6963:6990  IERC20(stablecoin).transfer */\n      0xffffffffffffffffffffffffffffffffffffffff\n      and\n      0xa9059cbb\n        /* \"contracts/ICO.sol\":6991:7001  msg.sender */\n      caller\n        /* \"contracts/ICO.sol\":7003:7009  amount */\n      dup5\n        /* \"contracts/ICO.sol\":6963:7010  IERC20(stablecoin).transfer(msg.sender, amount) */\n      mload(0x40)\n      dup4\n      0xffffffff\n      and\n      0xe0\n      shl\n      dup2\n      mstore\n      0x04\n      add\n      tag_239\n      swap3\n      swap2\n      swap1\n      tag_240\n      jump\t// in\n    tag_239:\n      0x20\n      mload(0x40)\n      dup1\n      dup4\n      sub\n      dup2\n      0x00\n      dup8\n      gas\n      call\n      iszero\n      dup1\n      iszero\n      tag_242\n      jumpi\n      returndatasize\n      0x00\n      dup1\n      returndatacopy\n      revert(0x00, returndatasize)\n    tag_242:\n      pop\n      pop\n      pop\n      pop\n      mload(0x40)\n      returndatasize\n      not(0x1f)\n      0x1f\n      dup3\n      add\n      and\n      dup3\n      add\n      dup1\n      0x40\n      mstore\n      pop\n      dup2\n      add\n      swap1\n      tag_243\n      swap2\n      swap1\n      tag_145\n      jump\t// in\n    tag_243:\n      pop\n        /* \"contracts/ICO.sol\":7057:7063  amount */\n      dup2\n        /* \"contracts/ICO.sol\":7020:7041  purchasesInStableCoin */\n      0x23\n        /* \"contracts/ICO.sol\":7020:7053  purchasesInStableCoin[msg.sender] */\n      0x00\n        /* \"contracts/ICO.sol\":7042:7052  msg.sender */\n      caller\n        /* \"contracts/ICO.sol\":7020:7053  purchasesInStableCoin[msg.sender] */\n      0xffffffffffffffffffffffffffffffffffffffff\n      and\n      0xffffffffffffffffffffffffffffffffffffffff\n      and\n      dup2\n      mstore\n      0x20\n      add\n      swap1\n      dup2\n      mstore\n      0x20\n      add\n      0x00\n      keccak256\n      0x00\n        /* \"contracts/ICO.sol\":7020:7063  purchasesInStableCoin[msg.sender] -= amount */\n      dup3\n      dup3\n      sload\n      tag_244\n      swap2\n      swap1\n      tag_123\n      jump\t// in\n    tag_244:\n      swap3\n      pop\n      pop\n      dup2\n      swap1\n      sstore\n      pop\n        /* \"contracts/ICO.sol\":6807:7070  {... */\n      pop\n        /* \"@openzeppelin/contracts/security/ReentrancyGuard.sol\":2303:2323  _nonReentrantAfter() */\n      tag_245\n        /* \"@openzeppelin/contracts/security/ReentrancyGuard.sol\":2303:2321  _nonReentrantAfter */\n      tag_149\n        /* \"@openzeppelin/contracts/security/ReentrancyGuard.sol\":2303:2323  _nonReentrantAfter() */\n      jump\t// in\n    tag_245:\n        /* \"contracts/ICO.sol\":6705:7070  function widthdrawfunds(address stablecoin, uint256 amount)... */\n      pop\n      pop\n      jump\t// out\n        /* \"@openzeppelin/contracts/security/ReentrancyGuard.sol\":2336:2623  function _nonReentrantBefore() private {... */\n    tag_107:\n        /* \"@openzeppelin/contracts/security/ReentrancyGuard.sol\":1759:1760  2 */\n      0x02\n        /* \"@openzeppelin/contracts/security/ReentrancyGuard.sol\":2468:2475  _status */\n      sload(0x01)\n        /* \"@openzeppelin/contracts/security/ReentrancyGuard.sol\":2468:2487  _status != _ENTERED */\n      sub\n        /* \"@openzeppelin/contracts/security/ReentrancyGuard.sol\":2460:2523  require(_status != _ENTERED, \"ReentrancyGuard: reentrant call\") */\n      tag_247\n      jumpi\n      mload(0x40)\n      0x08c379a000000000000000000000000000000000000000000000000000000000\n      dup2\n      mstore\n      0x04\n      add\n      tag_248\n      swap1\n      tag_249\n      jump\t// in\n    tag_248:\n      mload(0x40)\n      dup1\n      swap2\n      sub\n      swap1\n      revert\n    tag_247:\n        /* \"@openzeppelin/contracts/security/ReentrancyGuard.sol\":1759:1760  2 */\n      0x02\n        /* \"@openzeppelin/contracts/security/ReentrancyGuard.sol\":2598:2605  _status */\n      0x01\n        /* \"@openzeppelin/contracts/security/ReentrancyGuard.sol\":2598:2616  _status = _ENTERED */\n      dup2\n      swap1\n      sstore\n      pop\n        /* \"@openzeppelin/contracts/security/ReentrancyGuard.sol\":2336:2623  function _nonReentrantBefore() private {... */\n      jump\t// out\n        /* \"@openzeppelin/contracts/security/ReentrancyGuard.sol\":2629:2838  function _nonReentrantAfter() private {... */\n    tag_149:\n        /* \"@openzeppelin/contracts/security/ReentrancyGuard.sol\":1716:1717  1 */\n      0x01\n        /* \"@openzeppelin/contracts/security/ReentrancyGuard.sol\":2809:2816  _status */\n      dup1\n        /* \"@openzeppelin/contracts/security/ReentrancyGuard.sol\":2809:2831  _status = _NOT_ENTERED */\n      dup2\n      swap1\n      sstore\n      pop\n        /* \"@openzeppelin/contracts/security/ReentrancyGuard.sol\":2629:2838  function _nonReentrantAfter() private {... */\n      jump\t// out\n        /* \"@openzeppelin/contracts/access/Ownable.sol\":1796:1958  function _checkOwner() internal view virtual {... */\n    tag_152:\n        /* \"@openzeppelin/contracts/access/Ownable.sol\":1866:1878  _msgSender() */\n      tag_252\n        /* \"@openzeppelin/contracts/access/Ownable.sol\":1866:1876  _msgSender */\n      tag_253\n        /* \"@openzeppelin/contracts/access/Ownable.sol\":1866:1878  _msgSender() */\n      jump\t// in\n    tag_252:\n        /* \"@openzeppelin/contracts/access/Ownable.sol\":1855:1878  owner() != _msgSender() */\n      0xffffffffffffffffffffffffffffffffffffffff\n      and\n        /* \"@openzeppelin/contracts/access/Ownable.sol\":1855:1862  owner() */\n      tag_254\n        /* \"@openzeppelin/contracts/access/Ownable.sol\":1855:1860  owner */\n      tag_69\n        /* \"@openzeppelin/contracts/access/Ownable.sol\":1855:1862  owner() */\n      jump\t// in\n    tag_254:\n        /* \"@openzeppelin/contracts/access/Ownable.sol\":1855:1878  owner() != _msgSender() */\n      0xffffffffffffffffffffffffffffffffffffffff\n      and\n      eq\n        /* \"@openzeppelin/contracts/access/Ownable.sol\":1851:1952  if (owner() != _msgSender()) {... */\n      tag_255\n      jumpi\n        /* \"@openzeppelin/contracts/access/Ownable.sol\":1928:1940  _msgSender() */\n      tag_256\n        /* \"@openzeppelin/contracts/access/Ownable.sol\":1928:1938  _msgSender */\n      tag_253\n        /* \"@openzeppelin/contracts/access/Ownable.sol\":1928:1940  _msgSender() */\n      jump\t// in\n    tag_256:\n        /* \"@openzeppelin/contracts/access/Ownable.sol\":1901:1941  OwnableUnauthorizedAccount(_msgSender()) */\n      mload(0x40)\n      0x118cdaa700000000000000000000000000000000000000000000000000000000\n      dup2\n      mstore\n      0x04\n      add\n      tag_257\n      swap2\n      swap1\n      tag_35\n      jump\t// in\n    tag_257:\n      mload(0x40)\n      dup1\n      swap2\n      sub\n      swap1\n      revert\n        /* \"@openzeppelin/contracts/access/Ownable.sol\":1851:1952  if (owner() != _msgSender()) {... */\n    tag_255:\n        /* \"@openzeppelin/contracts/access/Ownable.sol\":1796:1958  function _checkOwner() internal view virtual {... */\n      jump\t// out\n        /* \"@openzeppelin/contracts/access/Ownable.sol\":2912:3099  function _transferOwnership(address newOwner) internal virtual {... */\n    tag_155:\n        /* \"@openzeppelin/contracts/access/Ownable.sol\":2985:3001  address oldOwner */\n      0x00\n        /* \"@openzeppelin/contracts/access/Ownable.sol\":3004:3010  _owner */\n      dup1\n      0x00\n      swap1\n      sload\n      swap1\n      0x0100\n      exp\n      swap1\n      div\n      0xffffffffffffffffffffffffffffffffffffffff\n      and\n        /* \"@openzeppelin/contracts/access/Ownable.sol\":2985:3010  address oldOwner = _owner */\n      swap1\n      pop\n        /* \"@openzeppelin/contracts/access/Ownable.sol\":3029:3037  newOwner */\n      dup2\n        /* \"@openzeppelin/contracts/access/Ownable.sol\":3020:3026  _owner */\n      0x00\n      dup1\n        /* \"@openzeppelin/contracts/access/Ownable.sol\":3020:3037  _owner = newOwner */\n      0x0100\n      exp\n      dup2\n      sload\n      dup2\n      0xffffffffffffffffffffffffffffffffffffffff\n      mul\n      not\n      and\n      swap1\n      dup4\n      0xffffffffffffffffffffffffffffffffffffffff\n      and\n      mul\n      or\n      swap1\n      sstore\n      pop\n        /* \"@openzeppelin/contracts/access/Ownable.sol\":3083:3091  newOwner */\n      dup2\n        /* \"@openzeppelin/contracts/access/Ownable.sol\":3052:3092  OwnershipTransferred(oldOwner, newOwner) */\n      0xffffffffffffffffffffffffffffffffffffffff\n      and\n        /* \"@openzeppelin/contracts/access/Ownable.sol\":3073:3081  oldOwner */\n      dup2\n        /* \"@openzeppelin/contracts/access/Ownable.sol\":3052:3092  OwnershipTransferred(oldOwner, newOwner) */\n      0xffffffffffffffffffffffffffffffffffffffff\n      and\n      0x8be0079c531659141344cd1fd0a4f28419497f9722a3daafe3b4186f6b6457e0\n      mload(0x40)\n      mload(0x40)\n      dup1\n      swap2\n      sub\n      swap1\n      log3\n        /* \"@openzeppelin/contracts/access/Ownable.sol\":2975:3099  {... */\n      pop\n        /* \"@openzeppelin/contracts/access/Ownable.sol\":2912:3099  function _transferOwnership(address newOwner) internal virtual {... */\n      pop\n      jump\t// out\n        /* \"contracts/ICO.sol\":7076:7348  function isInvestor(address account) internal view returns (bool) {... */\n    tag_197:\n        /* \"contracts/ICO.sol\":7136:7140  bool */\n      0x00\n        /* \"contracts/ICO.sol\":7157:7166  uint256 i */\n      dup1\n        /* \"contracts/ICO.sol\":7169:7170  0 */\n      0x00\n        /* \"contracts/ICO.sol\":7157:7170  uint256 i = 0 */\n      swap1\n      pop\n        /* \"contracts/ICO.sol\":7152:7320  for (uint256 i = 0; i < investors_and_partner.length; i++) {... */\n    tag_260:\n        /* \"contracts/ICO.sol\":7176:7197  investors_and_partner */\n      0x26\n        /* \"contracts/ICO.sol\":7176:7204  investors_and_partner.length */\n      dup1\n      sload\n      swap1\n      pop\n        /* \"contracts/ICO.sol\":7172:7173  i */\n      dup2\n        /* \"contracts/ICO.sol\":7172:7204  i < investors_and_partner.length */\n      lt\n        /* \"contracts/ICO.sol\":7152:7320  for (uint256 i = 0; i < investors_and_partner.length; i++) {... */\n      iszero\n      tag_261\n      jumpi\n        /* \"contracts/ICO.sol\":7257:7264  account */\n      dup3\n        /* \"contracts/ICO.sol\":7229:7264  investors_and_partner[i] == account */\n      0xffffffffffffffffffffffffffffffffffffffff\n      and\n        /* \"contracts/ICO.sol\":7229:7250  investors_and_partner */\n      0x26\n        /* \"contracts/ICO.sol\":7251:7252  i */\n      dup3\n        /* \"contracts/ICO.sol\":7229:7253  investors_and_partner[i] */\n      dup2\n      sload\n      dup2\n      lt\n      tag_263\n      jumpi\n      tag_264\n      tag_114\n      jump\t// in\n    tag_264:\n    tag_263:\n      swap1\n      0x00\n      mstore\n      keccak256(0x00, 0x20)\n      add\n      0x00\n      swap1\n      sload\n      swap1\n      0x0100\n      exp\n      swap1\n      div\n      0xffffffffffffffffffffffffffffffffffffffff\n      and\n        /* \"contracts/ICO.sol\":7229:7264  investors_and_partner[i] == account */\n      0xffffffffffffffffffffffffffffffffffffffff\n      and\n      sub\n        /* \"contracts/ICO.sol\":7225:7310  if (investors_and_partner[i] == account) {... */\n      tag_266\n      jumpi\n        /* \"contracts/ICO.sol\":7291:7295  true */\n      0x01\n        /* \"contracts/ICO.sol\":7284:7295  return true */\n      swap2\n      pop\n      pop\n      jump(tag_259)\n        /* \"contracts/ICO.sol\":7225:7310  if (investors_and_partner[i] == account) {... */\n    tag_266:\n        /* \"contracts/ICO.sol\":7206:7209  i++ */\n      dup1\n      dup1\n      0x01\n      add\n      swap2\n      pop\n      pop\n        /* \"contracts/ICO.sol\":7152:7320  for (uint256 i = 0; i < investors_and_partner.length; i++) {... */\n      jump(tag_260)\n    tag_261:\n      pop\n        /* \"contracts/ICO.sol\":7336:7341  false */\n      0x00\n        /* \"contracts/ICO.sol\":7329:7341  return false */\n      swap1\n      pop\n        /* \"contracts/ICO.sol\":7076:7348  function isInvestor(address account) internal view returns (bool) {... */\n    tag_259:\n      swap2\n      swap1\n      pop\n      jump\t// out\n        /* \"contracts/ICO.sol\":7354:7623  function isWhitelisted(address account) internal view returns (bool) {... */\n    tag_211:\n        /* \"contracts/ICO.sol\":7417:7421  bool */\n      0x00\n        /* \"contracts/ICO.sol\":7438:7447  uint256 i */\n      dup1\n        /* \"contracts/ICO.sol\":7450:7451  0 */\n      0x00\n        /* \"contracts/ICO.sol\":7438:7451  uint256 i = 0 */\n      swap1\n      pop\n        /* \"contracts/ICO.sol\":7433:7595  for (uint256 i = 0; i < whitelistedPartner.length; i++) {... */\n    tag_268:\n        /* \"contracts/ICO.sol\":7457:7475  whitelistedPartner */\n      0x27\n        /* \"contracts/ICO.sol\":7457:7482  whitelistedPartner.length */\n      dup1\n      sload\n      swap1\n      pop\n        /* \"contracts/ICO.sol\":7453:7454  i */\n      dup2\n        /* \"contracts/ICO.sol\":7453:7482  i < whitelistedPartner.length */\n      lt\n        /* \"contracts/ICO.sol\":7433:7595  for (uint256 i = 0; i < whitelistedPartner.length; i++) {... */\n      iszero\n      tag_269\n      jumpi\n        /* \"contracts/ICO.sol\":7532:7539  account */\n      dup3\n        /* \"contracts/ICO.sol\":7507:7539  whitelistedPartner[i] == account */\n      0xffffffffffffffffffffffffffffffffffffffff\n      and\n        /* \"contracts/ICO.sol\":7507:7525  whitelistedPartner */\n      0x27\n        /* \"contracts/ICO.sol\":7526:7527  i */\n      dup3\n        /* \"contracts/ICO.sol\":7507:7528  whitelistedPartner[i] */\n      dup2\n      sload\n      dup2\n      lt\n      tag_271\n      jumpi\n      tag_272\n      tag_114\n      jump\t// in\n    tag_272:\n    tag_271:\n      swap1\n      0x00\n      mstore\n      keccak256(0x00, 0x20)\n      add\n      0x00\n      swap1\n      sload\n      swap1\n      0x0100\n      exp\n      swap1\n      div\n      0xffffffffffffffffffffffffffffffffffffffff\n      and\n        /* \"contracts/ICO.sol\":7507:7539  whitelistedPartner[i] == account */\n      0xffffffffffffffffffffffffffffffffffffffff\n      and\n      sub\n        /* \"contracts/ICO.sol\":7503:7585  if (whitelistedPartner[i] == account) {... */\n      tag_274\n      jumpi\n        /* \"contracts/ICO.sol\":7566:7570  true */\n      0x01\n        /* \"contracts/ICO.sol\":7559:7570  return true */\n      swap2\n      pop\n      pop\n      jump(tag_267)\n        /* \"contracts/ICO.sol\":7503:7585  if (whitelistedPartner[i] == account) {... */\n    tag_274:\n        /* \"contracts/ICO.sol\":7484:7487  i++ */\n      dup1\n      dup1\n      0x01\n      add\n      swap2\n      pop\n      pop\n        /* \"contracts/ICO.sol\":7433:7595  for (uint256 i = 0; i < whitelistedPartner.length; i++) {... */\n      jump(tag_268)\n    tag_269:\n      pop\n        /* \"contracts/ICO.sol\":7611:7616  false */\n      0x00\n        /* \"contracts/ICO.sol\":7604:7616  return false */\n      swap1\n      pop\n        /* \"contracts/ICO.sol\":7354:7623  function isWhitelisted(address account) internal view returns (bool) {... */\n    tag_267:\n      swap2\n      swap1\n      pop\n      jump\t// out\n        /* \"@openzeppelin/contracts/utils/Context.sol\":656:752  function _msgSender() internal view virtual returns (address) {... */\n    tag_253:\n        /* \"@openzeppelin/contracts/utils/Context.sol\":709:716  address */\n      0x00\n        /* \"@openzeppelin/contracts/utils/Context.sol\":735:745  msg.sender */\n      caller\n        /* \"@openzeppelin/contracts/utils/Context.sol\":728:745  return msg.sender */\n      swap1\n      pop\n        /* \"@openzeppelin/contracts/utils/Context.sol\":656:752  function _msgSender() internal view virtual returns (address) {... */\n      swap1\n      jump\t// out\n        /* \"#utility.yul\":88:205   */\n    tag_277:\n        /* \"#utility.yul\":197:198   */\n      0x00\n        /* \"#utility.yul\":194:195   */\n      dup1\n        /* \"#utility.yul\":187:199   */\n      revert\n        /* \"#utility.yul\":334:460   */\n    tag_279:\n        /* \"#utility.yul\":371:378   */\n      0x00\n        /* \"#utility.yul\":411:453   */\n      0xffffffffffffffffffffffffffffffffffffffff\n        /* \"#utility.yul\":404:409   */\n      dup3\n        /* \"#utility.yul\":400:454   */\n      and\n        /* \"#utility.yul\":389:454   */\n      swap1\n      pop\n        /* \"#utility.yul\":334:460   */\n      swap2\n      swap1\n      pop\n      jump\t// out\n        /* \"#utility.yul\":466:562   */\n    tag_280:\n        /* \"#utility.yul\":503:510   */\n      0x00\n        /* \"#utility.yul\":532:556   */\n      tag_331\n        /* \"#utility.yul\":550:555   */\n      dup3\n        /* \"#utility.yul\":532:556   */\n      tag_279\n      jump\t// in\n    tag_331:\n        /* \"#utility.yul\":521:556   */\n      swap1\n      pop\n        /* \"#utility.yul\":466:562   */\n      swap2\n      swap1\n      pop\n      jump\t// out\n        /* \"#utility.yul\":568:690   */\n    tag_281:\n        /* \"#utility.yul\":641:665   */\n      tag_333\n        /* \"#utility.yul\":659:664   */\n      dup2\n        /* \"#utility.yul\":641:665   */\n      tag_280\n      jump\t// in\n    tag_333:\n        /* \"#utility.yul\":634:639   */\n      dup2\n        /* \"#utility.yul\":631:666   */\n      eq\n        /* \"#utility.yul\":621:684   */\n      tag_334\n      jumpi\n        /* \"#utility.yul\":680:681   */\n      0x00\n        /* \"#utility.yul\":677:678   */\n      dup1\n        /* \"#utility.yul\":670:682   */\n      revert\n        /* \"#utility.yul\":621:684   */\n    tag_334:\n        /* \"#utility.yul\":568:690   */\n      pop\n      jump\t// out\n        /* \"#utility.yul\":696:835   */\n    tag_282:\n        /* \"#utility.yul\":742:747   */\n      0x00\n        /* \"#utility.yul\":780:786   */\n      dup2\n        /* \"#utility.yul\":767:787   */\n      calldataload\n        /* \"#utility.yul\":758:787   */\n      swap1\n      pop\n        /* \"#utility.yul\":796:829   */\n      tag_336\n        /* \"#utility.yul\":823:828   */\n      dup2\n        /* \"#utility.yul\":796:829   */\n      tag_281\n      jump\t// in\n    tag_336:\n        /* \"#utility.yul\":696:835   */\n      swap3\n      swap2\n      pop\n      pop\n      jump\t// out\n        /* \"#utility.yul\":841:1170   */\n    tag_25:\n        /* \"#utility.yul\":900:906   */\n      0x00\n        /* \"#utility.yul\":949:951   */\n      0x20\n        /* \"#utility.yul\":937:946   */\n      dup3\n        /* \"#utility.yul\":928:935   */\n      dup5\n        /* \"#utility.yul\":924:947   */\n      sub\n        /* \"#utility.yul\":920:952   */\n      slt\n        /* \"#utility.yul\":917:1036   */\n      iszero\n      tag_338\n      jumpi\n        /* \"#utility.yul\":955:1034   */\n      tag_339\n      tag_277\n      jump\t// in\n    tag_339:\n        /* \"#utility.yul\":917:1036   */\n    tag_338:\n        /* \"#utility.yul\":1075:1076   */\n      0x00\n        /* \"#utility.yul\":1100:1153   */\n      tag_340\n        /* \"#utility.yul\":1145:1152   */\n      dup5\n        /* \"#utility.yul\":1136:1142   */\n      dup3\n        /* \"#utility.yul\":1125:1134   */\n      dup6\n        /* \"#utility.yul\":1121:1143   */\n      add\n        /* \"#utility.yul\":1100:1153   */\n      tag_282\n      jump\t// in\n    tag_340:\n        /* \"#utility.yul\":1090:1153   */\n      swap2\n      pop\n        /* \"#utility.yul\":1046:1163   */\n      pop\n        /* \"#utility.yul\":841:1170   */\n      swap3\n      swap2\n      pop\n      pop\n      jump\t// out\n        /* \"#utility.yul\":1176:1253   */\n    tag_283:\n        /* \"#utility.yul\":1213:1220   */\n      0x00\n        /* \"#utility.yul\":1242:1247   */\n      dup2\n        /* \"#utility.yul\":1231:1247   */\n      swap1\n      pop\n        /* \"#utility.yul\":1176:1253   */\n      swap2\n      swap1\n      pop\n      jump\t// out\n        /* \"#utility.yul\":1259:1377   */\n    tag_284:\n        /* \"#utility.yul\":1346:1370   */\n      tag_343\n        /* \"#utility.yul\":1364:1369   */\n      dup2\n        /* \"#utility.yul\":1346:1370   */\n      tag_283\n      jump\t// in\n    tag_343:\n        /* \"#utility.yul\":1341:1344   */\n      dup3\n        /* \"#utility.yul\":1334:1371   */\n      mstore\n        /* \"#utility.yul\":1259:1377   */\n      pop\n      pop\n      jump\t// out\n        /* \"#utility.yul\":1383:1605   */\n    tag_28:\n        /* \"#utility.yul\":1476:1480   */\n      0x00\n        /* \"#utility.yul\":1514:1516   */\n      0x20\n        /* \"#utility.yul\":1503:1512   */\n      dup3\n        /* \"#utility.yul\":1499:1517   */\n      add\n        /* \"#utility.yul\":1491:1517   */\n      swap1\n      pop\n        /* \"#utility.yul\":1527:1598   */\n      tag_345\n        /* \"#utility.yul\":1595:1596   */\n      0x00\n        /* \"#utility.yul\":1584:1593   */\n      dup4\n        /* \"#utility.yul\":1580:1597   */\n      add\n        /* \"#utility.yul\":1571:1577   */\n      dup5\n        /* \"#utility.yul\":1527:1598   */\n      tag_284\n      jump\t// in\n    tag_345:\n        /* \"#utility.yul\":1383:1605   */\n      swap3\n      swap2\n      pop\n      pop\n      jump\t// out\n        /* \"#utility.yul\":1611:1733   */\n    tag_285:\n        /* \"#utility.yul\":1684:1708   */\n      tag_347\n        /* \"#utility.yul\":1702:1707   */\n      dup2\n        /* \"#utility.yul\":1684:1708   */\n      tag_283\n      jump\t// in\n    tag_347:\n        /* \"#utility.yul\":1677:1682   */\n      dup2\n        /* \"#utility.yul\":1674:1709   */\n      eq\n        /* \"#utility.yul\":1664:1727   */\n      tag_348\n      jumpi\n        /* \"#utility.yul\":1723:1724   */\n      0x00\n        /* \"#utility.yul\":1720:1721   */\n      dup1\n        /* \"#utility.yul\":1713:1725   */\n      revert\n        /* \"#utility.yul\":1664:1727   */\n    tag_348:\n        /* \"#utility.yul\":1611:1733   */\n      pop\n      jump\t// out\n        /* \"#utility.yul\":1739:1878   */\n    tag_286:\n        /* \"#utility.yul\":1785:1790   */\n      0x00\n        /* \"#utility.yul\":1823:1829   */\n      dup2\n        /* \"#utility.yul\":1810:1830   */\n      calldataload\n        /* \"#utility.yul\":1801:1830   */\n      swap1\n      pop\n        /* \"#utility.yul\":1839:1872   */\n      tag_350\n        /* \"#utility.yul\":1866:1871   */\n      dup2\n        /* \"#utility.yul\":1839:1872   */\n      tag_285\n      jump\t// in\n    tag_350:\n        /* \"#utility.yul\":1739:1878   */\n      swap3\n      swap2\n      pop\n      pop\n      jump\t// out\n        /* \"#utility.yul\":1884:2213   */\n    tag_32:\n        /* \"#utility.yul\":1943:1949   */\n      0x00\n        /* \"#utility.yul\":1992:1994   */\n      0x20\n        /* \"#utility.yul\":1980:1989   */\n      dup3\n        /* \"#utility.yul\":1971:1978   */\n      dup5\n        /* \"#utility.yul\":1967:1990   */\n      sub\n        /* \"#utility.yul\":1963:1995   */\n      slt\n        /* \"#utility.yul\":1960:2079   */\n      iszero\n      tag_352\n      jumpi\n        /* \"#utility.yul\":1998:2077   */\n      tag_353\n      tag_277\n      jump\t// in\n    tag_353:\n        /* \"#utility.yul\":1960:2079   */\n    tag_352:\n        /* \"#utility.yul\":2118:2119   */\n      0x00\n        /* \"#utility.yul\":2143:2196   */\n      tag_354\n        /* \"#utility.yul\":2188:2195   */\n      dup5\n        /* \"#utility.yul\":2179:2185   */\n      dup3\n        /* \"#utility.yul\":2168:2177   */\n      dup6\n        /* \"#utility.yul\":2164:2186   */\n      add\n        /* \"#utility.yul\":2143:2196   */\n      tag_286\n      jump\t// in\n    tag_354:\n        /* \"#utility.yul\":2133:2196   */\n      swap2\n      pop\n        /* \"#utility.yul\":2089:2206   */\n      pop\n        /* \"#utility.yul\":1884:2213   */\n      swap3\n      swap2\n      pop\n      pop\n      jump\t// out\n        /* \"#utility.yul\":2219:2337   */\n    tag_287:\n        /* \"#utility.yul\":2306:2330   */\n      tag_356\n        /* \"#utility.yul\":2324:2329   */\n      dup2\n        /* \"#utility.yul\":2306:2330   */\n      tag_280\n      jump\t// in\n    tag_356:\n        /* \"#utility.yul\":2301:2304   */\n      dup3\n        /* \"#utility.yul\":2294:2331   */\n      mstore\n        /* \"#utility.yul\":2219:2337   */\n      pop\n      pop\n      jump\t// out\n        /* \"#utility.yul\":2343:2565   */\n    tag_35:\n        /* \"#utility.yul\":2436:2440   */\n      0x00\n        /* \"#utility.yul\":2474:2476   */\n      0x20\n        /* \"#utility.yul\":2463:2472   */\n      dup3\n        /* \"#utility.yul\":2459:2477   */\n      add\n        /* \"#utility.yul\":2451:2477   */\n      swap1\n      pop\n        /* \"#utility.yul\":2487:2558   */\n      tag_358\n        /* \"#utility.yul\":2555:2556   */\n      0x00\n        /* \"#utility.yul\":2544:2553   */\n      dup4\n        /* \"#utility.yul\":2540:2557   */\n      add\n        /* \"#utility.yul\":2531:2537   */\n      dup5\n        /* \"#utility.yul\":2487:2558   */\n      tag_287\n      jump\t// in\n    tag_358:\n        /* \"#utility.yul\":2343:2565   */\n      swap3\n      swap2\n      pop\n      pop\n      jump\t// out\n        /* \"#utility.yul\":2571:2657   */\n    tag_288:\n        /* \"#utility.yul\":2606:2613   */\n      0x00\n        /* \"#utility.yul\":2646:2650   */\n      0xff\n        /* \"#utility.yul\":2639:2644   */\n      dup3\n        /* \"#utility.yul\":2635:2651   */\n      and\n        /* \"#utility.yul\":2624:2651   */\n      swap1\n      pop\n        /* \"#utility.yul\":2571:2657   */\n      swap2\n      swap1\n      pop\n      jump\t// out\n        /* \"#utility.yul\":2663:2775   */\n    tag_289:\n        /* \"#utility.yul\":2746:2768   */\n      tag_361\n        /* \"#utility.yul\":2762:2767   */\n      dup2\n        /* \"#utility.yul\":2746:2768   */\n      tag_288\n      jump\t// in\n    tag_361:\n        /* \"#utility.yul\":2741:2744   */\n      dup3\n        /* \"#utility.yul\":2734:2769   */\n      mstore\n        /* \"#utility.yul\":2663:2775   */\n      pop\n      pop\n      jump\t// out\n        /* \"#utility.yul\":2781:2995   */\n    tag_48:\n        /* \"#utility.yul\":2870:2874   */\n      0x00\n        /* \"#utility.yul\":2908:2910   */\n      0x20\n        /* \"#utility.yul\":2897:2906   */\n      dup3\n        /* \"#utility.yul\":2893:2911   */\n      add\n        /* \"#utility.yul\":2885:2911   */\n      swap1\n      pop\n        /* \"#utility.yul\":2921:2988   */\n      tag_363\n        /* \"#utility.yul\":2985:2986   */\n      0x00\n        /* \"#utility.yul\":2974:2983   */\n      dup4\n        /* \"#utility.yul\":2970:2987   */\n      add\n        /* \"#utility.yul\":2961:2967   */\n      dup5\n        /* \"#utility.yul\":2921:2988   */\n      tag_289\n      jump\t// in\n    tag_363:\n        /* \"#utility.yul\":2781:2995   */\n      swap3\n      swap2\n      pop\n      pop\n      jump\t// out\n        /* \"#utility.yul\":3001:3181   */\n    tag_192:\n        /* \"#utility.yul\":3049:3126   */\n      0x4e487b7100000000000000000000000000000000000000000000000000000000\n        /* \"#utility.yul\":3046:3047   */\n      0x00\n        /* \"#utility.yul\":3039:3127   */\n      mstore\n        /* \"#utility.yul\":3146:3150   */\n      0x21\n        /* \"#utility.yul\":3143:3144   */\n      0x04\n        /* \"#utility.yul\":3136:3151   */\n      mstore\n        /* \"#utility.yul\":3170:3174   */\n      0x24\n        /* \"#utility.yul\":3167:3168   */\n      0x00\n        /* \"#utility.yul\":3160:3175   */\n      revert\n        /* \"#utility.yul\":3187:3305   */\n    tag_290:\n        /* \"#utility.yul\":3273:3274   */\n      0x03\n        /* \"#utility.yul\":3266:3271   */\n      dup2\n        /* \"#utility.yul\":3263:3275   */\n      lt\n        /* \"#utility.yul\":3253:3299   */\n      tag_366\n      jumpi\n        /* \"#utility.yul\":3279:3297   */\n      tag_367\n      tag_192\n      jump\t// in\n    tag_367:\n        /* \"#utility.yul\":3253:3299   */\n    tag_366:\n        /* \"#utility.yul\":3187:3305   */\n      pop\n      jump\t// out\n        /* \"#utility.yul\":3311:3448   */\n    tag_291:\n        /* \"#utility.yul\":3361:3368   */\n      0x00\n        /* \"#utility.yul\":3390:3395   */\n      dup2\n        /* \"#utility.yul\":3379:3395   */\n      swap1\n      pop\n        /* \"#utility.yul\":3396:3442   */\n      tag_369\n        /* \"#utility.yul\":3436:3441   */\n      dup3\n        /* \"#utility.yul\":3396:3442   */\n      tag_290\n      jump\t// in\n    tag_369:\n        /* \"#utility.yul\":3311:3448   */\n      swap2\n      swap1\n      pop\n      jump\t// out\n        /* \"#utility.yul\":3454:3591   */\n    tag_292:\n        /* \"#utility.yul\":3515:3524   */\n      0x00\n        /* \"#utility.yul\":3548:3585   */\n      tag_371\n        /* \"#utility.yul\":3579:3584   */\n      dup3\n        /* \"#utility.yul\":3548:3585   */\n      tag_291\n      jump\t// in\n    tag_371:\n        /* \"#utility.yul\":3535:3585   */\n      swap1\n      pop\n        /* \"#utility.yul\":3454:3591   */\n      swap2\n      swap1\n      pop\n      jump\t// out\n        /* \"#utility.yul\":3597:3750   */\n    tag_293:\n        /* \"#utility.yul\":3695:3743   */\n      tag_373\n        /* \"#utility.yul\":3737:3742   */\n      dup2\n        /* \"#utility.yul\":3695:3743   */\n      tag_292\n      jump\t// in\n    tag_373:\n        /* \"#utility.yul\":3690:3693   */\n      dup3\n        /* \"#utility.yul\":3683:3744   */\n      mstore\n        /* \"#utility.yul\":3597:3750   */\n      pop\n      pop\n      jump\t// out\n        /* \"#utility.yul\":3756:4886   */\n    tag_66:\n        /* \"#utility.yul\":4084:4088   */\n      0x00\n        /* \"#utility.yul\":4122:4125   */\n      0x0120\n        /* \"#utility.yul\":4111:4120   */\n      dup3\n        /* \"#utility.yul\":4107:4126   */\n      add\n        /* \"#utility.yul\":4099:4126   */\n      swap1\n      pop\n        /* \"#utility.yul\":4136:4218   */\n      tag_375\n        /* \"#utility.yul\":4215:4216   */\n      0x00\n        /* \"#utility.yul\":4204:4213   */\n      dup4\n        /* \"#utility.yul\":4200:4217   */\n      add\n        /* \"#utility.yul\":4191:4197   */\n      dup13\n        /* \"#utility.yul\":4136:4218   */\n      tag_293\n      jump\t// in\n    tag_375:\n        /* \"#utility.yul\":4228:4300   */\n      tag_376\n        /* \"#utility.yul\":4296:4298   */\n      0x20\n        /* \"#utility.yul\":4285:4294   */\n      dup4\n        /* \"#utility.yul\":4281:4299   */\n      add\n        /* \"#utility.yul\":4272:4278   */\n      dup12\n        /* \"#utility.yul\":4228:4300   */\n      tag_284\n      jump\t// in\n    tag_376:\n        /* \"#utility.yul\":4310:4382   */\n      tag_377\n        /* \"#utility.yul\":4378:4380   */\n      0x40\n        /* \"#utility.yul\":4367:4376   */\n      dup4\n        /* \"#utility.yul\":4363:4381   */\n      add\n        /* \"#utility.yul\":4354:4360   */\n      dup11\n        /* \"#utility.yul\":4310:4382   */\n      tag_284\n      jump\t// in\n    tag_377:\n        /* \"#utility.yul\":4392:4464   */\n      tag_378\n        /* \"#utility.yul\":4460:4462   */\n      0x60\n        /* \"#utility.yul\":4449:4458   */\n      dup4\n        /* \"#utility.yul\":4445:4463   */\n      add\n        /* \"#utility.yul\":4436:4442   */\n      dup10\n        /* \"#utility.yul\":4392:4464   */\n      tag_284\n      jump\t// in\n    tag_378:\n        /* \"#utility.yul\":4474:4547   */\n      tag_379\n        /* \"#utility.yul\":4542:4545   */\n      0x80\n        /* \"#utility.yul\":4531:4540   */\n      dup4\n        /* \"#utility.yul\":4527:4546   */\n      add\n        /* \"#utility.yul\":4518:4524   */\n      dup9\n        /* \"#utility.yul\":4474:4547   */\n      tag_284\n      jump\t// in\n    tag_379:\n        /* \"#utility.yul\":4557:4630   */\n      tag_380\n        /* \"#utility.yul\":4625:4628   */\n      0xa0\n        /* \"#utility.yul\":4614:4623   */\n      dup4\n        /* \"#utility.yul\":4610:4629   */\n      add\n        /* \"#utility.yul\":4601:4607   */\n      dup8\n        /* \"#utility.yul\":4557:4630   */\n      tag_284\n      jump\t// in\n    tag_380:\n        /* \"#utility.yul\":4640:4713   */\n      tag_381\n        /* \"#utility.yul\":4708:4711   */\n      0xc0\n        /* \"#utility.yul\":4697:4706   */\n      dup4\n        /* \"#utility.yul\":4693:4712   */\n      add\n        /* \"#utility.yul\":4684:4690   */\n      dup7\n        /* \"#utility.yul\":4640:4713   */\n      tag_284\n      jump\t// in\n    tag_381:\n        /* \"#utility.yul\":4723:4796   */\n      tag_382\n        /* \"#utility.yul\":4791:4794   */\n      0xe0\n        /* \"#utility.yul\":4780:4789   */\n      dup4\n        /* \"#utility.yul\":4776:4795   */\n      add\n        /* \"#utility.yul\":4767:4773   */\n      dup6\n        /* \"#utility.yul\":4723:4796   */\n      tag_284\n      jump\t// in\n    tag_382:\n        /* \"#utility.yul\":4806:4879   */\n      tag_383\n        /* \"#utility.yul\":4874:4877   */\n      0x0100\n        /* \"#utility.yul\":4863:4872   */\n      dup4\n        /* \"#utility.yul\":4859:4878   */\n      add\n        /* \"#utility.yul\":4850:4856   */\n      dup5\n        /* \"#utility.yul\":4806:4879   */\n      tag_284\n      jump\t// in\n    tag_383:\n        /* \"#utility.yul\":3756:4886   */\n      swap11\n      swap10\n      pop\n      pop\n      pop\n      pop\n      pop\n      pop\n      pop\n      pop\n      pop\n      pop\n      jump\t// out\n        /* \"#utility.yul\":4892:5366   */\n    tag_87:\n        /* \"#utility.yul\":4960:4966   */\n      0x00\n        /* \"#utility.yul\":4968:4974   */\n      dup1\n        /* \"#utility.yul\":5017:5019   */\n      0x40\n        /* \"#utility.yul\":5005:5014   */\n      dup4\n        /* \"#utility.yul\":4996:5003   */\n      dup6\n        /* \"#utility.yul\":4992:5015   */\n      sub\n        /* \"#utility.yul\":4988:5020   */\n      slt\n        /* \"#utility.yul\":4985:5104   */\n      iszero\n      tag_385\n      jumpi\n        /* \"#utility.yul\":5023:5102   */\n      tag_386\n      tag_277\n      jump\t// in\n    tag_386:\n        /* \"#utility.yul\":4985:5104   */\n    tag_385:\n        /* \"#utility.yul\":5143:5144   */\n      0x00\n        /* \"#utility.yul\":5168:5221   */\n      tag_387\n        /* \"#utility.yul\":5213:5220   */\n      dup6\n        /* \"#utility.yul\":5204:5210   */\n      dup3\n        /* \"#utility.yul\":5193:5202   */\n      dup7\n        /* \"#utility.yul\":5189:5211   */\n      add\n        /* \"#utility.yul\":5168:5221   */\n      tag_286\n      jump\t// in\n    tag_387:\n        /* \"#utility.yul\":5158:5221   */\n      swap3\n      pop\n        /* \"#utility.yul\":5114:5231   */\n      pop\n        /* \"#utility.yul\":5270:5272   */\n      0x20\n        /* \"#utility.yul\":5296:5349   */\n      tag_388\n        /* \"#utility.yul\":5341:5348   */\n      dup6\n        /* \"#utility.yul\":5332:5338   */\n      dup3\n        /* \"#utility.yul\":5321:5330   */\n      dup7\n        /* \"#utility.yul\":5317:5339   */\n      add\n        /* \"#utility.yul\":5296:5349   */\n      tag_282\n      jump\t// in\n    tag_388:\n        /* \"#utility.yul\":5286:5349   */\n      swap2\n      pop\n        /* \"#utility.yul\":5241:5359   */\n      pop\n        /* \"#utility.yul\":4892:5366   */\n      swap3\n      pop\n      swap3\n      swap1\n      pop\n      jump\t// out\n        /* \"#utility.yul\":5372:5432   */\n    tag_294:\n        /* \"#utility.yul\":5400:5403   */\n      0x00\n        /* \"#utility.yul\":5421:5426   */\n      dup2\n        /* \"#utility.yul\":5414:5426   */\n      swap1\n      pop\n        /* \"#utility.yul\":5372:5432   */\n      swap2\n      swap1\n      pop\n      jump\t// out\n        /* \"#utility.yul\":5438:5580   */\n    tag_295:\n        /* \"#utility.yul\":5488:5497   */\n      0x00\n        /* \"#utility.yul\":5521:5574   */\n      tag_391\n        /* \"#utility.yul\":5539:5573   */\n      tag_392\n        /* \"#utility.yul\":5548:5572   */\n      tag_393\n        /* \"#utility.yul\":5566:5571   */\n      dup5\n        /* \"#utility.yul\":5548:5572   */\n      tag_279\n      jump\t// in\n    tag_393:\n        /* \"#utility.yul\":5539:5573   */\n      tag_294\n      jump\t// in\n    tag_392:\n        /* \"#utility.yul\":5521:5574   */\n      tag_279\n      jump\t// in\n    tag_391:\n        /* \"#utility.yul\":5508:5574   */\n      swap1\n      pop\n        /* \"#utility.yul\":5438:5580   */\n      swap2\n      swap1\n      pop\n      jump\t// out\n        /* \"#utility.yul\":5586:5712   */\n    tag_296:\n        /* \"#utility.yul\":5636:5645   */\n      0x00\n        /* \"#utility.yul\":5669:5706   */\n      tag_395\n        /* \"#utility.yul\":5700:5705   */\n      dup3\n        /* \"#utility.yul\":5669:5706   */\n      tag_295\n      jump\t// in\n    tag_395:\n        /* \"#utility.yul\":5656:5706   */\n      swap1\n      pop\n        /* \"#utility.yul\":5586:5712   */\n      swap2\n      swap1\n      pop\n      jump\t// out\n        /* \"#utility.yul\":5718:5858   */\n    tag_297:\n        /* \"#utility.yul\":5782:5791   */\n      0x00\n        /* \"#utility.yul\":5815:5852   */\n      tag_397\n        /* \"#utility.yul\":5846:5851   */\n      dup3\n        /* \"#utility.yul\":5815:5852   */\n      tag_296\n      jump\t// in\n    tag_397:\n        /* \"#utility.yul\":5802:5852   */\n      swap1\n      pop\n        /* \"#utility.yul\":5718:5858   */\n      swap2\n      swap1\n      pop\n      jump\t// out\n        /* \"#utility.yul\":5864:6023   */\n    tag_298:\n        /* \"#utility.yul\":5965:6016   */\n      tag_399\n        /* \"#utility.yul\":6010:6015   */\n      dup2\n        /* \"#utility.yul\":5965:6016   */\n      tag_297\n      jump\t// in\n    tag_399:\n        /* \"#utility.yul\":5960:5963   */\n      dup3\n        /* \"#utility.yul\":5953:6017   */\n      mstore\n        /* \"#utility.yul\":5864:6023   */\n      pop\n      pop\n      jump\t// out\n        /* \"#utility.yul\":6029:6279   */\n    tag_97:\n        /* \"#utility.yul\":6136:6140   */\n      0x00\n        /* \"#utility.yul\":6174:6176   */\n      0x20\n        /* \"#utility.yul\":6163:6172   */\n      dup3\n        /* \"#utility.yul\":6159:6177   */\n      add\n        /* \"#utility.yul\":6151:6177   */\n      swap1\n      pop\n        /* \"#utility.yul\":6187:6272   */\n      tag_401\n        /* \"#utility.yul\":6269:6270   */\n      0x00\n        /* \"#utility.yul\":6258:6267   */\n      dup4\n        /* \"#utility.yul\":6254:6271   */\n      add\n        /* \"#utility.yul\":6245:6251   */\n      dup5\n        /* \"#utility.yul\":6187:6272   */\n      tag_298\n      jump\t// in\n    tag_401:\n        /* \"#utility.yul\":6029:6279   */\n      swap3\n      swap2\n      pop\n      pop\n      jump\t// out\n        /* \"#utility.yul\":6285:6759   */\n    tag_101:\n        /* \"#utility.yul\":6353:6359   */\n      0x00\n        /* \"#utility.yul\":6361:6367   */\n      dup1\n        /* \"#utility.yul\":6410:6412   */\n      0x40\n        /* \"#utility.yul\":6398:6407   */\n      dup4\n        /* \"#utility.yul\":6389:6396   */\n      dup6\n        /* \"#utility.yul\":6385:6408   */\n      sub\n        /* \"#utility.yul\":6381:6413   */\n      slt\n        /* \"#utility.yul\":6378:6497   */\n      iszero\n      tag_403\n      jumpi\n        /* \"#utility.yul\":6416:6495   */\n      tag_404\n      tag_277\n      jump\t// in\n    tag_404:\n        /* \"#utility.yul\":6378:6497   */\n    tag_403:\n        /* \"#utility.yul\":6536:6537   */\n      0x00\n        /* \"#utility.yul\":6561:6614   */\n      tag_405\n        /* \"#utility.yul\":6606:6613   */\n      dup6\n        /* \"#utility.yul\":6597:6603   */\n      dup3\n        /* \"#utility.yul\":6586:6595   */\n      dup7\n        /* \"#utility.yul\":6582:6604   */\n      add\n        /* \"#utility.yul\":6561:6614   */\n      tag_282\n      jump\t// in\n    tag_405:\n        /* \"#utility.yul\":6551:6614   */\n      swap3\n      pop\n        /* \"#utility.yul\":6507:6624   */\n      pop\n        /* \"#utility.yul\":6663:6665   */\n      0x20\n        /* \"#utility.yul\":6689:6742   */\n      tag_406\n        /* \"#utility.yul\":6734:6741   */\n      dup6\n        /* \"#utility.yul\":6725:6731   */\n      dup3\n        /* \"#utility.yul\":6714:6723   */\n      dup7\n        /* \"#utility.yul\":6710:6732   */\n      add\n        /* \"#utility.yul\":6689:6742   */\n      tag_286\n      jump\t// in\n    tag_406:\n        /* \"#utility.yul\":6679:6742   */\n      swap2\n      pop\n        /* \"#utility.yul\":6634:6752   */\n      pop\n        /* \"#utility.yul\":6285:6759   */\n      swap3\n      pop\n      swap3\n      swap1\n      pop\n      jump\t// out\n        /* \"#utility.yul\":6765:6934   */\n    tag_299:\n        /* \"#utility.yul\":6849:6860   */\n      0x00\n        /* \"#utility.yul\":6883:6889   */\n      dup3\n        /* \"#utility.yul\":6878:6881   */\n      dup3\n        /* \"#utility.yul\":6871:6890   */\n      mstore\n        /* \"#utility.yul\":6923:6927   */\n      0x20\n        /* \"#utility.yul\":6918:6921   */\n      dup3\n        /* \"#utility.yul\":6914:6928   */\n      add\n        /* \"#utility.yul\":6899:6928   */\n      swap1\n      pop\n        /* \"#utility.yul\":6765:6934   */\n      swap3\n      swap2\n      pop\n      pop\n      jump\t// out\n        /* \"#utility.yul\":6940:7121   */\n    tag_300:\n        /* \"#utility.yul\":7080:7113   */\n      0x4e6f20746f6b656e7320617661696c61626c6520666f722072656c6561736500\n        /* \"#utility.yul\":7076:7077   */\n      0x00\n        /* \"#utility.yul\":7068:7074   */\n      dup3\n        /* \"#utility.yul\":7064:7078   */\n      add\n        /* \"#utility.yul\":7057:7114   */\n      mstore\n        /* \"#utility.yul\":6940:7121   */\n      pop\n      jump\t// out\n        /* \"#utility.yul\":7127:7493   */\n    tag_301:\n        /* \"#utility.yul\":7269:7272   */\n      0x00\n        /* \"#utility.yul\":7290:7357   */\n      tag_410\n        /* \"#utility.yul\":7354:7356   */\n      0x1f\n        /* \"#utility.yul\":7349:7352   */\n      dup4\n        /* \"#utility.yul\":7290:7357   */\n      tag_299\n      jump\t// in\n    tag_410:\n        /* \"#utility.yul\":7283:7357   */\n      swap2\n      pop\n        /* \"#utility.yul\":7366:7459   */\n      tag_411\n        /* \"#utility.yul\":7455:7458   */\n      dup3\n        /* \"#utility.yul\":7366:7459   */\n      tag_300\n      jump\t// in\n    tag_411:\n        /* \"#utility.yul\":7484:7486   */\n      0x20\n        /* \"#utility.yul\":7479:7482   */\n      dup3\n        /* \"#utility.yul\":7475:7487   */\n      add\n        /* \"#utility.yul\":7468:7487   */\n      swap1\n      pop\n        /* \"#utility.yul\":7127:7493   */\n      swap2\n      swap1\n      pop\n      jump\t// out\n        /* \"#utility.yul\":7499:7918   */\n    tag_111:\n        /* \"#utility.yul\":7665:7669   */\n      0x00\n        /* \"#utility.yul\":7703:7705   */\n      0x20\n        /* \"#utility.yul\":7692:7701   */\n      dup3\n        /* \"#utility.yul\":7688:7706   */\n      add\n        /* \"#utility.yul\":7680:7706   */\n      swap1\n      pop\n        /* \"#utility.yul\":7752:7761   */\n      dup2\n        /* \"#utility.yul\":7746:7750   */\n      dup2\n        /* \"#utility.yul\":7742:7762   */\n      sub\n        /* \"#utility.yul\":7738:7739   */\n      0x00\n        /* \"#utility.yul\":7727:7736   */\n      dup4\n        /* \"#utility.yul\":7723:7740   */\n      add\n        /* \"#utility.yul\":7716:7763   */\n      mstore\n        /* \"#utility.yul\":7780:7911   */\n      tag_413\n        /* \"#utility.yul\":7906:7910   */\n      dup2\n        /* \"#utility.yul\":7780:7911   */\n      tag_301\n      jump\t// in\n    tag_413:\n        /* \"#utility.yul\":7772:7911   */\n      swap1\n      pop\n        /* \"#utility.yul\":7499:7918   */\n      swap2\n      swap1\n      pop\n      jump\t// out\n        /* \"#utility.yul\":7924:8104   */\n    tag_114:\n        /* \"#utility.yul\":7972:8049   */\n      0x4e487b7100000000000000000000000000000000000000000000000000000000\n        /* \"#utility.yul\":7969:7970   */\n      0x00\n        /* \"#utility.yul\":7962:8050   */\n      mstore\n        /* \"#utility.yul\":8069:8073   */\n      0x32\n        /* \"#utility.yul\":8066:8067   */\n      0x04\n        /* \"#utility.yul\":8059:8074   */\n      mstore\n        /* \"#utility.yul\":8093:8097   */\n      0x24\n        /* \"#utility.yul\":8090:8091   */\n      0x00\n        /* \"#utility.yul\":8083:8098   */\n      revert\n        /* \"#utility.yul\":8110:8290   */\n    tag_302:\n        /* \"#utility.yul\":8158:8235   */\n      0x4e487b7100000000000000000000000000000000000000000000000000000000\n        /* \"#utility.yul\":8155:8156   */\n      0x00\n        /* \"#utility.yul\":8148:8236   */\n      mstore\n        /* \"#utility.yul\":8255:8259   */\n      0x11\n        /* \"#utility.yul\":8252:8253   */\n      0x04\n        /* \"#utility.yul\":8245:8260   */\n      mstore\n        /* \"#utility.yul\":8279:8283   */\n      0x24\n        /* \"#utility.yul\":8276:8277   */\n      0x00\n        /* \"#utility.yul\":8269:8284   */\n      revert\n        /* \"#utility.yul\":8296:8487   */\n    tag_117:\n        /* \"#utility.yul\":8336:8339   */\n      0x00\n        /* \"#utility.yul\":8355:8375   */\n      tag_417\n        /* \"#utility.yul\":8373:8374   */\n      dup3\n        /* \"#utility.yul\":8355:8375   */\n      tag_283\n      jump\t// in\n    tag_417:\n        /* \"#utility.yul\":8350:8375   */\n      swap2\n      pop\n        /* \"#utility.yul\":8389:8409   */\n      tag_418\n        /* \"#utility.yul\":8407:8408   */\n      dup4\n        /* \"#utility.yul\":8389:8409   */\n      tag_283\n      jump\t// in\n    tag_418:\n        /* \"#utility.yul\":8384:8409   */\n      swap3\n      pop\n        /* \"#utility.yul\":8432:8433   */\n      dup3\n        /* \"#utility.yul\":8429:8430   */\n      dup3\n        /* \"#utility.yul\":8425:8434   */\n      add\n        /* \"#utility.yul\":8418:8434   */\n      swap1\n      pop\n        /* \"#utility.yul\":8453:8456   */\n      dup1\n        /* \"#utility.yul\":8450:8451   */\n      dup3\n        /* \"#utility.yul\":8447:8457   */\n      gt\n        /* \"#utility.yul\":8444:8480   */\n      iszero\n      tag_419\n      jumpi\n        /* \"#utility.yul\":8460:8478   */\n      tag_420\n      tag_302\n      jump\t// in\n    tag_420:\n        /* \"#utility.yul\":8444:8480   */\n    tag_419:\n        /* \"#utility.yul\":8296:8487   */\n      swap3\n      swap2\n      pop\n      pop\n      jump\t// out\n        /* \"#utility.yul\":8493:8668   */\n    tag_303:\n        /* \"#utility.yul\":8633:8660   */\n      0x436c69666620706572696f64206e6f742066696e697368656400000000000000\n        /* \"#utility.yul\":8629:8630   */\n      0x00\n        /* \"#utility.yul\":8621:8627   */\n      dup3\n        /* \"#utility.yul\":8617:8631   */\n      add\n        /* \"#utility.yul\":8610:8661   */\n      mstore\n        /* \"#utility.yul\":8493:8668   */\n      pop\n      jump\t// out\n        /* \"#utility.yul\":8674:9040   */\n    tag_304:\n        /* \"#utility.yul\":8816:8819   */\n      0x00\n        /* \"#utility.yul\":8837:8904   */\n      tag_423\n        /* \"#utility.yul\":8901:8903   */\n      0x19\n        /* \"#utility.yul\":8896:8899   */\n      dup4\n        /* \"#utility.yul\":8837:8904   */\n      tag_299\n      jump\t// in\n    tag_423:\n        /* \"#utility.yul\":8830:8904   */\n      swap2\n      pop\n        /* \"#utility.yul\":8913:9006   */\n      tag_424\n        /* \"#utility.yul\":9002:9005   */\n      dup3\n        /* \"#utility.yul\":8913:9006   */\n      tag_303\n      jump\t// in\n    tag_424:\n        /* \"#utility.yul\":9031:9033   */\n      0x20\n        /* \"#utility.yul\":9026:9029   */\n      dup3\n        /* \"#utility.yul\":9022:9034   */\n      add\n        /* \"#utility.yul\":9015:9034   */\n      swap1\n      pop\n        /* \"#utility.yul\":8674:9040   */\n      swap2\n      swap1\n      pop\n      jump\t// out\n        /* \"#utility.yul\":9046:9465   */\n    tag_120:\n        /* \"#utility.yul\":9212:9216   */\n      0x00\n        /* \"#utility.yul\":9250:9252   */\n      0x20\n        /* \"#utility.yul\":9239:9248   */\n      dup3\n        /* \"#utility.yul\":9235:9253   */\n      add\n        /* \"#utility.yul\":9227:9253   */\n      swap1\n      pop\n        /* \"#utility.yul\":9299:9308   */\n      dup2\n        /* \"#utility.yul\":9293:9297   */\n      dup2\n        /* \"#utility.yul\":9289:9309   */\n      sub\n        /* \"#utility.yul\":9285:9286   */\n      0x00\n        /* \"#utility.yul\":9274:9283   */\n      dup4\n        /* \"#utility.yul\":9270:9287   */\n      add\n        /* \"#utility.yul\":9263:9310   */\n      mstore\n        /* \"#utility.yul\":9327:9458   */\n      tag_426\n        /* \"#utility.yul\":9453:9457   */\n      dup2\n        /* \"#utility.yul\":9327:9458   */\n      tag_304\n      jump\t// in\n    tag_426:\n        /* \"#utility.yul\":9319:9458   */\n      swap1\n      pop\n        /* \"#utility.yul\":9046:9465   */\n      swap2\n      swap1\n      pop\n      jump\t// out\n        /* \"#utility.yul\":9471:9665   */\n    tag_123:\n        /* \"#utility.yul\":9511:9515   */\n      0x00\n        /* \"#utility.yul\":9531:9551   */\n      tag_428\n        /* \"#utility.yul\":9549:9550   */\n      dup3\n        /* \"#utility.yul\":9531:9551   */\n      tag_283\n      jump\t// in\n    tag_428:\n        /* \"#utility.yul\":9526:9551   */\n      swap2\n      pop\n        /* \"#utility.yul\":9565:9585   */\n      tag_429\n        /* \"#utility.yul\":9583:9584   */\n      dup4\n        /* \"#utility.yul\":9565:9585   */\n      tag_283\n      jump\t// in\n    tag_429:\n        /* \"#utility.yul\":9560:9585   */\n      swap3\n      pop\n        /* \"#utility.yul\":9609:9610   */\n      dup3\n        /* \"#utility.yul\":9606:9607   */\n      dup3\n        /* \"#utility.yul\":9602:9611   */\n      sub\n        /* \"#utility.yul\":9594:9611   */\n      swap1\n      pop\n        /* \"#utility.yul\":9633:9634   */\n      dup2\n        /* \"#utility.yul\":9627:9631   */\n      dup2\n        /* \"#utility.yul\":9624:9635   */\n      gt\n        /* \"#utility.yul\":9621:9658   */\n      iszero\n      tag_430\n      jumpi\n        /* \"#utility.yul\":9638:9656   */\n      tag_431\n      tag_302\n      jump\t// in\n    tag_431:\n        /* \"#utility.yul\":9621:9658   */\n    tag_430:\n        /* \"#utility.yul\":9471:9665   */\n      swap3\n      swap2\n      pop\n      pop\n      jump\t// out\n        /* \"#utility.yul\":9671:10081   */\n    tag_126:\n        /* \"#utility.yul\":9711:9718   */\n      0x00\n        /* \"#utility.yul\":9734:9754   */\n      tag_433\n        /* \"#utility.yul\":9752:9753   */\n      dup3\n        /* \"#utility.yul\":9734:9754   */\n      tag_283\n      jump\t// in\n    tag_433:\n        /* \"#utility.yul\":9729:9754   */\n      swap2\n      pop\n        /* \"#utility.yul\":9768:9788   */\n      tag_434\n        /* \"#utility.yul\":9786:9787   */\n      dup4\n        /* \"#utility.yul\":9768:9788   */\n      tag_283\n      jump\t// in\n    tag_434:\n        /* \"#utility.yul\":9763:9788   */\n      swap3\n      pop\n        /* \"#utility.yul\":9823:9824   */\n      dup3\n        /* \"#utility.yul\":9820:9821   */\n      dup3\n        /* \"#utility.yul\":9816:9825   */\n      mul\n        /* \"#utility.yul\":9845:9875   */\n      tag_435\n        /* \"#utility.yul\":9863:9874   */\n      dup2\n        /* \"#utility.yul\":9845:9875   */\n      tag_283\n      jump\t// in\n    tag_435:\n        /* \"#utility.yul\":9834:9875   */\n      swap2\n      pop\n        /* \"#utility.yul\":10024:10025   */\n      dup3\n        /* \"#utility.yul\":10015:10022   */\n      dup3\n        /* \"#utility.yul\":10011:10026   */\n      div\n        /* \"#utility.yul\":10008:10009   */\n      dup5\n        /* \"#utility.yul\":10005:10027   */\n      eq\n        /* \"#utility.yul\":9985:9986   */\n      dup4\n        /* \"#utility.yul\":9978:9987   */\n      iszero\n        /* \"#utility.yul\":9958:10041   */\n      or\n        /* \"#utility.yul\":9935:10074   */\n      tag_436\n      jumpi\n        /* \"#utility.yul\":10054:10072   */\n      tag_437\n      tag_302\n      jump\t// in\n    tag_437:\n        /* \"#utility.yul\":9935:10074   */\n    tag_436:\n        /* \"#utility.yul\":9719:10081   */\n      pop\n        /* \"#utility.yul\":9671:10081   */\n      swap3\n      swap2\n      pop\n      pop\n      jump\t// out\n        /* \"#utility.yul\":10087:10267   */\n    tag_305:\n        /* \"#utility.yul\":10135:10212   */\n      0x4e487b7100000000000000000000000000000000000000000000000000000000\n        /* \"#utility.yul\":10132:10133   */\n      0x00\n        /* \"#utility.yul\":10125:10213   */\n      mstore\n        /* \"#utility.yul\":10232:10236   */\n      0x12\n        /* \"#utility.yul\":10229:10230   */\n      0x04\n        /* \"#utility.yul\":10222:10237   */\n      mstore\n        /* \"#utility.yul\":10256:10260   */\n      0x24\n        /* \"#utility.yul\":10253:10254   */\n      0x00\n        /* \"#utility.yul\":10246:10261   */\n      revert\n        /* \"#utility.yul\":10273:10458   */\n    tag_128:\n        /* \"#utility.yul\":10313:10314   */\n      0x00\n        /* \"#utility.yul\":10330:10350   */\n      tag_440\n        /* \"#utility.yul\":10348:10349   */\n      dup3\n        /* \"#utility.yul\":10330:10350   */\n      tag_283\n      jump\t// in\n    tag_440:\n        /* \"#utility.yul\":10325:10350   */\n      swap2\n      pop\n        /* \"#utility.yul\":10364:10384   */\n      tag_441\n        /* \"#utility.yul\":10382:10383   */\n      dup4\n        /* \"#utility.yul\":10364:10384   */\n      tag_283\n      jump\t// in\n    tag_441:\n        /* \"#utility.yul\":10359:10384   */\n      swap3\n      pop\n        /* \"#utility.yul\":10403:10404   */\n      dup3\n        /* \"#utility.yul\":10393:10428   */\n      tag_442\n      jumpi\n        /* \"#utility.yul\":10408:10426   */\n      tag_443\n      tag_305\n      jump\t// in\n    tag_443:\n        /* \"#utility.yul\":10393:10428   */\n    tag_442:\n        /* \"#utility.yul\":10450:10451   */\n      dup3\n        /* \"#utility.yul\":10447:10448   */\n      dup3\n        /* \"#utility.yul\":10443:10452   */\n      div\n        /* \"#utility.yul\":10438:10452   */\n      swap1\n      pop\n        /* \"#utility.yul\":10273:10458   */\n      swap3\n      swap2\n      pop\n      pop\n      jump\t// out\n        /* \"#utility.yul\":10464:10643   */\n    tag_306:\n        /* \"#utility.yul\":10604:10635   */\n      0x4e6f20746f6b656e7320617661696c61626c6520666f7220636c61696d000000\n        /* \"#utility.yul\":10600:10601   */\n      0x00\n        /* \"#utility.yul\":10592:10598   */\n      dup3\n        /* \"#utility.yul\":10588:10602   */\n      add\n        /* \"#utility.yul\":10581:10636   */\n      mstore\n        /* \"#utility.yul\":10464:10643   */\n      pop\n      jump\t// out\n        /* \"#utility.yul\":10649:11015   */\n    tag_307:\n        /* \"#utility.yul\":10791:10794   */\n      0x00\n        /* \"#utility.yul\":10812:10879   */\n      tag_446\n        /* \"#utility.yul\":10876:10878   */\n      0x1d\n        /* \"#utility.yul\":10871:10874   */\n      dup4\n        /* \"#utility.yul\":10812:10879   */\n      tag_299\n      jump\t// in\n    tag_446:\n        /* \"#utility.yul\":10805:10879   */\n      swap2\n      pop\n        /* \"#utility.yul\":10888:10981   */\n      tag_447\n        /* \"#utility.yul\":10977:10980   */\n      dup3\n        /* \"#utility.yul\":10888:10981   */\n      tag_306\n      jump\t// in\n    tag_447:\n        /* \"#utility.yul\":11006:11008   */\n      0x20\n        /* \"#utility.yul\":11001:11004   */\n      dup3\n        /* \"#utility.yul\":10997:11009   */\n      add\n        /* \"#utility.yul\":10990:11009   */\n      swap1\n      pop\n        /* \"#utility.yul\":10649:11015   */\n      swap2\n      swap1\n      pop\n      jump\t// out\n        /* \"#utility.yul\":11021:11440   */\n    tag_138:\n        /* \"#utility.yul\":11187:11191   */\n      0x00\n        /* \"#utility.yul\":11225:11227   */\n      0x20\n        /* \"#utility.yul\":11214:11223   */\n      dup3\n        /* \"#utility.yul\":11210:11228   */\n      add\n        /* \"#utility.yul\":11202:11228   */\n      swap1\n      pop\n        /* \"#utility.yul\":11274:11283   */\n      dup2\n        /* \"#utility.yul\":11268:11272   */\n      dup2\n        /* \"#utility.yul\":11264:11284   */\n      sub\n        /* \"#utility.yul\":11260:11261   */\n      0x00\n        /* \"#utility.yul\":11249:11258   */\n      dup4\n        /* \"#utility.yul\":11245:11262   */\n      add\n        /* \"#utility.yul\":11238:11285   */\n      mstore\n        /* \"#utility.yul\":11302:11433   */\n      tag_449\n        /* \"#utility.yul\":11428:11432   */\n      dup2\n        /* \"#utility.yul\":11302:11433   */\n      tag_307\n      jump\t// in\n    tag_449:\n        /* \"#utility.yul\":11294:11433   */\n      swap1\n      pop\n        /* \"#utility.yul\":11021:11440   */\n      swap2\n      swap1\n      pop\n      jump\t// out\n        /* \"#utility.yul\":11446:11888   */\n    tag_141:\n        /* \"#utility.yul\":11595:11599   */\n      0x00\n        /* \"#utility.yul\":11633:11635   */\n      0x60\n        /* \"#utility.yul\":11622:11631   */\n      dup3\n        /* \"#utility.yul\":11618:11636   */\n      add\n        /* \"#utility.yul\":11610:11636   */\n      swap1\n      pop\n        /* \"#utility.yul\":11646:11717   */\n      tag_451\n        /* \"#utility.yul\":11714:11715   */\n      0x00\n        /* \"#utility.yul\":11703:11712   */\n      dup4\n        /* \"#utility.yul\":11699:11716   */\n      add\n        /* \"#utility.yul\":11690:11696   */\n      dup7\n        /* \"#utility.yul\":11646:11717   */\n      tag_287\n      jump\t// in\n    tag_451:\n        /* \"#utility.yul\":11727:11799   */\n      tag_452\n        /* \"#utility.yul\":11795:11797   */\n      0x20\n        /* \"#utility.yul\":11784:11793   */\n      dup4\n        /* \"#utility.yul\":11780:11798   */\n      add\n        /* \"#utility.yul\":11771:11777   */\n      dup6\n        /* \"#utility.yul\":11727:11799   */\n      tag_287\n      jump\t// in\n    tag_452:\n        /* \"#utility.yul\":11809:11881   */\n      tag_453\n        /* \"#utility.yul\":11877:11879   */\n      0x40\n        /* \"#utility.yul\":11866:11875   */\n      dup4\n        /* \"#utility.yul\":11862:11880   */\n      add\n        /* \"#utility.yul\":11853:11859   */\n      dup5\n        /* \"#utility.yul\":11809:11881   */\n      tag_284\n      jump\t// in\n    tag_453:\n        /* \"#utility.yul\":11446:11888   */\n      swap5\n      swap4\n      pop\n      pop\n      pop\n      pop\n      jump\t// out\n        /* \"#utility.yul\":11894:11984   */\n    tag_308:\n        /* \"#utility.yul\":11928:11935   */\n      0x00\n        /* \"#utility.yul\":11971:11976   */\n      dup2\n        /* \"#utility.yul\":11964:11977   */\n      iszero\n        /* \"#utility.yul\":11957:11978   */\n      iszero\n        /* \"#utility.yul\":11946:11978   */\n      swap1\n      pop\n        /* \"#utility.yul\":11894:11984   */\n      swap2\n      swap1\n      pop\n      jump\t// out\n        /* \"#utility.yul\":11990:12106   */\n    tag_309:\n        /* \"#utility.yul\":12060:12081   */\n      tag_456\n        /* \"#utility.yul\":12075:12080   */\n      dup2\n        /* \"#utility.yul\":12060:12081   */\n      tag_308\n      jump\t// in\n    tag_456:\n        /* \"#utility.yul\":12053:12058   */\n      dup2\n        /* \"#utility.yul\":12050:12082   */\n      eq\n        /* \"#utility.yul\":12040:12100   */\n      tag_457\n      jumpi\n        /* \"#utility.yul\":12096:12097   */\n      0x00\n        /* \"#utility.yul\":12093:12094   */\n      dup1\n        /* \"#utility.yul\":12086:12098   */\n      revert\n        /* \"#utility.yul\":12040:12100   */\n    tag_457:\n        /* \"#utility.yul\":11990:12106   */\n      pop\n      jump\t// out\n        /* \"#utility.yul\":12112:12249   */\n    tag_310:\n        /* \"#utility.yul\":12166:12171   */\n      0x00\n        /* \"#utility.yul\":12197:12203   */\n      dup2\n        /* \"#utility.yul\":12191:12204   */\n      mload\n        /* \"#utility.yul\":12182:12204   */\n      swap1\n      pop\n        /* \"#utility.yul\":12213:12243   */\n      tag_459\n        /* \"#utility.yul\":12237:12242   */\n      dup2\n        /* \"#utility.yul\":12213:12243   */\n      tag_309\n      jump\t// in\n    tag_459:\n        /* \"#utility.yul\":12112:12249   */\n      swap3\n      swap2\n      pop\n      pop\n      jump\t// out\n        /* \"#utility.yul\":12255:12600   */\n    tag_145:\n        /* \"#utility.yul\":12322:12328   */\n      0x00\n        /* \"#utility.yul\":12371:12373   */\n      0x20\n        /* \"#utility.yul\":12359:12368   */\n      dup3\n        /* \"#utility.yul\":12350:12357   */\n      dup5\n        /* \"#utility.yul\":12346:12369   */\n      sub\n        /* \"#utility.yul\":12342:12374   */\n      slt\n        /* \"#utility.yul\":12339:12458   */\n      iszero\n      tag_461\n      jumpi\n        /* \"#utility.yul\":12377:12456   */\n      tag_462\n      tag_277\n      jump\t// in\n    tag_462:\n        /* \"#utility.yul\":12339:12458   */\n    tag_461:\n        /* \"#utility.yul\":12497:12498   */\n      0x00\n        /* \"#utility.yul\":12522:12583   */\n      tag_463\n        /* \"#utility.yul\":12575:12582   */\n      dup5\n        /* \"#utility.yul\":12566:12572   */\n      dup3\n        /* \"#utility.yul\":12555:12564   */\n      dup6\n        /* \"#utility.yul\":12551:12573   */\n      add\n        /* \"#utility.yul\":12522:12583   */\n      tag_310\n      jump\t// in\n    tag_463:\n        /* \"#utility.yul\":12512:12583   */\n      swap2\n      pop\n        /* \"#utility.yul\":12468:12593   */\n      pop\n        /* \"#utility.yul\":12255:12600   */\n      swap3\n      swap2\n      pop\n      pop\n      jump\t// out\n        /* \"#utility.yul\":12606:12776   */\n    tag_311:\n        /* \"#utility.yul\":12746:12768   */\n      0x49434f2073746167657320636f6d706c65746564000000000000000000000000\n        /* \"#utility.yul\":12742:12743   */\n      0x00\n        /* \"#utility.yul\":12734:12740   */\n      dup3\n        /* \"#utility.yul\":12730:12744   */\n      add\n        /* \"#utility.yul\":12723:12769   */\n      mstore\n        /* \"#utility.yul\":12606:12776   */\n      pop\n      jump\t// out\n        /* \"#utility.yul\":12782:13148   */\n    tag_312:\n        /* \"#utility.yul\":12924:12927   */\n      0x00\n        /* \"#utility.yul\":12945:13012   */\n      tag_466\n        /* \"#utility.yul\":13009:13011   */\n      0x14\n        /* \"#utility.yul\":13004:13007   */\n      dup4\n        /* \"#utility.yul\":12945:13012   */\n      tag_299\n      jump\t// in\n    tag_466:\n        /* \"#utility.yul\":12938:13012   */\n      swap2\n      pop\n        /* \"#utility.yul\":13021:13114   */\n      tag_467\n        /* \"#utility.yul\":13110:13113   */\n      dup3\n        /* \"#utility.yul\":13021:13114   */\n      tag_311\n      jump\t// in\n    tag_467:\n        /* \"#utility.yul\":13139:13141   */\n      0x20\n        /* \"#utility.yul\":13134:13137   */\n      dup3\n        /* \"#utility.yul\":13130:13142   */\n      add\n        /* \"#utility.yul\":13123:13142   */\n      swap1\n      pop\n        /* \"#utility.yul\":12782:13148   */\n      swap2\n      swap1\n      pop\n      jump\t// out\n        /* \"#utility.yul\":13154:13573   */\n    tag_166:\n        /* \"#utility.yul\":13320:13324   */\n      0x00\n        /* \"#utility.yul\":13358:13360   */\n      0x20\n        /* \"#utility.yul\":13347:13356   */\n      dup3\n        /* \"#utility.yul\":13343:13361   */\n      add\n        /* \"#utility.yul\":13335:13361   */\n      swap1\n      pop\n        /* \"#utility.yul\":13407:13416   */\n      dup2\n        /* \"#utility.yul\":13401:13405   */\n      dup2\n        /* \"#utility.yul\":13397:13417   */\n      sub\n        /* \"#utility.yul\":13393:13394   */\n      0x00\n        /* \"#utility.yul\":13382:13391   */\n      dup4\n        /* \"#utility.yul\":13378:13395   */\n      add\n        /* \"#utility.yul\":13371:13418   */\n      mstore\n        /* \"#utility.yul\":13435:13566   */\n      tag_469\n        /* \"#utility.yul\":13561:13565   */\n      dup2\n        /* \"#utility.yul\":13435:13566   */\n      tag_312\n      jump\t// in\n    tag_469:\n        /* \"#utility.yul\":13427:13566   */\n      swap1\n      pop\n        /* \"#utility.yul\":13154:13573   */\n      swap2\n      swap1\n      pop\n      jump\t// out\n        /* \"#utility.yul\":13579:13752   */\n    tag_313:\n        /* \"#utility.yul\":13719:13744   */\n      0x496e76616c696420707572636861736520616d6f756e74000000000000000000\n        /* \"#utility.yul\":13715:13716   */\n      0x00\n        /* \"#utility.yul\":13707:13713   */\n      dup3\n        /* \"#utility.yul\":13703:13717   */\n      add\n        /* \"#utility.yul\":13696:13745   */\n      mstore\n        /* \"#utility.yul\":13579:13752   */\n      pop\n      jump\t// out\n        /* \"#utility.yul\":13758:14124   */\n    tag_314:\n        /* \"#utility.yul\":13900:13903   */\n      0x00\n        /* \"#utility.yul\":13921:13988   */\n      tag_472\n        /* \"#utility.yul\":13985:13987   */\n      0x17\n        /* \"#utility.yul\":13980:13983   */\n      dup4\n        /* \"#utility.yul\":13921:13988   */\n      tag_299\n      jump\t// in\n    tag_472:\n        /* \"#utility.yul\":13914:13988   */\n      swap2\n      pop\n        /* \"#utility.yul\":13997:14090   */\n      tag_473\n        /* \"#utility.yul\":14086:14089   */\n      dup3\n        /* \"#utility.yul\":13997:14090   */\n      tag_313\n      jump\t// in\n    tag_473:\n        /* \"#utility.yul\":14115:14117   */\n      0x20\n        /* \"#utility.yul\":14110:14113   */\n      dup3\n        /* \"#utility.yul\":14106:14118   */\n      add\n        /* \"#utility.yul\":14099:14118   */\n      swap1\n      pop\n        /* \"#utility.yul\":13758:14124   */\n      swap2\n      swap1\n      pop\n      jump\t// out\n        /* \"#utility.yul\":14130:14549   */\n    tag_169:\n        /* \"#utility.yul\":14296:14300   */\n      0x00\n        /* \"#utility.yul\":14334:14336   */\n      0x20\n        /* \"#utility.yul\":14323:14332   */\n      dup3\n        /* \"#utility.yul\":14319:14337   */\n      add\n        /* \"#utility.yul\":14311:14337   */\n      swap1\n      pop\n        /* \"#utility.yul\":14383:14392   */\n      dup2\n        /* \"#utility.yul\":14377:14381   */\n      dup2\n        /* \"#utility.yul\":14373:14393   */\n      sub\n        /* \"#utility.yul\":14369:14370   */\n      0x00\n        /* \"#utility.yul\":14358:14367   */\n      dup4\n        /* \"#utility.yul\":14354:14371   */\n      add\n        /* \"#utility.yul\":14347:14394   */\n      mstore\n        /* \"#utility.yul\":14411:14542   */\n      tag_475\n        /* \"#utility.yul\":14537:14541   */\n      dup2\n        /* \"#utility.yul\":14411:14542   */\n      tag_314\n      jump\t// in\n    tag_475:\n        /* \"#utility.yul\":14403:14542   */\n      swap1\n      pop\n        /* \"#utility.yul\":14130:14549   */\n      swap2\n      swap1\n      pop\n      jump\t// out\n        /* \"#utility.yul\":14555:14722   */\n    tag_177:\n        /* \"#utility.yul\":14592:14595   */\n      0x00\n        /* \"#utility.yul\":14615:14637   */\n      tag_477\n        /* \"#utility.yul\":14631:14636   */\n      dup3\n        /* \"#utility.yul\":14615:14637   */\n      tag_288\n      jump\t// in\n    tag_477:\n        /* \"#utility.yul\":14606:14637   */\n      swap2\n      pop\n        /* \"#utility.yul\":14659:14663   */\n      0xff\n        /* \"#utility.yul\":14652:14657   */\n      dup3\n        /* \"#utility.yul\":14649:14664   */\n      sub\n        /* \"#utility.yul\":14646:14687   */\n      tag_478\n      jumpi\n        /* \"#utility.yul\":14667:14685   */\n      tag_479\n      tag_302\n      jump\t// in\n    tag_479:\n        /* \"#utility.yul\":14646:14687   */\n    tag_478:\n        /* \"#utility.yul\":14714:14715   */\n      0x01\n        /* \"#utility.yul\":14707:14712   */\n      dup3\n        /* \"#utility.yul\":14703:14716   */\n      add\n        /* \"#utility.yul\":14696:14716   */\n      swap1\n      pop\n        /* \"#utility.yul\":14555:14722   */\n      swap2\n      swap1\n      pop\n      jump\t// out\n        /* \"#utility.yul\":14728:14903   */\n    tag_315:\n        /* \"#utility.yul\":14868:14895   */\n      0x537461676520616c6c6f636174696f6e20657863656564656400000000000000\n        /* \"#utility.yul\":14864:14865   */\n      0x00\n        /* \"#utility.yul\":14856:14862   */\n      dup3\n        /* \"#utility.yul\":14852:14866   */\n      add\n        /* \"#utility.yul\":14845:14896   */\n      mstore\n        /* \"#utility.yul\":14728:14903   */\n      pop\n      jump\t// out\n        /* \"#utility.yul\":14909:15275   */\n    tag_316:\n        /* \"#utility.yul\":15051:15054   */\n      0x00\n        /* \"#utility.yul\":15072:15139   */\n      tag_482\n        /* \"#utility.yul\":15136:15138   */\n      0x19\n        /* \"#utility.yul\":15131:15134   */\n      dup4\n        /* \"#utility.yul\":15072:15139   */\n      tag_299\n      jump\t// in\n    tag_482:\n        /* \"#utility.yul\":15065:15139   */\n      swap2\n      pop\n        /* \"#utility.yul\":15148:15241   */\n      tag_483\n        /* \"#utility.yul\":15237:15240   */\n      dup3\n        /* \"#utility.yul\":15148:15241   */\n      tag_315\n      jump\t// in\n    tag_483:\n        /* \"#utility.yul\":15266:15268   */\n      0x20\n        /* \"#utility.yul\":15261:15264   */\n      dup3\n        /* \"#utility.yul\":15257:15269   */\n      add\n        /* \"#utility.yul\":15250:15269   */\n      swap1\n      pop\n        /* \"#utility.yul\":14909:15275   */\n      swap2\n      swap1\n      pop\n      jump\t// out\n        /* \"#utility.yul\":15281:15700   */\n    tag_189:\n        /* \"#utility.yul\":15447:15451   */\n      0x00\n        /* \"#utility.yul\":15485:15487   */\n      0x20\n        /* \"#utility.yul\":15474:15483   */\n      dup3\n        /* \"#utility.yul\":15470:15488   */\n      add\n        /* \"#utility.yul\":15462:15488   */\n      swap1\n      pop\n        /* \"#utility.yul\":15534:15543   */\n      dup2\n        /* \"#utility.yul\":15528:15532   */\n      dup2\n        /* \"#utility.yul\":15524:15544   */\n      sub\n        /* \"#utility.yul\":15520:15521   */\n      0x00\n        /* \"#utility.yul\":15509:15518   */\n      dup4\n        /* \"#utility.yul\":15505:15522   */\n      add\n        /* \"#utility.yul\":15498:15545   */\n      mstore\n        /* \"#utility.yul\":15562:15693   */\n      tag_485\n        /* \"#utility.yul\":15688:15692   */\n      dup2\n        /* \"#utility.yul\":15562:15693   */\n      tag_316\n      jump\t// in\n    tag_485:\n        /* \"#utility.yul\":15554:15693   */\n      swap1\n      pop\n        /* \"#utility.yul\":15281:15700   */\n      swap2\n      swap1\n      pop\n      jump\t// out\n        /* \"#utility.yul\":15706:15880   */\n    tag_317:\n        /* \"#utility.yul\":15846:15872   */\n      0x4e6f7420696e766573746f72206e6f7220706172746e65720000000000000000\n        /* \"#utility.yul\":15842:15843   */\n      0x00\n        /* \"#utility.yul\":15834:15840   */\n      dup3\n        /* \"#utility.yul\":15830:15844   */\n      add\n        /* \"#utility.yul\":15823:15873   */\n      mstore\n        /* \"#utility.yul\":15706:15880   */\n      pop\n      jump\t// out\n        /* \"#utility.yul\":15886:16252   */\n    tag_318:\n        /* \"#utility.yul\":16028:16031   */\n      0x00\n        /* \"#utility.yul\":16049:16116   */\n      tag_488\n        /* \"#utility.yul\":16113:16115   */\n      0x18\n        /* \"#utility.yul\":16108:16111   */\n      dup4\n        /* \"#utility.yul\":16049:16116   */\n      tag_299\n      jump\t// in\n    tag_488:\n        /* \"#utility.yul\":16042:16116   */\n      swap2\n      pop\n        /* \"#utility.yul\":16125:16218   */\n      tag_489\n        /* \"#utility.yul\":16214:16217   */\n      dup3\n        /* \"#utility.yul\":16125:16218   */\n      tag_317\n      jump\t// in\n    tag_489:\n        /* \"#utility.yul\":16243:16245   */\n      0x20\n        /* \"#utility.yul\":16238:16241   */\n      dup3\n        /* \"#utility.yul\":16234:16246   */\n      add\n        /* \"#utility.yul\":16227:16246   */\n      swap1\n      pop\n        /* \"#utility.yul\":15886:16252   */\n      swap2\n      swap1\n      pop\n      jump\t// out\n        /* \"#utility.yul\":16258:16677   */\n    tag_200:\n        /* \"#utility.yul\":16424:16428   */\n      0x00\n        /* \"#utility.yul\":16462:16464   */\n      0x20\n        /* \"#utility.yul\":16451:16460   */\n      dup3\n        /* \"#utility.yul\":16447:16465   */\n      add\n        /* \"#utility.yul\":16439:16465   */\n      swap1\n      pop\n        /* \"#utility.yul\":16511:16520   */\n      dup2\n        /* \"#utility.yul\":16505:16509   */\n      dup2\n        /* \"#utility.yul\":16501:16521   */\n      sub\n        /* \"#utility.yul\":16497:16498   */\n      0x00\n        /* \"#utility.yul\":16486:16495   */\n      dup4\n        /* \"#utility.yul\":16482:16499   */\n      add\n        /* \"#utility.yul\":16475:16522   */\n      mstore\n        /* \"#utility.yul\":16539:16670   */\n      tag_491\n        /* \"#utility.yul\":16665:16669   */\n      dup2\n        /* \"#utility.yul\":16539:16670   */\n      tag_318\n      jump\t// in\n    tag_491:\n        /* \"#utility.yul\":16531:16670   */\n      swap1\n      pop\n        /* \"#utility.yul\":16258:16677   */\n      swap2\n      swap1\n      pop\n      jump\t// out\n        /* \"#utility.yul\":16683:16859   */\n    tag_319:\n        /* \"#utility.yul\":16823:16851   */\n      0x4e6f7420696e2077686974656c697374656420706172746e6572000000000000\n        /* \"#utility.yul\":16819:16820   */\n      0x00\n        /* \"#utility.yul\":16811:16817   */\n      dup3\n        /* \"#utility.yul\":16807:16821   */\n      add\n        /* \"#utility.yul\":16800:16852   */\n      mstore\n        /* \"#utility.yul\":16683:16859   */\n      pop\n      jump\t// out\n        /* \"#utility.yul\":16865:17231   */\n    tag_320:\n        /* \"#utility.yul\":17007:17010   */\n      0x00\n        /* \"#utility.yul\":17028:17095   */\n      tag_494\n        /* \"#utility.yul\":17092:17094   */\n      0x1a\n        /* \"#utility.yul\":17087:17090   */\n      dup4\n        /* \"#utility.yul\":17028:17095   */\n      tag_299\n      jump\t// in\n    tag_494:\n        /* \"#utility.yul\":17021:17095   */\n      swap2\n      pop\n        /* \"#utility.yul\":17104:17197   */\n      tag_495\n        /* \"#utility.yul\":17193:17196   */\n      dup3\n        /* \"#utility.yul\":17104:17197   */\n      tag_319\n      jump\t// in\n    tag_495:\n        /* \"#utility.yul\":17222:17224   */\n      0x20\n        /* \"#utility.yul\":17217:17220   */\n      dup3\n        /* \"#utility.yul\":17213:17225   */\n      add\n        /* \"#utility.yul\":17206:17225   */\n      swap1\n      pop\n        /* \"#utility.yul\":16865:17231   */\n      swap2\n      swap1\n      pop\n      jump\t// out\n        /* \"#utility.yul\":17237:17656   */\n    tag_214:\n        /* \"#utility.yul\":17403:17407   */\n      0x00\n        /* \"#utility.yul\":17441:17443   */\n      0x20\n        /* \"#utility.yul\":17430:17439   */\n      dup3\n        /* \"#utility.yul\":17426:17444   */\n      add\n        /* \"#utility.yul\":17418:17444   */\n      swap1\n      pop\n        /* \"#utility.yul\":17490:17499   */\n      dup2\n        /* \"#utility.yul\":17484:17488   */\n      dup2\n        /* \"#utility.yul\":17480:17500   */\n      sub\n        /* \"#utility.yul\":17476:17477   */\n      0x00\n        /* \"#utility.yul\":17465:17474   */\n      dup4\n        /* \"#utility.yul\":17461:17478   */\n      add\n        /* \"#utility.yul\":17454:17501   */\n      mstore\n        /* \"#utility.yul\":17518:17649   */\n      tag_497\n        /* \"#utility.yul\":17644:17648   */\n      dup2\n        /* \"#utility.yul\":17518:17649   */\n      tag_320\n      jump\t// in\n    tag_497:\n        /* \"#utility.yul\":17510:17649   */\n      swap1\n      pop\n        /* \"#utility.yul\":17237:17656   */\n      swap2\n      swap1\n      pop\n      jump\t// out\n        /* \"#utility.yul\":17662:17839   */\n    tag_321:\n        /* \"#utility.yul\":17802:17831   */\n      0x4e6f7420656e6f756768206465706f736974656420616d6f756e740000000000\n        /* \"#utility.yul\":17798:17799   */\n      0x00\n        /* \"#utility.yul\":17790:17796   */\n      dup3\n        /* \"#utility.yul\":17786:17800   */\n      add\n        /* \"#utility.yul\":17779:17832   */\n      mstore\n        /* \"#utility.yul\":17662:17839   */\n      pop\n      jump\t// out\n        /* \"#utility.yul\":17845:18211   */\n    tag_322:\n        /* \"#utility.yul\":17987:17990   */\n      0x00\n        /* \"#utility.yul\":18008:18075   */\n      tag_500\n        /* \"#utility.yul\":18072:18074   */\n      0x1b\n        /* \"#utility.yul\":18067:18070   */\n      dup4\n        /* \"#utility.yul\":18008:18075   */\n      tag_299\n      jump\t// in\n    tag_500:\n        /* \"#utility.yul\":18001:18075   */\n      swap2\n      pop\n        /* \"#utility.yul\":18084:18177   */\n      tag_501\n        /* \"#utility.yul\":18173:18176   */\n      dup3\n        /* \"#utility.yul\":18084:18177   */\n      tag_321\n      jump\t// in\n    tag_501:\n        /* \"#utility.yul\":18202:18204   */\n      0x20\n        /* \"#utility.yul\":18197:18200   */\n      dup3\n        /* \"#utility.yul\":18193:18205   */\n      add\n        /* \"#utility.yul\":18186:18205   */\n      swap1\n      pop\n        /* \"#utility.yul\":17845:18211   */\n      swap2\n      swap1\n      pop\n      jump\t// out\n        /* \"#utility.yul\":18217:18636   */\n    tag_238:\n        /* \"#utility.yul\":18383:18387   */\n      0x00\n        /* \"#utility.yul\":18421:18423   */\n      0x20\n        /* \"#utility.yul\":18410:18419   */\n      dup3\n        /* \"#utility.yul\":18406:18424   */\n      add\n        /* \"#utility.yul\":18398:18424   */\n      swap1\n      pop\n        /* \"#utility.yul\":18470:18479   */\n      dup2\n        /* \"#utility.yul\":18464:18468   */\n      dup2\n        /* \"#utility.yul\":18460:18480   */\n      sub\n        /* \"#utility.yul\":18456:18457   */\n      0x00\n        /* \"#utility.yul\":18445:18454   */\n      dup4\n        /* \"#utility.yul\":18441:18458   */\n      add\n        /* \"#utility.yul\":18434:18481   */\n      mstore\n        /* \"#utility.yul\":18498:18629   */\n      tag_503\n        /* \"#utility.yul\":18624:18628   */\n      dup2\n        /* \"#utility.yul\":18498:18629   */\n      tag_322\n      jump\t// in\n    tag_503:\n        /* \"#utility.yul\":18490:18629   */\n      swap1\n      pop\n        /* \"#utility.yul\":18217:18636   */\n      swap2\n      swap1\n      pop\n      jump\t// out\n        /* \"#utility.yul\":18642:18974   */\n    tag_240:\n        /* \"#utility.yul\":18763:18767   */\n      0x00\n        /* \"#utility.yul\":18801:18803   */\n      0x40\n        /* \"#utility.yul\":18790:18799   */\n      dup3\n        /* \"#utility.yul\":18786:18804   */\n      add\n        /* \"#utility.yul\":18778:18804   */\n      swap1\n      pop\n        /* \"#utility.yul\":18814:18885   */\n      tag_505\n        /* \"#utility.yul\":18882:18883   */\n      0x00\n        /* \"#utility.yul\":18871:18880   */\n      dup4\n        /* \"#utility.yul\":18867:18884   */\n      add\n        /* \"#utility.yul\":18858:18864   */\n      dup6\n        /* \"#utility.yul\":18814:18885   */\n      tag_287\n      jump\t// in\n    tag_505:\n        /* \"#utility.yul\":18895:18967   */\n      tag_506\n        /* \"#utility.yul\":18963:18965   */\n      0x20\n        /* \"#utility.yul\":18952:18961   */\n      dup4\n        /* \"#utility.yul\":18948:18966   */\n      add\n        /* \"#utility.yul\":18939:18945   */\n      dup5\n        /* \"#utility.yul\":18895:18967   */\n      tag_284\n      jump\t// in\n    tag_506:\n        /* \"#utility.yul\":18642:18974   */\n      swap4\n      swap3\n      pop\n      pop\n      pop\n      jump\t// out\n        /* \"#utility.yul\":18980:19161   */\n    tag_323:\n        /* \"#utility.yul\":19120:19153   */\n      0x5265656e7472616e637947756172643a207265656e7472616e742063616c6c00\n        /* \"#utility.yul\":19116:19117   */\n      0x00\n        /* \"#utility.yul\":19108:19114   */\n      dup3\n        /* \"#utility.yul\":19104:19118   */\n      add\n        /* \"#utility.yul\":19097:19154   */\n      mstore\n        /* \"#utility.yul\":18980:19161   */\n      pop\n      jump\t// out\n        /* \"#utility.yul\":19167:19533   */\n    tag_324:\n        /* \"#utility.yul\":19309:19312   */\n      0x00\n        /* \"#utility.yul\":19330:19397   */\n      tag_509\n        /* \"#utility.yul\":19394:19396   */\n      0x1f\n        /* \"#utility.yul\":19389:19392   */\n      dup4\n        /* \"#utility.yul\":19330:19397   */\n      tag_299\n      jump\t// in\n    tag_509:\n        /* \"#utility.yul\":19323:19397   */\n      swap2\n      pop\n        /* \"#utility.yul\":19406:19499   */\n      tag_510\n        /* \"#utility.yul\":19495:19498   */\n      dup3\n        /* \"#utility.yul\":19406:19499   */\n      tag_323\n      jump\t// in\n    tag_510:\n        /* \"#utility.yul\":19524:19526   */\n      0x20\n        /* \"#utility.yul\":19519:19522   */\n      dup3\n        /* \"#utility.yul\":19515:19527   */\n      add\n        /* \"#utility.yul\":19508:19527   */\n      swap1\n      pop\n        /* \"#utility.yul\":19167:19533   */\n      swap2\n      swap1\n      pop\n      jump\t// out\n        /* \"#utility.yul\":19539:19958   */\n    tag_249:\n        /* \"#utility.yul\":19705:19709   */\n      0x00\n        /* \"#utility.yul\":19743:19745   */\n      0x20\n        /* \"#utility.yul\":19732:19741   */\n      dup3\n        /* \"#utility.yul\":19728:19746   */\n      add\n        /* \"#utility.yul\":19720:19746   */\n      swap1\n      pop\n        /* \"#utility.yul\":19792:19801   */\n      dup2\n        /* \"#utility.yul\":19786:19790   */\n      dup2\n        /* \"#utility.yul\":19782:19802   */\n      sub\n        /* \"#utility.yul\":19778:19779   */\n      0x00\n        /* \"#utility.yul\":19767:19776   */\n      dup4\n        /* \"#utility.yul\":19763:19780   */\n      add\n        /* \"#utility.yul\":19756:19803   */\n      mstore\n        /* \"#utility.yul\":19820:19951   */\n      tag_512\n        /* \"#utility.yul\":19946:19950   */\n      dup2\n        /* \"#utility.yul\":19820:19951   */\n      tag_324\n      jump\t// in\n    tag_512:\n        /* \"#utility.yul\":19812:19951   */\n      swap1\n      pop\n        /* \"#utility.yul\":19539:19958   */\n      swap2\n      swap1\n      pop\n      jump\t// out\n\n    auxdata: 0xa26469706673582212200ba1c502cfdc02373a4df5c591eb9de94472a566708e7ae5acdc931069fd397964736f6c634300081a0033\n}\n",
				"bytecode": {
					"linkReferences": {},
					"object": "608060405234801561000f575f80fd5b506040516128073803806128078339818101604052810190610031919061082c565b335f73ffffffffffffffffffffffffffffffffffffffff168173ffffffffffffffffffffffffffffffffffffffff16036100a2575f6040517f1e4fbdf700000000000000000000000000000000000000000000000000000000815260040161009991906108d7565b60405180910390fd5b6100b1816105b060201b60201c565b50600180819055508260035f6101000a81548173ffffffffffffffffffffffffffffffffffffffff021916908373ffffffffffffffffffffffffffffffffffffffff1602179055508360025f6101000a81548173ffffffffffffffffffffffffffffffffffffffff021916908373ffffffffffffffffffffffffffffffffffffffff1602179055505f60255f6101000a81548160ff021916908360ff1602179055505f602560016101000a81548160ff021916908360ff1602179055505f5b825181101561020057602683828151811061018e5761018d6108f0565b5b6020026020010151908060018154018082558091505060019003905f5260205f20015f9091909190916101000a81548173ffffffffffffffffffffffffffffffffffffffff021916908373ffffffffffffffffffffffffffffffffffffffff1602179055508080600101915050610170565b505f5b8151811015610293576027828281518110610221576102206108f0565b5b6020026020010151908060018154018082558091505060019003905f5260205f20015f9091909190916101000a81548173ffffffffffffffffffffffffffffffffffffffff021916908373ffffffffffffffffffffffffffffffffffffffff1602179055508080600101915050610203565b506040518061012001604052805f60028111156102b3576102b261091d565b5b81526020016a108b2a2c280290940000008152602001668e1bc9bf0400008152602001620c35008152602001624f1a00815260200163018b820081526020015f8152602001600f81526020014281525060045f60038110610317576103166108f0565b5b600902015f820151815f015f6101000a81548160ff021916908360028111156103435761034261091d565b5b02179055506020820151816001015560408201518160020155606082015181600301556080820151816004015560a0820151816005015560c0820151816006015560e082015181600701556101008201518160080155905050604051806101200160405280600160028111156103bc576103bb61091d565b5b81526020016a18d0bf423c03d8de000000815260200166d529ae9e8600008152602001621b7740815260200162278d00815260200162ed4e0081526020015f8152602001600a81526020015f81525060046001600381106104205761041f6108f0565b5b600902015f820151815f015f6101000a81548160ff0219169083600281111561044c5761044b61091d565b5b02179055506020820151816001015560408201518160020155606082015181600301556080820151816004015560a0820151816005015560c0820151816006015560e0820151816007015561010082015181600801559050506040518061012001604052806002808111156104c4576104c361091d565b5b81526020016a295be96e64066972000000815260200167011c37937e0800008152602001623d090081526020015f81526020015f81526020015f81526020015f81526020015f8152506004600260038110610522576105216108f0565b5b600902015f820151815f015f6101000a81548160ff0219169083600281111561054e5761054d61091d565b5b02179055506020820151816001015560408201518160020155606082015181600301556080820151816004015560a0820151816005015560c0820151816006015560e0820151816007015561010082015181600801559050505050505061094a565b5f805f9054906101000a900473ffffffffffffffffffffffffffffffffffffffff169050815f806101000a81548173ffffffffffffffffffffffffffffffffffffffff021916908373ffffffffffffffffffffffffffffffffffffffff1602179055508173ffffffffffffffffffffffffffffffffffffffff168173ffffffffffffffffffffffffffffffffffffffff167f8be0079c531659141344cd1fd0a4f28419497f9722a3daafe3b4186f6b6457e060405160405180910390a35050565b5f604051905090565b5f80fd5b5f80fd5b5f73ffffffffffffffffffffffffffffffffffffffff82169050919050565b5f6106ab82610682565b9050919050565b6106bb816106a1565b81146106c5575f80fd5b50565b5f815190506106d6816106b2565b92915050565b5f80fd5b5f601f19601f8301169050919050565b7f4e487b71000000000000000000000000000000000000000000000000000000005f52604160045260245ffd5b610726826106e0565b810181811067ffffffffffffffff82111715610745576107446106f0565b5b80604052505050565b5f610757610671565b9050610763828261071d565b919050565b5f67ffffffffffffffff821115610782576107816106f0565b5b602082029050602081019050919050565b5f80fd5b5f6107a96107a484610768565b61074e565b905080838252602082019050602084028301858111156107cc576107cb610793565b5b835b818110156107f557806107e188826106c8565b8452602084019350506020810190506107ce565b5050509392505050565b5f82601f830112610813576108126106dc565b5b8151610823848260208601610797565b91505092915050565b5f805f80608085870312156108445761084361067a565b5b5f610851878288016106c8565b9450506020610862878288016106c8565b935050604085015167ffffffffffffffff8111156108835761088261067e565b5b61088f878288016107ff565b925050606085015167ffffffffffffffff8111156108b0576108af61067e565b5b6108bc878288016107ff565b91505092959194509250565b6108d1816106a1565b82525050565b5f6020820190506108ea5f8301846108c8565b92915050565b7f4e487b71000000000000000000000000000000000000000000000000000000005f52603260045260245ffd5b7f4e487b71000000000000000000000000000000000000000000000000000000005f52602160045260245ffd5b611eb0806109575f395ff3fe6080604052600436106100fd575f3560e01c8063845ddcb211610094578063b0f2d26611610063578063b0f2d26614610357578063c625e9b114610381578063f2fde38b1461039d578063f7c899a1146103c5578063fd8ce085146103ef576100fd565b8063845ddcb2146102715780638da5cb5b146102b55780639f1465e0146102df578063a960c65f1461031b576100fd565b80635bf5d54c116100d05780635bf5d54c146101cb57806363b20117146101f5578063715018a61461021f578063842a77d314610235576100fd565b8063151f65e41461010157806315a235181461013d5780633dee03971461017957806348c54b9d146101b5575b5f80fd5b34801561010c575f80fd5b506101276004803603810190610122919061151d565b610417565b6040516101349190611560565b60405180910390f35b348015610148575f80fd5b50610163600480360381019061015e91906115a3565b61042c565b60405161017091906115dd565b60405180910390f35b348015610184575f80fd5b5061019f600480360381019061019a919061151d565b610467565b6040516101ac9190611560565b60405180910390f35b3480156101c0575f80fd5b506101c961047c565b005b3480156101d6575f80fd5b506101df6108db565b6040516101ec9190611611565b60405180910390f35b348015610200575f80fd5b506102096108ed565b6040516102169190611560565b60405180910390f35b34801561022a575f80fd5b506102336108f3565b005b348015610240575f80fd5b5061025b6004803603810190610256919061151d565b610906565b6040516102689190611560565b60405180910390f35b34801561027c575f80fd5b50610297600480360381019061029291906115a3565b61091b565b6040516102ac9998979695949392919061169d565b60405180910390f35b3480156102c0575f80fd5b506102c9610978565b6040516102d691906115dd565b60405180910390f35b3480156102ea575f80fd5b50610305600480360381019061030091906115a3565b61099f565b60405161031291906115dd565b60405180910390f35b348015610326575f80fd5b50610341600480360381019061033c919061151d565b6109da565b60405161034e9190611560565b60405180910390f35b348015610362575f80fd5b5061036b6109ee565b60405161037891906115dd565b60405180910390f35b61039b60048036038101906103969190611728565b610a13565b005b3480156103a8575f80fd5b506103c360048036038101906103be919061151d565b610fc3565b005b3480156103d0575f80fd5b506103d9611047565b6040516103e691906117c1565b60405180910390f35b3480156103fa575f80fd5b50610415600480360381019061041091906117da565b61106c565b005b6023602052805f5260405f205f915090505481565b6027818154811061043b575f80fd5b905f5260205f20015f915054906101000a900473ffffffffffffffffffffffffffffffffffffffff1681565b601f602052805f5260405f205f915090505481565b6104846111d4565b5f60225f3373ffffffffffffffffffffffffffffffffffffffff1673ffffffffffffffffffffffffffffffffffffffff1681526020019081526020015f205490505f8111610507576040517f08c379a00000000000000000000000000000000000000000000000000000000081526004016104fe90611872565b60405180910390fd5b5f6004602560019054906101000a900460ff1660ff166003811061052e5761052d611890565b5b6009020190508060040154816008015461054891906118ea565b42101561058a576040517f08c379a000000000000000000000000000000000000000000000000000000000815260040161058190611967565b60405180910390fd5b5f8160040154826008015461059f91906118ea565b426105aa9190611985565b90505f80602560019054906101000a900460ff1660ff16036105ed575f63018b820090508083866105db91906119b8565b6105e59190611a26565b91505061068a565b6001602560019054906101000a900460ff1660ff160361062d575f62ed4e00905080838661061b91906119b8565b6106259190611a26565b915050610689565b6002602560019054906101000a900460ff1660ff16036106885760215f3373ffffffffffffffffffffffffffffffffffffffff1673ffffffffffffffffffffffffffffffffffffffff1681526020019081526020015f205490505b5b5b5f60205f3373ffffffffffffffffffffffffffffffffffffffff1673ffffffffffffffffffffffffffffffffffffffff1681526020019081526020015f2054826106d49190611985565b90505f8111610718576040517f08c379a000000000000000000000000000000000000000000000000000000000815260040161070f90611aa0565b60405180910390fd5b8060205f3373ffffffffffffffffffffffffffffffffffffffff1673ffffffffffffffffffffffffffffffffffffffff1681526020019081526020015f205f82825461076491906118ea565b9250508190555060025f9054906101000a900473ffffffffffffffffffffffffffffffffffffffff1673ffffffffffffffffffffffffffffffffffffffff166323b872dd60035f9054906101000a900473ffffffffffffffffffffffffffffffffffffffff1633846040518463ffffffff1660e01b81526004016107ea93929190611abe565b6020604051808303815f875af1158015610806573d5f803e3d5ffd5b505050506040513d601f19601f8201168201806040525081019061082a9190611b28565b508060215f3373ffffffffffffffffffffffffffffffffffffffff1673ffffffffffffffffffffffffffffffffffffffff1681526020019081526020015f205f8282546108779190611985565b925050819055503373ffffffffffffffffffffffffffffffffffffffff167f896e034966eaaf1adc54acc0f257056febbd300c9e47182cf761982cf1f5e430826040516108c49190611560565b60405180910390a250505050506108d9611223565b565b60255f9054906101000a900460ff1681565b60245481565b6108fb61122c565b6109045f6112b3565b565b6021602052805f5260405f205f915090505481565b6004816003811061092a575f80fd5b600902015f91509050805f015f9054906101000a900460ff16908060010154908060020154908060030154908060040154908060050154908060060154908060070154908060080154905089565b5f805f9054906101000a900473ffffffffffffffffffffffffffffffffffffffff16905090565b602681815481106109ae575f80fd5b905f5260205f20015f915054906101000a900473ffffffffffffffffffffffffffffffffffffffff1681565b60208052805f5260405f205f915090505481565b60035f9054906101000a900473ffffffffffffffffffffffffffffffffffffffff1681565b610a1b6111d4565b5f600360255f9054906101000a900460ff1660ff1610610a70576040517f08c379a0000000000000000000000000000000000000000000000000000000008152600401610a6790611b9d565b60405180910390fd5b5f8311610ab2576040517f08c379a0000000000000000000000000000000000000000000000000000000008152600401610aa990611c05565b60405180910390fd5b5f600460255f9054906101000a900460ff1660ff1660038110610ad857610ad7611890565b5b60090201905080600101548160060154101580610b08575080600501548160040154610b0491906118ea565b4210155b15610c125760255f81819054906101000a900460ff1680929190610b2b90611c23565b91906101000a81548160ff021916908360ff16021790555050600360255f9054906101000a900460ff1660ff1610610b98576040517f08c379a0000000000000000000000000000000000000000000000000000000008152600401610b8f90611b9d565b60405180910390fd5b600460255f9054906101000a900460ff1660ff1660038110610bbd57610bbc611890565b5b6009020190504281600801819055507f087b6fa18a1c8e172c612787dcbe8b401b2e3e144cfd5be67730dfa0a3c18f7960255f9054906101000a900460ff16604051610c099190611611565b60405180910390a15b5f8160020154670de0b6b3a764000086610c2c91906119b8565b610c369190611a26565b905081600601548260010154610c4c9190611985565b811115610c8e576040517f08c379a0000000000000000000000000000000000000000000000000000000008152600401610c8590611c95565b60405180910390fd5b5f6002811115610ca157610ca061162a565b5b825f015f9054906101000a900460ff166002811115610cc357610cc261162a565b5b03610d4a57610cd133611374565b610d10576040517f08c379a0000000000000000000000000000000000000000000000000000000008152600401610d0790611cfd565b60405180910390fd5b816008015462ed4e00610d2391906118ea565b421015610d49576064826007015482610d3c91906119b8565b610d469190611a26565b92505b5b60016002811115610d5e57610d5d61162a565b5b825f015f9054906101000a900460ff166002811115610d8057610d7f61162a565b5b03610dec57610d8e33611416565b610dcd576040517f08c379a0000000000000000000000000000000000000000000000000000000008152600401610dc490611d65565b60405180910390fd5b6064826007015482610ddf91906119b8565b610de99190611a26565b92505b8281610df891906118ea565b905080826006015f828254610e0d91906118ea565b925050819055508060215f3373ffffffffffffffffffffffffffffffffffffffff1673ffffffffffffffffffffffffffffffffffffffff1681526020019081526020015f205f828254610e6091906118ea565b925050819055508060225f3373ffffffffffffffffffffffffffffffffffffffff1673ffffffffffffffffffffffffffffffffffffffff1681526020019081526020015f205f828254610eb391906118ea565b925050819055508460235f3373ffffffffffffffffffffffffffffffffffffffff1673ffffffffffffffffffffffffffffffffffffffff1681526020019081526020015f205f828254610f0691906118ea565b925050819055508373ffffffffffffffffffffffffffffffffffffffff166323b872dd3330886040518463ffffffff1660e01b8152600401610f4a93929190611abe565b6020604051808303815f875af1158015610f66573d5f803e3d5ffd5b505050506040513d601f19601f82011682018060405250810190610f8a9190611b28565b5060255f9054906101000a900460ff16602560016101000a81548160ff021916908360ff160217905550505050610fbf611223565b5050565b610fcb61122c565b5f73ffffffffffffffffffffffffffffffffffffffff168173ffffffffffffffffffffffffffffffffffffffff160361103b575f6040517f1e4fbdf700000000000000000000000000000000000000000000000000000000815260040161103291906115dd565b60405180910390fd5b611044816112b3565b50565b60025f9054906101000a900473ffffffffffffffffffffffffffffffffffffffff1681565b6110746111d4565b5f60235f3373ffffffffffffffffffffffffffffffffffffffff1673ffffffffffffffffffffffffffffffffffffffff1681526020019081526020015f20549050818110156110f8576040517f08c379a00000000000000000000000000000000000000000000000000000000081526004016110ef90611dcd565b60405180910390fd5b8273ffffffffffffffffffffffffffffffffffffffff1663a9059cbb33846040518363ffffffff1660e01b8152600401611133929190611deb565b6020604051808303815f875af115801561114f573d5f803e3d5ffd5b505050506040513d601f19601f820116820180604052508101906111739190611b28565b508160235f3373ffffffffffffffffffffffffffffffffffffffff1673ffffffffffffffffffffffffffffffffffffffff1681526020019081526020015f205f8282546111c09190611985565b92505081905550506111d0611223565b5050565b600260015403611219576040517f08c379a000000000000000000000000000000000000000000000000000000000815260040161121090611e5c565b60405180910390fd5b6002600181905550565b60018081905550565b6112346114b8565b73ffffffffffffffffffffffffffffffffffffffff16611252610978565b73ffffffffffffffffffffffffffffffffffffffff16146112b1576112756114b8565b6040517f118cdaa70000000000000000000000000000000000000000000000000000000081526004016112a891906115dd565b60405180910390fd5b565b5f805f9054906101000a900473ffffffffffffffffffffffffffffffffffffffff169050815f806101000a81548173ffffffffffffffffffffffffffffffffffffffff021916908373ffffffffffffffffffffffffffffffffffffffff1602179055508173ffffffffffffffffffffffffffffffffffffffff168173ffffffffffffffffffffffffffffffffffffffff167f8be0079c531659141344cd1fd0a4f28419497f9722a3daafe3b4186f6b6457e060405160405180910390a35050565b5f805f90505b60268054905081101561140c578273ffffffffffffffffffffffffffffffffffffffff16602682815481106113b2576113b1611890565b5b905f5260205f20015f9054906101000a900473ffffffffffffffffffffffffffffffffffffffff1673ffffffffffffffffffffffffffffffffffffffff16036113ff576001915050611411565b808060010191505061137a565b505f90505b919050565b5f805f90505b6027805490508110156114ae578273ffffffffffffffffffffffffffffffffffffffff166027828154811061145457611453611890565b5b905f5260205f20015f9054906101000a900473ffffffffffffffffffffffffffffffffffffffff1673ffffffffffffffffffffffffffffffffffffffff16036114a15760019150506114b3565b808060010191505061141c565b505f90505b919050565b5f33905090565b5f80fd5b5f73ffffffffffffffffffffffffffffffffffffffff82169050919050565b5f6114ec826114c3565b9050919050565b6114fc816114e2565b8114611506575f80fd5b50565b5f81359050611517816114f3565b92915050565b5f60208284031215611532576115316114bf565b5b5f61153f84828501611509565b91505092915050565b5f819050919050565b61155a81611548565b82525050565b5f6020820190506115735f830184611551565b92915050565b61158281611548565b811461158c575f80fd5b50565b5f8135905061159d81611579565b92915050565b5f602082840312156115b8576115b76114bf565b5b5f6115c58482850161158f565b91505092915050565b6115d7816114e2565b82525050565b5f6020820190506115f05f8301846115ce565b92915050565b5f60ff82169050919050565b61160b816115f6565b82525050565b5f6020820190506116245f830184611602565b92915050565b7f4e487b71000000000000000000000000000000000000000000000000000000005f52602160045260245ffd5b600381106116685761166761162a565b5b50565b5f81905061167882611657565b919050565b5f6116878261166b565b9050919050565b6116978161167d565b82525050565b5f610120820190506116b15f83018c61168e565b6116be602083018b611551565b6116cb604083018a611551565b6116d86060830189611551565b6116e56080830188611551565b6116f260a0830187611551565b6116ff60c0830186611551565b61170c60e0830185611551565b61171a610100830184611551565b9a9950505050505050505050565b5f806040838503121561173e5761173d6114bf565b5b5f61174b8582860161158f565b925050602061175c85828601611509565b9150509250929050565b5f819050919050565b5f61178961178461177f846114c3565b611766565b6114c3565b9050919050565b5f61179a8261176f565b9050919050565b5f6117ab82611790565b9050919050565b6117bb816117a1565b82525050565b5f6020820190506117d45f8301846117b2565b92915050565b5f80604083850312156117f0576117ef6114bf565b5b5f6117fd85828601611509565b925050602061180e8582860161158f565b9150509250929050565b5f82825260208201905092915050565b7f4e6f20746f6b656e7320617661696c61626c6520666f722072656c65617365005f82015250565b5f61185c601f83611818565b915061186782611828565b602082019050919050565b5f6020820190508181035f83015261188981611850565b9050919050565b7f4e487b71000000000000000000000000000000000000000000000000000000005f52603260045260245ffd5b7f4e487b71000000000000000000000000000000000000000000000000000000005f52601160045260245ffd5b5f6118f482611548565b91506118ff83611548565b9250828201905080821115611917576119166118bd565b5b92915050565b7f436c69666620706572696f64206e6f742066696e6973686564000000000000005f82015250565b5f611951601983611818565b915061195c8261191d565b602082019050919050565b5f6020820190508181035f83015261197e81611945565b9050919050565b5f61198f82611548565b915061199a83611548565b92508282039050818111156119b2576119b16118bd565b5b92915050565b5f6119c282611548565b91506119cd83611548565b92508282026119db81611548565b915082820484148315176119f2576119f16118bd565b5b5092915050565b7f4e487b71000000000000000000000000000000000000000000000000000000005f52601260045260245ffd5b5f611a3082611548565b9150611a3b83611548565b925082611a4b57611a4a6119f9565b5b828204905092915050565b7f4e6f20746f6b656e7320617661696c61626c6520666f7220636c61696d0000005f82015250565b5f611a8a601d83611818565b9150611a9582611a56565b602082019050919050565b5f6020820190508181035f830152611ab781611a7e565b9050919050565b5f606082019050611ad15f8301866115ce565b611ade60208301856115ce565b611aeb6040830184611551565b949350505050565b5f8115159050919050565b611b0781611af3565b8114611b11575f80fd5b50565b5f81519050611b2281611afe565b92915050565b5f60208284031215611b3d57611b3c6114bf565b5b5f611b4a84828501611b14565b91505092915050565b7f49434f2073746167657320636f6d706c657465640000000000000000000000005f82015250565b5f611b87601483611818565b9150611b9282611b53565b602082019050919050565b5f6020820190508181035f830152611bb481611b7b565b9050919050565b7f496e76616c696420707572636861736520616d6f756e740000000000000000005f82015250565b5f611bef601783611818565b9150611bfa82611bbb565b602082019050919050565b5f6020820190508181035f830152611c1c81611be3565b9050919050565b5f611c2d826115f6565b915060ff8203611c4057611c3f6118bd565b5b600182019050919050565b7f537461676520616c6c6f636174696f6e206578636565646564000000000000005f82015250565b5f611c7f601983611818565b9150611c8a82611c4b565b602082019050919050565b5f6020820190508181035f830152611cac81611c73565b9050919050565b7f4e6f7420696e766573746f72206e6f7220706172746e657200000000000000005f82015250565b5f611ce7601883611818565b9150611cf282611cb3565b602082019050919050565b5f6020820190508181035f830152611d1481611cdb565b9050919050565b7f4e6f7420696e2077686974656c697374656420706172746e65720000000000005f82015250565b5f611d4f601a83611818565b9150611d5a82611d1b565b602082019050919050565b5f6020820190508181035f830152611d7c81611d43565b9050919050565b7f4e6f7420656e6f756768206465706f736974656420616d6f756e7400000000005f82015250565b5f611db7601b83611818565b9150611dc282611d83565b602082019050919050565b5f6020820190508181035f830152611de481611dab565b9050919050565b5f604082019050611dfe5f8301856115ce565b611e0b6020830184611551565b9392505050565b7f5265656e7472616e637947756172643a207265656e7472616e742063616c6c005f82015250565b5f611e46601f83611818565b9150611e5182611e12565b602082019050919050565b5f6020820190508181035f830152611e7381611e3a565b905091905056fea26469706673582212200ba1c502cfdc02373a4df5c591eb9de94472a566708e7ae5acdc931069fd397964736f6c634300081a0033",
					"opcodes": "PUSH1 0x80 PUSH1 0x40 MSTORE CALLVALUE DUP1 ISZERO PUSH2 0xF JUMPI PUSH0 DUP1 REVERT JUMPDEST POP PUSH1 0x40 MLOAD PUSH2 0x2807 CODESIZE SUB DUP1 PUSH2 0x2807 DUP4 CODECOPY DUP2 DUP2 ADD PUSH1 0x40 MSTORE DUP2 ADD SWAP1 PUSH2 0x31 SWAP2 SWAP1 PUSH2 0x82C JUMP JUMPDEST CALLER PUSH0 PUSH20 0xFFFFFFFFFFFFFFFFFFFFFFFFFFFFFFFFFFFFFFFF AND DUP2 PUSH20 0xFFFFFFFFFFFFFFFFFFFFFFFFFFFFFFFFFFFFFFFF AND SUB PUSH2 0xA2 JUMPI PUSH0 PUSH1 0x40 MLOAD PUSH32 0x1E4FBDF700000000000000000000000000000000000000000000000000000000 DUP2 MSTORE PUSH1 0x4 ADD PUSH2 0x99 SWAP2 SWAP1 PUSH2 0x8D7 JUMP JUMPDEST PUSH1 0x40 MLOAD DUP1 SWAP2 SUB SWAP1 REVERT JUMPDEST PUSH2 0xB1 DUP2 PUSH2 0x5B0 PUSH1 0x20 SHL PUSH1 0x20 SHR JUMP JUMPDEST POP PUSH1 0x1 DUP1 DUP2 SWAP1 SSTORE POP DUP3 PUSH1 0x3 PUSH0 PUSH2 0x100 EXP DUP2 SLOAD DUP2 PUSH20 0xFFFFFFFFFFFFFFFFFFFFFFFFFFFFFFFFFFFFFFFF MUL NOT AND SWAP1 DUP4 PUSH20 0xFFFFFFFFFFFFFFFFFFFFFFFFFFFFFFFFFFFFFFFF AND MUL OR SWAP1 SSTORE POP DUP4 PUSH1 0x2 PUSH0 PUSH2 0x100 EXP DUP2 SLOAD DUP2 PUSH20 0xFFFFFFFFFFFFFFFFFFFFFFFFFFFFFFFFFFFFFFFF MUL NOT AND SWAP1 DUP4 PUSH20 0xFFFFFFFFFFFFFFFFFFFFFFFFFFFFFFFFFFFFFFFF AND MUL OR SWAP1 SSTORE POP PUSH0 PUSH1 0x25 PUSH0 PUSH2 0x100 EXP DUP2 SLOAD DUP2 PUSH1 0xFF MUL NOT AND SWAP1 DUP4 PUSH1 0xFF AND MUL OR SWAP1 SSTORE POP PUSH0 PUSH1 0x25 PUSH1 0x1 PUSH2 0x100 EXP DUP2 SLOAD DUP2 PUSH1 0xFF MUL NOT AND SWAP1 DUP4 PUSH1 0xFF AND MUL OR SWAP1 SSTORE POP PUSH0 JUMPDEST DUP3 MLOAD DUP2 LT ISZERO PUSH2 0x200 JUMPI PUSH1 0x26 DUP4 DUP3 DUP2 MLOAD DUP2 LT PUSH2 0x18E JUMPI PUSH2 0x18D PUSH2 0x8F0 JUMP JUMPDEST JUMPDEST PUSH1 0x20 MUL PUSH1 0x20 ADD ADD MLOAD SWAP1 DUP1 PUSH1 0x1 DUP2 SLOAD ADD DUP1 DUP3 SSTORE DUP1 SWAP2 POP POP PUSH1 0x1 SWAP1 SUB SWAP1 PUSH0 MSTORE PUSH1 0x20 PUSH0 KECCAK256 ADD PUSH0 SWAP1 SWAP2 SWAP1 SWAP2 SWAP1 SWAP2 PUSH2 0x100 EXP DUP2 SLOAD DUP2 PUSH20 0xFFFFFFFFFFFFFFFFFFFFFFFFFFFFFFFFFFFFFFFF MUL NOT AND SWAP1 DUP4 PUSH20 0xFFFFFFFFFFFFFFFFFFFFFFFFFFFFFFFFFFFFFFFF AND MUL OR SWAP1 SSTORE POP DUP1 DUP1 PUSH1 0x1 ADD SWAP2 POP POP PUSH2 0x170 JUMP JUMPDEST POP PUSH0 JUMPDEST DUP2 MLOAD DUP2 LT ISZERO PUSH2 0x293 JUMPI PUSH1 0x27 DUP3 DUP3 DUP2 MLOAD DUP2 LT PUSH2 0x221 JUMPI PUSH2 0x220 PUSH2 0x8F0 JUMP JUMPDEST JUMPDEST PUSH1 0x20 MUL PUSH1 0x20 ADD ADD MLOAD SWAP1 DUP1 PUSH1 0x1 DUP2 SLOAD ADD DUP1 DUP3 SSTORE DUP1 SWAP2 POP POP PUSH1 0x1 SWAP1 SUB SWAP1 PUSH0 MSTORE PUSH1 0x20 PUSH0 KECCAK256 ADD PUSH0 SWAP1 SWAP2 SWAP1 SWAP2 SWAP1 SWAP2 PUSH2 0x100 EXP DUP2 SLOAD DUP2 PUSH20 0xFFFFFFFFFFFFFFFFFFFFFFFFFFFFFFFFFFFFFFFF MUL NOT AND SWAP1 DUP4 PUSH20 0xFFFFFFFFFFFFFFFFFFFFFFFFFFFFFFFFFFFFFFFF AND MUL OR SWAP1 SSTORE POP DUP1 DUP1 PUSH1 0x1 ADD SWAP2 POP POP PUSH2 0x203 JUMP JUMPDEST POP PUSH1 0x40 MLOAD DUP1 PUSH2 0x120 ADD PUSH1 0x40 MSTORE DUP1 PUSH0 PUSH1 0x2 DUP2 GT ISZERO PUSH2 0x2B3 JUMPI PUSH2 0x2B2 PUSH2 0x91D JUMP JUMPDEST JUMPDEST DUP2 MSTORE PUSH1 0x20 ADD PUSH11 0x108B2A2C28029094000000 DUP2 MSTORE PUSH1 0x20 ADD PUSH7 0x8E1BC9BF040000 DUP2 MSTORE PUSH1 0x20 ADD PUSH3 0xC3500 DUP2 MSTORE PUSH1 0x20 ADD PUSH3 0x4F1A00 DUP2 MSTORE PUSH1 0x20 ADD PUSH4 0x18B8200 DUP2 MSTORE PUSH1 0x20 ADD PUSH0 DUP2 MSTORE PUSH1 0x20 ADD PUSH1 0xF DUP2 MSTORE PUSH1 0x20 ADD TIMESTAMP DUP2 MSTORE POP PUSH1 0x4 PUSH0 PUSH1 0x3 DUP2 LT PUSH2 0x317 JUMPI PUSH2 0x316 PUSH2 0x8F0 JUMP JUMPDEST JUMPDEST PUSH1 0x9 MUL ADD PUSH0 DUP3 ADD MLOAD DUP2 PUSH0 ADD PUSH0 PUSH2 0x100 EXP DUP2 SLOAD DUP2 PUSH1 0xFF MUL NOT AND SWAP1 DUP4 PUSH1 0x2 DUP2 GT ISZERO PUSH2 0x343 JUMPI PUSH2 0x342 PUSH2 0x91D JUMP JUMPDEST JUMPDEST MUL OR SWAP1 SSTORE POP PUSH1 0x20 DUP3 ADD MLOAD DUP2 PUSH1 0x1 ADD SSTORE PUSH1 0x40 DUP3 ADD MLOAD DUP2 PUSH1 0x2 ADD SSTORE PUSH1 0x60 DUP3 ADD MLOAD DUP2 PUSH1 0x3 ADD SSTORE PUSH1 0x80 DUP3 ADD MLOAD DUP2 PUSH1 0x4 ADD SSTORE PUSH1 0xA0 DUP3 ADD MLOAD DUP2 PUSH1 0x5 ADD SSTORE PUSH1 0xC0 DUP3 ADD MLOAD DUP2 PUSH1 0x6 ADD SSTORE PUSH1 0xE0 DUP3 ADD MLOAD DUP2 PUSH1 0x7 ADD SSTORE PUSH2 0x100 DUP3 ADD MLOAD DUP2 PUSH1 0x8 ADD SSTORE SWAP1 POP POP PUSH1 0x40 MLOAD DUP1 PUSH2 0x120 ADD PUSH1 0x40 MSTORE DUP1 PUSH1 0x1 PUSH1 0x2 DUP2 GT ISZERO PUSH2 0x3BC JUMPI PUSH2 0x3BB PUSH2 0x91D JUMP JUMPDEST JUMPDEST DUP2 MSTORE PUSH1 0x20 ADD PUSH11 0x18D0BF423C03D8DE000000 DUP2 MSTORE PUSH1 0x20 ADD PUSH7 0xD529AE9E860000 DUP2 MSTORE PUSH1 0x20 ADD PUSH3 0x1B7740 DUP2 MSTORE PUSH1 0x20 ADD PUSH3 0x278D00 DUP2 MSTORE PUSH1 0x20 ADD PUSH3 0xED4E00 DUP2 MSTORE PUSH1 0x20 ADD PUSH0 DUP2 MSTORE PUSH1 0x20 ADD PUSH1 0xA DUP2 MSTORE PUSH1 0x20 ADD PUSH0 DUP2 MSTORE POP PUSH1 0x4 PUSH1 0x1 PUSH1 0x3 DUP2 LT PUSH2 0x420 JUMPI PUSH2 0x41F PUSH2 0x8F0 JUMP JUMPDEST JUMPDEST PUSH1 0x9 MUL ADD PUSH0 DUP3 ADD MLOAD DUP2 PUSH0 ADD PUSH0 PUSH2 0x100 EXP DUP2 SLOAD DUP2 PUSH1 0xFF MUL NOT AND SWAP1 DUP4 PUSH1 0x2 DUP2 GT ISZERO PUSH2 0x44C JUMPI PUSH2 0x44B PUSH2 0x91D JUMP JUMPDEST JUMPDEST MUL OR SWAP1 SSTORE POP PUSH1 0x20 DUP3 ADD MLOAD DUP2 PUSH1 0x1 ADD SSTORE PUSH1 0x40 DUP3 ADD MLOAD DUP2 PUSH1 0x2 ADD SSTORE PUSH1 0x60 DUP3 ADD MLOAD DUP2 PUSH1 0x3 ADD SSTORE PUSH1 0x80 DUP3 ADD MLOAD DUP2 PUSH1 0x4 ADD SSTORE PUSH1 0xA0 DUP3 ADD MLOAD DUP2 PUSH1 0x5 ADD SSTORE PUSH1 0xC0 DUP3 ADD MLOAD DUP2 PUSH1 0x6 ADD SSTORE PUSH1 0xE0 DUP3 ADD MLOAD DUP2 PUSH1 0x7 ADD SSTORE PUSH2 0x100 DUP3 ADD MLOAD DUP2 PUSH1 0x8 ADD SSTORE SWAP1 POP POP PUSH1 0x40 MLOAD DUP1 PUSH2 0x120 ADD PUSH1 0x40 MSTORE DUP1 PUSH1 0x2 DUP1 DUP2 GT ISZERO PUSH2 0x4C4 JUMPI PUSH2 0x4C3 PUSH2 0x91D JUMP JUMPDEST JUMPDEST DUP2 MSTORE PUSH1 0x20 ADD PUSH11 0x295BE96E64066972000000 DUP2 MSTORE PUSH1 0x20 ADD PUSH8 0x11C37937E080000 DUP2 MSTORE PUSH1 0x20 ADD PUSH3 0x3D0900 DUP2 MSTORE PUSH1 0x20 ADD PUSH0 DUP2 MSTORE PUSH1 0x20 ADD PUSH0 DUP2 MSTORE PUSH1 0x20 ADD PUSH0 DUP2 MSTORE PUSH1 0x20 ADD PUSH0 DUP2 MSTORE PUSH1 0x20 ADD PUSH0 DUP2 MSTORE POP PUSH1 0x4 PUSH1 0x2 PUSH1 0x3 DUP2 LT PUSH2 0x522 JUMPI PUSH2 0x521 PUSH2 0x8F0 JUMP JUMPDEST JUMPDEST PUSH1 0x9 MUL ADD PUSH0 DUP3 ADD MLOAD DUP2 PUSH0 ADD PUSH0 PUSH2 0x100 EXP DUP2 SLOAD DUP2 PUSH1 0xFF MUL NOT AND SWAP1 DUP4 PUSH1 0x2 DUP2 GT ISZERO PUSH2 0x54E JUMPI PUSH2 0x54D PUSH2 0x91D JUMP JUMPDEST JUMPDEST MUL OR SWAP1 SSTORE POP PUSH1 0x20 DUP3 ADD MLOAD DUP2 PUSH1 0x1 ADD SSTORE PUSH1 0x40 DUP3 ADD MLOAD DUP2 PUSH1 0x2 ADD SSTORE PUSH1 0x60 DUP3 ADD MLOAD DUP2 PUSH1 0x3 ADD SSTORE PUSH1 0x80 DUP3 ADD MLOAD DUP2 PUSH1 0x4 ADD SSTORE PUSH1 0xA0 DUP3 ADD MLOAD DUP2 PUSH1 0x5 ADD SSTORE PUSH1 0xC0 DUP3 ADD MLOAD DUP2 PUSH1 0x6 ADD SSTORE PUSH1 0xE0 DUP3 ADD MLOAD DUP2 PUSH1 0x7 ADD SSTORE PUSH2 0x100 DUP3 ADD MLOAD DUP2 PUSH1 0x8 ADD SSTORE SWAP1 POP POP POP POP POP POP PUSH2 0x94A JUMP JUMPDEST PUSH0 DUP1 PUSH0 SWAP1 SLOAD SWAP1 PUSH2 0x100 EXP SWAP1 DIV PUSH20 0xFFFFFFFFFFFFFFFFFFFFFFFFFFFFFFFFFFFFFFFF AND SWAP1 POP DUP2 PUSH0 DUP1 PUSH2 0x100 EXP DUP2 SLOAD DUP2 PUSH20 0xFFFFFFFFFFFFFFFFFFFFFFFFFFFFFFFFFFFFFFFF MUL NOT AND SWAP1 DUP4 PUSH20 0xFFFFFFFFFFFFFFFFFFFFFFFFFFFFFFFFFFFFFFFF AND MUL OR SWAP1 SSTORE POP DUP2 PUSH20 0xFFFFFFFFFFFFFFFFFFFFFFFFFFFFFFFFFFFFFFFF AND DUP2 PUSH20 0xFFFFFFFFFFFFFFFFFFFFFFFFFFFFFFFFFFFFFFFF AND PUSH32 0x8BE0079C531659141344CD1FD0A4F28419497F9722A3DAAFE3B4186F6B6457E0 PUSH1 0x40 MLOAD PUSH1 0x40 MLOAD DUP1 SWAP2 SUB SWAP1 LOG3 POP POP JUMP JUMPDEST PUSH0 PUSH1 0x40 MLOAD SWAP1 POP SWAP1 JUMP JUMPDEST PUSH0 DUP1 REVERT JUMPDEST PUSH0 DUP1 REVERT JUMPDEST PUSH0 PUSH20 0xFFFFFFFFFFFFFFFFFFFFFFFFFFFFFFFFFFFFFFFF DUP3 AND SWAP1 POP SWAP2 SWAP1 POP JUMP JUMPDEST PUSH0 PUSH2 0x6AB DUP3 PUSH2 0x682 JUMP JUMPDEST SWAP1 POP SWAP2 SWAP1 POP JUMP JUMPDEST PUSH2 0x6BB DUP2 PUSH2 0x6A1 JUMP JUMPDEST DUP2 EQ PUSH2 0x6C5 JUMPI PUSH0 DUP1 REVERT JUMPDEST POP JUMP JUMPDEST PUSH0 DUP2 MLOAD SWAP1 POP PUSH2 0x6D6 DUP2 PUSH2 0x6B2 JUMP JUMPDEST SWAP3 SWAP2 POP POP JUMP JUMPDEST PUSH0 DUP1 REVERT JUMPDEST PUSH0 PUSH1 0x1F NOT PUSH1 0x1F DUP4 ADD AND SWAP1 POP SWAP2 SWAP1 POP JUMP JUMPDEST PUSH32 0x4E487B7100000000000000000000000000000000000000000000000000000000 PUSH0 MSTORE PUSH1 0x41 PUSH1 0x4 MSTORE PUSH1 0x24 PUSH0 REVERT JUMPDEST PUSH2 0x726 DUP3 PUSH2 0x6E0 JUMP JUMPDEST DUP2 ADD DUP2 DUP2 LT PUSH8 0xFFFFFFFFFFFFFFFF DUP3 GT OR ISZERO PUSH2 0x745 JUMPI PUSH2 0x744 PUSH2 0x6F0 JUMP JUMPDEST JUMPDEST DUP1 PUSH1 0x40 MSTORE POP POP POP JUMP JUMPDEST PUSH0 PUSH2 0x757 PUSH2 0x671 JUMP JUMPDEST SWAP1 POP PUSH2 0x763 DUP3 DUP3 PUSH2 0x71D JUMP JUMPDEST SWAP2 SWAP1 POP JUMP JUMPDEST PUSH0 PUSH8 0xFFFFFFFFFFFFFFFF DUP3 GT ISZERO PUSH2 0x782 JUMPI PUSH2 0x781 PUSH2 0x6F0 JUMP JUMPDEST JUMPDEST PUSH1 0x20 DUP3 MUL SWAP1 POP PUSH1 0x20 DUP2 ADD SWAP1 POP SWAP2 SWAP1 POP JUMP JUMPDEST PUSH0 DUP1 REVERT JUMPDEST PUSH0 PUSH2 0x7A9 PUSH2 0x7A4 DUP5 PUSH2 0x768 JUMP JUMPDEST PUSH2 0x74E JUMP JUMPDEST SWAP1 POP DUP1 DUP4 DUP3 MSTORE PUSH1 0x20 DUP3 ADD SWAP1 POP PUSH1 0x20 DUP5 MUL DUP4 ADD DUP6 DUP2 GT ISZERO PUSH2 0x7CC JUMPI PUSH2 0x7CB PUSH2 0x793 JUMP JUMPDEST JUMPDEST DUP4 JUMPDEST DUP2 DUP2 LT ISZERO PUSH2 0x7F5 JUMPI DUP1 PUSH2 0x7E1 DUP9 DUP3 PUSH2 0x6C8 JUMP JUMPDEST DUP5 MSTORE PUSH1 0x20 DUP5 ADD SWAP4 POP POP PUSH1 0x20 DUP2 ADD SWAP1 POP PUSH2 0x7CE JUMP JUMPDEST POP POP POP SWAP4 SWAP3 POP POP POP JUMP JUMPDEST PUSH0 DUP3 PUSH1 0x1F DUP4 ADD SLT PUSH2 0x813 JUMPI PUSH2 0x812 PUSH2 0x6DC JUMP JUMPDEST JUMPDEST DUP2 MLOAD PUSH2 0x823 DUP5 DUP3 PUSH1 0x20 DUP7 ADD PUSH2 0x797 JUMP JUMPDEST SWAP2 POP POP SWAP3 SWAP2 POP POP JUMP JUMPDEST PUSH0 DUP1 PUSH0 DUP1 PUSH1 0x80 DUP6 DUP8 SUB SLT ISZERO PUSH2 0x844 JUMPI PUSH2 0x843 PUSH2 0x67A JUMP JUMPDEST JUMPDEST PUSH0 PUSH2 0x851 DUP8 DUP3 DUP9 ADD PUSH2 0x6C8 JUMP JUMPDEST SWAP5 POP POP PUSH1 0x20 PUSH2 0x862 DUP8 DUP3 DUP9 ADD PUSH2 0x6C8 JUMP JUMPDEST SWAP4 POP POP PUSH1 0x40 DUP6 ADD MLOAD PUSH8 0xFFFFFFFFFFFFFFFF DUP2 GT ISZERO PUSH2 0x883 JUMPI PUSH2 0x882 PUSH2 0x67E JUMP JUMPDEST JUMPDEST PUSH2 0x88F DUP8 DUP3 DUP9 ADD PUSH2 0x7FF JUMP JUMPDEST SWAP3 POP POP PUSH1 0x60 DUP6 ADD MLOAD PUSH8 0xFFFFFFFFFFFFFFFF DUP2 GT ISZERO PUSH2 0x8B0 JUMPI PUSH2 0x8AF PUSH2 0x67E JUMP JUMPDEST JUMPDEST PUSH2 0x8BC DUP8 DUP3 DUP9 ADD PUSH2 0x7FF JUMP JUMPDEST SWAP2 POP POP SWAP3 SWAP6 SWAP2 SWAP5 POP SWAP3 POP JUMP JUMPDEST PUSH2 0x8D1 DUP2 PUSH2 0x6A1 JUMP JUMPDEST DUP3 MSTORE POP POP JUMP JUMPDEST PUSH0 PUSH1 0x20 DUP3 ADD SWAP1 POP PUSH2 0x8EA PUSH0 DUP4 ADD DUP5 PUSH2 0x8C8 JUMP JUMPDEST SWAP3 SWAP2 POP POP JUMP JUMPDEST PUSH32 0x4E487B7100000000000000000000000000000000000000000000000000000000 PUSH0 MSTORE PUSH1 0x32 PUSH1 0x4 MSTORE PUSH1 0x24 PUSH0 REVERT JUMPDEST PUSH32 0x4E487B7100000000000000000000000000000000000000000000000000000000 PUSH0 MSTORE PUSH1 0x21 PUSH1 0x4 MSTORE PUSH1 0x24 PUSH0 REVERT JUMPDEST PUSH2 0x1EB0 DUP1 PUSH2 0x957 PUSH0 CODECOPY PUSH0 RETURN INVALID PUSH1 0x80 PUSH1 0x40 MSTORE PUSH1 0x4 CALLDATASIZE LT PUSH2 0xFD JUMPI PUSH0 CALLDATALOAD PUSH1 0xE0 SHR DUP1 PUSH4 0x845DDCB2 GT PUSH2 0x94 JUMPI DUP1 PUSH4 0xB0F2D266 GT PUSH2 0x63 JUMPI DUP1 PUSH4 0xB0F2D266 EQ PUSH2 0x357 JUMPI DUP1 PUSH4 0xC625E9B1 EQ PUSH2 0x381 JUMPI DUP1 PUSH4 0xF2FDE38B EQ PUSH2 0x39D JUMPI DUP1 PUSH4 0xF7C899A1 EQ PUSH2 0x3C5 JUMPI DUP1 PUSH4 0xFD8CE085 EQ PUSH2 0x3EF JUMPI PUSH2 0xFD JUMP JUMPDEST DUP1 PUSH4 0x845DDCB2 EQ PUSH2 0x271 JUMPI DUP1 PUSH4 0x8DA5CB5B EQ PUSH2 0x2B5 JUMPI DUP1 PUSH4 0x9F1465E0 EQ PUSH2 0x2DF JUMPI DUP1 PUSH4 0xA960C65F EQ PUSH2 0x31B JUMPI PUSH2 0xFD JUMP JUMPDEST DUP1 PUSH4 0x5BF5D54C GT PUSH2 0xD0 JUMPI DUP1 PUSH4 0x5BF5D54C EQ PUSH2 0x1CB JUMPI DUP1 PUSH4 0x63B20117 EQ PUSH2 0x1F5 JUMPI DUP1 PUSH4 0x715018A6 EQ PUSH2 0x21F JUMPI DUP1 PUSH4 0x842A77D3 EQ PUSH2 0x235 JUMPI PUSH2 0xFD JUMP JUMPDEST DUP1 PUSH4 0x151F65E4 EQ PUSH2 0x101 JUMPI DUP1 PUSH4 0x15A23518 EQ PUSH2 0x13D JUMPI DUP1 PUSH4 0x3DEE0397 EQ PUSH2 0x179 JUMPI DUP1 PUSH4 0x48C54B9D EQ PUSH2 0x1B5 JUMPI JUMPDEST PUSH0 DUP1 REVERT JUMPDEST CALLVALUE DUP1 ISZERO PUSH2 0x10C JUMPI PUSH0 DUP1 REVERT JUMPDEST POP PUSH2 0x127 PUSH1 0x4 DUP1 CALLDATASIZE SUB DUP2 ADD SWAP1 PUSH2 0x122 SWAP2 SWAP1 PUSH2 0x151D JUMP JUMPDEST PUSH2 0x417 JUMP JUMPDEST PUSH1 0x40 MLOAD PUSH2 0x134 SWAP2 SWAP1 PUSH2 0x1560 JUMP JUMPDEST PUSH1 0x40 MLOAD DUP1 SWAP2 SUB SWAP1 RETURN JUMPDEST CALLVALUE DUP1 ISZERO PUSH2 0x148 JUMPI PUSH0 DUP1 REVERT JUMPDEST POP PUSH2 0x163 PUSH1 0x4 DUP1 CALLDATASIZE SUB DUP2 ADD SWAP1 PUSH2 0x15E SWAP2 SWAP1 PUSH2 0x15A3 JUMP JUMPDEST PUSH2 0x42C JUMP JUMPDEST PUSH1 0x40 MLOAD PUSH2 0x170 SWAP2 SWAP1 PUSH2 0x15DD JUMP JUMPDEST PUSH1 0x40 MLOAD DUP1 SWAP2 SUB SWAP1 RETURN JUMPDEST CALLVALUE DUP1 ISZERO PUSH2 0x184 JUMPI PUSH0 DUP1 REVERT JUMPDEST POP PUSH2 0x19F PUSH1 0x4 DUP1 CALLDATASIZE SUB DUP2 ADD SWAP1 PUSH2 0x19A SWAP2 SWAP1 PUSH2 0x151D JUMP JUMPDEST PUSH2 0x467 JUMP JUMPDEST PUSH1 0x40 MLOAD PUSH2 0x1AC SWAP2 SWAP1 PUSH2 0x1560 JUMP JUMPDEST PUSH1 0x40 MLOAD DUP1 SWAP2 SUB SWAP1 RETURN JUMPDEST CALLVALUE DUP1 ISZERO PUSH2 0x1C0 JUMPI PUSH0 DUP1 REVERT JUMPDEST POP PUSH2 0x1C9 PUSH2 0x47C JUMP JUMPDEST STOP JUMPDEST CALLVALUE DUP1 ISZERO PUSH2 0x1D6 JUMPI PUSH0 DUP1 REVERT JUMPDEST POP PUSH2 0x1DF PUSH2 0x8DB JUMP JUMPDEST PUSH1 0x40 MLOAD PUSH2 0x1EC SWAP2 SWAP1 PUSH2 0x1611 JUMP JUMPDEST PUSH1 0x40 MLOAD DUP1 SWAP2 SUB SWAP1 RETURN JUMPDEST CALLVALUE DUP1 ISZERO PUSH2 0x200 JUMPI PUSH0 DUP1 REVERT JUMPDEST POP PUSH2 0x209 PUSH2 0x8ED JUMP JUMPDEST PUSH1 0x40 MLOAD PUSH2 0x216 SWAP2 SWAP1 PUSH2 0x1560 JUMP JUMPDEST PUSH1 0x40 MLOAD DUP1 SWAP2 SUB SWAP1 RETURN JUMPDEST CALLVALUE DUP1 ISZERO PUSH2 0x22A JUMPI PUSH0 DUP1 REVERT JUMPDEST POP PUSH2 0x233 PUSH2 0x8F3 JUMP JUMPDEST STOP JUMPDEST CALLVALUE DUP1 ISZERO PUSH2 0x240 JUMPI PUSH0 DUP1 REVERT JUMPDEST POP PUSH2 0x25B PUSH1 0x4 DUP1 CALLDATASIZE SUB DUP2 ADD SWAP1 PUSH2 0x256 SWAP2 SWAP1 PUSH2 0x151D JUMP JUMPDEST PUSH2 0x906 JUMP JUMPDEST PUSH1 0x40 MLOAD PUSH2 0x268 SWAP2 SWAP1 PUSH2 0x1560 JUMP JUMPDEST PUSH1 0x40 MLOAD DUP1 SWAP2 SUB SWAP1 RETURN JUMPDEST CALLVALUE DUP1 ISZERO PUSH2 0x27C JUMPI PUSH0 DUP1 REVERT JUMPDEST POP PUSH2 0x297 PUSH1 0x4 DUP1 CALLDATASIZE SUB DUP2 ADD SWAP1 PUSH2 0x292 SWAP2 SWAP1 PUSH2 0x15A3 JUMP JUMPDEST PUSH2 0x91B JUMP JUMPDEST PUSH1 0x40 MLOAD PUSH2 0x2AC SWAP10 SWAP9 SWAP8 SWAP7 SWAP6 SWAP5 SWAP4 SWAP3 SWAP2 SWAP1 PUSH2 0x169D JUMP JUMPDEST PUSH1 0x40 MLOAD DUP1 SWAP2 SUB SWAP1 RETURN JUMPDEST CALLVALUE DUP1 ISZERO PUSH2 0x2C0 JUMPI PUSH0 DUP1 REVERT JUMPDEST POP PUSH2 0x2C9 PUSH2 0x978 JUMP JUMPDEST PUSH1 0x40 MLOAD PUSH2 0x2D6 SWAP2 SWAP1 PUSH2 0x15DD JUMP JUMPDEST PUSH1 0x40 MLOAD DUP1 SWAP2 SUB SWAP1 RETURN JUMPDEST CALLVALUE DUP1 ISZERO PUSH2 0x2EA JUMPI PUSH0 DUP1 REVERT JUMPDEST POP PUSH2 0x305 PUSH1 0x4 DUP1 CALLDATASIZE SUB DUP2 ADD SWAP1 PUSH2 0x300 SWAP2 SWAP1 PUSH2 0x15A3 JUMP JUMPDEST PUSH2 0x99F JUMP JUMPDEST PUSH1 0x40 MLOAD PUSH2 0x312 SWAP2 SWAP1 PUSH2 0x15DD JUMP JUMPDEST PUSH1 0x40 MLOAD DUP1 SWAP2 SUB SWAP1 RETURN JUMPDEST CALLVALUE DUP1 ISZERO PUSH2 0x326 JUMPI PUSH0 DUP1 REVERT JUMPDEST POP PUSH2 0x341 PUSH1 0x4 DUP1 CALLDATASIZE SUB DUP2 ADD SWAP1 PUSH2 0x33C SWAP2 SWAP1 PUSH2 0x151D JUMP JUMPDEST PUSH2 0x9DA JUMP JUMPDEST PUSH1 0x40 MLOAD PUSH2 0x34E SWAP2 SWAP1 PUSH2 0x1560 JUMP JUMPDEST PUSH1 0x40 MLOAD DUP1 SWAP2 SUB SWAP1 RETURN JUMPDEST CALLVALUE DUP1 ISZERO PUSH2 0x362 JUMPI PUSH0 DUP1 REVERT JUMPDEST POP PUSH2 0x36B PUSH2 0x9EE JUMP JUMPDEST PUSH1 0x40 MLOAD PUSH2 0x378 SWAP2 SWAP1 PUSH2 0x15DD JUMP JUMPDEST PUSH1 0x40 MLOAD DUP1 SWAP2 SUB SWAP1 RETURN JUMPDEST PUSH2 0x39B PUSH1 0x4 DUP1 CALLDATASIZE SUB DUP2 ADD SWAP1 PUSH2 0x396 SWAP2 SWAP1 PUSH2 0x1728 JUMP JUMPDEST PUSH2 0xA13 JUMP JUMPDEST STOP JUMPDEST CALLVALUE DUP1 ISZERO PUSH2 0x3A8 JUMPI PUSH0 DUP1 REVERT JUMPDEST POP PUSH2 0x3C3 PUSH1 0x4 DUP1 CALLDATASIZE SUB DUP2 ADD SWAP1 PUSH2 0x3BE SWAP2 SWAP1 PUSH2 0x151D JUMP JUMPDEST PUSH2 0xFC3 JUMP JUMPDEST STOP JUMPDEST CALLVALUE DUP1 ISZERO PUSH2 0x3D0 JUMPI PUSH0 DUP1 REVERT JUMPDEST POP PUSH2 0x3D9 PUSH2 0x1047 JUMP JUMPDEST PUSH1 0x40 MLOAD PUSH2 0x3E6 SWAP2 SWAP1 PUSH2 0x17C1 JUMP JUMPDEST PUSH1 0x40 MLOAD DUP1 SWAP2 SUB SWAP1 RETURN JUMPDEST CALLVALUE DUP1 ISZERO PUSH2 0x3FA JUMPI PUSH0 DUP1 REVERT JUMPDEST POP PUSH2 0x415 PUSH1 0x4 DUP1 CALLDATASIZE SUB DUP2 ADD SWAP1 PUSH2 0x410 SWAP2 SWAP1 PUSH2 0x17DA JUMP JUMPDEST PUSH2 0x106C JUMP JUMPDEST STOP JUMPDEST PUSH1 0x23 PUSH1 0x20 MSTORE DUP1 PUSH0 MSTORE PUSH1 0x40 PUSH0 KECCAK256 PUSH0 SWAP2 POP SWAP1 POP SLOAD DUP2 JUMP JUMPDEST PUSH1 0x27 DUP2 DUP2 SLOAD DUP2 LT PUSH2 0x43B JUMPI PUSH0 DUP1 REVERT JUMPDEST SWAP1 PUSH0 MSTORE PUSH1 0x20 PUSH0 KECCAK256 ADD PUSH0 SWAP2 POP SLOAD SWAP1 PUSH2 0x100 EXP SWAP1 DIV PUSH20 0xFFFFFFFFFFFFFFFFFFFFFFFFFFFFFFFFFFFFFFFF AND DUP2 JUMP JUMPDEST PUSH1 0x1F PUSH1 0x20 MSTORE DUP1 PUSH0 MSTORE PUSH1 0x40 PUSH0 KECCAK256 PUSH0 SWAP2 POP SWAP1 POP SLOAD DUP2 JUMP JUMPDEST PUSH2 0x484 PUSH2 0x11D4 JUMP JUMPDEST PUSH0 PUSH1 0x22 PUSH0 CALLER PUSH20 0xFFFFFFFFFFFFFFFFFFFFFFFFFFFFFFFFFFFFFFFF AND PUSH20 0xFFFFFFFFFFFFFFFFFFFFFFFFFFFFFFFFFFFFFFFF AND DUP2 MSTORE PUSH1 0x20 ADD SWAP1 DUP2 MSTORE PUSH1 0x20 ADD PUSH0 KECCAK256 SLOAD SWAP1 POP PUSH0 DUP2 GT PUSH2 0x507 JUMPI PUSH1 0x40 MLOAD PUSH32 0x8C379A000000000000000000000000000000000000000000000000000000000 DUP2 MSTORE PUSH1 0x4 ADD PUSH2 0x4FE SWAP1 PUSH2 0x1872 JUMP JUMPDEST PUSH1 0x40 MLOAD DUP1 SWAP2 SUB SWAP1 REVERT JUMPDEST PUSH0 PUSH1 0x4 PUSH1 0x25 PUSH1 0x1 SWAP1 SLOAD SWAP1 PUSH2 0x100 EXP SWAP1 DIV PUSH1 0xFF AND PUSH1 0xFF AND PUSH1 0x3 DUP2 LT PUSH2 0x52E JUMPI PUSH2 0x52D PUSH2 0x1890 JUMP JUMPDEST JUMPDEST PUSH1 0x9 MUL ADD SWAP1 POP DUP1 PUSH1 0x4 ADD SLOAD DUP2 PUSH1 0x8 ADD SLOAD PUSH2 0x548 SWAP2 SWAP1 PUSH2 0x18EA JUMP JUMPDEST TIMESTAMP LT ISZERO PUSH2 0x58A JUMPI PUSH1 0x40 MLOAD PUSH32 0x8C379A000000000000000000000000000000000000000000000000000000000 DUP2 MSTORE PUSH1 0x4 ADD PUSH2 0x581 SWAP1 PUSH2 0x1967 JUMP JUMPDEST PUSH1 0x40 MLOAD DUP1 SWAP2 SUB SWAP1 REVERT JUMPDEST PUSH0 DUP2 PUSH1 0x4 ADD SLOAD DUP3 PUSH1 0x8 ADD SLOAD PUSH2 0x59F SWAP2 SWAP1 PUSH2 0x18EA JUMP JUMPDEST TIMESTAMP PUSH2 0x5AA SWAP2 SWAP1 PUSH2 0x1985 JUMP JUMPDEST SWAP1 POP PUSH0 DUP1 PUSH1 0x25 PUSH1 0x1 SWAP1 SLOAD SWAP1 PUSH2 0x100 EXP SWAP1 DIV PUSH1 0xFF AND PUSH1 0xFF AND SUB PUSH2 0x5ED JUMPI PUSH0 PUSH4 0x18B8200 SWAP1 POP DUP1 DUP4 DUP7 PUSH2 0x5DB SWAP2 SWAP1 PUSH2 0x19B8 JUMP JUMPDEST PUSH2 0x5E5 SWAP2 SWAP1 PUSH2 0x1A26 JUMP JUMPDEST SWAP2 POP POP PUSH2 0x68A JUMP JUMPDEST PUSH1 0x1 PUSH1 0x25 PUSH1 0x1 SWAP1 SLOAD SWAP1 PUSH2 0x100 EXP SWAP1 DIV PUSH1 0xFF AND PUSH1 0xFF AND SUB PUSH2 0x62D JUMPI PUSH0 PUSH3 0xED4E00 SWAP1 POP DUP1 DUP4 DUP7 PUSH2 0x61B SWAP2 SWAP1 PUSH2 0x19B8 JUMP JUMPDEST PUSH2 0x625 SWAP2 SWAP1 PUSH2 0x1A26 JUMP JUMPDEST SWAP2 POP POP PUSH2 0x689 JUMP JUMPDEST PUSH1 0x2 PUSH1 0x25 PUSH1 0x1 SWAP1 SLOAD SWAP1 PUSH2 0x100 EXP SWAP1 DIV PUSH1 0xFF AND PUSH1 0xFF AND SUB PUSH2 0x688 JUMPI PUSH1 0x21 PUSH0 CALLER PUSH20 0xFFFFFFFFFFFFFFFFFFFFFFFFFFFFFFFFFFFFFFFF AND PUSH20 0xFFFFFFFFFFFFFFFFFFFFFFFFFFFFFFFFFFFFFFFF AND DUP2 MSTORE PUSH1 0x20 ADD SWAP1 DUP2 MSTORE PUSH1 0x20 ADD PUSH0 KECCAK256 SLOAD SWAP1 POP JUMPDEST JUMPDEST JUMPDEST PUSH0 PUSH1 0x20 PUSH0 CALLER PUSH20 0xFFFFFFFFFFFFFFFFFFFFFFFFFFFFFFFFFFFFFFFF AND PUSH20 0xFFFFFFFFFFFFFFFFFFFFFFFFFFFFFFFFFFFFFFFF AND DUP2 MSTORE PUSH1 0x20 ADD SWAP1 DUP2 MSTORE PUSH1 0x20 ADD PUSH0 KECCAK256 SLOAD DUP3 PUSH2 0x6D4 SWAP2 SWAP1 PUSH2 0x1985 JUMP JUMPDEST SWAP1 POP PUSH0 DUP2 GT PUSH2 0x718 JUMPI PUSH1 0x40 MLOAD PUSH32 0x8C379A000000000000000000000000000000000000000000000000000000000 DUP2 MSTORE PUSH1 0x4 ADD PUSH2 0x70F SWAP1 PUSH2 0x1AA0 JUMP JUMPDEST PUSH1 0x40 MLOAD DUP1 SWAP2 SUB SWAP1 REVERT JUMPDEST DUP1 PUSH1 0x20 PUSH0 CALLER PUSH20 0xFFFFFFFFFFFFFFFFFFFFFFFFFFFFFFFFFFFFFFFF AND PUSH20 0xFFFFFFFFFFFFFFFFFFFFFFFFFFFFFFFFFFFFFFFF AND DUP2 MSTORE PUSH1 0x20 ADD SWAP1 DUP2 MSTORE PUSH1 0x20 ADD PUSH0 KECCAK256 PUSH0 DUP3 DUP3 SLOAD PUSH2 0x764 SWAP2 SWAP1 PUSH2 0x18EA JUMP JUMPDEST SWAP3 POP POP DUP2 SWAP1 SSTORE POP PUSH1 0x2 PUSH0 SWAP1 SLOAD SWAP1 PUSH2 0x100 EXP SWAP1 DIV PUSH20 0xFFFFFFFFFFFFFFFFFFFFFFFFFFFFFFFFFFFFFFFF AND PUSH20 0xFFFFFFFFFFFFFFFFFFFFFFFFFFFFFFFFFFFFFFFF AND PUSH4 0x23B872DD PUSH1 0x3 PUSH0 SWAP1 SLOAD SWAP1 PUSH2 0x100 EXP SWAP1 DIV PUSH20 0xFFFFFFFFFFFFFFFFFFFFFFFFFFFFFFFFFFFFFFFF AND CALLER DUP5 PUSH1 0x40 MLOAD DUP5 PUSH4 0xFFFFFFFF AND PUSH1 0xE0 SHL DUP2 MSTORE PUSH1 0x4 ADD PUSH2 0x7EA SWAP4 SWAP3 SWAP2 SWAP1 PUSH2 0x1ABE JUMP JUMPDEST PUSH1 0x20 PUSH1 0x40 MLOAD DUP1 DUP4 SUB DUP2 PUSH0 DUP8 GAS CALL ISZERO DUP1 ISZERO PUSH2 0x806 JUMPI RETURNDATASIZE PUSH0 DUP1 RETURNDATACOPY RETURNDATASIZE PUSH0 REVERT JUMPDEST POP POP POP POP PUSH1 0x40 MLOAD RETURNDATASIZE PUSH1 0x1F NOT PUSH1 0x1F DUP3 ADD AND DUP3 ADD DUP1 PUSH1 0x40 MSTORE POP DUP2 ADD SWAP1 PUSH2 0x82A SWAP2 SWAP1 PUSH2 0x1B28 JUMP JUMPDEST POP DUP1 PUSH1 0x21 PUSH0 CALLER PUSH20 0xFFFFFFFFFFFFFFFFFFFFFFFFFFFFFFFFFFFFFFFF AND PUSH20 0xFFFFFFFFFFFFFFFFFFFFFFFFFFFFFFFFFFFFFFFF AND DUP2 MSTORE PUSH1 0x20 ADD SWAP1 DUP2 MSTORE PUSH1 0x20 ADD PUSH0 KECCAK256 PUSH0 DUP3 DUP3 SLOAD PUSH2 0x877 SWAP2 SWAP1 PUSH2 0x1985 JUMP JUMPDEST SWAP3 POP POP DUP2 SWAP1 SSTORE POP CALLER PUSH20 0xFFFFFFFFFFFFFFFFFFFFFFFFFFFFFFFFFFFFFFFF AND PUSH32 0x896E034966EAAF1ADC54ACC0F257056FEBBD300C9E47182CF761982CF1F5E430 DUP3 PUSH1 0x40 MLOAD PUSH2 0x8C4 SWAP2 SWAP1 PUSH2 0x1560 JUMP JUMPDEST PUSH1 0x40 MLOAD DUP1 SWAP2 SUB SWAP1 LOG2 POP POP POP POP POP PUSH2 0x8D9 PUSH2 0x1223 JUMP JUMPDEST JUMP JUMPDEST PUSH1 0x25 PUSH0 SWAP1 SLOAD SWAP1 PUSH2 0x100 EXP SWAP1 DIV PUSH1 0xFF AND DUP2 JUMP JUMPDEST PUSH1 0x24 SLOAD DUP2 JUMP JUMPDEST PUSH2 0x8FB PUSH2 0x122C JUMP JUMPDEST PUSH2 0x904 PUSH0 PUSH2 0x12B3 JUMP JUMPDEST JUMP JUMPDEST PUSH1 0x21 PUSH1 0x20 MSTORE DUP1 PUSH0 MSTORE PUSH1 0x40 PUSH0 KECCAK256 PUSH0 SWAP2 POP SWAP1 POP SLOAD DUP2 JUMP JUMPDEST PUSH1 0x4 DUP2 PUSH1 0x3 DUP2 LT PUSH2 0x92A JUMPI PUSH0 DUP1 REVERT JUMPDEST PUSH1 0x9 MUL ADD PUSH0 SWAP2 POP SWAP1 POP DUP1 PUSH0 ADD PUSH0 SWAP1 SLOAD SWAP1 PUSH2 0x100 EXP SWAP1 DIV PUSH1 0xFF AND SWAP1 DUP1 PUSH1 0x1 ADD SLOAD SWAP1 DUP1 PUSH1 0x2 ADD SLOAD SWAP1 DUP1 PUSH1 0x3 ADD SLOAD SWAP1 DUP1 PUSH1 0x4 ADD SLOAD SWAP1 DUP1 PUSH1 0x5 ADD SLOAD SWAP1 DUP1 PUSH1 0x6 ADD SLOAD SWAP1 DUP1 PUSH1 0x7 ADD SLOAD SWAP1 DUP1 PUSH1 0x8 ADD SLOAD SWAP1 POP DUP10 JUMP JUMPDEST PUSH0 DUP1 PUSH0 SWAP1 SLOAD SWAP1 PUSH2 0x100 EXP SWAP1 DIV PUSH20 0xFFFFFFFFFFFFFFFFFFFFFFFFFFFFFFFFFFFFFFFF AND SWAP1 POP SWAP1 JUMP JUMPDEST PUSH1 0x26 DUP2 DUP2 SLOAD DUP2 LT PUSH2 0x9AE JUMPI PUSH0 DUP1 REVERT JUMPDEST SWAP1 PUSH0 MSTORE PUSH1 0x20 PUSH0 KECCAK256 ADD PUSH0 SWAP2 POP SLOAD SWAP1 PUSH2 0x100 EXP SWAP1 DIV PUSH20 0xFFFFFFFFFFFFFFFFFFFFFFFFFFFFFFFFFFFFFFFF AND DUP2 JUMP JUMPDEST PUSH1 0x20 DUP1 MSTORE DUP1 PUSH0 MSTORE PUSH1 0x40 PUSH0 KECCAK256 PUSH0 SWAP2 POP SWAP1 POP SLOAD DUP2 JUMP JUMPDEST PUSH1 0x3 PUSH0 SWAP1 SLOAD SWAP1 PUSH2 0x100 EXP SWAP1 DIV PUSH20 0xFFFFFFFFFFFFFFFFFFFFFFFFFFFFFFFFFFFFFFFF AND DUP2 JUMP JUMPDEST PUSH2 0xA1B PUSH2 0x11D4 JUMP JUMPDEST PUSH0 PUSH1 0x3 PUSH1 0x25 PUSH0 SWAP1 SLOAD SWAP1 PUSH2 0x100 EXP SWAP1 DIV PUSH1 0xFF AND PUSH1 0xFF AND LT PUSH2 0xA70 JUMPI PUSH1 0x40 MLOAD PUSH32 0x8C379A000000000000000000000000000000000000000000000000000000000 DUP2 MSTORE PUSH1 0x4 ADD PUSH2 0xA67 SWAP1 PUSH2 0x1B9D JUMP JUMPDEST PUSH1 0x40 MLOAD DUP1 SWAP2 SUB SWAP1 REVERT JUMPDEST PUSH0 DUP4 GT PUSH2 0xAB2 JUMPI PUSH1 0x40 MLOAD PUSH32 0x8C379A000000000000000000000000000000000000000000000000000000000 DUP2 MSTORE PUSH1 0x4 ADD PUSH2 0xAA9 SWAP1 PUSH2 0x1C05 JUMP JUMPDEST PUSH1 0x40 MLOAD DUP1 SWAP2 SUB SWAP1 REVERT JUMPDEST PUSH0 PUSH1 0x4 PUSH1 0x25 PUSH0 SWAP1 SLOAD SWAP1 PUSH2 0x100 EXP SWAP1 DIV PUSH1 0xFF AND PUSH1 0xFF AND PUSH1 0x3 DUP2 LT PUSH2 0xAD8 JUMPI PUSH2 0xAD7 PUSH2 0x1890 JUMP JUMPDEST JUMPDEST PUSH1 0x9 MUL ADD SWAP1 POP DUP1 PUSH1 0x1 ADD SLOAD DUP2 PUSH1 0x6 ADD SLOAD LT ISZERO DUP1 PUSH2 0xB08 JUMPI POP DUP1 PUSH1 0x5 ADD SLOAD DUP2 PUSH1 0x4 ADD SLOAD PUSH2 0xB04 SWAP2 SWAP1 PUSH2 0x18EA JUMP JUMPDEST TIMESTAMP LT ISZERO JUMPDEST ISZERO PUSH2 0xC12 JUMPI PUSH1 0x25 PUSH0 DUP2 DUP2 SWAP1 SLOAD SWAP1 PUSH2 0x100 EXP SWAP1 DIV PUSH1 0xFF AND DUP1 SWAP3 SWAP2 SWAP1 PUSH2 0xB2B SWAP1 PUSH2 0x1C23 JUMP JUMPDEST SWAP2 SWAP1 PUSH2 0x100 EXP DUP2 SLOAD DUP2 PUSH1 0xFF MUL NOT AND SWAP1 DUP4 PUSH1 0xFF AND MUL OR SWAP1 SSTORE POP POP PUSH1 0x3 PUSH1 0x25 PUSH0 SWAP1 SLOAD SWAP1 PUSH2 0x100 EXP SWAP1 DIV PUSH1 0xFF AND PUSH1 0xFF AND LT PUSH2 0xB98 JUMPI PUSH1 0x40 MLOAD PUSH32 0x8C379A000000000000000000000000000000000000000000000000000000000 DUP2 MSTORE PUSH1 0x4 ADD PUSH2 0xB8F SWAP1 PUSH2 0x1B9D JUMP JUMPDEST PUSH1 0x40 MLOAD DUP1 SWAP2 SUB SWAP1 REVERT JUMPDEST PUSH1 0x4 PUSH1 0x25 PUSH0 SWAP1 SLOAD SWAP1 PUSH2 0x100 EXP SWAP1 DIV PUSH1 0xFF AND PUSH1 0xFF AND PUSH1 0x3 DUP2 LT PUSH2 0xBBD JUMPI PUSH2 0xBBC PUSH2 0x1890 JUMP JUMPDEST JUMPDEST PUSH1 0x9 MUL ADD SWAP1 POP TIMESTAMP DUP2 PUSH1 0x8 ADD DUP2 SWAP1 SSTORE POP PUSH32 0x87B6FA18A1C8E172C612787DCBE8B401B2E3E144CFD5BE67730DFA0A3C18F79 PUSH1 0x25 PUSH0 SWAP1 SLOAD SWAP1 PUSH2 0x100 EXP SWAP1 DIV PUSH1 0xFF AND PUSH1 0x40 MLOAD PUSH2 0xC09 SWAP2 SWAP1 PUSH2 0x1611 JUMP JUMPDEST PUSH1 0x40 MLOAD DUP1 SWAP2 SUB SWAP1 LOG1 JUMPDEST PUSH0 DUP2 PUSH1 0x2 ADD SLOAD PUSH8 0xDE0B6B3A7640000 DUP7 PUSH2 0xC2C SWAP2 SWAP1 PUSH2 0x19B8 JUMP JUMPDEST PUSH2 0xC36 SWAP2 SWAP1 PUSH2 0x1A26 JUMP JUMPDEST SWAP1 POP DUP2 PUSH1 0x6 ADD SLOAD DUP3 PUSH1 0x1 ADD SLOAD PUSH2 0xC4C SWAP2 SWAP1 PUSH2 0x1985 JUMP JUMPDEST DUP2 GT ISZERO PUSH2 0xC8E JUMPI PUSH1 0x40 MLOAD PUSH32 0x8C379A000000000000000000000000000000000000000000000000000000000 DUP2 MSTORE PUSH1 0x4 ADD PUSH2 0xC85 SWAP1 PUSH2 0x1C95 JUMP JUMPDEST PUSH1 0x40 MLOAD DUP1 SWAP2 SUB SWAP1 REVERT JUMPDEST PUSH0 PUSH1 0x2 DUP2 GT ISZERO PUSH2 0xCA1 JUMPI PUSH2 0xCA0 PUSH2 0x162A JUMP JUMPDEST JUMPDEST DUP3 PUSH0 ADD PUSH0 SWAP1 SLOAD SWAP1 PUSH2 0x100 EXP SWAP1 DIV PUSH1 0xFF AND PUSH1 0x2 DUP2 GT ISZERO PUSH2 0xCC3 JUMPI PUSH2 0xCC2 PUSH2 0x162A JUMP JUMPDEST JUMPDEST SUB PUSH2 0xD4A JUMPI PUSH2 0xCD1 CALLER PUSH2 0x1374 JUMP JUMPDEST PUSH2 0xD10 JUMPI PUSH1 0x40 MLOAD PUSH32 0x8C379A000000000000000000000000000000000000000000000000000000000 DUP2 MSTORE PUSH1 0x4 ADD PUSH2 0xD07 SWAP1 PUSH2 0x1CFD JUMP JUMPDEST PUSH1 0x40 MLOAD DUP1 SWAP2 SUB SWAP1 REVERT JUMPDEST DUP2 PUSH1 0x8 ADD SLOAD PUSH3 0xED4E00 PUSH2 0xD23 SWAP2 SWAP1 PUSH2 0x18EA JUMP JUMPDEST TIMESTAMP LT ISZERO PUSH2 0xD49 JUMPI PUSH1 0x64 DUP3 PUSH1 0x7 ADD SLOAD DUP3 PUSH2 0xD3C SWAP2 SWAP1 PUSH2 0x19B8 JUMP JUMPDEST PUSH2 0xD46 SWAP2 SWAP1 PUSH2 0x1A26 JUMP JUMPDEST SWAP3 POP JUMPDEST JUMPDEST PUSH1 0x1 PUSH1 0x2 DUP2 GT ISZERO PUSH2 0xD5E JUMPI PUSH2 0xD5D PUSH2 0x162A JUMP JUMPDEST JUMPDEST DUP3 PUSH0 ADD PUSH0 SWAP1 SLOAD SWAP1 PUSH2 0x100 EXP SWAP1 DIV PUSH1 0xFF AND PUSH1 0x2 DUP2 GT ISZERO PUSH2 0xD80 JUMPI PUSH2 0xD7F PUSH2 0x162A JUMP JUMPDEST JUMPDEST SUB PUSH2 0xDEC JUMPI PUSH2 0xD8E CALLER PUSH2 0x1416 JUMP JUMPDEST PUSH2 0xDCD JUMPI PUSH1 0x40 MLOAD PUSH32 0x8C379A000000000000000000000000000000000000000000000000000000000 DUP2 MSTORE PUSH1 0x4 ADD PUSH2 0xDC4 SWAP1 PUSH2 0x1D65 JUMP JUMPDEST PUSH1 0x40 MLOAD DUP1 SWAP2 SUB SWAP1 REVERT JUMPDEST PUSH1 0x64 DUP3 PUSH1 0x7 ADD SLOAD DUP3 PUSH2 0xDDF SWAP2 SWAP1 PUSH2 0x19B8 JUMP JUMPDEST PUSH2 0xDE9 SWAP2 SWAP1 PUSH2 0x1A26 JUMP JUMPDEST SWAP3 POP JUMPDEST DUP3 DUP2 PUSH2 0xDF8 SWAP2 SWAP1 PUSH2 0x18EA JUMP JUMPDEST SWAP1 POP DUP1 DUP3 PUSH1 0x6 ADD PUSH0 DUP3 DUP3 SLOAD PUSH2 0xE0D SWAP2 SWAP1 PUSH2 0x18EA JUMP JUMPDEST SWAP3 POP POP DUP2 SWAP1 SSTORE POP DUP1 PUSH1 0x21 PUSH0 CALLER PUSH20 0xFFFFFFFFFFFFFFFFFFFFFFFFFFFFFFFFFFFFFFFF AND PUSH20 0xFFFFFFFFFFFFFFFFFFFFFFFFFFFFFFFFFFFFFFFF AND DUP2 MSTORE PUSH1 0x20 ADD SWAP1 DUP2 MSTORE PUSH1 0x20 ADD PUSH0 KECCAK256 PUSH0 DUP3 DUP3 SLOAD PUSH2 0xE60 SWAP2 SWAP1 PUSH2 0x18EA JUMP JUMPDEST SWAP3 POP POP DUP2 SWAP1 SSTORE POP DUP1 PUSH1 0x22 PUSH0 CALLER PUSH20 0xFFFFFFFFFFFFFFFFFFFFFFFFFFFFFFFFFFFFFFFF AND PUSH20 0xFFFFFFFFFFFFFFFFFFFFFFFFFFFFFFFFFFFFFFFF AND DUP2 MSTORE PUSH1 0x20 ADD SWAP1 DUP2 MSTORE PUSH1 0x20 ADD PUSH0 KECCAK256 PUSH0 DUP3 DUP3 SLOAD PUSH2 0xEB3 SWAP2 SWAP1 PUSH2 0x18EA JUMP JUMPDEST SWAP3 POP POP DUP2 SWAP1 SSTORE POP DUP5 PUSH1 0x23 PUSH0 CALLER PUSH20 0xFFFFFFFFFFFFFFFFFFFFFFFFFFFFFFFFFFFFFFFF AND PUSH20 0xFFFFFFFFFFFFFFFFFFFFFFFFFFFFFFFFFFFFFFFF AND DUP2 MSTORE PUSH1 0x20 ADD SWAP1 DUP2 MSTORE PUSH1 0x20 ADD PUSH0 KECCAK256 PUSH0 DUP3 DUP3 SLOAD PUSH2 0xF06 SWAP2 SWAP1 PUSH2 0x18EA JUMP JUMPDEST SWAP3 POP POP DUP2 SWAP1 SSTORE POP DUP4 PUSH20 0xFFFFFFFFFFFFFFFFFFFFFFFFFFFFFFFFFFFFFFFF AND PUSH4 0x23B872DD CALLER ADDRESS DUP9 PUSH1 0x40 MLOAD DUP5 PUSH4 0xFFFFFFFF AND PUSH1 0xE0 SHL DUP2 MSTORE PUSH1 0x4 ADD PUSH2 0xF4A SWAP4 SWAP3 SWAP2 SWAP1 PUSH2 0x1ABE JUMP JUMPDEST PUSH1 0x20 PUSH1 0x40 MLOAD DUP1 DUP4 SUB DUP2 PUSH0 DUP8 GAS CALL ISZERO DUP1 ISZERO PUSH2 0xF66 JUMPI RETURNDATASIZE PUSH0 DUP1 RETURNDATACOPY RETURNDATASIZE PUSH0 REVERT JUMPDEST POP POP POP POP PUSH1 0x40 MLOAD RETURNDATASIZE PUSH1 0x1F NOT PUSH1 0x1F DUP3 ADD AND DUP3 ADD DUP1 PUSH1 0x40 MSTORE POP DUP2 ADD SWAP1 PUSH2 0xF8A SWAP2 SWAP1 PUSH2 0x1B28 JUMP JUMPDEST POP PUSH1 0x25 PUSH0 SWAP1 SLOAD SWAP1 PUSH2 0x100 EXP SWAP1 DIV PUSH1 0xFF AND PUSH1 0x25 PUSH1 0x1 PUSH2 0x100 EXP DUP2 SLOAD DUP2 PUSH1 0xFF MUL NOT AND SWAP1 DUP4 PUSH1 0xFF AND MUL OR SWAP1 SSTORE POP POP POP POP PUSH2 0xFBF PUSH2 0x1223 JUMP JUMPDEST POP POP JUMP JUMPDEST PUSH2 0xFCB PUSH2 0x122C JUMP JUMPDEST PUSH0 PUSH20 0xFFFFFFFFFFFFFFFFFFFFFFFFFFFFFFFFFFFFFFFF AND DUP2 PUSH20 0xFFFFFFFFFFFFFFFFFFFFFFFFFFFFFFFFFFFFFFFF AND SUB PUSH2 0x103B JUMPI PUSH0 PUSH1 0x40 MLOAD PUSH32 0x1E4FBDF700000000000000000000000000000000000000000000000000000000 DUP2 MSTORE PUSH1 0x4 ADD PUSH2 0x1032 SWAP2 SWAP1 PUSH2 0x15DD JUMP JUMPDEST PUSH1 0x40 MLOAD DUP1 SWAP2 SUB SWAP1 REVERT JUMPDEST PUSH2 0x1044 DUP2 PUSH2 0x12B3 JUMP JUMPDEST POP JUMP JUMPDEST PUSH1 0x2 PUSH0 SWAP1 SLOAD SWAP1 PUSH2 0x100 EXP SWAP1 DIV PUSH20 0xFFFFFFFFFFFFFFFFFFFFFFFFFFFFFFFFFFFFFFFF AND DUP2 JUMP JUMPDEST PUSH2 0x1074 PUSH2 0x11D4 JUMP JUMPDEST PUSH0 PUSH1 0x23 PUSH0 CALLER PUSH20 0xFFFFFFFFFFFFFFFFFFFFFFFFFFFFFFFFFFFFFFFF AND PUSH20 0xFFFFFFFFFFFFFFFFFFFFFFFFFFFFFFFFFFFFFFFF AND DUP2 MSTORE PUSH1 0x20 ADD SWAP1 DUP2 MSTORE PUSH1 0x20 ADD PUSH0 KECCAK256 SLOAD SWAP1 POP DUP2 DUP2 LT ISZERO PUSH2 0x10F8 JUMPI PUSH1 0x40 MLOAD PUSH32 0x8C379A000000000000000000000000000000000000000000000000000000000 DUP2 MSTORE PUSH1 0x4 ADD PUSH2 0x10EF SWAP1 PUSH2 0x1DCD JUMP JUMPDEST PUSH1 0x40 MLOAD DUP1 SWAP2 SUB SWAP1 REVERT JUMPDEST DUP3 PUSH20 0xFFFFFFFFFFFFFFFFFFFFFFFFFFFFFFFFFFFFFFFF AND PUSH4 0xA9059CBB CALLER DUP5 PUSH1 0x40 MLOAD DUP4 PUSH4 0xFFFFFFFF AND PUSH1 0xE0 SHL DUP2 MSTORE PUSH1 0x4 ADD PUSH2 0x1133 SWAP3 SWAP2 SWAP1 PUSH2 0x1DEB JUMP JUMPDEST PUSH1 0x20 PUSH1 0x40 MLOAD DUP1 DUP4 SUB DUP2 PUSH0 DUP8 GAS CALL ISZERO DUP1 ISZERO PUSH2 0x114F JUMPI RETURNDATASIZE PUSH0 DUP1 RETURNDATACOPY RETURNDATASIZE PUSH0 REVERT JUMPDEST POP POP POP POP PUSH1 0x40 MLOAD RETURNDATASIZE PUSH1 0x1F NOT PUSH1 0x1F DUP3 ADD AND DUP3 ADD DUP1 PUSH1 0x40 MSTORE POP DUP2 ADD SWAP1 PUSH2 0x1173 SWAP2 SWAP1 PUSH2 0x1B28 JUMP JUMPDEST POP DUP2 PUSH1 0x23 PUSH0 CALLER PUSH20 0xFFFFFFFFFFFFFFFFFFFFFFFFFFFFFFFFFFFFFFFF AND PUSH20 0xFFFFFFFFFFFFFFFFFFFFFFFFFFFFFFFFFFFFFFFF AND DUP2 MSTORE PUSH1 0x20 ADD SWAP1 DUP2 MSTORE PUSH1 0x20 ADD PUSH0 KECCAK256 PUSH0 DUP3 DUP3 SLOAD PUSH2 0x11C0 SWAP2 SWAP1 PUSH2 0x1985 JUMP JUMPDEST SWAP3 POP POP DUP2 SWAP1 SSTORE POP POP PUSH2 0x11D0 PUSH2 0x1223 JUMP JUMPDEST POP POP JUMP JUMPDEST PUSH1 0x2 PUSH1 0x1 SLOAD SUB PUSH2 0x1219 JUMPI PUSH1 0x40 MLOAD PUSH32 0x8C379A000000000000000000000000000000000000000000000000000000000 DUP2 MSTORE PUSH1 0x4 ADD PUSH2 0x1210 SWAP1 PUSH2 0x1E5C JUMP JUMPDEST PUSH1 0x40 MLOAD DUP1 SWAP2 SUB SWAP1 REVERT JUMPDEST PUSH1 0x2 PUSH1 0x1 DUP2 SWAP1 SSTORE POP JUMP JUMPDEST PUSH1 0x1 DUP1 DUP2 SWAP1 SSTORE POP JUMP JUMPDEST PUSH2 0x1234 PUSH2 0x14B8 JUMP JUMPDEST PUSH20 0xFFFFFFFFFFFFFFFFFFFFFFFFFFFFFFFFFFFFFFFF AND PUSH2 0x1252 PUSH2 0x978 JUMP JUMPDEST PUSH20 0xFFFFFFFFFFFFFFFFFFFFFFFFFFFFFFFFFFFFFFFF AND EQ PUSH2 0x12B1 JUMPI PUSH2 0x1275 PUSH2 0x14B8 JUMP JUMPDEST PUSH1 0x40 MLOAD PUSH32 0x118CDAA700000000000000000000000000000000000000000000000000000000 DUP2 MSTORE PUSH1 0x4 ADD PUSH2 0x12A8 SWAP2 SWAP1 PUSH2 0x15DD JUMP JUMPDEST PUSH1 0x40 MLOAD DUP1 SWAP2 SUB SWAP1 REVERT JUMPDEST JUMP JUMPDEST PUSH0 DUP1 PUSH0 SWAP1 SLOAD SWAP1 PUSH2 0x100 EXP SWAP1 DIV PUSH20 0xFFFFFFFFFFFFFFFFFFFFFFFFFFFFFFFFFFFFFFFF AND SWAP1 POP DUP2 PUSH0 DUP1 PUSH2 0x100 EXP DUP2 SLOAD DUP2 PUSH20 0xFFFFFFFFFFFFFFFFFFFFFFFFFFFFFFFFFFFFFFFF MUL NOT AND SWAP1 DUP4 PUSH20 0xFFFFFFFFFFFFFFFFFFFFFFFFFFFFFFFFFFFFFFFF AND MUL OR SWAP1 SSTORE POP DUP2 PUSH20 0xFFFFFFFFFFFFFFFFFFFFFFFFFFFFFFFFFFFFFFFF AND DUP2 PUSH20 0xFFFFFFFFFFFFFFFFFFFFFFFFFFFFFFFFFFFFFFFF AND PUSH32 0x8BE0079C531659141344CD1FD0A4F28419497F9722A3DAAFE3B4186F6B6457E0 PUSH1 0x40 MLOAD PUSH1 0x40 MLOAD DUP1 SWAP2 SUB SWAP1 LOG3 POP POP JUMP JUMPDEST PUSH0 DUP1 PUSH0 SWAP1 POP JUMPDEST PUSH1 0x26 DUP1 SLOAD SWAP1 POP DUP2 LT ISZERO PUSH2 0x140C JUMPI DUP3 PUSH20 0xFFFFFFFFFFFFFFFFFFFFFFFFFFFFFFFFFFFFFFFF AND PUSH1 0x26 DUP3 DUP2 SLOAD DUP2 LT PUSH2 0x13B2 JUMPI PUSH2 0x13B1 PUSH2 0x1890 JUMP JUMPDEST JUMPDEST SWAP1 PUSH0 MSTORE PUSH1 0x20 PUSH0 KECCAK256 ADD PUSH0 SWAP1 SLOAD SWAP1 PUSH2 0x100 EXP SWAP1 DIV PUSH20 0xFFFFFFFFFFFFFFFFFFFFFFFFFFFFFFFFFFFFFFFF AND PUSH20 0xFFFFFFFFFFFFFFFFFFFFFFFFFFFFFFFFFFFFFFFF AND SUB PUSH2 0x13FF JUMPI PUSH1 0x1 SWAP2 POP POP PUSH2 0x1411 JUMP JUMPDEST DUP1 DUP1 PUSH1 0x1 ADD SWAP2 POP POP PUSH2 0x137A JUMP JUMPDEST POP PUSH0 SWAP1 POP JUMPDEST SWAP2 SWAP1 POP JUMP JUMPDEST PUSH0 DUP1 PUSH0 SWAP1 POP JUMPDEST PUSH1 0x27 DUP1 SLOAD SWAP1 POP DUP2 LT ISZERO PUSH2 0x14AE JUMPI DUP3 PUSH20 0xFFFFFFFFFFFFFFFFFFFFFFFFFFFFFFFFFFFFFFFF AND PUSH1 0x27 DUP3 DUP2 SLOAD DUP2 LT PUSH2 0x1454 JUMPI PUSH2 0x1453 PUSH2 0x1890 JUMP JUMPDEST JUMPDEST SWAP1 PUSH0 MSTORE PUSH1 0x20 PUSH0 KECCAK256 ADD PUSH0 SWAP1 SLOAD SWAP1 PUSH2 0x100 EXP SWAP1 DIV PUSH20 0xFFFFFFFFFFFFFFFFFFFFFFFFFFFFFFFFFFFFFFFF AND PUSH20 0xFFFFFFFFFFFFFFFFFFFFFFFFFFFFFFFFFFFFFFFF AND SUB PUSH2 0x14A1 JUMPI PUSH1 0x1 SWAP2 POP POP PUSH2 0x14B3 JUMP JUMPDEST DUP1 DUP1 PUSH1 0x1 ADD SWAP2 POP POP PUSH2 0x141C JUMP JUMPDEST POP PUSH0 SWAP1 POP JUMPDEST SWAP2 SWAP1 POP JUMP JUMPDEST PUSH0 CALLER SWAP1 POP SWAP1 JUMP JUMPDEST PUSH0 DUP1 REVERT JUMPDEST PUSH0 PUSH20 0xFFFFFFFFFFFFFFFFFFFFFFFFFFFFFFFFFFFFFFFF DUP3 AND SWAP1 POP SWAP2 SWAP1 POP JUMP JUMPDEST PUSH0 PUSH2 0x14EC DUP3 PUSH2 0x14C3 JUMP JUMPDEST SWAP1 POP SWAP2 SWAP1 POP JUMP JUMPDEST PUSH2 0x14FC DUP2 PUSH2 0x14E2 JUMP JUMPDEST DUP2 EQ PUSH2 0x1506 JUMPI PUSH0 DUP1 REVERT JUMPDEST POP JUMP JUMPDEST PUSH0 DUP2 CALLDATALOAD SWAP1 POP PUSH2 0x1517 DUP2 PUSH2 0x14F3 JUMP JUMPDEST SWAP3 SWAP2 POP POP JUMP JUMPDEST PUSH0 PUSH1 0x20 DUP3 DUP5 SUB SLT ISZERO PUSH2 0x1532 JUMPI PUSH2 0x1531 PUSH2 0x14BF JUMP JUMPDEST JUMPDEST PUSH0 PUSH2 0x153F DUP5 DUP3 DUP6 ADD PUSH2 0x1509 JUMP JUMPDEST SWAP2 POP POP SWAP3 SWAP2 POP POP JUMP JUMPDEST PUSH0 DUP2 SWAP1 POP SWAP2 SWAP1 POP JUMP JUMPDEST PUSH2 0x155A DUP2 PUSH2 0x1548 JUMP JUMPDEST DUP3 MSTORE POP POP JUMP JUMPDEST PUSH0 PUSH1 0x20 DUP3 ADD SWAP1 POP PUSH2 0x1573 PUSH0 DUP4 ADD DUP5 PUSH2 0x1551 JUMP JUMPDEST SWAP3 SWAP2 POP POP JUMP JUMPDEST PUSH2 0x1582 DUP2 PUSH2 0x1548 JUMP JUMPDEST DUP2 EQ PUSH2 0x158C JUMPI PUSH0 DUP1 REVERT JUMPDEST POP JUMP JUMPDEST PUSH0 DUP2 CALLDATALOAD SWAP1 POP PUSH2 0x159D DUP2 PUSH2 0x1579 JUMP JUMPDEST SWAP3 SWAP2 POP POP JUMP JUMPDEST PUSH0 PUSH1 0x20 DUP3 DUP5 SUB SLT ISZERO PUSH2 0x15B8 JUMPI PUSH2 0x15B7 PUSH2 0x14BF JUMP JUMPDEST JUMPDEST PUSH0 PUSH2 0x15C5 DUP5 DUP3 DUP6 ADD PUSH2 0x158F JUMP JUMPDEST SWAP2 POP POP SWAP3 SWAP2 POP POP JUMP JUMPDEST PUSH2 0x15D7 DUP2 PUSH2 0x14E2 JUMP JUMPDEST DUP3 MSTORE POP POP JUMP JUMPDEST PUSH0 PUSH1 0x20 DUP3 ADD SWAP1 POP PUSH2 0x15F0 PUSH0 DUP4 ADD DUP5 PUSH2 0x15CE JUMP JUMPDEST SWAP3 SWAP2 POP POP JUMP JUMPDEST PUSH0 PUSH1 0xFF DUP3 AND SWAP1 POP SWAP2 SWAP1 POP JUMP JUMPDEST PUSH2 0x160B DUP2 PUSH2 0x15F6 JUMP JUMPDEST DUP3 MSTORE POP POP JUMP JUMPDEST PUSH0 PUSH1 0x20 DUP3 ADD SWAP1 POP PUSH2 0x1624 PUSH0 DUP4 ADD DUP5 PUSH2 0x1602 JUMP JUMPDEST SWAP3 SWAP2 POP POP JUMP JUMPDEST PUSH32 0x4E487B7100000000000000000000000000000000000000000000000000000000 PUSH0 MSTORE PUSH1 0x21 PUSH1 0x4 MSTORE PUSH1 0x24 PUSH0 REVERT JUMPDEST PUSH1 0x3 DUP2 LT PUSH2 0x1668 JUMPI PUSH2 0x1667 PUSH2 0x162A JUMP JUMPDEST JUMPDEST POP JUMP JUMPDEST PUSH0 DUP2 SWAP1 POP PUSH2 0x1678 DUP3 PUSH2 0x1657 JUMP JUMPDEST SWAP2 SWAP1 POP JUMP JUMPDEST PUSH0 PUSH2 0x1687 DUP3 PUSH2 0x166B JUMP JUMPDEST SWAP1 POP SWAP2 SWAP1 POP JUMP JUMPDEST PUSH2 0x1697 DUP2 PUSH2 0x167D JUMP JUMPDEST DUP3 MSTORE POP POP JUMP JUMPDEST PUSH0 PUSH2 0x120 DUP3 ADD SWAP1 POP PUSH2 0x16B1 PUSH0 DUP4 ADD DUP13 PUSH2 0x168E JUMP JUMPDEST PUSH2 0x16BE PUSH1 0x20 DUP4 ADD DUP12 PUSH2 0x1551 JUMP JUMPDEST PUSH2 0x16CB PUSH1 0x40 DUP4 ADD DUP11 PUSH2 0x1551 JUMP JUMPDEST PUSH2 0x16D8 PUSH1 0x60 DUP4 ADD DUP10 PUSH2 0x1551 JUMP JUMPDEST PUSH2 0x16E5 PUSH1 0x80 DUP4 ADD DUP9 PUSH2 0x1551 JUMP JUMPDEST PUSH2 0x16F2 PUSH1 0xA0 DUP4 ADD DUP8 PUSH2 0x1551 JUMP JUMPDEST PUSH2 0x16FF PUSH1 0xC0 DUP4 ADD DUP7 PUSH2 0x1551 JUMP JUMPDEST PUSH2 0x170C PUSH1 0xE0 DUP4 ADD DUP6 PUSH2 0x1551 JUMP JUMPDEST PUSH2 0x171A PUSH2 0x100 DUP4 ADD DUP5 PUSH2 0x1551 JUMP JUMPDEST SWAP11 SWAP10 POP POP POP POP POP POP POP POP POP POP JUMP JUMPDEST PUSH0 DUP1 PUSH1 0x40 DUP4 DUP6 SUB SLT ISZERO PUSH2 0x173E JUMPI PUSH2 0x173D PUSH2 0x14BF JUMP JUMPDEST JUMPDEST PUSH0 PUSH2 0x174B DUP6 DUP3 DUP7 ADD PUSH2 0x158F JUMP JUMPDEST SWAP3 POP POP PUSH1 0x20 PUSH2 0x175C DUP6 DUP3 DUP7 ADD PUSH2 0x1509 JUMP JUMPDEST SWAP2 POP POP SWAP3 POP SWAP3 SWAP1 POP JUMP JUMPDEST PUSH0 DUP2 SWAP1 POP SWAP2 SWAP1 POP JUMP JUMPDEST PUSH0 PUSH2 0x1789 PUSH2 0x1784 PUSH2 0x177F DUP5 PUSH2 0x14C3 JUMP JUMPDEST PUSH2 0x1766 JUMP JUMPDEST PUSH2 0x14C3 JUMP JUMPDEST SWAP1 POP SWAP2 SWAP1 POP JUMP JUMPDEST PUSH0 PUSH2 0x179A DUP3 PUSH2 0x176F JUMP JUMPDEST SWAP1 POP SWAP2 SWAP1 POP JUMP JUMPDEST PUSH0 PUSH2 0x17AB DUP3 PUSH2 0x1790 JUMP JUMPDEST SWAP1 POP SWAP2 SWAP1 POP JUMP JUMPDEST PUSH2 0x17BB DUP2 PUSH2 0x17A1 JUMP JUMPDEST DUP3 MSTORE POP POP JUMP JUMPDEST PUSH0 PUSH1 0x20 DUP3 ADD SWAP1 POP PUSH2 0x17D4 PUSH0 DUP4 ADD DUP5 PUSH2 0x17B2 JUMP JUMPDEST SWAP3 SWAP2 POP POP JUMP JUMPDEST PUSH0 DUP1 PUSH1 0x40 DUP4 DUP6 SUB SLT ISZERO PUSH2 0x17F0 JUMPI PUSH2 0x17EF PUSH2 0x14BF JUMP JUMPDEST JUMPDEST PUSH0 PUSH2 0x17FD DUP6 DUP3 DUP7 ADD PUSH2 0x1509 JUMP JUMPDEST SWAP3 POP POP PUSH1 0x20 PUSH2 0x180E DUP6 DUP3 DUP7 ADD PUSH2 0x158F JUMP JUMPDEST SWAP2 POP POP SWAP3 POP SWAP3 SWAP1 POP JUMP JUMPDEST PUSH0 DUP3 DUP3 MSTORE PUSH1 0x20 DUP3 ADD SWAP1 POP SWAP3 SWAP2 POP POP JUMP JUMPDEST PUSH32 0x4E6F20746F6B656E7320617661696C61626C6520666F722072656C6561736500 PUSH0 DUP3 ADD MSTORE POP JUMP JUMPDEST PUSH0 PUSH2 0x185C PUSH1 0x1F DUP4 PUSH2 0x1818 JUMP JUMPDEST SWAP2 POP PUSH2 0x1867 DUP3 PUSH2 0x1828 JUMP JUMPDEST PUSH1 0x20 DUP3 ADD SWAP1 POP SWAP2 SWAP1 POP JUMP JUMPDEST PUSH0 PUSH1 0x20 DUP3 ADD SWAP1 POP DUP2 DUP2 SUB PUSH0 DUP4 ADD MSTORE PUSH2 0x1889 DUP2 PUSH2 0x1850 JUMP JUMPDEST SWAP1 POP SWAP2 SWAP1 POP JUMP JUMPDEST PUSH32 0x4E487B7100000000000000000000000000000000000000000000000000000000 PUSH0 MSTORE PUSH1 0x32 PUSH1 0x4 MSTORE PUSH1 0x24 PUSH0 REVERT JUMPDEST PUSH32 0x4E487B7100000000000000000000000000000000000000000000000000000000 PUSH0 MSTORE PUSH1 0x11 PUSH1 0x4 MSTORE PUSH1 0x24 PUSH0 REVERT JUMPDEST PUSH0 PUSH2 0x18F4 DUP3 PUSH2 0x1548 JUMP JUMPDEST SWAP2 POP PUSH2 0x18FF DUP4 PUSH2 0x1548 JUMP JUMPDEST SWAP3 POP DUP3 DUP3 ADD SWAP1 POP DUP1 DUP3 GT ISZERO PUSH2 0x1917 JUMPI PUSH2 0x1916 PUSH2 0x18BD JUMP JUMPDEST JUMPDEST SWAP3 SWAP2 POP POP JUMP JUMPDEST PUSH32 0x436C69666620706572696F64206E6F742066696E697368656400000000000000 PUSH0 DUP3 ADD MSTORE POP JUMP JUMPDEST PUSH0 PUSH2 0x1951 PUSH1 0x19 DUP4 PUSH2 0x1818 JUMP JUMPDEST SWAP2 POP PUSH2 0x195C DUP3 PUSH2 0x191D JUMP JUMPDEST PUSH1 0x20 DUP3 ADD SWAP1 POP SWAP2 SWAP1 POP JUMP JUMPDEST PUSH0 PUSH1 0x20 DUP3 ADD SWAP1 POP DUP2 DUP2 SUB PUSH0 DUP4 ADD MSTORE PUSH2 0x197E DUP2 PUSH2 0x1945 JUMP JUMPDEST SWAP1 POP SWAP2 SWAP1 POP JUMP JUMPDEST PUSH0 PUSH2 0x198F DUP3 PUSH2 0x1548 JUMP JUMPDEST SWAP2 POP PUSH2 0x199A DUP4 PUSH2 0x1548 JUMP JUMPDEST SWAP3 POP DUP3 DUP3 SUB SWAP1 POP DUP2 DUP2 GT ISZERO PUSH2 0x19B2 JUMPI PUSH2 0x19B1 PUSH2 0x18BD JUMP JUMPDEST JUMPDEST SWAP3 SWAP2 POP POP JUMP JUMPDEST PUSH0 PUSH2 0x19C2 DUP3 PUSH2 0x1548 JUMP JUMPDEST SWAP2 POP PUSH2 0x19CD DUP4 PUSH2 0x1548 JUMP JUMPDEST SWAP3 POP DUP3 DUP3 MUL PUSH2 0x19DB DUP2 PUSH2 0x1548 JUMP JUMPDEST SWAP2 POP DUP3 DUP3 DIV DUP5 EQ DUP4 ISZERO OR PUSH2 0x19F2 JUMPI PUSH2 0x19F1 PUSH2 0x18BD JUMP JUMPDEST JUMPDEST POP SWAP3 SWAP2 POP POP JUMP JUMPDEST PUSH32 0x4E487B7100000000000000000000000000000000000000000000000000000000 PUSH0 MSTORE PUSH1 0x12 PUSH1 0x4 MSTORE PUSH1 0x24 PUSH0 REVERT JUMPDEST PUSH0 PUSH2 0x1A30 DUP3 PUSH2 0x1548 JUMP JUMPDEST SWAP2 POP PUSH2 0x1A3B DUP4 PUSH2 0x1548 JUMP JUMPDEST SWAP3 POP DUP3 PUSH2 0x1A4B JUMPI PUSH2 0x1A4A PUSH2 0x19F9 JUMP JUMPDEST JUMPDEST DUP3 DUP3 DIV SWAP1 POP SWAP3 SWAP2 POP POP JUMP JUMPDEST PUSH32 0x4E6F20746F6B656E7320617661696C61626C6520666F7220636C61696D000000 PUSH0 DUP3 ADD MSTORE POP JUMP JUMPDEST PUSH0 PUSH2 0x1A8A PUSH1 0x1D DUP4 PUSH2 0x1818 JUMP JUMPDEST SWAP2 POP PUSH2 0x1A95 DUP3 PUSH2 0x1A56 JUMP JUMPDEST PUSH1 0x20 DUP3 ADD SWAP1 POP SWAP2 SWAP1 POP JUMP JUMPDEST PUSH0 PUSH1 0x20 DUP3 ADD SWAP1 POP DUP2 DUP2 SUB PUSH0 DUP4 ADD MSTORE PUSH2 0x1AB7 DUP2 PUSH2 0x1A7E JUMP JUMPDEST SWAP1 POP SWAP2 SWAP1 POP JUMP JUMPDEST PUSH0 PUSH1 0x60 DUP3 ADD SWAP1 POP PUSH2 0x1AD1 PUSH0 DUP4 ADD DUP7 PUSH2 0x15CE JUMP JUMPDEST PUSH2 0x1ADE PUSH1 0x20 DUP4 ADD DUP6 PUSH2 0x15CE JUMP JUMPDEST PUSH2 0x1AEB PUSH1 0x40 DUP4 ADD DUP5 PUSH2 0x1551 JUMP JUMPDEST SWAP5 SWAP4 POP POP POP POP JUMP JUMPDEST PUSH0 DUP2 ISZERO ISZERO SWAP1 POP SWAP2 SWAP1 POP JUMP JUMPDEST PUSH2 0x1B07 DUP2 PUSH2 0x1AF3 JUMP JUMPDEST DUP2 EQ PUSH2 0x1B11 JUMPI PUSH0 DUP1 REVERT JUMPDEST POP JUMP JUMPDEST PUSH0 DUP2 MLOAD SWAP1 POP PUSH2 0x1B22 DUP2 PUSH2 0x1AFE JUMP JUMPDEST SWAP3 SWAP2 POP POP JUMP JUMPDEST PUSH0 PUSH1 0x20 DUP3 DUP5 SUB SLT ISZERO PUSH2 0x1B3D JUMPI PUSH2 0x1B3C PUSH2 0x14BF JUMP JUMPDEST JUMPDEST PUSH0 PUSH2 0x1B4A DUP5 DUP3 DUP6 ADD PUSH2 0x1B14 JUMP JUMPDEST SWAP2 POP POP SWAP3 SWAP2 POP POP JUMP JUMPDEST PUSH32 0x49434F2073746167657320636F6D706C65746564000000000000000000000000 PUSH0 DUP3 ADD MSTORE POP JUMP JUMPDEST PUSH0 PUSH2 0x1B87 PUSH1 0x14 DUP4 PUSH2 0x1818 JUMP JUMPDEST SWAP2 POP PUSH2 0x1B92 DUP3 PUSH2 0x1B53 JUMP JUMPDEST PUSH1 0x20 DUP3 ADD SWAP1 POP SWAP2 SWAP1 POP JUMP JUMPDEST PUSH0 PUSH1 0x20 DUP3 ADD SWAP1 POP DUP2 DUP2 SUB PUSH0 DUP4 ADD MSTORE PUSH2 0x1BB4 DUP2 PUSH2 0x1B7B JUMP JUMPDEST SWAP1 POP SWAP2 SWAP1 POP JUMP JUMPDEST PUSH32 0x496E76616C696420707572636861736520616D6F756E74000000000000000000 PUSH0 DUP3 ADD MSTORE POP JUMP JUMPDEST PUSH0 PUSH2 0x1BEF PUSH1 0x17 DUP4 PUSH2 0x1818 JUMP JUMPDEST SWAP2 POP PUSH2 0x1BFA DUP3 PUSH2 0x1BBB JUMP JUMPDEST PUSH1 0x20 DUP3 ADD SWAP1 POP SWAP2 SWAP1 POP JUMP JUMPDEST PUSH0 PUSH1 0x20 DUP3 ADD SWAP1 POP DUP2 DUP2 SUB PUSH0 DUP4 ADD MSTORE PUSH2 0x1C1C DUP2 PUSH2 0x1BE3 JUMP JUMPDEST SWAP1 POP SWAP2 SWAP1 POP JUMP JUMPDEST PUSH0 PUSH2 0x1C2D DUP3 PUSH2 0x15F6 JUMP JUMPDEST SWAP2 POP PUSH1 0xFF DUP3 SUB PUSH2 0x1C40 JUMPI PUSH2 0x1C3F PUSH2 0x18BD JUMP JUMPDEST JUMPDEST PUSH1 0x1 DUP3 ADD SWAP1 POP SWAP2 SWAP1 POP JUMP JUMPDEST PUSH32 0x537461676520616C6C6F636174696F6E20657863656564656400000000000000 PUSH0 DUP3 ADD MSTORE POP JUMP JUMPDEST PUSH0 PUSH2 0x1C7F PUSH1 0x19 DUP4 PUSH2 0x1818 JUMP JUMPDEST SWAP2 POP PUSH2 0x1C8A DUP3 PUSH2 0x1C4B JUMP JUMPDEST PUSH1 0x20 DUP3 ADD SWAP1 POP SWAP2 SWAP1 POP JUMP JUMPDEST PUSH0 PUSH1 0x20 DUP3 ADD SWAP1 POP DUP2 DUP2 SUB PUSH0 DUP4 ADD MSTORE PUSH2 0x1CAC DUP2 PUSH2 0x1C73 JUMP JUMPDEST SWAP1 POP SWAP2 SWAP1 POP JUMP JUMPDEST PUSH32 0x4E6F7420696E766573746F72206E6F7220706172746E65720000000000000000 PUSH0 DUP3 ADD MSTORE POP JUMP JUMPDEST PUSH0 PUSH2 0x1CE7 PUSH1 0x18 DUP4 PUSH2 0x1818 JUMP JUMPDEST SWAP2 POP PUSH2 0x1CF2 DUP3 PUSH2 0x1CB3 JUMP JUMPDEST PUSH1 0x20 DUP3 ADD SWAP1 POP SWAP2 SWAP1 POP JUMP JUMPDEST PUSH0 PUSH1 0x20 DUP3 ADD SWAP1 POP DUP2 DUP2 SUB PUSH0 DUP4 ADD MSTORE PUSH2 0x1D14 DUP2 PUSH2 0x1CDB JUMP JUMPDEST SWAP1 POP SWAP2 SWAP1 POP JUMP JUMPDEST PUSH32 0x4E6F7420696E2077686974656C697374656420706172746E6572000000000000 PUSH0 DUP3 ADD MSTORE POP JUMP JUMPDEST PUSH0 PUSH2 0x1D4F PUSH1 0x1A DUP4 PUSH2 0x1818 JUMP JUMPDEST SWAP2 POP PUSH2 0x1D5A DUP3 PUSH2 0x1D1B JUMP JUMPDEST PUSH1 0x20 DUP3 ADD SWAP1 POP SWAP2 SWAP1 POP JUMP JUMPDEST PUSH0 PUSH1 0x20 DUP3 ADD SWAP1 POP DUP2 DUP2 SUB PUSH0 DUP4 ADD MSTORE PUSH2 0x1D7C DUP2 PUSH2 0x1D43 JUMP JUMPDEST SWAP1 POP SWAP2 SWAP1 POP JUMP JUMPDEST PUSH32 0x4E6F7420656E6F756768206465706F736974656420616D6F756E740000000000 PUSH0 DUP3 ADD MSTORE POP JUMP JUMPDEST PUSH0 PUSH2 0x1DB7 PUSH1 0x1B DUP4 PUSH2 0x1818 JUMP JUMPDEST SWAP2 POP PUSH2 0x1DC2 DUP3 PUSH2 0x1D83 JUMP JUMPDEST PUSH1 0x20 DUP3 ADD SWAP1 POP SWAP2 SWAP1 POP JUMP JUMPDEST PUSH0 PUSH1 0x20 DUP3 ADD SWAP1 POP DUP2 DUP2 SUB PUSH0 DUP4 ADD MSTORE PUSH2 0x1DE4 DUP2 PUSH2 0x1DAB JUMP JUMPDEST SWAP1 POP SWAP2 SWAP1 POP JUMP JUMPDEST PUSH0 PUSH1 0x40 DUP3 ADD SWAP1 POP PUSH2 0x1DFE PUSH0 DUP4 ADD DUP6 PUSH2 0x15CE JUMP JUMPDEST PUSH2 0x1E0B PUSH1 0x20 DUP4 ADD DUP5 PUSH2 0x1551 JUMP JUMPDEST SWAP4 SWAP3 POP POP POP JUMP JUMPDEST PUSH32 0x5265656E7472616E637947756172643A207265656E7472616E742063616C6C00 PUSH0 DUP3 ADD MSTORE POP JUMP JUMPDEST PUSH0 PUSH2 0x1E46 PUSH1 0x1F DUP4 PUSH2 0x1818 JUMP JUMPDEST SWAP2 POP PUSH2 0x1E51 DUP3 PUSH2 0x1E12 JUMP JUMPDEST PUSH1 0x20 DUP3 ADD SWAP1 POP SWAP2 SWAP1 POP JUMP JUMPDEST PUSH0 PUSH1 0x20 DUP3 ADD SWAP1 POP DUP2 DUP2 SUB PUSH0 DUP4 ADD MSTORE PUSH2 0x1E73 DUP2 PUSH2 0x1E3A JUMP JUMPDEST SWAP1 POP SWAP2 SWAP1 POP JUMP INVALID LOG2 PUSH5 0x6970667358 0x22 SLT KECCAK256 SIGNEXTEND LOG1 0xC5 MUL 0xCF 0xDC MUL CALLDATACOPY GASPRICE 0x4D CREATE2 0xC5 SWAP2 0xEB SWAP14 0xE9 PREVRANDAO PUSH19 0xA566708E7AE5ACDC931069FD397964736F6C63 NUMBER STOP ADDMOD BYTE STOP CALLER "
				},
				"gasEstimates": {
					"creation": {
						"codeDepositCost": "1571200",
						"executionCost": "infinite",
						"totalCost": "infinite"
					},
					"external": {
						"IcoAllocationAddress()": "2530",
						"buyTokens(uint256,address)": "infinite",
						"claimTokens()": "infinite",
						"claimedTokens(address)": "2891",
						"currentStage()": "2489",
						"investors_and_partner(uint256)": "5011",
						"owner()": "2560",
						"purchases(address)": "2891",
						"purchasesInStableCoin(address)": "2826",
						"renounceOwnership()": "infinite",
						"stages(uint256)": "infinite",
						"totalTokensSold()": "2470",
						"transferOwnership(address)": "infinite",
						"vestedTokens(address)": "2870",
						"whitelistedPartner(uint256)": "4990",
						"widthdrawfunds(address,uint256)": "infinite",
						"xoraToken()": "infinite"
					},
					"internal": {
						"isInvestor(address)": "infinite",
						"isWhitelisted(address)": "infinite"
					}
				},
				"methodIdentifiers": {
					"IcoAllocationAddress()": "b0f2d266",
					"buyTokens(uint256,address)": "c625e9b1",
					"claimTokens()": "48c54b9d",
					"claimedTokens(address)": "a960c65f",
					"currentStage()": "5bf5d54c",
					"investors_and_partner(uint256)": "9f1465e0",
					"owner()": "8da5cb5b",
					"purchases(address)": "842a77d3",
					"purchasesInStableCoin(address)": "151f65e4",
					"renounceOwnership()": "715018a6",
					"stages(uint256)": "845ddcb2",
					"totalTokensSold()": "63b20117",
					"transferOwnership(address)": "f2fde38b",
					"vestedTokens(address)": "3dee0397",
					"whitelistedPartner(uint256)": "15a23518",
					"widthdrawfunds(address,uint256)": "fd8ce085",
					"xoraToken()": "f7c899a1"
				}
			},
			"storageLayout": {
				"storage": [
					{
						"astId": 8,
						"contract": "contracts/ICO.sol:ICO",
						"label": "_owner",
						"offset": 0,
						"slot": "0",
						"type": "t_address"
					},
					{
						"astId": 158,
						"contract": "contracts/ICO.sol:ICO",
						"label": "_status",
						"offset": 0,
						"slot": "1",
						"type": "t_uint256"
					},
					{
						"astId": 334,
						"contract": "contracts/ICO.sol:ICO",
						"label": "xoraToken",
						"offset": 0,
						"slot": "2",
						"type": "t_contract(IERC20)290"
					},
					{
						"astId": 336,
						"contract": "contracts/ICO.sol:ICO",
						"label": "IcoAllocationAddress",
						"offset": 0,
						"slot": "3",
						"type": "t_address"
					},
					{
						"astId": 365,
						"contract": "contracts/ICO.sol:ICO",
						"label": "stages",
						"offset": 0,
						"slot": "4",
						"type": "t_array(t_struct(Stage)360_storage)3_storage"
					},
					{
						"astId": 369,
						"contract": "contracts/ICO.sol:ICO",
						"label": "vestedTokens",
						"offset": 0,
						"slot": "31",
						"type": "t_mapping(t_address,t_uint256)"
					},
					{
						"astId": 373,
						"contract": "contracts/ICO.sol:ICO",
						"label": "claimedTokens",
						"offset": 0,
						"slot": "32",
						"type": "t_mapping(t_address,t_uint256)"
					},
					{
						"astId": 377,
						"contract": "contracts/ICO.sol:ICO",
						"label": "purchases",
						"offset": 0,
						"slot": "33",
						"type": "t_mapping(t_address,t_uint256)"
					},
					{
						"astId": 381,
						"contract": "contracts/ICO.sol:ICO",
						"label": "initialPurchased",
						"offset": 0,
						"slot": "34",
						"type": "t_mapping(t_address,t_uint256)"
					},
					{
						"astId": 385,
						"contract": "contracts/ICO.sol:ICO",
						"label": "purchasesInStableCoin",
						"offset": 0,
						"slot": "35",
						"type": "t_mapping(t_address,t_uint256)"
					},
					{
						"astId": 387,
						"contract": "contracts/ICO.sol:ICO",
						"label": "totalTokensSold",
						"offset": 0,
						"slot": "36",
						"type": "t_uint256"
					},
					{
						"astId": 389,
						"contract": "contracts/ICO.sol:ICO",
						"label": "currentStage",
						"offset": 0,
						"slot": "37",
						"type": "t_uint8"
					},
					{
						"astId": 391,
						"contract": "contracts/ICO.sol:ICO",
						"label": "claimedStage",
						"offset": 1,
						"slot": "37",
						"type": "t_uint8"
					},
					{
						"astId": 394,
						"contract": "contracts/ICO.sol:ICO",
						"label": "investors_and_partner",
						"offset": 0,
						"slot": "38",
						"type": "t_array(t_address)dyn_storage"
					},
					{
						"astId": 397,
						"contract": "contracts/ICO.sol:ICO",
						"label": "whitelistedPartner",
						"offset": 0,
						"slot": "39",
						"type": "t_array(t_address)dyn_storage"
					}
				],
				"types": {
					"t_address": {
						"encoding": "inplace",
						"label": "address",
						"numberOfBytes": "20"
					},
					"t_array(t_address)dyn_storage": {
						"base": "t_address",
						"encoding": "dynamic_array",
						"label": "address[]",
						"numberOfBytes": "32"
					},
					"t_array(t_struct(Stage)360_storage)3_storage": {
						"base": "t_struct(Stage)360_storage",
						"encoding": "inplace",
						"label": "struct ICO.Stage[3]",
						"numberOfBytes": "864"
					},
					"t_contract(IERC20)290": {
						"encoding": "inplace",
						"label": "contract IERC20",
						"numberOfBytes": "20"
					},
					"t_enum(StageName)340": {
						"encoding": "inplace",
						"label": "enum ICO.StageName",
						"numberOfBytes": "1"
					},
					"t_mapping(t_address,t_uint256)": {
						"encoding": "mapping",
						"key": "t_address",
						"label": "mapping(address => uint256)",
						"numberOfBytes": "32",
						"value": "t_uint256"
					},
					"t_struct(Stage)360_storage": {
						"encoding": "inplace",
						"label": "struct ICO.Stage",
						"members": [
							{
								"astId": 343,
								"contract": "contracts/ICO.sol:ICO",
								"label": "name",
								"offset": 0,
								"slot": "0",
								"type": "t_enum(StageName)340"
							},
							{
								"astId": 345,
								"contract": "contracts/ICO.sol:ICO",
								"label": "allocation",
								"offset": 0,
								"slot": "1",
								"type": "t_uint256"
							},
							{
								"astId": 347,
								"contract": "contracts/ICO.sol:ICO",
								"label": "price",
								"offset": 0,
								"slot": "2",
								"type": "t_uint256"
							},
							{
								"astId": 349,
								"contract": "contracts/ICO.sol:ICO",
								"label": "targetRaise",
								"offset": 0,
								"slot": "3",
								"type": "t_uint256"
							},
							{
								"astId": 351,
								"contract": "contracts/ICO.sol:ICO",
								"label": "cliff",
								"offset": 0,
								"slot": "4",
								"type": "t_uint256"
							},
							{
								"astId": 353,
								"contract": "contracts/ICO.sol:ICO",
								"label": "vestingDuration",
								"offset": 0,
								"slot": "5",
								"type": "t_uint256"
							},
							{
								"astId": 355,
								"contract": "contracts/ICO.sol:ICO",
								"label": "tokensSold",
								"offset": 0,
								"slot": "6",
								"type": "t_uint256"
							},
							{
								"astId": 357,
								"contract": "contracts/ICO.sol:ICO",
								"label": "bonusPercentage",
								"offset": 0,
								"slot": "7",
								"type": "t_uint256"
							},
							{
								"astId": 359,
								"contract": "contracts/ICO.sol:ICO",
								"label": "startTime",
								"offset": 0,
								"slot": "8",
								"type": "t_uint256"
							}
						],
						"numberOfBytes": "288"
					},
					"t_uint256": {
						"encoding": "inplace",
						"label": "uint256",
						"numberOfBytes": "32"
					},
					"t_uint8": {
						"encoding": "inplace",
						"label": "uint8",
						"numberOfBytes": "1"
					}
				}
			},
			"userdoc": {
				"kind": "user",
				"methods": {},
				"version": 1
			}
		}
	}
}