{
	"contracts/Pair.sol": {
		"Pair": {
			"abi": [
				{
					"inputs": [
						{
							"internalType": "address",
							"name": "_token0",
							"type": "address"
						},
						{
							"internalType": "address",
							"name": "_token1",
							"type": "address"
						}
					],
					"stateMutability": "nonpayable",
					"type": "constructor"
				},
				{
					"anonymous": false,
					"inputs": [
						{
							"indexed": true,
							"internalType": "address",
							"name": "sender",
							"type": "address"
						},
						{
							"indexed": false,
							"internalType": "uint256",
							"name": "amount0",
							"type": "uint256"
						},
						{
							"indexed": false,
							"internalType": "uint256",
							"name": "amount1",
							"type": "uint256"
						}
					],
					"name": "Burn",
					"type": "event"
				},
				{
					"anonymous": false,
					"inputs": [
						{
							"indexed": true,
							"internalType": "address",
							"name": "sender",
							"type": "address"
						},
						{
							"indexed": false,
							"internalType": "uint256",
							"name": "amount0",
							"type": "uint256"
						},
						{
							"indexed": false,
							"internalType": "uint256",
							"name": "amount1",
							"type": "uint256"
						}
					],
					"name": "Mint",
					"type": "event"
				},
				{
					"anonymous": false,
					"inputs": [
						{
							"indexed": true,
							"internalType": "address",
							"name": "sender",
							"type": "address"
						},
						{
							"indexed": false,
							"internalType": "uint256",
							"name": "amountIn",
							"type": "uint256"
						},
						{
							"indexed": false,
							"internalType": "uint256",
							"name": "amountOut",
							"type": "uint256"
						},
						{
							"indexed": true,
							"internalType": "address",
							"name": "tokenIn",
							"type": "address"
						},
						{
							"indexed": true,
							"internalType": "address",
							"name": "tokenOut",
							"type": "address"
						}
					],
					"name": "Swap",
					"type": "event"
				},
				{
					"inputs": [
						{
							"internalType": "address",
							"name": "to",
							"type": "address"
						},
						{
							"internalType": "uint256",
							"name": "amount0",
							"type": "uint256"
						},
						{
							"internalType": "uint256",
							"name": "amount1",
							"type": "uint256"
						}
					],
					"name": "addLiquidity",
					"outputs": [],
					"stateMutability": "nonpayable",
					"type": "function"
				},
				{
					"inputs": [
						{
							"internalType": "address",
							"name": "to",
							"type": "address"
						},
						{
							"internalType": "uint256",
							"name": "amount0",
							"type": "uint256"
						},
						{
							"internalType": "uint256",
							"name": "amount1",
							"type": "uint256"
						}
					],
					"name": "removeLiquidity",
					"outputs": [],
					"stateMutability": "nonpayable",
					"type": "function"
				},
				{
					"inputs": [],
					"name": "reserve0",
					"outputs": [
						{
							"internalType": "uint256",
							"name": "",
							"type": "uint256"
						}
					],
					"stateMutability": "view",
					"type": "function"
				},
				{
					"inputs": [],
					"name": "reserve1",
					"outputs": [
						{
							"internalType": "uint256",
							"name": "",
							"type": "uint256"
						}
					],
					"stateMutability": "view",
					"type": "function"
				},
				{
					"inputs": [],
					"name": "token0",
					"outputs": [
						{
							"internalType": "address",
							"name": "",
							"type": "address"
						}
					],
					"stateMutability": "view",
					"type": "function"
				},
				{
					"inputs": [],
					"name": "token1",
					"outputs": [
						{
							"internalType": "address",
							"name": "",
							"type": "address"
						}
					],
					"stateMutability": "view",
					"type": "function"
				}
			],
			"devdoc": {
				"kind": "dev",
				"methods": {},
				"version": 1
			},
			"evm": {
				"assembly": "    /* \"contracts/Pair.sol\":185:1480  contract Pair is ReentrancyGuard {... */\n  mstore(0x40, 0x80)\n    /* \"contracts/Pair.sol\":624:732  constructor(address _token0, address _token1) {... */\n  callvalue\n  dup1\n  iszero\n  tag_1\n  jumpi\n  0x00\n  dup1\n  revert\ntag_1:\n  pop\n  mload(0x40)\n  sub(codesize, bytecodeSize)\n  dup1\n  bytecodeSize\n  dup4\n  codecopy\n  dup2\n  dup2\n  add\n  0x40\n  mstore\n  dup2\n  add\n  swap1\n  tag_2\n  swap2\n  swap1\n  tag_3\n  jump\t// in\ntag_2:\n    /* \"@openzeppelin/contracts/security/ReentrancyGuard.sol\":1716:1717  1 */\n  0x01\n    /* \"@openzeppelin/contracts/security/ReentrancyGuard.sol\":1821:1828  _status */\n  0x00\n    /* \"@openzeppelin/contracts/security/ReentrancyGuard.sol\":1821:1843  _status = _NOT_ENTERED */\n  dup2\n  swap1\n  sstore\n  pop\n    /* \"contracts/Pair.sol\":690:697  _token0 */\n  dup2\n    /* \"contracts/Pair.sol\":681:687  token0 */\n  0x01\n  0x00\n    /* \"contracts/Pair.sol\":681:697  token0 = _token0 */\n  0x0100\n  exp\n  dup2\n  sload\n  dup2\n  0xffffffffffffffffffffffffffffffffffffffff\n  mul\n  not\n  and\n  swap1\n  dup4\n  0xffffffffffffffffffffffffffffffffffffffff\n  and\n  mul\n  or\n  swap1\n  sstore\n  pop\n    /* \"contracts/Pair.sol\":717:724  _token1 */\n  dup1\n    /* \"contracts/Pair.sol\":708:714  token1 */\n  0x02\n  0x00\n    /* \"contracts/Pair.sol\":708:724  token1 = _token1 */\n  0x0100\n  exp\n  dup2\n  sload\n  dup2\n  0xffffffffffffffffffffffffffffffffffffffff\n  mul\n  not\n  and\n  swap1\n  dup4\n  0xffffffffffffffffffffffffffffffffffffffff\n  and\n  mul\n  or\n  swap1\n  sstore\n  pop\n    /* \"contracts/Pair.sol\":624:732  constructor(address _token0, address _token1) {... */\n  pop\n  pop\n    /* \"contracts/Pair.sol\":185:1480  contract Pair is ReentrancyGuard {... */\n  jump(tag_8)\n    /* \"#utility.yul\":88:205   */\ntag_10:\n    /* \"#utility.yul\":197:198   */\n  0x00\n    /* \"#utility.yul\":194:195   */\n  dup1\n    /* \"#utility.yul\":187:199   */\n  revert\n    /* \"#utility.yul\":334:460   */\ntag_12:\n    /* \"#utility.yul\":371:378   */\n  0x00\n    /* \"#utility.yul\":411:453   */\n  0xffffffffffffffffffffffffffffffffffffffff\n    /* \"#utility.yul\":404:409   */\n  dup3\n    /* \"#utility.yul\":400:454   */\n  and\n    /* \"#utility.yul\":389:454   */\n  swap1\n  pop\n    /* \"#utility.yul\":334:460   */\n  swap2\n  swap1\n  pop\n  jump\t// out\n    /* \"#utility.yul\":466:562   */\ntag_13:\n    /* \"#utility.yul\":503:510   */\n  0x00\n    /* \"#utility.yul\":532:556   */\n  tag_22\n    /* \"#utility.yul\":550:555   */\n  dup3\n    /* \"#utility.yul\":532:556   */\n  tag_12\n  jump\t// in\ntag_22:\n    /* \"#utility.yul\":521:556   */\n  swap1\n  pop\n    /* \"#utility.yul\":466:562   */\n  swap2\n  swap1\n  pop\n  jump\t// out\n    /* \"#utility.yul\":568:690   */\ntag_14:\n    /* \"#utility.yul\":641:665   */\n  tag_24\n    /* \"#utility.yul\":659:664   */\n  dup2\n    /* \"#utility.yul\":641:665   */\n  tag_13\n  jump\t// in\ntag_24:\n    /* \"#utility.yul\":634:639   */\n  dup2\n    /* \"#utility.yul\":631:666   */\n  eq\n    /* \"#utility.yul\":621:684   */\n  tag_25\n  jumpi\n    /* \"#utility.yul\":680:681   */\n  0x00\n    /* \"#utility.yul\":677:678   */\n  dup1\n    /* \"#utility.yul\":670:682   */\n  revert\n    /* \"#utility.yul\":621:684   */\ntag_25:\n    /* \"#utility.yul\":568:690   */\n  pop\n  jump\t// out\n    /* \"#utility.yul\":696:839   */\ntag_15:\n    /* \"#utility.yul\":753:758   */\n  0x00\n    /* \"#utility.yul\":784:790   */\n  dup2\n    /* \"#utility.yul\":778:791   */\n  mload\n    /* \"#utility.yul\":769:791   */\n  swap1\n  pop\n    /* \"#utility.yul\":800:833   */\n  tag_27\n    /* \"#utility.yul\":827:832   */\n  dup2\n    /* \"#utility.yul\":800:833   */\n  tag_14\n  jump\t// in\ntag_27:\n    /* \"#utility.yul\":696:839   */\n  swap3\n  swap2\n  pop\n  pop\n  jump\t// out\n    /* \"#utility.yul\":845:1352   */\ntag_3:\n    /* \"#utility.yul\":924:930   */\n  0x00\n    /* \"#utility.yul\":932:938   */\n  dup1\n    /* \"#utility.yul\":981:983   */\n  0x40\n    /* \"#utility.yul\":969:978   */\n  dup4\n    /* \"#utility.yul\":960:967   */\n  dup6\n    /* \"#utility.yul\":956:979   */\n  sub\n    /* \"#utility.yul\":952:984   */\n  slt\n    /* \"#utility.yul\":949:1068   */\n  iszero\n  tag_29\n  jumpi\n    /* \"#utility.yul\":987:1066   */\n  tag_30\n  tag_10\n  jump\t// in\ntag_30:\n    /* \"#utility.yul\":949:1068   */\ntag_29:\n    /* \"#utility.yul\":1107:1108   */\n  0x00\n    /* \"#utility.yul\":1132:1196   */\n  tag_31\n    /* \"#utility.yul\":1188:1195   */\n  dup6\n    /* \"#utility.yul\":1179:1185   */\n  dup3\n    /* \"#utility.yul\":1168:1177   */\n  dup7\n    /* \"#utility.yul\":1164:1186   */\n  add\n    /* \"#utility.yul\":1132:1196   */\n  tag_15\n  jump\t// in\ntag_31:\n    /* \"#utility.yul\":1122:1196   */\n  swap3\n  pop\n    /* \"#utility.yul\":1078:1206   */\n  pop\n    /* \"#utility.yul\":1245:1247   */\n  0x20\n    /* \"#utility.yul\":1271:1335   */\n  tag_32\n    /* \"#utility.yul\":1327:1334   */\n  dup6\n    /* \"#utility.yul\":1318:1324   */\n  dup3\n    /* \"#utility.yul\":1307:1316   */\n  dup7\n    /* \"#utility.yul\":1303:1325   */\n  add\n    /* \"#utility.yul\":1271:1335   */\n  tag_15\n  jump\t// in\ntag_32:\n    /* \"#utility.yul\":1261:1335   */\n  swap2\n  pop\n    /* \"#utility.yul\":1216:1345   */\n  pop\n    /* \"#utility.yul\":845:1352   */\n  swap3\n  pop\n  swap3\n  swap1\n  pop\n  jump\t// out\n    /* \"contracts/Pair.sol\":185:1480  contract Pair is ReentrancyGuard {... */\ntag_8:\n  dataSize(sub_0)\n  dup1\n  dataOffset(sub_0)\n  0x00\n  codecopy\n  0x00\n  return\nstop\n\nsub_0: assembly {\n        /* \"contracts/Pair.sol\":185:1480  contract Pair is ReentrancyGuard {... */\n      mstore(0x40, 0x80)\n      callvalue\n      dup1\n      iszero\n      tag_1\n      jumpi\n      0x00\n      dup1\n      revert\n    tag_1:\n      pop\n      jumpi(tag_2, lt(calldatasize, 0x04))\n      shr(0xe0, calldataload(0x00))\n      dup1\n      0x0dfe1681\n      eq\n      tag_3\n      jumpi\n      dup1\n      0x443cb4bc\n      eq\n      tag_4\n      jumpi\n      dup1\n      0x55776b77\n      eq\n      tag_5\n      jumpi\n      dup1\n      0x5a76f25e\n      eq\n      tag_6\n      jumpi\n      dup1\n      0xd21220a7\n      eq\n      tag_7\n      jumpi\n      dup1\n      0xe38192e3\n      eq\n      tag_8\n      jumpi\n    tag_2:\n      0x00\n      dup1\n      revert\n        /* \"contracts/Pair.sol\":225:246  address public token0 */\n    tag_3:\n      tag_9\n      tag_10\n      jump\t// in\n    tag_9:\n      mload(0x40)\n      tag_11\n      swap2\n      swap1\n      tag_12\n      jump\t// in\n    tag_11:\n      mload(0x40)\n      dup1\n      swap2\n      sub\n      swap1\n      return\n        /* \"contracts/Pair.sol\":281:304  uint256 public reserve0 */\n    tag_4:\n      tag_13\n      tag_14\n      jump\t// in\n    tag_13:\n      mload(0x40)\n      tag_15\n      swap2\n      swap1\n      tag_16\n      jump\t// in\n    tag_15:\n      mload(0x40)\n      dup1\n      swap2\n      sub\n      swap1\n      return\n        /* \"contracts/Pair.sol\":740:1072  function addLiquidity(address to, uint256 amount0, uint256 amount1) external nonReentrant {... */\n    tag_5:\n      tag_17\n      0x04\n      dup1\n      calldatasize\n      sub\n      dup2\n      add\n      swap1\n      tag_18\n      swap2\n      swap1\n      tag_19\n      jump\t// in\n    tag_18:\n      tag_20\n      jump\t// in\n    tag_17:\n      stop\n        /* \"contracts/Pair.sol\":311:334  uint256 public reserve1 */\n    tag_6:\n      tag_21\n      tag_22\n      jump\t// in\n    tag_21:\n      mload(0x40)\n      tag_23\n      swap2\n      swap1\n      tag_16\n      jump\t// in\n    tag_23:\n      mload(0x40)\n      dup1\n      swap2\n      sub\n      swap1\n      return\n        /* \"contracts/Pair.sol\":253:274  address public token1 */\n    tag_7:\n      tag_24\n      tag_25\n      jump\t// in\n    tag_24:\n      mload(0x40)\n      tag_26\n      swap2\n      swap1\n      tag_12\n      jump\t// in\n    tag_26:\n      mload(0x40)\n      dup1\n      swap2\n      sub\n      swap1\n      return\n        /* \"contracts/Pair.sol\":1080:1471  function removeLiquidity(address to, uint256 amount0, uint256 amount1) external nonReentrant {... */\n    tag_8:\n      tag_27\n      0x04\n      dup1\n      calldatasize\n      sub\n      dup2\n      add\n      swap1\n      tag_28\n      swap2\n      swap1\n      tag_19\n      jump\t// in\n    tag_28:\n      tag_29\n      jump\t// in\n    tag_27:\n      stop\n        /* \"contracts/Pair.sol\":225:246  address public token0 */\n    tag_10:\n      0x01\n      0x00\n      swap1\n      sload\n      swap1\n      0x0100\n      exp\n      swap1\n      div\n      0xffffffffffffffffffffffffffffffffffffffff\n      and\n      dup2\n      jump\t// out\n        /* \"contracts/Pair.sol\":281:304  uint256 public reserve0 */\n    tag_14:\n      sload(0x03)\n      dup2\n      jump\t// out\n        /* \"contracts/Pair.sol\":740:1072  function addLiquidity(address to, uint256 amount0, uint256 amount1) external nonReentrant {... */\n    tag_20:\n        /* \"@openzeppelin/contracts/security/ReentrancyGuard.sol\":2261:2282  _nonReentrantBefore() */\n      tag_31\n        /* \"@openzeppelin/contracts/security/ReentrancyGuard.sol\":2261:2280  _nonReentrantBefore */\n      tag_32\n        /* \"@openzeppelin/contracts/security/ReentrancyGuard.sol\":2261:2282  _nonReentrantBefore() */\n      jump\t// in\n    tag_31:\n        /* \"contracts/Pair.sol\":853:860  amount0 */\n      dup2\n        /* \"contracts/Pair.sol\":841:849  reserve0 */\n      0x03\n      0x00\n        /* \"contracts/Pair.sol\":841:860  reserve0 += amount0 */\n      dup3\n      dup3\n      sload\n      tag_34\n      swap2\n      swap1\n      tag_35\n      jump\t// in\n    tag_34:\n      swap3\n      pop\n      pop\n      dup2\n      swap1\n      sstore\n      pop\n        /* \"contracts/Pair.sol\":883:890  amount1 */\n      dup1\n        /* \"contracts/Pair.sol\":871:879  reserve1 */\n      0x04\n      0x00\n        /* \"contracts/Pair.sol\":871:890  reserve1 += amount1 */\n      dup3\n      dup3\n      sload\n      tag_36\n      swap2\n      swap1\n      tag_35\n      jump\t// in\n    tag_36:\n      swap3\n      pop\n      pop\n      dup2\n      swap1\n      sstore\n      pop\n        /* \"contracts/Pair.sol\":908:914  token0 */\n      0x01\n      0x00\n      swap1\n      sload\n      swap1\n      0x0100\n      exp\n      swap1\n      div\n      0xffffffffffffffffffffffffffffffffffffffff\n      and\n        /* \"contracts/Pair.sol\":901:928  IERC20(token0).transferFrom */\n      0xffffffffffffffffffffffffffffffffffffffff\n      and\n      0x23b872dd\n        /* \"contracts/Pair.sol\":929:931  to */\n      dup5\n        /* \"contracts/Pair.sol\":941:945  this */\n      address\n        /* \"contracts/Pair.sol\":948:955  amount0 */\n      dup6\n        /* \"contracts/Pair.sol\":901:956  IERC20(token0).transferFrom(to, address(this), amount0) */\n      mload(0x40)\n      dup5\n      0xffffffff\n      and\n      0xe0\n      shl\n      dup2\n      mstore\n      0x04\n      add\n      tag_37\n      swap4\n      swap3\n      swap2\n      swap1\n      tag_38\n      jump\t// in\n    tag_37:\n      0x20\n      mload(0x40)\n      dup1\n      dup4\n      sub\n      dup2\n      0x00\n      dup8\n      gas\n      call\n      iszero\n      dup1\n      iszero\n      tag_40\n      jumpi\n      returndatasize\n      0x00\n      dup1\n      returndatacopy\n      revert(0x00, returndatasize)\n    tag_40:\n      pop\n      pop\n      pop\n      pop\n      mload(0x40)\n      returndatasize\n      not(0x1f)\n      0x1f\n      dup3\n      add\n      and\n      dup3\n      add\n      dup1\n      0x40\n      mstore\n      pop\n      dup2\n      add\n      swap1\n      tag_41\n      swap2\n      swap1\n      tag_42\n      jump\t// in\n    tag_41:\n      pop\n        /* \"contracts/Pair.sol\":974:980  token1 */\n      0x02\n      0x00\n      swap1\n      sload\n      swap1\n      0x0100\n      exp\n      swap1\n      div\n      0xffffffffffffffffffffffffffffffffffffffff\n      and\n        /* \"contracts/Pair.sol\":967:994  IERC20(token1).transferFrom */\n      0xffffffffffffffffffffffffffffffffffffffff\n      and\n      0x23b872dd\n        /* \"contracts/Pair.sol\":995:997  to */\n      dup5\n        /* \"contracts/Pair.sol\":1007:1011  this */\n      address\n        /* \"contracts/Pair.sol\":1014:1021  amount1 */\n      dup5\n        /* \"contracts/Pair.sol\":967:1022  IERC20(token1).transferFrom(to, address(this), amount1) */\n      mload(0x40)\n      dup5\n      0xffffffff\n      and\n      0xe0\n      shl\n      dup2\n      mstore\n      0x04\n      add\n      tag_43\n      swap4\n      swap3\n      swap2\n      swap1\n      tag_38\n      jump\t// in\n    tag_43:\n      0x20\n      mload(0x40)\n      dup1\n      dup4\n      sub\n      dup2\n      0x00\n      dup8\n      gas\n      call\n      iszero\n      dup1\n      iszero\n      tag_45\n      jumpi\n      returndatasize\n      0x00\n      dup1\n      returndatacopy\n      revert(0x00, returndatasize)\n    tag_45:\n      pop\n      pop\n      pop\n      pop\n      mload(0x40)\n      returndatasize\n      not(0x1f)\n      0x1f\n      dup3\n      add\n      and\n      dup3\n      add\n      dup1\n      0x40\n      mstore\n      pop\n      dup2\n      add\n      swap1\n      tag_46\n      swap2\n      swap1\n      tag_42\n      jump\t// in\n    tag_46:\n      pop\n        /* \"contracts/Pair.sol\":1043:1045  to */\n      dup3\n        /* \"contracts/Pair.sol\":1038:1064  Mint(to, amount0, amount1) */\n      0xffffffffffffffffffffffffffffffffffffffff\n      and\n      0x4c209b5fc8ad50758f13e2e1088ba56a560dff690a1c6fef26394f4c03821c4f\n        /* \"contracts/Pair.sol\":1047:1054  amount0 */\n      dup4\n        /* \"contracts/Pair.sol\":1056:1063  amount1 */\n      dup4\n        /* \"contracts/Pair.sol\":1038:1064  Mint(to, amount0, amount1) */\n      mload(0x40)\n      tag_47\n      swap3\n      swap2\n      swap1\n      tag_48\n      jump\t// in\n    tag_47:\n      mload(0x40)\n      dup1\n      swap2\n      sub\n      swap1\n      log2\n        /* \"@openzeppelin/contracts/security/ReentrancyGuard.sol\":2303:2323  _nonReentrantAfter() */\n      tag_49\n        /* \"@openzeppelin/contracts/security/ReentrancyGuard.sol\":2303:2321  _nonReentrantAfter */\n      tag_50\n        /* \"@openzeppelin/contracts/security/ReentrancyGuard.sol\":2303:2323  _nonReentrantAfter() */\n      jump\t// in\n    tag_49:\n        /* \"contracts/Pair.sol\":740:1072  function addLiquidity(address to, uint256 amount0, uint256 amount1) external nonReentrant {... */\n      pop\n      pop\n      pop\n      jump\t// out\n        /* \"contracts/Pair.sol\":311:334  uint256 public reserve1 */\n    tag_22:\n      sload(0x04)\n      dup2\n      jump\t// out\n        /* \"contracts/Pair.sol\":253:274  address public token1 */\n    tag_25:\n      0x02\n      0x00\n      swap1\n      sload\n      swap1\n      0x0100\n      exp\n      swap1\n      div\n      0xffffffffffffffffffffffffffffffffffffffff\n      and\n      dup2\n      jump\t// out\n        /* \"contracts/Pair.sol\":1080:1471  function removeLiquidity(address to, uint256 amount0, uint256 amount1) external nonReentrant {... */\n    tag_29:\n        /* \"@openzeppelin/contracts/security/ReentrancyGuard.sol\":2261:2282  _nonReentrantBefore() */\n      tag_52\n        /* \"@openzeppelin/contracts/security/ReentrancyGuard.sol\":2261:2280  _nonReentrantBefore */\n      tag_32\n        /* \"@openzeppelin/contracts/security/ReentrancyGuard.sol\":2261:2282  _nonReentrantBefore() */\n      jump\t// in\n    tag_52:\n        /* \"contracts/Pair.sol\":1204:1211  amount0 */\n      dup2\n        /* \"contracts/Pair.sol\":1192:1200  reserve0 */\n      sload(0x03)\n        /* \"contracts/Pair.sol\":1192:1211  reserve0 >= amount0 */\n      lt\n      iszero\n        /* \"contracts/Pair.sol\":1192:1234  reserve0 >= amount0 && reserve1 >= amount1 */\n      dup1\n      iszero\n      tag_54\n      jumpi\n      pop\n        /* \"contracts/Pair.sol\":1227:1234  amount1 */\n      dup1\n        /* \"contracts/Pair.sol\":1215:1223  reserve1 */\n      sload(0x04)\n        /* \"contracts/Pair.sol\":1215:1234  reserve1 >= amount1 */\n      lt\n      iszero\n        /* \"contracts/Pair.sol\":1192:1234  reserve0 >= amount0 && reserve1 >= amount1 */\n    tag_54:\n        /* \"contracts/Pair.sol\":1184:1267  require(reserve0 >= amount0 && reserve1 >= amount1, \"Pair: INSUFFICIENT_LIQUIDITY\") */\n      tag_55\n      jumpi\n      mload(0x40)\n      0x08c379a000000000000000000000000000000000000000000000000000000000\n      dup2\n      mstore\n      0x04\n      add\n      tag_56\n      swap1\n      tag_57\n      jump\t// in\n    tag_56:\n      mload(0x40)\n      dup1\n      swap2\n      sub\n      swap1\n      revert\n    tag_55:\n        /* \"contracts/Pair.sol\":1290:1297  amount0 */\n      dup2\n        /* \"contracts/Pair.sol\":1278:1286  reserve0 */\n      0x03\n      0x00\n        /* \"contracts/Pair.sol\":1278:1297  reserve0 -= amount0 */\n      dup3\n      dup3\n      sload\n      tag_58\n      swap2\n      swap1\n      tag_59\n      jump\t// in\n    tag_58:\n      swap3\n      pop\n      pop\n      dup2\n      swap1\n      sstore\n      pop\n        /* \"contracts/Pair.sol\":1320:1327  amount1 */\n      dup1\n        /* \"contracts/Pair.sol\":1308:1316  reserve1 */\n      0x04\n      0x00\n        /* \"contracts/Pair.sol\":1308:1327  reserve1 -= amount1 */\n      dup3\n      dup3\n      sload\n      tag_60\n      swap2\n      swap1\n      tag_59\n      jump\t// in\n    tag_60:\n      swap3\n      pop\n      pop\n      dup2\n      swap1\n      sstore\n      pop\n        /* \"contracts/Pair.sol\":1345:1351  token0 */\n      0x01\n      0x00\n      swap1\n      sload\n      swap1\n      0x0100\n      exp\n      swap1\n      div\n      0xffffffffffffffffffffffffffffffffffffffff\n      and\n        /* \"contracts/Pair.sol\":1338:1361  IERC20(token0).transfer */\n      0xffffffffffffffffffffffffffffffffffffffff\n      and\n      0xa9059cbb\n        /* \"contracts/Pair.sol\":1362:1364  to */\n      dup5\n        /* \"contracts/Pair.sol\":1366:1373  amount0 */\n      dup5\n        /* \"contracts/Pair.sol\":1338:1374  IERC20(token0).transfer(to, amount0) */\n      mload(0x40)\n      dup4\n      0xffffffff\n      and\n      0xe0\n      shl\n      dup2\n      mstore\n      0x04\n      add\n      tag_61\n      swap3\n      swap2\n      swap1\n      tag_62\n      jump\t// in\n    tag_61:\n      0x20\n      mload(0x40)\n      dup1\n      dup4\n      sub\n      dup2\n      0x00\n      dup8\n      gas\n      call\n      iszero\n      dup1\n      iszero\n      tag_64\n      jumpi\n      returndatasize\n      0x00\n      dup1\n      returndatacopy\n      revert(0x00, returndatasize)\n    tag_64:\n      pop\n      pop\n      pop\n      pop\n      mload(0x40)\n      returndatasize\n      not(0x1f)\n      0x1f\n      dup3\n      add\n      and\n      dup3\n      add\n      dup1\n      0x40\n      mstore\n      pop\n      dup2\n      add\n      swap1\n      tag_65\n      swap2\n      swap1\n      tag_42\n      jump\t// in\n    tag_65:\n      pop\n        /* \"contracts/Pair.sol\":1392:1398  token1 */\n      0x02\n      0x00\n      swap1\n      sload\n      swap1\n      0x0100\n      exp\n      swap1\n      div\n      0xffffffffffffffffffffffffffffffffffffffff\n      and\n        /* \"contracts/Pair.sol\":1385:1408  IERC20(token1).transfer */\n      0xffffffffffffffffffffffffffffffffffffffff\n      and\n      0xa9059cbb\n        /* \"contracts/Pair.sol\":1409:1411  to */\n      dup5\n        /* \"contracts/Pair.sol\":1413:1420  amount1 */\n      dup4\n        /* \"contracts/Pair.sol\":1385:1421  IERC20(token1).transfer(to, amount1) */\n      mload(0x40)\n      dup4\n      0xffffffff\n      and\n      0xe0\n      shl\n      dup2\n      mstore\n      0x04\n      add\n      tag_66\n      swap3\n      swap2\n      swap1\n      tag_62\n      jump\t// in\n    tag_66:\n      0x20\n      mload(0x40)\n      dup1\n      dup4\n      sub\n      dup2\n      0x00\n      dup8\n      gas\n      call\n      iszero\n      dup1\n      iszero\n      tag_68\n      jumpi\n      returndatasize\n      0x00\n      dup1\n      returndatacopy\n      revert(0x00, returndatasize)\n    tag_68:\n      pop\n      pop\n      pop\n      pop\n      mload(0x40)\n      returndatasize\n      not(0x1f)\n      0x1f\n      dup3\n      add\n      and\n      dup3\n      add\n      dup1\n      0x40\n      mstore\n      pop\n      dup2\n      add\n      swap1\n      tag_69\n      swap2\n      swap1\n      tag_42\n      jump\t// in\n    tag_69:\n      pop\n        /* \"contracts/Pair.sol\":1442:1444  to */\n      dup3\n        /* \"contracts/Pair.sol\":1437:1463  Burn(to, amount0, amount1) */\n      0xffffffffffffffffffffffffffffffffffffffff\n      and\n      0x49995e5dd6158cf69ad3e9777c46755a1a826a446c6416992167462dad033b2a\n        /* \"contracts/Pair.sol\":1446:1453  amount0 */\n      dup4\n        /* \"contracts/Pair.sol\":1455:1462  amount1 */\n      dup4\n        /* \"contracts/Pair.sol\":1437:1463  Burn(to, amount0, amount1) */\n      mload(0x40)\n      tag_70\n      swap3\n      swap2\n      swap1\n      tag_48\n      jump\t// in\n    tag_70:\n      mload(0x40)\n      dup1\n      swap2\n      sub\n      swap1\n      log2\n        /* \"@openzeppelin/contracts/security/ReentrancyGuard.sol\":2303:2323  _nonReentrantAfter() */\n      tag_71\n        /* \"@openzeppelin/contracts/security/ReentrancyGuard.sol\":2303:2321  _nonReentrantAfter */\n      tag_50\n        /* \"@openzeppelin/contracts/security/ReentrancyGuard.sol\":2303:2323  _nonReentrantAfter() */\n      jump\t// in\n    tag_71:\n        /* \"contracts/Pair.sol\":1080:1471  function removeLiquidity(address to, uint256 amount0, uint256 amount1) external nonReentrant {... */\n      pop\n      pop\n      pop\n      jump\t// out\n        /* \"@openzeppelin/contracts/security/ReentrancyGuard.sol\":2336:2623  function _nonReentrantBefore() private {... */\n    tag_32:\n        /* \"@openzeppelin/contracts/security/ReentrancyGuard.sol\":1759:1760  2 */\n      0x02\n        /* \"@openzeppelin/contracts/security/ReentrancyGuard.sol\":2468:2475  _status */\n      sload(0x00)\n        /* \"@openzeppelin/contracts/security/ReentrancyGuard.sol\":2468:2487  _status != _ENTERED */\n      sub\n        /* \"@openzeppelin/contracts/security/ReentrancyGuard.sol\":2460:2523  require(_status != _ENTERED, \"ReentrancyGuard: reentrant call\") */\n      tag_73\n      jumpi\n      mload(0x40)\n      0x08c379a000000000000000000000000000000000000000000000000000000000\n      dup2\n      mstore\n      0x04\n      add\n      tag_74\n      swap1\n      tag_75\n      jump\t// in\n    tag_74:\n      mload(0x40)\n      dup1\n      swap2\n      sub\n      swap1\n      revert\n    tag_73:\n        /* \"@openzeppelin/contracts/security/ReentrancyGuard.sol\":1759:1760  2 */\n      0x02\n        /* \"@openzeppelin/contracts/security/ReentrancyGuard.sol\":2598:2605  _status */\n      0x00\n        /* \"@openzeppelin/contracts/security/ReentrancyGuard.sol\":2598:2616  _status = _ENTERED */\n      dup2\n      swap1\n      sstore\n      pop\n        /* \"@openzeppelin/contracts/security/ReentrancyGuard.sol\":2336:2623  function _nonReentrantBefore() private {... */\n      jump\t// out\n        /* \"@openzeppelin/contracts/security/ReentrancyGuard.sol\":2629:2838  function _nonReentrantAfter() private {... */\n    tag_50:\n        /* \"@openzeppelin/contracts/security/ReentrancyGuard.sol\":1716:1717  1 */\n      0x01\n        /* \"@openzeppelin/contracts/security/ReentrancyGuard.sol\":2809:2816  _status */\n      0x00\n        /* \"@openzeppelin/contracts/security/ReentrancyGuard.sol\":2809:2831  _status = _NOT_ENTERED */\n      dup2\n      swap1\n      sstore\n      pop\n        /* \"@openzeppelin/contracts/security/ReentrancyGuard.sol\":2629:2838  function _nonReentrantAfter() private {... */\n      jump\t// out\n        /* \"#utility.yul\":7:133   */\n    tag_77:\n        /* \"#utility.yul\":44:51   */\n      0x00\n        /* \"#utility.yul\":84:126   */\n      0xffffffffffffffffffffffffffffffffffffffff\n        /* \"#utility.yul\":77:82   */\n      dup3\n        /* \"#utility.yul\":73:127   */\n      and\n        /* \"#utility.yul\":62:127   */\n      swap1\n      pop\n        /* \"#utility.yul\":7:133   */\n      swap2\n      swap1\n      pop\n      jump\t// out\n        /* \"#utility.yul\":139:235   */\n    tag_78:\n        /* \"#utility.yul\":176:183   */\n      0x00\n        /* \"#utility.yul\":205:229   */\n      tag_101\n        /* \"#utility.yul\":223:228   */\n      dup3\n        /* \"#utility.yul\":205:229   */\n      tag_77\n      jump\t// in\n    tag_101:\n        /* \"#utility.yul\":194:229   */\n      swap1\n      pop\n        /* \"#utility.yul\":139:235   */\n      swap2\n      swap1\n      pop\n      jump\t// out\n        /* \"#utility.yul\":241:359   */\n    tag_79:\n        /* \"#utility.yul\":328:352   */\n      tag_103\n        /* \"#utility.yul\":346:351   */\n      dup2\n        /* \"#utility.yul\":328:352   */\n      tag_78\n      jump\t// in\n    tag_103:\n        /* \"#utility.yul\":323:326   */\n      dup3\n        /* \"#utility.yul\":316:353   */\n      mstore\n        /* \"#utility.yul\":241:359   */\n      pop\n      pop\n      jump\t// out\n        /* \"#utility.yul\":365:587   */\n    tag_12:\n        /* \"#utility.yul\":458:462   */\n      0x00\n        /* \"#utility.yul\":496:498   */\n      0x20\n        /* \"#utility.yul\":485:494   */\n      dup3\n        /* \"#utility.yul\":481:499   */\n      add\n        /* \"#utility.yul\":473:499   */\n      swap1\n      pop\n        /* \"#utility.yul\":509:580   */\n      tag_105\n        /* \"#utility.yul\":577:578   */\n      0x00\n        /* \"#utility.yul\":566:575   */\n      dup4\n        /* \"#utility.yul\":562:579   */\n      add\n        /* \"#utility.yul\":553:559   */\n      dup5\n        /* \"#utility.yul\":509:580   */\n      tag_79\n      jump\t// in\n    tag_105:\n        /* \"#utility.yul\":365:587   */\n      swap3\n      swap2\n      pop\n      pop\n      jump\t// out\n        /* \"#utility.yul\":593:670   */\n    tag_80:\n        /* \"#utility.yul\":630:637   */\n      0x00\n        /* \"#utility.yul\":659:664   */\n      dup2\n        /* \"#utility.yul\":648:664   */\n      swap1\n      pop\n        /* \"#utility.yul\":593:670   */\n      swap2\n      swap1\n      pop\n      jump\t// out\n        /* \"#utility.yul\":676:794   */\n    tag_81:\n        /* \"#utility.yul\":763:787   */\n      tag_108\n        /* \"#utility.yul\":781:786   */\n      dup2\n        /* \"#utility.yul\":763:787   */\n      tag_80\n      jump\t// in\n    tag_108:\n        /* \"#utility.yul\":758:761   */\n      dup3\n        /* \"#utility.yul\":751:788   */\n      mstore\n        /* \"#utility.yul\":676:794   */\n      pop\n      pop\n      jump\t// out\n        /* \"#utility.yul\":800:1022   */\n    tag_16:\n        /* \"#utility.yul\":893:897   */\n      0x00\n        /* \"#utility.yul\":931:933   */\n      0x20\n        /* \"#utility.yul\":920:929   */\n      dup3\n        /* \"#utility.yul\":916:934   */\n      add\n        /* \"#utility.yul\":908:934   */\n      swap1\n      pop\n        /* \"#utility.yul\":944:1015   */\n      tag_110\n        /* \"#utility.yul\":1012:1013   */\n      0x00\n        /* \"#utility.yul\":1001:1010   */\n      dup4\n        /* \"#utility.yul\":997:1014   */\n      add\n        /* \"#utility.yul\":988:994   */\n      dup5\n        /* \"#utility.yul\":944:1015   */\n      tag_81\n      jump\t// in\n    tag_110:\n        /* \"#utility.yul\":800:1022   */\n      swap3\n      swap2\n      pop\n      pop\n      jump\t// out\n        /* \"#utility.yul\":1109:1226   */\n    tag_83:\n        /* \"#utility.yul\":1218:1219   */\n      0x00\n        /* \"#utility.yul\":1215:1216   */\n      dup1\n        /* \"#utility.yul\":1208:1220   */\n      revert\n        /* \"#utility.yul\":1355:1477   */\n    tag_85:\n        /* \"#utility.yul\":1428:1452   */\n      tag_115\n        /* \"#utility.yul\":1446:1451   */\n      dup2\n        /* \"#utility.yul\":1428:1452   */\n      tag_78\n      jump\t// in\n    tag_115:\n        /* \"#utility.yul\":1421:1426   */\n      dup2\n        /* \"#utility.yul\":1418:1453   */\n      eq\n        /* \"#utility.yul\":1408:1471   */\n      tag_116\n      jumpi\n        /* \"#utility.yul\":1467:1468   */\n      0x00\n        /* \"#utility.yul\":1464:1465   */\n      dup1\n        /* \"#utility.yul\":1457:1469   */\n      revert\n        /* \"#utility.yul\":1408:1471   */\n    tag_116:\n        /* \"#utility.yul\":1355:1477   */\n      pop\n      jump\t// out\n        /* \"#utility.yul\":1483:1622   */\n    tag_86:\n        /* \"#utility.yul\":1529:1534   */\n      0x00\n        /* \"#utility.yul\":1567:1573   */\n      dup2\n        /* \"#utility.yul\":1554:1574   */\n      calldataload\n        /* \"#utility.yul\":1545:1574   */\n      swap1\n      pop\n        /* \"#utility.yul\":1583:1616   */\n      tag_118\n        /* \"#utility.yul\":1610:1615   */\n      dup2\n        /* \"#utility.yul\":1583:1616   */\n      tag_85\n      jump\t// in\n    tag_118:\n        /* \"#utility.yul\":1483:1622   */\n      swap3\n      swap2\n      pop\n      pop\n      jump\t// out\n        /* \"#utility.yul\":1628:1750   */\n    tag_87:\n        /* \"#utility.yul\":1701:1725   */\n      tag_120\n        /* \"#utility.yul\":1719:1724   */\n      dup2\n        /* \"#utility.yul\":1701:1725   */\n      tag_80\n      jump\t// in\n    tag_120:\n        /* \"#utility.yul\":1694:1699   */\n      dup2\n        /* \"#utility.yul\":1691:1726   */\n      eq\n        /* \"#utility.yul\":1681:1744   */\n      tag_121\n      jumpi\n        /* \"#utility.yul\":1740:1741   */\n      0x00\n        /* \"#utility.yul\":1737:1738   */\n      dup1\n        /* \"#utility.yul\":1730:1742   */\n      revert\n        /* \"#utility.yul\":1681:1744   */\n    tag_121:\n        /* \"#utility.yul\":1628:1750   */\n      pop\n      jump\t// out\n        /* \"#utility.yul\":1756:1895   */\n    tag_88:\n        /* \"#utility.yul\":1802:1807   */\n      0x00\n        /* \"#utility.yul\":1840:1846   */\n      dup2\n        /* \"#utility.yul\":1827:1847   */\n      calldataload\n        /* \"#utility.yul\":1818:1847   */\n      swap1\n      pop\n        /* \"#utility.yul\":1856:1889   */\n      tag_123\n        /* \"#utility.yul\":1883:1888   */\n      dup2\n        /* \"#utility.yul\":1856:1889   */\n      tag_87\n      jump\t// in\n    tag_123:\n        /* \"#utility.yul\":1756:1895   */\n      swap3\n      swap2\n      pop\n      pop\n      jump\t// out\n        /* \"#utility.yul\":1901:2520   */\n    tag_19:\n        /* \"#utility.yul\":1978:1984   */\n      0x00\n        /* \"#utility.yul\":1986:1992   */\n      dup1\n        /* \"#utility.yul\":1994:2000   */\n      0x00\n        /* \"#utility.yul\":2043:2045   */\n      0x60\n        /* \"#utility.yul\":2031:2040   */\n      dup5\n        /* \"#utility.yul\":2022:2029   */\n      dup7\n        /* \"#utility.yul\":2018:2041   */\n      sub\n        /* \"#utility.yul\":2014:2046   */\n      slt\n        /* \"#utility.yul\":2011:2130   */\n      iszero\n      tag_125\n      jumpi\n        /* \"#utility.yul\":2049:2128   */\n      tag_126\n      tag_83\n      jump\t// in\n    tag_126:\n        /* \"#utility.yul\":2011:2130   */\n    tag_125:\n        /* \"#utility.yul\":2169:2170   */\n      0x00\n        /* \"#utility.yul\":2194:2247   */\n      tag_127\n        /* \"#utility.yul\":2239:2246   */\n      dup7\n        /* \"#utility.yul\":2230:2236   */\n      dup3\n        /* \"#utility.yul\":2219:2228   */\n      dup8\n        /* \"#utility.yul\":2215:2237   */\n      add\n        /* \"#utility.yul\":2194:2247   */\n      tag_86\n      jump\t// in\n    tag_127:\n        /* \"#utility.yul\":2184:2247   */\n      swap4\n      pop\n        /* \"#utility.yul\":2140:2257   */\n      pop\n        /* \"#utility.yul\":2296:2298   */\n      0x20\n        /* \"#utility.yul\":2322:2375   */\n      tag_128\n        /* \"#utility.yul\":2367:2374   */\n      dup7\n        /* \"#utility.yul\":2358:2364   */\n      dup3\n        /* \"#utility.yul\":2347:2356   */\n      dup8\n        /* \"#utility.yul\":2343:2365   */\n      add\n        /* \"#utility.yul\":2322:2375   */\n      tag_88\n      jump\t// in\n    tag_128:\n        /* \"#utility.yul\":2312:2375   */\n      swap3\n      pop\n        /* \"#utility.yul\":2267:2385   */\n      pop\n        /* \"#utility.yul\":2424:2426   */\n      0x40\n        /* \"#utility.yul\":2450:2503   */\n      tag_129\n        /* \"#utility.yul\":2495:2502   */\n      dup7\n        /* \"#utility.yul\":2486:2492   */\n      dup3\n        /* \"#utility.yul\":2475:2484   */\n      dup8\n        /* \"#utility.yul\":2471:2493   */\n      add\n        /* \"#utility.yul\":2450:2503   */\n      tag_88\n      jump\t// in\n    tag_129:\n        /* \"#utility.yul\":2440:2503   */\n      swap2\n      pop\n        /* \"#utility.yul\":2395:2513   */\n      pop\n        /* \"#utility.yul\":1901:2520   */\n      swap3\n      pop\n      swap3\n      pop\n      swap3\n      jump\t// out\n        /* \"#utility.yul\":2526:2706   */\n    tag_89:\n        /* \"#utility.yul\":2574:2651   */\n      0x4e487b7100000000000000000000000000000000000000000000000000000000\n        /* \"#utility.yul\":2571:2572   */\n      0x00\n        /* \"#utility.yul\":2564:2652   */\n      mstore\n        /* \"#utility.yul\":2671:2675   */\n      0x11\n        /* \"#utility.yul\":2668:2669   */\n      0x04\n        /* \"#utility.yul\":2661:2676   */\n      mstore\n        /* \"#utility.yul\":2695:2699   */\n      0x24\n        /* \"#utility.yul\":2692:2693   */\n      0x00\n        /* \"#utility.yul\":2685:2700   */\n      revert\n        /* \"#utility.yul\":2712:2903   */\n    tag_35:\n        /* \"#utility.yul\":2752:2755   */\n      0x00\n        /* \"#utility.yul\":2771:2791   */\n      tag_132\n        /* \"#utility.yul\":2789:2790   */\n      dup3\n        /* \"#utility.yul\":2771:2791   */\n      tag_80\n      jump\t// in\n    tag_132:\n        /* \"#utility.yul\":2766:2791   */\n      swap2\n      pop\n        /* \"#utility.yul\":2805:2825   */\n      tag_133\n        /* \"#utility.yul\":2823:2824   */\n      dup4\n        /* \"#utility.yul\":2805:2825   */\n      tag_80\n      jump\t// in\n    tag_133:\n        /* \"#utility.yul\":2800:2825   */\n      swap3\n      pop\n        /* \"#utility.yul\":2848:2849   */\n      dup3\n        /* \"#utility.yul\":2845:2846   */\n      dup3\n        /* \"#utility.yul\":2841:2850   */\n      add\n        /* \"#utility.yul\":2834:2850   */\n      swap1\n      pop\n        /* \"#utility.yul\":2869:2872   */\n      dup1\n        /* \"#utility.yul\":2866:2867   */\n      dup3\n        /* \"#utility.yul\":2863:2873   */\n      gt\n        /* \"#utility.yul\":2860:2896   */\n      iszero\n      tag_134\n      jumpi\n        /* \"#utility.yul\":2876:2894   */\n      tag_135\n      tag_89\n      jump\t// in\n    tag_135:\n        /* \"#utility.yul\":2860:2896   */\n    tag_134:\n        /* \"#utility.yul\":2712:2903   */\n      swap3\n      swap2\n      pop\n      pop\n      jump\t// out\n        /* \"#utility.yul\":2909:3351   */\n    tag_38:\n        /* \"#utility.yul\":3058:3062   */\n      0x00\n        /* \"#utility.yul\":3096:3098   */\n      0x60\n        /* \"#utility.yul\":3085:3094   */\n      dup3\n        /* \"#utility.yul\":3081:3099   */\n      add\n        /* \"#utility.yul\":3073:3099   */\n      swap1\n      pop\n        /* \"#utility.yul\":3109:3180   */\n      tag_137\n        /* \"#utility.yul\":3177:3178   */\n      0x00\n        /* \"#utility.yul\":3166:3175   */\n      dup4\n        /* \"#utility.yul\":3162:3179   */\n      add\n        /* \"#utility.yul\":3153:3159   */\n      dup7\n        /* \"#utility.yul\":3109:3180   */\n      tag_79\n      jump\t// in\n    tag_137:\n        /* \"#utility.yul\":3190:3262   */\n      tag_138\n        /* \"#utility.yul\":3258:3260   */\n      0x20\n        /* \"#utility.yul\":3247:3256   */\n      dup4\n        /* \"#utility.yul\":3243:3261   */\n      add\n        /* \"#utility.yul\":3234:3240   */\n      dup6\n        /* \"#utility.yul\":3190:3262   */\n      tag_79\n      jump\t// in\n    tag_138:\n        /* \"#utility.yul\":3272:3344   */\n      tag_139\n        /* \"#utility.yul\":3340:3342   */\n      0x40\n        /* \"#utility.yul\":3329:3338   */\n      dup4\n        /* \"#utility.yul\":3325:3343   */\n      add\n        /* \"#utility.yul\":3316:3322   */\n      dup5\n        /* \"#utility.yul\":3272:3344   */\n      tag_81\n      jump\t// in\n    tag_139:\n        /* \"#utility.yul\":2909:3351   */\n      swap5\n      swap4\n      pop\n      pop\n      pop\n      pop\n      jump\t// out\n        /* \"#utility.yul\":3357:3447   */\n    tag_90:\n        /* \"#utility.yul\":3391:3398   */\n      0x00\n        /* \"#utility.yul\":3434:3439   */\n      dup2\n        /* \"#utility.yul\":3427:3440   */\n      iszero\n        /* \"#utility.yul\":3420:3441   */\n      iszero\n        /* \"#utility.yul\":3409:3441   */\n      swap1\n      pop\n        /* \"#utility.yul\":3357:3447   */\n      swap2\n      swap1\n      pop\n      jump\t// out\n        /* \"#utility.yul\":3453:3569   */\n    tag_91:\n        /* \"#utility.yul\":3523:3544   */\n      tag_142\n        /* \"#utility.yul\":3538:3543   */\n      dup2\n        /* \"#utility.yul\":3523:3544   */\n      tag_90\n      jump\t// in\n    tag_142:\n        /* \"#utility.yul\":3516:3521   */\n      dup2\n        /* \"#utility.yul\":3513:3545   */\n      eq\n        /* \"#utility.yul\":3503:3563   */\n      tag_143\n      jumpi\n        /* \"#utility.yul\":3559:3560   */\n      0x00\n        /* \"#utility.yul\":3556:3557   */\n      dup1\n        /* \"#utility.yul\":3549:3561   */\n      revert\n        /* \"#utility.yul\":3503:3563   */\n    tag_143:\n        /* \"#utility.yul\":3453:3569   */\n      pop\n      jump\t// out\n        /* \"#utility.yul\":3575:3712   */\n    tag_92:\n        /* \"#utility.yul\":3629:3634   */\n      0x00\n        /* \"#utility.yul\":3660:3666   */\n      dup2\n        /* \"#utility.yul\":3654:3667   */\n      mload\n        /* \"#utility.yul\":3645:3667   */\n      swap1\n      pop\n        /* \"#utility.yul\":3676:3706   */\n      tag_145\n        /* \"#utility.yul\":3700:3705   */\n      dup2\n        /* \"#utility.yul\":3676:3706   */\n      tag_91\n      jump\t// in\n    tag_145:\n        /* \"#utility.yul\":3575:3712   */\n      swap3\n      swap2\n      pop\n      pop\n      jump\t// out\n        /* \"#utility.yul\":3718:4063   */\n    tag_42:\n        /* \"#utility.yul\":3785:3791   */\n      0x00\n        /* \"#utility.yul\":3834:3836   */\n      0x20\n        /* \"#utility.yul\":3822:3831   */\n      dup3\n        /* \"#utility.yul\":3813:3820   */\n      dup5\n        /* \"#utility.yul\":3809:3832   */\n      sub\n        /* \"#utility.yul\":3805:3837   */\n      slt\n        /* \"#utility.yul\":3802:3921   */\n      iszero\n      tag_147\n      jumpi\n        /* \"#utility.yul\":3840:3919   */\n      tag_148\n      tag_83\n      jump\t// in\n    tag_148:\n        /* \"#utility.yul\":3802:3921   */\n    tag_147:\n        /* \"#utility.yul\":3960:3961   */\n      0x00\n        /* \"#utility.yul\":3985:4046   */\n      tag_149\n        /* \"#utility.yul\":4038:4045   */\n      dup5\n        /* \"#utility.yul\":4029:4035   */\n      dup3\n        /* \"#utility.yul\":4018:4027   */\n      dup6\n        /* \"#utility.yul\":4014:4036   */\n      add\n        /* \"#utility.yul\":3985:4046   */\n      tag_92\n      jump\t// in\n    tag_149:\n        /* \"#utility.yul\":3975:4046   */\n      swap2\n      pop\n        /* \"#utility.yul\":3931:4056   */\n      pop\n        /* \"#utility.yul\":3718:4063   */\n      swap3\n      swap2\n      pop\n      pop\n      jump\t// out\n        /* \"#utility.yul\":4069:4401   */\n    tag_48:\n        /* \"#utility.yul\":4190:4194   */\n      0x00\n        /* \"#utility.yul\":4228:4230   */\n      0x40\n        /* \"#utility.yul\":4217:4226   */\n      dup3\n        /* \"#utility.yul\":4213:4231   */\n      add\n        /* \"#utility.yul\":4205:4231   */\n      swap1\n      pop\n        /* \"#utility.yul\":4241:4312   */\n      tag_151\n        /* \"#utility.yul\":4309:4310   */\n      0x00\n        /* \"#utility.yul\":4298:4307   */\n      dup4\n        /* \"#utility.yul\":4294:4311   */\n      add\n        /* \"#utility.yul\":4285:4291   */\n      dup6\n        /* \"#utility.yul\":4241:4312   */\n      tag_81\n      jump\t// in\n    tag_151:\n        /* \"#utility.yul\":4322:4394   */\n      tag_152\n        /* \"#utility.yul\":4390:4392   */\n      0x20\n        /* \"#utility.yul\":4379:4388   */\n      dup4\n        /* \"#utility.yul\":4375:4393   */\n      add\n        /* \"#utility.yul\":4366:4372   */\n      dup5\n        /* \"#utility.yul\":4322:4394   */\n      tag_81\n      jump\t// in\n    tag_152:\n        /* \"#utility.yul\":4069:4401   */\n      swap4\n      swap3\n      pop\n      pop\n      pop\n      jump\t// out\n        /* \"#utility.yul\":4407:4576   */\n    tag_93:\n        /* \"#utility.yul\":4491:4502   */\n      0x00\n        /* \"#utility.yul\":4525:4531   */\n      dup3\n        /* \"#utility.yul\":4520:4523   */\n      dup3\n        /* \"#utility.yul\":4513:4532   */\n      mstore\n        /* \"#utility.yul\":4565:4569   */\n      0x20\n        /* \"#utility.yul\":4560:4563   */\n      dup3\n        /* \"#utility.yul\":4556:4570   */\n      add\n        /* \"#utility.yul\":4541:4570   */\n      swap1\n      pop\n        /* \"#utility.yul\":4407:4576   */\n      swap3\n      swap2\n      pop\n      pop\n      jump\t// out\n        /* \"#utility.yul\":4582:4760   */\n    tag_94:\n        /* \"#utility.yul\":4722:4752   */\n      0x506169723a20494e53554646494349454e545f4c495155494449545900000000\n        /* \"#utility.yul\":4718:4719   */\n      0x00\n        /* \"#utility.yul\":4710:4716   */\n      dup3\n        /* \"#utility.yul\":4706:4720   */\n      add\n        /* \"#utility.yul\":4699:4753   */\n      mstore\n        /* \"#utility.yul\":4582:4760   */\n      pop\n      jump\t// out\n        /* \"#utility.yul\":4766:5132   */\n    tag_95:\n        /* \"#utility.yul\":4908:4911   */\n      0x00\n        /* \"#utility.yul\":4929:4996   */\n      tag_156\n        /* \"#utility.yul\":4993:4995   */\n      0x1c\n        /* \"#utility.yul\":4988:4991   */\n      dup4\n        /* \"#utility.yul\":4929:4996   */\n      tag_93\n      jump\t// in\n    tag_156:\n        /* \"#utility.yul\":4922:4996   */\n      swap2\n      pop\n        /* \"#utility.yul\":5005:5098   */\n      tag_157\n        /* \"#utility.yul\":5094:5097   */\n      dup3\n        /* \"#utility.yul\":5005:5098   */\n      tag_94\n      jump\t// in\n    tag_157:\n        /* \"#utility.yul\":5123:5125   */\n      0x20\n        /* \"#utility.yul\":5118:5121   */\n      dup3\n        /* \"#utility.yul\":5114:5126   */\n      add\n        /* \"#utility.yul\":5107:5126   */\n      swap1\n      pop\n        /* \"#utility.yul\":4766:5132   */\n      swap2\n      swap1\n      pop\n      jump\t// out\n        /* \"#utility.yul\":5138:5557   */\n    tag_57:\n        /* \"#utility.yul\":5304:5308   */\n      0x00\n        /* \"#utility.yul\":5342:5344   */\n      0x20\n        /* \"#utility.yul\":5331:5340   */\n      dup3\n        /* \"#utility.yul\":5327:5345   */\n      add\n        /* \"#utility.yul\":5319:5345   */\n      swap1\n      pop\n        /* \"#utility.yul\":5391:5400   */\n      dup2\n        /* \"#utility.yul\":5385:5389   */\n      dup2\n        /* \"#utility.yul\":5381:5401   */\n      sub\n        /* \"#utility.yul\":5377:5378   */\n      0x00\n        /* \"#utility.yul\":5366:5375   */\n      dup4\n        /* \"#utility.yul\":5362:5379   */\n      add\n        /* \"#utility.yul\":5355:5402   */\n      mstore\n        /* \"#utility.yul\":5419:5550   */\n      tag_159\n        /* \"#utility.yul\":5545:5549   */\n      dup2\n        /* \"#utility.yul\":5419:5550   */\n      tag_95\n      jump\t// in\n    tag_159:\n        /* \"#utility.yul\":5411:5550   */\n      swap1\n      pop\n        /* \"#utility.yul\":5138:5557   */\n      swap2\n      swap1\n      pop\n      jump\t// out\n        /* \"#utility.yul\":5563:5757   */\n    tag_59:\n        /* \"#utility.yul\":5603:5607   */\n      0x00\n        /* \"#utility.yul\":5623:5643   */\n      tag_161\n        /* \"#utility.yul\":5641:5642   */\n      dup3\n        /* \"#utility.yul\":5623:5643   */\n      tag_80\n      jump\t// in\n    tag_161:\n        /* \"#utility.yul\":5618:5643   */\n      swap2\n      pop\n        /* \"#utility.yul\":5657:5677   */\n      tag_162\n        /* \"#utility.yul\":5675:5676   */\n      dup4\n        /* \"#utility.yul\":5657:5677   */\n      tag_80\n      jump\t// in\n    tag_162:\n        /* \"#utility.yul\":5652:5677   */\n      swap3\n      pop\n        /* \"#utility.yul\":5701:5702   */\n      dup3\n        /* \"#utility.yul\":5698:5699   */\n      dup3\n        /* \"#utility.yul\":5694:5703   */\n      sub\n        /* \"#utility.yul\":5686:5703   */\n      swap1\n      pop\n        /* \"#utility.yul\":5725:5726   */\n      dup2\n        /* \"#utility.yul\":5719:5723   */\n      dup2\n        /* \"#utility.yul\":5716:5727   */\n      gt\n        /* \"#utility.yul\":5713:5750   */\n      iszero\n      tag_163\n      jumpi\n        /* \"#utility.yul\":5730:5748   */\n      tag_164\n      tag_89\n      jump\t// in\n    tag_164:\n        /* \"#utility.yul\":5713:5750   */\n    tag_163:\n        /* \"#utility.yul\":5563:5757   */\n      swap3\n      swap2\n      pop\n      pop\n      jump\t// out\n        /* \"#utility.yul\":5763:6095   */\n    tag_62:\n        /* \"#utility.yul\":5884:5888   */\n      0x00\n        /* \"#utility.yul\":5922:5924   */\n      0x40\n        /* \"#utility.yul\":5911:5920   */\n      dup3\n        /* \"#utility.yul\":5907:5925   */\n      add\n        /* \"#utility.yul\":5899:5925   */\n      swap1\n      pop\n        /* \"#utility.yul\":5935:6006   */\n      tag_166\n        /* \"#utility.yul\":6003:6004   */\n      0x00\n        /* \"#utility.yul\":5992:6001   */\n      dup4\n        /* \"#utility.yul\":5988:6005   */\n      add\n        /* \"#utility.yul\":5979:5985   */\n      dup6\n        /* \"#utility.yul\":5935:6006   */\n      tag_79\n      jump\t// in\n    tag_166:\n        /* \"#utility.yul\":6016:6088   */\n      tag_167\n        /* \"#utility.yul\":6084:6086   */\n      0x20\n        /* \"#utility.yul\":6073:6082   */\n      dup4\n        /* \"#utility.yul\":6069:6087   */\n      add\n        /* \"#utility.yul\":6060:6066   */\n      dup5\n        /* \"#utility.yul\":6016:6088   */\n      tag_81\n      jump\t// in\n    tag_167:\n        /* \"#utility.yul\":5763:6095   */\n      swap4\n      swap3\n      pop\n      pop\n      pop\n      jump\t// out\n        /* \"#utility.yul\":6101:6282   */\n    tag_96:\n        /* \"#utility.yul\":6241:6274   */\n      0x5265656e7472616e637947756172643a207265656e7472616e742063616c6c00\n        /* \"#utility.yul\":6237:6238   */\n      0x00\n        /* \"#utility.yul\":6229:6235   */\n      dup3\n        /* \"#utility.yul\":6225:6239   */\n      add\n        /* \"#utility.yul\":6218:6275   */\n      mstore\n        /* \"#utility.yul\":6101:6282   */\n      pop\n      jump\t// out\n        /* \"#utility.yul\":6288:6654   */\n    tag_97:\n        /* \"#utility.yul\":6430:6433   */\n      0x00\n        /* \"#utility.yul\":6451:6518   */\n      tag_170\n        /* \"#utility.yul\":6515:6517   */\n      0x1f\n        /* \"#utility.yul\":6510:6513   */\n      dup4\n        /* \"#utility.yul\":6451:6518   */\n      tag_93\n      jump\t// in\n    tag_170:\n        /* \"#utility.yul\":6444:6518   */\n      swap2\n      pop\n        /* \"#utility.yul\":6527:6620   */\n      tag_171\n        /* \"#utility.yul\":6616:6619   */\n      dup3\n        /* \"#utility.yul\":6527:6620   */\n      tag_96\n      jump\t// in\n    tag_171:\n        /* \"#utility.yul\":6645:6647   */\n      0x20\n        /* \"#utility.yul\":6640:6643   */\n      dup3\n        /* \"#utility.yul\":6636:6648   */\n      add\n        /* \"#utility.yul\":6629:6648   */\n      swap1\n      pop\n        /* \"#utility.yul\":6288:6654   */\n      swap2\n      swap1\n      pop\n      jump\t// out\n        /* \"#utility.yul\":6660:7079   */\n    tag_75:\n        /* \"#utility.yul\":6826:6830   */\n      0x00\n        /* \"#utility.yul\":6864:6866   */\n      0x20\n        /* \"#utility.yul\":6853:6862   */\n      dup3\n        /* \"#utility.yul\":6849:6867   */\n      add\n        /* \"#utility.yul\":6841:6867   */\n      swap1\n      pop\n        /* \"#utility.yul\":6913:6922   */\n      dup2\n        /* \"#utility.yul\":6907:6911   */\n      dup2\n        /* \"#utility.yul\":6903:6923   */\n      sub\n        /* \"#utility.yul\":6899:6900   */\n      0x00\n        /* \"#utility.yul\":6888:6897   */\n      dup4\n        /* \"#utility.yul\":6884:6901   */\n      add\n        /* \"#utility.yul\":6877:6924   */\n      mstore\n        /* \"#utility.yul\":6941:7072   */\n      tag_173\n        /* \"#utility.yul\":7067:7071   */\n      dup2\n        /* \"#utility.yul\":6941:7072   */\n      tag_97\n      jump\t// in\n    tag_173:\n        /* \"#utility.yul\":6933:7072   */\n      swap1\n      pop\n        /* \"#utility.yul\":6660:7079   */\n      swap2\n      swap1\n      pop\n      jump\t// out\n\n    auxdata: 0xa26469706673582212206e7e2b008f17e8f62b0cd5f6e47821c97d853074a9d210c43b14daa62c27c02964736f6c634300081a0033\n}\n",
				"bytecode": {
					"linkReferences": {},
					"object": "608060405234801561000f575f80fd5b50604051610ada380380610ada8339818101604052810190610031919061011d565b60015f819055508160015f6101000a81548173ffffffffffffffffffffffffffffffffffffffff021916908373ffffffffffffffffffffffffffffffffffffffff1602179055508060025f6101000a81548173ffffffffffffffffffffffffffffffffffffffff021916908373ffffffffffffffffffffffffffffffffffffffff160217905550505061015b565b5f80fd5b5f73ffffffffffffffffffffffffffffffffffffffff82169050919050565b5f6100ec826100c3565b9050919050565b6100fc816100e2565b8114610106575f80fd5b50565b5f81519050610117816100f3565b92915050565b5f8060408385031215610133576101326100bf565b5b5f61014085828601610109565b925050602061015185828601610109565b9150509250929050565b610972806101685f395ff3fe608060405234801561000f575f80fd5b5060043610610060575f3560e01c80630dfe168114610064578063443cb4bc1461008257806355776b77146100a05780635a76f25e146100bc578063d21220a7146100da578063e38192e3146100f8575b5f80fd5b61006c610114565b60405161007991906105f4565b60405180910390f35b61008a610139565b6040516100979190610625565b60405180910390f35b6100ba60048036038101906100b59190610696565b61013f565b005b6100c4610312565b6040516100d19190610625565b60405180910390f35b6100e2610318565b6040516100ef91906105f4565b60405180910390f35b610112600480360381019061010d9190610696565b61033d565b005b60015f9054906101000a900473ffffffffffffffffffffffffffffffffffffffff1681565b60035481565b61014761055f565b8160035f8282546101589190610713565b925050819055508060045f8282546101709190610713565b9250508190555060015f9054906101000a900473ffffffffffffffffffffffffffffffffffffffff1673ffffffffffffffffffffffffffffffffffffffff166323b872dd8430856040518463ffffffff1660e01b81526004016101d593929190610746565b6020604051808303815f875af11580156101f1573d5f803e3d5ffd5b505050506040513d601f19601f8201168201806040525081019061021591906107b0565b5060025f9054906101000a900473ffffffffffffffffffffffffffffffffffffffff1673ffffffffffffffffffffffffffffffffffffffff166323b872dd8430846040518463ffffffff1660e01b815260040161027493929190610746565b6020604051808303815f875af1158015610290573d5f803e3d5ffd5b505050506040513d601f19601f820116820180604052508101906102b491906107b0565b508273ffffffffffffffffffffffffffffffffffffffff167f4c209b5fc8ad50758f13e2e1088ba56a560dff690a1c6fef26394f4c03821c4f83836040516102fd9291906107db565b60405180910390a261030d6105ac565b505050565b60045481565b60025f9054906101000a900473ffffffffffffffffffffffffffffffffffffffff1681565b61034561055f565b816003541015801561035957508060045410155b610398576040517f08c379a000000000000000000000000000000000000000000000000000000000815260040161038f9061085c565b60405180910390fd5b8160035f8282546103a9919061087a565b925050819055508060045f8282546103c1919061087a565b9250508190555060015f9054906101000a900473ffffffffffffffffffffffffffffffffffffffff1673ffffffffffffffffffffffffffffffffffffffff1663a9059cbb84846040518363ffffffff1660e01b81526004016104249291906108ad565b6020604051808303815f875af1158015610440573d5f803e3d5ffd5b505050506040513d601f19601f8201168201806040525081019061046491906107b0565b5060025f9054906101000a900473ffffffffffffffffffffffffffffffffffffffff1673ffffffffffffffffffffffffffffffffffffffff1663a9059cbb84836040518363ffffffff1660e01b81526004016104c19291906108ad565b6020604051808303815f875af11580156104dd573d5f803e3d5ffd5b505050506040513d601f19601f8201168201806040525081019061050191906107b0565b508273ffffffffffffffffffffffffffffffffffffffff167f49995e5dd6158cf69ad3e9777c46755a1a826a446c6416992167462dad033b2a838360405161054a9291906107db565b60405180910390a261055a6105ac565b505050565b60025f54036105a3576040517f08c379a000000000000000000000000000000000000000000000000000000000815260040161059a9061091e565b60405180910390fd5b60025f81905550565b60015f81905550565b5f73ffffffffffffffffffffffffffffffffffffffff82169050919050565b5f6105de826105b5565b9050919050565b6105ee816105d4565b82525050565b5f6020820190506106075f8301846105e5565b92915050565b5f819050919050565b61061f8161060d565b82525050565b5f6020820190506106385f830184610616565b92915050565b5f80fd5b61064b816105d4565b8114610655575f80fd5b50565b5f8135905061066681610642565b92915050565b6106758161060d565b811461067f575f80fd5b50565b5f813590506106908161066c565b92915050565b5f805f606084860312156106ad576106ac61063e565b5b5f6106ba86828701610658565b93505060206106cb86828701610682565b92505060406106dc86828701610682565b9150509250925092565b7f4e487b71000000000000000000000000000000000000000000000000000000005f52601160045260245ffd5b5f61071d8261060d565b91506107288361060d565b92508282019050808211156107405761073f6106e6565b5b92915050565b5f6060820190506107595f8301866105e5565b61076660208301856105e5565b6107736040830184610616565b949350505050565b5f8115159050919050565b61078f8161077b565b8114610799575f80fd5b50565b5f815190506107aa81610786565b92915050565b5f602082840312156107c5576107c461063e565b5b5f6107d28482850161079c565b91505092915050565b5f6040820190506107ee5f830185610616565b6107fb6020830184610616565b9392505050565b5f82825260208201905092915050565b7f506169723a20494e53554646494349454e545f4c4951554944495459000000005f82015250565b5f610846601c83610802565b915061085182610812565b602082019050919050565b5f6020820190508181035f8301526108738161083a565b9050919050565b5f6108848261060d565b915061088f8361060d565b92508282039050818111156108a7576108a66106e6565b5b92915050565b5f6040820190506108c05f8301856105e5565b6108cd6020830184610616565b9392505050565b7f5265656e7472616e637947756172643a207265656e7472616e742063616c6c005f82015250565b5f610908601f83610802565b9150610913826108d4565b602082019050919050565b5f6020820190508181035f830152610935816108fc565b905091905056fea26469706673582212206e7e2b008f17e8f62b0cd5f6e47821c97d853074a9d210c43b14daa62c27c02964736f6c634300081a0033",
					"opcodes": "PUSH1 0x80 PUSH1 0x40 MSTORE CALLVALUE DUP1 ISZERO PUSH2 0xF JUMPI PUSH0 DUP1 REVERT JUMPDEST POP PUSH1 0x40 MLOAD PUSH2 0xADA CODESIZE SUB DUP1 PUSH2 0xADA DUP4 CODECOPY DUP2 DUP2 ADD PUSH1 0x40 MSTORE DUP2 ADD SWAP1 PUSH2 0x31 SWAP2 SWAP1 PUSH2 0x11D JUMP JUMPDEST PUSH1 0x1 PUSH0 DUP2 SWAP1 SSTORE POP DUP2 PUSH1 0x1 PUSH0 PUSH2 0x100 EXP DUP2 SLOAD DUP2 PUSH20 0xFFFFFFFFFFFFFFFFFFFFFFFFFFFFFFFFFFFFFFFF MUL NOT AND SWAP1 DUP4 PUSH20 0xFFFFFFFFFFFFFFFFFFFFFFFFFFFFFFFFFFFFFFFF AND MUL OR SWAP1 SSTORE POP DUP1 PUSH1 0x2 PUSH0 PUSH2 0x100 EXP DUP2 SLOAD DUP2 PUSH20 0xFFFFFFFFFFFFFFFFFFFFFFFFFFFFFFFFFFFFFFFF MUL NOT AND SWAP1 DUP4 PUSH20 0xFFFFFFFFFFFFFFFFFFFFFFFFFFFFFFFFFFFFFFFF AND MUL OR SWAP1 SSTORE POP POP POP PUSH2 0x15B JUMP JUMPDEST PUSH0 DUP1 REVERT JUMPDEST PUSH0 PUSH20 0xFFFFFFFFFFFFFFFFFFFFFFFFFFFFFFFFFFFFFFFF DUP3 AND SWAP1 POP SWAP2 SWAP1 POP JUMP JUMPDEST PUSH0 PUSH2 0xEC DUP3 PUSH2 0xC3 JUMP JUMPDEST SWAP1 POP SWAP2 SWAP1 POP JUMP JUMPDEST PUSH2 0xFC DUP2 PUSH2 0xE2 JUMP JUMPDEST DUP2 EQ PUSH2 0x106 JUMPI PUSH0 DUP1 REVERT JUMPDEST POP JUMP JUMPDEST PUSH0 DUP2 MLOAD SWAP1 POP PUSH2 0x117 DUP2 PUSH2 0xF3 JUMP JUMPDEST SWAP3 SWAP2 POP POP JUMP JUMPDEST PUSH0 DUP1 PUSH1 0x40 DUP4 DUP6 SUB SLT ISZERO PUSH2 0x133 JUMPI PUSH2 0x132 PUSH2 0xBF JUMP JUMPDEST JUMPDEST PUSH0 PUSH2 0x140 DUP6 DUP3 DUP7 ADD PUSH2 0x109 JUMP JUMPDEST SWAP3 POP POP PUSH1 0x20 PUSH2 0x151 DUP6 DUP3 DUP7 ADD PUSH2 0x109 JUMP JUMPDEST SWAP2 POP POP SWAP3 POP SWAP3 SWAP1 POP JUMP JUMPDEST PUSH2 0x972 DUP1 PUSH2 0x168 PUSH0 CODECOPY PUSH0 RETURN INVALID PUSH1 0x80 PUSH1 0x40 MSTORE CALLVALUE DUP1 ISZERO PUSH2 0xF JUMPI PUSH0 DUP1 REVERT JUMPDEST POP PUSH1 0x4 CALLDATASIZE LT PUSH2 0x60 JUMPI PUSH0 CALLDATALOAD PUSH1 0xE0 SHR DUP1 PUSH4 0xDFE1681 EQ PUSH2 0x64 JUMPI DUP1 PUSH4 0x443CB4BC EQ PUSH2 0x82 JUMPI DUP1 PUSH4 0x55776B77 EQ PUSH2 0xA0 JUMPI DUP1 PUSH4 0x5A76F25E EQ PUSH2 0xBC JUMPI DUP1 PUSH4 0xD21220A7 EQ PUSH2 0xDA JUMPI DUP1 PUSH4 0xE38192E3 EQ PUSH2 0xF8 JUMPI JUMPDEST PUSH0 DUP1 REVERT JUMPDEST PUSH2 0x6C PUSH2 0x114 JUMP JUMPDEST PUSH1 0x40 MLOAD PUSH2 0x79 SWAP2 SWAP1 PUSH2 0x5F4 JUMP JUMPDEST PUSH1 0x40 MLOAD DUP1 SWAP2 SUB SWAP1 RETURN JUMPDEST PUSH2 0x8A PUSH2 0x139 JUMP JUMPDEST PUSH1 0x40 MLOAD PUSH2 0x97 SWAP2 SWAP1 PUSH2 0x625 JUMP JUMPDEST PUSH1 0x40 MLOAD DUP1 SWAP2 SUB SWAP1 RETURN JUMPDEST PUSH2 0xBA PUSH1 0x4 DUP1 CALLDATASIZE SUB DUP2 ADD SWAP1 PUSH2 0xB5 SWAP2 SWAP1 PUSH2 0x696 JUMP JUMPDEST PUSH2 0x13F JUMP JUMPDEST STOP JUMPDEST PUSH2 0xC4 PUSH2 0x312 JUMP JUMPDEST PUSH1 0x40 MLOAD PUSH2 0xD1 SWAP2 SWAP1 PUSH2 0x625 JUMP JUMPDEST PUSH1 0x40 MLOAD DUP1 SWAP2 SUB SWAP1 RETURN JUMPDEST PUSH2 0xE2 PUSH2 0x318 JUMP JUMPDEST PUSH1 0x40 MLOAD PUSH2 0xEF SWAP2 SWAP1 PUSH2 0x5F4 JUMP JUMPDEST PUSH1 0x40 MLOAD DUP1 SWAP2 SUB SWAP1 RETURN JUMPDEST PUSH2 0x112 PUSH1 0x4 DUP1 CALLDATASIZE SUB DUP2 ADD SWAP1 PUSH2 0x10D SWAP2 SWAP1 PUSH2 0x696 JUMP JUMPDEST PUSH2 0x33D JUMP JUMPDEST STOP JUMPDEST PUSH1 0x1 PUSH0 SWAP1 SLOAD SWAP1 PUSH2 0x100 EXP SWAP1 DIV PUSH20 0xFFFFFFFFFFFFFFFFFFFFFFFFFFFFFFFFFFFFFFFF AND DUP2 JUMP JUMPDEST PUSH1 0x3 SLOAD DUP2 JUMP JUMPDEST PUSH2 0x147 PUSH2 0x55F JUMP JUMPDEST DUP2 PUSH1 0x3 PUSH0 DUP3 DUP3 SLOAD PUSH2 0x158 SWAP2 SWAP1 PUSH2 0x713 JUMP JUMPDEST SWAP3 POP POP DUP2 SWAP1 SSTORE POP DUP1 PUSH1 0x4 PUSH0 DUP3 DUP3 SLOAD PUSH2 0x170 SWAP2 SWAP1 PUSH2 0x713 JUMP JUMPDEST SWAP3 POP POP DUP2 SWAP1 SSTORE POP PUSH1 0x1 PUSH0 SWAP1 SLOAD SWAP1 PUSH2 0x100 EXP SWAP1 DIV PUSH20 0xFFFFFFFFFFFFFFFFFFFFFFFFFFFFFFFFFFFFFFFF AND PUSH20 0xFFFFFFFFFFFFFFFFFFFFFFFFFFFFFFFFFFFFFFFF AND PUSH4 0x23B872DD DUP5 ADDRESS DUP6 PUSH1 0x40 MLOAD DUP5 PUSH4 0xFFFFFFFF AND PUSH1 0xE0 SHL DUP2 MSTORE PUSH1 0x4 ADD PUSH2 0x1D5 SWAP4 SWAP3 SWAP2 SWAP1 PUSH2 0x746 JUMP JUMPDEST PUSH1 0x20 PUSH1 0x40 MLOAD DUP1 DUP4 SUB DUP2 PUSH0 DUP8 GAS CALL ISZERO DUP1 ISZERO PUSH2 0x1F1 JUMPI RETURNDATASIZE PUSH0 DUP1 RETURNDATACOPY RETURNDATASIZE PUSH0 REVERT JUMPDEST POP POP POP POP PUSH1 0x40 MLOAD RETURNDATASIZE PUSH1 0x1F NOT PUSH1 0x1F DUP3 ADD AND DUP3 ADD DUP1 PUSH1 0x40 MSTORE POP DUP2 ADD SWAP1 PUSH2 0x215 SWAP2 SWAP1 PUSH2 0x7B0 JUMP JUMPDEST POP PUSH1 0x2 PUSH0 SWAP1 SLOAD SWAP1 PUSH2 0x100 EXP SWAP1 DIV PUSH20 0xFFFFFFFFFFFFFFFFFFFFFFFFFFFFFFFFFFFFFFFF AND PUSH20 0xFFFFFFFFFFFFFFFFFFFFFFFFFFFFFFFFFFFFFFFF AND PUSH4 0x23B872DD DUP5 ADDRESS DUP5 PUSH1 0x40 MLOAD DUP5 PUSH4 0xFFFFFFFF AND PUSH1 0xE0 SHL DUP2 MSTORE PUSH1 0x4 ADD PUSH2 0x274 SWAP4 SWAP3 SWAP2 SWAP1 PUSH2 0x746 JUMP JUMPDEST PUSH1 0x20 PUSH1 0x40 MLOAD DUP1 DUP4 SUB DUP2 PUSH0 DUP8 GAS CALL ISZERO DUP1 ISZERO PUSH2 0x290 JUMPI RETURNDATASIZE PUSH0 DUP1 RETURNDATACOPY RETURNDATASIZE PUSH0 REVERT JUMPDEST POP POP POP POP PUSH1 0x40 MLOAD RETURNDATASIZE PUSH1 0x1F NOT PUSH1 0x1F DUP3 ADD AND DUP3 ADD DUP1 PUSH1 0x40 MSTORE POP DUP2 ADD SWAP1 PUSH2 0x2B4 SWAP2 SWAP1 PUSH2 0x7B0 JUMP JUMPDEST POP DUP3 PUSH20 0xFFFFFFFFFFFFFFFFFFFFFFFFFFFFFFFFFFFFFFFF AND PUSH32 0x4C209B5FC8AD50758F13E2E1088BA56A560DFF690A1C6FEF26394F4C03821C4F DUP4 DUP4 PUSH1 0x40 MLOAD PUSH2 0x2FD SWAP3 SWAP2 SWAP1 PUSH2 0x7DB JUMP JUMPDEST PUSH1 0x40 MLOAD DUP1 SWAP2 SUB SWAP1 LOG2 PUSH2 0x30D PUSH2 0x5AC JUMP JUMPDEST POP POP POP JUMP JUMPDEST PUSH1 0x4 SLOAD DUP2 JUMP JUMPDEST PUSH1 0x2 PUSH0 SWAP1 SLOAD SWAP1 PUSH2 0x100 EXP SWAP1 DIV PUSH20 0xFFFFFFFFFFFFFFFFFFFFFFFFFFFFFFFFFFFFFFFF AND DUP2 JUMP JUMPDEST PUSH2 0x345 PUSH2 0x55F JUMP JUMPDEST DUP2 PUSH1 0x3 SLOAD LT ISZERO DUP1 ISZERO PUSH2 0x359 JUMPI POP DUP1 PUSH1 0x4 SLOAD LT ISZERO JUMPDEST PUSH2 0x398 JUMPI PUSH1 0x40 MLOAD PUSH32 0x8C379A000000000000000000000000000000000000000000000000000000000 DUP2 MSTORE PUSH1 0x4 ADD PUSH2 0x38F SWAP1 PUSH2 0x85C JUMP JUMPDEST PUSH1 0x40 MLOAD DUP1 SWAP2 SUB SWAP1 REVERT JUMPDEST DUP2 PUSH1 0x3 PUSH0 DUP3 DUP3 SLOAD PUSH2 0x3A9 SWAP2 SWAP1 PUSH2 0x87A JUMP JUMPDEST SWAP3 POP POP DUP2 SWAP1 SSTORE POP DUP1 PUSH1 0x4 PUSH0 DUP3 DUP3 SLOAD PUSH2 0x3C1 SWAP2 SWAP1 PUSH2 0x87A JUMP JUMPDEST SWAP3 POP POP DUP2 SWAP1 SSTORE POP PUSH1 0x1 PUSH0 SWAP1 SLOAD SWAP1 PUSH2 0x100 EXP SWAP1 DIV PUSH20 0xFFFFFFFFFFFFFFFFFFFFFFFFFFFFFFFFFFFFFFFF AND PUSH20 0xFFFFFFFFFFFFFFFFFFFFFFFFFFFFFFFFFFFFFFFF AND PUSH4 0xA9059CBB DUP5 DUP5 PUSH1 0x40 MLOAD DUP4 PUSH4 0xFFFFFFFF AND PUSH1 0xE0 SHL DUP2 MSTORE PUSH1 0x4 ADD PUSH2 0x424 SWAP3 SWAP2 SWAP1 PUSH2 0x8AD JUMP JUMPDEST PUSH1 0x20 PUSH1 0x40 MLOAD DUP1 DUP4 SUB DUP2 PUSH0 DUP8 GAS CALL ISZERO DUP1 ISZERO PUSH2 0x440 JUMPI RETURNDATASIZE PUSH0 DUP1 RETURNDATACOPY RETURNDATASIZE PUSH0 REVERT JUMPDEST POP POP POP POP PUSH1 0x40 MLOAD RETURNDATASIZE PUSH1 0x1F NOT PUSH1 0x1F DUP3 ADD AND DUP3 ADD DUP1 PUSH1 0x40 MSTORE POP DUP2 ADD SWAP1 PUSH2 0x464 SWAP2 SWAP1 PUSH2 0x7B0 JUMP JUMPDEST POP PUSH1 0x2 PUSH0 SWAP1 SLOAD SWAP1 PUSH2 0x100 EXP SWAP1 DIV PUSH20 0xFFFFFFFFFFFFFFFFFFFFFFFFFFFFFFFFFFFFFFFF AND PUSH20 0xFFFFFFFFFFFFFFFFFFFFFFFFFFFFFFFFFFFFFFFF AND PUSH4 0xA9059CBB DUP5 DUP4 PUSH1 0x40 MLOAD DUP4 PUSH4 0xFFFFFFFF AND PUSH1 0xE0 SHL DUP2 MSTORE PUSH1 0x4 ADD PUSH2 0x4C1 SWAP3 SWAP2 SWAP1 PUSH2 0x8AD JUMP JUMPDEST PUSH1 0x20 PUSH1 0x40 MLOAD DUP1 DUP4 SUB DUP2 PUSH0 DUP8 GAS CALL ISZERO DUP1 ISZERO PUSH2 0x4DD JUMPI RETURNDATASIZE PUSH0 DUP1 RETURNDATACOPY RETURNDATASIZE PUSH0 REVERT JUMPDEST POP POP POP POP PUSH1 0x40 MLOAD RETURNDATASIZE PUSH1 0x1F NOT PUSH1 0x1F DUP3 ADD AND DUP3 ADD DUP1 PUSH1 0x40 MSTORE POP DUP2 ADD SWAP1 PUSH2 0x501 SWAP2 SWAP1 PUSH2 0x7B0 JUMP JUMPDEST POP DUP3 PUSH20 0xFFFFFFFFFFFFFFFFFFFFFFFFFFFFFFFFFFFFFFFF AND PUSH32 0x49995E5DD6158CF69AD3E9777C46755A1A826A446C6416992167462DAD033B2A DUP4 DUP4 PUSH1 0x40 MLOAD PUSH2 0x54A SWAP3 SWAP2 SWAP1 PUSH2 0x7DB JUMP JUMPDEST PUSH1 0x40 MLOAD DUP1 SWAP2 SUB SWAP1 LOG2 PUSH2 0x55A PUSH2 0x5AC JUMP JUMPDEST POP POP POP JUMP JUMPDEST PUSH1 0x2 PUSH0 SLOAD SUB PUSH2 0x5A3 JUMPI PUSH1 0x40 MLOAD PUSH32 0x8C379A000000000000000000000000000000000000000000000000000000000 DUP2 MSTORE PUSH1 0x4 ADD PUSH2 0x59A SWAP1 PUSH2 0x91E JUMP JUMPDEST PUSH1 0x40 MLOAD DUP1 SWAP2 SUB SWAP1 REVERT JUMPDEST PUSH1 0x2 PUSH0 DUP2 SWAP1 SSTORE POP JUMP JUMPDEST PUSH1 0x1 PUSH0 DUP2 SWAP1 SSTORE POP JUMP JUMPDEST PUSH0 PUSH20 0xFFFFFFFFFFFFFFFFFFFFFFFFFFFFFFFFFFFFFFFF DUP3 AND SWAP1 POP SWAP2 SWAP1 POP JUMP JUMPDEST PUSH0 PUSH2 0x5DE DUP3 PUSH2 0x5B5 JUMP JUMPDEST SWAP1 POP SWAP2 SWAP1 POP JUMP JUMPDEST PUSH2 0x5EE DUP2 PUSH2 0x5D4 JUMP JUMPDEST DUP3 MSTORE POP POP JUMP JUMPDEST PUSH0 PUSH1 0x20 DUP3 ADD SWAP1 POP PUSH2 0x607 PUSH0 DUP4 ADD DUP5 PUSH2 0x5E5 JUMP JUMPDEST SWAP3 SWAP2 POP POP JUMP JUMPDEST PUSH0 DUP2 SWAP1 POP SWAP2 SWAP1 POP JUMP JUMPDEST PUSH2 0x61F DUP2 PUSH2 0x60D JUMP JUMPDEST DUP3 MSTORE POP POP JUMP JUMPDEST PUSH0 PUSH1 0x20 DUP3 ADD SWAP1 POP PUSH2 0x638 PUSH0 DUP4 ADD DUP5 PUSH2 0x616 JUMP JUMPDEST SWAP3 SWAP2 POP POP JUMP JUMPDEST PUSH0 DUP1 REVERT JUMPDEST PUSH2 0x64B DUP2 PUSH2 0x5D4 JUMP JUMPDEST DUP2 EQ PUSH2 0x655 JUMPI PUSH0 DUP1 REVERT JUMPDEST POP JUMP JUMPDEST PUSH0 DUP2 CALLDATALOAD SWAP1 POP PUSH2 0x666 DUP2 PUSH2 0x642 JUMP JUMPDEST SWAP3 SWAP2 POP POP JUMP JUMPDEST PUSH2 0x675 DUP2 PUSH2 0x60D JUMP JUMPDEST DUP2 EQ PUSH2 0x67F JUMPI PUSH0 DUP1 REVERT JUMPDEST POP JUMP JUMPDEST PUSH0 DUP2 CALLDATALOAD SWAP1 POP PUSH2 0x690 DUP2 PUSH2 0x66C JUMP JUMPDEST SWAP3 SWAP2 POP POP JUMP JUMPDEST PUSH0 DUP1 PUSH0 PUSH1 0x60 DUP5 DUP7 SUB SLT ISZERO PUSH2 0x6AD JUMPI PUSH2 0x6AC PUSH2 0x63E JUMP JUMPDEST JUMPDEST PUSH0 PUSH2 0x6BA DUP7 DUP3 DUP8 ADD PUSH2 0x658 JUMP JUMPDEST SWAP4 POP POP PUSH1 0x20 PUSH2 0x6CB DUP7 DUP3 DUP8 ADD PUSH2 0x682 JUMP JUMPDEST SWAP3 POP POP PUSH1 0x40 PUSH2 0x6DC DUP7 DUP3 DUP8 ADD PUSH2 0x682 JUMP JUMPDEST SWAP2 POP POP SWAP3 POP SWAP3 POP SWAP3 JUMP JUMPDEST PUSH32 0x4E487B7100000000000000000000000000000000000000000000000000000000 PUSH0 MSTORE PUSH1 0x11 PUSH1 0x4 MSTORE PUSH1 0x24 PUSH0 REVERT JUMPDEST PUSH0 PUSH2 0x71D DUP3 PUSH2 0x60D JUMP JUMPDEST SWAP2 POP PUSH2 0x728 DUP4 PUSH2 0x60D JUMP JUMPDEST SWAP3 POP DUP3 DUP3 ADD SWAP1 POP DUP1 DUP3 GT ISZERO PUSH2 0x740 JUMPI PUSH2 0x73F PUSH2 0x6E6 JUMP JUMPDEST JUMPDEST SWAP3 SWAP2 POP POP JUMP JUMPDEST PUSH0 PUSH1 0x60 DUP3 ADD SWAP1 POP PUSH2 0x759 PUSH0 DUP4 ADD DUP7 PUSH2 0x5E5 JUMP JUMPDEST PUSH2 0x766 PUSH1 0x20 DUP4 ADD DUP6 PUSH2 0x5E5 JUMP JUMPDEST PUSH2 0x773 PUSH1 0x40 DUP4 ADD DUP5 PUSH2 0x616 JUMP JUMPDEST SWAP5 SWAP4 POP POP POP POP JUMP JUMPDEST PUSH0 DUP2 ISZERO ISZERO SWAP1 POP SWAP2 SWAP1 POP JUMP JUMPDEST PUSH2 0x78F DUP2 PUSH2 0x77B JUMP JUMPDEST DUP2 EQ PUSH2 0x799 JUMPI PUSH0 DUP1 REVERT JUMPDEST POP JUMP JUMPDEST PUSH0 DUP2 MLOAD SWAP1 POP PUSH2 0x7AA DUP2 PUSH2 0x786 JUMP JUMPDEST SWAP3 SWAP2 POP POP JUMP JUMPDEST PUSH0 PUSH1 0x20 DUP3 DUP5 SUB SLT ISZERO PUSH2 0x7C5 JUMPI PUSH2 0x7C4 PUSH2 0x63E JUMP JUMPDEST JUMPDEST PUSH0 PUSH2 0x7D2 DUP5 DUP3 DUP6 ADD PUSH2 0x79C JUMP JUMPDEST SWAP2 POP POP SWAP3 SWAP2 POP POP JUMP JUMPDEST PUSH0 PUSH1 0x40 DUP3 ADD SWAP1 POP PUSH2 0x7EE PUSH0 DUP4 ADD DUP6 PUSH2 0x616 JUMP JUMPDEST PUSH2 0x7FB PUSH1 0x20 DUP4 ADD DUP5 PUSH2 0x616 JUMP JUMPDEST SWAP4 SWAP3 POP POP POP JUMP JUMPDEST PUSH0 DUP3 DUP3 MSTORE PUSH1 0x20 DUP3 ADD SWAP1 POP SWAP3 SWAP2 POP POP JUMP JUMPDEST PUSH32 0x506169723A20494E53554646494349454E545F4C495155494449545900000000 PUSH0 DUP3 ADD MSTORE POP JUMP JUMPDEST PUSH0 PUSH2 0x846 PUSH1 0x1C DUP4 PUSH2 0x802 JUMP JUMPDEST SWAP2 POP PUSH2 0x851 DUP3 PUSH2 0x812 JUMP JUMPDEST PUSH1 0x20 DUP3 ADD SWAP1 POP SWAP2 SWAP1 POP JUMP JUMPDEST PUSH0 PUSH1 0x20 DUP3 ADD SWAP1 POP DUP2 DUP2 SUB PUSH0 DUP4 ADD MSTORE PUSH2 0x873 DUP2 PUSH2 0x83A JUMP JUMPDEST SWAP1 POP SWAP2 SWAP1 POP JUMP JUMPDEST PUSH0 PUSH2 0x884 DUP3 PUSH2 0x60D JUMP JUMPDEST SWAP2 POP PUSH2 0x88F DUP4 PUSH2 0x60D JUMP JUMPDEST SWAP3 POP DUP3 DUP3 SUB SWAP1 POP DUP2 DUP2 GT ISZERO PUSH2 0x8A7 JUMPI PUSH2 0x8A6 PUSH2 0x6E6 JUMP JUMPDEST JUMPDEST SWAP3 SWAP2 POP POP JUMP JUMPDEST PUSH0 PUSH1 0x40 DUP3 ADD SWAP1 POP PUSH2 0x8C0 PUSH0 DUP4 ADD DUP6 PUSH2 0x5E5 JUMP JUMPDEST PUSH2 0x8CD PUSH1 0x20 DUP4 ADD DUP5 PUSH2 0x616 JUMP JUMPDEST SWAP4 SWAP3 POP POP POP JUMP JUMPDEST PUSH32 0x5265656E7472616E637947756172643A207265656E7472616E742063616C6C00 PUSH0 DUP3 ADD MSTORE POP JUMP JUMPDEST PUSH0 PUSH2 0x908 PUSH1 0x1F DUP4 PUSH2 0x802 JUMP JUMPDEST SWAP2 POP PUSH2 0x913 DUP3 PUSH2 0x8D4 JUMP JUMPDEST PUSH1 0x20 DUP3 ADD SWAP1 POP SWAP2 SWAP1 POP JUMP JUMPDEST PUSH0 PUSH1 0x20 DUP3 ADD SWAP1 POP DUP2 DUP2 SUB PUSH0 DUP4 ADD MSTORE PUSH2 0x935 DUP2 PUSH2 0x8FC JUMP JUMPDEST SWAP1 POP SWAP2 SWAP1 POP JUMP INVALID LOG2 PUSH5 0x6970667358 0x22 SLT KECCAK256 PUSH15 0x7E2B008F17E8F62B0CD5F6E47821C9 PUSH30 0x853074A9D210C43B14DAA62C27C02964736F6C634300081A003300000000 "
				},
				"gasEstimates": {
					"creation": {
						"codeDepositCost": "483600",
						"executionCost": "infinite",
						"totalCost": "infinite"
					},
					"external": {
						"addLiquidity(address,uint256,uint256)": "infinite",
						"removeLiquidity(address,uint256,uint256)": "infinite",
						"reserve0()": "2425",
						"reserve1()": "2469",
						"token0()": "2486",
						"token1()": "2574"
					}
				},
				"methodIdentifiers": {
					"addLiquidity(address,uint256,uint256)": "55776b77",
					"removeLiquidity(address,uint256,uint256)": "e38192e3",
					"reserve0()": "443cb4bc",
					"reserve1()": "5a76f25e",
					"token0()": "0dfe1681",
					"token1()": "d21220a7"
				}
			},
			"storageLayout": {
				"storage": [
					{
						"astId": 10,
						"contract": "contracts/Pair.sol:Pair",
						"label": "_status",
						"offset": 0,
						"slot": "0",
						"type": "t_uint256"
					},
					{
						"astId": 243,
						"contract": "contracts/Pair.sol:Pair",
						"label": "token0",
						"offset": 0,
						"slot": "1",
						"type": "t_address"
					},
					{
						"astId": 245,
						"contract": "contracts/Pair.sol:Pair",
						"label": "token1",
						"offset": 0,
						"slot": "2",
						"type": "t_address"
					},
					{
						"astId": 247,
						"contract": "contracts/Pair.sol:Pair",
						"label": "reserve0",
						"offset": 0,
						"slot": "3",
						"type": "t_uint256"
					},
					{
						"astId": 249,
						"contract": "contracts/Pair.sol:Pair",
						"label": "reserve1",
						"offset": 0,
						"slot": "4",
						"type": "t_uint256"
					}
				],
				"types": {
					"t_address": {
						"encoding": "inplace",
						"label": "address",
						"numberOfBytes": "20"
					},
					"t_uint256": {
						"encoding": "inplace",
						"label": "uint256",
						"numberOfBytes": "32"
					}
				}
			},
			"userdoc": {
				"kind": "user",
				"methods": {},
				"version": 1
			}
		}
	}
}