{
	"data": {
		"bytecode": {
			"linkReferences": {},
			"object": "608060405234801561000f575f80fd5b50604051610f89380380610f898339818101604052810190610031919061015e565b60015f819055508260015f6101000a81548173ffffffffffffffffffffffffffffffffffffffff021916908373ffffffffffffffffffffffffffffffffffffffff1602179055508160025f6101000a81548173ffffffffffffffffffffffffffffffffffffffff021916908373ffffffffffffffffffffffffffffffffffffffff1602179055508060065f6101000a81548173ffffffffffffffffffffffffffffffffffffffff021916908373ffffffffffffffffffffffffffffffffffffffff1602179055505050506101ae565b5f80fd5b5f73ffffffffffffffffffffffffffffffffffffffff82169050919050565b5f61012d82610104565b9050919050565b61013d81610123565b8114610147575f80fd5b50565b5f8151905061015881610134565b92915050565b5f805f6060848603121561017557610174610100565b5b5f6101828682870161014a565b93505060206101938682870161014a565b92505060406101a48682870161014a565b9150509250925092565b610dce806101bb5f395ff3fe608060405234801561000f575f80fd5b506004361061009c575f3560e01c80635a76f25e116100645780635a76f25e146101205780635dcc93911461013e578063d21220a71461015c578063e38192e31461017a578063f7c899a1146101965761009c565b80630dfe1681146100a0578063372500ab146100be578063443cb4bc146100c857806355776b77146100e65780635997bb3714610102575b5f80fd5b6100a86101b4565b6040516100b5919061086e565b60405180910390f35b6100c66101d9565b005b6100d0610372565b6040516100dd919061089f565b60405180910390f35b61010060048036038101906100fb9190610910565b610378565b005b61010a610552565b604051610117919061089f565b60405180910390f35b610128610557565b604051610135919061089f565b60405180910390f35b61014661055d565b604051610153919061089f565b60405180910390f35b610164610565565b604051610171919061086e565b60405180910390f35b610194600480360381019061018f9190610910565b61058a565b005b61019e6107b4565b6040516101ab91906109bb565b60405180910390f35b60015f9054906101000a900473ffffffffffffffffffffffffffffffffffffffff1681565b6101e16107d9565b5f60055403610225576040517f08c379a000000000000000000000000000000000000000000000000000000000815260040161021c90610a2e565b60405180910390fd5b5f6004546003546102369190610a79565b90505f811161027a576040517f08c379a000000000000000000000000000000000000000000000000000000000815260040161027190610af6565b60405180910390fd5b5f426005546102899190610b14565b90505f6301e13380606461029d9190610b47565b600f83856102ab9190610b47565b6102b59190610b47565b6102bf9190610bb5565b90504260058190555060065f9054906101000a900473ffffffffffffffffffffffffffffffffffffffff1673ffffffffffffffffffffffffffffffffffffffff1663a9059cbb33836040518363ffffffff1660e01b8152600401610324929190610be5565b6020604051808303815f875af1158015610340573d5f803e3d5ffd5b505050506040513d601f19601f820116820180604052508101906103649190610c41565b50505050610370610826565b565b60035481565b6103806107d9565b8160035f8282546103919190610a79565b925050819055508060045f8282546103a99190610a79565b9250508190555060015f9054906101000a900473ffffffffffffffffffffffffffffffffffffffff1673ffffffffffffffffffffffffffffffffffffffff166323b872dd8430856040518463ffffffff1660e01b815260040161040e93929190610c6c565b6020604051808303815f875af115801561042a573d5f803e3d5ffd5b505050506040513d601f19601f8201168201806040525081019061044e9190610c41565b5060025f9054906101000a900473ffffffffffffffffffffffffffffffffffffffff1673ffffffffffffffffffffffffffffffffffffffff166323b872dd8430846040518463ffffffff1660e01b81526004016104ad93929190610c6c565b6020604051808303815f875af11580156104c9573d5f803e3d5ffd5b505050506040513d601f19601f820116820180604052508101906104ed9190610c41565b50426005819055508273ffffffffffffffffffffffffffffffffffffffff167f4c209b5fc8ad50758f13e2e1088ba56a560dff690a1c6fef26394f4c03821c4f838360405161053d929190610ca1565b60405180910390a261054d610826565b505050565b600f81565b60045481565b6301e1338081565b60025f9054906101000a900473ffffffffffffffffffffffffffffffffffffffff1681565b6105926107d9565b81600354101580156105a657508060045410155b6105e5576040517f08c379a00000000000000000000000000000000000000000000000000000000081526004016105dc90610d12565b60405180910390fd5b8160035f8282546105f69190610b14565b925050819055508060045f82825461060e9190610b14565b9250508190555060015f9054906101000a900473ffffffffffffffffffffffffffffffffffffffff1673ffffffffffffffffffffffffffffffffffffffff1663a9059cbb84846040518363ffffffff1660e01b8152600401610671929190610be5565b6020604051808303815f875af115801561068d573d5f803e3d5ffd5b505050506040513d601f19601f820116820180604052508101906106b19190610c41565b5060025f9054906101000a900473ffffffffffffffffffffffffffffffffffffffff1673ffffffffffffffffffffffffffffffffffffffff1663a9059cbb84836040518363ffffffff1660e01b815260040161070e929190610be5565b6020604051808303815f875af115801561072a573d5f803e3d5ffd5b505050506040513d601f19601f8201168201806040525081019061074e9190610c41565b506107576101d9565b8273ffffffffffffffffffffffffffffffffffffffff167f49995e5dd6158cf69ad3e9777c46755a1a826a446c6416992167462dad033b2a838360405161079f929190610ca1565b60405180910390a26107af610826565b505050565b60065f9054906101000a900473ffffffffffffffffffffffffffffffffffffffff1681565b60025f540361081d576040517f08c379a000000000000000000000000000000000000000000000000000000000815260040161081490610d7a565b60405180910390fd5b60025f81905550565b60015f81905550565b5f73ffffffffffffffffffffffffffffffffffffffff82169050919050565b5f6108588261082f565b9050919050565b6108688161084e565b82525050565b5f6020820190506108815f83018461085f565b92915050565b5f819050919050565b61089981610887565b82525050565b5f6020820190506108b25f830184610890565b92915050565b5f80fd5b6108c58161084e565b81146108cf575f80fd5b50565b5f813590506108e0816108bc565b92915050565b6108ef81610887565b81146108f9575f80fd5b50565b5f8135905061090a816108e6565b92915050565b5f805f60608486031215610927576109266108b8565b5b5f610934868287016108d2565b9350506020610945868287016108fc565b9250506040610956868287016108fc565b9150509250925092565b5f819050919050565b5f61098361097e6109798461082f565b610960565b61082f565b9050919050565b5f61099482610969565b9050919050565b5f6109a58261098a565b9050919050565b6109b58161099b565b82525050565b5f6020820190506109ce5f8301846109ac565b92915050565b5f82825260208201905092915050565b7f6e6f20746f6b656e7320616464656400000000000000000000000000000000005f82015250565b5f610a18600f836109d4565b9150610a23826109e4565b602082019050919050565b5f6020820190508181035f830152610a4581610a0c565b9050919050565b7f4e487b71000000000000000000000000000000000000000000000000000000005f52601160045260245ffd5b5f610a8382610887565b9150610a8e83610887565b9250828201905080821115610aa657610aa5610a4c565b5b92915050565b7f696e697469616c20746f6b656e73206e6f7420616464656400000000000000005f82015250565b5f610ae06018836109d4565b9150610aeb82610aac565b602082019050919050565b5f6020820190508181035f830152610b0d81610ad4565b9050919050565b5f610b1e82610887565b9150610b2983610887565b9250828203905081811115610b4157610b40610a4c565b5b92915050565b5f610b5182610887565b9150610b5c83610887565b9250828202610b6a81610887565b91508282048414831517610b8157610b80610a4c565b5b5092915050565b7f4e487b71000000000000000000000000000000000000000000000000000000005f52601260045260245ffd5b5f610bbf82610887565b9150610bca83610887565b925082610bda57610bd9610b88565b5b828204905092915050565b5f604082019050610bf85f83018561085f565b610c056020830184610890565b9392505050565b5f8115159050919050565b610c2081610c0c565b8114610c2a575f80fd5b50565b5f81519050610c3b81610c17565b92915050565b5f60208284031215610c5657610c556108b8565b5b5f610c6384828501610c2d565b91505092915050565b5f606082019050610c7f5f83018661085f565b610c8c602083018561085f565b610c996040830184610890565b949350505050565b5f604082019050610cb45f830185610890565b610cc16020830184610890565b9392505050565b7f506169723a20494e53554646494349454e545f4c4951554944495459000000005f82015250565b5f610cfc601c836109d4565b9150610d0782610cc8565b602082019050919050565b5f6020820190508181035f830152610d2981610cf0565b9050919050565b7f5265656e7472616e637947756172643a207265656e7472616e742063616c6c005f82015250565b5f610d64601f836109d4565b9150610d6f82610d30565b602082019050919050565b5f6020820190508181035f830152610d9181610d58565b905091905056fea26469706673582212205b4852541f42c30fba52b7e446ddae9b067f205ad89431900c90131f01ab53f364736f6c634300081a0033",
			"opcodes": "PUSH1 0x80 PUSH1 0x40 MSTORE CALLVALUE DUP1 ISZERO PUSH2 0xF JUMPI PUSH0 DUP1 REVERT JUMPDEST POP PUSH1 0x40 MLOAD PUSH2 0xF89 CODESIZE SUB DUP1 PUSH2 0xF89 DUP4 CODECOPY DUP2 DUP2 ADD PUSH1 0x40 MSTORE DUP2 ADD SWAP1 PUSH2 0x31 SWAP2 SWAP1 PUSH2 0x15E JUMP JUMPDEST PUSH1 0x1 PUSH0 DUP2 SWAP1 SSTORE POP DUP3 PUSH1 0x1 PUSH0 PUSH2 0x100 EXP DUP2 SLOAD DUP2 PUSH20 0xFFFFFFFFFFFFFFFFFFFFFFFFFFFFFFFFFFFFFFFF MUL NOT AND SWAP1 DUP4 PUSH20 0xFFFFFFFFFFFFFFFFFFFFFFFFFFFFFFFFFFFFFFFF AND MUL OR SWAP1 SSTORE POP DUP2 PUSH1 0x2 PUSH0 PUSH2 0x100 EXP DUP2 SLOAD DUP2 PUSH20 0xFFFFFFFFFFFFFFFFFFFFFFFFFFFFFFFFFFFFFFFF MUL NOT AND SWAP1 DUP4 PUSH20 0xFFFFFFFFFFFFFFFFFFFFFFFFFFFFFFFFFFFFFFFF AND MUL OR SWAP1 SSTORE POP DUP1 PUSH1 0x6 PUSH0 PUSH2 0x100 EXP DUP2 SLOAD DUP2 PUSH20 0xFFFFFFFFFFFFFFFFFFFFFFFFFFFFFFFFFFFFFFFF MUL NOT AND SWAP1 DUP4 PUSH20 0xFFFFFFFFFFFFFFFFFFFFFFFFFFFFFFFFFFFFFFFF AND MUL OR SWAP1 SSTORE POP POP POP POP PUSH2 0x1AE JUMP JUMPDEST PUSH0 DUP1 REVERT JUMPDEST PUSH0 PUSH20 0xFFFFFFFFFFFFFFFFFFFFFFFFFFFFFFFFFFFFFFFF DUP3 AND SWAP1 POP SWAP2 SWAP1 POP JUMP JUMPDEST PUSH0 PUSH2 0x12D DUP3 PUSH2 0x104 JUMP JUMPDEST SWAP1 POP SWAP2 SWAP1 POP JUMP JUMPDEST PUSH2 0x13D DUP2 PUSH2 0x123 JUMP JUMPDEST DUP2 EQ PUSH2 0x147 JUMPI PUSH0 DUP1 REVERT JUMPDEST POP JUMP JUMPDEST PUSH0 DUP2 MLOAD SWAP1 POP PUSH2 0x158 DUP2 PUSH2 0x134 JUMP JUMPDEST SWAP3 SWAP2 POP POP JUMP JUMPDEST PUSH0 DUP1 PUSH0 PUSH1 0x60 DUP5 DUP7 SUB SLT ISZERO PUSH2 0x175 JUMPI PUSH2 0x174 PUSH2 0x100 JUMP JUMPDEST JUMPDEST PUSH0 PUSH2 0x182 DUP7 DUP3 DUP8 ADD PUSH2 0x14A JUMP JUMPDEST SWAP4 POP POP PUSH1 0x20 PUSH2 0x193 DUP7 DUP3 DUP8 ADD PUSH2 0x14A JUMP JUMPDEST SWAP3 POP POP PUSH1 0x40 PUSH2 0x1A4 DUP7 DUP3 DUP8 ADD PUSH2 0x14A JUMP JUMPDEST SWAP2 POP POP SWAP3 POP SWAP3 POP SWAP3 JUMP JUMPDEST PUSH2 0xDCE DUP1 PUSH2 0x1BB PUSH0 CODECOPY PUSH0 RETURN INVALID PUSH1 0x80 PUSH1 0x40 MSTORE CALLVALUE DUP1 ISZERO PUSH2 0xF JUMPI PUSH0 DUP1 REVERT JUMPDEST POP PUSH1 0x4 CALLDATASIZE LT PUSH2 0x9C JUMPI PUSH0 CALLDATALOAD PUSH1 0xE0 SHR DUP1 PUSH4 0x5A76F25E GT PUSH2 0x64 JUMPI DUP1 PUSH4 0x5A76F25E EQ PUSH2 0x120 JUMPI DUP1 PUSH4 0x5DCC9391 EQ PUSH2 0x13E JUMPI DUP1 PUSH4 0xD21220A7 EQ PUSH2 0x15C JUMPI DUP1 PUSH4 0xE38192E3 EQ PUSH2 0x17A JUMPI DUP1 PUSH4 0xF7C899A1 EQ PUSH2 0x196 JUMPI PUSH2 0x9C JUMP JUMPDEST DUP1 PUSH4 0xDFE1681 EQ PUSH2 0xA0 JUMPI DUP1 PUSH4 0x372500AB EQ PUSH2 0xBE JUMPI DUP1 PUSH4 0x443CB4BC EQ PUSH2 0xC8 JUMPI DUP1 PUSH4 0x55776B77 EQ PUSH2 0xE6 JUMPI DUP1 PUSH4 0x5997BB37 EQ PUSH2 0x102 JUMPI JUMPDEST PUSH0 DUP1 REVERT JUMPDEST PUSH2 0xA8 PUSH2 0x1B4 JUMP JUMPDEST PUSH1 0x40 MLOAD PUSH2 0xB5 SWAP2 SWAP1 PUSH2 0x86E JUMP JUMPDEST PUSH1 0x40 MLOAD DUP1 SWAP2 SUB SWAP1 RETURN JUMPDEST PUSH2 0xC6 PUSH2 0x1D9 JUMP JUMPDEST STOP JUMPDEST PUSH2 0xD0 PUSH2 0x372 JUMP JUMPDEST PUSH1 0x40 MLOAD PUSH2 0xDD SWAP2 SWAP1 PUSH2 0x89F JUMP JUMPDEST PUSH1 0x40 MLOAD DUP1 SWAP2 SUB SWAP1 RETURN JUMPDEST PUSH2 0x100 PUSH1 0x4 DUP1 CALLDATASIZE SUB DUP2 ADD SWAP1 PUSH2 0xFB SWAP2 SWAP1 PUSH2 0x910 JUMP JUMPDEST PUSH2 0x378 JUMP JUMPDEST STOP JUMPDEST PUSH2 0x10A PUSH2 0x552 JUMP JUMPDEST PUSH1 0x40 MLOAD PUSH2 0x117 SWAP2 SWAP1 PUSH2 0x89F JUMP JUMPDEST PUSH1 0x40 MLOAD DUP1 SWAP2 SUB SWAP1 RETURN JUMPDEST PUSH2 0x128 PUSH2 0x557 JUMP JUMPDEST PUSH1 0x40 MLOAD PUSH2 0x135 SWAP2 SWAP1 PUSH2 0x89F JUMP JUMPDEST PUSH1 0x40 MLOAD DUP1 SWAP2 SUB SWAP1 RETURN JUMPDEST PUSH2 0x146 PUSH2 0x55D JUMP JUMPDEST PUSH1 0x40 MLOAD PUSH2 0x153 SWAP2 SWAP1 PUSH2 0x89F JUMP JUMPDEST PUSH1 0x40 MLOAD DUP1 SWAP2 SUB SWAP1 RETURN JUMPDEST PUSH2 0x164 PUSH2 0x565 JUMP JUMPDEST PUSH1 0x40 MLOAD PUSH2 0x171 SWAP2 SWAP1 PUSH2 0x86E JUMP JUMPDEST PUSH1 0x40 MLOAD DUP1 SWAP2 SUB SWAP1 RETURN JUMPDEST PUSH2 0x194 PUSH1 0x4 DUP1 CALLDATASIZE SUB DUP2 ADD SWAP1 PUSH2 0x18F SWAP2 SWAP1 PUSH2 0x910 JUMP JUMPDEST PUSH2 0x58A JUMP JUMPDEST STOP JUMPDEST PUSH2 0x19E PUSH2 0x7B4 JUMP JUMPDEST PUSH1 0x40 MLOAD PUSH2 0x1AB SWAP2 SWAP1 PUSH2 0x9BB JUMP JUMPDEST PUSH1 0x40 MLOAD DUP1 SWAP2 SUB SWAP1 RETURN JUMPDEST PUSH1 0x1 PUSH0 SWAP1 SLOAD SWAP1 PUSH2 0x100 EXP SWAP1 DIV PUSH20 0xFFFFFFFFFFFFFFFFFFFFFFFFFFFFFFFFFFFFFFFF AND DUP2 JUMP JUMPDEST PUSH2 0x1E1 PUSH2 0x7D9 JUMP JUMPDEST PUSH0 PUSH1 0x5 SLOAD SUB PUSH2 0x225 JUMPI PUSH1 0x40 MLOAD PUSH32 0x8C379A000000000000000000000000000000000000000000000000000000000 DUP2 MSTORE PUSH1 0x4 ADD PUSH2 0x21C SWAP1 PUSH2 0xA2E JUMP JUMPDEST PUSH1 0x40 MLOAD DUP1 SWAP2 SUB SWAP1 REVERT JUMPDEST PUSH0 PUSH1 0x4 SLOAD PUSH1 0x3 SLOAD PUSH2 0x236 SWAP2 SWAP1 PUSH2 0xA79 JUMP JUMPDEST SWAP1 POP PUSH0 DUP2 GT PUSH2 0x27A JUMPI PUSH1 0x40 MLOAD PUSH32 0x8C379A000000000000000000000000000000000000000000000000000000000 DUP2 MSTORE PUSH1 0x4 ADD PUSH2 0x271 SWAP1 PUSH2 0xAF6 JUMP JUMPDEST PUSH1 0x40 MLOAD DUP1 SWAP2 SUB SWAP1 REVERT JUMPDEST PUSH0 TIMESTAMP PUSH1 0x5 SLOAD PUSH2 0x289 SWAP2 SWAP1 PUSH2 0xB14 JUMP JUMPDEST SWAP1 POP PUSH0 PUSH4 0x1E13380 PUSH1 0x64 PUSH2 0x29D SWAP2 SWAP1 PUSH2 0xB47 JUMP JUMPDEST PUSH1 0xF DUP4 DUP6 PUSH2 0x2AB SWAP2 SWAP1 PUSH2 0xB47 JUMP JUMPDEST PUSH2 0x2B5 SWAP2 SWAP1 PUSH2 0xB47 JUMP JUMPDEST PUSH2 0x2BF SWAP2 SWAP1 PUSH2 0xBB5 JUMP JUMPDEST SWAP1 POP TIMESTAMP PUSH1 0x5 DUP2 SWAP1 SSTORE POP PUSH1 0x6 PUSH0 SWAP1 SLOAD SWAP1 PUSH2 0x100 EXP SWAP1 DIV PUSH20 0xFFFFFFFFFFFFFFFFFFFFFFFFFFFFFFFFFFFFFFFF AND PUSH20 0xFFFFFFFFFFFFFFFFFFFFFFFFFFFFFFFFFFFFFFFF AND PUSH4 0xA9059CBB CALLER DUP4 PUSH1 0x40 MLOAD DUP4 PUSH4 0xFFFFFFFF AND PUSH1 0xE0 SHL DUP2 MSTORE PUSH1 0x4 ADD PUSH2 0x324 SWAP3 SWAP2 SWAP1 PUSH2 0xBE5 JUMP JUMPDEST PUSH1 0x20 PUSH1 0x40 MLOAD DUP1 DUP4 SUB DUP2 PUSH0 DUP8 GAS CALL ISZERO DUP1 ISZERO PUSH2 0x340 JUMPI RETURNDATASIZE PUSH0 DUP1 RETURNDATACOPY RETURNDATASIZE PUSH0 REVERT JUMPDEST POP POP POP POP PUSH1 0x40 MLOAD RETURNDATASIZE PUSH1 0x1F NOT PUSH1 0x1F DUP3 ADD AND DUP3 ADD DUP1 PUSH1 0x40 MSTORE POP DUP2 ADD SWAP1 PUSH2 0x364 SWAP2 SWAP1 PUSH2 0xC41 JUMP JUMPDEST POP POP POP POP PUSH2 0x370 PUSH2 0x826 JUMP JUMPDEST JUMP JUMPDEST PUSH1 0x3 SLOAD DUP2 JUMP JUMPDEST PUSH2 0x380 PUSH2 0x7D9 JUMP JUMPDEST DUP2 PUSH1 0x3 PUSH0 DUP3 DUP3 SLOAD PUSH2 0x391 SWAP2 SWAP1 PUSH2 0xA79 JUMP JUMPDEST SWAP3 POP POP DUP2 SWAP1 SSTORE POP DUP1 PUSH1 0x4 PUSH0 DUP3 DUP3 SLOAD PUSH2 0x3A9 SWAP2 SWAP1 PUSH2 0xA79 JUMP JUMPDEST SWAP3 POP POP DUP2 SWAP1 SSTORE POP PUSH1 0x1 PUSH0 SWAP1 SLOAD SWAP1 PUSH2 0x100 EXP SWAP1 DIV PUSH20 0xFFFFFFFFFFFFFFFFFFFFFFFFFFFFFFFFFFFFFFFF AND PUSH20 0xFFFFFFFFFFFFFFFFFFFFFFFFFFFFFFFFFFFFFFFF AND PUSH4 0x23B872DD DUP5 ADDRESS DUP6 PUSH1 0x40 MLOAD DUP5 PUSH4 0xFFFFFFFF AND PUSH1 0xE0 SHL DUP2 MSTORE PUSH1 0x4 ADD PUSH2 0x40E SWAP4 SWAP3 SWAP2 SWAP1 PUSH2 0xC6C JUMP JUMPDEST PUSH1 0x20 PUSH1 0x40 MLOAD DUP1 DUP4 SUB DUP2 PUSH0 DUP8 GAS CALL ISZERO DUP1 ISZERO PUSH2 0x42A JUMPI RETURNDATASIZE PUSH0 DUP1 RETURNDATACOPY RETURNDATASIZE PUSH0 REVERT JUMPDEST POP POP POP POP PUSH1 0x40 MLOAD RETURNDATASIZE PUSH1 0x1F NOT PUSH1 0x1F DUP3 ADD AND DUP3 ADD DUP1 PUSH1 0x40 MSTORE POP DUP2 ADD SWAP1 PUSH2 0x44E SWAP2 SWAP1 PUSH2 0xC41 JUMP JUMPDEST POP PUSH1 0x2 PUSH0 SWAP1 SLOAD SWAP1 PUSH2 0x100 EXP SWAP1 DIV PUSH20 0xFFFFFFFFFFFFFFFFFFFFFFFFFFFFFFFFFFFFFFFF AND PUSH20 0xFFFFFFFFFFFFFFFFFFFFFFFFFFFFFFFFFFFFFFFF AND PUSH4 0x23B872DD DUP5 ADDRESS DUP5 PUSH1 0x40 MLOAD DUP5 PUSH4 0xFFFFFFFF AND PUSH1 0xE0 SHL DUP2 MSTORE PUSH1 0x4 ADD PUSH2 0x4AD SWAP4 SWAP3 SWAP2 SWAP1 PUSH2 0xC6C JUMP JUMPDEST PUSH1 0x20 PUSH1 0x40 MLOAD DUP1 DUP4 SUB DUP2 PUSH0 DUP8 GAS CALL ISZERO DUP1 ISZERO PUSH2 0x4C9 JUMPI RETURNDATASIZE PUSH0 DUP1 RETURNDATACOPY RETURNDATASIZE PUSH0 REVERT JUMPDEST POP POP POP POP PUSH1 0x40 MLOAD RETURNDATASIZE PUSH1 0x1F NOT PUSH1 0x1F DUP3 ADD AND DUP3 ADD DUP1 PUSH1 0x40 MSTORE POP DUP2 ADD SWAP1 PUSH2 0x4ED SWAP2 SWAP1 PUSH2 0xC41 JUMP JUMPDEST POP TIMESTAMP PUSH1 0x5 DUP2 SWAP1 SSTORE POP DUP3 PUSH20 0xFFFFFFFFFFFFFFFFFFFFFFFFFFFFFFFFFFFFFFFF AND PUSH32 0x4C209B5FC8AD50758F13E2E1088BA56A560DFF690A1C6FEF26394F4C03821C4F DUP4 DUP4 PUSH1 0x40 MLOAD PUSH2 0x53D SWAP3 SWAP2 SWAP1 PUSH2 0xCA1 JUMP JUMPDEST PUSH1 0x40 MLOAD DUP1 SWAP2 SUB SWAP1 LOG2 PUSH2 0x54D PUSH2 0x826 JUMP JUMPDEST POP POP POP JUMP JUMPDEST PUSH1 0xF DUP2 JUMP JUMPDEST PUSH1 0x4 SLOAD DUP2 JUMP JUMPDEST PUSH4 0x1E13380 DUP2 JUMP JUMPDEST PUSH1 0x2 PUSH0 SWAP1 SLOAD SWAP1 PUSH2 0x100 EXP SWAP1 DIV PUSH20 0xFFFFFFFFFFFFFFFFFFFFFFFFFFFFFFFFFFFFFFFF AND DUP2 JUMP JUMPDEST PUSH2 0x592 PUSH2 0x7D9 JUMP JUMPDEST DUP2 PUSH1 0x3 SLOAD LT ISZERO DUP1 ISZERO PUSH2 0x5A6 JUMPI POP DUP1 PUSH1 0x4 SLOAD LT ISZERO JUMPDEST PUSH2 0x5E5 JUMPI PUSH1 0x40 MLOAD PUSH32 0x8C379A000000000000000000000000000000000000000000000000000000000 DUP2 MSTORE PUSH1 0x4 ADD PUSH2 0x5DC SWAP1 PUSH2 0xD12 JUMP JUMPDEST PUSH1 0x40 MLOAD DUP1 SWAP2 SUB SWAP1 REVERT JUMPDEST DUP2 PUSH1 0x3 PUSH0 DUP3 DUP3 SLOAD PUSH2 0x5F6 SWAP2 SWAP1 PUSH2 0xB14 JUMP JUMPDEST SWAP3 POP POP DUP2 SWAP1 SSTORE POP DUP1 PUSH1 0x4 PUSH0 DUP3 DUP3 SLOAD PUSH2 0x60E SWAP2 SWAP1 PUSH2 0xB14 JUMP JUMPDEST SWAP3 POP POP DUP2 SWAP1 SSTORE POP PUSH1 0x1 PUSH0 SWAP1 SLOAD SWAP1 PUSH2 0x100 EXP SWAP1 DIV PUSH20 0xFFFFFFFFFFFFFFFFFFFFFFFFFFFFFFFFFFFFFFFF AND PUSH20 0xFFFFFFFFFFFFFFFFFFFFFFFFFFFFFFFFFFFFFFFF AND PUSH4 0xA9059CBB DUP5 DUP5 PUSH1 0x40 MLOAD DUP4 PUSH4 0xFFFFFFFF AND PUSH1 0xE0 SHL DUP2 MSTORE PUSH1 0x4 ADD PUSH2 0x671 SWAP3 SWAP2 SWAP1 PUSH2 0xBE5 JUMP JUMPDEST PUSH1 0x20 PUSH1 0x40 MLOAD DUP1 DUP4 SUB DUP2 PUSH0 DUP8 GAS CALL ISZERO DUP1 ISZERO PUSH2 0x68D JUMPI RETURNDATASIZE PUSH0 DUP1 RETURNDATACOPY RETURNDATASIZE PUSH0 REVERT JUMPDEST POP POP POP POP PUSH1 0x40 MLOAD RETURNDATASIZE PUSH1 0x1F NOT PUSH1 0x1F DUP3 ADD AND DUP3 ADD DUP1 PUSH1 0x40 MSTORE POP DUP2 ADD SWAP1 PUSH2 0x6B1 SWAP2 SWAP1 PUSH2 0xC41 JUMP JUMPDEST POP PUSH1 0x2 PUSH0 SWAP1 SLOAD SWAP1 PUSH2 0x100 EXP SWAP1 DIV PUSH20 0xFFFFFFFFFFFFFFFFFFFFFFFFFFFFFFFFFFFFFFFF AND PUSH20 0xFFFFFFFFFFFFFFFFFFFFFFFFFFFFFFFFFFFFFFFF AND PUSH4 0xA9059CBB DUP5 DUP4 PUSH1 0x40 MLOAD DUP4 PUSH4 0xFFFFFFFF AND PUSH1 0xE0 SHL DUP2 MSTORE PUSH1 0x4 ADD PUSH2 0x70E SWAP3 SWAP2 SWAP1 PUSH2 0xBE5 JUMP JUMPDEST PUSH1 0x20 PUSH1 0x40 MLOAD DUP1 DUP4 SUB DUP2 PUSH0 DUP8 GAS CALL ISZERO DUP1 ISZERO PUSH2 0x72A JUMPI RETURNDATASIZE PUSH0 DUP1 RETURNDATACOPY RETURNDATASIZE PUSH0 REVERT JUMPDEST POP POP POP POP PUSH1 0x40 MLOAD RETURNDATASIZE PUSH1 0x1F NOT PUSH1 0x1F DUP3 ADD AND DUP3 ADD DUP1 PUSH1 0x40 MSTORE POP DUP2 ADD SWAP1 PUSH2 0x74E SWAP2 SWAP1 PUSH2 0xC41 JUMP JUMPDEST POP PUSH2 0x757 PUSH2 0x1D9 JUMP JUMPDEST DUP3 PUSH20 0xFFFFFFFFFFFFFFFFFFFFFFFFFFFFFFFFFFFFFFFF AND PUSH32 0x49995E5DD6158CF69AD3E9777C46755A1A826A446C6416992167462DAD033B2A DUP4 DUP4 PUSH1 0x40 MLOAD PUSH2 0x79F SWAP3 SWAP2 SWAP1 PUSH2 0xCA1 JUMP JUMPDEST PUSH1 0x40 MLOAD DUP1 SWAP2 SUB SWAP1 LOG2 PUSH2 0x7AF PUSH2 0x826 JUMP JUMPDEST POP POP POP JUMP JUMPDEST PUSH1 0x6 PUSH0 SWAP1 SLOAD SWAP1 PUSH2 0x100 EXP SWAP1 DIV PUSH20 0xFFFFFFFFFFFFFFFFFFFFFFFFFFFFFFFFFFFFFFFF AND DUP2 JUMP JUMPDEST PUSH1 0x2 PUSH0 SLOAD SUB PUSH2 0x81D JUMPI PUSH1 0x40 MLOAD PUSH32 0x8C379A000000000000000000000000000000000000000000000000000000000 DUP2 MSTORE PUSH1 0x4 ADD PUSH2 0x814 SWAP1 PUSH2 0xD7A JUMP JUMPDEST PUSH1 0x40 MLOAD DUP1 SWAP2 SUB SWAP1 REVERT JUMPDEST PUSH1 0x2 PUSH0 DUP2 SWAP1 SSTORE POP JUMP JUMPDEST PUSH1 0x1 PUSH0 DUP2 SWAP1 SSTORE POP JUMP JUMPDEST PUSH0 PUSH20 0xFFFFFFFFFFFFFFFFFFFFFFFFFFFFFFFFFFFFFFFF DUP3 AND SWAP1 POP SWAP2 SWAP1 POP JUMP JUMPDEST PUSH0 PUSH2 0x858 DUP3 PUSH2 0x82F JUMP JUMPDEST SWAP1 POP SWAP2 SWAP1 POP JUMP JUMPDEST PUSH2 0x868 DUP2 PUSH2 0x84E JUMP JUMPDEST DUP3 MSTORE POP POP JUMP JUMPDEST PUSH0 PUSH1 0x20 DUP3 ADD SWAP1 POP PUSH2 0x881 PUSH0 DUP4 ADD DUP5 PUSH2 0x85F JUMP JUMPDEST SWAP3 SWAP2 POP POP JUMP JUMPDEST PUSH0 DUP2 SWAP1 POP SWAP2 SWAP1 POP JUMP JUMPDEST PUSH2 0x899 DUP2 PUSH2 0x887 JUMP JUMPDEST DUP3 MSTORE POP POP JUMP JUMPDEST PUSH0 PUSH1 0x20 DUP3 ADD SWAP1 POP PUSH2 0x8B2 PUSH0 DUP4 ADD DUP5 PUSH2 0x890 JUMP JUMPDEST SWAP3 SWAP2 POP POP JUMP JUMPDEST PUSH0 DUP1 REVERT JUMPDEST PUSH2 0x8C5 DUP2 PUSH2 0x84E JUMP JUMPDEST DUP2 EQ PUSH2 0x8CF JUMPI PUSH0 DUP1 REVERT JUMPDEST POP JUMP JUMPDEST PUSH0 DUP2 CALLDATALOAD SWAP1 POP PUSH2 0x8E0 DUP2 PUSH2 0x8BC JUMP JUMPDEST SWAP3 SWAP2 POP POP JUMP JUMPDEST PUSH2 0x8EF DUP2 PUSH2 0x887 JUMP JUMPDEST DUP2 EQ PUSH2 0x8F9 JUMPI PUSH0 DUP1 REVERT JUMPDEST POP JUMP JUMPDEST PUSH0 DUP2 CALLDATALOAD SWAP1 POP PUSH2 0x90A DUP2 PUSH2 0x8E6 JUMP JUMPDEST SWAP3 SWAP2 POP POP JUMP JUMPDEST PUSH0 DUP1 PUSH0 PUSH1 0x60 DUP5 DUP7 SUB SLT ISZERO PUSH2 0x927 JUMPI PUSH2 0x926 PUSH2 0x8B8 JUMP JUMPDEST JUMPDEST PUSH0 PUSH2 0x934 DUP7 DUP3 DUP8 ADD PUSH2 0x8D2 JUMP JUMPDEST SWAP4 POP POP PUSH1 0x20 PUSH2 0x945 DUP7 DUP3 DUP8 ADD PUSH2 0x8FC JUMP JUMPDEST SWAP3 POP POP PUSH1 0x40 PUSH2 0x956 DUP7 DUP3 DUP8 ADD PUSH2 0x8FC JUMP JUMPDEST SWAP2 POP POP SWAP3 POP SWAP3 POP SWAP3 JUMP JUMPDEST PUSH0 DUP2 SWAP1 POP SWAP2 SWAP1 POP JUMP JUMPDEST PUSH0 PUSH2 0x983 PUSH2 0x97E PUSH2 0x979 DUP5 PUSH2 0x82F JUMP JUMPDEST PUSH2 0x960 JUMP JUMPDEST PUSH2 0x82F JUMP JUMPDEST SWAP1 POP SWAP2 SWAP1 POP JUMP JUMPDEST PUSH0 PUSH2 0x994 DUP3 PUSH2 0x969 JUMP JUMPDEST SWAP1 POP SWAP2 SWAP1 POP JUMP JUMPDEST PUSH0 PUSH2 0x9A5 DUP3 PUSH2 0x98A JUMP JUMPDEST SWAP1 POP SWAP2 SWAP1 POP JUMP JUMPDEST PUSH2 0x9B5 DUP2 PUSH2 0x99B JUMP JUMPDEST DUP3 MSTORE POP POP JUMP JUMPDEST PUSH0 PUSH1 0x20 DUP3 ADD SWAP1 POP PUSH2 0x9CE PUSH0 DUP4 ADD DUP5 PUSH2 0x9AC JUMP JUMPDEST SWAP3 SWAP2 POP POP JUMP JUMPDEST PUSH0 DUP3 DUP3 MSTORE PUSH1 0x20 DUP3 ADD SWAP1 POP SWAP3 SWAP2 POP POP JUMP JUMPDEST PUSH32 0x6E6F20746F6B656E732061646465640000000000000000000000000000000000 PUSH0 DUP3 ADD MSTORE POP JUMP JUMPDEST PUSH0 PUSH2 0xA18 PUSH1 0xF DUP4 PUSH2 0x9D4 JUMP JUMPDEST SWAP2 POP PUSH2 0xA23 DUP3 PUSH2 0x9E4 JUMP JUMPDEST PUSH1 0x20 DUP3 ADD SWAP1 POP SWAP2 SWAP1 POP JUMP JUMPDEST PUSH0 PUSH1 0x20 DUP3 ADD SWAP1 POP DUP2 DUP2 SUB PUSH0 DUP4 ADD MSTORE PUSH2 0xA45 DUP2 PUSH2 0xA0C JUMP JUMPDEST SWAP1 POP SWAP2 SWAP1 POP JUMP JUMPDEST PUSH32 0x4E487B7100000000000000000000000000000000000000000000000000000000 PUSH0 MSTORE PUSH1 0x11 PUSH1 0x4 MSTORE PUSH1 0x24 PUSH0 REVERT JUMPDEST PUSH0 PUSH2 0xA83 DUP3 PUSH2 0x887 JUMP JUMPDEST SWAP2 POP PUSH2 0xA8E DUP4 PUSH2 0x887 JUMP JUMPDEST SWAP3 POP DUP3 DUP3 ADD SWAP1 POP DUP1 DUP3 GT ISZERO PUSH2 0xAA6 JUMPI PUSH2 0xAA5 PUSH2 0xA4C JUMP JUMPDEST JUMPDEST SWAP3 SWAP2 POP POP JUMP JUMPDEST PUSH32 0x696E697469616C20746F6B656E73206E6F742061646465640000000000000000 PUSH0 DUP3 ADD MSTORE POP JUMP JUMPDEST PUSH0 PUSH2 0xAE0 PUSH1 0x18 DUP4 PUSH2 0x9D4 JUMP JUMPDEST SWAP2 POP PUSH2 0xAEB DUP3 PUSH2 0xAAC JUMP JUMPDEST PUSH1 0x20 DUP3 ADD SWAP1 POP SWAP2 SWAP1 POP JUMP JUMPDEST PUSH0 PUSH1 0x20 DUP3 ADD SWAP1 POP DUP2 DUP2 SUB PUSH0 DUP4 ADD MSTORE PUSH2 0xB0D DUP2 PUSH2 0xAD4 JUMP JUMPDEST SWAP1 POP SWAP2 SWAP1 POP JUMP JUMPDEST PUSH0 PUSH2 0xB1E DUP3 PUSH2 0x887 JUMP JUMPDEST SWAP2 POP PUSH2 0xB29 DUP4 PUSH2 0x887 JUMP JUMPDEST SWAP3 POP DUP3 DUP3 SUB SWAP1 POP DUP2 DUP2 GT ISZERO PUSH2 0xB41 JUMPI PUSH2 0xB40 PUSH2 0xA4C JUMP JUMPDEST JUMPDEST SWAP3 SWAP2 POP POP JUMP JUMPDEST PUSH0 PUSH2 0xB51 DUP3 PUSH2 0x887 JUMP JUMPDEST SWAP2 POP PUSH2 0xB5C DUP4 PUSH2 0x887 JUMP JUMPDEST SWAP3 POP DUP3 DUP3 MUL PUSH2 0xB6A DUP2 PUSH2 0x887 JUMP JUMPDEST SWAP2 POP DUP3 DUP3 DIV DUP5 EQ DUP4 ISZERO OR PUSH2 0xB81 JUMPI PUSH2 0xB80 PUSH2 0xA4C JUMP JUMPDEST JUMPDEST POP SWAP3 SWAP2 POP POP JUMP JUMPDEST PUSH32 0x4E487B7100000000000000000000000000000000000000000000000000000000 PUSH0 MSTORE PUSH1 0x12 PUSH1 0x4 MSTORE PUSH1 0x24 PUSH0 REVERT JUMPDEST PUSH0 PUSH2 0xBBF DUP3 PUSH2 0x887 JUMP JUMPDEST SWAP2 POP PUSH2 0xBCA DUP4 PUSH2 0x887 JUMP JUMPDEST SWAP3 POP DUP3 PUSH2 0xBDA JUMPI PUSH2 0xBD9 PUSH2 0xB88 JUMP JUMPDEST JUMPDEST DUP3 DUP3 DIV SWAP1 POP SWAP3 SWAP2 POP POP JUMP JUMPDEST PUSH0 PUSH1 0x40 DUP3 ADD SWAP1 POP PUSH2 0xBF8 PUSH0 DUP4 ADD DUP6 PUSH2 0x85F JUMP JUMPDEST PUSH2 0xC05 PUSH1 0x20 DUP4 ADD DUP5 PUSH2 0x890 JUMP JUMPDEST SWAP4 SWAP3 POP POP POP JUMP JUMPDEST PUSH0 DUP2 ISZERO ISZERO SWAP1 POP SWAP2 SWAP1 POP JUMP JUMPDEST PUSH2 0xC20 DUP2 PUSH2 0xC0C JUMP JUMPDEST DUP2 EQ PUSH2 0xC2A JUMPI PUSH0 DUP1 REVERT JUMPDEST POP JUMP JUMPDEST PUSH0 DUP2 MLOAD SWAP1 POP PUSH2 0xC3B DUP2 PUSH2 0xC17 JUMP JUMPDEST SWAP3 SWAP2 POP POP JUMP JUMPDEST PUSH0 PUSH1 0x20 DUP3 DUP5 SUB SLT ISZERO PUSH2 0xC56 JUMPI PUSH2 0xC55 PUSH2 0x8B8 JUMP JUMPDEST JUMPDEST PUSH0 PUSH2 0xC63 DUP5 DUP3 DUP6 ADD PUSH2 0xC2D JUMP JUMPDEST SWAP2 POP POP SWAP3 SWAP2 POP POP JUMP JUMPDEST PUSH0 PUSH1 0x60 DUP3 ADD SWAP1 POP PUSH2 0xC7F PUSH0 DUP4 ADD DUP7 PUSH2 0x85F JUMP JUMPDEST PUSH2 0xC8C PUSH1 0x20 DUP4 ADD DUP6 PUSH2 0x85F JUMP JUMPDEST PUSH2 0xC99 PUSH1 0x40 DUP4 ADD DUP5 PUSH2 0x890 JUMP JUMPDEST SWAP5 SWAP4 POP POP POP POP JUMP JUMPDEST PUSH0 PUSH1 0x40 DUP3 ADD SWAP1 POP PUSH2 0xCB4 PUSH0 DUP4 ADD DUP6 PUSH2 0x890 JUMP JUMPDEST PUSH2 0xCC1 PUSH1 0x20 DUP4 ADD DUP5 PUSH2 0x890 JUMP JUMPDEST SWAP4 SWAP3 POP POP POP JUMP JUMPDEST PUSH32 0x506169723A20494E53554646494349454E545F4C495155494449545900000000 PUSH0 DUP3 ADD MSTORE POP JUMP JUMPDEST PUSH0 PUSH2 0xCFC PUSH1 0x1C DUP4 PUSH2 0x9D4 JUMP JUMPDEST SWAP2 POP PUSH2 0xD07 DUP3 PUSH2 0xCC8 JUMP JUMPDEST PUSH1 0x20 DUP3 ADD SWAP1 POP SWAP2 SWAP1 POP JUMP JUMPDEST PUSH0 PUSH1 0x20 DUP3 ADD SWAP1 POP DUP2 DUP2 SUB PUSH0 DUP4 ADD MSTORE PUSH2 0xD29 DUP2 PUSH2 0xCF0 JUMP JUMPDEST SWAP1 POP SWAP2 SWAP1 POP JUMP JUMPDEST PUSH32 0x5265656E7472616E637947756172643A207265656E7472616E742063616C6C00 PUSH0 DUP3 ADD MSTORE POP JUMP JUMPDEST PUSH0 PUSH2 0xD64 PUSH1 0x1F DUP4 PUSH2 0x9D4 JUMP JUMPDEST SWAP2 POP PUSH2 0xD6F DUP3 PUSH2 0xD30 JUMP JUMPDEST PUSH1 0x20 DUP3 ADD SWAP1 POP SWAP2 SWAP1 POP JUMP JUMPDEST PUSH0 PUSH1 0x20 DUP3 ADD SWAP1 POP DUP2 DUP2 SUB PUSH0 DUP4 ADD MSTORE PUSH2 0xD91 DUP2 PUSH2 0xD58 JUMP JUMPDEST SWAP1 POP SWAP2 SWAP1 POP JUMP INVALID LOG2 PUSH5 0x6970667358 0x22 SLT KECCAK256 JUMPDEST BASEFEE MSTORE SLOAD 0x1F TIMESTAMP 0xC3 0xF 0xBA MSTORE 0xB7 0xE4 CHAINID 0xDD 0xAE SWAP12 MOD PUSH32 0x205AD89431900C90131F01AB53F364736F6C634300081A003300000000000000 "
		},
		"gasEstimates": {
			"creation": {
				"codeDepositCost": "706800",
				"executionCost": "infinite",
				"totalCost": "infinite"
			},
			"external": {
				"REWARD_RATE()": "414",
				"SECONDS_IN_YEAR()": "347",
				"addLiquidity(address,uint256,uint256)": "infinite",
				"claimRewards()": "infinite",
				"removeLiquidity(address,uint256,uint256)": "infinite",
				"reserve0()": "2470",
				"reserve1()": "2425",
				"token0()": "2509",
				"token1()": "2552",
				"xoraToken()": "infinite"
			}
		},
		"methodIdentifiers": {
			"REWARD_RATE()": "5997bb37",
			"SECONDS_IN_YEAR()": "5dcc9391",
			"addLiquidity(address,uint256,uint256)": "55776b77",
			"claimRewards()": "372500ab",
			"removeLiquidity(address,uint256,uint256)": "e38192e3",
			"reserve0()": "443cb4bc",
			"reserve1()": "5a76f25e",
			"token0()": "0dfe1681",
			"token1()": "d21220a7",
			"xoraToken()": "f7c899a1"
		}
	},
	"abi": [
		{
			"inputs": [
				{
					"internalType": "address",
					"name": "_token0",
					"type": "address"
				},
				{
					"internalType": "address",
					"name": "_token1",
					"type": "address"
				},
				{
					"internalType": "address",
					"name": "_XORA",
					"type": "address"
				}
			],
			"stateMutability": "nonpayable",
			"type": "constructor"
		},
		{
			"anonymous": false,
			"inputs": [
				{
					"indexed": true,
					"internalType": "address",
					"name": "sender",
					"type": "address"
				},
				{
					"indexed": false,
					"internalType": "uint256",
					"name": "amount0",
					"type": "uint256"
				},
				{
					"indexed": false,
					"internalType": "uint256",
					"name": "amount1",
					"type": "uint256"
				}
			],
			"name": "Burn",
			"type": "event"
		},
		{
			"anonymous": false,
			"inputs": [
				{
					"indexed": true,
					"internalType": "address",
					"name": "sender",
					"type": "address"
				},
				{
					"indexed": false,
					"internalType": "uint256",
					"name": "amount0",
					"type": "uint256"
				},
				{
					"indexed": false,
					"internalType": "uint256",
					"name": "amount1",
					"type": "uint256"
				}
			],
			"name": "Mint",
			"type": "event"
		},
		{
			"anonymous": false,
			"inputs": [
				{
					"indexed": true,
					"internalType": "address",
					"name": "sender",
					"type": "address"
				},
				{
					"indexed": false,
					"internalType": "uint256",
					"name": "amountIn",
					"type": "uint256"
				},
				{
					"indexed": false,
					"internalType": "uint256",
					"name": "amountOut",
					"type": "uint256"
				},
				{
					"indexed": true,
					"internalType": "address",
					"name": "tokenIn",
					"type": "address"
				},
				{
					"indexed": true,
					"internalType": "address",
					"name": "tokenOut",
					"type": "address"
				}
			],
			"name": "Swap",
			"type": "event"
		},
		{
			"inputs": [],
			"name": "REWARD_RATE",
			"outputs": [
				{
					"internalType": "uint256",
					"name": "",
					"type": "uint256"
				}
			],
			"stateMutability": "view",
			"type": "function"
		},
		{
			"inputs": [],
			"name": "SECONDS_IN_YEAR",
			"outputs": [
				{
					"internalType": "uint256",
					"name": "",
					"type": "uint256"
				}
			],
			"stateMutability": "view",
			"type": "function"
		},
		{
			"inputs": [
				{
					"internalType": "address",
					"name": "to",
					"type": "address"
				},
				{
					"internalType": "uint256",
					"name": "amount0",
					"type": "uint256"
				},
				{
					"internalType": "uint256",
					"name": "amount1",
					"type": "uint256"
				}
			],
			"name": "addLiquidity",
			"outputs": [],
			"stateMutability": "nonpayable",
			"type": "function"
		},
		{
			"inputs": [],
			"name": "claimRewards",
			"outputs": [],
			"stateMutability": "nonpayable",
			"type": "function"
		},
		{
			"inputs": [
				{
					"internalType": "address",
					"name": "to",
					"type": "address"
				},
				{
					"internalType": "uint256",
					"name": "amount0",
					"type": "uint256"
				},
				{
					"internalType": "uint256",
					"name": "amount1",
					"type": "uint256"
				}
			],
			"name": "removeLiquidity",
			"outputs": [],
			"stateMutability": "nonpayable",
			"type": "function"
		},
		{
			"inputs": [],
			"name": "reserve0",
			"outputs": [
				{
					"internalType": "uint256",
					"name": "",
					"type": "uint256"
				}
			],
			"stateMutability": "view",
			"type": "function"
		},
		{
			"inputs": [],
			"name": "reserve1",
			"outputs": [
				{
					"internalType": "uint256",
					"name": "",
					"type": "uint256"
				}
			],
			"stateMutability": "view",
			"type": "function"
		},
		{
			"inputs": [],
			"name": "token0",
			"outputs": [
				{
					"internalType": "address",
					"name": "",
					"type": "address"
				}
			],
			"stateMutability": "view",
			"type": "function"
		},
		{
			"inputs": [],
			"name": "token1",
			"outputs": [
				{
					"internalType": "address",
					"name": "",
					"type": "address"
				}
			],
			"stateMutability": "view",
			"type": "function"
		},
		{
			"inputs": [],
			"name": "xoraToken",
			"outputs": [
				{
					"internalType": "contract IERC20",
					"name": "",
					"type": "address"
				}
			],
			"stateMutability": "view",
			"type": "function"
		}
	]
}